:100000000C949A170C94C2170C94C2170C94C21734
:100010000C94C2170C94C2170C94C2170C94C217FC
:100020000C94C2170C94C2170C94D9230C94562428
:100030000C94C2170C94C2170C94C2170C94C217DC
:100040000C94C2170C94C2170C94C2170C94C217CC
:100050000C94C2170C94C2170C94C2170C948826E7
:100060000C94C2170C94C2170C94C2170C94C217AC
:100070000C94C2170C94C2170C94C2170C94C2179C
:100080000C94C2170C94C2170C94C2170C94C2178C
:100090000C94C2170C94C2170C94C2170C94C2177C
:1000A0000C94C2170C94C2170C94C2177BDEF7BDD8
:1000B000EF79CE739CEF79DA73A4EF79CE739CEF6E
:1000C00079CE739CEF79CA7394EF79CE739CEF79F4
:1000D000CE739CEF79CA7394EF79CE739CEF79E07D
:1000E00073C0EF79CE739CEF79CE739CEF7BDEF714
:1000F000BDEF7BDEF7BDEF7C0E739CEF79CE729483
:10010000EF79DA7294EF79CE7294EF79CE739CEF37
:100110007C0E739CEF7BDE5295EF7BDE5295EF7B7E
:10012000DE5295EF7C0E739CEF79CE939CEF7C0EA4
:10013000739CEF7BDEF7BDEF7BDEF7BDEF794E738F
:100140009CAF79DEF2BCEF79DF029CEF79DF02BC75
:10015000EF79DE73BCAF79DE76BCAF79DE739CAF2E
:1001600079CE74BCAF79DE73BCEF795F07BCE779F9
:10017000DF07C0A5794E739CA57BDEF7BDEF7BDE64
:10018000F7BDEF79CE739CEF79CED3A4EF79CE7320
:100190009CEF795EF7D9EF79DE73D8EF795E73D88B
:1001A000EF79DE73D8EF795EF7D9EF79CE739CEFF4
:1001B00079CE739CEF79DEF7BCEF7C1EF7BE0F7B28
:1001C000DEF7BDEF294AF7BCA5294AF7BCA529CB24
:1001D0005AD4E77D9EF7BEEF7D9EF7BEEF7D9EF77A
:1001E000BEEF29E94A1DA57BDEF7BEEF7BDEF7BE39
:1001F000EF7BDEF7BEEF81DEF7C0E549E94A1CE59B
:1002000081DEF7C0E57BDEF7BDEF7C0F03C0EF7941
:10021000CE739CEF7BDEF7BDEF7BCA5794AF7BEECE
:100220005294AF7BEE5B94AF7BEE5BB6EF49CE7A38
:10023000528F7BEEFB3ECF796E5B16C5794E5394A1
:10024000E5794E5394E5794A5294A57BDEF7BDEFEC
:10025000294AF79CE72BCB53DDE7294AF29DF63973
:10026000CEF294A539CF46D4F439CEF294A5294ADA
:10027000F29DF72BCB53D9E7294AF39CE77BDEFBB2
:10028000BDEF39CE739CE73C0E739E073C0E749E07
:100290000739CE739CE77BDEF7BDEF7C0E739E0FB4
:1002A00079DA739D2F7C0E739E0F7BDF77BDEF7B1A
:1002B000DF77BDEF7BDF77BDEF7BDF77BDEF794A7F
:1002C0007294AF795E77BCAF795E47BCAF795E77E9
:1002D000BCAF794A7294AF7BDEF7BDEF39CEF79CA5
:1002E000E73B4E529D2739CEF79CE77BEEF7BEEFFA
:1002F00039CEF394A5294AF395E5294B5395E52981
:100300004AF395E539CEF394A57BEEF7BEEF294E7F
:10031000779CE7294A579C87294A5A9CE7294A57DC
:100320009CE77BDEF7BDEF79E94A528C791EF7BE78
:10033000C779DE93D4E77D9EF7BCE77D8E7294E7A4
:100340007D9E77BCE779DE77C0E779DE579CE77959
:10035000DE579DA779E87A1CE77DDE57C0E77D4E22
:100360005AD6CF7BDEF7BDEF295E779CE7295E7713
:100370009DA7294E701D27294E779CE77BDE07BC81
:100380000F295E77BCEF294A77BCEF294A77BECFA9
:100390007BDE07BECF39CE73BECF394A5382CF3909
:1003A0004A53BECF394A53BECF39CE73BECF91DE4A
:1003B000779CE791DE701D2791DE779CE77BDE77E7
:1003C000BDEF7DCE53D1EF79DE779DEF794E03956A
:1003D000EF79DE779DEF79CE73D9EF7BDE07BDEF46
:1003E00091DE779CE791DE701DA791DE779CE79107
:1003F000DEF79CE77BDEF7BDEF79CE7294EF79C430
:100400007294EF79CE7294EF7BE4F7BCEF79CE77FC
:10041000BCEF81E077BDAF81D277BCEF79CE77BCFE
:10042000EF7BE4F7BCEF79CE7294EF79CE7294EF64
:1004300079CE7294EF7BDEF7BDEF7BDEF79CE77938
:100440004A5295F279441295E5794A5295E5785EDB
:10045000F7BDF239DE5114A769DE5294A749DE5088
:1004600094A739DE529CE7785E193DF27D8A529559
:10047000E57D9E1795E57D8A5295F27D8A5294A777
:100480004BCE7294E70BCE7294E70BC4F294E7392B
:10049000CEF7BC2F39EEF294A539EE7294A539EB64
:1004A0005A88A208427294A57BC2F294A57BC4F735
:1004B000BDEF294F239CE7294F23B4E2294F239C0A
:1004C000E77BDEF7BDEF7BDEF7BDEF3D2820D0E711
:1004D0002BDEF7BCA52BE073BE412BCED39CE52BC6
:1004E000CE939CE52BE073BE412BDEF7BCA5394EC5
:1004F0005294E72BECF7BCEF2BEC2A14E52BDEF73C
:10050000BCEF39E82A14E523DEF7BDEF7BDEF79672
:100510004539CE779445295E079645295E0796456D
:10052000295E07964539DE7394A50BDEF3BE4F397D
:10053000DF03BCAF69DE93BCAF39DF039CE779DE34
:10054000F7BDE779C25294277DDE5295F611E45249
:10055000964711E87294A539DE5294A5BBDEF7BC2C
:10056000A539DE43BCA5296AD39C3239DE23BCA55C
:10057000B3DEF7BCA539DE5294A521EA72BE52B3B0
:10058000DEF7BCA5094A53D0E7294A52BCA503DED1
:10059000F7BE5239D2711CE77BDEFAD6B7794A5BD7
:1005A00014B7794AFB14B7794AF794B779C07380C6
:1005B000F47D9F77BECF79CF47BCEF79CEF79CEF24
:1005C000794AF794AF794AF794AF794AF794AF79BB
:1005D0004A7394AF79CE739CEF7BDED4BDEF294A8A
:1005E00052BDEF294A52BE10795EF03CED791EF300
:1005F0009CE9795E739CE7795E77BDEF79CE77BD34
:10060000EF79CE77BDEF7BCE77BDEF294A5294A527
:10061000294A5296A5294A5AD8A5294A5294A52969
:100620004A5294A581CE73842139D223842181DA60
:1006300073842139CE738421BBDF27BECF114B22B7
:1006400096CF394A5296CF0BDEF296CF294AF296D0
:10065000CF114B5116CF948AF296CF948AF7BECF22
:10066000114B229CEF294B22BDEF39CEF39DE73B86
:100670004F939F2539CEF39DE77BDEF39DE581CE39
:10068000739DE781D2739DE581CE739DE77BDE7319
:100690009DE539DEF3BDE729CE7C9CE539DEF3BD6F
:1006A000EF29DE739DEF39CE739DEF81E0781DEF6A
:1006B00081CE739CE781C6769D2781CE739CE781AE
:1006C000CE739CE77BDF97BDEF7BCE73BDEF7BCE18
:1006D00073BDEF7BCE73BDEF7BCE73BDEF7BDF874A
:1006E000BDEF81CE7394A581CE73972581C6739497
:1006F000A581CE7394A57BDEF79DA978CA539CE7AC
:10070000795EF7DDE5795EF7DDE5794A539DE57BB6
:10071000DEFC3DF8294AF3BCE7294AF3BCEF28CBBD
:1007200053E0EF288A53BCEF7DDEFC3CEF294A53AF
:10073000BCEF288A53C8EF295EF7BDEF7BDEF7BE1A
:10074000107BDEF7BE1081F87E70E981F1DEF4E700
:1007500081F077BDEF7BF0F79DEF79CE73E8EF7B0B
:10076000DEF79CEF794A7E9CEF794A73BDEF795AA8
:1007700052BE10794A52BE107BDEF7BE107BDEF708
:10078000BE107BDEF7BDEF3F3853F38F6EFA73EF89
:10079000AF7BDE529CEF79DE5BBCEF7A5E52BCEF42
:1007A00079DE53BCEF79DE5DBCEF79DEF7BCEF7923
:1007B000CA5294EF79CA5394EF79DEFB3CEF79CAC1
:1007C0005B14EF7BDEF7BDEF3944539CE7394657A6
:1007D000BDE7394A57BDE793DE739E873BDEFB3D9D
:1007E000E74BCAFB3CA73BCEF13CAF6BCEFB3CAF2B
:1007F00039CF5B50AF3E38F7BCEF7E30F7BEEF7EAF
:1008000030F7BCEF794E709CAF7BDEF7BDEF7BDE3F
:10081000FD673C39CE73D2982BCAF2BED82D6B5AE5
:10082000D6D82BCAF2BED82BCAF2BED869CE73A4D2
:10083000E72BCAF2BEF82BCAF2BEF82D6B5AD6F8D7
:100840002BCAF2BEF82BCAF2BEF839CE73D2987B0F
:10085000DEFDE73D3BDEF294A53E338294A53BCE20
:10086000F294A54BCF4294A57BCEF7D9EF39CE7247
:1008700094A739CE739CE739E0F7BE0739DEF7BDA0
:10088000E739DEF7BDE73B4E5294A539DE5294A519
:1008900039DE5B94B73F4F4A0E9439CEF7BDEF3C3B
:1008A0000EF7BDEF39CEF294A77BDEF294A57BDE86
:1008B000F2960569CE7294A539CE5294A93BDE52C8
:1008C00095EF39CE7295EF29779CF5EF2C0EF01548
:1008D000EF294AF7BDEF7BDEF79CE77BDEF79E074B
:1008E0007BCE73BCE583CE7DE4E569CE73BCE58346
:1008F000CA52BCE57BCA52BCE52E8E73BCE52E0EF7
:1009000073BC657BDEF13DEF29C523C8A57E5EF98A
:100910001F2579CE739CEF785EF7BDEF81CE529D97
:100920002F81CE529CEF2DE873D6E52DDE33BEE548
:100930002DDEFC3EE72DE853D2962DDE73BED62D7C
:10094000DE73BED639F276E4E72DDE73BED72DDE38
:1009500073BED72D6A72D6D72D9F87BEC72D9E73C3
:10096000BEC53D9E73BEC54DA873D6C57BDEF7BD23
:10097000EF79CE779CEF79CC7A9CEF79CE779CEFAC
:10098000794A579CEF794A579CEF7BDEF7A4EF7BBF
:10099000DEF7B4EF794A579CEF794A579CEF79CE4E
:1009A000779CEF79CC7A1CEF79CE779CEF7BDEF7E2
:1009B000BDEF295EF7BDEF298A5295AF795EF7BD8D
:1009C000EF795EF7BDEF795EF794A5795EF794A5B0
:1009D000798E739C85795EF794A5795EF794E579B5
:1009E0005EF7BCEF7D6B5AD6AF794A57BCEF794AB8
:1009F00057BD2F7BDEF7BDEF39DF7A528F49DF77A6
:100A0000BECF69CE67BC4F39DF77BECF785F5AD68D
:100A1000CF39DEF7BCEF39DEF7BCEF39DE73BCEF60
:100A200039DEF7BCEF39DEF7BCEF39CE529CEF7BF5
:100A3000DE52BDEF294A52BDEF314A52BDEF33DEDF
:100A4000F7BDEFA94C5294273BDEF7BDE7384A5279
:100A500096A73BDEF7BDE7394A5294A73BDE52BD6D
:100A6000E73B5E52BD273BDE52BDE739E452C8E7A3
:100A70003BDE52BDE73BDEF7BDE73BDE52BDE7A5FF
:100A800028415294294A5794C5294A5794A5294A7E
:100A90005914A5294A591CE7294A579DA7294A579D
:100AA0009CE74BDEF7BEEF7BE107BCA523DEF7BC7E
:100AB000A5394E27BCA5294AF7BCA5298AF7BCA5AC
:100AC000294A5294A5294A5294A57BDEF7BDEF7BB3
:100AD000DE5295EF7BDE5850AF7BDE5298AF7BDE67
:100AE000F2BDEF7BCA5294AF7BCA5298AF4B4B52C8
:100AF00094AF3BCA5C94AF3BDEF295EF3BDEF295E0
:100B0000EF3BDEF3BDEF39CE73BDEF7BDEF7BDEF1C
:100B10007BDE7294A57BDE7294C579CE7294A57D3E
:100B20009E5295EF7D9E5395EF7D9E5295EF7D9F52
:100B300077BDEF29CA7394A52BDEF3BDED29CE5303
:100B400095E97BCAF794A5294A52BCE5294C529CE9
:100B5000E5294A52BCE5694A5794A5294A7398A5E4
:100B6000294A7794A52BDF2794A5C3DE5794A5C304
:100B7000DF27DDF7C3CA529DF7398A229DF7C3CA22
:100B8000529DF7C3DEF781F73852F79DF72964F3DA
:100B900094A5294A7D67A5294B9E94A57BDEF7BDC8
:100BA000EF7B4E5494EF7DAEF7BECFA9CE529CF4AE
:100BB000B3EEF7BEF6B3CE5294F6B3DEFBBDF6B19C
:100BC0004E5394F6B3EEF7BDEFB14E5394F7B3EE38
:100BD000FB3DF7B14E5B14F4B14E7A9CEF7BDEF730
:100BE000BDEF39CE7394A5BBDEF394A4BBCF439481
:100BF000A5BBC8F7BDEF2D4EF21D2F3BCAF39CEFEE
:100C00002D0F43B4EFBBCEF39CEFBBEEF7BECF3D51
:100C10000F4294E5BBEEF7BECF3BCEF294E73BCE5E
:100C2000F3BDE53D4F5394A57BDEF7BDEF39CE74A0
:100C30009CAF2BDEF93EEF2D6A529DAF2BEE57BED7
:100C4000EFB3EE5794E5B3EE57DC96B48E77DDF64E
:100C5000B3EEF7DDF6B3EE5294E7B3CAF7BECFB109
:100C60004E1294E7B14EF295E5214E1294A2825AAB
:100C70007394257BDEF914A57BDEF2864279CE796A
:100C8000164579CEF7BDEFD17457BDEF194A67BC51
:100C9000E72EF1D7BCE7DE7457BDEF7BDEF7BDEF83
:100CA0007BCB5295EF7BCD42D5EF7BCA4BD5EF7B0B
:100CB000DE5795EF39CE73F0FCB3DF779DE7B08F49
:100CC000779DF2B25A7C9DE5B0CF779DE5B3DF7793
:100CD0009CA5394E77DDE5B3CE779DE5B3CA579D28
:100CE000F2B3DEF79DE73BCE739DE73D0E739CA705
:100CF0003BDEF7C9E7384A539CA714A41084E22BC3
:100D0000CA52BCA70BCA52BDF2094E739CB2094E1F
:100D1000769CB2914E739CA193DE52BDE1395E5236
:100D2000BCA739E52948E7C5DE73BF16C09E93BF4F
:100D300003C5DE73BF1639F39CE4E72BDE52BDE535
:100D4000294E529CA5BBECF7DDE52BCF239E872BCC
:100D5000CEF295E7484EF79DE73BCA5795E7D9CACB
:100D6000579EA73BDE779DED3BDE739DE73BDE574D
:100D700095E72BDE2A1DE73D29479DE7B3DEF7D92E
:100D8000E7294A529CE739CB8394E73BDEF7BDE77E
:100D90003D0A228DE52BCA5295E73BCA5295E73BA7
:100DA000CA5295E793CA5115E14BCAD295E73BCA9F
:100DB000528DE73BCA5295E73BC65295E52BCA22B6
:100DC00096A73BDEF7BDE739CA7C14E77BDEF7BDAB
:100DD000EF79CE739CEF79CFBD9CEF79F59CE8EF6E
:100DE00079F452E8EF79F59CE8EF79CFBD9CEF817B
:100DF000CE739CF03F7BCEE8E73F305C74E33F70FE
:100E00005C70ED3F705C74E93F77DE74E739CE7358
:100E10009CE769CE739C043BDEF7BDE03BC447A46E
:100E2000E73BCA57BDE73C8E709E47BBDF67DDF6E8
:100E3000394B67DDE73BDF67DDE73D6B67DDE73BB0
:100E4000DF4A1C07BBDE77BDF639C25284E739DEC4
:100E500052BCE739C25284E728A87A14F0295E57B9
:100E600094E9295E5794F028A87A14E7BBDEF79D31
:100E7000F6385A73F2B67BCAF79DF6296EF295F6EC
:100E80002BEEF295F62BEEF395F63D0F539CF629DB
:100E90004AF295F62C0AF294A5294B5394A7B9CEA1
:100EA000221CF6BBDEF7BDF6BC0AD2A616B9CA7282
:100EB0009CF6B94A7295F67BCEFBBDF6B56B5395A1
:100EC000F6B1CEF295F6B1CB5294F691CA5295F6A0
:100ED000B3CEF7C9F6B14E1295F6B14EF294F621A3
:100EE0004F2289EF294A5294A72C8EFC61E729787A
:100EF0005295E72BCE77E1E7294BB294A70BDE772B
:100F0000BDEDAD6B5AD6A979DEF79DE729CA529C93
:100F1000A77BDE5785E77BDE5916477BDE5785E7E3
:100F2000288A5294A7294A5294A77BDE5295F781CA
:100F3000DE5295F749CE5294E781DE5295F67BDE7C
:100F40005295F67BDEF7BDF6AD6B5AD6B67D9EF7B1
:100F5000BECF294A5294A5C14A5D94A528CA52E43D
:100F6000A5294A5294657D9F67BECF79CE73B4EFB1
:100F700081CEF7BDEF4B4F5A9CAF81CEF794AF793E
:100F8000DEF794AF79E82A1CFC79DEF7BCF879E843
:100F900072E70779DF77BCF87C9F77BE5879C0206D
:100FA0001CF8785EF7BC3879CE7294F8794A52947E
:100FB000FD7BDEF7BDEF294A52BDEF294C52C8E751
:100FC000294A52C8E3294A52C8E77BDE56BDEF7B67
:100FD000DE52BDEF7BDEF7BDEF81CF8C630781CEA4
:100FE000F7BDE781CEF294A581D2F2BCA581CEF304
:100FF000144581CEF294A581CEF294A5294A5A9D3A
:10100000ED294A5C9F2739CE779DE5294A579DE512
:1010100093DEF79DF2394A529CA7B3DEF79DF7297C
:101020004A579DE739CA529DE513EEF79DE53BCE41
:101030005785E74BCA5A9E873BDEF79DE73D294A15
:101040001DE5394457C130394E579CE7394E579CFE
:10105000E7BBECF7BECF684E7A52CFC3ECF79CA546
:10106000C3CB5A9CA5C3CAF79CA5C3CF5BEF97C35C
:10107000E4FBEBB739CEF39CE7294F9394A5294EB7
:10108000F394A5194F4394A5295E5294A538DE52D6
:1010900094A5CBDEF2ECA5C1DEF294A5C9CE73BD5A
:1010A000E739DA739CE739CE77BDE73BDE5294B877
:1010B0003BCA52BCB83BCA5C14B83BDE5294B83948
:1010C000E94A528979CA52946F79CA5294AF294A2F
:1010D0005294A5294A5294A57BDE5295EF7BDE53AC
:1010E00015EF7BDE5295EF7BDE5295EF295FA3E78C
:1010F00087295E7C1FA7294FAEE4E7295E57BDE52F
:10110000295E57A4A5315E57B4A5295E57BDE57B7E
:10111000DE5294A529C777BDEFBBC54A52943BCA9E
:10112000779CE72D4E779CA53C8E77EB1C7BCE778A
:101130009FA779CE7D9DE77B4E73BDE77BDEF7BC35
:10114000A549CE77BCA57BCFA384E779F673BCA570
:1011500079DEF7BCA579CE739CE739E45284F06957
:10116000E45284E939DEF7BCF039DFC09CEF39F294
:1011700077BDEF39DE779465282E079DE72BCE7774
:101180009DE7154E7A70E713CE77BECF150E729499
:10119000AF7BCE7294AF78CE7294AF7BDEF7BDEFAB
:1011A000295E9794A5A9DE7794E529739C96C539A5
:1011B0005E7794A5B61E77BDF73E0E739CE73E1E84
:1011C000F7BDF63ECA5294E72BDEF7BDA72BCE52F1
:1011D00094E73D0E77BECF2BCFA39CE32BCE77BEFB
:1011E000EF39CE739CE739CE739CF63BDFBD6F764B
:1011F000A087BCEF963BDFBDEF1639CE17BF567BFD
:10120000DE1297B6825E57BCA5835E5315E781DE7A
:10121000F7BDE7785E52BDE739CE5295E7294A52CD
:1012200095E7295EF294E7794C52BDEF3E739C9F9F
:10123000033BDEF79DE53BDEF79DE7BBDEF79DE771
:101240003D4E579DE72BCA529D2D2BCA579DE73D1A
:101250000A579DE7BBDEF79DE73BDEF79DE72BDEF8
:10126000F79DE72BDEF79DE72BDEF79DE53E739CB0
:101270009F037BDEF7BDEF79EB53D287795EF3BD39
:10128000E7795EF3BC6779DEF3BDE779DFADEF8721
:1012900079CFDEEB677B4FDDEF6779DFBE77A7792C
:1012A000DEF3BDE7795EF3BDE5794A739CA57BDE8D
:1012B000739DEF7BDF04C1EF294A5A94A529445955
:1012C00014A5294A5794A5B85EF79CA739CE7A1C75
:1012D000E7B3DF77BF0F394A77A4EDBBDF67BF0FF6
:1012E00039EA729CE7294A52BDE1294A22BCA70B80
:1012F000DE52C8A5294B27BCA5294A7294A2294BC6
:10130000228CAF28CB2294AFC6B27EEF6739CE7362
:101310009CE77BCEF7BDEF7BCF5A95EF7BCAF79763
:10132000AF2B4E7294A97BCAF7974F7BCF5A95EF9C
:1013300039CF27BDEFE7707394A7294AF294B6100E
:10134000CAF28CB6841E7A96A2841E57BE527BDEE9
:10135000779CE739CE7C9CE9BBECF7BDE71BECF151
:1013600015F693ECF295E2BBECFDF1F639CE529412
:10137000A73BDF87DDF83D4E778EAD394A57D9EF71
:101380003BDEF794AF3C8A3294AF115E57BCA71B8B
:10139000F67C69E33BF3BC65F9CBFBDD65F2D9CEA6
:1013A000739CE739DEF7BDEF3EF47D60FA3F7BBC0E
:1013B000EFA53BDE77BDEF39CE739CE739DEFB4A04
:1013C00007294AFB1607288AFB160D2E0B51CA095E
:1013D00039C0709C65295E7794A5295E77CA521141
:1013E0005E7A04A5395E779CE703DE07BDF639C057
:1013F000D01CE7E1DE97BDF8C3DE078AA7C1EA7714
:10140000D8A510E87CE8A5295E779CA7295E77E837
:10141000B829CE7C9F05BD294A5294BBDEF3BDEFAF
:10142000BBDE52946FBBDE5194AFB94B9297054926
:101430004A57BCB7794657BCB7794B9297057BDEC4
:101440005194AF7BDE5294AF7BDEF3BDEF81CE7360
:1014500094A5834E73946581CE7394A539CE779C01
:10146000E738DA779D2739CE779CE7B6F5D7C0B055
:10147000B6B7B7EB9CB6B987EF9CB6B277EBBDB603
:101480003477E37DB6BBB7E2EFB63437E2EFB73877
:101490007DE2EFB6B78C76EFB5294A528F7BDEF747
:1014A000BDEF3BCE5295E93E4E32E7273BCE5295FB
:1014B000E73BEEF7BDE73BCE5AD6A73BECF7BDE7DF
:1014C0003BCE5295ED3BCA52EB273BCA52E3273E37
:1014D0004E5295E73BECFBBDE73BCA53BCE7394AAC
:1014E0003294EF394A52BDEF2D4E1288273BCEF28F
:1014F00095E73BCEF295E73D0F228A472BCAF7D9F5
:10150000E72BCAF294A7154E5294A92BCAF294ADB8
:101510002BCAF7DDE73D0F2288273BCEF295E73B4C
:10152000CEF295E73BCEF295E72D4E128A473E224A
:101530003E243E20322A24222A3E0C083E2E2A1A1D
:101540003E2A3A02023E3E2A3E2E2A3E8884848863
:1015500090A0A09088848281828498A0C0A0988462
:1015600082848890A0A0900000FE0101FE0000008F
:1015700000FF0000FF00000000FF0000FF00001857
:101580003C7F80807F3C18FE02AA82AA02E23624B9
:10159000342436E202F29E0F98FB0AFB98090B09ED
:1015A0000B99FB09F8980FFF111511111111111169
:1015B000111111111511FFFF10D050505050D010C3
:1015C000D0505050D010FFFF00EBA22AA2EBC1DC9C
:1015D00001EB223A8B88FFFF00FE435A5B42FE007C
:1015E000009FC8C8DF00FF0F98FA08F8980808089D
:1015F0000898F808FA980F7F415F7F615F61000EDD
:101600000E06060E0E000007070606070700060670
:101610000606000F0F00FFE7B39999B3E7FFFFB38A
:1016200099CDCD99B3FFFF99CDE7E7CD99FFFFCDD8
:10163000E7B3B3E7CDFFFFE7CD9999CDE7FFFFCD46
:1016400099B3B399CDFFFF99B3E7E7B399FFFFB320
:10165000E7CDCDE7B3FFFFE7C399BDE7C3FFFFC306
:1016600099BDE7C399FFFF99BDE7C399BDFFFFBDD2
:10167000E7C399BDE7FFFFC3E7BD99C3E7FFFF9944
:10168000C3E7BD99C3FFFFBD99C3E7BD99FFFFE75E
:10169000BD99C3E7BDFFFFFFFF07F70707FFFEFC8C
:1016A0000000FFFFFF00FF0000FFFFFF0000FFFF43
:1016B000FF0707F707FFFEFC0000FFFFFFC7D7D7B4
:1016C000C7077F7F7F707774707F3F1F00001F3FC9
:1016D0007F707774707F3F1F00007F7F7F7074770B
:1016E000707F3F1F00007F7F7F7175757170FCFEFA
:1016F000FF07F717073F3E3C0000FFFFFF0000FF1A
:10170000FFFFC7D7D7C7FFFE7C0000FCFEFF07170F
:101710001707BFBE3C0000FFFFFF0000FE00FFFFF9
:10172000FF0000FFFFFF000017F707FFFFFF07079D
:10173000071F1F1F101730707E3E1E00007F7F7F27
:1017400000007F7F7F017D05017F7F7F00001F3FBD
:101750007F707070707E3E1E00001F3F7F7070773C
:10176000707F3F1F00007F7F7F0000007F007F7F32
:101770007F00000000E030D8E8E86CE4D6BA7ABA1E
:101780009AC63CE0BABBB9A493A78C9BBBD380B7E5
:10179000BBD9603F000080C04060A0A0B0D0D8E8B6
:1017A000ECE4F4F61AE2FAFAFA36060371FDFDFBF0
:1017B000F6ECD810D0D0B0B0A0604040C04040405F
:1017C000C08000000000FF00FFFFFFFFFFFFFFFFE2
:1017D000FFFFFF1FE0FFFFFF0F00000000F8F1E335
:1017E000070F07030003030303C19D3C3C1E0EEEDD
:1017F000E0FD03FE00FC07F8FFFFFFFFFFFFFFFF18
:10180000FFFF7F80FFFFFFFFC080000000070F0F7A
:101810008080000000000000000F0F000000F0FFBB
:10182000FF03FC07405F706717B7B7D7D7DBDBBB99
:101830007DFDFCFBF7EFDFBF7FFFFFFEFCF8F0E074
:10184000C183070E0C8E87C3C0E0E0F0F878BFDFDD
:10185000613E0300415F5FDFEEA02F2F2FF707E30C
:10186000F0FBFBFBFDFDFEFE00FFFFFFFFFFFFFFA8
:10187000FFFFFFFFFFFFFFFFFFFF03BDD0CFB960FA
:10188000C0800000BF3F7FFAF6ED837FC0FF801F5E
:101890005F6FAFAFB7B777F1EEDFBF7FFFFFFFFF3F
:1018A000FFFFFFFFFFFFFF7FBFC17E0D1B37675BA1
:1018B000DCBD9DA3576737F2B99DA5B27B7939A6E8
:1018C000DE6F2E2127272B2C2F2F2F2F36151317A6
:1018D000171B1311352EEE96BAD9D9D3CE987000B6
:1018E00000000000F018ECF6BA3A7B7180379BCD0F
:1018F000E5F5F8FD3F60CF9FBFBF6F5F7F415F5F42
:101900007F41555D7F615F617F41555D7F415F5FD5
:101910007F7E7959797E7F59554D7F4175417F6131
:101920005F617F41555D7F415D637F000000000086
:101930003E5B4F5B3E3E6B4F6B3E1C3E7C3E1C183D
:101940003C7E3C181C577D571C1C5E7F5E1C00189B
:101950003C1800FFE7C3E7FF0018241800FFE7DB8F
:10196000E7FF30483A060E2629792926407F0505EB
:1019700007407F05253F5A3CE73C5A7F3E1C1C0828
:10198000081C1C3E7F14227F22145F5F005F5F06ED
:10199000097F017F006689956A606060606094A23B
:1019A000FFA29408047E040810207E201008082A54
:1019B0001C08081C2A08081E101010100C1E0C1EF3
:1019C0000C30383E3830060E3E0E06000000000097
:1019D00000005F00000007000700147F147F14243C
:1019E0002A7F2A12231308646236495620500008C1
:1019F000070300001C2241000041221C002A1C7F1A
:101A00001C2A08083E0808008070300008080808F2
:101A100008000060600020100804023E5149453E65
:101A200000427F400072494949462141494D3318DF
:101A300014127F1027454545393C4A494931412117
:101A40001109073649494936464949291E000014FB
:101A50000000004034000000081422411414141443
:101A600014004122140802015909063E415D594EF5
:101A70007C1211127C7F494949363E414141227F07
:101A80004141413E7F494949417F090909013E41A0
:101A90004151737F0808087F00417F410020404189
:101AA0003F017F081422417F404040407F021C02DA
:101AB0007F7F0408107F3E4141413E7F09090906AE
:101AC0003E4151215E7F0919294626494949320381
:101AD000017F01033F4040403F1F2040201F3F4007
:101AE00038403F63140814630304780403615949C0
:101AF0004D43007F41414102040810200041414113
:101B00007F040201020440404040400003070800F7
:101B100020545478407F284444383844444428387A
:101B20004444287F385454541800087E090218A4ED
:101B3000A49C787F0804047800447D400020404045
:101B40003D007F1028440000417F40007C04780461
:101B5000787C080404783844444438FC1824241859
:101B600018242418FC7C0804040848545454240401
:101B7000043F44243C4040207C1C2040201C3C402E
:101B800030403C44281028444C9090907C4464544D
:101B90004C44000836410000007700000041360840
:101BA0000002010204023C2623263C1EA1A1611270
:101BB0003A4040207A38545455592155557941219D
:101BC00054547841215554784020545579400C1E86
:101BD000527212395555555939545454593955542E
:101BE00054580000457C410002457D420001457C7F
:101BF00040F0292429F0F0282528F07C5455450090
:101C00002054547C547C0A097F4932494949323274
:101C100048484832324A4848303A4141217A3A42AB
:101C2000402078009DA0A07D39444444393D404087
:101C3000403D3C24FF2424487E4943662B2FFC2F43
:101C40002BFF0929F620C0887E09032054547941CE
:101C50000000447D413048484A32384040227A00F2
:101C60007A0A0A727D0D19317D2629292F28262905
:101C700029292630484D4020380808080808080857
:101C800008382F10C8ACBA2F102834FA00007B0097
:101C90000008142A142222142A1408950022009500
:101CA000AA005500AAAA55AA55AA000000FF0010D4
:101CB0001010FF00141414FF001010FF00FF10108C
:101CC000F010F0141414FC001414F700FF0000FFCF
:101CD00000FF1414F404FC141417101F10101F102C
:101CE0001F1414141F00101010F0000000001F102B
:101CF0001010101F10101010F010000000FF101036
:101D000010101010101010FF10000000FF14000041
:101D1000FF00FF00001F10170000FC04F41414174C
:101D200010171414F404F40000FF00F71414141432
:101D3000141414F700F7141414171410101F101FA4
:101D4000141414F4141010F010F000001F101F00F1
:101D500000001F14000000FC140000F010F0101030
:101D6000FF10FF141414FF141010101F00000000C7
:101D7000F010FFFFFFFFFFF0F0F0F0F0FFFFFF00BB
:101D800000000000FFFF0F0F0F0F0F3844443844CE
:101D90007C2A2A3E147E02020606027E027E02632E
:101DA000554941633844443C04407E201E200602CD
:101DB0007E020299A5E7A5991C2A492A1C4C7201AA
:101DC000724C304A4D4D303048784830BC625A46EB
:101DD0003D3E494949007E0101017E2A2A2A2A2ADC
:101DE00044445F444440514A444040444A514000C6
:101DF00000FF0103E080FF000008086B6B0836124B
:101E0000362436060F090F060000181800000010CF
:101E100010003040FF0101001F01011E00191D17B5
:101E200012003C3C3C3C0000000000080B00020299
:101E30000200000904000001020200000524001055
:101E400001052401010104240206052406000107FE
:101E500005810310004009040100020A0000000788
:101E60000502024000000705830240000004030948
:101E70000412010002EF02014041233680000101FB
:101E800002030141726475696E6F204C4C4300413E
:101E9000726475626F7900F0F89C8E8783878E9CE0
:101EA000F8F00000FEFF0303030303070EFCF80035
:101EB00000FEFF0303030303070EFCF80000FFFF0F
:101EC00000000000000000FFFF0000FEFF8383838E
:101ED0008383C7EE7C380000F8FC0E07030303077A
:101EE0000EFCF800003F7FE0C08080C0E07F3FFF35
:101EF000FF01010101010101FFFF0000FFFF0C0CC8
:101F00000C0C1C3E77E3C100007FFFC0C0C0C0C006
:101F1000E0703F1F00001F3F70E0C0C0C0E0703F96
:101F20001F00007FFFC1C1C1C1C1E3773E1C00009B
:101F30001F3F70E0C0C0C0E0703F1F000000000005
:101F400001FFFF01000000D5F08D14A1C881CFD999
:101F5000F1AF2000606000007C0804047800385471
:101F60005454180004043F44243844444428007C5A
:101F7000080404080020545478400000447D4000C8
:101F80000004043F44243E415D594E7F0808087F09
:101F90000038444444380000417F4000007C04780D
:101FA00004780038545454180048545454242040A1
:101FB000413F01003844444438007C080404780060
:101FC00020545478400004043F4424007F08040453
:101FD00078002054547840007C08040478458A1521
:101FE000AA15AAD56A342821321D0A0C0603020755
:101FF000022341A041804081402080408040200851
:10200000C77DA255A251A8158844A251AA54A8512F
:102010008205FF00004180800080E0F0F0F0F0E0F9
:1020200060606068EDE4E3E0E06172E102E1321AD1
:10203000AF1188548A452A059245A241A055AA5558
:10204000AA55BFE0000000003CFEFFFFFF1DEC367C
:1020500037F7F7EE1FFF3FDF2E37F6EE1C037E55F6
:10206000CAC5A251A854AA552A158A452251A2547C
:10207000A055FEC3BC66400038DF7FBFFFFFFE7D7A
:102080007D7DFDFE3F7FFFF06D1DBDFEFFE0833FC8
:10209000C07FA255A2512804A251A854AA11A2158A
:1020A000A2C56A4563416B5E7871A64B8D979C38DB
:1020B000312306464D4D6D727F6F1F370F1DCBE0EC
:1020C0007F556A4540C08AC56AB5DAEDCA3DCEF390
:1020D000FDFEF8877FFFFFFFFFC0BFBEBDDB57A738
:1020E000CFB78BFAF676A6CA76EA9C5FDFC0FEFE13
:1020F000FFFFFFFF0FB6B9FBF8F3F7FFF8F8FC0698
:10210000C3E1E1E1C101FFFF000000FFFFFFFFFFAE
:10211000FFFFFEFCF8FFFF00000101010000FFFFD0
:10212000000000FFFFFFCF8787CFFFFFFF1F3F604B
:10213000C08080808080FFFF000000FFFFFFFFFF66
:10214000FFFF7F3F1F0000000000000000000000B4
:10215000000000000000000000000000000000007F
:10216000000000000000000000000000000000006F
:10217000000000000000000000000000000000005F
:1021800000000000000000000000000000000080CF
:102190008080000000000000000000000080C040BF
:1021A000404040C0800E11242E3C79FEF8F0E0E063
:1021B000E0B0307CFEFFF0E66F6F26301F000000BD
:1021C0000000000000010305090B090403010000E1
:1021D00000000000000000000000000000000000FF
:1021E00000000000000000000000000000000000EF
:1021F00000000000000000000000000000000000DF
:1022000000000000000000000000000000000000CE
:1022100000000000000000000000000000FEFFFFC2
:10222000FEFCF8F2E6CC1C78F8F0E0E0C0C08000DC
:102230000000000000FFFFFFFFFFFFFFFFFFFF7E2A
:102240003C99C3E7C3993C7EFFFF7E3C187FFFFFAC
:102250007F3F1F4F6733381E1F0F0707030301001F
:10226000000000000000000000000000000000006E
:10227000000000000000000000000000000000005E
:10228000000000000000000000000000000000004E
:10229000000000000000000000000000000000003E
:1022A000000000000000000000000000000000002E
:1022B00000000000000C9EFEFCF8FE3E0C0000003A
:1022C0000000000000008080808080E0F8FEFFBFFA
:1022D0008F838C3FFEF8C08080808080000307677A
:1022E000F7773717070707070707070700030F3FA9
:1022F000FFF7670703000000000000000000000077
:1023000000000000000000000000000000000000CD
:1023100000000000000000000000000000000000BD
:1023200000000000000000000000000000000000AD
:10233000000000000000000000000000007F417568
:10234000417F415F5F7F59554D7F415D417F7F7F79
:102350007F4175417F615F617F4175417F5D415D77
:102360007F415F5F7F4175417F41554B7F415F5F9B
:102370007F41555D7F7F7F7F415D417F417D417F13
:102380006B7F081C0008221C0103070F07030108CC
:102390000C0E0F0E0C087F4175717F415F5F7F410E
:1023A00075417F7947797F7F7F7F7F7F41555D7F53
:1023B000415D637F5D415D7F7D417D7F7F7F7F7F6D
:1023C0007F4175417F41554B7F415D417F415F4179
:1023D0007F7D417D7F7F59554D7F415D417F415FCD
:1023E000417F417D417F415D637F7F59554D7F41F5
:1023F00075417F615F617F41555D7F7F7F7F7F7F1B
:1024000041555D7F4977497F5D415D7F7D417D7F9E
:102410007F7F7F7F7F415D5D7F415F5F7F41555D56
:102420007F4175417F4175497F7F4175497F4155A6
:102430005D7F4175417F415D637F7F7F7F7F7F59F6
:10244000554D7F41555D7F417D417F415D637F7F7C
:102450007F7F7F010006070804057F41757D7F416E
:10246000754B7F415D417F4173417F7F7F7F7F411E
:1024700075717F415D5D7F7F7D417D7F415D417FE6
:102480007F7F7F7F7D417D7F41754B7F4175417FA0
:10249000417D417F59554D7F41757D7F41555D7F20
:1024A00041754B7F5D415D7F417D417F435D4D7F48
:1024B0007F7F636377736555557763770F070D09E2
:1024C00005100414151617000C0201120603181942
:1024D0001A1B1C1DFF8181F18F8181FF2A01800160
:1024E000800180540014401A58022800022B421820
:1024F0001842D440183C001818003C1800545400EE
:10250000005454003F7F4A4642427E003F7F625261
:102510004A467E003F7F424262527E000066420091
:102520000042660000003C24243C0000C3810000FF
:10253000000081C3F1FFFFFFFFFFFF8F309FE14DE0
:102540004DE19F303EBFEF5D5DEDBF3E007E7E669C
:10255000667E7E00007ED14141C17E00DA7F6161EE
:1025600061617FDA7EA9D9A9D9A9D97E007EDF7FF2
:102570007FFF7E00FFE7B39999B3E7FFFFE7CD99AF
:1025800099CDE7FFFFE7C399BDE7C3FFFFC3E7BDF1
:1025900099C3E7FF8181818191818181FF000000E2
:1025A000100000FFFC020101110101010101010104
:1025B000110102FC3F40808090808080808080807C
:1025C0009080403F814224181824428138FFFF7FC9
:1025D0007FFFFF38399EE14D4DE19B343B94E14D47
:1025E00048E199362A90C5054881A8454184A00054
:1025F000008082403FFFFF7F7FFFFF383BFFFF7F70
:102600007FFFFF3F7FFFFF7F7FFFFF7F0EFEFE709C
:1026100040C7C70706070401801020409E6EF7FAE6
:10262000F9FBF6F4F404F6FAFB797A372F1F1F1F33
:102630000C03000101020206050101000101000076
:102640000000000000000000000000000080F01CFE
:10265000667B7D3DBD9B463C00F80CF4F4F4ECD861
:1026600030E000FE037DBEDFEFF7F7F7F00FECF48C
:10267000F4F7E6D9FFFFFF3FC0FF000F18376F5F89
:10268000DFB7BBB9BABBBFBFBF8FB7BB9D9E6EF7ED
:10269000FAF90000E038CEF3FDFD3DC3FE8000F006
:1026A00018E8E8E818F080000000000060BEC3EC05
:1026B000F7EEDA36EE1EFEFDF9FDF6E7D7B3BDBC48
:1026C000DDCDC33EE000BF9E5D4B2713090402022F
:1026D00002060D0B0B0B0B0B0B0B0B0B0904030072
:1026E000010EF0873FDF6FB3DDDEDEBE7DFB77B727
:1026F000CF3FFFFFFFFFFFFFFEFEFCFCFCF8F8FCF6
:10270000FEFFFFFFFFFFFFFFFFE719DE3F7F7E9D1C
:10271000E1FBFAF6F4F406FAFAFBA0B098AD76F80D
:10272000FBFBF7CF3F0F703D3E3F3F3C033F3F3F3A
:102730003F3F3F3F3F3F3F3F3F3F3F3F3F3F3F3FA9
:102740003F3F3F3F3F38073F0202020605050504B1
:102750000505050400000000000000008080C04066
:102760004060B0D8E8D8D090105050D0D8E8E8E811
:10277000E8E8E8E8E868A8C8ECF6FA7A320E68E813
:10278000D830E08000000000000080E038CCE69BFC
:102790007DFDFEFE8F0F040001010307C78F9F9E82
:1027A0000E05010101010101010003072773F9E092
:1027B00000000000033FFFFCE31EF00000003EC3EA
:1027C0001C7FFFFFFFFEF9E79F7FFEF8C0000000BF
:1027D000000063E7E77210F0C08000008080800096
:1027E00000C0C080F8180C0C000000019FFFFEE143
:1027F0001FF0800000030C71873FFFFFFFFFFEF119
:10280000CF3FFFFCF0E0E0E0C0C080808003030623
:102810000F0F03030F3C1F00010180C0E0F8FCFE16
:10282000FFFFFF7F9F47F08F000000000000FC04C7
:10283000F6EAEBDD5D8DEDEDCBCA9A9A1A5A5ADABB
:10284000DADADADAD6B4B4B4B4B4343434B494D40E
:102850008C2868686858B060C0800000000000FEE6
:1028600003FCFFFFFFFF0201010303E7E7CF0F1F98
:10287000060001010101030301010C1E9EDFCF0FC1
:102880000707030380FFFFFFFE0EE03F000000008C
:10289000F80FF0FFFFFFFF03000000000003070731
:1028A00000000000000000000000000000000F0F0A
:1028B000070000000080FFFFFFFF0FE03F00808067
:1028C000C0407F80BF7FFFFFFFF0E0C0C0800000FE
:1028D000000003030C0C303030300C0C03030000FC
:1028E000000000008080C0FFFFFFFF0FE0BF8000FE
:1028F000F80CF6F3F576AEDFDFDF1FCFEEE503F77A
:10290000FB03FBFBFBFC0CFCFCFE0EFEFEFE7080E2
:102910005018F8FCFCFEFEFEFFFF1FC7731BB5ED51
:10292000DEBF1E6EF5FBF66C98B060C000070C09A8
:102930000B19161717171713080B09040605040DB2
:102940000B0B0B0C0B0B0B0C1B372F2F2F2F2E31C0
:102950001F010101010101003F232D2D2E625C5D4D
:10296000CEB6B6BADD5E5E6C331E10190E080C07CB
:1029700002040704080808070808080708102021AF
:102980002021231C00000000000000000039252445
:10299000223A46456392928A4500000000000000FA
:1029A0000000000000008080C040402020101088FF
:1029B000C8482818181818D8B8B898181818181827
:1029C00018181818181898B8B8B8D8181818182857
:1029D00048C888181030206040C080800000000087
:1029E000000000000000000000E0E0707078686CFB
:1029F0006464626261616160606060606C6E6F6D92
:102A00006C6C6C6C6C6C6C6C6D6D6D6F6F6F6F6FF4
:102A10006F6F6F6F6F6F6F6D6D6D6C6C6C6C6C6CDE
:102A20006C6C6D6F6E6C6060606060616161636250
:102A300066646C68787070E0E000000000000000E0
:102A400000000000008080C0E0D050004840E0F06E
:102A5000F0F8FCFCFCFCFCFCFC7C7CFCBCBCFCF84A
:102A6000E808103030204000800000000000000026
:102A700000000000000000000080C0E0F0F8FCFE54
:102A8000FFFFFBF918000000000103030101808132
:102A90000160040C18F0C0800103F7FFEFE7FEFCB3
:102AA000F8F0133E260000008080A0C00000000067
:102AB0000000E0FCFFFFFFFFFFFFFFFF3F0F0700ED
:102AC0000000000000000000004183070F0000012B
:102AD000014167879FFFFFFFFFFFFFFFFFFFFFFF32
:102AE000FFFFF6E0C33F0F0703030C2000FFFFFFCB
:102AF000FFFFFFFFFFFFFFFFDC8000000000000082
:102B000080800080010080C0E0F8FCFEFFFFFFFF36
:102B1000FFFFFFFFFFFFFFFFFFFFFFFFFFFFFFFFC5
:102B2000FF0600000000000001FFFFFFFFFFFFFFA6
:102B3000FFFFFFFFFFFFFFF8F0E0C4CF9F0F273F2D
:102B40007FF4E4C7CFDFDFFFFFFFFFFFFFFFFFFFE3
:102B5000FFFFFFFFFFFFFFFFFFFFFFFFFFFFF8F09B
:102B6000E0C08080C000073F7FFFFFFFFFFFFFFF47
:102B7000FFFFFFFFFFFFFFFFFFFFFEFCF8391B0316
:102B8000010101010303030307070707070F1F3FA5
:102B90003F3F3F3F7FFFFFFFFFFFFFFFFF7F3F07FD
:102BA00000000000000003070F1F3F7FFFFFFFFF33
:102BB000FFFFFFFFFFFFFFFFFFFEFCF8E0E0C000AC
:102BC0000000000000000000000000000080F0FC99
:102BD000FFFF7F3F1F0F0703000000000000000001
:102BE000000000000000000000010103070F0F0FAC
:102BF0001F1F1F3F3F3F3F3F3F3F39300000000056
:102C0000002020001010080C0E0703010100000036
:102C100000000000000000000000000000000000B4
:102C200000000000000000000000000000000000A4
:102C30000000000000001050F0F878783878732316
:102C40008FFFFE7F3FC07C7CFCBCBCFCF8E808101A
:102C50003030204000800000000000000000000034
:102C60000000000000000000000000000000000064
:102C7000000000000000000000000080E0F8FC1CE4
:102C80000C0606020686CCD87070389CDCC6F9FCAF
:102C9000FE3E06000000000000000040E0FCC7808F
:102CA000010104061FF9F0C0800103F7FFEFE7FE02
:102CB000FCF8F0133E260000008082ACD818386083
:102CC000F0B010103020E080000000000000000094
:102CD0000000000000000000000E1FDF7F33614392
:102CE00003020000003F7FF1CC9E3F7FFFFF0F03F8
:102CF00001000080800000000000401020C1633906
:102D00000F000000FC074167879FFFFFFFFFFFFFE9
:102D1000FFFEFFFFDFFFFFF6E0C33F0F0703030CDB
:102D200020011EF381010303060C38F0C0000000EF
:102D3000000000000000000000FE1F016080800015
:102D400000FCFEFFFF07F3FBFBF3F7F7F4F5F5F1EB
:102D5000F1F5A1212923624A5ADACA62C341709867
:102D6000CCEEFEFFFFFF7F7F7FFFFFFFFBFFEFFF4C
:102D7000FF7F3F1F4F239199919999B9193376E4B9
:102D8000E4CDD830033E0000303C0F0707070707AB
:102D90000707070E3EFCF8F0C001030604080811FF
:102DA000181C0F1FBF00FFFFFFFFFFF7FFFFFFFF14
:102DB0007F7FFFFFF8F060446FFFEFE7FFFF746471
:102DC000676FFFFFFFFFFF7E7EFEFCFCFCF8F8F85C
:102DD000F8F8FD7CFEFEFFFFFFF080010103060C0A
:102DE000F9077DC141001020206080000000000034
:102DF000008080C0E0FFFF3F1F00000000000000D7
:102E000000001E3F63C64449FB1BC3E3F3F3F9F81C
:102E1000FCFFFFFFFFFFFDFEFCF8F0E1E76F0F078F
:102E20000707C63F0703F00C0307070707070F1F35
:102E30003F3F3F3D3EFFDF3F7FFFFFFFFEFC783817
:102E40008580FC1F00008080E0E0FFF80606070791
:102E50000707070703010000000000000000000052
:102E60000000000000030604070E0813070F1F3FB1
:102E70007FFFDFFF7F7FBFFFFFFFFFFFF8F0E080F6
:102E8000F04F807CF8E3EC902040800000000000D0
:102E9000000080F0F4FFFF7F3C80C36733382E2BA7
:102EA0003B10111D07030303010000000000000098
:102EB0000000000000000000000000000000000012
:102EC0000000000000000000000000000000000002
:102ED0000000010002070F2F4FDFDF1FBFBF3FBF02
:102EE000BFA7B1164863761F2F5A54793244584809
:102EF0006C6E6733190D0400010000000000000033
:102F000000000000000000000000000000000000C1
:102F10000000000000000000007F7D417D7F4177C0
:102F2000417F41557F7F41557F417B77417F415DA7
:102F3000637F4A2711241FBECFEFDAE0DEBFCDBF8B
:102F400011E0A0E0B1E0EAEEFBE602C005900D92D0
:102F5000AE34B107D9F726E0AEE4B1E001C01D926E
:102F6000AF39B207E1F717E1CAE9D7E104C0219709
:102F7000FE010E94D435C939D107C9F70E947B27C9
:102F80000C94F3350C94000090919206982329F04C
:102F900090919106982381E009F080E0089593E8EC
:102FA00094BD609567BD91EF90938000109288006A
:102FB00080938A000895E6E3F2E0A0E0B8E00080A4
:102FC0000EBC8111012C1197A0FDFDCF0192B9F724
:102FD0000DB40895FC0180913502882311F13FB7AB
:102FE000F89482E08093E9002091F200822F90E033
:102FF0001816190614F481E090E0882339F0289817
:1030000044E6409334024091F1004083222339F09A
:103010002091F200211103C02BE62093E8003FBF6E
:1030200008958FEF9FEF089583E08093E9008091EA
:10303000F200882319F08AE38093E80008952FB7FF
:10304000F89483E08093E9009091E800892F8072E2
:1030500095FF04C09091F20080E4891B2FBF089572
:103060008FB7F89440913002509131026091320252
:10307000709133028FBF80919406942F981B80919A
:103080009506882331F0909396061092950680E07D
:10309000089520919306921740F49F5F9217A0F431
:1030A00091E093BF889513BE089581E080939506C3
:1030B0004093940680918F0690919006019690938C
:1030C000900680938F0681E00895809128028111F7
:1030D0000DC082E08093240284E080932502109248
:1030E00027021092260281E08093280284E292E077
:1030F00008950C9414184091560150915701209155
:1031000054013091550142175307B4F49091E800EF
:103110009570E1F39091E80092FD19C08093F10061
:10312000809156019091570101968F739927892BB1
:1031300019F48EEF8093E800809156019091570129
:103140000196909357018093560181E0089580E0A5
:103150000895DF92EF92FF920F931F93CF93DF9327
:10316000D82E8A01EB017B01E40EF51ECE15DF059A
:1031700059F0D7FE12C0FE0184910E947B1821965F
:103180008111F4CF0FEF1FEFC801DF91CF911F9195
:103190000F91FF90EF90DF9008958881EECF0F930D
:1031A0001F93CF93DF931F92CDB7DEB782E0898361
:1031B00042E450E06BE27EE180E80E94A9180E94A0
:1031C0006518DC0112960D911C910115110589F00D
:1031D000D801ED91FC910280F381E02DBE016F5F7B
:1031E0007F4FC801099597FD04C0F801008511853E
:1031F000ECCF89810F90DF91CF911F910F910895AE
:10320000615030F02091F100FC0120830196F8CF4D
:10321000289884E6809334020895AF92BF92CF92AB
:10322000DF92EF92FF920F931F93CF93DF936C0186
:103230007B018B01040F151FEB015E01AE18BF0867
:10324000C017D10759F06991D601ED91FC91019019
:10325000F081E02DC6010995892B79F7C501DF9131
:10326000CF911F910F91FF90EF90DF90CF90BF9083
:10327000AF900895CF93DF931F92CDB7DEB76983E8
:10328000DC01ED91FC910280F381E02D41E050E002
:10329000BE016F5F7F4F09950F90DF91CF91089529
:1032A0000E941F1890E00895CF93DF931F92CDB72F
:1032B000DEB7FC018485958597FD08C02FEF3FEFB1
:1032C000358724870F90DF91CF910895CE01019625
:1032D0000E94EA17019719F4898190E0F3CF8FEFEC
:1032E0009FEFF0CF0F931F93CF93DF931F92CDB734
:1032F000DEB78C01FC018485958597FF0BC0CE015C
:1033000001960E94EA17019771F4898190E0F80113
:1033100095878487F801848595850F90DF91CF91FB
:103320001F910F9108958FEF9FEFF1CFFC018485DE
:10333000958597FD0BC09FB7F89482E08093E900D4
:103340008091F2009FBF90E0019608959FB7F89496
:1033500082E08093E9008091F2009FBF90E00895A1
:103360003FB7F8948091500190915101A091520182
:10337000B091530126B5A89B05C02F3F19F00196C7
:10338000A11DB11D3FBFBA2FA92F982F8827BC01BF
:10339000CD01620F711D811D911D42E0660F771FE7
:1033A000881F991F4A95D1F708958F929F92AF92E7
:1033B000BF92CF92DF92EF92FF926B017C010E944D
:1033C000B0194B015C01C114D104E104F104B9F05E
:1033D0000E94B019681979098A099B09683E7340EF
:1033E0008105910580F321E0C21AD108E108F108B6
:1033F00088EE880E83E0981EA11CB11CE4CFFF90DC
:10340000EF90DF90CF90BF90AF909F908F900895F6
:103410008F929F92AF92BF92CF92DF92EF92FF92E4
:103420000F931F93CF93DF936C017B018A018091EF
:103430000B01882309F45CC080913502882309F4CC
:1034400057C080915A0180FF05C08091E0008260E2
:103450008093E000E801B12C8AEFA82E93E0892E3A
:103460002AE3922E209711F4BB20D9F10E941F1855
:1034700081110AC0AA94AA20D9F161E070E080E02D
:1034800090E00E94D519EECF8C171D0611F00CF0BC
:103490008C2F9FB7F8948092E9002091E80025FDD9
:1034A00002C09FBFDFCF282F30E0C21BD30BF70134
:1034B000815020F041914093F100FACFE20EF31ECB
:1034C000BB2021F09092E800B12CEBCF8091E80076
:1034D00085FDE7CF9092E800BB24B394209709F3D1
:1034E000F3CF5D9884E680935901101611063CF0E5
:1034F00081E090E0F6019383828310E000E0C80150
:10350000DF91CF911F910F91FF90EF90DF90CF90BF
:10351000BF90AF909F908F9008952D9A0895BC0111
:1035200090E080E00C94D5198FB18095807F669BE8
:1035300088601C9B8460089580914E01882339F037
:10354000815080934E01811102C01092C0000895F5
:1035500010925C013E983F9808953E9A3F9A81E010
:1035600080935C01089520E191E061FD94E060FDAD
:10357000990F62FD9295687F269FD0011124A80FB4
:10358000AA5CBD4F8C9140FF03C0892B8C9308959A
:1035900090958923FBCF8F929F92AF92BF92CF924B
:1035A000DF92EF92FF920F93CF93DF935B01EC01D9
:1035B0004C01840E911C6B01C20ED11CC815D9059B
:1035C000ECF47501B7FE02C0F12CE12CC60121E438
:1035D000C216D10414F080E490E0E816F90664F411
:1035E000C038D10528F4402FB701CE010E94B31A8C
:1035F0008FEFE81AF80AEACF2196E0CFDF91CF915A
:103600000F91FF90EF90DF90CF90BF90AF909F9081
:103610008F9008952F923F924F925F926F927F9278
:103620008F929F92AF92BF92CF92DF92EF92FF92D2
:103630000F931F93CF93DF93CDB7DEB728970FB6C5
:10364000F894DEBF0FBECDBF9E838D836A3061F5D7
:10365000DC0155968C91B8E08B9F90011124ED818F
:10366000FE8181899289820F931F928B818B108AB0
:10367000178681E090E028960FB6F894DEBF0FBE63
:10368000CDBFDF91CF911F910F91FF90EF90DF9011
:10369000CF90BF90AF909F908F907F906F905F90F2
:1036A0004F903F902F9008956D3019F32D813E81FA
:1036B00038872F83D9011F960D911C9150970038A0
:1036C00011050CF07CC05196AD90BC90B0E4AB16E7
:1036D000B1040CF074C0F901258825E0C801229ED0
:1036E000800D911D1124181619060CF068C0622C6B
:1036F000712CC30133E0880F991F3A95E1F78A0DC9
:103700009B1D181619060CF05AC0F489FB83AF8173
:10371000B8855396BC91BC83629FB0011124FB0114
:10372000E55DF64E2F011982F2018491F981F530A1
:1037300009F480E0450128E02A83A82FB0E0BE8389
:10374000AD833C8080FF3B80311004C0BB81EC81A5
:10375000BE17F9F078018E2D801B8215D0F4D12C84
:10376000C12CC21490F4F0E8EF16F10450F4B60145
:10377000680D791D6034710520F4432DC7010E9446
:10378000B31A2FEFC21AD20AECCF3FEFE31AF30AB3
:10379000E2CF8D819E81959587959A8191509A83EC
:1037A000860C971C9111C9CFA981AF5FA983BFEF88
:1037B0004B1A5B0A060D171DA63009F0B5CFEF8135
:1037C000F8852589422F50E087859089F6E02F9F64
:1037D000800D911D1124AF81B88550969C938E93D6
:1037E0001F9756962C915697222309F442CF6AEFE1
:1037F00064039001659F300D112420583F4F281716
:1038000039070CF036CFED91FC9111970190F081C2
:10381000E02D6AE0CD0109952CCF5F926F927F92E7
:103820008F929F92AF92BF92CF92DF92EF92FF92D0
:103830000F931F93CF93DF9330E0F901E80FF91F47
:10384000F7FDBFC0803891050CF0BBC0FB01E00F55
:10385000F11DF7FDB6C0603471050CF0B2C0DB019C
:1038600077FF04C0AA27BB27A61BB70BA770BB27EF
:10387000FB0177FD3796C3E0F595E795CA95E1F72B
:1038800077FF07C0319768E070E0EB01CA1BDB0BE4
:10389000DE01602E669466946694712C077019F0B0
:1038A000DFEF6D1A7D0ABF01EF01D695DC2FCC2723
:1038B000D795C795C80FD91FCA5CDD4F8A01660E20
:1038C000771E48E050E06A01CA1ADB0A66157705E0
:1038D00009F477C06830710509F473C06F3FEFEFEA
:1038E0007E070CF463C050E040E04E01F0E88F0E1C
:1038F000911C421753070CF059C0FA01E80FF91F49
:10390000E038F1050CF052C0F7FD35C06F3F760787
:1039100009F453C05E01A40EB51EF501F080FA0152
:10392000E00FF11F55245394E51028C0E4910A2EAE
:1039300001C0EE0F0A94EAF7FE2AF501F082109713
:10394000D1F067307105B9F05401A40EB51EF50130
:10395000F080FA01E00FF11F55245394E5101AC0CE
:10396000E491F0E00C2C02C0F595E7950A94E2F79B
:10397000FE2AF501F0824F5F5F4FBBCFE491F0E08C
:103980000A2E02C0EE0FFF1F0A94E2F7E095F095B1
:10399000FE22D3CFE491F0E00C2C02C0F595E79520
:1039A0000A94E2F7E095F095FE22E3CF6F5F7F4F38
:1039B000C058DF4F020F131F89CF109709F0C4CFF3
:1039C000DACFDF91CF911F910F91FF90EF90DF90B1
:1039D000CF90BF90AF909F908F907F906F905F90AF
:1039E00008950895089590E080E0089528EA31E070
:1039F0009EE0F90148E05081581301C060834150B6
:103A00003E964111F8CF91502F5F3F4F9111F1CF6A
:103A10000895CF93DF93D82FC62F6EE10E94F61C36
:103A20006D2F8C2F0E94F61C6C2F8EE1DF91CF91B1
:103A30000C94F61CEF920F9360E080E00E94CF1789
:103A4000EE24E39408E128E044EE58E169E270E0F6
:103A50008BEF9FEF0E940D1C08E320E344E957E140
:103A60006BE070E083E090E00E940D1C00E120E13B
:103A700044E757E16BE270E083E390E00E940D1CA5
:103A800023E44EEE56E163E070E08CE290E00E94A9
:103A90000D1C2CE246E956E163E170E087E390E01B
:103AA0000E940D1C0F91EF900895CF92DF92EF923C
:103AB000FF920F931F93CF93DF93142FC62ED12C19
:103AC000C82FD0E001E027E049E0B601CE010E9416
:103AD000CB1A812F6AE00E94B435192F93E0F92E9A
:103AE0008F9DA0011124425D5A4EE12C08E023E095
:103AF000B601CE0101960E940D1C1F9DA00111244C
:103B0000425D5A4E23E0B601CE0105960E940D1C7F
:103B1000DF91CF911F910F91FF90EF90DF90CF90A9
:103B20000895EF920F93CF93DF9380911B02EE24C1
:103B3000E39408E0811144C027E047EF55E161E0DC
:103B400070E080E790E00E940D1C409120024F5FE2
:103B500061E087E70E94551DEE24E39408E320E12D
:103B600047E855E168E070E080E790E00E940D1CB6
:103B7000C0911E02CC23B9F100E02EE14EE06BE1D2
:103B800070E081E790E00E94CB1A00E228E047E66F
:103B900055E16AE170E084E790E00E940D1C2FEF90
:103BA0002C0F6BE370E06C1B710901E042E087E7CA
:103BB00090E00E94CB1ADF91CF910F91EF90089582
:103BC00023E04BEA53E261E070E080E790E00E947E
:103BD0000D1C2DE04FEA53E261E070E083E790E0D6
:103BE0000E940D1CB9CF80911D028823B1F0EE24F4
:103BF000E39408E023E04FEF53E26DE170E080E7EB
:103C000090E00E940D1C2DE043E054E26DE170E075
:103C100083E790E00E940D1CCECFC09122022BE1E1
:103C20002C1BD0E0AE01445B5A4EEE24E39408E036
:103C30006DE170E080E790E00E940D1C2FE04CE405
:103C400055E16DE170E08BE890E08C1B9D0BE2CFBD
:103C50000F93CF93DF93EBE3F2E095E7915059F4A4
:103C6000EBEBF5E095E7915061F08191DF01119761
:103C700080618C93F8CF8191DF01119784608C93E0
:103C8000EDCFC2E0D0E041E0BE0185E090E00E94CF
:103C9000B31A2196CD33D105B1F7C2E0D0E041E0AF
:103CA000BE0188E790E00E94B31A2196CD33D1057A
:103CB000B1F700E029E342E763E070E086E090E0DE
:103CC0000E94CB1ADF91CF910F910895E0911902D4
:103CD000E695E695E69590911802969596959695B7
:103CE00081111DC0E1509E3088F5EF3F79F1E83039
:103CF0006CF52EE0E202F0011124E855FE4FE90FC9
:103D0000F11D97FDFA9590819F3008F443C09431DE
:103D1000E8F0943181F491E08130F9F417C08130FA
:103D200011F4EF5FE0CF823011F49150DCCF83309B
:103D3000D1F69F5FD8CF953121F491E081110DC06C
:103D400005C0963129F491E0833039F490E005C044
:103D5000973129F491E08230C9F3892F0895983181
:103D600021F491E08230C8F7F1CF993111F48250FB
:103D7000F8CF9A3111F48D7FCECF9B3111F4815061
:103D8000F0CF9C3119F48111DECFE0CF9D3111F4D9
:103D90008D7FD3CF91E0E1CFEDE5F1E049E33EEC5B
:103DA00023E79CE987EE40833183228393838483D6
:103DB000359651E0E33AF507B1F708955F926F92B7
:103DC0007F928F929F92AF92BF92CF92DF92EF92AB
:103DD000FF920F931F93CF93DF9300D000D01F92D9
:103DE000CDB7DEB796E4899F300111248E010A5FBA
:103DF0001F4FE4EDEE2EE4E2FE2E48EAC42E41E031
:103E0000D42EA30144555F4F7EEE872E71E0972E8E
:103E1000B12CA12C71E055245394662309F490C071
:103E2000D501A35ABE4FFE0131968D9181930E1795
:103E30001F07D9F7298130E0C901E3E095958795FF
:103E4000EA95E1F7D6018D938A8190E0220F331F26
:103E5000220F331F2F71FC0136E0F595E7953A9557
:103E6000E1F7E22B1D96EC931D979C013595279564
:103E70002F715B962C935B972B8130E0F4E0880FD9
:103E8000991FFA95E1F78F71F90194E0F595E7959F
:103E90009A95E1F7E82B9996EC9399978C8190E0AD
:103EA000220F331F2F71FC01EE0FEF2FEE1FFF0BC0
:103EB000E22BD796EC93D7979C01359527953595AE
:103EC00027952F71F40121934F012D8133E0880F45
:103ED000991F3A95E1F78F71922F92959695977069
:103EE000892B85872F71238F6623A9F080E0F60147
:103EF0009081911170E0ECEBF4E22491921729F09B
:103F00003196EE16FF06C9F7512C8F5FFEE0CF0EFB
:103F1000D11C883061F74B5F5F4F85E0A80EB11C64
:103F200096E4A916B10451F46623E9F0711102C0B8
:103F3000511019C00E94CC1E61E05FCF6D016DCFA2
:103F4000FA01849189833196E491EA83FA013296E9
:103F5000E491EB83FA013396E491EC83FA01349611
:103F6000E491ED8367CF0F900F900F900F900F901B
:103F7000DF91CF911F910F91FF90EF90DF90CF9045
:103F8000BF90AF909F908F907F906F905F900895BB
:103F90001F93CF93DF93C82FD62F60E080E00E945D
:103FA000CF171092180210921902CB3438F082E326
:103FB00080933606DF91CF911F91089510921D02D4
:103FC00010921E0210921A0283E680930E016D2F4A
:103FD0008C2F0E94DE1E7091A7016091A601C091F6
:103FE000A50148EA51E030E0A0E0B0E02FEF90E01A
:103FF000D7E0FA0180E010811D3031F4A82FAA0F1C
:10400000AA0FAA0FD083B32F1081163021F42F3FAF
:10401000C9F4292FC82F8F5F3E96883061F79F5FC4
:10402000385F4F5F5F4F9E3021F7C093A50120930B
:10403000A401B0931802A09319027093A701609392
:10404000A601B8CF692F782FE6CF10921E021092EA
:104050001D0280911B02811105C060E08091200249
:104060000C94C81F8DE18093360608950F931F931B
:10407000CF93DF93E8EAF1E0ADE5B1E0CEEED1E039
:1040800046EB51E08191658570E028E0829FC00198
:1040900011249B013595279535952795822B8C9377
:1040A00021A530E0838D880F16E0660F771F1A95E3
:1040B000E1F7862BB90104E0759567950A95E1F75C
:1040C000862B11968C93119787A990E064E0220FBC
:1040D000331F6A95E1F7BC0175956795262B1296FB
:1040E0002C93129769912D8530E09695982F88270B
:1040F00097958795890193E0159507959A95E1F72E
:10410000802B94E0699FB0011124862B13968C9329
:10411000139765E0220F331F6A95E1F78B8D282BEB
:1041200014962C93149715964E175F0709F0AACF93
:10413000DF91CF911F910F91089588E396E00E943F
:104140009619892B29F088E396E00E945419F5CF3F
:104150000895CF92DF92EF92FF92CF9320915C016E
:10416000222331F1C62FBC01990F880B990B0E94B5
:10417000BB346B017C0120E030E040E05FE30E9453
:10418000473520E034E244E757E40E94AC33A7010E
:1041900096010E9418340E948A3461507109C093BC
:1041A0004E0180E48093C0007093BF006093D10003
:1041B000CF91FF90EF90DF90CF900895CF939091A3
:1041C000370691110DC0C82F88E00E94C4178823BC
:1041D00039F068E089EA91E00E94A920C093360690
:1041E000CF910895EF920F931F93CF93DF9360E0E9
:1041F00080E00E94CF1780913706811113C084E0C0
:104200000E94C417882371F068E087ED90E00E9457
:10421000A9208AE080933606DF91CF911F910F91FC
:10422000EF90089510912102112369F080E10E941E
:10423000C417882341F011501093210268E080E9EF
:1042400091E00E94A92080E80E94C417882351F0C1
:10425000809121028F5F8093210268E080E991E0E4
:104260000E94A920109121021123A1F00E94941A0A
:1042700082958170C82F80E0D82FBE01675C7F4F88
:10428000EE24E39408E027E048E853E28DE690E06E
:104290000E940D1C80911B02813069F5EE24E3948D
:1042A00008E025E146E159E169E270E086E590E049
:1042B0000E940D1C153038F085E0809321028CE1BE
:1042C0000E94DE202FC00E94941A082E000C990B29
:1042D0008827990F881F99276CE270E0681B790B7B
:1042E000EE24E39408E027E04FE853E28DE690E007
:1042F0000E940D1CE4CF1A3468F18AE480932102F5
:104300009091210280911C028917E0F5EE24E3943C
:1043100008E025E041E159E161E370E086E790E0E3
:104320000E940D1CEE24E39408E025E14CEF58E1D7
:1043300061E370E086E590E00E940D1C409121024F
:104340004F5F61E38CE6DF91CF911F910F91EF906A
:104350000C94551D0E94941A082E000C990B882766
:10436000990F881F99276CE270E0681B790BEE2487
:10437000E39408E027E04FE853E28DE690E00E94E6
:104380000D1CBECF87E29CCF0C9432330E94EE35D9
:104390002F923F924F925F926F927F928F929F9255
:1043A000AF92BF92CF92DF92EF92FF920F931F9343
:1043B000CF93DF93CDB7DEB729970FB6F894DEBF62
:1043C0000FBECDBF80911E0266E00E94B435898386
:1043D00020E0882351F00E94DA32E9812E2F30E06C
:1043E00050E040E00E944833262F30911E02832F78
:1043F0006CE00E94B435281B2A83832F66E00E945C
:10440000B435898310E0882351F00E94DA32F981B3
:104410002F2F30E050E040E00E944833162F80916B
:104420001E026CE00E94B435181B28EA222E21E0FF
:10443000322EFF24FA94B12CA12C8A2C612E012E4D
:10444000000C77089A80D12CC12C2EE02A9DC00147
:104450002B9D900D1124AC0148555E4F5F834E8318
:10446000C982F101EC0DFD1D50815887E52FE65002
:10447000E231B8F4F0E0E15CFD4D0C94D4357E22DD
:104480001C2351226D2251225122512251225122AC
:10449000C122642251225122512289229722A5222F
:1044A000B322988588E0989FA00111244C525B4D5F
:1044B000EE24E39408E028E0B301892D092C000CD8
:1044C000990B0E940D1CB8C080911D0244E555E275
:1044D000882371F34CE655E2EBCF80911D024CE14D
:1044E00055E2882329F34091230246954695E8E05A
:1044F0004E9FA0011124445E5A4DDACF4091230211
:1045000046954695F8E04F9FA00111244C5F5A4D07
:10451000CFCF409123028BEA489F412D112446952D
:1045200028E0429FA00111244A5E594EC1CF40911C
:1045300023028BEA489F412D1124469538E0439F82
:10454000A00111244A5C594EB3CF409123028BEA5B
:10455000489F412D1124469588E0489FA0011124D1
:104560004A5A594EA5CF409123028BEA489F412DCC
:104570001124469598E0499FA00111244A58594EAC
:1045800097CF94E1492E91E0592E1986E981E150A7
:10459000EB83292D092C000C330B3D832C83F20176
:1045A000318120814981420F4E3008F0BEC0832FF7
:1045B000880D883008F0B9C0FEE0F89FC0011124D2
:1045C00088559E4F840F911DFC018081E985E17023
:1045D000EE0FFB81EF0F9885EE3030F44E815F8156
:1045E0004E0F511DFA019081E985EE7FEF0DEF3FEF
:1045F00009F4C1C0E83009F4BEC05EE04E2F4503A7
:10460000F0011124E855FE4FEC0DFD1D40819F3057
:1046100009F08DC04F3009F0ACC043E05985451B0F
:104620008F3009F087C0F2E04F0E511C29852F5FB3
:104630002987243009F0B3CF3FEFC31AD30A48E0EB
:10464000940E5EE0C516D10409F00ACF80910E01E8
:104650008B3009F044C0C09019028C2D8695869548
:10466000869588113CC060E08FEF0E94CF17D12C57
:1046700080911A02E0E2F0E0E81BF109FD83EC838F
:10468000F7FF03C03396FD83EC832C813D81359584
:104690002795359527952C0D3D1D3D832C838090C6
:1046A0001802912CE12C08E028E04CEC55E26C81DA
:1046B0007D81C4010E940D1CEE24E39428E04CE3AC
:1046C00055E26C817D81C4010E940D1CB601685FBA
:1046D0007F4F00E028E048E0C4010E94CB1A3FEF82
:1046E000A31AB30A185F4EE0240E311CF39458E06D
:1046F000A516B10409F0A1CE29960FB6F894DEBF35
:104700000FBECDBFDF91CF911F910F91FF90EF9022
:10471000DF90CF90BF90AF909F908F907F906F90E1
:104720005F904F903F902F90089588854FCF4F30E6
:1047300029F1498584E04802A001112442505A4ED3
:1047400064E070E0313011F070E060E0660D771DDC
:1047500084E090E0213011F090E080E0EE24E394DA
:1047600008E024E0EC81FD818E0F9F1F0E940D1C4C
:104770005ACF44E0DFCF9F3009F44FCF45E0DACF86
:10478000FF920F931F93CF93DF93EC01F62E0881D6
:104790001981C8010E943233F81621F06F2DC8012B
:1047A0000E943A33CE01DF91CF911F910F91FF907C
:1047B00008951F920F920FB60F9211242F933F93DB
:1047C0004F935F936F937F938F939F93AF93BF9319
:1047D000CF93EF93FF93C091E1008091E100837F3D
:1047E0008093E100C3FF0FC01092E90081E0809345
:1047F000EB001092EC0082E38093ED001092350202
:1048000088E08093F000C2FF1AC00E9414188091C3
:104810005901882341F080915901815080935901B9
:10482000811101C05D9A80913402882341F080910A
:104830003402815080933402811101C0289AC4FF50
:1048400023C08091E2008E7E81608093E20080919F
:10485000E1008F7E8093E10080915A018E7E80611D
:1048600080935A01FF91EF91CF91BF91AF919F91AA
:104870008F917F916F915F914F913F912F910F9009
:104880000FBE0F901F901895C0FFECCF8091E200F3
:104890008E7E80618093E2008091E1008E7E809325
:1048A000E10080915A018E7E8160DACF1F920F92D3
:1048B0000FB60F921124CF92DF92EF92FF920F93D7
:1048C0001F932F933F934F935F936F937F938F9398
:1048D0009F93AF93BF93EF93FF93CF93DF93CDB7A6
:1048E000DEB76C97DEBFCDBF1092E9008091E80083
:1048F00083FF25C068E0CE0145960E94001982EF33
:104900008093E8008D8987FF39C09091E80090FF7F
:10491000FCCF982F907609F034C19E894F89588D2D
:104920002F89F88C911131C0803861F580915B013D
:104930008093F1001092F1008EEF8093E8006C9666
:104940000FB6F894DEBF0FBECDBFDF91CF91FF91C0
:10495000EF91BF91AF919F918F917F916F915F91F7
:104960004F913F912F911F910F91FF90EF90DF900A
:10497000CF900F900FBE0F901F9018959EEF9093C1
:10498000E800C7CF1092F100D5CF913059F48111D2
:10499000D3CF4130510581F680915B018D7F8093AB
:1049A0005B01CACF933049F48111C6CF4130510524
:1049B00019F680915B018260F2CF953041F48091CD
:1049C000E80080FFFCCF20682093E300B5CF96304D
:1049D00009F0A9C00B8D1C8D22E01092E900109205
:1049E000570110925601F2122EC0109255011092EA
:1049F00054010E94CF181F8299E09983FA8291E0B6
:104A00009E8390EA98879AEF99872091560130917A
:104A10005701275F3F4F3C832B838D831092E90022
:104A200010925701109256011093550100935401B2
:104A300049E050E0BE016F5F7F4F80E00E94A918FF
:104A40000E94CF1879CF10935501009354010E9412
:104A50006518DC0112960D911C910115110509F4E0
:104A600051C1D801ED91FC910480F581E02DBE018A
:104A70006B5E7F4FC8010995009709F03EC1F801B0
:104A800000851185EACFF3E0FF120EC08F898823DD
:104A900009F440C0823061F440E867E08FE89EE1AD
:104AA0000E94D226811148CF81E28093EB0047CF4C
:104AB000813029F440E86BE083E89EE1F1CF833058
:104AC00099F70E946518DC011296ED90FC908E011A
:104AD0000F5F1F4F6801E114F10479F0D701ED91E8
:104AE000FC910680F781E02DB801C7010995080FF8
:104AF000111DF701E084F184EECFD8011C92F6017C
:104B000001900020E9F73197BF016C197D0940E061
:104B1000C601C6CF6DE67EE1FB01449150E080E81E
:104B20000E94A91809CF973009F4BECF983021F41C
:104B300081E08093F10000CF993009F0FDCE8370C1
:104B400009F0B2CFEDE1F1E081E031E096E32191AF
:104B5000222371F08093E9003093EB00DF0111977D
:104B60002C912093EC009093ED008F5F873079F7C4
:104B70008EE78093EA001092EA008F8980933502D5
:104B8000DBCE8B8D9C8D1092E90010925701109214
:104B900056019093550180935401898D811192C0E3
:104BA0008E899D89913A49F4813209F07DCF47E0A1
:104BB00050E064E071E080E0B3CF913209F074CF4F
:104BC000833269F48F89988DB0E0A0E08093000172
:104BD00090930101A0930201B0930301ADCE803206
:104BE00069F48091E80082FFFCCF67E084E091E007
:104BF0000E9400198BEF8093E8009ECE823209F06C
:104C00009BCE8F8980930B01EEEFFFE78591949106
:104C10008B3F9C4D51F1E0E0F8E0809104019091D0
:104C20000501A0910601B0910701803B9440A105C8
:104C3000B105F1F480910B0180FD1AC0EE3F8AE0CE
:104C4000F80789F587E797E7918380838091600073
:104C50008093580188E19BE00FB6F894A895809363
:104C600060000FBE9093600067CEEEEFFAE0D5CF04
:104C7000808191818737974709F05ECEA895809112
:104C8000600088618093600080915801809360008B
:104C9000EE3F2AE0F20789F08091FE0A9091FF0A28
:104CA0009183808349CE808191818737980751F223
:104CB0009093FF0A8093FE0AC5CF1092FF0A1092CC
:104CC000FE0A3ACE0E946518DC0112960D911C91E5
:104CD0000115110509F4E8CED801ED91FC91019080
:104CE000F081E02DBE016B5E7F4FC80109958111F7
:104CF00023CEF80100851185EBCF181619060CF4A8
:104D00001BCED2CEF1E0FF12BECE61E77EE104CF32
:104D10000F920FB68F939F93EF93FF9380914F0164
:104D20008D5F8D3708F08D5780934F01E0E3F2E0FF
:104D300080818E4F808391819F4F918382818F4F9D
:104D4000828383818F4F8383E0E5F1E080818F5FF1
:104D5000808381818F4F818382818F4F8283838182
:104D60008F4F83838FB18F6066991C9B88278F3606
:104D700081F48091FF0A981B963068F0E0E0F8E03B
:104D800087E78083818388E180936000F0936000EF
:104D9000FFCF9093FF0AFF91EF919F918F910FBEEC
:104DA0000F901895EF92FF920F931F93CF93DF937D
:104DB000F82E192FE62E042F81E0860F880F0E940F
:104DC0007B1883E00E947B18CF2DD12FEC0EFD2E97
:104DD000F11CCE15DF05B9F007FF13C0FE01849169
:104DE0000E947B18182F80E00E947B188123219657
:104DF0008111EFCFDF91CF911F910F91FF90EF9035
:104E000008958881EDCF81E0F5CF0F931F93CF9365
:104E1000DF938C0181E090E00E94C42180FF32C0CA
:104E20008AE090E00E94C4219FEF980F9E3F50F5CA
:104E300022E330E0D80150963C932E931F9728E34D
:104E400030E052963C932E935197CBE0D0E0D801BE
:104E5000ED91FC910190F081E02D682FC80109953A
:104E6000CE010E94C4212196C131D10581F780E095
:104E70000E94DB1788EE93E0DF91CF911F910F9195
:104E80000C948F1ADF91CF911F910F910895049781
:104E90000C940527E8E3F6E01382128288EE93E093
:104EA000A0E0B0E084839583A683B7838BE291E092
:104EB000918380838FEF9FEF95878487E8E8F6E002
:104EC000138212821186128680E1838710861782F0
:104ED00015868DE391E0918380838BE491E0958347
:104EE0008483108A1786128A118A81E0838B148A40
:104EF000858B168A0895CF93DF93CDB7DEB72A97B7
:104F00000FB6F894DEBF0FBECDBF789484B5826033
:104F100084BD84B5816084BD85B5826085BD85B55D
:104F2000816085BD80916E00816080936E001092DB
:104F30008100809181008260809381008091810056
:104F400081608093810080918000816080938000E7
:104F500080919100826080939100809191008160A6
:104F60008093910080919000816080939000809167
:104F7000C10084608093C1008091C10082608093F1
:104F8000C1008091C10081608093C1008091C30005
:104F900081608093C3008091C00082608093C000D4
:104FA0008091C20081608093C20080917A00846009
:104FB00080937A0080917A00826080937A00809159
:104FC0007A00816080937A0080917A008068809373
:104FD0007A001092350210925B0110925A01809172
:104FE000D70081608093D70080EA8093D80089B58C
:104FF000806189BD89B5826089BD09B400FEFDCF9D
:1050000061E070E080E090E00E94D5198091D800C6
:105010008F7C80618093D8008091E000807F8093B6
:10502000E0008091E1008E7E8093E1008DE080932E
:10503000E200559A209A81EC80937C0085B1806FC4
:1050400085B984B1877E84B984B1876E84B95E9A4C
:105050005F988AB1806D8AB9769A6E9881B3806FB5
:1050600081BB899880B38D7080BB80E58CBD81E069
:105070008DBD85E090E00E948F1A5F9A85E090E0F8
:105080000E948F1A5E985C98E7E4FFE184E59FE157
:1050900024912EBD00000DB407FEFDCF31968E1772
:1050A0009F07B1F75C9A81E8809364008091650066
:1050B00081608093650080E00E94DB170E94941A53
:1050C00002E010E087FF15C05C9885EA8EBD000005
:1050D0000DB407FEFDCF5C9A2E982F982D988091E5
:1050E000640080628093640081E083BF889513BE72
:1050F000FCCF0E94941A82FF40C02D980E94941AFF
:1051000084788438C1F40E948D1A88EC90E00E9463
:105110008F1A2F981A8309836FEFCE0101960E9490
:10512000C02384EF91E00E948F1A2F9A0E94941A54
:1051300084788438D9F30E94941A84718431C1F43C
:105140000E948D1A88EC90E00E948F1A2E981A8384
:10515000098360E0CE0101960E94C02384EF91E0B4
:105160000E948F1A2E9A0E94941A84718431D9F366
:1051700088EC90E00E948F1ABCCF0E948D1A82E0CA
:1051800090E00E94C421882309F4B5C00E94AD1AA2
:1051900081E090E00E94C421182F147081FF0EC09E
:1051A00011112E9850EFC52EDD24DA940E94941A26
:1051B00086FFA4C02E9A2F9A0E948D1A82E390E057
:1051C0000E948F1A0E94941A8111F8CF86E1809371
:1051D00093061092C00088E08093C1001092C30033
:1051E0001092BF001092CF0060E080E00E94CF17C5
:1051F0008EE092E00E94323380931C028B3458F090
:1052000010921C028EE092E09A83898360E0CE01C6
:1052100001960E94C02380911C02809321028FEF8F
:105220009FEF90934506809344068AE690E0DC0168
:10523000AD55B1401D010E943018182F882309F484
:1052400052C00E949C1A8091230290E001966CE06B
:1052500070E00E94C03580932302837051F48091E6
:10526000220290E001966BE170E00E94C0358093CD
:10527000220280913706882319F0815080933706E7
:1052800080919106809392060E94941A80939106D1
:1052900080E0E6E3F2E081118FEF002481938193B7
:1052A000819381930394D1F710929A0610929906F4
:1052B0001092980610929706809136068D3109F467
:1052C00084C008F097C08A3009F471C108F04AC060
:1052D000813009F42FC108F4E6C0893009F453C1C4
:1052E00080E00E94DB1780E090E0892B09F4A3CFD7
:1052F0000E940000A0CF0E94A81A4ACF112331F0CB
:1053000024E0C216D10411F42E9A2F9881E00E9455
:10531000DB17EE24E39400E128E547E95EE1B601FE
:1053200084E190E00E940D1C80E00E94DB178FE07A
:1053300090E00E948F1A3FEFC31AD30A89E1C81682
:10534000D10409F033CF112311F02F9A2D9880E961
:1053500091E00E948F1A0E948D1A88E896E00E94C0
:1053600005272CCF883109F4CAC478F4873109F0B5
:10537000B7CF89E18093360680911C028093210289
:105380000E941A1D0E94F220ABCF8931C9F38C31E3
:1053900009F0A6CF80912102809320020DE5C02E56
:1053A00001E0D02E810126E4829F000D111D112401
:1053B000C8018C0D9D1D0E943233D6018D936D0165
:1053C000B3EACB16B1E0DB0699F782E080930F01D8
:1053D00010921F0210921E0284E080930E01109220
:1053E0001D0261E0809120020E94DE1E8EE180930A
:1053F00036060DC0823309F4D1C7B0F5873209F4FF
:1054000084C4883209F490C48E3109F069CF0E94B7
:10541000C8210E94911D60E080E00E94CF17F090AB
:105420000F01E1E0FE1609F49CC1FE1608F438C134
:10543000F2E0FF1609F44FC180913706811150CF79
:105440000E94941A83FF64C20E94941A82FF60C271
:1054500060E187ED90E00E94A92089E18093360603
:105460008FE0809337063CCF843311F40C944432A0
:1054700008F4D7C7853311F40C945632863309F0FB
:105480002FCF60E080E00E94CF17EE24E39408E085
:1054900029E149E15FE26CE170E084E390E00E9481
:1054A0000D1C80E044C0EE24E39400E320E34DEDC6
:1054B0005FE168E070E088E090E00E940D1C08E089
:1054C0002FE24EEA5FE168E070E089E490E00E943C
:1054D0000D1C23E24BE85FE162E170E085E590E0BE
:1054E0000E940D1C25E046E85FE166E270E085E57C
:1054F00090E00E940D1C2DE149E65FE166E270E05C
:105500008BE590E00E940D1C2DE149E65FE161E32F
:1055100070E083E490E00E940D1C25E144E55FE12A
:1055200061E370E083E690E00E940D1C81E00E9440
:10553000DE20D6CEEE24E39408E025E44DE353E2EA
:105540006EE070E08EE190E00E940D1C3DEFA32E16
:1055500030E2B32E46E0C42ED12CEE24E39408E1D1
:1055600028E1A5016CE170E0C6010E940D1CBDE1BF
:10557000CB0ED11CE0E9AE0EB11CFAE7CF16D10478
:1055800061F78AE0D4CF8AE08093360680915C018F
:10559000882309F482C00E94A81A60915C0182E00D
:1055A00090E09A838983CE0101960E94C0230E94D5
:1055B0001A1D80E80E94C417882361F010911B0215
:1055C000112341F068E080E991E00E94A920115088
:1055D00010931B0280E10E94C417882361F0109190
:1055E0001B02133040F468E080E991E00E94A9209A
:1055F0001F5F10931B0283E2882E81E0982E96E9AC
:10560000A92E93E2B92E10E021E2C22ED12CF09007
:105610001B0284E690E0F11611F08BE690E0EE2498
:10562000E39408E025E1A501B6010E940D1CF112EA
:1056300026C001E027E047E0B60189E790E00E943C
:10564000CB1A88E00E94C417882349F068E089EAF1
:1056500091E00E94A920D4018C91809336061330EA
:1056600071F420915C01220F220F2E5FE12C06E0E5
:1056700042E853E2B60189E790E00E940D1C1F5FEB
:10568000B8E0CB0ED11CEFEF8E1A9E0AF5E1AF0EFB
:10569000B11C143009F0BBCF23CE0E94AD1A7DCFD0
:1056A000809123028650863008F0C6CE60910D01AD
:1056B00028E0629FB00111246250710980910C01B1
:1056C00038E0839FC001112401E02CE04CE00297F8
:1056D0000E94CB1AB1CE0E94281E409120024F5F3B
:1056E00064E087E00E94551DA3E5AA2EA4E2BA2E2D
:1056F000912CB4E0CB2ED12C15E1812EF5014491F3
:10570000489DA00111244A565C4D10911F0281E36F
:1057100090E0191511F088E390E0EE24E39408E09E
:1057200025E1B6010E940D1C9394FFEFAF1ABF0A4A
:1057300028E0C20ED11C37E09312E0CF8DEF810F2D
:10574000823008F079CE88E0189FB00111246C5F98
:105750007F4F2CE040EB54E285E290E00E940D1C6C
:105760006BCE1091A30180900D0198E0899E4001BD
:105770001124C0900C01A8E0CA9E600111243601DA
:10578000BFEF6B1A7B0A173108F46AC00E94941AA3
:1057900084FB442440F8512C5401EAE0AE0EB11CC5
:1057A000B2016A0D7B1D6F5F7F4FE12C08E027E09F
:1057B00048E853E2C6010E940D1C0E94941A82958B
:1057C00081708B831C826B817C816A0D7B1D6F5F76
:1057D0007F4F27E048E853E2C3010E940D1C0E945E
:1057E000941A829581708D831E826D817E816A0DEF
:1057F0007B1DEE24E39427E048E853E2C6010E94B3
:105800000D1C0E94941A829581708F8318866F8177
:1058100078856A0D7B1D27E048E853E2C3010E94AA
:105820000D1C00E02CE04CE0B40162507109C6018F
:1058300002970E94CB1AE12FF0E0E454FB4D449113
:10584000473009F44EE128E0429FA00111244C5258
:105850005B4DEE24E39408E028E0B401C6017ECF5E
:105860000E94941A082E000C990B8827990F881F04
:1058700099275401F6E0AF1AB108B501681B790BFE
:1058800061507109E12C08E027E04FE853E2C601BE
:105890000E940D1C0E94941A082E000C990B882758
:1058A000990F881F9927B501681B790B6150710901
:1058B00027E04FE853E2C3010E940D1C0E94941A96
:1058C000082E000C990B8827990F881F9927B5017E
:1058D000681B790BEE24E39427E04FE853E2C601FE
:1058E0000E940D1C0E94941A082E000C990B882708
:1058F000990F881F9927B501681B790B27E04FE89E
:1059000053E2C3010E940D1C112309F48ACF3ECF3C
:1059100032E0F31609F46DC13F15A0F0FF2009F441
:10592000ABC081E0F812DCCC84E00E94C41788236D
:1059300009F45CC068E087ED90E00E94A920109215
:105940000F01CECC93E0F91609F4E2C0A4E0FA12FC
:10595000C7CC0E94281EEE24E39408E02CE040EB24
:1059600054E26CE170E088E190E00E940D1C2FE2AF
:1059700043E854E26CE170E084E290E00E940D1C88
:105980002CE047E754E26CE170E083E590E00E9490
:105990000D1C29E04EE654E26CE170E08FE590E0EA
:1059A0000E940D1C80E00E94DB170E9436200E949E
:1059B000141846E450E06DE571E088E396E00E943B
:1059C000081A6AEF70E080E090E00E94D51910910B
:1059D0005C010E94A81A62EE74E080E090E00E94F0
:1059E000D51911110E94AD1A82E051C088E00E94C1
:1059F000C4178823E1F068E085E491E00E94A920C3
:105A0000E091A301F0E0E454FB4DE49180910D019D
:105A100020910C01BEE08B9FC001112488559E4F40
:105A2000820F911DDC01EC931092230288CF80E855
:105A30000E94C417882361F01091A301173140F42C
:105A400068E080E991E00E94A9201F5F1093A30104
:105A500080E10E94C417882309F442CC1091A3016D
:105A6000112309F43DCC68E080E991E00E94A9206F
:105A700011501093A30134CC88E00E94C4178823EE
:105A800049F068E089EA91E00E94A92081E08093D2
:105A90000F0126CC84E00E94C417882331F068E00F
:105AA00087ED90E00E94A9209FCF80E80E94C41754
:105AB000882339F080910D01882319F0815080935B
:105AC0000D0180E10E94C417882339F080910D01F7
:105AD000873018F48F5F80930D0180E20E94C41715
