:100000000C94E0280C9408290C9408290C940829D5
:100010000C9408290C9408290C9408290C9408299C
:100020000C9408290C9408290C944F2E0C94BE2E85
:100030000C9408290C9408290C9408290C9408297C
:100040000C9408290C9408290C9408290C9408296C
:100050000C9408290C9408290C9408290C94AF30AE
:100060000C9408290C9408290C9408290C9408294C
:100070000C9408290C9408290C9408290C9408293C
:100080000C9408290C9408290C9408290C9408292C
:100090000C9408290C9408290C9408290C9408291C
:1000A0000C9408290C9408290C9408290020077541
:1000B0008A551DC89A26020385A454D16E121E04C7
:1000C000E6D7D0115F0400007A08BE0000000000EF
:1000D000D0E100B000005700A5B157107F01D0D18A
:1000E0007F11D051C0C0BA441A74BE50140600E04B
:1000F000F7B30000D09172A5C1030C48A1117B3366
:10010000BC054DD1E1147F01FFD1571000B0002094
:10011000BE802B38BE607E6300F00000950622C3CF
:1001200062C52B68BA0473446C51570057001C0019
:10013000630611D2071461076306000083858CF300
:10014000A414E205000000000EF763E7884502A54D
:100150009C77001000200080C0607F71005000007C
:10016000C00072050000BE0000C00000BEE0BEB3CB
:1001700000001BB89E437F41ED71F035A9408672A7
:10018000C3500000BE00570000000070005038044B
:1001900053A700C0004000006306BE007D5089C820
:1001A0000040BE00E7047205580500B0001063F679
:1001B0004114240615404C4513457F5100C00040B2
:1001C0002B78C5048F56E7646DB2007000100010E4
:1001D0005720004038345A372770B30100607F43FE
:1001E000A5E43A52EAB701E29D260070575000009C
:1001F0000036B9A3A53199528DA7D17332B69EC5E9
:1002000075468B22D22391220EB77A889150000036
:10021000000063065770D2014A44E904000011004F
:1002200000706D5239021C001408BE03EF01A103D7
:100230007205FB02C403ED012F38BE803854070657
:1002400020C80000C050A5F11A543FB77FB1D805AF
:10025000A9F5A980BC63A0467F42BB55BE80A5B16D
:10026000BE70570000000000570000000000C0C032
:10027000C2543151BE005C08000000F00070ED1166
:10028000A551B7C4004057E000E00040B0F1ED7167
:100290000D131673B450D10743041300A703E704EA
:1002A0000000C5041215E7440040577000F0CA343E
:1002B000A5517FA14114F49730353036136313F400
:1002C000BA741AB395E57900D78300F0C010C5342D
:1002D000F3433475A7E03804050393A678C53C249E
:1002E000BD05BE0083037F015700C70100700050A9
:1002F000C504110245335710D3846AE8D6476E709F
:1003000091555E08410420060000CF043E141958A0
:100310008EB03E27277757007305CD0163C6009046
:10032000BE00463400607F61BE0080031102D0F140
:100330001255A760007000A00000F783CCF5A570EF
:100340004503CC05AB21CC07BE000C04D0C1D011B5
:10035000E704C504C504170300008908BB0357A0C0
:1003600000506664630657C000000000A501340811
:1003700000705750C504D0B1B0215B4256C71295EA
:1003800065042508DD04BD03742000A057306DF21C
:100390000070001057D057802660AB042506C003BC
:1003A000C51400405740570099055E030000110036
:1003B000000000D064471055D7010D0241044904E4
:1003C00000D00010158300604A1801075700000094
:1003D0000080BE30D041D5745C24C262D001F803E5
:1003E000000000B7DB20F483BAE400700050B0A135
:1003F0007F111A4400707A51C5040000E644007071
:100400005A076E0440070090D8832E85A50100D0BE
:100410005710BE802B48574012051F005D07A501ED
:10042000B001A700A541AC6700700000B00100005A
:1004300049245710B953342511B200409E5452B884
:100440004A4703D52C1100007D020000000057E050
:1004500057B0570034D5B0E1CD43EA964463D93064
:10046000CD32A6110C111D64BE80A53157000000CD
:100470000000007057500000570000005700573030
:1004800000D0660411425C47007393738593CA538E
:10049000B807C50400007FE10D559E537FB0A31639
:1004A0005D007AB8E004AF11000000000000F7031F
:1004B00000C0A7009EA392D5960657D00030CA5719
:1004C0002535A501007000000000007000105740A5
:1004D000BE4012E5C5B411021B549CC000406236F8
:1004E000A5610060575000A0631614230030BE20A1
:1004F00000F001B757001CF80070571062E4B9B45F
:10050000F7031E8799A5AC2524010704830300B0D7
:10051000004000209E93C81756050FC80497C24597
:10052000FBB3892741840060E2C7E7440000B807B5
:10053000570057B0BEA06530D7151D100020B1067A
:100540000000C50400907245D041630611005202BC
:100550000000D7010000E9E4E9B42B080030006096
:100560005760A09851E29F7663566FD01726D9073F
:10057000FF40BE44C5D411B03A54BE30B8670060E5
:1005800000800030BE509270153817727F21EA72D9
:100590005452DE05D00100000127D071D8809ED3CF
:1005A00000C0BE004CC07BD88A08A8D60720E073E4
:1005B0004DA4C2D7B9271A7597531F00BE7057C0F4
:1005C00023181092D2318353BE0000D05C18A5B11D
:1005D0000020C58440729C50710511021F00410724
:1005E0000000D2017F01D001BE00A5016306BE005C
:1005F0000000B8073E05570000702BA8000000500F
:10060000BEA00010140559069F0100F0C2F4D011DD
:1006100049B065465478FF312BA8003041F4BE70D4
:1006200057100000C5045F04BE93002000101100A5
:10063000AE41693107C1C905EE5188988FC6B03601
:10064000CB2100700060E981B0D1C574575000A083
:100650000010C40431012B080000F7D16316DA0042
:1006600000000000FB1241F4113000F000705C1833
:10067000000000000000BE005A0800007DE70120D5
:10068000FB473FF76817AD77F2C1F685825016D663
:10069000A4169421DB0600809E33C0009E036408EC
:1006A000C0009E03A004BA040000000085A200B0B0
:1006B0000040A2E457B057000040C010BE30BA144A
:1006C0007235E784B2060000BE00000000B0C01022
:1006D000D001570000006386D721A561229184E3F1
:1006E000D80590361132CB85C3740F055A47CB8697
:1006F000B72700706BA235B512213F5784A67F1132
:10070000A531AB87C5540060000000100B08000045
:100710009E063101A50100000000A7003F052BC87F
:1007200010151903EB11FCE2AC639D072A072D029B
:10073000C57400500000035600A0001011850E077C
:1007400031413308D00100001482D0310040BE0096
:10075000AE06000000700050B00130C2CF23315609
:100760004D73BEF0FE04404077D3EE1454F08A7609
:1007700077102B180020890812F8C6B60E115D54A8
:10078000C1F0C135ADD15747A120B5B067E7AC4442
:100790001906A0830A2500F000A0C544417400E0BA
:1007A0005740C0B3003068244D08FDC3D335C5C4DD
:1007B000A7508A850000A581B024AD05D001D001E5
:1007C000000000C000007F11B6A75730FE0357D0CD
:1007D000A511000000C0000000101C00BA446B0806
:1007E00084052605009028807F815CE52B88000029
:1007F000050457D06316082500C000400070AA51B8
:100800000000FB021EC7A501DF060000C000BED02D
:10081000FB4589584D85003011427B017F9175055C
:10082000C503AA014700B001F1B600100774575084
:10083000B00100F0E774001000507FC1C544C785C7
:10084000F40541445770BEE0C54400B07F210080EC
:100850004D257E02AA22B1E7C1975F0385A2F52547
:100860002F48B807200100000000D0D172140030DA
:1008700063860030000000005905D02157A0414494
:100880007E3200A00030A3E33FB5000057F0909205
:10089000BB3426160040004000B057F01120A5E1FF
:1008A0001192A43100B000A0666758706B5300002D
:1008B000A5010000BE000000000000000080203004
:1008C000004010D5F5503E60D8820A038663C134DB
:1008D0001DC7B0615730C564C564DA100010002030
:1008E0000020C0C0004045A4E7B40040415400A02F
:1008F000C51457703854890800E0B0B1B0011CE04D
:100900001EA019151C009E03000000706356D00144
:100910007AE180B2C504B1F156526C744E0557B0FD
:100920005710C70389080000539700E000709C002F
:1009300083030000070400002B00CCC560B47306DD
:10094000274196F5D733C00049040000FC01A0D12F
:1009500007140000BE00690200504CA390113854E7
:1009600000C000409C000606E70400701150000023
:10097000570000000000BE000000A5010177D05123
:100980007A082BD883C88755A3B41CF679487A0017
:100990000887DD2300B0002000809E4357000C47ED
:1009A00019E4E4B70706B001A5B100107500D4043E
:1009B000120557704BF10030000063060000C4D1EF
:1009C00000E0571089F80020812500A000A02E72B9
:1009D000A5C100400030A57157007941C050BEA0AC
:1009E00000100C545557C0005700A5B1BE100000B0
:1009F00000C05720BE50E7C40040C5C44934004081
:100A0000115265370136E046D43392216CE34FD161
:100A1000C574BE00D00102070000C504000057B035
:100A2000FA50FE75BDA5F121CA80A781C5B4E7744F
:100A3000EC002B0863060040006028720000810271
:100A4000A50133720050C50400C07F31F35500E0AA
:100A5000F773003000307F61C060BE8000600080AE
:100A60001BD8D1010341EC362CB496432577F7A36C
:100A70000000000000009E032016BE400040B95355
:100A8000C2C40147B001D0010E05C204AEC10000CE
:100A900000E07FB1000070553218BE50009000D0C9
:100AA0007F51C0F38082F9115700BF036100577076
:100AB0007255570022E6BAB40000C594F793B0010E
:100AC00033C598460D88C302DB052E48C601E704EE
:100AD0009605F1567AC300405710BE402B48C51406
:100AE0005710A8607D65A63057320D6144A6575057
:100AF0001CB08422B98011125A12D6041FB80020EB
:100B00000080E7A4ABF73974D383E830004000C01D
:100B1000001057705700B0019002002010D0A1546F
:100B20004C71DFE77A185500ED0130080010001015
:100B3000572000E041B4570000600040114211020C
:100B4000B9029E03F7130090121001E382B2BD00B8
:100B5000100325B6BA1511F20040B051D9C108638F
:100B6000F061D8F5A571B8175700570057005770B6
:100B70003A61B406483657213B83830165089A05DC
:100B8000DD355BE5BC7206747E5357002B7800E0C0
:100B9000A5410010007057809E038908E704C5B482
:100BA00001477F51050511007807000011002B084F
:100BB000C594E34701473804000057009E7363065D
:100BC000A57100200010B051B0015770D041B8237A
:100BD0002D65E284822311D2BD45F0460B22247795
:100BE000207157507F01E77400500000A5C12BF71A
:100BF00011506406D4B03F17A853BEA007157F312B
:100C0000C5340080CC05A9837428636457540D66ED
:100C100036F232C1E3171110570057705720D0D168
:100C2000DF157FB100300050C640E464BE7083130E
:100C30004FF559447F110010B041AE155B48204379
:100C4000BE500F37AB805CD250F52012D437BAF4C7
:100C5000F346151101F2B4120000B0810020BE303D
:100C6000C564C060A55100A0001011E2C5B4000029
:100C70004BF8007006157F017F01B8077F71D051D6
:100C8000B00100704F525700C070418457604F58F8
:100C90002B40805112C5D0115700007057500000F2
:100CA0000070C0508A0511025700570067B7C9C4C9
:100CB000A214299056705972D1120315A521C701AB
:100CC00089082B080010110083730EE538B400006A
:100CD000897857E0004042E457D057300070005008
:100CE000D001E3070000000057001403570000E0A4
:100CF0008AB32B0600E041B4330864677868A42304
:100D00001605F20657007FE1D0B1E3554EC37F814F
:100D100070762CD69395DB33BEF0117000107705FA
:100D2000C5046006004000C06657B03187432438D0
:100D3000C3149812A52100000000000000F0F47315
:100D40000010115000401403000000C0E704000030
:100D500083D3A11300000000000000E00080D061F8
:100D600021A15231C080DDD264E4B4211102B10569
:100D7000120200A0BE70BE10471641A45750FBA03F
:100D800029028B47709022387E71CED2C981EF2024
:100D90004232D974593721B52C48463300B05740F8
:100DA000BE804F030000000000E0008000008E9035
:100DB00000204C4367E03D71D901B09400D063142A
:100DC000AA888ED00A626E003F04A8053DD1FB3090
:100DD000D116BE952C52BE177D460B239C728803FC
:100DE0008E001805947401701025D588841179112E
:100DF000C19700D0D31000D03D313D71B0C11A0869
:100E000050666F77B660E6159DA18508D38231E004
:100E1000C18893071908DC057B0200203794FC5336
:100E20008E2092D5B07400400020C1723D81637461
:100E30008E803EC72598A828A107560871025EA19A
:100E40000C40003074400080601495C2CCA8BD07EF
:100E500056608AE2345460040000000076088E6018
:100E60007540443100D036013784FD63EB021F0525
:100E700027082B0200E0958300009500790100000F
:100E800000D06630D5882A0100007500113000209E
:100E90003D41AB1395C3E523BC5290E2603496C04C
:100EA000003036111B91B094C11200D06530501142
:100EB00011E0377425008905AF0300007D00C102F1
:100EC00024070AE3F9B7E58607535CB86C1051377D
:100ED0003AB7FE03E62254D6422782B03382693005
:100EE0003D017E000900000000003E04C202000037
:100EF00000003D01630400008E0052B3B04424C7DB
:100F0000D3C093668E3000908E109F063DC17277DD
:100F1000D3D0AC30001052033D010000AC001601EC
:100F2000000000700020448150534D07CF7662408E
:100F300011A80D435E283758E413AF448D907B0011
:100F40000C07E30100008EE0B7848E0000D09533DB
:100F5000D6138E003E04630400503D512B5291E79E
:100F60001E8863048491D3B7D37000000020968458
:100F7000D33000608E8090070000000095538E9063
:100F800052329FE200800000366100103D1163F490
:100F90008E8000503D0137B400400010C1C20A20CD
:100FA000A9A00C20001000D00030951344010000CF
:100FB000AC000000760800009205F8036104D70138
:100FC00037012B027FF26474AD60E5C07AE46F26CE
:100FD0002B9134D7F110510600000000D97137541D
:100FE000C18235E100403D716E070050BA348E0079
:100FF00000600040D5E5E5806004E5033D91E942ED
:101000002D342A61AC4000E00286890300E0003004
:1010100000408E003D01E503D3100000E2607FC078
:101020000788C8785C05DE218E8007E8B084DB077E
:10103000C1E2008000008A01D3003704000060B4E0
:101040009F4400009403E00893063D013D0100D059
:101050003D31E5134011C142787574933EC1218141
:101060000000C10233020050009000308E7000B0CA
:1010700000806024B0543D3154D0C231B7182CC127
:10108000D3903E64CDE7D33700409303DE01BA0727
:101090003D11F9D3B0547133B0A4E55091959B92B2
:1010A000181596363D91335251781BA691649D07D1
:1010B0003EB3E3400090E5B34F011126D2662445CC
:1010C0003D118EC0AC2095031001CE0666109E2700
:1010D0009981AD96F7A69872B517B5B80D4776C742
:1010E0000FA47B07C80372087E00796000D000302F
:1010F00000D00030C112E1B78FA0D388E6D0003015
:101100002D428E003D01000000D000300010B004E0
:101110008A050000C192D7D12B1476F860142B54A5
:10112000A958DB970030000051064A0324671611C6
:10113000E513172137D47D083E24A602DA68CF13C1
:101140009503C11258406A386D251293EB90C01672
:10115000AED863343714000000000000F2D3BA3474
:1011600096108E000000A60200C0D4A67C001B32A0
:10117000BA74A657BA007A0800003DE13B84950096
:10118000B704670176083ED4003060143DD1F236D2
:101190006818000000000C078E0000009503006036
:1011A0001F758E800000AC00B004004033527731D0
:1011B0000000D3204A810040002018753DD1003046
:1011C0008E10AC0000000000230624070000240756
:1011D000006000408E00AC007900B004D901200806
:1011E0000000000076084F11C281C9184D42C3713A
:1011F00041026BB0E7D63671A008D503460300F074
:10120000C0586044B80700602B4200107942471371
:10121000AA6061E837548A4008E738170808DA01FD
:10122000000063C499A1CB06E850C1924F32D307A6
:101230000000630466370ED09901E503000000004A
:1012400016C116A160040CF714C84F719D4820D830
:101250002357B7714655C921B0D38E45D34126A532
:1012600012A40568C6087C082A0166000000000078
:10127000DB08F70700003D11AEC4AC70C1D2ACC0B2
:101280006983C8E76781E503000000008E00084815
:101290001DE43D017608C10200007FE100800000EE
:1012A0006054C1E2950300000A003D0124A74DF2FD
:1012B0005306116109D00060F4C3EB17D9581AC264
:1012C0003644C072EE05AC000C07521644C13322FE
:1012D000C102000000008DD500A03032C0449598B6
:1012E0000C076081E9933D41006032C6F0756034BF
:1012F000006000400060E58331013D012C05C10222
:10130000000000608441953300E0EA07B004AC00BF
:1013100063042B42242700709376E6A524219C20A9
:10132000D470D3169D00CF02BA0400E063C4637486
:10133000D300790176089E8700A0AC601D97C1B2EA
:101340008523B06419358E1000A0BD8792328C328F
:101350008E83D97525303D313D21C15233920236FD
:101360000060AE619306E5A0D3E0D3403DC11130EB
:101370003D418E0060E43D31959311D056122671A7
:10138000000000809503D921008040C116B152228F
:10139000900716D19503000000B026402B52009014
:1013A000603400C037A40000767895D3C1528440E1
:1013B0000F80AC115A559B261B01AB92B054E553DC
:1013C00000508EE08E3000D03D31D310E550B9E5AD
:1013D0009503A5E2D981000000508E9020388E0040
:1013E00000009503B754D390003076088E000000BB
:1013F00000409386D613510618058903004018252E
:10140000FC703DF1E5432B1284413D01FF704E22FB
:1014100023511D2533D2A6360010BA040000000067
:101420000000EA6736414D52FEE05A384AA475453D
:101430004D63EEB6EC26932000000D03A20044B1EC
:101440007698AF318107F2909D74DDD84D12A0855A
:10145000A1B47D128710ABE2A5863D010000D0004B
:101460000000221645B6131455E55917E645F1E478
:10147000B4440245E3127750D633009060940D10C7
:1014800076E800B02417E503C1020000AC00B00408
:101490002A01600400003704671100103D010000BC
:1014A00000008E0006383D61384497312BA3A90017
:1014B00000D03FE0301700000000C10200006004CF
:1014C000950300E03D8163040070F094C1825E42A8
:1014D0008DB668270105E081AA1114D47AC1B2053E
:1014E000E6563EA6C9032702E50147009600C10261
:1014F0003C04C152ACC0F22312A166212434005036
:1015000046D2107263E26381A9003EA493E3F3160E
:10151000B00416B13C440CE70A8032021AF1CD2621
:10152000C93728352A123A66540560020000A2081D
:101530003D013D018ED0BA3463148F839217C1727E
:10154000001074C092216C06000024070060001097
:1015500000809B74AA381F4500E000D07618003048
:10156000BAD4000037641B71A38263448EE0057512
:10157000964348081F58B5E39342803892C5EF510F
:101580000A756B53FC0244081D06C2E71C210EE6D7
:1015900009870000BA040000000000E000803E045B
:1015A00020488E200070C0183DC10020983189D39A
:1015B000000076E80080E5033D11C0A5AC200225BF
:1015C00024D7CB58C798DC476054C73848353D21ED
:1015D000DE91D8B3A842AC1000C00020D426ACD015
:1015E0004323896145F15B614D05ED43663297B058
:1015F00018262E11AC00A662D34093E60080C107E6
:10160000600460248E80BB747C762286BDC73D0258
:101610007B76F6704B20BC1100009503600400300F
:1016200000D0CC0700E08E80AC008E30B0F17A3272
:10163000C902D102000062C2620217754B02370470
:101640004D029E278E903D1176680CD7E513D84148
:10165000FBF0BB67B0B28AC7A827FA32BBB8943692
:101660001646632400703E0400006004307184213B
:10167000374400103EC43D71912200700020AC0040
:10168000AB033E0437449CB7B0840256ED973E341A
:101690001130D9B1008009722E65B8266851C22474
:1016A000406025C7BD101220E90644019503430898
:1016B00000008E00BD05009000700030CCD8000006
:1016C000BF082407C10200801190B76800006304BE
:1016D000C107AC70E59360242447962084716DA601
:1016E0002BF1C175AD4217D0DE7432C3E444FC6106
:1016F00000406C268E708E002A0111008E000000C2
:10170000000000D0003000102B719C328F42480145
:101710000000AC008E90E5D03D1100608E00057693
:10172000D367956300003D51B8927F38C7D8C13266
:10173000761837748E308E406FB320D6454366726C
:1017400084070625E1A009901D64003000703D81EA
:101750009FB78CB52D573D71CCD800109876F3B655
:101760005480961000C0D32033A4339103160C8705
:10177000C085E515094692568C83BD125452CC188B
:101780003D513D9100300000E503000095D38EA04F
:10179000AC10E300D603AE0363349523DD477668CF
:1017A0008E90C1028E408E2067773E0400000000BC
:1017B0008E20D3104D870B0741B8744275F328D89B
:1017C000F36479352760940537248EF0AB36E6C58F
:1017D0005A46E715EFD708902D30950300006004B6
:1017E00084B19C27244700A000003D31D3A08E4047
:1017F00000302CA41A3693837F973931EB25BD0531
:10180000BC009303E5C350845D1500006004000034
:1018100000D00030001067013C04E603000066D0F1
:101820009E172477E2386741F0F637D68713840194
:1018300016010000B9041304C107009063B4AC7032
:101840003D517DE111339CC279A40000000006B730
:10185000AC408E0000000000A93667D0C102003005
:1018600056435B7699F19EB3D733EB1437C43D21D1
:1018700063643D91E5638E00316753430090C392EA
:1018800099617A067608000076689971C1824AD318
:10189000843856152A0466B882480000F004000017
:1018A0007128B0548F5700D08E3002163D51007011
:1018B0008E802F62F0109A78DE07BFB81F41AA729F
:1018C000B80214823D6100E00B5084014901AC0074
:1018D00016318AB18E80C1E28E803D0116019006DC
:1018E0009E06E5002407D300006000700B870060AF
:1018F000007095839E12BE1200000000A900260011
:1019000099D18E3037143D51A4D02258D7C41748EE
:1019100092252D03AE038E006064003000101B2161
:101920004A53968676D800308E103EF4D1082E3475
:101930006AF62035A62861E159C56936AC008E00EB
:1019400096067560C112001000D0373400101E5585
:101950002971006066702D351641950300003D0128
:1019600000D08F3500107DE70080E50395038401EA
:10197000BA0467318ED0000006678E600000000058
:101980000C14334205038E00D90169080000670179
:1019900000D0E533B61237E4848151063734ECD3F6
:1019A000B004008099413D3185D1A39893637405BB
:1019B000220100008E7024173024BF019900DC033F
:1019C000A6A2002000103764C778D981C1123DC19A
:1019D000002033F29B088D85D340AC80001076E860
:1019E000A682AB0000A0B004D6788C5457163727D7
:1019F00002D61FD7E1052446AB24AE73B702A70574
:101A0000000000000C07000063640090004065D7F0
:101A1000D9A1E31300A05007833137A40B247E180B
:101A20008E0035643744D9010663674024E72B7282
:101A3000000000B0004000101601000079018ED0B7
:101A4000AB33791000F0B0A4D900D073F26594885C
:101A50008401AC00890302D66731601400002407BA
:101A60006004D29655D5501300D03E3800101501B1
:101A70003D0100003DE16084630466203D9108253E
:101A80008E40E1E39103DD042A0116017608760811
:101A90008E003784D3E07531D5737E305243B82839
:101AA000B034007063D400D0B074663008922088DF
:101AB0001A064008D1003D417626C27100000000A0
:101AC0000000E5D37536151595030736236054D706
:101AD000A5355E11C1020000000000C0163195431B
:101AE0004308000077048E008EC0008002053D018F
:101AF0008E00B03400D08E00001000C09921F50592
:101B000000000000000000000705003000C000C019
:101B1000003009C55CC461490060F1DA004000B0E2
:101B20001FB03B2B38989FB828550E7D0A9EBD05E7
:101B300072009D0300000000C30CDC045CE4A81BE1
:101B4000A4A93042BC6587E8E7F75611AEFA1F102A
:101B50000000BC2B144D3A177C8B280238A900F0EA
:101B600000101101FD6BF4DB00700000FC0647095A
:101B7000DE268B70174B41155F1008153355FC1C82
:101B80001141A52211B17BB65C4ACA293D65D61721
:101B9000FE41FD52006012DB007000605C44186979
:101BA00072B007355F338109968DED2146168B188B
:101BB000D6171FF05C1A1F00C3331FD0B773FD3B4D
:101BC000FA01BB876935FF0CE1D11FF0BC1C110184
:101BD000AECA7F5A1FA00020FE913E0449F0CE18E5
:101BE000010CB308010B0905D6078608C30A1F00BC
:101BF0009E010000C31CFDABBF89641D0010981A34
:101C0000C38C00C0B090D6E7C3FC001000000905EB
:101C10000000D60700000000CFBC4CB727CBB7634D
:101C2000EE9B67556FF8F872FD5B00001F00000027
:101C3000C3034806C303D6971F2007B55C44F1E1F0
:101C40000070006000D0007009050705B000CB9B54
:101C5000002007B500C07AD300402C7462D04F7AC0
:101C60009A13D047776C152E62C0407284CDB9A408
:101C70005EC8380CC2627DB71C0BA2021101551759
:101C80007F12001011010000110111C11F50BA4351
:101C9000C3A447E0DDC6683300C000C0FD0B0000F0
:101CA00000000000C303A8051F00F1071101008018
:101CB000001048895C0B840000005C942C886C0840
:101CC0000010F1139A14AEBA00C0FEB11FC06270CA
:101CD000C8397296DE7C3942AF6C4B88495989808D
:101CE000E3ABBED2C6D4C545E2649404AE08050891
:101CF0000000C303540D5CAA46E600C01F1001A7F4
:101D0000E1871F008204FE0112414E8C705CB728EF
:101D100000C0984A00605C8AAB0BB9840090001048
:101D2000BE0618080000C35C09851F0072700F0A08
:101D30001F50E0BD1F70DE56B6A164C9D91301EB78
:101D4000CF58A4C2591C6713381A319907E59794E4
:101D5000C3CC1F509EAB1FA01FF05BD251840090DC
:101D6000981129BB00205C1A000011011F0000F02F
:101D700000100000B15A00A000305B9611B1F4A72A
:101D80009690655DA9952957A45631109554620027
:101D9000C4420090E207EF577CDCE867ACA7603CE8
:101DA000841357B12D8273600717194A656658620C
:101DB000000000000000003009C538C71FE00040E7
:101DC0009A8233686140B166EA5C09896270A84B07
:101DD00071801F00001000000070CAE743F8BC9833
:101DE000AAD7B5E6E2DDC86200D0007011015C043C
:101DF00000001898E588186800009A0400001F0089
:101E0000DE060000C3FCAE1AF1031131B90945C664
:101E10007F6878A405B0F13700609891B0E05FA8C2
:101E200000A04A1A980100B05401E909000041F5E8
:101E300000101F00BD08C16CFF212B27D2C4A8359C
:101E40009FCA797CE58437FDC1A5AA686EC61828AB
:101E5000A0415B6DF80A6F45DB5C5CA4AEAA00F0A4
:101E6000007053A4001011110010111107D9007057
:101E7000AD0200001F0084C02B81010BED049B0408
:101E8000BC0611D139F31FB0C4F5A718DD04170B38
:101E9000CBBB00000000000000001F007D07B00069
:101EA0001FF07F1A0000008000901F10DE061F0048
:101EB000990218A8642861680090F70CC75A29BBDA
:101EC000C3C211B10000000000001F00C30C6E0669
:101ED0000090B1095B530010CB6BA8858440B5FA24
:101EE000A4BB000ABF070000006011D10070E4F736
:101EF000E11B9306C889FEE1008000005601FE0147
:101F0000C33C00C07FCA00E0AE9A00301F00000052
:101F10001F004105010B510D84109EBBCB8B1F7020
:101F200088B4CB3B7A086B030000D6F70915000094
:101F300000B0D627FF1BFDFB0915110100F00010B2
:101F400011014F6A7B43FD816478860DCEAAFD9B0B
:101F5000AE09005000000705B7095CFA1111110124
:101F6000FD8B0D2122A4F4073507CB0BFEE100A069
:101F7000D6A700700000005000900000D657FDFB6F
:101F80001F5000305C0400007F0A82F4C31C070568
:101F9000007000000050CB0B2525AAEC6366753C51
:101FA000DC347363182E06B5002011713E044C6CAE
:101FB0005D714FCAB56CCE5843263475C403505773
:101FC000140E5C0A000000405C0AE24701239F32C5
:101FD0002C5B7EF5771700003903FE01180B09050D
:101FE00064487D6700005F085C04CE4D310BC3D7A9
:101FF0007708E00CCB0B1F101F101111B4BCB87385
:1020000049D786B6F6960B0877FAC14A8BA0987125
:10201000E100CA5922E1C2C454CA4775FAB37F3AF3
:1020200000307FCA5CC4003000C000C0E503CB0BA9
:102030007E02000000B0FE01A60B600B0000001045
:102040001F101111C39C00E0649D00A09AC43F04BE
:102050001FF000E00050F0578BE640C3A2E00BFCFD
:10206000001011001701AD02F10A8400000001EB1D
:10207000CCA900A0000000000000FEE15CFA001006
:1020800000A064CD11911F504CD9B9A656D73A7310
:102090003E447AF35519AE0A09050000C30CCB0B78
:1020A0000000000000F01111C30C0080001000803F
:1020B000F86100B08C3C110100B01F0000201F60CF
:1020C000F2223A96C5CCAB9918080000AE0A00E09F
:1020D0005C6A1161007000000050C30C71030000C5
:1020E00000F04819980A641D9DD800700080001007
:1020F00000301A358EECC0168054980A1FE0070590
:102100001F000000D607C3BC090518281F70120B5A
:102110002BF1BCAC5CA4491DDCF6001043841FA06D
:102120001F5088838BA09E5B64FD5CE4F13162F6F6
:102130000D99D66A58DC5DFC7FB20060C4D4007093
:10214000C36C0CABE7BC00000000000000B062767E
:10215000588CADDAEF9CAEB2130DE6B30F097200E6
:102160000000C30C0000640DBA051F0000005C0AEB
:10217000072598410735CBCB00C0DB961F00000038
:102180009E0B003000C0003064BDBC8CBC0C0080D5
:1021900000A18835395D9F44178649CD075549A66A
:1021A0005C6AFDBCC0992030B781B65C74025C04E7
:1021B000530A00F000A018980000D607F10398E138
:1021C00000A011A14D57AEBCFE419E0263594B9A2F
:1021D0005CF4111146067250B2B02F0471FB3E8CB4
:1021E0001C029ECB9754E64DFD0B650100001FC0FD
:1021F0007933350BD556239BACBB69A90080E81D0C
:102200001F401FB05CA4BBB3E287A1063199B90699
:10221000A450235411C17FAA000011010000C39CE7
:1022200011B1F12348090000CB0B00F000100000B1
:102230006BA154C8297BCB9BBB987A32D6F7641824
:102240000000074572B0CB128C78BA8A4721000093
:10225000830200001F00DB0D0000081BAE1ADC1417
:102260006108970411015C7A00E05C7A10740090B8
:10227000003081E36BF90010006039A35C2A00F0A4
:102280001111C80900001FD007D5FE01090571030F
:102290009E8B001041951F60BEA8CD38E498FD7755
:1022A00066A56707AE0A9902004000609A14B6B4AA
:1022B00016729C9AD827800AD77D72300080C31C82
:1022C00000001101000000301FC000306118654B94
:1022D000515D00E000F000101F80AE1A98819CCB89
:1022E0000050BA4674090000000000C07459184834
:1022F000CF0D9904140600C064DD5C44FEF109159D
:10230000DE07A815C3031F003FF215EA72A311E10F
:1023100045DA0F9BFE639640242A970DD30DB60332
:10232000008000F0AE1A0010D6175C1A411500109C
:10233000111111B172B0645DD28D111471830060FE
:102340005CA407BC5C0ACBBBC50A00F01F100000F0
:102350001F50C85122CAA36520195DB7061EA5608B
:10236000378CE41400100010D6271FB00090001026
:10237000AE6A00804202B40A980A1FA0B0C0189842
:102380001FC0005000A0E71C11216E463D33339D55
:10239000630642E046069690044A996AFED1614976
:1023A0000070F19A61A8D0EAE7C7642D5C646B61A4
:1023B00060070B42DEB6EA09E40D000000E011A15F
:1023C00011A1EAD834500E4811EC1387C24DD88AB7
:1023D0003DE160A3F393269821CDFBFBD4DCB861EB
:1023E000D3693442F6374F9200001F5000C0C3F348
:1023F000EA3C0010CB1B11115F13CBBBAC2BDE886A
:1024000010C7F0C5A7C9185888437777EE73A56B36
:102410004932085062B079B7A7274ABDFC3CAE2AC2
:102420005C0A00000000D3075C9A1FB05C3AB02D34
:10243000D0D310D0EC7CCDA3DE2633C500309A84F7
:102440008866FFDD007000D000B001870D4AB80C2F
:102450006270A9E0E073E1310705620D0000CB6B0B
:10246000F6EADBA61F00D6071F001F6048D90975D2
:1024700000E0FEA100A0C88900000030FEA100908D
:10248000004074B9A23DD1301F6000A011B1176B9C
:1024900061D800702AF3017B00A07AF36118320042
:1024A000E3CA386D523BF604B3080000EB04710137
:1024B0000000000000003305CC09D607AE0A0080FA
:1024C0000020571C5702721908CE2BE12EA000A045
:1024D000003000909A64A118B564008011F1ED15E8
:1024E0005F0300900000D657C38C00A08F5BB090B4
:1024F00000201FB018C8008007C5003000500090B1
:102500000020B1D8CE7541108261BC87DC0C010B74
:102510000000C3F3007000A01F000000000046B6DA
:10252000AB82A80511B19871B9834EE8FA046D4CDD
:1025300038C3F44227276011F0F17528006007D5F1
:10254000117155FB00500030F1E3DBF648183129DA
:10255000184809B56824A896E2703D3825D0B369BB
:1025600000D014FE05BA1FF0D117110D28FB481931
:1025700000001F001F0000000000C30C0000FE61EF
:1025800000D000701FF07F7A09A51101BD09290B49
:102590001F105604A9DB18E2B7D3006000C0C0C307
:1025A0004BBD6B879619E50A270C9F0B2D03DEB6F2
:1025B000FB5CC3A80F743698004000000000B7030E
:1025C000D6070905C30C003061C99DC3AC120010C9
:1025D000091500700060D1B700002B411F206991E0
:1025E0001379D76A6F6B6CF2C5B9D63700C000C0DB
:1025F00039C35C7A00707FBAE1B01F90000084009C
:102600005C0AFEE12CF300100CFB6714FD038F172E
:10261000830167B4000033050C0B0000C303FD0207
:10262000290B0000000000701A628A2051CAC9F804
:102630006643520DB30ABC0C00000000000000000D
:102640005C04110111311F50647D4FAA11B1113189
:102650004A18DA1D62105DFB361795015C1A48199D
:1026600041151FB05C2ACF1AD250E667FD1B4D9D65
:1026700096225E6203E3CB7BB3A10000980A82043A
:1026800064380FAE009000B0B012A7E504BC63DD63
:10269000F94C3B02B000830000A0CB7B183800004F
:1026A0000000D1071F00130E2C0300401F50974459
:1026B00000B000C00CBBEB4C7676E120A805CB0B3C
:1026C000E60D00D011719E7BC30C00005F0300E09B
:1026D0007DF70010B90C1F001101110109058301DC
:1026E00050386638F29A23C90050004000005C045C
:1026F000A2090080D6876490F134AD45DA3BCB0B5C
:10270000F10300000705FE010C0B1F30AE7AF19AB1
:1027100007054809180800D00010A1711330AF5BFD
:10272000FC5558883B9ACB47AE6AA9E85C8415A54E
:102730003209C2BC5EC77E55974111B1F18387272C
:10274000222EE3F24B710060C3DC18780040012BAD
:10275000E74C002000D01FD00040006000D0DCE437
:102760006272FE72DB032308AD0BC31CC3D500707D
:102770001F00FE0198019801CB0B000000F01F1014
:102780001F0020EA00A048A9A3ED588B0B6967C879
:10279000F2525C44EFE200D0006000C000506EAC2A
:1027A0005F83EAAC115100009801C80900000000E5
:1027B00077070010001051145C0A39BC390300007F
:1027C0005C0A0905003009C51FC0FE01B902990263
:1027D00000807D977F1AF1F397143A0CC3E311F14F
:1027E0008BD0B71734980A9A43152407F3EBE71CEC
:1027F00000601F8054871191C31C7D77090500502C
:10280000046E5C540010A703140A00009C910000A1
:1028100000509AE40090D1B70060B0EA74C900009B
:102820007F0A00000C1B0040DB50D6C79E0A5CB438
:102830001FB0006099A248091808AE0A0000CB0B2F
:102840000000FCF7931600006771DDB00429DC0975
:1028500001071F000090004000609E7B00806EA674
:1028600000A05C4483040C9C12F2C1388AC4AD827F
:102870007F12191951A65ED6E88625996FB6CD61EB
:102880006DA155B0003000C001CC00E000F00C1B81
:1028900098F11F109E01004011811F0000000000F0
:1028A00000000965D68700707F9A9306CB5B87602E
:1028B000C3DCA17800F0E9199E0BEDF71F109E0113
:1028C0005BC700C0009097F40915000014AEAE9AE3
:1028D00071436764E191380C1FD083B9AB2C0EB7FC
:1028E00062D7F67C0A2DE0FD5014B3E2D2A8CFA146
:1028F0009AC4148ED6C7FDF6A61B00000000110175
:10290000010BAE5A09D50070A8C5005041A5D6B735
:10291000CB8B18C800E000D0AE6A1F00D1078B0037
:10292000AE0AD607B70367B9CCC91FB00000CF0AFB
:10293000170BFE011F000000C3035407BC0CD39506
:1029400018080050E93909C5D6C70000B0000000DA
:1029500000A011B15F3362286C5B2FA8DDFD001071
:102960005C0400A0B8E480DDBAB97EC97C05DEB2A3
:10297000376BDE11F282A3E7AEDC0090C30C5D562C
:10298000C31300106E1611911808005B0000F70ABF
:10299000DD0CA3E9109A33B70705A3097F0A1F903E
:1029A000F0030050003000C0D6C7835100B0074587
:1029B0005C8A11F1111100E000F0001094416EB634
:1029C000A6ABA0D6017B01961A18083C7022009095
:1029D0000C0B0050008000900715C33C00C009C5D7
:1029E000FEF1117100A0140E0000000000B000C044
:1029F00000B000F0DEC66EAB467611119E8011016C
:102A0000DE06CC0D00807FEA0090077500000050C4
:102A10001101006000B04B9A0060607B00F05C5ACE
:102A2000043E1F000905D6077FAA00500D409233CF
:102A3000CE799D8200C0FE7100A00050AE5A017C8C
:102A40001FF01F101F001818ECCBE141B83A00C06E
:102A500000C00785C31CB9845C1A11415C54D6C7F9
:102A6000DED61E40AB7D3D647354D80300600090F9
:102A7000001001FBA2751FD01FF0FDBB0090CB0B17
:102A8000D050AC856E7B9A7AB24DCF7A469600E0F4
:102A900000F0001097E4649DB7D36B08CA0AB40431
:102AA00064ED20FEDE1C017CC66040A5B28659178D
:102AB000CA8B1F10AE0A5FBBCC8900101F800010AC
:102AC00000101F100000FE01CE085C4A18689EDB53
:102AD000FE01A815A76A3059F3FC57AD507AC4CC53
:102AE000839AEE8249949A15007053EA00C0C30C91
:102AF0004809FE01006009555F13CE081F0011014F
:102B00000010001000101858BC52007000001F0088
:102B100000001808000000007F027F0A0000F4FB9C
:102B2000001000006108D607AE0AFE01980A0000F6
:102B30001FC054C40030A84534881F001F6046D60B
:102B4000007071835C140080D04D5C3035C9F4C6D0
:102B500099F0EF206E094D09A40711C1855000A01E
:102B6000CD02A8E42C714A03F10D3B0C1F401F60FD
:102B7000FDD298C1A225AE3A5C2AA875B703CBA1B5
:102B8000626BFA109E1BFE1100101F80B010B781FF
:102B900000B05CC4E3BCF1039E0B0000C35C336275
:102BA0005C443A0CCF0D1F00000009050000E6CD83
:102BB000010CBE89E91C3EF63137006064AD00B0FF
:102BC000504600C0000000E000A000A0F8419E3B7D
:102BD0005C84000000000C0BD607010B5C04C333BF
:102BE00029C974C90CCB335700A029A71FB01131D4
:102BF0006CD31755EDA988F022174407B000480997
:102C00000000C3FCD61700001FF061180703116114
:102C1000005048190030AECAC3CCA60B00501FD0DC
:102C200000A00040008000003305C30CB318006012
:102C3000798654A71161D22AE73D3C7CCF2A1F0038
:102C40001F2000E07892C3D3AFD90D2B48AA108B78
:102C500094265508FFA96C05F407290309051101FD
:102C6000CB0BC33300C0003098615C941F40FDEB78
:102C70008CFC001016A9606A6397E3B700C01FB010
:102C8000C3BC00C0FEB111F1D6575C3498E1F39794
:102C900000B00060005000106108E9599D460070C6
:102CA00000A0A8BC1B371809830946968903008930
:102CB0004E070405D00A11813BA37F5A1121A57448
:102CC0002E09CC286D038669BCB572A01FC0DC44F8
:102CD0008E8BAC902A0600001F0083191F10BA13B8
:102CE000B959C1BD5887013B14CE00C0C50A98012F
:102CF0007D070765FED100700735AE6A75A282BDFB
:102D000000C0B0B0AEFAFD7B00A033152913021D40
:102D1000CBFB19B896930C0B5F08120B5237CBBB49
:102D200033D5FE3B370711EB0C9A6412971CC6781B
:102D30007EE6E1800C82095E5D03A6CB8C53C3A8BE
:102D40001F000000000009F57E4D64BDBACC025B97
:102D50002CA908F98DB66C9A5C041FE00705D617FC
:102D60001F1000101F102CD498D1CBD9F3B74AC92B
:102D700028C7C17752690000000000006E160000ED
:102D800000B0EEAC00C0F191D697CB0B0050C3EC75
:102D900010F900101F406188C30805BED2E9A835AC
:102DA000F20699D1D033FFF6C31C0000001000607A
:102DB0001F80FE01FD03380C000000D00060000001
:102DC00000001F001F20C3031F60640DD0134C1AA6
:102DD0009BE1DA46CB830000090511017BA451BCBD
:102DE0004646DE5634CD9885079CF189892D02220E
:102DF000D5D4683D2C86069C0010FEC11121023DF1
:102E00001FF0847000A00000A2051F0000E000F089
:102E10001F100000000000000B0B88B300001FC053
:102E20000080C3CC909BC30C335DC0EAAECA118155
:102E30000000000000000000C303C3030090C3CCE7
:102E40008CACA62B72C1880A03868F480A251F0006
:102E50000000000000100060A885E100C30C1F0006
:102E6000F1635C140040C30C00001A020000000073
:102E7000000000B018C8BCBC096500A01FB0CB0B97
:102E80000000000000805691FDA2007000001F505D
:102E90006DC6170B0CBB00507F9A00508410007059
:102EA00000301FE083B9317AFE57982CE267212069
:102EB0007DB7A8A5FB43FF842C1E748A5B9407ACE6
:102EC000761211DEA2AC80552A8AB41AFC9B7B02D2
:102ED000705300F0FE51123B11110010981AA80B0C
:102EE00059369871DEF645A7A992DEB6E5C9F4BB5E
:102EF000D004D607200EFEC10050003000E041F59E
:102F0000001000000000000000B0B0C0C3BCFED143
:102F10005C141FB05302B90D0C0B1FF00010000021
:102F20001FE07966986184A0ECFDB7648542683B38
:102F3000D4B0A0934E19C92391070000C807CBCB8A
:102F4000CB8B00C000C0F45A00400000AE0A000065
:102F500011B100A083C97B68BC28AD4DE4BCDE7410
:102F6000025C45046A03790D0705AE0C9E0A00C099
:102F7000345800A0A1028803640D0030C3A3A73316
:102F800000009C026306C30C000000000070C30C2C
:102F9000C35311617FCACB2118E800F08B104C4459
:102FA0003CF24B55A9C9149ED05105BC17B41E2B39
:102FB0000A73BC9DD5A81131CBCB5F331F001F0016
:102FC0001F0000001F00F50B510DFE01FE015C0A01
:102FD00000B0B000007000000050E51D1F105C1430
:102FE00000E000A011A17DF709150000BC691141A6
:102FF000076594615A0CAC7D9B0DA5080000FE008E
:10300000BD0A1F0000B0D697C63A29EB1FA000A04A
:10301000177BBB9B0040C313FC13BB1DAE9A5C0423
:10302000CB5BAE8A00101F80000000001101000081
:103030001FB0B000000000001F001FC01F0007D518
:1030400060280BD24A0D4B6AFEA11FB9D4050000BF
:103050000000021404243C4856041420243C546606
:10306000354204272F4D424D39514049334C1742C8
:103070000D164234503058104A3F4A384D1B4D18F7
:103080002130580C1C25293438404850545C646861
:10309000112E653D50101E0C1C14534D1842041483
:1030A0002024343C54662D52304F144C10183214E6
:1030B0004905320508142665133D04142448546656
:1030C0001D164D3D14263E4D0F1530523D25500521
:1030D00023143812612C103C080D2831353848551E
:1030E0004D23055665511935084D164D215265166B
:1030F000302D0E383D24522E381F2D4D0704244804
:103100000810143038502E413D244A14685632308D
:103110001738134D161C2D4A08143953253C4224E8
:10312000303C545C663A25112D3E323116060414AB
:10313000182024303C484C50546626193E2605255C
:10314000171940213048534D2615253626052124D0
:10315000520D05444A3D15422E65241556103E1663
:103160001115244856142250140C111D30343948BE
:103170004D685A36202F541527311365493B150CDD
:10318000502204160D4151251015485B3D24595D10
:10319000354015080C2C3038484D5155602B433DB7
:1031A00006052C406516543D161808144C380C11B1
:1031B0001D242C303C40495054624215243E3C0CA6
:1031C00010181C20303439484D516324564D384373
:1031D00015074D0516514C1C25080C183035394182
:1031E0004A354A1065270910141C2D3438414548CA
:1031F0004F4D0625143640672A1448500E05423CB0
:1032000026403349173E18080C101C34404C5060BF
:103210006A4D2C30105A0416484D230C304D3F4D4A
:10322000165016654D165105484D3B5E040D1C2485
:10323000083035383D4050545E05484D56045857C7
:103240004D0E151F04243C4856394A514C400B4C36
:10325000486B25164941213C0C140530522126119A
:103260002D322523043625546765552C58304304E8
:1032700014266426051524283C4A224D052464168C
:1032800004264D2E3C0605433D245206064D651D81
:103290002C38143F513430101D050C24484D0A249D
:1032A0004A2D430E4D3E653E3D152625170A100C4E
:1032B00069181C3034384D521D40394953395D0767
:1032C0001950101405080C1C3034393C404C5A1C61
:1032D0003A501611493B6526250511093B51274DEA
:1032E000152407111C313840494E6B0421610D1023
:1032F00024303840484D50545C64352F4D491821D6
:1033000038300C1D545E15611D30526A1D3F4D054D
:103310003D2665171214403C0C1C38524D3C1612C9
:103320004D14074D15481E4D243631262414661DB4
:1033300009340C142438484C5054585E26151F4D3F
:1033400021090C101D2435383D4850585C324D0879
:103350003543211E5141132414320C423D4C521569
:1033600004232D503A24173B3005273F65253D495E
:103370004D510D0715040D10181D242C30353849FA
:103380004D50546064680A1A4D143D51320414249F
:103390003C5625303F0E201E653D245004163E311C
:1033A0004A3034383C4044484C5054585C60646A5D
:1033B0006A5448090C111C2D35395F651536140502
:1033C0003C1C2C386711404C52312D526A252C0C74
:1033D0001E6514324D431304574D150E153A2548FA
:1033E0001D2C30384E051D0C2E680414243C560D3F
:1033F0002F3E1456393651154A0536391F160448E2
:10340000080C1020253034404D5E2C4D173E3314EF
:1034100006085305251F3E1C4C05533E141C584DF1
:10342000332556185626052516224D6507054208F0
:103430003917040C142048242C3034383C404450B4
:10344000545C66513A2C26384D1B140C1E0556252B
:103450000517523D550630130526651614300650E3
:1034600010151C4D0E055155156432510B3D1717A3
:1034700030080C1014181C2C34404C503A323C428A
:1034800021051424303D48545E4C323205104D3F26
:10349000113E68533E1552154D67113A26052E1CF4
:1034A000102C3034384048505A15261511434A4DD7
:1034B000514A08562E485E344D1308343942096388
:1034C00015334D0966050D111D20252C3134393C6D
:1034D00040494D5154606A613004090D1015191DA1
:1034E00020252835383C4144484D51585C6B2537E0
:1034F000041C22493333264D3439404850320424C9
:103500003E146532164C522C0C653F413724344230
:1035100014444C052222353B4D14231C560414241C
:103520003E4D05564A2E3242150C3E1504244E419E
:10353000151E053A051730523016544D2621161621
:10354000421457314E04151D303848506265041638
:103550004D0531674A514F2F513A0526240416066E
:103560000650233026131526054C3E3E0414243005
:103570003C545E14243C562605191D09405A3D56FC
:1035800065564D65124D12514C143A11274A1E547E
:1035900015520D383C62064D651451051E06304E1D
:1035A000343A415118393C484D1F1465324D651766
:1035B0006541310621040C11141D31383C484D5031
:1035C0005C6837243E144805131605152D404B1B27
:1035D0000D544E6514061D34584E3D49323B0414BB
:1035E0003C485426154D27145214204F2438154AB0
:1035F00014245605153C252A4D65274D1526513EA8
:103600004D15424D181D3408103048500E0E14262A
:103610004D153E162C3A65241651133C56300A655A
:1036200015041C3E5A4D1504572E4B315F05164D9F
:1036300052052452483B080C141C303C404950545D
:103640005C624D052512564A0414243C54663C31F4
:103650004D0626101E191106251A0D14312D361986
:1036600015043625104A15375630374D153E0819C2
:103670002C38142615630E264A1A540830174D3D6F
:10368000050E041E553C0524614D500D10181C2CD0
:1036900030343840486A050C25634D0461693108AF
:1036A0000D101438404850661024381E143D27056C
:1036B0003E066516304B0A4124152D113856151853
:1036C00009121948061426215D0C103135383C408A
:1036D000484D5056053A51310E152C4A4D1453534E
:1036E0002416051C4A250E5211321D576514260C4E
:1036F0004E1A053D0E0614243C562404564D2D53F7
:10370000541616543D162418140D111D313438402A
:10371000484D515D62150C564D3C2D0C5056140908
:103720000D10181D2C31353840494D506A08400C99
:1037300039321E4D3D104008182030522D221121E3
:10374000390A1406120D5D1C2430343840494D509E
:10375000555B390F354F0514250E41511C4B4C68F4
:103760000E1518090C101C2430343941515D062106
:103770003E0414243C56164C523B2167054D170459
:103780001420243C484C545C661D4E101524303ED9
:1037900041273A050A1A4D052D15253042053C24CE
:1037A000140C384856391352144D0650262412056D
:1037B00026153A1432385F155656041D58090D1453
:1037C0002C30353840484D50606A06153850123953
:1037D000150D1C092C3134485055620416041A2466
:1037E000215C08040D10142C303840484D523654DA
:1037F0001124091C14414E5125043D66143E060453
:10380000143C56113039414A261432041420243C09
:1038100048546616041424303C5625064D56483C40
:103820002415523915520C391532063D04381C52F4
:103830006A1D103A143F1D3E0555383E140C1118F0
:103840003539404859633D2F213D251726594C40B5
:103850000D694410141D253134394950633F073830
:103860000C05153E3C160E401D385A514912325176
:103870005F26493F302F420525313D52313F5126C9
:103880000C3A4D3A21163F0514243C66155D1C3553
:1038900004080C10242C393C404859682132422439
:1038A000404D3D17183230394048506A3E50491358
:1038B00049112D1E115A220514263D2F5215613C27
:1038C00058646B114D4B4D212C5237401704141C7A
:1038D000243C505466053D20252E241614080C1057
:1038E000181C20242C3034383C40484C5054585C30
:1038F00060664D2030560202153958125104364C7C
:103900002F3238365D334804560414243C564D118A
:103910001509191C30343841485314384A3F4904BA
:1039200014243D56503C143221240C55654C08108B
:103930001C30393D486216041424303C4856380483
:10394000144A4D0514091D2D40444811330917151B
:1039500024501031383C41484C0E4D4A482F160631
:10396000053E421D321C04083850584A114B4D3850
:10397000241631121526243C1E046A14243E1535E3
:103980004A650C321C171D5D143E3C3665162D46EB
:10399000150D4E17140C18102E14062F0524215443
:1039A0003A1B553F04663544485A10303A050934ED
:1039B0002E140B1204080C10181C2C3034383C4800
:1039C0004C50586A1420243E533C3B3D5124413214
:1039D0003D655D37641D2D371224521426343A504C
:1039E0001D060414243C573C224D51284211390C29
:1039F0002E35114D3B263C56080C10141924313439
:103A00003840484C505466321E0535121426246541
:103A100032102714243C053B0D3B4E083A563052D9
:103A20004C0626253F4C504A4D322D52490F154227
:103A300050343B144F3D172725152C0630651E5971
:103A40000E05264D34540A061631344909392D42E3
:103A50002D6A053D1015333208521508371C4304F2
:103A6000142024283C48545C660C1D2E390F5168E4
:103A7000563415244D3F26263D121432115124325E
:103A80001B14260C090410141C3204411C382E4D42
:103A90003731243A214D6524090C141D3038485023
:103AA00056102E244A5258121565241E3C064D65A8
:103AB00014306A4D0A1651400D4B4D053D0C2D3604
:103AC000390C10181C255251385A4D3519650A28E1
:103AD00027050815493B5E04141C26363C240414B3
:103AE000424D243F3C3A4D5105091014181C243016
:103AF000343C5604591014182431343848521649AD
:103B00001E080C1C2C384A15081C660E0416650C81
:103B10001006360414202430383C48545866480CAB
:103B20003A401F3011531C4D3309170414243C56DE
:103B300009142436314B392F3D2D240C3A1151589C
:103B4000083B3E68173A04243E6516513C17391469
:103B5000500C2C3042083E2414061C3C58420414DD
:103B60002024303C48545C660715270521574D3DFD
:103B7000320E15264D56214110141D24313439487A
:103B80005C4D2F5434424F14563205244D160625F1
:103B90000416054D173E493A31584D4B14521F51EA
:103BA0000E480527140427052409365D2D16140731
:103BB0006514553E154D072416053D16651D141355
:103BC0000C2E4D10384A052F05261508040C111827
:103BD00031383C40484C6B14342635511E14243E79
:103BE0004D3A4B2104080C181C252C3035393C412A
:103BF0004A21536454090C14344850584D264D241E
:103C000064163D51113B3D322F14201804080C104E
:103C10001C242C3134383C4044494D5054585C618C
:103C20006B0E393E514B2D08324D61650508101859
:103C30001C383C404B4C1E05513A3D0A4C330A2C73
:103C4000694D13623925163A2606174D0A213D049F
:103C5000100C151C24292C303438414854585D660A
:103C600068263D14414E584A150D1B062104080CC8
:103C700010181C2431353841484D50563D3B3D0508
:103C80000E2F32313A2C4D231550263C6704145028
:103C900048664D04564D044014081C2C3035393DFF
:103CA00048501167551626143C4215064D48051418
:103CB0001C2430343C5624411C300C3439484E22EC
:103CC0005114382C4F125A4D38404853041666157B
:103CD000440C4A341509382E0C4F06182315661A61
:103CE000502D320B081C202850120A1535305E0664
:103CF00015394B4D3E4D4838302C080C10181C24FB
:103D00002850560C2C4F16113240524D31041118C8
:103D100024343C542205141D38284E501D166516B7
:103D2000074D3A3358491B3540620A3A0638534D1D
:103D30003C0714564C3A08544C0C1C2024282C30B8
:103D4000524D05164D21672104245410080D2C35C1
:103D500038494D5159663813164833105C04090C24
:103D600015191C242C31343841484C5961673017DF
:103D70004A210D1008141C243135383C494C50544C
:103D80005D646A55041424124D04320C5D15670DF0
:103D9000106425162506653E25151E4D3D586124E7
:103DA0002D3214043E3A080714243E4D1534654B59
:103DB00014324D3D55040A21565C04080C101418A9
:103DC0001C24283034384044484C505460664D2CF4
:103DD00038123D32360414243C5466490414243C01
:103DE000565A50243C344132091A341804080C1035
:103DF000141C30383D484D52194D531B31214F682A
:103E00000B6455050814273D043039514D16315FB8
:103E1000391D56423E543A053D2C24151E150624E4
:103E200010153A126604080C1014181C2024282CB3
:103E300030343840484C5054585C60646A4108162D
:103E40004D053D671D240C083865160C532530566A
:103E500052053E52690C10651C380515202D404D49
:103E6000505559630C1D383C484F1E4E1D2D3A22AB
:103E7000200811181C3034383C40484D50545864C8
:103E8000260416400B5630163C163A090C10181C26
:103E900020303438494C524D3015511B1D363F4DA2
:103EA000500C0840102434394A4D1D18303C545AE7
:103EB0003812091042053C1E180C0811151C30352B
:103EC0003940494C515458643E5116246516653E9C
:103ED000504C33392449300E4D15385214263514C0
:103EE00030420C1C5E2416444E390D5604080C104A
:103EF00014181C2024282C320E1E65103D26154354
:103F00003D512F4D124D2406141F211546101651F8
:103F1000143A114A1C304A141C123E165C04142038
:103F20002430383C4854661D534814083546193926
:103F30000B313D492F151D34393C4D56154865242C
:103F40000A154E4108384A2416491635084E485875
:103F5000681A213808344C04102430414851586400
:103F60000E0C3E214D530414243C54660641085067
:103F70005E16082E4D3E34080C1014191C2C3038D7
:103F800040484D53204868553F5142350C394B52FB
:103F9000113A160C36361114400C4C5E2452365031
:103FA0005A4014264D1565344809192438405304E5
:103FB0001424303C485466382C0810141830354806
:103FC0004C523E2F4932052E081724053F55173C09
:103FD00050551530384A0414243C5466265639523C
:103FE0000414264D1721554D27513A3C320A051924
:103FF0000C101424303439414850661E1025170A1D
:104000003F2F391B1450244D093C414954053205BA
:104010000C101C39154B4D2430521C4B0414243405
:104020003C485466244C58324A05162C1438064D28
:104030003A0424400A4D51303E2210150D303439D7
:10404000404C664D06050F1E24143215481C385F7F
:104050004D0C32050C151C252C3C4C503A3E3E2193
:104060004D141C2454124D1052480D5C6A1538082A
:1040700010361532495E510B3D042E313948081473
:1040800037151E3D244A055630261D090C113438BB
:10409000484C6A16381E2D173D51240C1704344223
:1040A0004D2C190408143034384149520424562C3C
:1040B0003A1705151E41364D16153D052651152694
:1040C000141C2243110F053D2E653F061D50104064
:1040D00030346B5422313C36581D0E4D0508143DCA
:1040E000654A1506655639190C30494C5458241642
:1040F0003650046554111530393C484E261963304A
:10410000160414243C563D06194D520C6052483298
:104110004F651C26153E483E664D101E3C504E65B0
:1041200034040C10141C20243139484D505A1438D2
:104130005315511D1A513B3C051732040C4C564D7A
:10414000041014242830346B1B24160C504F3814E0
:10415000484D524D1B2508364D3E652416421E51D2
:10416000120414253C4854662656651E3C161A2532
:1041700016142F261606164D4839532E213965552B
:104180003C04350C101430494D53323E341255481E
:104190005A304D3A3C1426343A4A1424574D424A78
:1041A0004D0A0C3956500C1C344E4D2E3C540625ED
:1041B0000D434D0C162D23220414243C56051638AD
:1041C000153F15571030181E150A513836310C5747
:1041D0002D0E653F310C1E516724530202610C51B4
:1041E000336505524D24201C3E1D18324D315304B9
:1041F00014243C560414243C5567104F4D51135160
:104200001A180C091D303438485224481615212F2D
:10421000041424303C4854661D092C5D3757112482
:104220002D15381D0E3B040C15202434383C485104
:10423000563015262404153E242C3C1567081526F7
:104240006524182C614D50111D3038495A152634FB
:10425000412411510C09045D1830393C485467243D
:10426000164A303F145214061D3843043440165188
:104270003111156526344351154F151D3812043C74
:104280001665244D53054136241119314D164D65DF
:10429000264D6561040C101424303539495F1466CD
:1042A000514B1D5D0C353A152431503723264D42B4
:1042B0004D314924140C434926410C33152641182D
:1042C0001534080C101C2C30394853080C101418E5
:1042D0001C2D30394C524C095034651E501130653C
:1042E0000C5D0918353848546A154D1208176535A4
:1042F0005D0C381D53144C352D1908103C5A651DA2
:10430000401438524D143C560441303C1158080CAE
:1043100015181C2C3438444C530414243C560414F3
:10432000243C564D1D0C3751302C09343968104847
:104330001E0C52650414243C5615043621152452D3
:104340003911333A562E3D4D521531043A06654C1B
:10435000395D2C41080C1D2430354851586A24160B
:104360000E0C1C38514B3806041524313C414C527C
:104370002F6506483F0C1D154D2F65164A1165091E
:104380000C181C282C30353941494C5154585F26A3
:1043900005130826040C1420242C3034383C4044E7
:1043A00050545C66491911393324166B65091D2474
:1043B00031343841484D50545C6A5123154D0768DB
:1043C0001D0C11183035384C521551264C3A6541A8
:1043D0001C30394B653E113D1730674D1C17151DBC
:1043E0002C0C30343941530E14051C3C49565104F1
:1043F000184A512F2638514B1521510910181D30DC
:104400003538484E0514243C56043C542620541795
:104410000414243C56201616655D16094D321548C5
:1044200024534D521E15511B4D44530414243E1564
:104430005832053614243E04081E3951312F653791
:104440003D481F4D110851334D51111F1C39264D48
:10445000221638334D0A1715313B1426154D3539C0
:10446000133164153F143E485D3C4C0C5804152430
:104470005162154D1D3A4D241E541611382F3D160C
:1044800015261A2D5349103765064D36354D3365BF
:1044900014244C5123383E04572F04144853654DBF
:1044A00024166517152453446748346541612C5D13
:1044B000090C111D24384C50586A4D15110C264911
:1044C0001438405D58111C3C4C5156493239241661
:1044D0005111490C4D392416503B2D3804150A4909
:1044E0000C511E2D1143114C5C0409141C2430384E
:1044F0003D4851565D6841610C11181C242C303424
:1045000039484C5165564D11631410303439494CBB
:10451000506A151F2D161D4D17151C3E4D344A654A
:10452000142604143C5624614151581004090C1DF2
:10453000383D484C545D66085220540E14202430F7
:10454000383C063C156A24522D4D1D3A64161A114A
:10455000394114194F1D0F65152F1C154B65143B60
:104560006514255407151133040C142440524934A2
:10457000303A3E514A3215652632651615512F15CF
:104580003A044D0A11302C3C090C151D35394148AF
:104590004C5A544B154D0A1148412D19395A212FA7
:1045A000154D512D4A4D523E221D152F4D176504B4
:1045B00014243D56504D17511130583E51652D0C65
:1045C0003A1E11354148173924234D0A65114B0411
:1045D00014243C54661427160C1F4D512441142DED
:1045E000333A345D1C24304850664D163F1505247F
:1045F00050564A4C301804081D3439485A2F1E2E84
:104600004D3E39242D4131584D114B51111D580C3F
:104610002430353840484D656A4D42394130354D7A
:104620001635242D0E480C3E24094C5867153A5176
:10463000113B110C30381619530414243C48545CB7
:10464000664C4832300515343940484C50623E5172
:10465000110931584D2417154A511C174C52230487
:104660000824285414321131354B0414243C546668
:10467000381E542266155F511D38430414243C54DF
:10468000675115264C2518510411141D3438585EF5
:104690002C5210264D26512D110C15243A65061565
:1046A00039436509510C151D20242C562417512D12
:1046B0000E650414243C56581B4A4D51110E210B13
:1046C000160415080C1D3835323904084A653D04B6
:1046D00014261530195A1526110C3A192D49514E28
:1046E00050165023381315185109101D2430353930
:1046F0004E143F513D2F3C041014303439484C5176
:104700005F31115365345D41612D090C4C3B4D17F0
:10471000154D6530053C1C38524D394B484D13152D
:104720006504262404143E511130181435394365AC
:104730004C0C1D04091118242C3034393D414851CA
:10474000545F3C4D4351154A3124163015350C0841
:10475000382C051C484C60424D2056360414245316
:10476000095D41535D04080C14181C303439404C69
:1047700052514D0E24164D163104351438514A4904
:1047800011354314534D41172F18340C10141D309C
:104790003940484C516A43243E4D18483A0C1A148B
:1047A000324C511D10242C34384A156539483526B1
:1047B00004080C1014181C2024282C3034383C40D9
:1047C00044484C5054585C646A392F06410C343AC2
:1047D0001D24584054043C5F0414243C560C3A3CBD
:1047E00050090C11181D303538414C5A3C041456F0
:1047F00051095F1D043D30090C1115183438404C27
:104800002E513C2433154D261D0968100C182C30F0
:10481000343941484D536541141A4C095F245115F0
:10482000333115264D3605153A115D164B116514B9
:104830001C383C51563D1E205226512415424D1E17
:104840003A300C10152435394A3143153C524D117C
:104850003957324D1C2417114D330C1114383C4874
:104860004C521D17154D3E1454265D0C383C544EC9
:104870003949241435092D4D53153731122D0C4B60
:104880004D114117650415243C48560C181F155D41
:104890000E4D410857114D53383F04164828090C56
:1048A00004103035383D414C5054585F110C6A2487
:1048B000421D5D38044E214F162D17041420243C50
:1048C00048545C6651080D15191C242D354A3D517C
:1048D000312F4D39412D513748116724156A155232
:1048E0004C3143650514243C48564D1E19044A04B6
:1048F000142428303C4856151E041030343A511EFA
:10490000154D3E652415424D413C08363151173056
:104910003F152622493A04090C111D2C3039485301
:1049200027154D382E04212F2C521524214F3315D5
:104930004216153036245614064A3C563D1E1B1DA1
:10494000350C5E1551212F115D040C1524303438BF
:104950004850546B4D111D2F4D16503D08353041B8
:104960005A1C6A090C1D344148505865265E15488A
:1049700065244C4441181C3035393D51545D626A00
:104980004D140E4D1542153351050C151C30384889
:10499000585D62154D240A244D1F2E51564A3E651E
:1049A0002D350C485D431E04080C3842203E484D0E
:1049B0003B103A2F11554E2D09334D4206151E4D11
:1049C0003016185704143C4856412F27350E36151B
:1049D0006526041420243C4A3C174D490C194139E2
:1049E000531518494E480911153B04142024303C36
:1049F000485466051626240C10141830484C524CA6
:104A00000C170414243C546639314324412D1331CE
:104A1000154F514E39410D32170414243C5467216F
:104A20002F164D3E1406222D1C15513B4935390BCE
:104A30002F3948170414243C54674842152F2D5829
:104A4000394B3A143834114E3D103A154D3D501142
:104A50000B15262C5C574C2F5D243E4D51151D38EF
:104A60002D2656391948500A141C3A150C40640476
:104A70000911303C4C5154585F4D530C414E111CA0
:104A800038152F4C481A5D51093E1D090D515F1410
:104A90003E4D1E381D354B3B4D124D650A3D0415EC
:104AA000262224085751243C3310174D4116154D2A
:104AB000531435650430394C516A4C11655D4135EC
:104AC0003B650656493A080C10181C2024282C3047
:104AD00034384044484C5054585C6066151D0411ED
:104AE0004D2D3A483E144E140936152351114B4DA5
:104AF000152651171A0414243441543E51043E35EE
:104B0000322D21414F492D4E1C38314B50565A14ED
:104B10003E142432651D080C1118243035393C48E8
:104B20004D516A143E56242D17326515514E4B498E
:104B3000161505243E4D1504243C0C3A39495612ED
:104B40002D3C2465172416413852153C2D26560954
:104B50004A4C1D5D0C413E153D0A19384A15241E6C
:104B600039111537514839090411152432354C5182
:104B7000192F04090C141D3039494C51616A421631
:104B80004D1C4A150C09360858432415673A4A3D0E
:104B9000142643384E2F2E4D0F16113A4D39243519
:104BA0004011525416381230156741380C3C5A5097
:104BB000101C30343840484E4D524D15652D0C10A8
:104BC0003A4D1552500E2D1C2615312D0F516524CE
:104BD0005D0C114C1C313941495A1B214D52513A3F
:104BE0000C4D230C501715331A152F0E1D3048523B
:104BF0004215240512650414243C48566516515686
:104C000011153C502D3B150910040D1C26512D117A
:104C10000C35394B30581A15240911183041494CBC
:104C20005315053C5113241615514E26391E1C4AA6
:104C30000C1130393C4C531433513D4A1C3006049E
:104C400014243E353014483B060415243C48546770
:104C5000153C13114E4D1538511F143215481E5175
:104C600004112606304C04080C1114182434384062
:104C700048505B4837063933113053111D243951E0
:104C80005A394B1131493558432C4B524D434D0540
:104C9000525149431C3E114154515D674A24144D01
:104CA0003256114D4B17110C1453514F2E6A1524C7
:104CB00012244D1E080C101C3034383C484C524D08
:104CC000133E1506041424303C546631391B485EEB
:104CD0000E3C1426044C1461243848533832151CF9
:104CE0002D110837494E3E24163833150B1C260467
:104CF000243E31274D15653F26260414243C5614C6
:104D00004132511E3C4D67164D65313C4A384C537B
:104D1000154D421524354F190C14485F410A1124D2
:104D2000411D2C09390C30495054632D11323D4D31
:104D30003624413F4C04145D42654A244D161151FE
:104D4000564D2F3F11651D0E4D1C121533352C0C81
:104D50004158113038484D534C654105090C101D20
:104D6000243034383D4851545D631A4D14264809A7
:104D70000C1D353A50382D1C4A111F0414243D6770
:104D80001321173C2F392E3C5A244E3804524D3AE9
:104D90001149415130384E066505080C11181D2483
:104DA0002C3039494C530C3B3451084C110C242CF9
:104DB0003039495458632D0830153D485F513765E7
:104DC0001D5D09100C24354B3152114124313751EE
:104DD0001E3E4D240C15525614070B3C163A394210
:104DE000563E304A3C3048161114343F3E3C2C04A9
:104DF000080C1014181C243034384044484C5058C7
:104E00005C60660415416109381D24303C49545EDC
:104E1000303856143E4952482417514C1D15090C80
:104E20003034383C4148545F1523115D16152D115F
:104E3000332D143E24174D151E161552410C1061CA
:104E40000414181C303949516A1115531141510C81
:104E5000353A1C1527115D1651116561410C5D54E1
:104E6000241D3034384C5A3C651650110C303438FF
:104E7000484C611E3E04142024303C4854661550B2
:104E8000300C24661524650A3D2623653D4109172B
:104E9000191139371B3651311341512D111B3C1655
:104EA000061468375111651D410E26314941115ACA
:104EB00064041420243C56321A0915533541480E17
:104EC0005853514D16380B3E410B1651313D1B4D79
:104ED0003D1232241651114E4A512D314B513E4E46
:104EE0004D5D3904305341344D0A5D15611107425F
:104EF000111D040C1518243038484C515A04080C64
:104F000010181C202434383C40485054585C6032FF
:104F10004D511A38531D48580C10283034393C4034
:104F20004D51545C6824172D1E154D064D16394AF7
:104F3000154D4311192D3324484C511C303B531946
:104F40003331351B252C1C34610C111430383D4194
:104F5000484C51545E4D3E4D243F4D1E514E394BF1
:104F6000215615110E5D1D080C11051530393C41F7
:104F7000495333410C1C3A152D1F65240E56561DFE
:104F8000350C093A091D3B51334D3149512F4E0C17
:104F9000581C494C5315124E0414243C5633041427
:104FA000202430383C4854663026390E262D564D84
:104FB00065310A214F141E1526511133512D1D0E36
:104FC00026144E1C511348162E15215126504C08FC
:104FD0000C1D3034384A4D65143E491137241748AA
:104FE00033323D562E4E411C0C38363016241624D2
:104FF0003E4D512415651E392D1135414D4B316102
:1050000051351C090C1438432814303E02000000AE
:105010000017000300031F0A1F161F0A1904130AB2
:1050200015120003000E1B11111B0E0A040A040EB8
:10503000040018000404040010001804031F111FCA
:10504000121F1019151215150A03041F17150D1E2E
:10505000151D0119071F151F07150F000A00001A5B
:1050600000040A110A0A0A110A040115021F1F1F6F
:105070001E051E1F151A0E11111F110E1F15111FCF
:1050800005010E111D1F041F111F1109111F1F04FF
:105090001B1F10101F031F1F011E0E110E1F0502E4
:1050A0000E19161F051A16150D011F010F101F07E7
:1050B00018071F181F1B041B031C031915130000DE
:1050C0000000007E0909097E7F494949363E414179
:1050D00041227F4141221C7F494949417F090909F9
:1050E000013E4141493A7F0808087F00417F410065
:1050F000304041413F7F08041A617F404040407F7B
:10510000020C027F7F0204087F3E4141413E7F093D
:105110000909063E4151215E7F0919294626494960
:10512000493201017F01013F4040403F0F30403094
:105130000F3F4038403F63140814630304780403AE
:105140006151494543D5F08D14A1C881CFD9F1AF44
:105150002000080B00020202010009040000010205
:1051600002000005240010010524010101042402AD
:10517000060524060001070581031000400904010B
:1051800000020A0000000705020240000007058334
:10519000024000000403090412010002EF02014072
:1051A0004123368000010102030141726475696E7A
:1051B0006F204C4C430041726475626F790014316A
:1051C00011241FBECFEFDAE0DEBFCDBF11E0A0E0BB
:1051D000B1E0E2EBFDE602C005900D92A03EB10702
:1051E000D9F727E0A0EEB1E001C01D92A93BB207BC
:1051F000E1F718E2C0EED8E204C02197FE010E9458
:10520000C136CF3DD107C9F70E9472310C94D73611
:105210000C940000CF93DF93A62FB0E093E0B595F8
:10522000A7959A95E1F7B695BA2FAA27B795A795AE
:10523000A20FB11DA80FB11DA65FBD4F6770215011
:1052400011972F3FA9F0FA01E20FF11DE491F0E070
:10525000062E02C0EE0FFF1F0A94E2F78C918E2BF0
:105260008C93ED01C058DF4F88818F2B8883E7CF67
:10527000DF91CF91089580389105ACF460347105C9
:1052800094F490E121E061FD24E060FD220F62FDD5
:105290002295687F969FD0011124A80FA65FBD4F6D
:1052A0008C91822B8C930895EF92FF920F931F9312
:1052B000CF93C42FE62EF12C082F10E0C15038F008
:1052C000B701C8018C0F911D0E943B29F7CFCF91E8
:1052D0001F910F91FF90EF90089590E0EAE0F2E0C7
:1052E00091119FEF8FEF91939193919391938150AF
:1052F000D0F708959091B407982329F49091B307BB
:10530000982381E009F480E00895FC01809109026E
:10531000882311F13FB7F89482E08093E90020914F
:10532000F200822F90E01816190614F481E090E044
:10533000882339F0289844E6409308024091F10010
:105340004083222339F02091F200211103C02BE683
:105350002093E8003FBF08958FEF9FEF08952FB788
:10536000F89483E08093E9009091E800892F80729F
:1053700095FF04C09091F20080E4891B2FBF08952F
:105380008091000281110DC082E08093FC0184E0D5
:105390008093FD011092FF011092FE0181E0809345
:1053A00000028CEF91E00895CF93DF931F92CDB769
:1053B000DEB76983DC01ED91FC910280F381E02D81
:1053C00041E050E0BE016F5F7F4F09950F90DF9184
:1053D000CF91089583E08093E9008091F2008823C3
:1053E00019F08AE38093E80008950E94AF2990E0C5
:1053F0000895CF93DF931F92CDB7DEB7FC0184856C
:10540000958597FD08C02FEF3FEF358724870F90D4
:10541000DF91CF910895CE0101960E9485290197D1
:1054200019F4898190E0F3CF8FEF9FEFF0CF0F93C6
:105430001F93CF93DF931F92CDB7DEB78C01FC0192
:105440008485958597FF0BC0CE0101960E94852922
:10545000019771F4898190E0F80195878487F801BC
:10546000848595850F90DF91CF911F910F910895BD
:105470008FEF9FEFF1CFFC018485958597FD0BC0E1
:105480009FB7F89482E08093E9008091F2009FBF7B
:1054900090E0019608959FB7F89482E08093E90028
:1054A0008091F2009FBF90E008954091F6015091E5
:1054B000F7012091F4013091F50142175307B4F43C
:1054C0009091E8009570E1F39091E80092FD19C089
:1054D0008093F1008091F6019091F70101968F730E
:1054E0009927892B19F48EEF8093E8008091F601BB
:1054F0009091F70101969093F7018093F60181E076
:10550000089580E00895EF92FF920F931F93CF9339
:10551000DF93F82E192FE62E042F81E0860F880FD7
:105520000E94552A83E00E94552ACF2DD12FEC0EE0
:10553000FD2EF11CCE15DF05B9F007FF13C0FE01EB
:1055400084910E94552A182F80E00E94552A8123B9
:1055500021968111EFCFDF91CF911F910F91FF9095
:10556000EF9008958881EDCF81E0F5CFDF92EF9243
:10557000FF920F931F93CF93DF93D82E8A01EB01F5
:105580007B01E40EF51ECE15DF0559F0D7FE12C0E3
:10559000FE0184910E94552A21968111F4CF0FEFCC
:1055A0001FEFC801DF91CF911F910F91FF90EF90F6
:1055B000DF9008958881EECF0F931F93CF93DF93F1
:1055C0001F92CDB7DEB782E0898342E450E062E506
:1055D00071E580E80E94B62A0E94C029DC0112967B
:1055E0000D911C910115110589F0D801ED91FC91E7
:1055F0000280F381E02DBE016F5F7F4FC8010995E6
:1056000097FD04C0F80100851185ECCF89810F90CA
:10561000DF91CF911F910F910895615030F020914B
:10562000F100FC0120830196F8CF289884E680934E
:1056300008020895FC010E94B52B319728F06851AB
:105640007C4F8F4F9F4FF9CFAB01FC010E94B52BD0
:10565000641775078E079F07C8F3089585E090E0EB
:105660000C941A2B8F929F92AF92BF92CF92DF929F
:10567000EF92FF920F931F93CF93DF936C017B0107
:105680008A0180910B01882309F45AC08091090294
:10569000882309F455C08091FB0180FF05C08091EB
:1056A000E00082608093E000E801B12C8AEFA82E30
:1056B00093E0892E2AE3922E209711F4BB20C9F1A2
:1056C0000E94AF29811108C0AA94AA20C9F181E0E3
:1056D00090E00E941A2BF0CF8C171D0611F00CF0F1
:1056E0008C2F9FB7F8948092E9002091E80025FD67
:1056F00002C09FBFE1CF282F30E0C21BD30BF701C0
:10570000815020F041914093F100FACFE20EF31E58
:10571000BB2021F09092E800B12CEBCF8091E80003
:1057200085FDE7CF9092E800BB24B394209709F35E
:10573000F3CF5D9884E68093FA01101611063CF0D1
:1057400081E090E0F6019383828310E000E0C801DD
:10575000DF91CF911F910F91FF90EF90DF90CF904D
:10576000BF90AF909F908F900895ACEEB1E02FB7AF
:10577000F8947D918D919C9166B52FBFA89B05C033
:105780006F3F18F47F5F8F4F9F4F22E0660F771FA8
:10579000881F991F2A95D1F708950895CF93DF9315
:1057A00026E0CAE0D0E0E22FF0E0E052FE4FBE017A
:1057B0000E94AD36805D8083CB012150009799F720
:1057C000822F90E08F519E4FDF91CF910895FF92ED
:1057D0000F931F93CF93DF93162FF42EE9010B5FE6
:1057E0004991442371F04F7185E04802A0011124D2
:1057F00042545F4A25E06F2D812F0E940A29100F25
:10580000EFCFDF91CF911F910F91FF9008950F93EC
:105810001F93CF93DF93C62FD42F8901F8014191B5
:105820008F01442371F04052F3E04F02A001112494
:10583000435F5F4A23E06D2F8C2F0E940A29CC5FC3
:10584000EDCFDF91CF911F910F910895FF920F93AC
:105850001F93CF93DF93EC0160E2F62E06E0E09118
:10586000AB07F0E0EE0FFF1FE35DFE4F0190F0810C
:10587000E02DEC0FFD1F14919091AC07E92FF0E0A3
:10588000EA56F84F812F85958595805C808310FFBF
:1058900024C08091A607813009F06CC09530E9F4EE
:1058A0008091A7079091A807A091A907B091AA0796
:1058B0000197A109B1098093A7079093A807A09326
:1058C000A907B093AA07892B8A2B8B2B31F466E9A1
:1058D00077E08EE997E00E94D036A091AB07B0E068
:1058E000AA0FBB1FA95DBE4FCE01969587959695D1
:1058F0008795089FF001099FF00D11248D919C91CF
:105900008E0F9F1FFE01E370FF27E330F10509F0C2
:1059100048C0FC0131962491329634910596FC01E1
:105920008491E22FE295EF70307FE32BF0E18F9FBF
:10593000C001112488279F708E2B009761F0209161
:10594000AC072F5F2093AC070E94262C8091AC07F8
:1059500081508093AC07219611FF81CFE091AC0775
:10596000F0E0EA56F84F1082DF91CF911F910F912E
:10597000FF9008956EE977E08AE096E00E94D036C5
:10598000A6E9B7E09D919923A1F0EAE0F6E09F0136
:105990008191882309F4A1CF9813F9CFF901F082FE
:1059A000F1CFEE0FFF1FE80FF91F859194919F70C3
:1059B000C4CF8091950791E0980F9093950728E0C8
:1059C000829FC001112466E977E08B56994F83CFFF
:1059D0008093A607E6E9F7E088E0DF011D928A954B
:1059E000E9F7109295078091AD07882391F10E9405
:1059F000BC3527EB33E040E050E00E942A366F5F71
:105A00007F4F8F4F9F4F6093A7077093A807809396
:105A1000A9079093AA071092AB071092AC0784EDE8
:105A200095E00E94262C8091AD07811119C081E07C
:105A30008093AB071092AC0785EF95E00E94262C6F
:105A400082E08093AB071092AC078FE493E00C9454
:105A5000262C0E94BC352AE637E040E050E0CDCF4E
:105A60000895CF92DF92EF92FF92CF93DF93D0E130
:105A7000C0E086E0C82ED12CE12CF12C0E94BC3570
:105A8000A70196010E942A36EC2FF0E0E558F94F65
:105A90008081A62FB0E0A558B94F9C9190838C933C
:105AA000D150C62F59F7DF91CF91FF90EF90DF9043
:105AB000CF900895DF92EF92FF920F931F93CF93B1
:105AC000DF9300D000D0CDB7DEB780E091E00E9438
:105AD0001436898381E091E00E9414368A8382E043
