:100000000C9482100C94AA100C94AA100C94AA10B0
:100010000C94AA100C94AA100C94AA100C94AA1078
:100020000C94AA100C94AA100C945F200C94CE206F
:100030000C94AA100C94AA100C94AA100C94AA1058
:100040000C94AA100C94AA100C94AA100C94AA1048
:100050000C94AA100C94AA100C94AA100C94BF2211
:100060000C94AA100C94AA100C94AA100C94AA1028
:100070000C94AA100C94AA100C94AA100C94AA1018
:100080000C94AA100C94AA100C94AA100C94AA1008
:100090000C94AA100C94AA100C94AA100C94AA10F8
:1000A0000C94AA100C9499260C94AA1010100020FD
:1000B000D020C070587C34BC2838B02040000000EC
:1000C0007D0242447530007864510E1C000000002F
:1000D0000070888000A818B8C8E020000000000068
:1000E0000007080041691D0A376E1C3000008000BF
:1000F00040A05048B430C8D05020C00000000001DB
:1001000003060C09446C540A1B516E4F1C00128CE0
:100110002DD665D0258E676EC5D23A702800000FA7
:10012000068076FEC48F3DF06FC30700000000001C
:1001300000A090D878106070B8787830000000186F
:100140003C3C91CEDFDF2E01B7DBDCDE8C00000013
:10015000109A54A42E982EA4549A10000000285CE3
:100160005D542A54555555345A6061405020000062
:10017000B0286CC41206B7A884A0C00040000414C4
:100180009449E9241403095D391870000000440CF7
:10019000814E1CB8045A5A44589C0E418C24044089
:1001A0001EA0DFC09EA1ADA986D08E0013800014D2
:1001B000330A3FDEEB51B8B8B440201000002010E5
:1001C000A05008040E66F9FDCE672210385C0000CE
:1001D00080E05038783850E68F38C000C0E0C0600A
:1001E0004B106590A09065300B60CF030F1A000094
:1001F0000080C06020A0502868C8F830E0C0100817
:100200000D251408A99AC990B8EFDA5B391F804010
:1002100000C0A0408090E496772F9F8EC070013977
:100220004A06396D455D43273E03062C1800000041
:1002300008F400E01A24022102E1554A428000003D
:10024000067906045B405028011E5423030000A0D9
:10025000B0703CF2E5AD023805369005AA100001F9
:10026000403C4E7F1F7E3D72410002010000A040D5
:100270003810880428042880CC902840A000040B63
:1002800003406C050800015369420C0F1200008006
:100290004060100884049208784482400000000006
:1002A000010608102010204020464DD0A00040B08C
:1002B0000804A21244100A020824480000000205A3
:1002C0001828402145122A782A1400000000000056
:1002D000000080C0601014F8621CFC380000020CA2
:1002E000121C16090000070D080C06030102C0A02D
:1002F00000F04A2A3385D1DA6C601EFE0CF000153E
:100300000E0814A22796608D06976EC4408380D095
:10031000B07060D8CC96B696CCD860B0B0900100E2
:100320000100041004A9BD6D280A0000010140204D
:10033000D030ACDC986038DE1EEC18F0000003C151
:1003400034CE3F83BD7E7C089061000700000080B2
:1003500060C060A4AE5A22F03CAE2A0A8A020105AF
:100360004320436A3615190C475A5E3C0807008043
:10037000C0E0405090B064485628A4C0E010060287
:1003800005830041563A0B060300000100010202FA
:1003900086D6DCE8602C262A2A6BEBD20501000009
:1003A0000307074F8C9C98F66502010000003C385B
:1003B000000000000080F8FE0FE3FB1B0B0B8BFB23
:1003C000F3F7F6F6F60606ECECECECECECECECEC09
:1003D000ECECECECECEEE6F6F6F6F7F3FBFBCBCB55
:1003E000FBE30FFEF8801E332121339E00000080C6
:1003F000F8FF0FE0F8F9F9F9F9F9F9F9F1F3F3F386
:10040000F3F0F0FFFFFFFFFFFFFFFFFFFFFFFFFF26
:10041000FFFFFFFFFFFFFFFFFFFFFFFF7F7FFEE00C
:100420000FFFF880060600000000000F3FF0C6072F
:100430000404070707070707070707070707FFFF62
:10044000FFFFFFFFFFFFFFFFFFFFFFFFFFFF0707AC
:10045000070707078787070726860707C6F03F1F96
:1004600000808000000000000000030784C4E4E472
:10047000E4E4E4E4E4E4C49C000FE7E7E7E7E7E74B
:10048000E7E7E7E7C7870F1F0FC7E7E0ECE4E4E41F
:10049000E5E5E4C4040404070300C040C3031100FD
:1004A0000000000000000000FFFFFFFFFF393939A6
:1004B000FFFFFF0FE0E0EFEF0FFFFF183879FFFFBE
:1004C000F703E0E0EFEF0FFFF9F0F0FCFDFDFD0DAD
:1004D000ECE0E0E00000012101000000000080C02D
:1004E000602060C080000000000C0C007EFE803C9C
:1004F0003E1C1C1C1C1C0C0C0E0C0C0C0C0E1E1C94
:100500001C1C1C3C3E80FE7E00000000C0E0E0C0E1
:1005100000000000030300000E1B3166C680D0609F
:10052000311B0E00003828380001471E38202020DB
:1005300020301010D0D01010901030202020203803
:100540001E07010000060600000101000000000077
:100550000000000048454C5020504C415920494E65
:10056000464F20434F4E46004040FFFFFF0707E73E
:10057000E7676767676767E7E70707FFFF7F7F67EB
:10058000671F1F9F9F0707878767670707FFFFFF93
:10059000FF878707077F7FFFFF0707E7E767676733
:1005A000676767E7E70707FFFFFFFFFFFF00007FC1
:1005B0007F6060606060607F7F0000FFFF7E7E98EC
:1005C000986060F9F97E7E9F9F181886866767E7B6
:1005D000E7070780801818FFFF00007F7F606060DA
:1005E0006060607F7F0000FFFFFFFFFFFF86868661
:1005F0008686861E1E666686866666676700007942
:100600007980808787F8F8E1E1FEFEE1E1808001F2
:1006100001F8F8E7E7000007070606FEFE7E7E9E6B
:100620009E66667E7E1E1EFFFFFFFFFFFF07071F01
:100630001F9999FEFE060661616666000080801EB5
:100640001E7F7F19190707E1E1F9F9F9F98787009A
:10065000001F1FE7E7E0E086860606E7E7FEFE816B
:10066000819E9E60600606FFFFFFFFFFFF7E7E808B
:100670008081818181F8F81E1E6666606099999874
:10068000989E9E8686F8F87979E7E7F9F91919E0D6
:10069000E0FEFEFFFF0101070786861F1FF9F979BB
:1006A000799F9F60600606FFFFFFFFFFFF66667988
:1006B000797F7F676761617E7E6666F8F81F1F99A4
:1006C000996161191907079E9E7F7FE7E780808106
:1006D0008119197F7F0606E6E66767E6E607077871
:1006E000789F9F18181E1EFFFFFFFFFFFF0000FEF0
:1006F000FE060606060606FEFE0000FFFF6060819D
:100700008166668686F8F879798080F9F98787E1CD
:10071000E1E6E6FEFE60608787E6E6676700006662
:1007200066FFFF98981E1EFFFFFFFFFFFFE0E0E758
:10073000E7E6E6E6E6E6E6E7E7E0E0FFFFE0E0E73B
:10074000E7FEFEF9F9E7E7FEFEFFFFE1E1E1E1E1A7
:10075000E1F9F9E1E1E0E0E7E7E1E1E6E6E0E0E642
:10076000E6FFFFE1E1E6E6FFFFFF323031372054DC
:10077000524F444F5353202D204A4F335249005378
:100780004F554E4420204F464620204F4E00030434
:1007900012FF030412FF030412FF030412FF0305F8
:1007A00013040305130403051304030614020306CC
:1007B0001402030715FF030816FF030917FF0004BF
:1007C0000000000400000004000000040000000518
:1007D00001050005010500050105000602FF0006F0
:1007E00002FF000703FF000804FF000905FF0104E2
:1007F00006FF010406FF010406FF010406FF0105D0
:1008000007040105070401050704010608030106A2
:100810000803010709FF01080AFF01090BFF020491
:100820000C0102040C0102040C0102040C0102057B
:100830000D0402050D0402050D0402060EFF02065A
:100840000EFF02070FFF020810FF020911FF202010
:10085000000000008080000000008080E0E0F8F8E8
:100860009898F8F86060E0E08080000000000000E8
:1008700000000606F9F9060678781F1F99991F1FD0
:100880000707676706068787676706061818000068
:1008900000000000F9F906060606181899998080EC
:1008A0000000E0E0181881817E7EF8F8000000006A
:1008B000000000001F1F0000181818181F1F07074E
:1008C00000001F1F1E1E191900000101000000007A
:1008D000000000000000C0C03030000000003030D8
:1008E000F0F0F0F0303000000000000000000000E8
:1008F000000000000000CFCF30303030C0C0F3F334
:10090000C0C03333FCFC3F3F030300000000000085
:100910000000000000000F0F3030000000003030F9
:10092000FCFC3333CFCF3F3FFCFCC0C000000000D5
:100930000000000000000000000000000C0C0F0F81
:100940000000000003030F0F00000303000000007D
:100950000000000000000000008080606098988027
:100960008060608080808000000000000000000047
:100970000060608080989866661919989867670784
:100980000778787979999986867878808000000050
:10099000000000010107071E1E78786161181878B1
:1009A0007898986666E7E781817E7E7F7FF8F80019
:1009B0000000000000000000000000000018181EE9
:1009C0001E19190000010119191E1E181801010035
:1009D000000C0CF0F0F3F33C3C333300003333FCF9
:1009E000FC3F3FFCFC33330C0CCCCC0000C0C000FF
:1009F000000303C0C00C0CF3F33C3CF3F30C0CC03D
:100A0000C03C3C3C3CF0F0F3F30F0F3F3F0C0C00BC
:100A1000000000FFFF3C3C00003C3CFCFC3030FF91
:100A2000FFF3F30000FFFF0F0F3F3F000000000047
:100A300000000000000000C0C03F3FFFFFF0F0C01A
:100A4000C00F0FFFFF3C3CF0F00000000000000072
:100A5000000000000000808060607878F8F8606036
:100A60008080E0E0F8F8F8F8F8F8E0E00000000036
:100A7000000000000000191978789E9EE7E7E0E08A
:100A800087876767F9F9E7E70707818100000000BA
:100A900000007878FEFEFEFE60601F1F7F7F7F7F74
:100AA0009F9F0000E7E779797E7E7F7F1E1E000012
:100AB000000000000101010118181E1E1E1E1E1E4E
:100AC0000101000019191E1E1E1E1E1E181800000E
:100AD000000000000000CCCC30303030FCFCC0C046
:100AE000FCFC30303030CCCC0000000000000000B6
:100AF000000000000303C3C33333CCCC0C0CC3C3CE
:100B00000C0CCCCC3333C3C3030300000000000043
:100B1000C0C0F0F0F3F33030CCCC3030333333336B
:100B200033333030CCCC0000030300000000000061
:100B30000C0C3333333333330C0C33333333333321
:100B400033330F0F33333C3C3C3C303033330C0CED
:100B500000000000000000C0C0F0F030300C0C3C81
:100B60003C3F3FC0C03030000000000000000000EB
:100B70000000000000CFCF0C0C3C3CF0F003030061
:100B800000CFCFCCCCC0C0CCCCF0F00000303000D7
:100B900000303030303030C3C3C3C3303030300F5A
:100BA0000FC3C3F3F3C3C3C0C000000000000000C4
:100BB0000000000303C3C33030FCFC0C0C03030033
:100BC00000000033330F0F03033F3F00000000001D
:100BD0003030F0F00303FCFCF0F0C0C03030CCCC7F
:100BE000CCCC3030C0C0F0F0FCFC0303F0F030306F
:100BF00030300000C0C030300303CFCF00003333AB
:100C0000333330303333C3C300003030C0C00C0C3A
:100C100030300000FCFC0000FFFF0000FCFC030380
:100C2000F3F3C3C33C3C0000FCFC00000F0F0000CA
:100C3000000030300303CCCCF3F3F0F0C3C3CCCCD2
:100C4000CCCCCCCCC0C0F3F3C0C000000303C0C008
:100C5000000030300F0FCCCCFFFFFCFCCFCF0303E4
:100C6000C0C0C0C030300000000000000000000024
:100C7000000003030F0F00000F0FF3F3FCFC3333EE
:100C8000CFCFCFCFCFCF30300C0C0303000000000C
:100C90000000000000000000C0C03030FCFC3C3C04
:100CA000C3C3F3F3FCFC3F3F0C0C0000C0C0F0F0EA
:100CB0000C0C0303CCCC33330000000000003C3CA0
:100CC000FFFFFFFFF0F03C3C0C0C03030F0F33332E
:100CD00000000000000000000000C0C0C0C0C0C094
:100CE00000003C3CFFFFC0C000000000000000000E
:100CF00000000000C0C0FCFC33330F0F3F3F0F0F5C
:100D00003333FCFCC0C00F0FF0F00000F0F0FCFC2F
:100D100000000000CFCF00003333000000000000CF
:100D200033330000CFCF0000FFFF0F0FFFFFCCCC0D
:100D3000F0F03C3C303003033C3CC3C3CCCCC3C3D9
:100D40003C3C0F0F00003C3CF0F0000000000303AF
:100D50000000000000000000000080808080808093
:100D60006060989898981818F8F8E0E08080000083
:100D700000000000606078781E1E07076161999985
:100D8000666601010707FEFE9F9FE1E17F7FFEFE91
:100D9000606018181E1E86866666181898987979FD
:100DA00018186060F8F89F9F79797979F8F87F7F53
:100DB00000000000000001010000000019191818CF
:100DC0001E1E181819191F1F1E1E060601010000FD
:100DD0000000000000000000000000000000000013
:100DE000606078787E7EFEFEFEFEF8F8000000006F
:100DF000808060600000E0E0989860608080868677
:100E0000F8F886867E7E191987878181E0E07E7EEC
:100E100007078686989879798787E6E66767E7E720
:100E20001F1F7F7FF8F81E1E7979E1E181810000A4
:100E300000001F1F616100001F1F797960606767F4
:100E4000606018181F1F0000000019190707000034
:100E500000008080606000000000989860601818B2
:100E6000060618180606666698981818000000000E
:100E700000000101FEFE0000F8F807071818000046
:100E800018180000F8F866666161606080800000F4
:100E9000000078788787787861619E9E0000000066
:100EA00080800606F9F960601E1E1E1E010100000A
:100EB000000000007F7F00000000676760606666DA
:100EC00019190000070766661818000000000000E6
:100ED00000000000000000E0E018186666E6E61872
:100EE0001880806666787800006666989800000032
:100EF0000098989E9E7E7E1F1FFEFEF8F89999002E
:100F0000001F1F00001E1E8686000099990606001D
:100F10000007070101E0E0F8F8FFFFFFFFF9F9E63D
:100F2000E61818060600001919060601010000005F
:100F300000000060601F1F61617F7F07077F7F1FC8
:100F40001F7E7E60600000000000000000000000C6
:100F50000000000000E0E080806060181860601809
:100F600018606000007878808060600000000000F9
:100F70000066669898878701016060808006060099
:100F8000008686E0E0F8F8616106069898666600DB
:100F90000018186767070700007878191960600063
:100FA00000010187876161060678787F7F86860069
:100FB0000000000000000018181E1E0000000000C5
:100FC00000000019191E1E18180000000001010081
:100FD00000000000000000008080606018181818F1
:100FE00086866060E0E01818060600000000000039
:100FF0000000606098981E1E010100006060000003
:10100000616100001F1F1818E0E0181800000000C0
:101010000000000001011E1E6060808000008080D2
:101020000000000000001E1E797980800000000092
:1010300000000000000000000000010106060101A0
:10104000060618180606181818187979666600003A
:1010500000000000000000C0C030300C0C0C0C3050
:10106000300000CCCC0C0CC0C03030C0C000000040
:101070000000003030CFCF00000000CCCC030330A4
:101080003003030000000000000C0C3030000000B2
:101090000000000C0C3333C0C0C0C0000003033399
:1010A000330C0CCCCCC0C0CCCC30300000000000E5
:1010B0000000000000000003030C0C30300C0C306A
:1010C0003003030C0C3F3F0C0C0303000000000036
:1010D0000000000000000000000000000000000010
:1010E000C0C000003030C0C0C0C000000000000020
:1010F00000000000000000000000C0C0F0F00C0C78
:101100000C0CFFFFF0F00F0FFFFF3F3F000000004F
:101110003030C0C03030C0C0F3F30F0F000000000B
:10112000FCFCCFCF0000C0C0F3F33C3C0C0C3030D3
:10113000000003030C0C0F0F0C0C03030000000055
:10114000000003030303030300000000000000008D
:101150000000000000000000CCCCCCCC0F0F3333DB
:101160000303CCCCF0F00000FCFCFCFCF0F0000031
:10117000F0F0CCCC0000FFFF30300C0C0F0FC0C0E3
:10118000F3F3F3F33C3C3C3C0303FFFF0000FFFFA1
:1011900000003333FCFCC0C030300C0C3F3F3C3C03
:1011A0000000F3F33C3C3F3FFCFC303000000F0FED
:1011B00000000303000000000303CCCC0C0CC3C3ED
:1011C0003C3CC0C00000C3C33C3CF0F03030C0C069
:1011D00000008080808080800000E0E078789E9E23
:1011E0009E9E9E9E7878E0E00000808080808080D7
:1011F000E0E07979E7E71F1F1E1E79797878E1E151
:10120000E7E7E1E1787879791E1E6767E7E7E1E1D2
:1012100001010000010100001818808018186161A8
:10122000F9F979796060666600000000010101014A
:1012300000000000000000000000010100006666E0
:1012400067671E1E06060000000000000000000088
:10125000000000000000808080807878F8F8E0E0EE
:101260000000E0E0FEFEFEFE7878E0E08080000016
:1012700000009898868679790707E6E6F9F9E1E1B2
:101280001E1E070779790101FEFE0101FFFF000024
:1012900000000707010198987E7EFFFF0707F9F914
:1012A000FEFEF8F860608080010100001F1F000052
:1012B00000000000787807077878070760606767A4
:1012C0001F1F1F1F000061611E1E000000000000A4
:1012D000000000000000000000003030FCFCCCCC1E
:1012E0000C0C0000F0F0FCFCCCCCCCCCCCCC0C0C2E
:1012F0000000C0C03C3CF0F03C3CCCCCCCCC333308
:101300000C0CFFFF0F0FCCCC0C0C0000C0C0000079
:10131000030333330F0F00000F0FCCCC3C3C3333AF
:10132000C3C3F0F03F3FCCCCFCFCF0F0C0C03F3F6B
:101330000000000030300C0C30303C3C0F0F030339
:10134000030300003030333333330F0F000000004D
:10135000000000000000000000008080808080808D
:10136000181860609E9E6060181800000000808061
:1013700000006060F8F8FEFE1818999961616767CF
:101380009E9E1818999906066666F8F87E7E8181F9
:101390001E1E060619190707000001019E9EE6E6BB
:1013A00067671E1E07070000000001010000010121
:1013B00000000000000060600000181819190707FD
:1013C000000000000000000000000000000000001D
:1013D0000C0C0C0C3C3C3C3CF0F0C0C00000F0F0AD
:1013E0003C3CCCCCCCCCCFCFCFCF0C0C3333030395
:1013F00000000000C0C0F3F3F3F3FCFC3C3C0C0C19
:101400000C0C0C0C0C0C3C3CFCFCF3F3000000003E
:10141000000000000F0F3F3F3F3FFFFFF0F0F0F0F4
:10142000C0C03C3C33330C0C030300000000000040
:10143000000000000000000000003030C0C0C3C346
:10144000C3C3FFFF3C3C00000000000000000000A0
:10145000080800302826FFFF2000004F8F8989F9F7
:101460007100007CFE8B89F970000001C1F13D0F15
:1014700003000076FF8989FF7600008E9F91D17F5F
:101480003E00080800FF00FF00FF00FF00FF00FF14
:1014900000FF00FF00F0F0F8F8FC0CFE06FF06FF6E
:1014A00003FF03FF03FF03FF07FF07FF0DFFFBFF22
:1014B000F3FF0BFF0BFF0BFF0BFF0BFF0BFF0BFFF4
:1014C0000BFF0BFF0BFFF3FFFBFF0DFF07FF07FFFA
:1014D00003FF03FF03FF03FF06FF06FF0CFEF8FCFC
:1014E000F0F800F000FFEFFFDFFF30FFE0FF60FFEC
:1014F000C0FFC0FFC0FFC0FF60FF60FF30FF1FFFE5
:101500000FFF00FF00FF0FFF1FFF30FF60FF60FFB6
:10151000C0FFC0FFC0FFC0FF60FFE0FF30FFDFFF84
:10152000EFFF00FF00FFFFFFFFFF00FFFFFF00FFD7
:1015300000FF00FF00FF00FF00FFFFFF00FFFFFFB5
:10154000FFFF00FF0102030303040506070000007C
:1015500008090A00000000000B0A00000000000B50
:101560000A00000000000B0A00000000000B50728F
:1015700065737320427574746F6E20746F20506CA5
:1015800061790050617373207468652041726475DD
:10159000626F79206F6E20746F003220506C617919
:1015A0006572204D6F6465003120506C6179657201
:1015B000204D6F64650053656C65637420506C61E9
:1015C000796572204D6F6465003E00416476616EFE
:1015D0006365640042617369630053656C6563749D
:1015E0002047616D65204D6F64650080100000002C
:1015F00000F0FE3E2626260680D0D84848F8F8009F
:1016000000F0F8180898F8F80000C8FE7E08088076
:10161000D0D84848F8F80000307868C8D898003822
:10162000F880C0F038080000000000F0FE7E62E2A2
:10163000F63E1C80D0D84848F8F80000F0F81808AA
:10164000D8F8300898F8F80000F0F8180818F8F8FA
:101650000080D0D84848F8F80000F0F8180898F84A
:10166000F80000F0F848487878000000000000001A
:101670000003030000000000010303020303030052
:101680000203030000030300000001030303000141
:1016900003030203030300010303020303011818F9
:1016A0000F0F030000000000000000030300000112
:1016B000030300010303020303030002030300000A
:1016C00003030000030300000E0F030303030300E2
:1016D000000103030203030300040D1B1B190F0F7A
:1016E0000000000103030303010000000030203C60
:1016F0002C3C1C2C2C2C1C0C2C081A00221C2A10F4
:1017000020100000100A0B000021211B0C201211D8
:101710000F1C193C0C290A3010300020030408006B
:101720000606000F09090F0F080A080105010F41FD
:101730007265617320576F6E20627900426F6F731C
:10174000746572004030B0F0F0F0DFAF5EAF56AFBE
:1017500056AF56AF7EBF50B050B05FAFD6EBD66B32
:10176000F6FFFEFF7EFF86878687FE7FFEDFEEDFC9
:10177000FEFF5EAF5EBF50B070F07FE4D9A0414085
:101780008100010001AAAAFFFFFFF7AA55AA55FA96
:1017900085868786FDFAFD7A7D7F7FEF77BB66EFD2
:1017A000FE0F0D0E0FFCFDFFFFFDFEFFFCFDFFC356
:1017B000C3C3C3FEFDFEFDFEF5EAF5AA55AB57FF18
:1017C000FCFB0C08080AB05050505F5F5D2A2D2EBC
:1017D00017171717172F5FB8B858B87FFFF7FBFD1B
:1017E000F3B7DFBFFFFFC3C3C3C37FBFBF5F2F2FED
:1017F0002F2F2F17172F505050502F2F2F2E1717D6
:101800000B0B0D030355AA604080003C42BF4343CD
:10181000C3C2FCF8E0C0C080808000010E19679F41
:101820007FFFE1E1E1E1FFFFE39C63800000002036
:10183000D0F808080808F0D0A0A0A04040A0A0D090
:10184000E8F80C0C0C0D43C3C342FD72EC906183AD
:10185000041B0B17172F505050506F18000000003A
:10186000010202050D133F212161617F7C00000010
:1018700000C33DC3FFFFF0F0F0F0FF7FBFD80ED9EB
:10188000BF7FFFFFFF5555FF7AF56AD56BD76EFD19
:101890007AFA0D0D0A0AF4F474E868E868F474F44E
:1018A0007AFE43C343C37EB448B0008000800EB1CB
:1018B0004DFE0F0F0F0FFFFF7FFF7EFC7AF661F6E4
:1018C0007AFC0E0F0F0D537461727420526F756E97
:1018D0006420210041747461636B730007081E1F4C
:1018E00033732F730C34794C02473C194C3E3978D2
:1018F000662410102858380402010822085D0822C6
:10190000080207060810606048756E74004D616734
:1019100069630053706561720053776F6F700042A6
:1019200075726E00546F786963000608040E040037
:10193000011F1E332D2D331E04040400011F040457
:1019400004001D17506F776572000808D8B655ED72
:10195000957B463D384C96BDBA944830307C980C07
:1019600002877C380105173F6FC70501456C656D1F
:10197000656E74000808000000000000000002030B
:1019800002020303030200000000000072FFFF7266
:1019900000000000000040C04040C0C0C040020144
:1019A0000101010101010302000000000000000329
:1019B0000200000000000000030200000000000020
:1019C00000030200000000000000030204040404FD
:1019D00004040403546865204361726420596F75E0
:1019E0002044726577005069636B20612043617207
:1019F0006420746F20506C617900506C617965646B
:101A000000544945202100506C61796572203200F4
:101A1000436F6D7075746572000A00000F0010004E
:101A2000110018001F00300045004700570000015A
:101A3000020340309D1941FFFC05FC0941F4FC06FE
:101A40009F9F9F4000FC07FC089F402041F0A1435E
:101A5000FE12B600A012A600A012A200A012A200C0
:101A6000A0FE0DA200A00DA200A40DA200A40DA234
:101A700000A00DA200A4FEDFFEFC04A1FC04A5FC56
:101A800004A5FC04A1FC04A5FE0DB7FEEB00506C00
:101A900061796572203100506C61796572001818A7
:101AA0000B010001002040E030180C06010000008E
:101AB0000000F0000100010B7E80B0800A59B1C027
:101AC000EA53EAC0208840AC20190701300000002A
:101AD000D08307830000C0EBEB14EBC100079B40F1
:101AE000311E0000000080D00B01C0F178B4C0E0CE
:101AF0003010C88080C0000080E4F838F1C0010BCD
:101B0000003EC70100170F182480C40DA1CC84012A
:101B10006D350000C03F0F00D0800081020000241E
:101B20002F1D2100100D151300000403000080D0AC
:101B300057494E5320210008000003000F001B00EE
:101B40001C00310034003D00000102039D189F403D
:101B50003041FF5004015403FC059F403041FF4ECB
:101B600006014018FC049F9F2AA300A32AA331B3B7
:101B700000A331A338A336A334A336ABFE06DFFEA1
:101B800006A200A006A200A0FE06A200A0FE191850
:101B900000FFFFFF00FF00FFB0FF6CFFAAFFDAFFAE
:101BA0002AFFF6FF8CFF7AFF00FF00FF70FF98FF0F
:101BB0002CFF7AFF34FF88FF70FF00FF00FFFFFF5C
:101BC00000FF00FFFFFF00FF00FFC1FFF1FF60FF0C
:101BD00031FF09FF1CFFF0FFE0FF00FF08FF28FFB7
:101BE000B8FFF9FF79FF39FF28FF08FF00FF00FF6A
:101BF000FFFF00FF00FF07FF08FF08FF08FF09FFC6
:101C00000AFF08FF08FF0AFF09FF08FF08FF08FF97
:101C100008FF08FF09FF09FF0AFF08FF08FF08FF88
:101C200008FF07FF00FF1708FE0101010101010184
:101C30000101010101010101010101010101FE593F
:101C400045532020204E4F0057616E7420746F2042
:101C500051756974203F00446F20596F752052659B
:101C6000616C6C7900000006011501260137014AFC
:101C7000015D01720188019F01B801D201EE010BE3
:101C8000022A024B026E029302BA02E40210033FE0
:101C9000037003A403DC03170455049704DD042731
:101CA000057505C80520067D06E0064907B8072D1D
:101CB00008A9082D09B9094D0AEA0A900B400CFA47
:101CC0000CC00D910E6F0F5A1053115B1272139AC4
:101CD00014D41520178018F519801B231DDE1EB49F
:101CE00020A622B524F0F89C8E8783878E9CF8F07E
:101CF0000000FEFF0303030303070EFCF80000FED1
:101D0000FF0303030303070EFCF80000FFFF0000BE
:101D10000000000000FFFF0000FEFF838383838339
:101D2000C7EE7C380000F8FC0E07030303070EFC27
:101D3000F800003F7FE0C08080C0E07F3FFFFF01F0
:101D4000010101010101FFFF0000FFFF0C0C0C0C61
:101D50001C3E77E3C100007FFFC0C0C0C0C0E07080
:101D60003F1F00001F3F70E0C0C0C0E0703F1F0079
:101D7000007FFFC1C1C1C1C1E3773E1C00001F3F0E
:101D800070E0C0C0C0E0703F1F000000000001FF15
:101D9000FF01000000D5F08D14A1C881CFD9F1AFAB
:101DA00020001B0000110012003200380049004AD8
:101DB0000067006B0071007A00810088008B00963C
:101DC00000A100AC00B500C200CF00DA00E700F4CB
:101DD0000001011001130123010001020340249EB0
:101DE0000405060741FC54029D18FD06099F9F400B
:101DF0004041FAFD0118FC0DFC0EFC0FFC10FC111B
:101E0000FC12FC13FC10FC14FC15FC16FC179FFCC8
:101E10001AFD0C199F40249E0405060741FC54023C
:101E20009D18FD05099F9F404041FAFC0DFC0EFCEA
:101E30000FFC10FC11FC12FC13FC10FC14FC15FC34
:101E400016FC179FFD0B199F4020A04000FEFC0AC6
:101E5000FC0BFC0AFC0CFE04AB04AB04ABFE02A3BF
:101E600002A302A3FE07ABFE28AB28AB28AB28A732
:101E70002AA3FE2FAB2FAB2FAB2FA72DA3FE2BAB8F
:101E80002BAB2BAB2BA72DA3FE26AB26AB26AB266D
:101E9000ABFE34AB34AB34AB34A332A32BA3FE2D57
:101EA000AB2DAB2DAB2DA32FA328A3FE2BAB2BABC0
:101EB0002BAB2BA72DA3FE34AB34AB34AB34A33701
:101EC000A339A3FE3BAB3BAB3BAB3BA33EA337A34A
:101ED000FE39AB39AB39AB39A337A332A3FE34ABF0
:101EE000402434AB401834AB400C34ABFE00CFFE82
:101EF000FC08AAFC08AAFC08AAFC08A6FC08A2FE8A
:101F0000CFFE5019B517EC169319A417D419202039
:101F1000521F1D1A080B00020202010009040000F2
:101F20000102020000052400100105240101010442
:101F3000240206052406000107058103100040095C
:101F4000040100020A000000070502024000000729
:101F50000583024000000403090412010002EF029D
:101F60000140412336800001010203014172647582
:101F7000696E6F204C4C430041726475626F79004A
:101F80000408000000001700000003000300140E06
:101F90001C0A161D170D120804121F151F18030026
:101FA00000000E110000110E000002050200040ED8
:101FB00004001800000004040400100000001008D1
:101FC00004021F11111F00121F101D1515171115E6
:101FD000151F0704041F1715151D1F15151D0101D9
:101FE000011F1F15151F1715151F000A0000001AE5
:101FF0000000040A11000A0A0A0A110A0400011565
:1020000005071F1117171F09091F1F15151B1F1182
:1020100011111F11110E1F1515111F0505011F119B
:10202000151D1F04041F00111F111010101F1F0485
:10203000041B1F1010101F06031F1F02041F1F1177
:10204000111F1F0505070705051F1F09091717158C
:10205000151D01011F011F10101F0F1008071F0C75
:10206000181F1B04041B07041C07191515131F1147
:10207000000002040810111F0000020102001010ED
:102080001010010200001A16160C1F1414080C126E
:1020900012120814141F0C1A1A16041E0501041635
:1020A000160E1F040418000D10000810100D1F0854
:1020B000081400111F101C06061C1E02021C0C1224
:1020C000120C1C0A0A04040A0A1C1E040204141638
:1020D0001A0A00021F020E10101E0E1008060E1023
:1020E000180E160808160608180E1A1A1616041BDB
:1020F0001100001F0000111B0400020201011F1F3C
:102100001F1F652711241FBECFEFDAE0DEBFCDBF52
:1021100011E0A0E0B1E0ECE8F6E502C005900D9218
:10212000A633B107D9F727E0A6E3B1E001C01D92BD
:10213000A536B207E1F710E1C2E8D0E104C021976B
:10214000FE010E94372BC138D107C9F70E948B27A7
:102150000C94442B0C94000090916007982329F470
:1021600090915F07982381E009F480E008956F92D1
:102170007F928F929F92AF92BF92CF92DF92EF9217
:10218000FF920F931F93CF93DF937C01B0E0A0E009
:10219000FA01802F90E0C590B590211511F49115AA
:1021A000B1F047E04B0D479546954695833009F4CD
:1021B000440F4C9DA001249FE00DF11D259FF00DC3
:1021C000109629F0949FA00DB11D959FB00D11247C
:1021D0008F3F21F4109682E009F081E0CC2DD0E011
:1021E000A7014C0F5D1F141615060CF06FC090E888
:1021F000E916F1040CF06AC09B012B0D311D12167B
:1022000013060CF063C0603471050CF05FC03097AA
:1022100009F45CC0362F37708B0177FF02C0095F6D
:102220001F4F93E0159507959A95E1F7202F77FFBB
:1022300004C0332311F02FEF200F002711270E19B0
:102240001F09F7FC02C010E000E090E89E1940383A
:1022500051050CF49C2D901B422F022E000C550BA7
:10226000A42EA0942F3F0CF0A12CDD24D3946B2D31
:10227000677009F4D12CB694B694B694DB0C4D0D6E
:10228000511D493051051CF048E0D42ED21ADA18FD
:102290002A0D40E82403B00111246E0D7F1D600F4C
:1022A000711FCA9C000D111D1124AF01400F511F59
:1022B000E32E032E000CFF08833009F410C1A8F4AC
:1022C000813009F4C3C0823009F471C0DF91CF912D
:1022D0001F910F91FF90EF90DF90CF90BF90AF9044
:1022E0009F908F907F906F9008958A3F91F1BD2CC1
:1022F000B20E8B3F59F72B1549F3DB01A75FBC4F9B
:1023000010E000E0091708F09BC0FA01E00FF11F90
:10231000E491F0E00E2C02C0EE0FFF1F0A94E2F7EA
:1023200027FD05C08C91DE2ED0948D218C93332314
:1023300061F0273054F46D0180E8C80ED11CAF2E37
:10234000A094F60180818A2180830F5F1F4F119630
:10235000D9CFBD2CB20E2B1509F4B8CFDB01A75F86
:10236000BC4F10E000E0091708F064C0FA01E00F6C
:10237000F11FE491F0E04F010E2C02C0880C991C73
:102380000A94E2F727FD03C08C9188298C933323AC
:1023900051F0273044F46D0180E8C80ED11CF601DD
:1023A0008081892980830F5F1F4F1196DCCFAFEFAB
:1023B000B0E0032E02C0AA0FBB1F0A94E2F7A0955B
:1023C000B0959B2E8D2C820E281509F47FCF8B01A2
:1023D000075F1C4FD12CC12CC91630F5FA01EC0D4A
:1023E000FD1DE491F0E03F010E2C02C0660C771C4D
:1023F0000A94E2F727FD05C0F80180818A23862927
:102400008083332359F027304CF45801F0E8AF0EA5
:10241000B11CF5018081892187298083FFEFCF1AC4
:10242000DF0A0F5F1F4FD8CF2F5F4C0F5D1F605823
:102430007F4FCACF2F5F4C0F5D1F60587F4F8BCFF0
:102440002F5F4C0F5D1F60587F4F55CFA00FB11FFE
:102450008D2D820F281709F439CF8B01075F1C4F90
:10246000D12CC12CC91698F5FD01EC0DFD1DA490D1
:10247000B12C0E2C02C0AA0CBB1C0A94E2F7A0944B
:10248000B094FA01EC0DFD1D8490912C0E2C02C02D
:10249000880C991C0A94E2F727FD08C0F8017080A7
:1024A000E72DEA217E2E7828F8017082332349F047
:1024B00027303CF4F801E058FF4FA080BA20B9283B
:1024C000B082FFEFCF1ADF0A0F5F1F4FCBCF2F5F16
:1024D0004C0F5D1FAC0FBD1F60587F4FBBCFE92E67
:1024E000F12CFA01E00FF11FDB01A75FBC4F00E800
:1024F00010E00E191F09CE19DF09BE01660F771F04
:1025000041E050E07A01032E01C0EE0C0A94EAF794
:10251000592F4D2D892E932ECF93DF93ED01EF96FA
:10252000EF962296A590C590992059F0AE9C500147
:10253000CE9C600127302CF4F880D094FD20FB283D
:10254000F99222233AF0FC90C094FC20FA28FD92E4
:102550000C94AB1211965A9529F74A9551F0582DC3
:1025600023951124E60FF11DA00FB11DC00FD11D41
:10257000D9CFDF91CF911124A9CEE9E0F3E0A0E01B
:10258000B8E000800EBC8111012C1197A0FDFDCF99
:102590000192B9F70DB40895FC0180912B028823B4
:1025A00011F13FB7F89482E08093E9002091F200A6
:1025B000822F90E01816190614F481E090E0882329
:1025C00039F0289844E640932A024091F100408374
:1025D000222339F02091F200211103C02BE6209331
:1025E000E8003FBF08958FEF9FEF08952FB7F8944D
:1025F00083E08093E9009091E800892F807295FF35
:1026000004C09091F20080E4891B2FBF089580914F
:10261000220281110DC082E080931E0284E080932B
:102620001F02109221021092200281E08093220268
:102630008EE192E00895CF93DF931F92CDB7DEB77E
:102640006983DC01ED91FC910280F381E02D41E092
:1026500050E0BE016F5F7F4F09950F90DF91CF91E2
:10266000089583E08093E9008091F200882319F0B7
:102670008AE38093E80008950E94F61290E008959E
:10268000CF93DF931F92CDB7DEB7FC01848595858C
:1026900097FD08C02FEF3FEF358724870F90DF911C
:1026A000CF910895CE0101960E94CC12019719F4A2
:1026B000898190E0F3CF8FEF9FEFF0CF0F931F93BF
:1026C000CF93DF931F92CDB7DEB78C01FC018485D9
:1026D000958597FF0BC0CE0101960E94CC12019701
:1026E00071F4898190E0F80195878487F8018485E9
:1026F00095850F90DF91CF911F910F9108958FEFE6
:102700009FEFF1CFFC018485958597FD0BC09FB7A6
:10271000F89482E08093E9008091F2009FBF90E0FE
:10272000019608959FB7F89482E08093E900809124
:10273000F2009FBF90E00895409118025091190255
:10274000209116023091170242175307B4F490916A
:10275000E8009570E1F39091E80092FD19C0809334
:10276000F100809118029091190201968F739927B8
:10277000892B19F48EEF8093E800809118029091D4
:1027800019020196909319028093180281E008952E
:1027900080E00895DF92EF92FF920F931F93CF9303
:1027A000DF93D82E8A01EB017B01E40EF51ECE15D6
:1027B000DF0559F0D7FE12C0FE0184910E949C13E0
:1027C00021968111F4CF0FEF1FEFC801DF91CF9158
:1027D0001F910F91FF90EF90DF9008958881EECFC9
:1027E0000F931F93CF93DF931F92CDB7DEB782E095
:1027F000898342E450E064E17FE180E80E94CA13EB
:102800000E940713DC0112960D911C910115110510
:1028100089F0D801ED91FC910280F381E02DBE0199
:102820006F5F7F4FC801099597FD04C0F8010085CF
:102830001185ECCF89810F90DF91CF911F910F917E
:102840000895615030F02091F100FC012083019641
:10285000F8CF289884E680932A0208950895FC0111
:102860000E94C614319728F068517C4F8F4F9F4FBC
:10287000F9CFAB01FC010E94C614641775078E07DF
:102880009F07C8F308958F929F92AF92BF92CF9205
:10289000DF92EF92FF920F931F93CF93DF936C0120
:1028A0007B018A0180911001882309F45AC080912C
:1028B0002B02882309F455C080911D0280FF05C0BA
:1028C0008091E00082608093E000E801B12C8AEF03
:1028D000A82E93E0892E2AE3922E209711F4BB2094
:1028E000C9F10E94F612811108C0AA94AA20C9F168
:1028F00081E090E00E942F14F0CF8C171D0611F09C
:102900000CF08C2F9FB7F8948092E9002091E8009A
:1029100025FD02C09FBFE1CF282F30E0C21BD30BA3
:10292000F701815020F041914093F100FACFE20E7F
:10293000F31EBB2021F09092E800B12CEBCF8091E8
:10294000E80085FDE7CF9092E800BB24B394209780
:1029500009F3F3CF5D9884E680931C0210161106EC
:102960003CF081E090E0F6019383828310E000E088
:10297000C801DF91CF911F910F91FF90EF90DF90F1
:10298000CF90BF90AF909F908F900895ADE0B2E050
:102990002FB7F8947D918D919C9166B52FBFA89B20
:1029A00005C06F3F18F47F5F8F4F9F4F22E0660F87
:1029B000771F881F991F2A95D1F7089590E0880FF7
:1029C000991FE0912E02F0912F02E80FF91F8591D7
:1029D000949120912C0230912D02820F931F089523
:1029E0000F930AEF0E94B7100F9108950F9302E022
:1029F0000E94B7100F9108952D9A08950C942F14EA
:102A00000E941C230895109208023E983F98089552
:102A10003E9A3F9A81E0809308020895FC019C0150
:102A20002B5F3F4F85E091919F3F09F48150E21762
:102A3000F307C9F70895AC01FC0120E081918F3FB5
:102A400021F02F5F2530D1F720E09091D401E92FBC
:102A5000092E000CFF0BEC55FE4F8081420F511DDB
:102A600027FD5A95FA0180839F5F9093D40190339C
:102A700019F491E09093D501089587FD15C094E075
:102A8000890290011124F901E257F84F6491F9018C
:102A9000E157F84F7491F901E057F84F8491F9012B
:102AA000EF56F84F9491089590E080E070E060E078
:102AB00008957F928F929F92AF92BF92CF92DF92B2
:102AC000EF92FF920F931F93CF93DF93C82FE62EC1
:102AD000842F122F0E943D15A62EC72E982ED92E78
:102AE000B09000020E2C000CFF080C2E000CDD0B29
:102AF00031E0B31219C081E09091FE019A1180E09B
:102B0000810F8F3F09F43EC0813021F08E3F61F488
:102B100023E001C020E04AE259E1B70167507109A2
:102B2000CE01C1960E94F614812C10E047E0742E6D
:102B3000812F90E0879C800D911D11248A9724F5A8
:102B4000173010F0839410E0812F90E0FC01879CF7
:102B5000E00DF11D1124EC5BFA4E249138E0839EC8
:102B6000B00111246E0D7F1D33E0880F991F3A9537
:102B7000E1F703E042E854E18C0F9D1F0E94B7107B
:102B80001F5FD6CF22E0C7CF2CEF2C0D40E554E1DC
:102B900087010C5F1F4FB801CE0104960E94F61406
:102BA0002A2D4AE459E1B801CE018C960E94F61410
:102BB000292D4EE458E0B701605F7F4FCE010C969F
:102BC0000E94F61481E0B81229C0D7FC27C0B701D3
:102BD000695F7F4F2D2D4CED58E1CE0144960E9448
:102BE000F614B701685F7F4FCE014D962CEF2D0D87
:102BF000223090F423E04AE259E1DF91CF911F9116
:102C00000F91FF90EF90DF90CF90BF90AF909F908B
:102C10008F907F900C94F61422E0EDCFDF91CF914E
:102C20001F910F91FF90EF90DF90CF90BF90AF90EA
:102C30009F908F907F9008959F92AF92BF92CF9276
:102C4000DF92EF92FF920F931F93CF93DF937C015C
:102C500004E010E0B12CCB2D0B2C000CDD0BC017C9
:102C6000D10724F56701CC0EDD1EF60180810E949C
:102C70003D15962EA72E2196CE0DDF1D88810E9430
:102C80003D1580910002813041F48091FE0189114F
:102C900001C0A394861301C07F5FA7162CF4F60130
:102CA0008081988190838883B394D5CF0150110996
:102CB00089F6DF91CF911F910F91FF90EF90DF90F8
:102CC000CF90BF90AF909F900895CF92DF92EF92F8
:102CD000FF920F931F93CF93DF9300D01F92CDB736
:102CE000DEB78EED91E00E941C168EED91E00E9401
:102CF0000E158983809302018091DD0181111BC033
:102D00008091DE01809302028FEF8093DE0180913B
:102D1000FF01813009F05EC088E0809312010F90BE
:102D20000F900F90DF91CF911F910F91FF90EF9037
:102D3000DF90CF900895809101020E943D15E62E0C
:102D4000D92E7B83F090000281E0F81207C08091B9
:102D5000FE018E1103C0872F8F5F8B838981815085
:102D60008A83082F880F110B8CEF8D0D8983C02E5D
:102D700007FD1CC0F801E252FE4F808187FD24C090
:102D80000E943D1581E0F8120DC08091FE0186136E
:102D900001C07F5FD7FC06C0E61621F08981823032
:102DA00088F472508B81871794F4CA828A81E82F45
:102DB000880FFF0BE252FE4F8081809302028FEF5B
:102DC0008083A5CF7150EECF8A8181508A830150D4
:102DD0001109CDCF8AE0A1CF20E048E655E070E0B0
:102DE00060E080E290E00E94F0148CE00E94AC1061
:102DF000882319F081E0809315020895EF92FF92E5
:102E00000F931F93CF93DF9350919F014091A001A7
:102E1000CFE4D1E0FE01F12CA0EFBFEF88E1E82E76
:102E200000E910E02081318187E08F15C8F1215041
:102E30003109203F8FEF38071CF03183208309C010
:102E400011830083448381E0840F6E2D0E94032B45
:102E5000492FF394359680E1F812E4CF50939F0107
:102E60004093A00120E04BEE55E165E170E090E079
:102E700080E00E94F0146A817B812C814CEA50E052
:102E8000888199810E94F014259681E0CF39D80776
:102E900091F7DF91CF911F910F91FF90EF900895DF
:102EA0002F5F3F4F2139310544F2B183A083548312
:102EB00081E0850F6E2D0E94032B592FCACFEF9210
:102EC000FF920F931F93CF93DF93D82F7A01C0E027
:102ED000062F10E0F701EC0FF11DC7FDFA952081D8
:102EE000222359F0205240E85FE1B8018D2F90E095
:102EF0000E94F014DB5FCF5FEDCFDF91CF911F9188
:102F00000F91FF90EF900895EF92FF920F931F9310
:102F1000CF93C82F7A01062F10E0F70124912223C6
:102F200069F0FFEFEF1AFF0A205240E85FE1B801B5
:102F30008C2F90E00E94F014CB5FEFCFCF911F91C8
:102F40000F91FF90EF9008950E94FE164AE657E019
:102F500066E28EE00E9484178CE00E94AC10882309
:102F600019F081E0809315020895EF92FF920F937C
:102F7000CF930E94FE1644E555E066E28EE00E9483
:102F80008417C09101012C2F2250330BC90129E174
:102F9000289F7001299FF00C112420E046E25CE19B
:102FA00064E270E0C7010C960E94F01403E020E098
:102FB0004EE85BE16CE270E0C7010B960E94B7102F
:102FC00080E40E94AC10882329F0C53018F4CF5F4C
:102FD000C093010180E20E94AC10882339F08091F7
:102FE0000101833018F081508093010184E00E9438
:102FF000AC10882321F08091010180931502CF91BC
:103000000F91FF90EF900895EF92FF921F93CF934F
:10301000DF93CDB7DEB728970FB6F894DEBF0FBEAB
:10302000CDBF182F7B016A30710554F420E140E8D0
:103030005FE170E060E0812F90E00E94F0141B5F80
:103040004AE0BE016F5F7F4FC7010E94552AAC0165
:1030500060E0812F0E945F1728960FB6F894DEBFBC
:103060000FBECDBFDF91CF911F91FF90EF900895DC
:103070008091030281111BC047E95AE160E00E9480
:10308000841740E15AE160E089E40E94841760916E
:103090000602062E000C770B8EE20E940418609147
:1030A0000502062E000C770B87E70C9404184EE8F7
:1030B0005AE160E080E00E94841747E05AE1E3CFE4
:1030C0000F931F93CF93DF93CDB7DEB728970FB63B
:1030D000F894DEBF0FBECDBF182F062FCA014AE0FD
:1030E000BE016F5F7F4F0E94552AAC01602F812F78
:1030F0000E945F1728960FB6F894DEBF0FBECDBFB3
:10310000DF91CF911F910F910895CF9343E855E13F
:1031100064E089E00E94841747E95AE162E18CE2A9
:103120000E9484174091E401042E000C550B4F5F60
:103130005F4F62E18FE40E946018C0E08091A201BD
:10314000C81774F420E1C202C001112421E04AE250
:1031500059E16CE270E084960E94F014CF5FEECFEC
:1031600084307CF49091A3019F5F903124F490937C
:10317000A301CF9108951092A3018F5F8093A201C4
:10318000F8CF4EE655E160E28EE00E9484178CE0B5
:103190000E94AC10882369F38091D501811104C08D
:1031A00082E080931201E5CF8091E401811102C099
:1031B00085E0F7CF8130E9F686E0F3CF1092A301E6
:1031C0001092A2018DE0809312010C948518EF9269
:1031D000FF920F931F93CF93DF931092720021E021
:1031E00030E030934E0120934D01E1E3F2E048EDF1
:1031F000DF011D924A95E9F740EF4093110149E143
:103200004093300241E752E050934C0140934B0110
:1032100030934801209347013093F9022093F8023C
:1032200022E42093C00021E02093C1002FEF2093DF
:10323000D10020E82093CF00EC012196FC0184917D
:10324000D0932F02C0932E0290E0880F991FC80FD1
:10325000D91FCE01049690932D0280932C0231E366
:10326000E32E32E0F32E10E000E0FE01E00FF11F4C
:1032700084910E94DE14D7018D939C930F5F1F4FA2
:10328000B6E3EB0EF11C0430110579F784E080936E
:103290007200DF91CF911F910F91FF90EF900895F1
:1032A000CF93DF93C091A101CF5FC093A10120E034
:1032B0004EEA53E064E070E082E290E00E94F01495
:1032C000C93720F181E08093150282EA9DE10E94D6
:1032D000E718EFE4F1E050E040E080E090E020E02B
:1032E0006EE270E0A2E0B0E0283098F451834083B1
:1032F000B383A28394839F5F2F5F4C5E5F4F3596AD
:10330000203191F79093A00180939F01DF91CF919D
:103310000895EA01C05AD109D183C08373836283BF
:1033200084838F5FE9CF86E080931502109272004C
:10333000E1E3F2E088EDDF011D928A95E9F780EF85
:103340008093110108958091FD018F5F8093FD01AD
:10335000893124F51092DD018FEF9FEF90930202E7
:10336000809301028093D6018093D7018091D5018B
:10337000811106C088ED91E00E941B158093D60153
:103380008091D501811106C08EED91E00E941B1540
:103390008093D70181E08093120108958CE080939F
:1033A00012011092040208950F93CF93DF930E94AD
:1033B000FE164FE757E066E28DE10E948417C09148
:1033C000080287E1C89FE001112420E046E25CE1A9
:1033D00064E270E0CE01CB960E94F01403E020E09E
:1033E0004EE85BE16CE270E0CE01CA960E94B71035
:1033F00080E40E94AC1081110E94081580E20E94B6
:10340000AC1081110E9403158CE00E94AC1088233F
:1034100081F0C091080282E090E00E948A2AC817D9
:1034200029F06C2F82E090E00E94922A81E0809344
:103430001502DF91CF910F910895EF92FF920F93B4
:103440001F93CF93DF9388E080931502E0911201E0
:10345000EF3008F0B1C00E2E000CFF0BEE5CF54E05
:103460000C94372B411A491A141B2A1CB91C0E1C28
:103470001C1CDE1B441D661D9B1DF41D691EF91ED0
:10348000011FDF91CF911F910F91FF90EF900C944E
:10349000A3190E9438188091000246EC58E181304F
:1034A00009F0B1C068E080E20E94841720E044E4A3
:1034B00057E160E170E090E080E00E94F6144CE398
:1034C00057E162E184E40E9484174CE659E16AE125
:1034D00084E40E9484172091FE014AE459E165E1E9
:1034E00070E088E790E00E94F6144FE257E168E24E
:1034F00084E40E94841780910302811164C047E92B
:103500005AE160E384E40E948417C09104012C2FE7
:103510004DE157E160E370E08BE790E00E94F0142A
:1035200040E15AE168E384E40E94841722E02C0F12
:103530004DE157E168E370E08BE790E00E94F01402
:1035400005EE11E0D0E0C0E0F80121918F0127FDE8
:1035500018C0FE01E351F94E8491FE01E251F94E8B
:103560006491220F90910401290F062E000C770B15
:10357000605F7F4F4DE157E1082E000C990B0E94D0
:10358000F0142296C033D105F9F60E94001587FF8A
:1035900003C08EE0809312018CE00E94AC1088235F
:1035A00059F080910302811133C08091D5018111BE
:1035B00000C182E080931201DF91CF911F910F91A2
:1035C000FF90EF9008954EE85AE160E384E40E9492
:1035D0008417C09104012C2F4DE157E160E370E0A6
:1035E00086E790E00E94F01447E05AE168E384E443
:1035F0000E94841722E02C0F4DE157E168E370E050
:1036000086E790E09BCF6DE180E20E948417BDCFFA
:103610008091FF018093E401DF91CF911F910F9181
:10362000FF90EF900C94DE1844ED59E160E086E1E4
:103630000E948417E091E4010E2E000CFF0BEA5269
:10364000FE4FC0818091000220E04C2F60E181306C
:1036500009F0D9C080E00E9459158C2F0E943D15B9
:10366000F62E072FC92F10E0D0E049E0E42E8D2F71
:1036700090E01E9D800D911D1124C69704F5D93050
:1036800010F01F5FD0E08D2F90E0FC011E9DE00D3B
:10369000F11D1124E256F64E2491F8E01F9FB0016F
:1036A0001124605F7F4F33E0880F991F3A95E1F74F
:1036B00044E759E1CD960E94F614DF5FD8CF4CE67F
:1036C00059E165E187E40E9484172F2D4AE459E10E
:1036D00063E170E083E790E00E94F61444E459E16E
:1036E0006DE187E40E948417402F000F550B8091F5
:1036F000FE016DE1F8126AC08DE60E94601820E0BC
:103700004AE259E16DE170E084E790E00E94F01434
:10371000C7FD3EC0C23009F46DC00CF05BC0CC23C5
:1037200009F465C04FE159E1C13009F45BC02C2FA9
:103730004CED58E164E270E088E690E00E94F014FD
:10374000C45023E0C23008F022E04AE259E165E2C9
:1037500070E081E790E00E94F01444ED58E16DE2E2
:1037600080E50E948417D0E0C0E01CE0FC1669F000
:10377000D19FC00111242C2F4AE459E164E370E089
:103780008F5A9F4F0E94F014DF5FCF5FC43071F7F4
:103790000E94001587FF03C08EE0809312018CE029
:1037A0000E94AC10882309F407CF80910302811195
:1037B0002EC08091FF01813009F086C1DF91CF9149
:1037C0001F910F91FF90EF900C94651685E70E9472
:1037D00060189ECFC430A1F084F048E059E1C530B4
:1037E00009F0A5CF65E28BE40E948417A0CF44E2E4
:1037F00059E1F8CF49E159E1F5CF43E159E1F2CF81
:103800004DE059E1EFCF84E20E945915C1CF80917C
:10381000DD01882309F489C189E0CCCE1092E3014F
:1038200088ED91E00E941C1688ED91E00E940E1533
:103830008093030183E0BECE1092E3018EED91E010
:103840000E941C168EED91E00E940E1580930201DD
:1038500084E0B0CE46EE59E160E081E10E94841739
:10386000D0E085E0E82EF12CC091E3011091030136
:10387000DC17CCF4ED2F0D2E000CFF0BE852FE4FA1
:103880009701211B310917FD33958D2F880F820F6A
:10389000880F880F880F20E0408168E18C5F0E94CC
:1038A0005915DF5FE1CFDFEFD10F85E090E07C01BC
:1038B000E11AF10817FDF394DC17BCF08D2F880F87
:1038C0008E0D880F880F880F8C5FED2F0D2E000C4A
:1038D000FF0BE852FE4F408120E068E1CD170CF06D
:1038E00060E10E945915D150E7CF0E94001587FF73
:1038F00003C08EE08093120180E40E94AC10882304
:1039000029F0C1171CF4CF5FC093E30180E20E944D
:10391000AC10882339F08091E30118161CF4815013
:103920008093E3018CE00E94AC10882309F444CE1C
:10393000E091E3010E2E000CFF0BE852FE4F808158
:10394000809301028FEF80838091FF0190910302A9
:10395000911109C0813011F48AE02CCE81E080936E
:10396000DD0187E027CE8130B9F381E08093DD016E
:1039700051CE46EE59E160E081E10E948417D0E02B
:1039800005E010E0C091E301DC17DCF4ED2F0D2E13
:10399000000CFF0BE252FE4F809103019801281B9F
:1039A000310987FD33958D2F880F820F880F880F7F
:1039B000880F20E0408168E18C5F0E945915DF5F2D
:1039C000E1CFF0900201DFEFDF0DEF2CEE0C05E010
:1039D00010E0DC1704F1ED2F0D2E000CFF0BE2526E
:1039E000FE4F4081809103019801281B310987FD1A
:1039F0003395C90182508E0D880F880F880F8C5F18
:103A000020E068E1CD170CF060E10E945915D1501B
:103A1000EA94EA94DECF0E94001587FF03C08EE08F
:103A20008093120180E40E94AC10882329F0CF1506
:103A30001CF4CF5FC093E30180E20E94AC108823A6
:103A400039F08091E30118161CF481508093E30152
:103A50008CE00E94AC10882309F4AECDE091E30124
:103A60000E2E000CFF0BE252FE4F8081809302026B
:103A70008FEF80838091FF01813009F06DCF8093BB
:103A8000DD011092E401C8CD40E15AE160E08AE135
:103A90000E9484174AEF59E160E088E40E9484178D
:103AA00020E04091020260E184E20E9459150E94E8
:103AB000001587FF03C08EE0809312018CE00E9406
:103AC000AC10882309F478CD85E074CDC1E08091F5
:103AD000E401813009F4C0E047E95AE160E08AE19D
:103AE0000E948417D0E0AE014F5F5F4F60E08DE32E
:103AF0000E9460184AEF59E160E088E40E94841750
:103B0000CF5FDD4F20E0488160E184E20E945915DB
:103B10000E94001587FF03C08EE0809312018CE0A5
:103B20000E94AC10882309F447CD8091E4018130D4
:103B300059F686E03FCD809101020E943D15162F77
:103B4000D92FC72F809102020E943D15872F209107
:103B500000022130C9F42091FE01121301C0CF5F91
:103B600097FD06C0161721F09450923008F5C25008
:103B7000621302C081E0870FD7FD06C0161721F03F
:103B8000D450D230B8F48250E091FD010E2E000CDA
:103B9000FF0BEC51FE4FC81318C08091FF0181113B
:103BA0000BC0809106028F5F8093060210820BC0CB
:103BB000C150DECF8150E8CF809105028F5F8093A6
:103BC000050281E080838BE0F5CC8C171CF4109209
:103BD000FF01E7CF91E09093FF01809105028F5F95
:103BE000809305029083EFCF809101020E943D15E2
:103BF000F62EC92F809102020E943D15062FD92F63
:103C00000E94381810910002113099F4C7FD0CC0C1
:103C1000F01679F0C450C23008F03EC1CEEFD7FFA5
:103C20000BC0D0E0CEEF0DC0D7FD03C0C0E0F01256
:103C300003C0D0E0C0E005C0D450D23008F047C087
:103C4000DEEF8091010287FD11C08091FF0181119B
:103C500006C040E35BE168E081E10E9484172D2FFC
:103C60004091010260E180E00E94591580910202BA
:103C700087FD11C08091FF01813031F440E35BE1A9
:103C800068E089E50E9484172C2F4091020260E1D0
:103C900088E40E9459150E94001587FF03C08EE03A
:103CA000809312018CE00E94AC10882309F484CC2C
:103CB000113051F40E94FD2924E030E040E050E052
:103CC0000E94A02A6093FE011092120175CCDFEFD2
:103CD000B8CF0E943818909106028091050289178A
:103CE000E4F580910402811107C087E39BE10E9403
:103CF000E71881E08093040240E35BE168E383E33B
:103D00000E94841720E04EE95AE16AE170E084E302
:103D100090E00E94F01480910302811119C047E9DC
:103D20005AE160E181E30E9484178CE00E94AC10AC
:103D3000882309F441CC81E08093150282EA9DE159
:103D4000DF91CF911F910F91FF90EF900C94E718A6
:103D50004EE85AE160E18CE2E6CF98178CF540E33B
:103D60005BE168E383E30E94841721E04EE95AE1B6
:103D70006AE170E084E390E00E94F014C0910402D4
:103D80008091030281110CC0C11107C089E19AE141
:103D90000E94E71881E08093040240E15AE1DACF03
:103DA00047E05AE160E18CE20E948417C111BDCF67
:103DB00087E39BE10E94E71881E080930402B5CF7E
:103DC00041E05AE160E186E30E94841720E04EE979
:103DD0005AE16AE170E08AE190E00E94F01421E08B
:103DE0004EE95AE16AE170E08EE490E00E94F0143E
:103DF0009CCFDF91CF911F910F91FF90EF900C948A
:103E0000851847E55CE168E080E20E94841748E499
:103E10005CE160E18DE10E9484174FE35CE16CE1BD
:103E20008CE20E94841710910702FF24F394C12FA3
:103E3000CF253AE1C39FE001112420E046E25CE196
:103E40006AE170E0CE0188960E94F01403E020E061
:103E50004EE85BE162E270E0CE0187960E94B71007
:103E60000E94001585FF03C0F0920702A5CB0E94B7
:103E7000001586FF03C0109207029ECB8CE00E94C3
:103E8000AC10882309F498CB80915907113009F0C0
:103E900091CB1093150252CFCFEFD7FFCDCED0E00C
:103EA000CFEFCFCECF92DF92EF92FF92CF93DF93FF
:103EB00020E04BEE55E164E070E090E080E00E948D
:103EC000F01446EB55E168E183E10E94841748EA6B
:103ED00055E164E280E20E9484174AE955E160E31B
:103EE00080E20E94841780E80E94AC108111109239
:103EF000030280E10E94AC10882319F081E08093D6
:103F000003028CE00E94AC10882309F487C048E1CA
:103F100050E06FEF7FEF85EE91E00E943D2B109215
:103F2000D401E4EAF1E080E3DF011D928A95E9F72C
:103F3000EF0180E081938F5F8033E1F780E3C82E4B
:103F4000D12CE12CF12C0E94FD29A70196010E94A1
:103F5000A02A8FEF8C0D861749F08FA5E62F660FEC
:103F6000FF0BEC55FE4F90819FA78083B1E0CB1AE9
:103F7000D108E108F108219781E0C816D104E104D5
:103F8000F10409F780910002813051F40E94FD296B
:103F900024E030E040E050E00E94A02A6093FE015F
:103FA0008FEF8093D6018093D7011092FD0110927C
:103FB000E3011092FF011092060210920502109286
:103FC000DD011092D50185E0809303018093020109
:103FD00045E050E06FEF7FEF88ED91E00E943D2BD0
:103FE00045E050E06FEF7FEF8EED91E00E943D2BBA
:103FF0008FEF9FEF9093020280930102C4E088ED5F
:1040000091E00E941B158EED91E00E941B15C1509E
:10401000B1F70E94A31988E0809315026091030212
:104020008CE0689F602D11246C5D49EC55E18AE1BC
:10403000DF91CF91FF90EF90DF90CF900C94841799
:1040400020E04BEE55E164E070E090E080E00E94FB
:10405000F0144AED55E168E188E10E94841744EDCF
:1040600055E164E280E20E9484174BEC55E160E385
:1040700080E20E94841780E80E94AC1081111092A7
:10408000000280E10E94AC10882319F081E0809347
:1040900000028CE00E94AC10882329F00E94521F7D
:1040A00087E080931502609100028CE0689F602D8C
:1040B00011246C5D49EC55E18AE10C9484171F9240
:1040C0000F920FB60F9211248F939F938091E1006E
:1040D0009091E100937F9093E10083FF0FC01092D5
:1040E000E90091E09093EB001092EC0092E3909342
:1040F000ED0010922B0298E09093F00082FF22C016
:1041000093E09093E9009091F200992319F09AE3DB
:104110009093E80090911C02992341F090911C0229
:10412000915090931C02911101C05D9A90912A02C6
:10413000992341F090912A02915090932A02911173
:1041400001C0289A84FF18C08091E2008E7E8160B1
:104150008093E2008091E1008F7E8093E100809166
:104160001D028E7E806180931D029F918F910F9022
:104170000FBE0F901F90189580FFF7CF8091E2003F
:104180008E7E80618093E2008091E1008E7E80933C
:10419000E10080911D028E7E8160E5CF1F920F921B
:1041A0000FB60F921124CF92DF92EF92FF920F93EE
:1041B0001F932F933F934F935F936F937F938F93AF
:1041C0009F93AF93BF93EF93FF93CF93DF93CDB7BD
:1041D000DEB76C97DEBFCDBF1092E9008091E8009A
:1041E00083FF25C068E0CE0145960E94211482EF2E
:1041F0008093E8008D8987FF39C09091E80090FF97
:10420000FCCF982F907609F034C19E894F89588D44
:104210002F89F88C911131C0803861F580911B0293
:104220008093F1001092F1008EEF8093E8006C967D
:104230000FB6F894DEBF0FBECDBFDF91CF91FF91D7
:10424000EF91BF91AF919F918F917F916F915F910E
:104250004F913F912F911F910F91FF90EF90DF9021
:10426000CF900F900FBE0F901F9018959EEF9093D8
:10427000E800C7CF1092F100D5CF913059F48111E9
:10428000D3CF4130510581F680911B028D7F809301
:104290001B02CACF933049F48111C6CF413051057A
:1042A00019F680911B028260F2CF953041F4809123
:1042B000E80080FFFCCF20682093E300B5CF963064
:1042C00009F0A9C00B8D1C8D22E01092E90010921C
:1042D000190210921802F2122EC0109217021092B8
:1042E00016020E94F0131F8299E09983FA8291E0EE
:1042F0009E8390EA98879AEF9987209118023091CF
:104300001902275F3F4F3C832B838D831092E90076
:1043100010921902109218021093170200931602BD
:1043200049E050E0BE016F5F7F4F80E00E94CA13FA
:104330000E94F01379CF10931702009316020E9487
:104340000713DC0112960D911C910115110509F45A
:1043500010C1D801ED91FC910480F581E02DBE01E2
:104360006B5E7F4FC8010995009709F0FDC0F80109
:1043700000851185EACFF3E0FF120EC08F898823F4
:1043800009F440C0823061F440E867E088E79FE1CB
:104390000E943227811148CF81E28093EB0047CF02
:1043A000813029F440E86BE08CE69FE1F1CF833067
:1043B00099F70E940713DC011296ED90FC908E0194
:1043C0000F5F1F4F6801E114F10479F0D701ED91FF
:1043D000FC910680F781E02DB801C7010995080F0F
:1043E000111DF701E084F184EECFD8011C92F60193
:1043F00001900020E9F73197BF016C197D0940E079
:10440000C601C6CF66E57FE1FB01449150E080E83C
:104410000E94CA1309CF973009F4BECF983021F417
:1044200081E08093F10000CF993009F0FDCE8370D8
:1044300009F0B2CFE8E1F1E081E031E096E32191CB
:10444000222371F08093E9003093EB00DF01119794
:104450002C912093EC009093ED008F5F873079F7DB
:104460008EE78093EA001092EA008F8980932B02F6
:10447000DBCE8B8D9C8D1092E90010921902109268
:1044800018029093170280931602898D811151C0F2
:104490008E899D89913A49F4813209F07DCF47E0B8
:1044A00050E069E071E080E0B3CF913209F074CF61
:1044B000833269F48F89988DB0E0A0E08093050184
:1044C00090930601A0930701B0930801ADCE80320E
:1044D00069F48091E80082FFFCCF67E089E091E019
:1044E0000E9421148BEF8093E8009ECE823209F067
:1044F0009BCE8F89809310018091090190910A01D0
:10450000A0910B01B0910C01803B9440A105B10535
:1045100069F48091100180FD09C088E780931A0238
:10452000809164008F7D809364007ECE10921A0289
:104530007BCE0E940713DC0112960D911C91011590
:10454000110509F429CFD801ED91FC910190F0817A
:10455000E02DBE016B5E7F4FC8010995811164CECD
:10456000F80100851185EBCF181619060CF45CCE06
:1045700013CFF1E0FF12FFCE6AE57FE145CF0F9345
:104580000FB70F931F9211248F939F93EF93FF9375
:10459000E1E1F2E080910C0291E08D5F8D3710F047
:1045A0008D57939580930C028081890F8083918130
:1045B000911D91830281011D02838381811D83836B
:1045C00009270F700927029500930B0235D081113E
:1045D00000930902803989F400910A02901B9630F9
:1045E00070F087E7809300088093010888E198E0E5
:1045F0008093600090936000FFCF90930A028091B7
:104600001A02815018F080931A0259F3EDE0F2E09B
:104610008081918101968083918382819381811D24
:10462000911D82839383FF91EF919F918F911F90B2
:104630000F910FBF0F9118958FB18095807F669B6A
:1046400088601C9B846008952F923F924F925F92E6
:104650006F927F928F929F92AF92BF92CF92DF9292
:10466000EF92FF920F931F93CF93DF9337E3C32E05
:1046700031E0D32EC1E3D2E010E000E07724739460
:104680004BE1942E56E3852E69E0462E6DE3562EBF
:1046900022242A94322CEEA5EE23A9F08FA59E2F7A
:1046A0009370891708F49BC0F0E0F595E795F595B0
:1046B000E795EE0FFF1FEB59F34E85919491F601AC
:1046C000928381831FA69CA99923F9F08DA9292F94
:1046D0002F77022E000C330B821713060CF489C0BF
:1046E0008A8197FF7FC081508A838A8181117CC033
:1046F00081E08A83EA81F0E0EE0FFF1FEB59F34E71
:10470000859194919EA38DA31DAA58A5552321F1AF
:104710003AA529A5311119C0422F407426FF6CC05B
:104720008DA19EA1850F911D57FD9A9527FD69C00A
:1047300097FD65C0442309F466C0863BF4E29F07F9
:1047400014F085EB94E29EA38DA381E0830F8AA7EA
:104750002F73321708F01AA69BA5992371F0EA81EE
:10476000EE2359F08DA52CA5482F4F71322F3F71A4
:10477000431708F04AC08F5F8DA749A9442311F160
:104780003AA9632F607436FF6CC08DA19EA12BA93E
:1047900050E027FF69C0840F951F97FD68C066230E
:1047A00009F469C0863B44E2940714F085EB94E277
:1047B0009EA38DA33F71822F8F71831708F05DC078
:1047C0002F5F2BAB89A19AA1009709F45DC08F3FA1
:1047D000980709F49AC001979AA389A396C08F5F9E
:1047E0008FA771CF8F5F80CF803408F483CF8FE3A2
:1047F00080CF8F5F8DAB89CF8FA190E093CF90E07A
:1048000080E04111A0CF8FA3A0CF807EF1F480E2A1
:104810008DA78DA5807E51F09F3F09F1292F22950C
:104820002F70E20F803411F49F70E90F88A9F0E037
:10483000E80FF11D87FDFA95EE0FFF1FEB59F34EC0
:10484000859194919EA38DA398CF803231F426FD5B
:1048500004C09F3F11F080E4DBCF1DA6DACFE0E07B
:10486000E1CF8FA190E093CF841B950B96CF90E082
:1048700080E061119DCF8FA39DCF27FF02C01BAAAF
:10488000A1CF80E88BAB9ECFC8010496672C01C0F6
:10489000660C8A95EAF7909E5001919EB00C112407
:1048A000809EC001819E900D11249C012F5C3D4F84
:1048B000790188819981BC016F5F7F4F798368831B
:1048C000FC014491403408F07CC04A83442319F031
:1048D00088A9480F4A83EA81F0E0EE0FFF1FEB59E9
:1048E000F34E859194919EA38DA389A5811102C059
:1048F0008FA58FA38CA585FD1DA689A19AA10097E0
:10490000C1F28F3F980709F066CF20911101822FE5
:1049100090E0002E02C0959587950A94E2F780FDFD
:104920000AC0033009F0F4C18091FA0290E0959535
:10493000879580934601207F39F5809151029091AF
:104940008702890F9091BD02890F9091F302890F20
:1049500009F4E6C189E0A82E83E0B82E91E3E92EA0
:1049600092E0F92EF70180A10E94DE14F7019183F5
:10497000808312A211A2F6E3EF0EF11CAE14BF0465
:1049800089F780EF809311010F5F1F4FE696F5E0E6
:10499000CF0ED11C0430110509F07DCEDF91CF91EF
:1049A0001F910F91FF90EF90DF90CF90BF90AF904D
:1049B0009F908F907F906F905F904F903F902F903F
:1049C0000895403A08F009C1E42FE054FF0BEC30A1
:1049D000F10509F4BFC00CF04CC0E530F10509F455
:1049E000A2C0F4F4E230F10509F49DC094F43097CC
:1049F00009F491C0319709F080CF0296998388839A
:104A0000FB01649168A780E0413409F080E489A744
:104A100074CFE330F10509F493C0349771F36DCF8F
:104A2000E830F10509F462C0A4F4E630F10509F4B8
:104A300087C0379709F061CFFB0164916BA79C0198
:104A40002D5F3F4F39832883FC013296E491ECA718
:104A500054CFEA30F10509F47BC002963B970CF481
:104A600071C099838883FB01849168A9680F68AB42
:104A700044CFE331F10509F477C064F5EF30F10577
:104A800009F470C0DCF4ED30F10509F469C03E971B
:104A900009F033CFFB012591349129AB9C012D5FA7
:104AA0003F4F39832883FC0132962591349180E071
:104AB0004E3409F080E4820F8AAB1FCFE131F1055B
:104AC00009F450C03CF3029699838883FB016491FA
:104AD0006CAB13CFEC35F10509F451C04CF4E43163
:104AE000F10509F443C0759709F007CF1BA605CF60
:104AF000EE35F10509F45CC00CF454C0EF35F10556
:104B000009F0FBCE809111018625809311011FA22F
:104B10003AA229A2F2CE029699838883FB0164917E
:104B20006FA36FA7EACEFB01649168A79C012D5F7C
:104B30003F4F39832883FC013296E491E9A7DDCE0B
:104B400018A6DBCE99838883FB0164916EA7D5CE2E
:104B50001EA6D3CE029699838883FB01649187CFEA
:104B600018AACBCE19AAC9CE1CAAC7CEFFEFFBA7A5
:104B7000029699838883FB0164916CA7BECE02964E
:104B800099838883FB016491E09130026E0F6093FA
:104B9000300270E0C2010E94232B70934C0160939D
:104BA0004B01ABCE029699838883FB016491EFCFD2
:104BB000A1E3B2E021E030E0FC01E20FF31FE49159
:104BC0009096EC9390972F5F3F4FD6962530310506
:104BD00099F705969983888390CE403E28F44F59E3
:104BE000550B5AA349A389CE403EA9F4DE0190E0BB
:104BF00080E09695982F882797958795ED91FD9160
:104C0000E4912E2F2F77822BE7FDF3CF8F5B9F4F01
:104C10009AA389A372CE4C3F08F46FCE24E0240FF0
:104C2000223008F039C04C3FA9F10296998388835D
:104C3000FB016491E881F9819F012F5F3F4F398328
:104C40002883E4915CA15E1701F14F8D842F90E0E1
:104C50007BA1D701A80FB91F51967C935197589605
:104C60005C93D501A80FB91FAA0FBB1FAF5CBD4F46
:104C700080912C0290912D02281B390B14963C93A5
:104C80002E9313974F5F4F8FECA36BA38CA10E94C1
:104C9000DE14A0CF60E0CECFDE0190E080E04E3F9A
:104CA00029F58BA181111FC0EF8DEE2379F3E1501F
:104CB000EF8FF0E0D501AE0FBF1FAA0FBB1FAF5C97
:104CC000BD4F80912C0290912D0213962D913C9115
:104CD000820F931F99838883EE0DFF1D81898BA31B
:104CE000808D8CA30ACE81508BA3D0CF9695982F20
:104CF000882797958795ED91FD91E4913E2F3F7719
:104D0000832BE7FDF3CF680F791F79836883F5CD97
:104D10008DA19EA1F601928381838FA180830BCE0A
:104D200088EDE1E3F2E011928A95E9F710927200C2
:104D30002BCE2F922FB62F932091360120952093C2
:104D4000360109F08BC0BF93AF930F921F92209151
:104D5000420100904401020E00924401209143015F
:104D600010904501121E10924501B12DB7FDB0956E
:104D7000BB0FA0914101B058BA02110CA12D209196
:104D8000380100903A01020E00923A012091390157
:104D900010903B01121E10923B01212D220F212168
:104DA000B091370127FDB195AB0F20913D010090E7
:104DB0003F01020E00923F0120913E011090400100
:104DC000121E10924001B0913C0117FCB195AB0F3F
:104DD000B1E00090470110904801000C111C17FC35
:104DE0000B2616FC0B260092470110924801B09149
:104DF000460117FCB195AB0FB0910001AB0FA0932A
:104E0000CF00B0914E01A0914D01119729F0B093C0
:104E10004E01A0934D011EC0B0914C01A0914B01D9
:104E2000B0934E01A0934D0178943F934F935F93BD
:104E30006F937F938F939F93EF93FF9311240E941F
:104E40002423FF91EF919F918F917F916F915F91BB
:104E50004F913F911F900F90AF91BF912F912FBE17
:104E60002F901895EF92FF920F931F93CF93DF939C
:104E7000F82E192FE62E042F81E0860F880F0E944E
:104E80009C1383E00E949C13CF2DD12FEC0EFD2E9E
:104E9000F11CCE15DF05B9F007FF13C0FE018491A8
:104EA0000E949C13182F80E00E949C13812321965E
:104EB0008111EFCFDF91CF911F910F91FF90EF9074
:104EC00008958881EDCF81E0F5CFE9E0F7E0138226
:104ED000128288EE93E0A0E0B0E084839583A683FD
:104EE000B78382E291E0918380838FEF9FEF958774
:104EF0008487EAE5F7E084E391E09183808315827B
:104F0000168280E1878314821382118680911201B8
:104F1000809359070895789483E084BD83E085BD2C
:104F200081E080936E00E1E8F0E083E08083E0E8D8
:104F300081E08083E1E983E08083E0E981E08083B0
:104F4000E1EC87E08083E3EC81E08083E0EC82E0C9
:104F50008083E2EC81E08083EAE787E080838068F9
:104F6000808310922B0210921B0210921D028091DE
:104F7000D70081608093D70080EA8093D80089B5FC
:104F8000806189BD89B5826089BD09B400FEFDCF0D
:104F900081E090E00E942F148091D8008F7C806186
:104FA0008093D8008091E000807F8093E000809122
:104FB000E1008E7E8093E1008DE08093E200559ABF
:104FC000209A81EC80937C0081EF85B987EE84B9CB
:104FD00084E38BB984EF8AB9769A6E9880EF81BBAF
:104FE00010BA80E58CBD81E08DBD85E090E00E9427
:104FF000FE145F9902C05F9AF8CF5C98E5E9FDE185
:105000009DE085918EBD00000DB407FEFDCF8EB5ED
:105010009A95B9F75C9A81E88093640081E0809367
:1050200065000E94BD120E94001587FF11C05C98A8
:1050300085EA8EBD00000DB407FEFDCF8EB55C9AEB
:105040002E982F982D9881E083BF889513BEFCCFB2
:105050000E94001582FF48C02D980E940015847898
:105060008438E1F40E94FC1488EC90E00E94FE1465
:105070002F9882E090E00E948A2A8F3F29F06FEFFC
:1050800082E090E00E94922A84EF91E00E94FE1458
:105090002F9A0E94001584788438D9F30E94001555
:1050A00084718431E1F40E94FC1488EC90E00E9449
:1050B000FE142E9882E090E00E948A2A882329F02C
:1050C00060E082E090E00E94922A84EF91E00E94EA
:1050D000FE142E9A0E94001584718431D9F388EC55
:1050E00090E00E94FE14B4CF0E94FC1482E090E095
:1050F0000E948A2A882309F479C00E94081581E059
:1051000090E00E948A2A182F147081E090E00E949B
:105110008A2A81FF0CC011112E98C0EFDFEF0E9488
:10512000001586FF66C02E9A2F9A0E94FC1482E317
:1051300090E00E94FE140E9400158111F8CF81E2D8
:1051400080936107809164008E7F809364008091DA
:105150007A00806480937A0080917A0086FDFCCF8B
:10516000C0917800D09179000E94C614AB01BC01B7
:10517000CE01B0E0A0E0DC01992788278C019D01D9
:10518000040F151F261F371FC901B80120916400A5
:10519000216020936400611571058105910511F06E
:1051A0000E944C2A82EA9DE10E94E718DD24D394F4
:1051B00009E013E093E0E92EF12CC0E0D0E0CC242C
:1051C000C3949091110280916207292F281B822F8E
:1051D000B0906307BB2009F47AC020936407109253
:1051E0006307209771F30E940000EBCF0E94031524
:1051F00086CF112329F0C430D10511F42E9A2F98AF
:1052000081E00E94BD120C2F0770A02EAE0133E08A
:10521000559547953A95E1F7CA019695982F8827B5
:1052200097958795875F9C4F70E060E04E3F2FEF2A
:10523000520769F130E020E0DB01AB51B34E7C0155
:10524000E0E8EE0EF11CFD01E20FF31FE491F0E047
:105250004F010A2C02C0880C991C0A94E2F74F3FB8
:10526000540739F06C01C20ED31EF601B488B82879
:10527000B48AAA2039F06701C20ED31EF601048950
:105280000929048B2F5F3F4F28353105E1F64F5F29
:105290005F4F80589F4F685A7F4F603B710531F6D2
:1052A00080E00E94BD128FE090E00E94FE142196E3
:1052B000C931D10509F033CF112311F02F9A2D9860
:1052C00080E991E00E94FE140E94FC1430CF2091EE
:1052D0006107821740F48F5F821708F082CFD3BE38
:1052E000889513BE7ECFC09263079093620780912A
:1052F0005D0790915E07019690935E0780935D072E
:1053000080915F07809360070E94001580935F077C
:105310009B2DF80191119FEF8FEF919391939193B2
:1053200091938150D0F7E0911502F0E0EE0FFF1F4E
:10533000EE5FF04E85919491FC01099580E00E940A
:10534000BD1280915D0790915E07B7010E940F2BFF
:10535000892B09F046CF809104018D2580930401AB
:1053600040CF8F929F92AF92BF92CF92DF92EF92F7
:10537000FF92CF93DF93EC01688179818A819B81D1
:10538000611571058105910521F464E279ED8BE5E4
:1053900097E02DE133EF41E050E00E94A02A49015F
:1053A0005A019B01AC01A7EAB1E40E94BF2A6B013C
:1053B0007C01ACEEB4EFA50194010E94CD2AC60E8B
:1053C000D71EE81EF91EF7FE06C081E0C81AD108F4
:1053D000E10880E8F80AC882D982EA82FB82C70124
:1053E000B6019F77DF91CF91FF90EF90DF90CF9044
:1053F000BF90AF909F908F9008958F929F92AF92A1
:10540000BF92CF92DF92EF92FF9260911301709161
:1054100014018091150190911601611571058105A6
:10542000910521F464E279ED8BE597E02DE133EF0E
:1054300041E050E00E94A02A49015A019B01AC01C1
:10544000A7EAB1E40E94BF2A6B017C01ACEEB4EF85
:10545000A50194010E94CD2AC60ED71EE81EF91E92
:10546000F7FE06C081E0C81AD108E10880E8F80A12
:10547000C0921301D0921401E0921501F09216012E
:10548000C701B6019F77FF90EF90DF90CF90BF905C
:10549000AF909F908F9008956093130170931401C3
:1054A00080931501909316010895BB274A3031F47B
:1054B000992322F4BDE2909581959F4F0C94612A27
:1054C000BB27FB015527AA27880F991FAA1FA417DE
:1054D00010F0A41B83955051B9F7A05DAA3308F0D2
:1054E000A95DA193009779F7B111B1931192CB0106
:1054F0000C947A2ADC01FC01672F71917723E1F784
:10550000329704C07C916D9370836291AE17BF0790
:10551000C8F30895F999FECF92BD81BDF89A9927F5
:1055200080B50895262FF999FECF1FBA92BD81BD8F
:1055300020BD0FB6F894FA9AF99A0FBE0196089515
:10554000052E97FB1EF400940E94B72A57FD07D042
:105550000E94D22A07FC03D04EF40C94B72A50952F
:105560004095309521953F4F4F4F5F4F089590954F
:105570008095709561957F4F8F4F9F4F08950E9442
:10558000F42AA59F900DB49F900DA49F800D911DAE
:1055900011240895B7FF0C94BF2A0E94BF2A821BD2
:1055A000930B0895A1E21A2EAA1BBB1BFD010DC08F
:1055B000AA1FBB1FEE1FFF1FA217B307E407F507C3
:1055C00020F0A21BB30BE40BF50B661F771F881F9F
:1055D000991F1A9469F760957095809590959B0135
:1055E000AC01BD01CF010895A29FB001B39FC001DE
:1055F000A39F700D811D1124911DB29F700D811DFF
:105600001124911D0895991B79E004C0991F9617E4
:1056100008F0961B881F7A95C9F780950895AA1BF4
:10562000BB1B51E107C0AA1FBB1FA617B70710F08D
:10563000A61BB70B881F991F5A95A9F780959095BF
:10564000BC01CD01089597FB072E16F4009407D0F6
:1056500077FD09D00E940F2B07FC05D03EF49095F2
:1056600081959F4F0895709561957F4F0895EE0F36
:10567000FF1F0590F491E02D0994DC0101C06D93AA
:1056800041505040E0F70895F894FFCF800305059E
:1056900001FFFFFFFF00E1000000000000F0020139
:1056A00000000000C18081000000000000001B130A
:1056B00043143C133113821340135E1300000000A7
:1056C0002E14FFFFFFFFFFFFFFFFFFFFFFFFFFFFA6
:1056D000FFFFFFFFFFFFFFFFFFFFFFFFFFFFFFFFDA
:1056E000FFFFFFFFFFFFFFFFFFFFFFFFFFFFFFFFCA
:1056F000FFFFFFFFFFFFFFFFFFFFFFFFFFFFFFFFBA