:100000000C94E2080C940A090C940A090C940A094D
:100010000C940A090C940A090C940A090C940A0914
:100020000C940A090C940A090C9449120C94B81205
:100030000C940A090C940A090C940A090C940A09F4
:100040000C940A090C940A090C940A090C940A09E4
:100050000C940A090C940A090C940A090C94A9142A
:100060000C940A090C940A090C940A090C940A09C4
:100070000C940A090C940A090C940A090C940A09B4
:100080000C940A090C940A090C940A090C940A09A4
:100090000C940A090C940A090C940A090C940A0994
:1000A0000C940A090C940A090C940A093454482047
:1000B000504C414345210033524420504C4143456C
:1000C0002100324E4420504C4143452100315354CD
:1000D00020504C414345210057524F4E4720574135
:1000E00059210046494E414C204C41500020204CA3
:1000F00041502032202000202020474F2120202066
:10010000002020205345542020200020205245412B
:10011000445920200000004908B400BEF67B7AA5AF
:100120009455B848002944442A15A00B42005003B6
:10013000020008259076BA595CC59EC53892E6F350
:100140003A73BAE59077BA773A084008502A441CC7
:10015000E08852E508568E77B677B8728CD6BA73B7
:100160009E739272AEB7B6E95C64AAB7B4929CBEB5
:10017000B6D6B656AAD79276EE77B47138E948B6B5
:10018000AEB6AAB6F6B5B4B548E59C694C91246400
:100190002E5400001C44000EAE9ABA0E8C2EAE0EE9
:1001A000CE56D0553B93B44144415197B44944177E
:1001B000B61AB60AAAD6D3766717900F389A8C1655
:1001C000AE16BA16F615B4B52B1C5E6B4C4948C971
:1001D0005A540056E2555F646902030303030303A4
:1001E00003030308080808080802020202020202C8
:1001F00002030402030303030402010101010101DC
:1002000002030302020202030402010408080808B0
:1002100002020202010102030402010404040808AC
:10022000020101010101020304020104040408089F
:10023000080808080808020304020101010408086C
:100240000803030303030303040808020104080866
:100250000802030404040404040808020104080852
:100260000802030303030303030808020104080848
:100270000802020202020304080808020104080836
:100280000802010101020304080808020104080829
:1002900008080808080203040808080201040808FE
:1002A0000808030303030304080808020104030306
:1002B00003030303040404040808080201040404FB
:1002C00004040404040101040808080101010101F7
:1002D0000101010101080808080808090A0B0C0DB2
:1002E0000E0F0F6363636363630808090A0B0C0D49
:1002F0000E0F0F1515161718180707070A0B0C0D08
:100300000E10121515161718180606066363636398
:10031000111112131414191919050503020263634C
:100320001111121314141A1A1A040403020263633B
:100330006363636363631B1B1B0404010101636349
:1003400063222221201F1E1C1C63630000006363C4
:1003500063222221201F1E1D1D63633D3D3D6363FB
:10036000632323252627281D1D63633C3C3C6363D0
:1003700063242425262728286363633B3B3B636370
:1003800063242425262729296363633A3A3A636361
:1003900063636363632A2A2A636363393939636356
:1003A00063632F2F2E2D2B2B63636338383835343E
:1003B0003332312F2E2D2C2C63636337373635348F
:1003C000333231302E2D2C2C63636337373635347E
:1003D000333231302E63636363D5F08D14A1C8814D
:1003E000CFD9F1AF2000F0F89C8E8783878E9CF8E0
:1003F000F00000FEFF0303030303070EFCF80000F8
:10040000FEFF0303030303070EFCF80000FFFF00D9
:10041000000000000000FFFF0000FEFF83838383D5
:1004200083C7EE7C380000F8FC0E07030303070EB9
:10043000FCF800003F7FE0C08080C0E07F3FFFFF0E
:1004400001010101010101FFFF0000FFFF0C0C0C85
:100450000C1C3E77E3C100007FFFC0C0C0C0C0E0FD
:10046000703F1F00001F3F70E0C0C0C0E0703F1F22
:1004700000007FFFC1C1C1C1C1E3773E1C00001F66
:100480003F70E0C0C0C0E0703F1F000000000001EE
:10049000FFFF01000000627920406A616D657368AA
:1004A000686F7761726400507265737320412074C5
:1004B0006F207374617274003040FFFFFFFFFFFF15
:1004C0007FBFDFEFEFF7F7FBFBFDFDFDFDFDFDFD62
:1004D000FDFDFDFDFDFBFBF7F7F7EFEFDFBFBF7F96
:1004E000FFFFFFFFFFFFFFFFFFFFFFFFFF0FF3FC1B
:1004F000FFFFFFFFFFFFFFFFFFFF3F3F1F1F0F0F2C
:100500001F1F3F3F7FFFFFFF7FFFFFFFFFFFFFFF3B
:10051000FEFDF3EFDF3FFFFFFFFFFFCF0300010111
:1005200001C1FF0F1F7FFFFFFFFFF0C0C0C0808031
:10053000C0C0C0C0E0FFFFFFFF807F7FFFFFFFFF65
:10054000FFFFFFFFFFFFFCF38F7FFFFF1EE0F8FCC4
:10055000FEFFFFC0C0E0E0E3FFFFFFFFFFFFFFFF84
:10056000FFFFFFFFFF1FDFDFDFDFDFDFDEDDE3FF9A
:10057000FFFFFFFFFFFFFFFFFF00FFFFE0EF0FB7F1
:10058000B707B7B707B7BB03DBDB03DBDB03D7D7A3
:1005900007AFAFAF0FF0FFFFFFFFFFFFFFFFFFFF52
:1005A000FFFFFFFFFFFFFF3FC7F8FFFFFFFFE01D5B
:1005B000FDFCFDFDFCFDFDFEFEFEFEFEFEFEFEFE64
:1005C000FEFEFEFEFFFFFFFFFFFFFFFF7FBFDFDF3F
:1005D000EFEFF7F7FBFDFEFFFFFFFFFFFFFFFFE081
:1005E000EFEFEFEFEFEFF7F7F7FBFBFBFBC19DBD85
:1005F0003DBEBEBEBEBEBEDEEEEEEEEC13FFFFFFA6
:10060000FFFFFFFFFFFFFFFFFFFFFFFFFFFFFFFFFA
:10061000FFFFFFFFFFFFFFFFFFFFFFFFFFFFFFFFEA
:10062000708FDFDFEFEFEFEFEFEFEFEFCC33FFFF98
:10063000FFFFFFFFFFFFFFFFFFFF2818FFFFFFFF88
:10064000FFFFFF00FE92926C017C82827C00FE0C18
:1006500030FE00FE92928238FFFFFFFFFFFFFFFF98
:10066000FFFFFFFF43192525C501FD2020FC00F8F1
:100670002524F800FC20508C00FC24240400FC24D9
:1006800025D903192525C511FFFFFFFFFCFDFDFD41
:10069000FCFCFDFCFCFDFCFDFCFCFDFCFDFCFCFD94
:1006A000FCFDFDFDFDFCFDFCFCFDFCFDFDFDFCFE7F
:1006B000FFFFFFFF0000000000000000000008082E
:1006C00008080808000302020202020204000000F7
:1006D0000000000000010000000000000100000315
:1006E00002020400000100080808080006020205D2
:1006F00000000100000100000008080000000000E8
:1007000000000100000602040008080808080808A4
:1007100008000100000000010008080800000000B7
:100720000000010008080007000808080003020292
:100730000202050008080001000808080001000086
:100740000000000008080001000808080006020276
:100750000204000808080001000808080000000062
:100760000001000808080001000808080808080837
:10077000000100080808000100080808080000003F
:10078000000100080808000100000000000003024A
:100790000205000808080006020202020202050023
:1007A0000000000808080000000000000000000031
:1007B0000808080800000080C0EEFFFFFFF6E0E038
:1007C000E0E0C0800000060F87C1E1F7FFFFFFF700
:1007D000E180000103010000000001130FFFFFFF93
:1007E0007F8F0300000000000000000000000103F4
:1007F0000100000000000000111A0000000080400D
:100800004E6EE660404040408000000000060180DF
:10081000C061253F25E180000000010000000000CC
:100820000001020100010E030000000000000000B2
:100830000000000000000000000000000000008038
:10084000C0E0E0E0E0F6FFFFFFEEC0800000000146
:1008500003010080E1F7FFFFFFF7E1C1870F06000A
:1008600000000000038F7FFFFFFF0F130100000057
:100870000000000000000000010301000000000073
:100880000000111A0000804040404060E66E4E407B
:100890008000000000000100000080E1253F25618C
:1008A000C080010600000000000000030E010001EE
:1008B0000201000000000000000000000000000035
:1008C0000000000000000000000080C0E0E0E6FF43
:1008D000FFFFE6E0E0C080000002070381C0E1F70F
:1008E000FFFFFFF7E1C081030702000000010327BB
:1008F0001FFFFFFF1F270301000000000000000092
:10090000000001030100000000000000111A0000B7
:10091000008040404066EE6640404080000000009D
:10092000020100804021253F252140800001020076
:1009300000000000010204010001040201000000A7
:1009400000000000000000000000000000000000A7
:100950000000047CFF7C04050800300C30000030EF
:10096000BAFFFFFC9C3810000001031F0F030000BA
:10097000090D000010AA78A808100000000000006F
:100980000200000010389CFCFFFFBA30000000039A
:100990000F1F03010000090D001008A878AA10001D
:1009A0000000000002000000000010389CFEFFFE66
:1009B0009C3810000103071F07030100090D0010F8
:1009C00008287A2808100000000102000201000037
:1009D00000C0E07076FFFFFA783870E04000000059
:1009E00018BCFFFFFF7C3000000000000000000783
:1009F0000F0700000000000D14000040202056FAF0
:100A0000501010204000000000001815071530009D
:100A100000000000000000000000000000000000D6
:100A200040E0703878FAFFFF7670E0C00000000008
:100A3000307CFFFFFFBC1800000000000000000732
:100A40000F0700000000000D14004020101050FAA5
:100A50005620204000000000000030150715180047
:100A60000000000000000000000000000000000086
:100A700080C0E07070FEFFFE7070E0C0800001106A
:100A8000387CFFFFFF7C38100100000000000007E9
:100A90000F0700000000000D14008040202050F6D9
:100AA0005020204080000000001028150715281055
:100AB0000000000000000000000000000000000036
:100AC0000000000001000000010000010101000120
:100AD00001010101020202020202020202030303F7
:100AE00003030303020303030303030302030303D8
:100AF00003030303020202020202020203030303CE
:100B000002030303030303030203030303030303B7
:100B100002030303040101010101010404020202B2
:100B200002020204000202020202020000020202A9
:100B30000202020004020202020202040401010194
:100B40000101010400010101010101000001010195
:100B5000010101000404000004040000010202027B
:100B6000020101010102020202010101010202026D
:100B7000020101010102020202010101010202025D
:100B8000020101010102020202010101040400004C
:100B90000404000001040000040400000402020137
:100BA0000101010100020202010101010001020232
:100BB000020101010401010202020101040101011B
:100BC0000202020100010101010202020001010111
:100BD00001010202040400000404000101010101FA
:100BE00001020204010101010202020001010102ED
:100BF00002020100010102020201010401020202DB
:100C000001010104020202010101010002020101CD
:100C100001010100020201010101010402020201BD
:100C200001010104010202020101010001010202AD
:100C3000020101000101010202020104010101019E
:100C40000202020401010101010202000404000089
:100C50000404000104010101010102020401010177
:100C6000010202020001010102020201000101026F
:100C70000202010104010202020101010402020256
:100C80000101010100020201010101010104000052
:100C90000404000004010101010101040402020234
:100CA0000202020404020202020202040002020220
:100CB0000202020004040404040404040402020204
:100CC00002020204040404040404040400020202F4
:100CD0000202020000000000000101010001010108
:100CE00000010101000101010001010100010101F8
:100CF00000010101000101010000000000010101EB
:100D000000010101000101010001010100010101D7
:100D10000001010140FF43FF46FF49FF4CFF4FFF29
:100D200052FF55FF58FF5BFF5EFF61FF64FF67FFE7
:100D30006AFF6DFF70FF73FF76FF79FF7CFF7FFF17
:100D400082FF85FF88FF8BFF8EFF91FF94FF97FF47
:100D50009AFF9DFFA0FFA3FFA6FFA9FFACFFAFFF77
:100D6000B2FFB5FFB8FFBBFFBEFFC1FFC4FFC7FFA7
:100D7000CAFFCDFFD0FFD3FFD6FFD9FFDCFFDFFFD7
:100D8000E2FFE5FFE8FFEBFFEEFFF1FFF4FFF7FF07
:100D9000FAFFFDFF00000300060009000C000F0031
:100DA0001200150018001B001E002100240027005F
:100DB0002A002D0030003300360039003C003F008F
:100DC0004200450048004B004E00510054005700BF
:100DD0005A005D0060006300660069006C006F00EF
:100DE0007200750078007B007E008100840087001F
:100DF0008A008D0090009300960099009C009F004F
:100E0000A200A500A800AB00AE00B100B400B7007E
:100E1000BA00BD000000000000000000000000005B
:100E200000000000000000000000000000000000C2
:100E300000000000000000000000000000000000B2
:100E40008F0253022202F801D401B40199018101F9
:100E50006C0158014701380129011C0111010601EB
:100E6000FC00F200EA00E100DA00D300CC00C6008A
:100E7000C000BB00B600B100AC00A800A3009F00FA
:100E80009C009800940091008E008B0088008500E3
:100E90008300800040187FFF7FFF7FFF3FDFEFDA96
:100EA0003FFF7FFF7FFF7FFF7FFF7FFF7FFF7FAAE7
:100EB0007FFF7FFF7FFF7FFF7FFE7DFB57FFFFFFF1
:100EC000FFFFFFFF57FB7DFE7FFF7FFF7FFF7FAAB6
:100ED0007FFF7FFF7FFF55FF7FFF7FFF7EF940F998
:100EE0007EFF7FFF7FFF55FF7FFF7FFF7FFF7FFF3D
:100EF0007FFF7FFF7FFF55FF7FFF7FFF55FFFFFFD6
:100F0000FFFFFFFF55FF55FF7FFF7FFF7FFF7FFF45
:100F10007FFF7FFF7FFF7FFF7FFF7FFF7FAA7FFF36
:100F20007FFF7FFF7FFF7FFF7FFF7FFF7FAA7FFF26
:100F30007FFF7FFF7FFF7FFF7F7FBFDFF5FFFFFF2B
:100F4000FFFFFFFFF5DFBF7F7FFF7FFF7FAA7FFFF0
:100F50007FFF7FFF7FFF000006000C0012001900DA
:100F60001F0025002B00310038003E0044004A00DD
:100F7000500056005C00610067006D00730078004F
:100F80007E00830088008E00930098009D00A200E0
:100F9000A700AB00B000B500B900BD00C100C5009E
:100FA000C900CD00D100D400D800DB00DE00E10094
:100FB000E400E700EA00EC00EE00F100F300F400CA
:100FC000F600F800F900FB00FC00FD00FE00FE004A
:100FD000FF00FF00FF00FF00FF00FF00FF00FE001A
:100FE000FE00FD00FC00FB00F900F800F600F40034
:100FF000F300F100EE00EC00EA00E700E400E1009D
:10100000DE00DB00D800D400D100CD00C900C5004F
:10101000C100BD00B900B500B000AB00A700A20040
:101020009D00980093008E00880083007E00780069
:1010300073006D00670061005C00560050004A00BC
:1010400044003E00380031002B0025001F0019002D
:1010500012000C0006000000FAFFF4FFEEFFE7FFAD
:10106000E1FFDBFFD5FFCFFFC8FFC2FFBCFFB6FF2C
:10107000B0FFAAFFA4FF9FFF99FF93FF8DFF88FF9A
:1010800082FF7DFF78FF72FF6DFF68FF63FF5EFFE9
:1010900059FF55FF50FF4BFF47FF43FF3FFF3BFF0B
:1010A00037FF33FF2FFF2CFF28FF25FF22FF1FFFF5
:1010B0001CFF19FF16FF14FF12FF0FFF0DFF0CFF9F
:1010C0000AFF08FF07FF05FF04FF03FF02FF02FFFF
:1010D00001FF01FF01FF01FF01FF01FF01FF02FF0F
:1010E00002FF03FF04FF05FF07FF08FF0AFF0CFFD5
:1010F0000DFF0FFF12FF14FF16FF19FF1CFF1FFF4C
:1011000022FF25FF28FF2CFF2FFF33FF37FF3BFF78
:101110003FFF43FF47FF4BFF50FF55FF59FF5EFF67
:1011200063FF68FF6DFF72FF78FF7DFF82FF88FF1E
:101130008DFF93FF99FF9FFFA4FFAAFFB0FFB6FFAB
:10114000BCFFC2FFC8FFCFFFD5FFDBFFE1FFE7FF1A
:10115000EEFFF4FFFAFF080B00020202010009048F
:101160000000010202000005240010010524010115
:10117000010424020605240600010705810310006E
:101180004009040100020A000000070502024000B5
:101190000007058302400000040309041201000255
:1011A000EF02014041233680000101020301417238
:1011B0006475696E6F204C4C430041726475626FB8
:1011C0007900411511241FBECFEFDAE0DEBFCDBF9D
:1011D00011E0A0E0B1E0E4E5FAE302C005900D9271
:1011E000A034B107D9F726E0A0E4B1E001C01D9218
:1011F000A532B207E1F718E0C2EED8E004C02197AB
:10120000FE010E94221DC13ED107C9F70E9463154D
:101210000C94281D0C9400002F923F924F925F92E5
:101220006F927F928F929F92AF92BF92CF92DF92F6
:10123000EF92FF920F931F93CF93DF9300D000D0D4
:1012400000D0CDB7DEB730E0F901E80FF91FF7FDA8
:1012500097C0803891050CF093C0802E912CF4013A
:10126000E60FF71FF7FD8CC0603471050CF088C0E5
:10127000E62FE7707E2EE3E095948794EA95E1F7F8
:10128000DA01F3E075956795FA95E1F7062E000C03
:10129000770BAB015695542F442757954795480F28
:1012A000591F10E000E01C821B82FA01E653FE4F3A
:1012B000FA83E983FA01E65BFD4F5F01CB80DC80B6
:1012C0008C149D0409F45CC07601E60EF71E48E01C
:1012D000E416F1040CF054C05FEFE516F5060CF4CB
:1012E00041C049805A80400E511E1501200E311E0A
:1012F00050E040E042175307ACF5FA01E80FF91F40
:10130000E038F1057CF5F7FD2AC0FD01E40FF51F7B
:10131000E491F0E06F01072C02C0CC0CDD1C0A94B4
:10132000E2F7DE82CD82EFEFEE16FE0631F16201CA
:10133000C40ED51EF6016080FD816F2AF601608221
:10134000772069F0F7E0EF16F10449F06101C40E6F
:10135000D51EF6016080FE816F2AF60160824F5F24
:101360005F4FC8CF4B815C814F5F5F4F5C834B8386
:10137000A20FB31F00581F4FA1CF7110E7CFEFCFBF
:1013800026960FB6F894DEBF0FBECDBFDF91CF918A
:101390001F910F91FF90EF90DF90CF90BF90AF9093
:1013A0009F908F907F906F905F904F903F902F9085
:1013B0000895EAECF1E0A0E0B8E000800EBC8111F5
:1013C000012C1197A0FDFDCF0192B9F70DB408953E
:1013D000FC018091C901882311F13FB7F89482E0A4
:1013E0008093E9002091F200822F90E018161906F0
:1013F00014F481E090E0882339F0289844E6409383
:10140000C8014091F1004083222339F02091F2007D
:10141000211103C02BE62093E8003FBF08958FEF12
:101420009FEF08952FB7F89483E08093E90090919F
:10143000E800892F807295FF04C09091F20080E44B
:10144000891B2FBF08958091C00181110DC082E0DA
:101450008093BC0184E08093BD011092BF01109283
:10146000BE0181E08093C0018CEB91E00895CF93A1
:10147000DF931F92CDB7DEB76983DC01ED91FC915C
:101480000280F381E02D41E050E0BE016F5F7F4FAD
:1014900009950F90DF91CF91089583E08093E90043
:1014A0008091F200882319F08AE38093E800089580
:1014B0000E94120A90E00895CF93DF931F92CDB758
:1014C000DEB7FC018485958597FD08C02FEF3FEFBF
:1014D000358724870F90DF91CF910895CE01019633
:1014E0000E94E809019719F4898190E0F3CF8FEF0A
:1014F0009FEFF0CF0F931F93CF93DF931F92CDB742
:10150000DEB78C01FC018485958597FF0BC0CE0169
:1015100001960E94E809019771F4898190E0F80131
:1015200095878487F801848595850F90DF91CF9109
:101530001F910F9108958FEF9FEFF1CFFC018485EC
:10154000958597FD0BC09FB7F89482E08093E900E2
:101550008091F2009FBF90E0019608959FB7F894A4
:1015600082E08093E9008091F2009FBF90E00895AF
:101570004091B6015091B7012091B4013091B5016D
:1015800042175307B4F49091E8009570E1F39091FD
:10159000E80092FD19C08093F1008091B60190910E
:1015A000B70101968F739927892B19F48EEF8093D9
:1015B000E8008091B6019091B70101969093B70130
:1015C0008093B60181E0089580E00895DF92EF9264
:1015D000FF920F931F93CF93DF93D82E8A01EB01D5
:1015E0007B01E40EF51ECE15DF0559F0D7FE12C0C3
:1015F000FE0184910E94B80A21968111F4CF0FEF69
:101600001FEFC801DF91CF911F910F91FF90EF90D5
:10161000DF9008958881EECF0F931F93CF93DF93D0
:101620001F92CDB7DEB782E0898342E450E066E5E1
:1016300071E180E80E94E60A0E94230ADC0112960A
:101640000D911C910115110589F0D801ED91FC91C6
:101650000280F381E02DBE016F5F7F4FC8010995C5
:1016600097FD04C0F80100851185ECCF89810F90AA
:10167000DF91CF911F910F910895615030F020912B
:10168000F100FC0120830196F8CF289884E680932E
:10169000C80108950895FC010E94E20B319728F0DB
:1016A00068517C4F8F4F9F4FF9CFAB01FC010E94D7
:1016B000E20B641775078E079F07C8F308958F9292
:1016C0009F92AF92BF92CF92DF92EF92FF920F93D1
:1016D0001F93CF93DF936C017B018A0180910B01F3
:1016E000882309F45AC08091C901882309F455C0A0
:1016F0008091BB0180FF05C08091E00082608093F3
:10170000E000E801B12C8AEFA82E93E0892E2AE3AD
:10171000922E209711F4BB20C9F10E94120A811168
:1017200008C0AA94AA20C9F181E090E00E944B0B66
:10173000F0CF8C171D0611F00CF08C2F9FB7F8948A
:101740008092E9002091E80025FD02C09FBFE1CF13
:10175000282F30E0C21BD30BF701815020F04191BC
:101760004093F100FACFE20EF31EBB2021F09092DD
:10177000E800B12CEBCF8091E80085FDE7CF909297
:10178000E800BB24B394209709F3F3CF5D9884E677
:101790008093BA01101611063CF081E090E0F6014A
:1017A0009383828310E000E0C801DF91CF911F9105
:1017B0000F91FF90EF90DF90CF90BF90AF909F90F0
:1017C0008F900895AAE4B1E02FB7F8947D918D91A0
:1017D0009C9166B52FBFA89B05C06F3F18F47F5F33
:1017E0008F4F9F4F22E0660F771F881F991F2A9502
:1017F000D1F708952D9A08950C944B0B0E9406156D
:101800000895882341F02E9A662339F02F9A4423B5
:1018100031F00C94FA0B2E98F7CF2F98F8CF2D9823
:10182000089580389105B8F460347105A0F420E182
:1018300091E061FD94E060FD990F62FD9295687FF3
:10184000269FD0011124A80FA653BE4F8C9140FFB4
:1018500003C0892B8C93089590958923FBCF9031F9
:10186000A8F4703198F4E72FF0E084E0EE0FFF1F4A
:101870008A95E1F7892F90E0E80FF91FEC54F94FB2
:10188000E49181E0E83019F080E0089581E0089566
:101890000F931F93CF93EAE5F1E090E080E050E0F2
:1018A00040E060E477E0A0E8B1E0CFEF9C0136953E
:1018B000322F222737952795205C3C4F3183208398
:1018C000358324839A013695322F22273795279521
:1018D0008B01021B130B1383028317830683A087DC
:1018E000B28B138AC58B118A148A128613861486CA
:1018F0001186019769F44F5F5F4F90E080E0769624
:1019000011E0E23BF10791F6CF911F910F910895FD
:1019100081E090E0F4CF2F923F924F925F926F92CE
:101920007F928F929F92AF92BF92CF92DF92EF926F
:10193000FF920F931F93CF93DF93CDB7DEB76497DA
:101940000FB6F894DEBF0FBECDBF60934101409348
:10195000400198878F8366246394EF81F885849192
:10196000882309F4B9C1805290E0880F991FFC01C7
:10197000EB5EFE4F24912983FC01EA5EFE4F7490DA
:10198000309140013A87809141018E83822F80956A
:10199000982F91709987932F9B5F292E312C91500E
:1019A000492E512C9150E92FF0E0FB83EA839150AE
:1019B000292F30E03D832C838A848394912C0E81DF
:1019C0000D5F10E0EE80E394E394F12CCE80C3949D
:1019D000D12CFA85EF2FF0E0FC8BEB8B2E81A22E21
:1019E000B12C881F8827881F8A87398132953695C0
:1019F000369533703B8789818295869587708C8771
:101A0000998192959F709D87E981E695E695E69587
:101A1000EE87F72DF295F695F695F370FF87272D53
:101A2000229526952770288B372D32953F70398B5C
:101A3000872D8695869586958A8B70FEB0C041E08D
:101A40006B897C89C5010E94110C41E06B897C89FE
:101A5000C6010E94110C41E06B897C89C7010E947C
:101A6000110C41E06B897C89C8010E94110C4A85E8
:101A7000B401C5010E94110C4B8546254170B4018B
:101A8000C6010E94110C4C8546254170B401C70166
:101A90000E94110C41E0B401C8010E94110C4D8557
:101AA000462541706C817D81C5010E94110C4E85D7
:101AB000462541706C817D81C6010E94110C99817F
:101AC00092FB442740F946256C817D81C7010E9425
:101AD000110C41E06C817D81C8010E94110C49818B
:101AE0004695417046256A817B81C5010E94110C93
:101AF00049856A817B81C6010E94110C71FA4427D5
:101B000040F946256A817B81C7010E94110C41E0A2
:101B10006A817B81C8010E94110C472D4095441FAA
:101B20004427441FB201C5010E94110C4F85462570
:101B30004170B201C6010E94110C488946254170CE
:101B4000B201C7010E94110C41E0B201C8010E941C
:101B5000110C498946254170B101C5010E94110C43
:101B60004A8946254170B101C6010E94110C72FAE2
:101B7000442740F94625B101C7010E94110C41E0FC
:101B8000B101C8010E94110C8E818C5F80934101CC
:101B90002F8138852F5F3F4F38872F83DECE4A85D0
:101BA0006B897C89C5010E94110C4B8546254170CB
:101BB0006B897C89C6010E94110C4C8546254170B9
:101BC0006B897C89C7010E94110C41E06B897C897B
:101BD000C8010E94110C4D8546254170B401C50114
:101BE0000E94110C4E8546254170B401C6010E9429
:101BF000110CE981E2FB442740F94625B401C701F5
:101C00000E94110C41E0B401C8010E94110C4981ED
:101C10004695417046256C817D81C5010E94110C5D
:101C200049856C817D81C6010E94110C71FA44279F
:101C300040F946256C817D81C7010E94110C41E06D
:101C40006C817D81C8010E94110C472D4095441F75
:101C50004427441F6A817B81C5010E94110C4F8576
:101C6000462541706A817B81C6010E94110C48891A
:101C7000462541706A817B81C7010E94110C41E0B9
:101C80006A817B81C8010E94110C498946254170F7
:101C9000B201C5010E94110C4A8946254170B2016A
:101CA000C6010E94110C72FA442740F94625B20180
:101CB000C7010E94110C41E0B201C8010E94110C41
:101CC00041E0B101C5010E94110C41E0B101C60122
:101CD0000E94110C41E04FCF64960FB6F894DEBF1E
:101CE0000FBECDBFDF91CF911F910F91FF90EF906D
:101CF000DF90CF90BF90AF909F908F907F906F902C
:101D00005F904F903F902F900895E0E4F0E0E81B43
:101D1000F109FF27EE0FFF1FEA5AF04F85919491CA
:101D200008952F923F924F925F926F927F928F927F
:101D30009F92AF92BF92CF92DF92EF92FF920F935A
:101D40001F93CF93DF9300D000D0CDB7DEB73AE535
:101D5000A32E31E0B32EBC82AB8210E000E048E25B
:101D6000542E53E0252E312CAB81BC81CD90DC90DC
:101D700011971296ED90FC9013976F2C772494E0B6
:101D8000660C771C9A95E1F78D2D9927680E791EC0
:101D9000F301E752FD4FE49153968C9153978E17C0
:101DA000D1F0E111F7C08D3391F452968C91529796
:101DB0008F5F52968C930115110509F0E7C08230B0
:101DC00009F0B6C0B4E0B093540150925301AB8116
:101DD000BC815396EC930115110529F48091B20151
:101DE000833009F050C0EB81FC814084842C912C1D
:101DF000F401EE0FFF1FEA5AF04F85919491B10163
:101E00000E94EB1C9B012C0D3D1D3A832983842DE0
:101E10000E94850EB1010E94EB1CFB01EE0DFF1D1F
:101E2000EF2FFF27A4E0EE0FFF1FAA95E1F78981AE
:101E30009A81692F7727E60FF71FE752FE4FE4914B
:101E4000E23009F4C0C008F0B6C0E13009F4BEC009
:101E5000842D90E088199909813891050CF4BBC054
:101E60009A958B3FBFEF9B070CF0BBC02FEFEB8128
:101E7000FC8121878F9621E08F35910508F020E0C5
:101E8000EB81FC812487AB81BC8119969C911997C9
:101E90001A968C911A979111BAC018160CF0AFC00F
:101EA00081501A968C93F301EC54F94F2081AB8149
:101EB000BC8118963C9118971A968C911A97830FAB
:101EC00018968C931897EDE2F0E0222359F0ECE39A
:101ED000F0E0911107C05496EC91F0E0EB52FE4F08
:101EE000E491F0E0AB81BC811C962C911C971B9671
:101EF0009C9112160CF035C1492F092E000C550B80
:101F0000392F359535953595359509F431E0AB8107
:101F1000BC8151962C915197230F51962C93519738
:101F20004E175F070CF080C09F5F1B969C9380C08C
:101F3000833021F4F5E0F093540147CF843009F069
:101F400046CF23E02093B2011092B301AB81BC8154
:101F500055968C918F3F09F03ACF90916F01809107
:101F6000850189170CF4892F87FD8FEF90919B01D4
:101F700098170CF4982F8091B10189170CF4892FD0
:101F80008F5FAB81BC8155968C9321CF843009F053
:101F90001ECFDCCF81111BCFED3309F018CFAB8101
:101FA000BC8152968C915297882309F410CF8150AE
:101FB00052968C930CCFE33061F0E43009F048CFB7
:101FC00030EC432E45CF50E4452E42CF40E8442E1E
:101FD0003FCF412C3DCF8038AFEF9A070CF041CF77
:101FE00093958630910534F0E1E0AB81BC81199680
:101FF000EC9340CFAB81BC8119961C923BCF8823D8
:1020000009F451CF8F5FEB81FC8182874CCF97FF22
:1020100007C08E3F0CF447CF8150AB81BC8141CFCC
:1020200083300CF040CFEECF9150EB81FC81938751
:10203000EB81FC81D582C482F782E682E82FF0E052
:10204000EE0FFF1FEA5AF04F45915491AB81BC81CE
:102050001B968C901B97082C000C9908489D9001AA
:10206000499D300D589D300D1124232F330F330B14
:1020700025952595C20ED31ECD92DC920E94850E29
:10208000FC018E9EC0018F9E900D9E9E900D11248E
:10209000892F990F990B85958595E80EF91EAB81CF
:1020A000BC811396FC92EE9212970F5F1F4F5696CB
:1020B000BC83AB830430110509F056CE62EBC62E0B
:1020C00061E0D62EEAE5F1E0FA83E9837CE9E72EC8
:1020D00071E0F72EE981FA81EE16FF0609F448C097
:1020E000A981BA812D913C9106891789A901401BCC
:1020F000510B57FF03C0519541955109403151058E
:1021000074F5A981BA8112968D919C91A08DB18DA3
:10211000BC016A1B7B0B77FF03C071956195710948
:1021200060317105E4F4641775070CF0A8C0200F46
:10213000311F35952795C901409620513109A98154
:10214000BA8114966D917C911597428D538D6417C9
:1021500075070CF08DC02D933C93978B868B7696EC
:10216000BBCF19160CF064CF9150AB81BC81DDCE92
:1021700029813A812A5E3F4F3A832983C216D306CA
:1021800009F0A8CF3AE5E32E31E0F32EF701008104
:1021900011812481358162817381021713070CF04C
:1021A00091C000511109C8010E942F0C882339F0F9
:1021B000C8018827805F9E4FD7018D939C93D701DC
:1021C00012960D911C91139716968D919C911797CD
:1021D000081719070CF089C000511109B8018D9139
:1021E0009C910E942F0C882339F0B8016627605F0C
:1021F0007E4FF70173836283F6E1EF0EF11C2981B4
:102200003A81E216F30611F6A2E4B1E090E080E034
:1022100026E1D22E02E411E030E020E040E0281771
:10222000390709F47DC041117EC0F8015081D59E67
:10223000F0011124BF01665A7E4F7B01F5017289BE
:10224000F7015289751708F466C0F5017389F70123
:102250005389571708F05FC0FD01AC01319724176F
:10226000350709F455C04150510970817183F6CF8B
:10227000A981BA818D939C93378B268B70CF8A0F5F
:102280009B1F959587959C01205F3F4F4097A981A3
:10229000BA8116966D917C911797448D558D641770
:1022A00075073CF413969C938E931297318F208F71
:1022B00056CFA981BA8113963C932E931297918F92
:1022C000808F4DCF201731070CF079CF005F1F4F63
:1022D000C8010E942F0C882309F471CFC8018827F8
:1022E0004097F701918380836ACF801791070CF0A4
:1022F00083CF005F1F4FB8018D919C910E942F0CDE
:10230000882309F479CFB80166276051710971CF2C
:10231000F801808341E02F5F3F4F0F5F1F4F7FCF5A
:10232000411101C08C9301961196F6E1AF0EB11CDC
:102330008430910509F06ECFA0914201E6E1EA9F59
:10234000D0011124A65ABE4F54961C92A09143016D
:10235000EA9FD0011124A65ABE4F81E054968C9377
:10236000A0914401EA9FD0011124A65ABE4F82E0F9
:1023700054968C9380914501E89FF0011124E65A10
:10238000FE4F83E0848B0F900F900F900F90DF91A2
:10239000CF911F910F91FF90EF90DF90CF90BF9062
:1023A000AF909F908F907F906F905F904F903F90F5
:1023B0002F9008954F925F926F927F928F929F928B
:1023C000AF92BF92CF92DF92EF92FF920F931F9343
:1023D000CF93DF935C014B01EA01FA01149131962E
:1023E00004917C012C01410E511C3B01600E711CBB
:1023F000E414F504C4F46401C301F1E46F1671043C
:1024000014F080E490E0C816D9064CF440E0B60120
:10241000C7010E94110C2FEFC21AD20AEDCF8FEF25
:10242000E81AF80AE5CFAE014E5F5F4F212FB401E5
:10243000C5010E940C09DF91CF911F910F91FF9070
:10244000EF90DF90CF90BF90AF909F908F907F9054
:102450006F905F904F900895CF930E94FE0BC0E164
:1024600083FFC0E00E94FE0B82FDC0620E94FE0B53
:1024700087FDC4600E94FE0B84FDC8600E94FE0BB5
:1024800085FDC1600E94FE0B86FDC2608C2FCF913E
:1024900008951F920F920FB60F9211248F939F935E
:1024A0008091E1009091E100937F9093E10083FFA0
:1024B0000FC01092E90091E09093EB001092EC00B5
:1024C00092E39093ED001092C90198E09093F00090
:1024D00082FF22C093E09093E9009091F20099234B
:1024E00019F09AE39093E8009091BA01992341F092
:1024F0009091BA0191509093BA01911101C05D9AE7
:102500009091C801992341F09091C8019150909306
:10251000C801911101C0289A84FF18C08091E2007F
:102520008E7E81608093E2008091E1008F7E8093B7
:10253000E1008091BB018E7E80618093BB019F9101
:102540008F910F900FBE0F901F90189580FFF7CFBF
:102550008091E2008E7E80618093E2008091E100B4
:102560008E7E8093E1008091BB018E7E8160E5CFFD
:102570001F920F920FB60F921124CF92DF92EF921B
:10258000FF920F931F932F933F934F935F936F93FC
:102590007F938F939F93AF93BF93EF93FF93CF93CB
:1025A000DF93CDB7DEB76C97DEBFCDBF1092E900E9
:1025B0008091E80083FF25C068E0CE0145960E9427
:1025C0003D0B82EF8093E8008D8987FF39C09091A1
:1025D000E80090FFFCCF982F907609F034C19E89D7
:1025E0004F89588D2F89F88C911131C0803861F551
:1025F0008091B9018093F1001092F1008EEF8093E9
:10260000E8006C960FB6F894DEBF0FBECDBFDF9129
:10261000CF91FF91EF91BF91AF919F918F917F915A
:102620006F915F914F913F912F911F910F91FF906B
:10263000EF90DF90CF900F900FBE0F901F901895E6
:102640009EEF9093E800C7CF1092F100D5CF913064
:1026500059F48111D3CF4130510581F68091B901F0
:102660008D7F8093B901CACF933049F48111C6CFD1
:102670004130510519F68091B9018260F2CF953051
:1026800041F48091E80080FFFCCF20682093E300B4
:10269000B5CF963009F0A9C00B8D1C8D22E01092A9
:1026A000E9001092B7011092B601F2122EC01092FA
:1026B000B5011092B4010E940C0B1F8299E099831E
:1026C000FA8291E09E8390EA98879AEF9987209109
:1026D000B6013091B701275F3F4F3C832B838D8339
:1026E0001092E9001092B7011092B6011093B50153
:1026F0000093B40149E050E0BE016F5F7F4F80E07E
:102700000E94E60A0E940C0B79CF1093B50100934A
:10271000B4010E94230ADC0112960D911C9101154F
:10272000110509F410C1D801ED91FC910480F581E7
:10273000E02DBE016B5E7F4FC8010995009709F03F
:10274000FDC0F80100851185EACFF3E0FF120EC04D
:102750008F89882309F440C0823061F440E867E043
:102760008AEB91E10E940E15811148CF81E280939E
:10277000EB0047CF813029F440E86BE08EEA91E12D
:10278000F1CF833099F70E94230ADC011296ED9075
:10279000FC908E010F5F1F4F6801E114F10479F086
:1027A000D701ED91FC910680F781E02DB801C701BA
:1027B0000995080F111DF701E084F184EECFD801CF
:1027C0001C92F60101900020E9F73197BF016C19C6
:1027D0007D0940E0C601C6CF68E971E1FB01449183
:1027E00050E080E80E94E60A09CF973009F4BECF96
:1027F000983021F481E08093F10000CF993009F006
:10280000FDCE837009F0B2CFE1E2F1E081E031E08A
:1028100096E32191222371F08093E9003093EB003D
:10282000DF0111972C912093EC009093ED008F5FC6
:10283000873079F78EE78093EA001092EA008F895B
:102840008093C901DBCE8B8D9C8D1092E900109294
:10285000B7011092B6019093B5018093B401898DB0
:10286000811151C08E899D89913A49F4813209F0D4
:102870007DCF47E050E064E071E080E0B3CF91327B
:1028800009F074CF833269F48F89988DB0E0A0E0AD
:102890008093000190930101A0930201B093030182
:1028A000ADCE803269F48091E80082FFFCCF67E012
:1028B00084E091E00E943D0B8BEF8093E8009ECE78
:1028C000823209F09BCE8F8980930B0180910401A5
:1028D00090910501A0910601B0910701803B9440C1
:1028E000A105B10569F480910B0180FD09C088E75D
:1028F0008093B801809164008F7D809364007ECEC8
:102900001092B8017BCE0E94230ADC0112960D9131
:102910001C910115110509F429CFD801ED91FC9105
:102920000190F081E02DBE016B5E7F4FC8010995DB
:10293000811164CEF80100851185EBCF18161906B8
:102940000CF45CCE13CFF1E0FF12FFCE6CE971E125
:1029500045CF0F930FB70F931F9211248F939F931F
:10296000EF93FF93EEE4F1E08091490191E08D5FF8
:102970008D3710F08D579395809349018081890F91
:1029800080839181911D91830281011D0283838146
:10299000811D838309270F70092702950093480141
:1029A00035D0811100934601803989F400914701A7
:1029B000901B963070F087E78093000880930108A1
:1029C00088E198E08093600090936000FFCF90933F
:1029D00047018091B801815018F08093B80159F3F4
:1029E000EAE4F1E080819181019680839183828184
:1029F0009381811D911D82839383FF91EF919F911C
:102A00008F911F900F910FBF0F9118958FB18095E7
:102A1000807F669B88601C9B84600895EF92FF9284
:102A20000F931F93CF93DF93F82E192FE62E042FC9
:102A300081E0860F880F0E94B80A83E00E94B80ADE
:102A4000CF2DD12FEC0EFD2EF11CCE15DF05B9F0E8
:102A500007FF13C0FE0184910E94B80A182F80E07E
:102A60000E94B80A812321968111EFCFDF91CF9187
:102A70001F910F91FF90EF9008958881EDCF81E035
:102A8000F5CFEAECF5E01382128288EE93E0A0E045
:102A9000B0E084839583A683B7838BE291E0918332
:102AA00080838FEF9FEF95878487EAE1F6E08DE3DF
:102AB00091E0918380831582168280E1878314825E
:102AC000138211860895CDB7DEB76A97DEBFCDBFFA
:102AD000789483E084BD83E085BD81E080936E00BF
:102AE000E1E8F0E083E08083E0E881E08083E1E9F1
:102AF00083E08083E0E981E08083E1EC87E080830C
:102B0000E3EC81E08083E0EC82E08083E2EC81E032
:102B10008083EAE787E08083806880831092C90120
:102B20001092B9011092BB018091D700816080930F
:102B3000D70080EA8093D80089B5806189BD89B5C6
:102B4000826089BD09B400FEFDCF81E090E00E9463
:102B50004B0B8091D8008F7C80618093D80080914E
:102B6000E000807F8093E0008091E1008E7E809382
:102B7000E1008DE08093E200559A209A81EC8093E9
:102B80007C0081EF85B987EE84B984E38BB984EF4B
:102B90008AB9769A6E9880EF81BB10BA80E58CBDB9
:102BA00081E08DBD85E090E00E94FC0B5F9902C042
:102BB0005F9AF8CF5C98E9EDF3E09DE085918EBDDA
:102BC00000000DB407FEFDCF8EB59A95B9F75C9A5B
:102BD00081E88093640081E0809365000E94FE0B91
:102BE00087FF13C05C9885EA8EBD00000DB407FE18
:102BF000FDCF8EB55C9A40E060E080E00E94010C61
:102C000081E083BF889513BEFCCF0E94FE0B82FF3C
:102C100048C02D980E94FE0B84788438E1F40E940D
:102C2000FA0B88EC90E00E94FC0B2F9882E090E079
:102C30000E94851C8F3F29F06FEF82E090E00E9498
:102C40008D1C84EF91E00E94FC0B2F9A0E94FE0BDA
:102C500084788438D9F30E94FE0B84718431E1F4C6
:102C60000E94FA0B88EC90E00E94FC0B2E9882E008
:102C700090E00E94851C882329F060E082E090E0CB
:102C80000E948D1C84EF91E00E94FC0B2E9A0E9402
:102C9000FE0B84718431D9F388EC90E00E94FC0B28
:102CA000B4CF0E94FA0B81E090E00E94851C182F9F
:102CB000147081E090E00E94851C81FF0FC011110B
:102CC0002E9840EFE42EFF24FA940E94FE0B86FF1C
:102CD00029C041E061E081E00E94010C81E2809323
:102CE00021060E94480C1092540188E280935301FF
:102CF000BE016F5F7F4F1B0190914E0180912206B4
:102D0000792F781B872F209123062223C9F17093F6
:102D100024061092230680E090E0892B69F30E943C
:102D20000000EACF112331F024E0E216F10411F49F
:102D30002E9A2F9881E00E94D90900E128E546EEFD
:102D400053E0B70184E190E00E940C0980E00E940A
:102D5000D9098FE090E00E94FC0B3FEFE31AF30AE1
:102D600049E1E416F10409F0B0CF112311F02F9AD4
:102D70002D9880E991E00E94FC0B0E94FA0BAECFE7
:102D800020912106721740F48F5F821720F681E0B0
:102D900083BF889513BEBFCF01E0009323069093B5
:102DA000220680911D0690911E06019690931E06A4
:102DB00080931D068091B3018F5F8093B3011091C2
:102DC000B201113009F481C208F43DC2123009F495
:102DD000A2C2133009F4BBC28091B201833099F1D1
:102DE000F0906201EF2DF0E0EE0FFF1FEA5AF04F76
:102DF00085919491092E000CAA0BBB0BB595A79554
:102E00009795879520915A0130915B01281B390BCA
:102E1000309359012093580100915C0110915D019C
:102E20008F2D0E94850E092E000CAA0BBB0BB595A9
:102E3000A79597958795081B190B10935701009339
:102E40005601F0925501A0905501AD828A2D8195D1
:102E5000E82FF0E0EE0FFF1FEA5AF04FE590F490F4
:102E6000F88EEF8A0E94850E9A87898780E48A19F6
:102E7000E82FF0E0EE0FFF1FEA5AF04FA590B49054
:102E8000BA8EA98E0E94850E9C878B87BD80EB2C05
:102E9000F12CEE0CFF1C2EE3E222FF24F194E194CE
:102EA000F10814E9A12E1EE0B12E05E9C02E0EE0B6
:102EB000D02EF5012491F601049146E95EE070E020
:102EC00060E0C7010E940C09F0E4EF0EF11C20E85D
:102ED000E216F10474F36FE3E62EF12C270131E0E2
:102EE000431A5108F701EE0FFF1FEE5EF14F659098
:102EF000749029853A85D3010E94FF1C672F782F93
:102F0000892F992787FD9A957E876D879301AB85D9
:102F1000BC850E94FF1C672F782F892F992787FD7A
:102F20009A957E8B6D8B44E15DE058874F83D12C61
:102F3000C12CEF81F88525913491D3010E94FF1CAB
:102F4000872E982EA92EBB24A7FCBA946091560117
:102F5000709157017A8B698B2F89388DD4010E942B
:102F6000FF1C672F782F892F992787FD9A95AD85AC
:102F7000BE856A0F7B1F49895A89460F571FE0910A
:102F80005801F0915901FC8BEB8B9401A98DBA8DFE
:102F90000E94FF1C672F782F892F992787FD9A950C
:102FA000ED89FE89E60FF71FAB88BC88EA0DFB1D93
:102FB0008F0185E0159507958A95E1F70770CA019D
:102FC00025E0959587952A95E1F78770F03108F00F
:102FD000E3C1503108F0E0C1452F552774E0440F9C
:102FE000551F7A95E1F7EF2FFF27E40FF51FEC54FB
:102FF000F94F449128E0829FC0011124080F192F36
:10300000111D30E4439FF0011124E00FF11FEC5239
:10301000F54F049144E0049F800111240054154FA2
:10302000F8014491B201C6010E94110CF8013196D9
:1030300044914601FFEF8F1A9F0AB201C4010E941A
:10304000110CF80132964491B701C6010E94110C8F
:10305000F80133964491B701C4010E94110C22E09B
:10306000C20ED11C4F8158854C5F5F4F58874F83EC
:1030700050E8C516D10409F05CCF62E0E61AF10809
:1030800075E1E716F10409F029CFAD80EA2DF0E0F3
:10309000EE0FFF1FEA5AF04FE590F490FA86E986AA
:1030A0008A2D0E94850E98878F838D81805CE82F02
:1030B000F0E0EE0FFF1FEA5AF04FA590B490BC86E7
:1030C000AB860E94850E9E838D835AE5E52E51E0E6
:1030D000F52E812C912CD701AD90BC901197EB89E6
:1030E000FC89AE1ABF0A1296CD90DC9029893A89E4
:1030F000C21AD30A2F813885D6010E94FF1C472EA1
:10310000582E692E772467FC7A9429853A85D50153
:103110000E94FF1C672F782F892F992787FD9A958A
:10312000460E571E141415040CF03FC1052C000C5C
:103130006608770860E070E880E090E0A301920103
:103140000E949B1CD90123E330E00E94071D072F3A
:10315000182F292F332727FD3A95045F1F4F06317B
:1031600011050CF422C19501AB85BC850E94FF1CA2
:10317000272F382F492F552747FD5A952D873E87F2
:103180004F87588B9601AD81BE810E94FF1C672F2F
:10319000782F892F992787FD9A954D855E85640F35
:1031A000751F072E000C880B990B982F872F762FF1
:1031B0006627A30192010E949B1CD90125E530E0FE
:1031C0000E94071D672F782F892F992787FD9A95D1
:1031D000605C7F4FD7011E967C936E931D9750962F
:1031E0001C930E931F97F10160E0892D90E09F01E1
:1031F00022193309281739070CF0D0C06111D5C046
:103200009F012F5F3F4FA08176E1A72EAA9ED0019C
:103210001124A65ABE4F1F964D915C9104171507B5
:1032200084F4820D931DDC014E91BD01DC014C93B1
:10323000CB01E617F707B9F7F9013197808293942C
:1032400061E0F901D2CF109152011F5F109352013A
:10325000902FEAECF1E091119FEF8FEF9193919312
:10326000919391938150D0F74AE356E06FE070E07C
:1032700089E190E00E94DA1111FB662760F948EBC2
:1032800054E070E08EE490E00E94DA1148E26AE0D7
:1032900087EA94E00E948B0C49E36AE086E994E0B7
:1032A0000E948B0C0E942C12807359F00E94480CD3
:1032B0001092540188E2809353011092B30100935D
:1032C000B20181E00E94D90926CD41E0843128F481
:1032D00061E081E00E94010C7FCD883250F461E012
:1032E00080E00E94010C1093540188E28093530106
:1032F00073CD60E08C3338F480E00E94010C82E0F2
:1033000080935401F2CF81E00E94010C82E080930F
:10331000B20183E0F5CF813528F041E061E081E042
:103320000E94010C0E942C12282F482F4170942FCC
:10333000919581FF02C091E0941B9093630125FB5E
:10334000222720F9209366010E94910E45CD0E940C
:10335000910E80916F018130D9F06CF4882389F04F
:103360008091B3018F5F8093B301893C08F434CD21
:103370001092B20131CD823069F0833089F78AE052
:1033800001C087E08093540188E280935301E8CF25
:1033900088E0F8CF89E0F6CF48E02CCE611105C077
:1033A000820D931DFC0180829394F6E1EF0EF11CD7
:1033B000839454E0A52E8A108ECE2101E92CF12CA5
:1033C000FE82ED82C201821993092D813E8182170E
:1033D00093070CF07AC2D201ED912D012E2F30E02F
:1033E000B6E1EB9FF0011124E65AFE4FA584B684A6
:1033F00040E8A416B10430F7818587FD1BC1811117
:103400001BC181899485992309F418C190E0959591
:10341000879595958795837096E1929FA001939FDC
:10342000500D1124465A5E4FDA011F962D913C91A2
:103430002C3131050CF425C1263231050CF409C1BB
:10344000243331050CF4FCC0813009F41FC18330F2
:1034500009F408C148EC58E08CE099E0FC01749153
:1034600031966491E72FF0E0F595E795AE1ABF0A23
:1034700010E0FC0171E0DA0195918591111511F4CC
:103480001115B1F047E0480F4795469546957330C2
:1034900009F4440F499FA001149FE00DF11D159FF1
:1034A000F00D109629F0149FA00DB11D159FB00DC1
:1034B00011247F3F21F4109672E009F071E07D0144
:1034C000892E912CD501A80DB91D1A161B060CF0DA
:1034D00079CF261B3109A901480F511D1416150675
:1034E0000CF070CF203431050CF06CCF309709F41C
:1034F00069CF422F4770D42EA90137FF02C0495F20
:103500005F4F13E0559547951A95E1F7642F37FF04
:1035100004C0DD2011F06FEF640F442755274A19CE
:103520005B09B7FC02C050E040E030E83A19A0382F
:10353000B1050CF4392F341BA62F062E000CBB0B43
:103540007A2E70946F3F0CF0712C11E0282F2770A9
:1035500009F410E0C82EC694C694C694C10EAC0DF2
:10356000B11D19971CF0A8E0CA2EC61AC718262F3D
:10357000270D60E82603D0011124AA0DBB1D8D0183
:10358000040F151F979D400D511D1124CF01840F6D
:10359000951F6D2C0D2C000C7708733009F449C170
:1035A00008F083C0713009F4F7C0723009F00ACF17
:1035B0006FEF70E00D2C02C0660F771F0A94E2F7E0
:1035C00060957095B72ED801A653BE4FC20EC21695
:1035D00009F4F8CEAD0110E000E0031708F0CAC00E
:1035E000FC01E00FF11FE491F0E07F01062C02C026
:1035F000EE0CFF1C0A94E2F7F886EF8227FD05C067
:10360000FA01F080F622FE28F082DD2071F02730EA
:1036100064F47A01F0E8EF0EF11CF701A080EA2DC6
:10362000EB21A884AE2AF701A0820F5F1F4F4F5FE6
:103630005F4FD3CF83E0F0CE81E0EECE80E0ECCEE2
:10364000813049F1833099F040E75AE087E99AE008
:1036500005CF813029F1833079F04AEA59E08CEBCB
:1036600099E0FCCE44EB57E088EF97E0F7CE40EDD1
:1036700059E087EF99E0F2CE4EE559E080E799E016
:10368000EDCE42E559E087E599E0E8CE4EE358E01B
:1036900082E898E0E3CE40E25AE087E49AE0DECEAA
:1036A00044E859E086E999E0D9CE7A3FA9F17B3F19
:1036B00009F088CED801A653BE4FC20E2C1509F4CE
:1036C00081CEAD0170E060E0631708F05FC0FC01DF
:1036D000E60FF71FE491F0E07F01062C02C0EE0C2C
:1036E000FF1C0A94E2F727FD06C0FA0100811E2D97
:1036F000109510231083DD2051F0273044F48A0107
:1037000000581F4FF094F801E080FE20F0826F5FB8
:103710007F4F4F5F5F4FD8CFD801A653BE4FC20E29
:103720002C1509F44FCEAD0170E060E0631740F551
:10373000FC01E60FF71FE491F0E07F01062C02C0C8
:10374000EE0CFF1C0A94E2F727FD04C0FA01108179
:103750001E291083DD2049F027303CF48A010058EF
:103760001F4FF801E080FE28F0826F5F7F4F4F5FB0
:103770005F4FDCCF2F5F880D991DA058BF4F27CF1B
:103780002F5F880D991DA058BF4FCACF2F5F880D9E
:10379000991DA058BF4F92CF4E0D5F1DD801A65363
:1037A000BE4FC20EC21609F40DCE8D01F12CE12CD4
:1037B000E316B8F5FA01EE0DFF1D649170E0062CDA
:1037C00002C0660F771F0A94E2F760957095FC01BE
:1037D000EE0DFF1DE491F0E05F01062C02C0AA0C83
:1037E000BB1C0A94E2F7B886AF8227FD05C0F8013A
:1037F000B080B622BA28B082DD2069F027305CF4B0
:103800005801F0E8AF0EB11CF50160816723F8851F
:103810006F2BF5016083FFEFEF1AFF0A0F5F1F4F59
:10382000C7CF2F5F880D991D480D591DA058BF4F58
:10383000B9CFE32EF12CFC01E40FF51FD801A653FC
:10384000BE4F00E810E00E191F09B4016E197F0980
:10385000660F771FEE24E394F12C0D2C01C0EE0CC3
:103860000A94EAF75C2DC32ECF93DF93ED01EF9618
:10387000EF9622968590A590DD2059F08E9C400110
:10388000AE9C500127302CF4F880B094FB20F9282E
:10389000F99222233AF0FC90A094FA20F828FD92A5
:1038A0000C94531C11963A9529F75A9551F03C2DDA
:1038B00023951124E60FF11DA00FB11DC00FD11DDE
:1038C000D9CFDF91CF9111247DCDE0915401EE232A
:1038D00009F4F7CCE15090E080E0EA3038F4F0E011
:1038E000EE0FFF1FE45FFE4F8081918145E061E3B1
:1038F0000E948B0C80915301882321F0815080938A
:103900005301DFCC10925401DCCCF999FECF92BD6B
:1039100081BDF89A992780B50895262FF999FECF91
:103920001FBA92BD81BD20BD0FB6F894FA9AF99ADC
:103930000FBE01960895052E97FB1EF400940E9479
:10394000B21C57FD07D00E94BA1C07FC03D04EF4EE
:103950000C94B21C50954095309521953F4F4F4F98
:103960005F4F089590958095709561957F4F8F4F2B
:103970009F4F0895A1E21A2EAA1BBB1BFD010DC08B
:10398000AA1FBB1FEE1FFF1FA217B307E407F5070F
:1039900020F0A21BB30BE40BF50B661F771F881FEB
:1039A000991F1A9469F760957095809590959B0181
:1039B000AC01BD01CF010895A29FB001B39FC0012A
:1039C000A39F700D811D1124911DB29F700D811D4B
:1039D0001124911D089597FB072E16F4009407D02B
:1039E00077FD09D00E940E1D07FC05D03EF490958E
:1039F00081959F4F0895709561957F4F08950E941E
:103A0000DC1C332312F48A1B9B0B0C94091D0E94AF
:103A1000DC1CB7FF0895821B930B0895AA1BBB1BE8
:103A200051E107C0AA1FBB1FA617B70710F0A61BBE
:103A3000B70B881F991F5A95A9F780959095BC01DF
:103A4000CD010895EE0FFF1F0590F491E02D09942C
:103A5000F894FFCFFFFFFFFF00E10000000000002F
:103A60000B010101F700ED00E300D800CD00C2001A
:103A7000B700AC0000C180810000000000000037EA
:103A80000A5F0B580A4D0A9E0A5C0A7A0A00000077
:103A9000004A0B00FFFFFFFFFFFFFFFFFFFFFFFFDD
:103AA000FFFFFFFFFFFFFFFFFFFFFFFFFFFFFFFF26
:103AB000FFFFFFFFFFFFFFFFFFFFFFFFFFFFFFFF16
:103AC000FFFFFFFFFFFFFFFFFFFFFFFFFFFFFFFF06
:103AD000FFFFFFFFFFFFFFFFFFFFFFFFFFFFFFFFF6
:103AE000FFFFFFFFFFFFFFFFFFFFFFFFFFFFFFFFE6
:103AF000FFFFFFFFFFFFFFFFFFFFFFFFFFFFFFFFD6