:100000000C949C060C94C4060C94C4060C94C40670
:100010000C94C4060C94C4060C94C4060C94C40638
:100020000C94C4060C94C4060C94A11D0C94101ED0
:100030000C94C4060C94C4060C94C4060C94C40618
:100040000C94C4060C948C200C94C4060C94C40626
:100050000C94C4060C94C4060C94C4060C94422060
:100060000C94C4060C94C4060C94C4060C94C406E8
:100070000C94C4060C94C4060C94C4060C94C406D8
:100080000C94C4060C94C4060C94C4060C94C406C8
:100090000C94C4060C94C4060C94C4060C94C406B8
:1000A0000C94C4060C94C4060C94C40605A84CCD4C
:1000B000B2D44EB93836A9020C50B9918688083CA2
:1000C000A6AAAA2ABE000000803F058001812C0458
:1000D000FC022C02FC084004FC024002FC08000068
:1000E000058001815C066C0678046C067806800445
:1000F0000000058001812C04FC022C02FC08340461
:10010000FC023402FC080000058001815C066C06DC
:10011000780464066C065804000005800181100410
:10012000FC021002FC081804FC023C02FC0800005F
:1001300005800181400650065C04480658066404A8
:100140000000058001814001FC034001FC033C01EB
:10015000FC033C01FC034801FC034801FC035C0177
:10016000FC033C01FC0300000580018170086C0465
:10017000700478085C048C040000058001812C0167
:10018000FC052C01FC012C01FC034001FC033401A3
:10019000FC053401FC013C01FC03EC01FC03000004
:1001A000058001815C0C5802500264086C08000054
:1001B000058001813C01FC053C01FC013C01FC0384
:1001C0002001FC033401FC053401FC013401FC0373
:1001D0001801FC030000058001816C1064066C06A8
:1001E00058040000058001812C01FC052C01FC0154
:1001F0002C01FC034001FC033C01FC053C01FC011B
:100200003C01FC031C01FC030000058001815C0C27
:10021000580264026C0870080000058001813C01EE
:10022000FC053C01FC013C01FC031C01FC033C01FE
:10023000FC053C01FC013C01FC031C01FC0300002B
:10024000058001816C1064065C065804000005807E
:100250000181400C3C0240023C0640064804500C20
:100260003C02400248065006580400000580018107
:100270005C0C500258025C08700800000580018187
:100280002C01FC052C01FC012C01FC034001FC03AA
:100290002C01FC052C01FC012C01FC034001FC039A
:1002A0000000058001811004FC021002FC02100213
:1002B000FC040C02FC041002FC041802FC022004E2
:1002C000FC022002FC042002FC021804FC022002B2
:1002D000FC022002280400000101FF030101F703D2
:1002E000175344001613780016131400151020003D
:1002F00015201000540A03E181867F3E186D830F9C
:100300000F0E0183866033186DC3198F1803C38ED7
:100310006033186DE330CF1803C39E603630CDE3F1
:1003200060CF3006C79E7E3E30CDB360CF300CC666
:10033000F6603330D9B660CF33CFCCF66061B0DB36
:100340001E60CF30D86CE6C061B0DB1E618F19989B
:100350006CC6C063B19B0E330F0FB078C6FF7E1F13
:100360001B061E0FA2027C026C024E0240021A0201
:100370000A02E401D601B001A0017A01680142013C
:1003800030011A010801F200E000CA00B90B9B0B12
:100390008B0B730B20202000050202BE915A7D8C2E
:1003A0007D82011112C80A0202BE915A73647382DF
:1003B000011213C8320300BE915A68965E78011389
:1003C0001332140300BE915A7C6472780112123207
:1003D000320300BE915A91647364021013280A0319
:1003E00000BE915A9164736402101328320202BE57
:1003F000915A868C847801141432020202BE915AFA
:100400006E647078011010321E0300BE915A736E34
:10041000737801111132020300BE915A81868178EE
:1004200001131332320300BE915A82787264030FB3
:100430001419140300BE915A82787264030F1419C0
:100440003C0202C3AF916EB446640210143214022F
:1004500002C3AF91823CAA640210142D0A0202C3A7
:10046000AF916EB4466402111332140202C3AF910D
:10047000823CAA640211132D320300BE915A727895
:10048000726402111314140300BE915A72787264DC
:1004900002111314220300BE915A788C875A03115B
:1004A00017280F0300BE915A788C875A031117281A
:1004B0000F0300BE915A788C875A031117281E0328
:1004C00000BE915A6E917C5A0211131E0F0300BE9A
:1004D000915A8C5F735A0211131E500202C8AF7DED
:1004E00078A5555A040F15280A0202C8AF7D78A5D1
:1004F000555A041014280A0202C8AF7D78A5555A2F
:1005000004101428460701BEAA5A82787378060F91
:100510001519460300BE915A676C6250020E101EF8
:100520000A0300BE915A676C6250020E101E02034D
:1005300000BE915A88838D500214161E0A0300BE15
:10054000915A88838D500216141E3C0202BEA57873
:100550007D509650020F1514080202BEA5787D50FA
:10056000965001111128080202BEA5787D509650C0
:1005700001101028080202BEA5787D509650020F87
:100580001514080202BEA5787D509650011111285D
:10059000080202BEA5787D5096500110102828024E
:1005A00002BEA57873A05050030F15190A0202BEAF
:1005B000A57873A05050031014190A0202BEA57842
:1005C00073A05050031014190A0202BEA57873A03C
:1005D0005050030F1519280300BE915A78646E5AC3
:1005E000030D13190F0300BE915A78646E5A030D60
:1005F00013190F0300BE915A78646E5A030D131934
:100600003C0202BE915A735F6E46020E1028010230
:1006100002BE915A7D918246021416281E0202BE25
:10062000915A735F6E46020E1028010202BE915A63
:100630007D91824602141628500501BEAA5A6E7892
:10064000696E040E1623050501BEAA5A8278876ECC
:10065000040E1623500300C3A55F788C8250031349
:1006600017280F0300C3A55F788C82500313172847
:100670000F0300C3A55F788C8250031115280A036D
:1006800000C3A55F78646E50030D11280F0300C3EB
:10069000A55F78646E50030D11280F0300C3A55F9A
:1006A00078646E5A030F1328280202BE915A878776
:1006B0008B6E02101419020202BE915A7D7D7F6E6C
:1006C00002101419020202BE915A7373716E021065
:1006D0001419020202BE915A6969656E021014195A
:1006E000140202BE915A8282806E02101419020214
:1006F00002BE915A7878786E02101419020202BE76
:10070000915A6E6E706E02101419460701BEAA5AF5
:1007100082787378060F1519320300BEA55A788CBB
:100720008250031317280F0300BEA55A788C8250FD
:10073000031317280F0300BEA55A788C82500311AB
:1007400015280A0300BEA55A78646E50030D1128BF
:100750000F0300BEA55A78646E50030D11280F03D5
:1007600000BEA55A78646E5A030F1328500202C3C4
:10077000AF916EAA4646030F1514140202C3AF913F
:100780008246AA46030F150F0A0202C3AF916EAA52
:10079000464603101414140202C3AF918246AA46BF
:1007A000030F150F140300BE915A6E917C5A02106C
:1007B000140F0A0300BE915A8C5F735A0210140F73
:1007C000460501BEAA5A6E78696E040E1623050509
:1007D00001BEAA5A8278876E040E16231E0701BE38
:1007E000AA5A78787850060F1519640202BE915AF9
:1007F000765D7150030D1128010202BE915A7D965B
:10080000825003131728140202BE915A765D71506C
:10081000030D1128010202BE915A7D9682500313E6
:100820001728140202BE915A765D7150030D1128EB
:10083000010202BE915A7D968250031317283C0391
:1008400000BE915A828C808C03141619020300BEDC
:10085000915A6E64708C03100E190A0300BE915AEF
:10086000736E738C03110F19020300BE915A7D82BF
:100870007D8C031315195A0501BEAA5A8278736438
:10088000040F151E140300BEA55A788C8250031362
:1008900017280A0300BEA55A788C82500313172824
:1008A0000A0300BEA55A788C8250031115280A034A
:1008B00000BEA55A78646E50030D11280A0300BECD
:1008C000A55A78646E50030D11280A0300BEA55A7C
:1008D00078646E5A030F1328640701BEAA5A6E7813
:1008E0006978030E1619050701BEAA5A827887781F
:1008F000030E16190A0501BEAA5A6E786982040C05
:100900001819050501BEAA5A82788782040C1819A5
:10091000781E03C2BCB27A7A7A14000C18FF4580A4
:10092000518841823805000005804D88C181500200
:1009300000000580C181080100000806FC307878BD
:1009400030FC100D20007FE02FC0078033001F8097
:10095000F9801F80330007802FC07FE02000080649
:100960001C70FCFC701C080618FC3838FC1805804C
:1009700041814C015401000005003801680100006C
:10098000450068010000DC02D802000000002400DD
:1009900027002A002D003000D5F08D14A1C881CF8A
:1009A000D9F1AF200000000000250028002B002E08
:1009B00000310003053F213F1208120A100A0E1CE5
:1009C0000E0C1E0C141A14161F161E131E1E1B1EB0
:1009D0001E1F1E3F213F3A2F3A173D173F213F1858
:1009E0001F02040A041F0E04040E1F0A1F0A0E0E23
:1009F0001F04110E2E252E2F2A2E262929021F0212
:100A0000081F08150E04040E150E15151B151B04E2
:100A10000604040C040000000017000300031F0A72
:100A20001F16371A1904130A153A000300000E1195
:100A3000110E000A040A040E04003000040404002D
:100A400010001804031F111F121F101D1517111578
:100A50001F07041F17151D1F151D01011F1F151F3F
:100A600017151F000A00003200040A110A0A0A11B1
:100A70000A040115020E11171E051E1F150A0E117C
:100A80000A1F110E1F15111F05010E111D1F041F36
:100A9000111F1108100F1F041B1F10101F061F1E0F
:100AA000040F0E110E1F09060E112E1F051A121526
:100AB00009011F011F101F0F180F1F0C1F1B041B04
:100AC000031C03191513001F11030418111F000242
:100AD00001022020200001020C121E1F120C0C1219
:100AE000120C121F0C1A14041E05242A1E1F021CAD
:100AF000141D1020201D1F0814111F101E041E1E7F
:100B0000021C0C120C3E0A040C123E1E04021416A7
:100B10000A020F120E101E0E100E1E081E120C12CC
:100B200026281E322A26041E21001F00211E040131
:100B300002013F213F0500893008023802497868E8
:100B40001400000580C18164016401640100000893
:100B50000500F048F00008050000F800000805C096
:100B6000704870C0458091884182080600000803E3
:100B7000E0E0E0418205805C01FC015801FC01508D
:100B800001FC014801FC0140080000418205808C05
:100B90000288028002780270080000418205805CB1
:100BA00001FC055C01FC015C01FC074001FC054007
:100BB00001FC014001FC070000418205805C0264E9
:100BC00002400448084002500258045C0800000338
:100BD000000100050007000900010005000B000DE1
:100BE000000F0011000F0013000F001100FFFF00A5
:100BF000000200040006000800020004000A000CC5
:100C0000000E0010000E0012000E001000FFFF0882
:100C10000B000202020000090400000102020000B1
:100C20000524001001052401010104240206052405
:100C30000600010705810310004009040100020AB3
:100C40000000000705020240000007058302400083
:100C5000000403090412010002EF0201404123369F
:100C60008000010102030141726475696E6F204CBE
:100C70004C430041726475696E6F204C656F6E6104
:100C800072646F000500680138010000F6E8DBCFF0
:100C9000C3B8AEA49B928A827B746E68625C575222
:100CA0004E4945413E3A3734312E2C292725232100
:100CB0001F1D1C1A1917161514131211100F0E0DE3
:100CC0000C0B0A0908070600000000230026002973
:100CD000002C002F00040404040403040502020293
:100CE00002040302020202060606060606040402C5
:100CF00002020404040802011040804010204080D9
:100D00004080080204018040201002011080102061
:100D10004040200000000200090F00000304010011
:100D20000C000000000000000000000000000000B7
:100D300000000801C0002F2111241FBECFEFDAE010
:100D4000DEBFCDBF12E0A0E0B1E0E6EEFBE602C000
:100D500005900D92A834B107D9F727E0A8E4B2E0D6
:100D600001C01D92A43FB207E1F716E0CCE9D6E03E
:100D700004C02197FE010E940A35CB39D107C9F77B
:100D80000E944E210C94F1350C9400004F925F921A
:100D90006F927F928F929F92AF92BF92CF92DF928B
:100DA000EF92FF920F931F93CF93DF93FA01E4909A
:100DB000F12C3196C491E2E36E2EEDE07E2EF3012C
:100DC000C490E3E3FDE0E4915701A80EB91E2A1593
:100DD0003B050CF0A0C0C20ED32ED11C8C159D0576
:100DE0000CF099C0D0E04E01860E971E081519052B
:100DF0000CF091C0E00FF12FF11D6E177F070CF082
:100E00008AC02901481A590A821793070CF0412C0D
:100E1000D801A61BB70B601771070CF0A0E0AC144B
:100E2000BD041CF07601E81AF90A8E169F061CF024
:100E3000EF01C61BD70B1A2FA0E8B0E0A82EA21A0C
:100E4000B62EB01A812F90E08C179D070CF063C06E
:100E5000042DCB2CC10ED12C202F30E02E153F05B8
:100E60000CF057C0FA01649170E0695F7F4FE3E0D6
:100E700075956795EA95E1F7689FF001699FF00D18
:100E8000789FF00D112463E0359527956A95E1F779
:100E90002E5F3F4FE20FF31FE40FF51FE491202F69
:100EA0002770BD0102C0759567952A95E2F7F0E0BD
:100EB000E623F723EF2B59F1F301249130E0295F6A
:100EC0003F4F63E0359527956A95E1F7C29EF001A3
:100ED000C39EF00DD29EF00D11246A2D600F262FB7
:100EE00030E073E0359527957A95E1F7E20FF31F2F
:100EF000EC5CF24FE49167709D0102C03595279537
:100F00006A95E2F7F0E0E223F323EF2BB1F40F5FF1
:100F1000A3CF1F5F97CF80E0DF91CF911F910F91FB
:100F2000FF90EF90DF90CF90BF90AF909F908F9009
:100F30007F906F905F904F90089581E0EDCFCF93B9
:100F4000DF93E3EDF7E0C081D1818881A7EDB7E0C1
:100F50009C91892B8883C091D507D091D607988121
:100F60008091D8078095892388830190F081E02DB6
:100F700090818C91809589238083DF91CF91089512
:100F800070E0AB01440F551F485D584FDA0197964A
:100F900090E0880F991F9596ED91FC91E80FF91F4D
:100FA00025913491495A5F4FFA0136A325A3F901DF
:100FB0008591949190915907989F802D1124685D97
:100FC000784FFB01EE57FF4F8083F901A591B49153
:100FD0004B2F50E08417150629F020F0F9012591D8
:100FE0003491832F6B577F4F989F802D1124FB01E5
:100FF00080830895FC018091CC04882311F13FB7D0
:10100000F89482E08093E9002091F200822F90E032
:101010001816190614F481E090E0882339F0289816
:1010200044E64093CB044091F1004083222339F001
:101030002091F200211103C02BE62093E8003FBF6E
:1010400008958FEF9FEF08952FB7F89483E0809372
:10105000E9009091E800892F807295FF04C090917B
:10106000F20080E4891B2FBF08958091C304811191
:101070000DC082E08093BF0484E08093C00410928E
:10108000C2041092C10481E08093C3048FEB94E00A
:101090000895CF93DF931F92CDB7DEB76983DC014C
:1010A000ED91FC910280F381E02D41E050E0BE0122
:1010B0006F5F7F4F09950F90DF91CF91089583E087
:1010C0008093E9008091F200882319F08AE38093ED
:1010D000E80008950E94240890E00895CF93DF93DC
:1010E0001F92CDB7DEB7FC018485958597FD08C0BA
:1010F0002FEF3FEF358724870F90DF91CF91089531
:10110000CE0101960E94FA07019719F4898190E0B7
:10111000F3CF8FEF9FEFF0CF0F931F93CF93DF931A
:101120001F92CDB7DEB78C01FC018485958597FFB2
:101130000BC0CE0101960E94FA07019771F48981D4
:1011400090E0F80195878487F801848595850F9054
:10115000DF91CF911F910F9108958FEF9FEFF1CF06
:10116000FC018485958597FD0BC09FB7F89482E0BC
:101170008093E9008091F2009FBF90E0019608956E
:101180009FB7F89482E08093E9008091F2009FBFBE
:1011900090E008954091B9045091BA042091B704A9
:1011A0003091B80442175307B4F49091E800957059
:1011B000E1F39091E80092FD19C08093F1008091D5
:1011C000B9049091BA0401968F739927892B19F469
:1011D0008EEF8093E8008091B9049091BA04019653
:1011E0009093BA048093B90481E0089580E0089553
:1011F000EF92FF920F931F93CF93DF93F82E192F47
:10120000E62E042F81E0860F880F0E94CA0883E033
:101210000E94CA08CF2DD12FEC0EFD2EF11CCE1549
:10122000DF05B9F007FF13C0FE0184910E94CA08D0
:10123000182F80E00E94CA08812321968111EFCFE8
:10124000DF91CF911F910F91FF90EF9008958881CA
:10125000EDCF81E0F5CFDF92EF92FF920F931F93D6
:10126000CF93DF93D82E8A01EB017B01E40EF51EAC
:10127000CE15DF0559F0D7FE12C0FE0184910E9401
:10128000CA0821968111F4CF0FEF1FEFC801DF913B
:10129000CF911F910F91FF90EF90DF90089588817B
:1012A000EECF0F931F93CF93DF931F92CDB7DEB78F
:1012B00082E0898342E450E06FE07CE080E80E94B5
:1012C0002B090E943508DC0112960D911C91011525
:1012D000110589F0D801ED91FC910280F381E02D98
:1012E000BE016F5F7F4FC801099597FD04C0F801EB
:1012F00000851185ECCF89810F90DF91CF911F91EF
:101300000F910895615030F02091F100FC0120838D
:101310000196F8CF289884E68093CB040895089529
:10132000AF92BF92CF92DF92EF92FF920F931F93F3
:10133000CF93DF936C017B018B01040F151FEB0131
:101340005E01AE18BF08C017D10759F06991D601E8
:10135000ED91FC910190F081E02DC6010995892B5A
:1013600079F7C501DF91CF911F910F91FF90EF9019
:10137000DF90CF90BF90AF900895FC0144815581DC
:101380006081718182EC97E00C94900981508F30DC
:1013900008F047C0E82FF0E0E053F64F0C940A3510
:1013A000ED09F109DF09E509E909110A110A110A34
:1013B000F409FA09FE09020A080A110A0C0A8091C6
:1013C00080008F77809380000895809180008F7DCA
:1013D000F9CF80918000877FF5CF84B58F7784BD6A
:1013E000089584B58F7DFBCF809190008F77809397
:1013F00090000895809190008F7DF9CF80919000AA
:10140000877FF5CF8091C0008F778093C0000895CB
:101410008091C0008F7DF9CF8091C200877F80933B
:10142000C20008951F93CF93DF93282F30E0F90176
:10143000ED5EF24F8491F901EC50F34FD491F90134
:10144000EB52F34FC491CC23A9F0162F81110E94C7
:10145000C609EC2FF0E0EE0FFF1FEB55F64FA591FC
:10146000B4918FB7F894EC91111108C0D095DE2398
:10147000DC938FBFDF91CF911F910895DE2BF8CFC2
:10148000CF93DF9390E0FC01EC50F34F24918B520B
:10149000934FFC0184918823C9F090E0880F991F35
:1014A000FC01E657F64FA591B491FC01EB55F64FC0
:1014B000C591D49161110DC09FB7F8948C9120957E
:1014C00082238C938881282328839FBFDF91CF912B
:1014D0000895623051F49FB7F8943C91822F809523
:1014E00083238C93E8812E2BEFCF8FB7F894EC9168
:1014F0002E2B2C938FBFEACFDF92EF92FF920F93A8
:101500001F93CF93DF93C8E2D7E00EE217E0EE24FB
:10151000EA9462E08A850E94400A2A8530E0F90157
:10152000ED5EF24F8491F901EC50F34FF490F90124
:10153000EB52F34FD490DD2029F181110E94C609AE
:10154000ED2DF0E0EE0FFF1FE953F34FA591B4919D
:10155000EC918989FE22B1F081111CC021960C17F3
:101560001D07B9F680913F079091390791509E3F32
:10157000B8F490913B0791509E3F90F48F5F809319
:101580003F0714C089898F5F898B60E08A850E943C
:10159000400AE4CF8F3F11F4198AF7CFE98AF5CFDB
:1015A000882321F08F3F51F410923F07DF91CF91B4
:1015B0001F910F91FF90EF90DF9008958FEFDFCF95
:1015C0003FB7F89480914C0290914D02A0914E0249
:1015D000B0914F0226B5A89B05C02F3F19F0019688
:1015E000A11DB11D3FBFBA2FA92F982F8827BC017D
:1015F000CD01620F711D811D911D42E0660F771FA5
:10160000881F991F4A95D1F708958F929F92AF92A4
:10161000BF92CF92DF92EF92FF924B015C010E944A
:10162000E00A6B017C010E94E00A6C197D098E09B9
:101630009F09683E734081059105A8F321E0821A55
:101640009108A108B10888EEC80E83E0D81EE11CFD
:10165000F11C81149104A104B10429F7FF90EF90CB
:10166000DF90CF90BF90AF909F908F9008958F9212
:101670009F92AF92BF92CF92DF92EF92FF920F9321
:101680001F93CF93DF936C017B018A0180910C0142
:10169000882309F45CC08091CC04882309F457C0E6
:1016A0008091BE0480FF05C08091E000826080933D
:1016B000E000E801B12C8AEFA82E93E0892E2AE3FE
:1016C000922E209711F4BB20D9F10E942408811199
:1016D0000AC0AA94AA20D9F161E070E080E090E00D
:1016E0000E94050BEECF8C171D0611F00CF08C2F0D
:1016F0009FB7F8948092E9002091E80025FD02C090
:101700009FBFDFCF282F30E0C21BD30BF7018150E2
:1017100020F041914093F100FACFE20EF31EBB207E
:1017200021F09092E800B12CEBCF8091E80085FD8C
:10173000E7CF9092E800BB24B394209709F3F3CF4E
:101740005D9884E68093BD04101611063CF081E09C
:1017500090E0F6019383828310E000E0C801DF91FE
:10176000CF911F910F91FF90EF90DF90CF90BF909E
:10177000AF909F908F9008958091D1068823B1F00B
:101780008091C5069091D206992319F09091C606D2
:10179000890F9091D306992319F09091C706890F6C
:1017A00090E09093990080939800089580E0EACFAC
:1017B000633021F170E0DC01A60FB71FDF961C92A9
:1017C000DF97D9961C92D997FB01EE0FFF1FE80F08
:1017D000F91FED59FF4F11821082AE5BBF4F1C9273
:1017E000FB01EB53F94F1082FB01E853F94F1082D4
:1017F0006F52794FFB0110820C94BC0B0895CF936C
:10180000DF93C82FD0E0C85DD84F1DA2682F8DE4AC
:1018100097E00E94D80B18A6DF91CF910895EF9220
:10182000FF920F931F93CF93DF93EC017B01042F63
:1018300010E0433019F0642F0E94D80BF801EE0F2E
:10184000FF1FEC0FFD1FF2A2E1A2F8017896EE0F48
:10185000FF1FEC0FFD1F11821082FE01E00FF11F30
:1018600081E0838389E084AFDF01AB5BBF4F1C92D3
:1018700016961C92EF5AFF4F1082DF91CF911F9165
:101880000F91FF90EF900895CF93DF93682F70E052
:10189000EB01C85DD84F9DA19923C1F098A5911186
:1018A00015C0DB01AA0FBB1FA95CB84FEAAD2E2FF4
:1018B00030E0220F331F9596ED91FC91E20FF31F5C
:1018C000259134912F3F320721F41DA2DF91CF9152
:1018D0000895FE01ED5BFF4F3083660F771FFB011C
:1018E000E05CF84F3327220F331F05A0F6A1E02D4F
:1018F000E20FF31F65917491833029F0482F8DE436
:1019000097E00E940F0C8AAD8F5F8AAFDFCF40E077
:1019100064E87CE08DE497E00C940F0C40E060E814
:1019200079E00C940F0C40E068E779E00C940F0C20
:101930002F923F925F926F927F928F929F92AF927F
:10194000BF92CF92DF92EF92FF920F931F93CF93AC
:10195000DF93EC01F901E4903196849164350CF049
:1019600015C140330CF012C10E2C000CFF08062FDD
:10197000062E000C110BF701E00FF11F1E161F06BB
:101980000CF004C1A82FC42E042E000CDD08560153
:10199000A80EB11C87FDBA941A141B040CF0F6C0F3
:1019A0002E5F3F4F570197E0A90EB11CB7FE04C050
:1019B0005701BEE0AB0EB11CB3E0B594A794BA9545
:1019C000E1F747FF0AC0A42FA80FAC9CC001AD9C53
:1019D000900D1124281B390B40E08A2F0A2E000C91
:1019E000990B840F911D47FD9A95C19714F0A0E3C0
:1019F000A41BFF8467FD60E0E535F10514F0E4E524
:101A0000F0E09E2FCC85C427C62E062E000CDD08E4
:101A1000F601E01BF10B8F014F01F7E08F229924B3
:101A2000E0E8F0E002C0F595E7958A94E2F77E2FB2
:101A300017FF02C0095F1F4FF3E015950795FA9550
:101A4000E1F7200F311F542F577081E001C0880F3C
:101A50005A95EAF7459545954595F601B4E54B024B
:101A6000E00DF11D1124AF0143535B4FD0E02A2E4E
:101A7000AA0F3308EE24E394BB24D21513040CF010
:101A800085C0F9015490F1E0FF121AC0962E8A0128
:101A9000E72F6901991608F057C08E2E852021F096
:101AA000D8018C90882A8C92E69531F4BFEFCB1A3E
:101AB000DB0AF6015490E0E893940F5F1F4FEACFE2
:101AC000F1101CC0782E7094962E8A01E72F6901C0
:101AD000991608F039C08E2E852021F0D8018C90FF
:101AE00087208C92E69531F4BFEFCB1ADB0AF60122
:101AF0005490E0E893940F5F1F4FEACFF3E0FF129A
:101B00002CC0782E7094862E8A01972E6901891632
:101B1000D0F4E92DE52141F0D801EC916C2E682438
:101B200060FE0FC0E82BEC93969439F4BFEFCB1A0C
:101B3000DB0AF6015490E0E89E2E83940F5F1F4F5E
:101B4000E6CFE721F0CFCE25880F19F44C5A5F4F2E
:101B500081E0DF5F2A0D3B1D90CF962E8A01E72F93
:101B60006901991688F78E2E852021F0D8018C9076
:101B700088268C92E69531F4BFEFCB1ADB0AF6018A
:101B80005490E0E893940F5F1F4FEBCFDF91CF911C
:101B90001F910F91FF90EF90DF90CF90BF90AF908B
:101BA0009F908F907F906F905F903F902F900895BF
:101BB000DC01643570F5403360F51F968C911F97FA
:101BC000E62F062E000CFF0B242F25952595259535
:101BD00094E52902E00DF11D1124E353FB4F208110
:101BE000342F37708230B1F4822F90E0032E02C080
:101BF000959587950A94E2F780958170811114C0BC
:101C000081E090E001C0880F3A95EAF78095822341
:101C100080830895833091F71C968C91817064279E
:101C2000609561708613ECCF81E090E001C0880F71
:101C30003A95EAF7822BECCFAF92BF92CF92DF9228
:101C4000EF92FF920F931F93CF93DF93182F062FDE
:101C5000C0E0D3E08AEFD82E9EEFE92E842F847067
:101C6000C82E842F8270B82E842F8870A82E4170C1
:101C7000F42ECF5F8C2F880F8F5FE80ECC2081F081
:101C8000402F4D0F612F6C0F82EC97E00E94D80D12
:101C9000402F4C0F6D2F610F82EC97E00E94D80D02
:101CA000BB2081F0402F4D1B612F6C0F82EC97E021
:101CB0000E94D80D402F4C1B6D2F610F82EC97E0D6
:101CC0000E94D80DAA2081F0402F4C0F612F6D1B70
:101CD00082EC97E00E94D80D402F4D0F612F6C1BB6
:101CE00082EC97E00E94D80DFF2081F0402F4C1B22
:101CF000612F6D1B82EC97E00E94D80D402F4D1B89
:101D0000612F6C1B82EC97E00E94D80DCD173CF43C
:101D1000E7FCAFCFD150D394D394ED0CAACFDF9191
:101D2000CF911F910F91FF90EF90DF90CF90BF90D8
:101D3000AF9008950F931F93CF93DF93D82F162F53
:101D4000042FC0E0C0174CF4412F4C0F6D2F82ECD4
:101D500097E00E94D80DCF5FF5CFDF91CF911F9113
:101D60000F9108958F929F92AF92BF92CF92DF9280
:101D7000EF92FF920F931F93CF93DF93082FA62E1E
:101D8000842E922E83E0F82ED0E0C3E09AEFE92E65
:101D90001EEFBB24B394B20EDF5F1F0D4C2F440F18
:101DA0006A2D6C1BC92CCF0CDA2CDD1A81E04B0D8F
:101DB000881215C0802F8D0F0E949A0E4C2D6D2D0C
:101DC0008C2F800F0E949A0EDC1794F417FD04C02C
:101DD000C150E394E3941E0DF394F394DDCF802F70
:101DE0008D1B0E949A0E4C2D6D2D802F8C1BEACFDF
:101DF000DF91CF911F910F91FF90EF90DF90CF90E7
:101E0000BF90AF909F908F900895EF92FF920F93A5
:101E10001F93CF93DF938C01F62ED42FE22EC0E0D8
:101E2000CE1544F46F2D6C0F4D2FC8010E94D80DB4
:101E3000CF5FF6CFDF91CF911F910F91FF90EF9081
:101E40000895DF92EF92FF920F931F93CF93DF934A
:101E50007C01D62FD22EC42F002E000C110B040FA4
:101E6000111D47FD1A958C2F0C2E000C990B801715
:101E7000910744F42D2D4C2F6D2FC7010E94050FA3
:101E8000CF5FF1CFDF91CF911F910F91FF90EF9036
:101E9000DF9008954F925F926F927F928F929F9200
:101EA000AF92BF92CF92DF92EF92FF920F931F9368
:101EB000CF93DF93EC016A3049F42E8198858A85AF
:101EC000299F800D11248A871986A6C06D3009F4D8
:101ED000A3C0898483E588150CF487C0DA848FE277
:101EE0008D150CF482C01E812F812150330B129F5F
:101EF000C001139F900D1124880D911D87FC9A95A8
:101F0000181619060CF071C028858D2D0D2C000CAB
:101F1000990B129F800D911D1124181619060CF0B3
:101F200064C07F84C82C912CE62EF12C292D092C1D
:101F3000000C330B8F8190E0281739070CF054C048
:101F40000197E0E02817390771F0E89EF001E99E5B
:101F5000F00DF89EF00D11242E0F3F1FED85FE852C
:101F6000E20FF31FE4915D2C612C492C480C28856D
:101F7000862D062C000C990B2817190691F18CF16F
:101F8000AE2EB12CE0FF16C0113061F4462D4D0D80
:101F9000642DCE010E94D80DF501F595E795639467
:101FA000510EE5CF012F212F452D6C2DCE010E9422
:101FB000210FF2CF88899F85891771F38F871130A0
:101FC00041F4462D4D0D642DCE010E94D80D7F8623
:101FD000E3CF012F212F452D6C2DCE010E94210F23
:101FE000F6CF9394C10EA2CF7F862E813F81898543
:101FF000239F800D112489879D81992369F0082EE4
:10200000000C990B44E550E0239F4019510911241D
:10201000481759070CF452CF81E090E0DF91CF913F
:102020001F910F91FF90EF90DF90CF90BF90AF90F6
:102030009F908F907F906F905F904F9008950F9337
:102040001F93CF93DF938C01D0E0C0E0F801EC0F39
:10205000FD1F6491662341F082EC97E00E944A0FD5
:10206000892B11F02196F2CFCE01DF91CF911F91F4
:102070000F910895682F82EC97E00C944A0F8EBD63
:1020800000000DB407FEFDCF8EB50895E0E097E0A7
:102090009E9FD0011124A35ABD4F2C91222311F0F1
:1020A000EF5FF6CFE43108F0E0E097E0E99FF00160
:1020B0001124E35AFD4F91E090832091AC0421500C
:1020C000330B9AE0929FD001939FB00D1124B283FD
:1020D000A1832091AD0430E0241B350B929FA00119
:1020E000939F500D1124460F571F548343838583BC
:1020F000668340E06EE679E08DE497E00C940F0C87
:10210000E0E094E0E99FD0011124AF5ABD4F9C91CB
:10211000913011F4EF5FF5CFE33008F0E0E094E0A8
:10212000E99FF0011124EF5AFD4F91E090838183E4
:10213000628313820895CF93DF93EC01E0E087E0A0
:102140008E9FD0011124A757BC4F9C91992311F069
:10215000EF5FF6CFE33208F0E0E087E0E89FF001C0
:102160001124E757FC4F81E080839AE09C9FD001C7
:102170009D9FB00D1124B283A183969FD001979F9C
:10218000B00D1124B483A38345832683DF91CF91BF
:10219000089590E080E00895FB0101900020E9F7A8
:1021A0003197AF01461B570B0C9490098F929F9269
:1021B000AF92BF920F931F93CF93DF93CDB7DEB74C
:1021C000A1970FB6F894DEBF0FBECDBF19A2423063
:1021D00008F44AE08E010F5D1F4F842E912CB12C24
:1021E000A12CA50194010E940A33E62FB901CA016E
:1021F000EA3004F5E05DD801EE938D01232B242B0A
:10220000252B79F790E080E0109729F0BD0182EC52
:1022100097E00E94CC10A1960FB6F894DEBF0FBED7
:10222000CDBFDF91CF911F910F91BF90AF909F9045
:102230008F900895E95CDFCFCF93DF930E941F104A
:10224000EC016CE371E082EC97E00E94CC108C0F03
:102250009D1FDF91CF9108952F923F924F925F92F1
:102260006F927F928F929F92AF92BF92CF92DF92A6
:10227000EF92FF920F931F93CF93DF9300D01F92A3
:10228000CDB7DEB74091E9075091EA076091EB07BF
:102290007091EC072FB7F8948091D4069091D506F1
:1022A000A091D606B091D7062FBF481B590B6A0BD9
:1022B0007B0B8091E80790E0B0E0A0E00091E1079F
:1022C0001091E2072091E3073091E4078417950706
:1022D000A607B70708F05DC00115110521053105F6
:1022E00009F457C02FB7F8948091D4069091D50681
:1022F000A091D606B091D7062FBF2091E807820F94
:10230000911DA11DB11D8093E9079093EA07A09349
:10231000EB07B093EC078091D9079091DA07A09171
:10232000DB07B091DC070196A11DB11D8093D90791
:102330009093DA07A093DB07B093DC071092E107D4
:102340001092E2071092E3071092E4070E94E00A5D
:102350006093DD077093DE078093DF079093E007BB
:102360000E947C0A81E00F900F900F90DF91CF9137
:102370001F910F91FF90EF90DF90CF90BF90AF90A3
:102380009F908F907F906F905F904F903F902F9095
:10239000089580E0012B022B032B29F70E94440CA7
:1023A00081E00E94440C82E00E94440C2DE437E05E
:1023B0003B832A830EE617E0F12CE12CE982AA8107
:1023C000BB8113968C911397882309F48DC0D996FD
:1023D0008C91D997811188C0F801808191810784FF
:1023E000F089E02DEE0FFF1FE80FF91F25913491C2
:1023F0002115310569F49D962C91222309F45AC0C8
:10240000D80150961C921E921F97FC012591349181
:102410002A803B80B5E42B0E311C4A805B80E8E4C7
:102420004E0E511C6A807B80FBE46F0E711CCA80CB
:10243000DB808EE4C80ED11CAA80BB8091E5A90E7A
:10244000B11C8A809B80A4E58A0E911CA901569537
:10245000479556954795842F20FF9DC1C90156E0A9
:10246000969587955A95E1F78F71932F9695969546
:10247000969590514F70423009F47AC108F05FC1CF
:10248000442309F46AC1413009F46EC1D8011F9692
:10249000ED91FC91509731965096FC93EE931F97D7
:1024A000CF01880F991FED91FC91E80FF91F25913D
:1024B0003491CCCFEA81FB8113828081882379F02B
:1024C0008E2D0E94440CD8011F968D919C9150979F
:1024D000880F991FED91FC91E80FF91F97CF6E2D92
:1024E0008DE497E00E94D80BBFEFEB1AFB0AEA815C
:1024F000FB813196FB83EA830E5F1F4FF3E0EF16FB
:10250000F10409F05BCFE3E58E2EE7E09E2E05E9AE
:1025100017E0F12CE12CFBE3CF2ED12CA2E0AA2E68
:10252000B12CD401D9968C91D997882349F0D396B0
:102530008C9181115CC16E2D8DE497E00E94D80BC7
:10254000BFEFEB1AFB0AEFEF8E1A9E0A0F5F1F4FC9
:10255000F3E0EF16F10429F78091ED07882309F4E1
:1025600083C08C3008F026C22CE0281B2983FF246E
:10257000F394F092C8071092D1071092D2073091CD
:10258000CA073A831981131B032F0D5F4DE2410FD8
:102590002EE463E082EC97E00E94210F8A81845050
:1025A0008A83105D282F41E0612F80E50E94B20EE2
:1025B0002A8142E0612F83E00E94B20EF092D1079F
:1025C000F092D2070091CA071981101B8DE2F82EF4
:1025D000F10E2EE44F2D63E082EC97E00E94050F90
:1025E00093E0900F9F0D9A83492F41502EE463E0B2
:1025F00082EC97E00E94050F0350105D402F612F81
:1026000080E00E949A0E402F612F83E50E949A0E6F
:1026100041E0612F83E00E941C0E42E0612F80E5C3
:102620000E941C0EAA81A450AA8344E06A2F80E570
:102630000E941C0E48E06A8183E00E941C0E84E028
:102640008093CB078091CA07B981B81BB15DB09365
:10265000CC078091EE079091EF070E941F108091A8
:10266000ED0781508093ED078091CE078F5F8093B7
:10267000CE070DEC14E019820E949F0782E20E94AF
:102680003F10F981FF5FF9838F2F0E943F1087E091
:102690000E943F1081E20E943F1086E10E943F109D
:1026A0008FE70E943F10E091D507F091D607808117
:1026B0009091D807892B8083E091D307F091D407BC
:1026C00090818091D70780958923808378011A8231
:1026D000D7018D917D010E943F10BA81BF5FBA83FF
:1026E000B435B1F70C5A1F4FE981E63029F68091D5
:1026F000C60781110EC0EDECF4E088EF91E0DF0138
:102700009C011D9221503040E1F71092CB071092AE
:10271000CC070E94E00A6093E1077093E207809380
:10272000E3079093E4072091DD073091DE07621BF9
:10273000730B7093E6076093E50780E014CE433097
:1027400009F1443009F0A2CE20915907289F802D2D
:102750001124D5018C93F40113C08B3008F08AE06A
:10276000EA81FB8184AF92CE69810E94C0078ECE40
:1027700020915907289F802D1124D1018C93F201BB
:10278000908384CE20915907289F802D1124D30156
:102790008C93F601F5CF8F73EA81FB8186AB809134
:1027A0005907839F802D112481AFE759FF4F108275
:1027B000F801EE5BFF4F11821082E1E0AA81BB813C
:1027C000DF96EC93DF97F701EF52F94F21E020837A
:1027D000FD01EE5BFF4F1082D8011F968D919C91F9
:1027E0005097019650969C938E931F977DCE815063
:1027F000F40183ABD80191968C91811146C0970169
:10280000220F331F285D384FD901A857BF4F8D9134
:102810009C911197019624583F4FAC01440F551FCE
:10282000F90120813181F901E40FF51F25913491DF
:10283000422F4770F80144A3432F4695469547A37E
:10284000A90174E0569547957A95E1F74F73309159
:102850005907439F402D112441A3F701E253F94F3B
:1028600023FB222720F9208311969C938E93F80155
:10287000258930E08217930740F0808D882309F482
:1028800091C0281B31092D933C93D80191968C91CE
:102890009197815091968C939197F40184AD31E09A
:1028A000380F34AF40A997962C919797240F808DBD
:1028B000280F208313966C91662371F070E0832FAC
:1028C000032E000C990B0E94F634D80116968C91B9
:1028D000869F200D11242083F401808190E0CB9607
:1028E000B6010E94F634808326A9238367AD662350
:1028F00079F0062E000C770B832F032E000C990B1A
:102900000E94F634D8018C91869F200D11242383D8
:10291000F80161856623A1F0832F330F990B70E0D6
:102920000E94F634CB01B5010E94F6342485D4010F
:1029300013969C911397289F900D112413969C93A6
:10294000F4014F33A9F183818A300CF089E087FDCF
:1029500080E0D40113968C93F894D401EC91F0E0CC
:10296000E457F34FE491D701A553B94FEC9380910D
:102970005A07F80192A5899F802D1124D40113963E
:102980009C91899F802D112494A1899F802D1124D1
:10299000F701E853F94F8083F701EB53F94F808338
:1029A0007894CECD6E2D8DE497E00E94D80B6DCF3C
:1029B0001382D2CF1982DBCDCF93DF93EC018881D4
:1029C0009981009711F00E94FE2F198218821D82B2
:1029D0001C821B821A82DF91CF910895FC018081B5
:1029E0009181009711F00C94FE2F08950F931F937F
:1029F000CF93DF938C01EB01FC01808191810097E3
:102A0000E1F06881798161157105A9F042815381F6
:102A10002C813D814217530770F00E94EA358C816A
:102A20009D81F801958384831D821C82DF91CF9163
:102A30001F910F9108950E94FE2F88819981F801BE
:102A4000918380838A819B81938382838C819D8102
:102A500095838483198218821B821A82E5CF0F9393
:102A60001F93CF93DF93EC0188819981009759F0F0
:102A70002A813B812617370730F081E0DF91CF9123
:102A80001F910F9108958B016F5F7F4F0E94243536
:102A9000009759F0998388831B830A832C813D8199
:102AA000232B59F7FC011082E8CF80E0E7CFEF92AB
:102AB000FF920F931F93CF93DF93EC017B018A0169
:102AC000BA010E942F1581110BC0CE010E94DC14A7
:102AD000CE01DF91CF911F910F91FF90EF9008955C
:102AE0001D830C83B701888199810E94EA35F0CF5C
:102AF000CF93DF93EC01FB018617970749F06081C4
:102B000071816115710541F0448155810E9457150D
:102B1000CE01DF91CF9108950E94DC14F9CF0F937D
:102B20001F93CF93DF9300D000D000D0CDB7DEB796
:102B3000062F142F1A8219821C821B821E821D826C
:102B4000BC01CE0101960E9478150093CB0710932B
:102B5000CC0781E08093C807CE0101960E94BD0991
:102B6000CE0101960E94EE1426960FB6F894DEBFB1
:102B70000FBECDBFDF91CF911F910F910895FC0142
:102B8000118210821382128215821482FB0101903D
:102B90000020E9F73197AF01461B570B0C945715EE
:102BA000CF92DF92EF92FF920F931F93CF93DF9319
:102BB0008C017B016A016EE371E00E94BF15D701B1
:102BC00014968D919C91009719F1E6018C159D0545
:102BD00008F4EC01D701ED91FC911197EC0FFD1F6A
:102BE000D08010826D917C9161157105D9F0FB0147
:102BF00001900020E9F73197AF01461B570BC80140
:102C00000E945715F70180819181C80FD91FD88282
:102C1000C801DF91CF911F910F91FF90EF90DF904E
:102C2000CF900895C8010E94DC14ECCF2F923F9200
:102C30004F925F926F927F928F929F92AF92BF92CC
:102C4000CF92DF92EF92FF920F931F93CF93DF9378
:102C5000CDB7DEB760970FB6F894DEBF0FBECDBF1D
:102C60008091B10481111092880339EE232E32E055
:102C7000332EF1018081882309F480C4F1E0F093C0
:102C80008803F10184858F5F8487F481F983F330B1
:102C900029F4F1019385981708F49487F10164856C
:102CA00070E090E080E00E946C316B017C01F101EA
:102CB000638570E090E080E00E946C319B01AC0184
:102CC000C701B6010E94AD336B837C838D839E83E5
:102CD0009B01AC0160E070E080E89FE30E943B3321
:102CE0006B017C01AC019B010E94CD314B015C0169
:102CF0002B813C814D815E81CA01B9010E943C3328
:102D0000A70196010E94CD316B017C012B813C8192
:102D10004D815E81CA01B9010E94CD316F837887F0
:102D200089879A87F101658170E090E080E00E94D8
:102D30006E31A50194010E94CD312B013C01F101BE
:102D4000668170E090E080E00E946E31A7019601FC
:102D50000E94CD319B01AC01C301B2010E943C3302
:102D60002B013C01F101678170E090E080E00E945E
:102D70006E312F81388549855A850E94CD319B015E
:102D8000AC01C301B2010E943C330E942634688B1F
:102D9000F1016183608570E090E080E00E946E3117
:102DA000A50194010E94CD314B015C01F1016185C7
:102DB00070E090E080E00E946E31A70196010E94D1
:102DC000CD319B01AC01C501B4010E943C336B01C4
:102DD0007C01F101628570E090E080E00E946E313C
:102DE0002F81388549855A850E94CD319B01AC01E0
:102DF000C701B6010E943C330E942634F101628370
:102E00009CE9892EF8898F0E2CE9922E960E20E0EF
:102E100030E040E85FE36B817C818D819E810E9480
:102E2000943487FD1AC12981233009F016C180919D
:102E30008103811109C080918403909185030196DB
:102E40009093850380938403309183033F87132FEE
:102E50001F5F10938303B0908203B394BF82B0923C
:102E600082036091840370918503072E000C880B08
:102E7000990B0E946E3120E030E040EC50E40E945B
:102E8000AD330E94993420E030E040E851E40E94E4
:102E9000CD3120E030E048EA51E40E943C330E940A
:102EA0001F34962E1C3108F45AC08091B00484312E
:102EB00008F055C007ED10E0A82C082C000CBB084A
:102EC00084E0A81AB108892D092C000C990BFC018B
:102ED0003497FC87EB879C012C5F3F4F3E872D8703
:102EE00034E139150CF4FCC0B801012E000C880B3C
:102EF000990B0E946E3122E73AE84EE85CE30E94AB
:102F0000CD316B017C010E94A83320E030E040EA23
:102F100051E40E94CD310E941F342B01C701B6013C
:102F20000E94993420E030E040EA51E40E94CD3123
:102F30000E941F349B0184E1A2016D857E85891565
:102F400014F46B857C85C5010E949B100D501109FE
:102F50000F36110529F69F859B5190938303EF81CE
:102F6000E43638F08DEE890D853018F4F1E0F093F9
:102F70008103209181032F83222309F46EC01092D4
:102F80008303109282032F5F2D8720938103822F6A
:102F900069E00E94EA3491115BC08091B0048431F1
:102FA00008F056C089E3289F812D1124869533E0CF
:102FB000839FC00111248C0100591F4FFC01E75F62
:102FC000FE4FF887EF83A92C092C000CBB08882D35
:102FD000082C000C990B9C01235031093C872B874E
:102FE000B801012E000C880B990B0E946E3122E76C
:102FF0003AE84EE85CE30E94CD316B017C010E940F
:10300000A8332B013C01C701B6010E94993420E08E
:1030100030E040EA51E40E94CD310E941F346B0140
:1030200020E030E040EA51E4C301B2010E94CD311A
:103030000E941F349601AB01B5018B859C850E94CF
:103040009B100F5E1F4F8F8198850817190741F657
:103050009D85933310F010928103F10182898111D3
:10306000CCC1A82C082C000CBB080091AD0410E0CA
:10307000E090AC04F12C692C092C000C7708F98144
:10308000F230B9F1F33009F470C14EEF490D68899F
:1030900066569301225031096901C501029798874C
:1030A0008F83F13009F08CC12EE539E082EC97E096
:1030B0000E94980C97014EE559E0B6018F819885E2
:1030C0000E94C606882359F18091AE04811127C061
:1030D0008091B004811123C0F981F093AE0437C10F
:1030E00068E671E0601B710B072E000C880B990BD2
:1030F00000CF6889665626E639E04EEF490D82EC2E
:1031000097E00E94980C970146E659E0B30162509F
:103110007109C50102970E94C60681110DC183E0A5
:103120009EEF2DE532E03A832983750134E0E31AFE
:10313000F1088301090F111D97FD1A95015011091E
:1031400093E0A90EB11C680E711CEFEF6E1A7E0A97
:10315000F10180818823D1F1E981FA81808188237E
:10316000A9F1818192816AE070E00E94F6349B01AE
:103170006E157F055CF1838194816AE070E00E94A6
:10318000F6346017710714F1A216B306FCF0661648
:103190007706E4F0F101838118165CF48150838393
:1031A0008091A5049091A604C2969093A604809362
:1031B000A504E981FA81108221E0F101228B40E02F
:1031C00062E379E08DE497E00E940F0C89819A8197
:1031D00007969A838983E9EEF2E0E817F90709F088
:1031E000B7CFF10181898F5F818B9089891708F4AE
:1031F0000CC1118A10E000E0292D092C000C330BC2
:103200003A832983A82C082C000CBB08F101858582
:10321000282F30E038872F83021713070CF0F5C0F2
:10322000823008F4ECC0B801012E000C880B990B19
:103230000E946E316B017C016F817885615071094C
:10324000072E000C880B990B0E946E319B01AC017C
:10325000C701B6010E94AD336B017C01F1016785A6
:1032600070E090E080E00E946E312B013C01A701EC
:10327000960160E070E080E89FE30E943B339B0191
:10328000AC01C301B2010E94CD3120E030E040E248
:1032900051E40E94CD312B013C01F101668570E0C3
:1032A00090E080E00E946E31A70196010E94CD312E
:1032B00020E030E040E251E40E94CD319B01AC01BE
:1032C000C301B2010E943C3322E73AE84EE85CE3D6
:1032D0000E94CD316B017C010E94A8332B013C017F
:1032E000C701B6010E9499342091B004243108F539
:1032F00020E030E048E851E40E94CD310E941F34C4
:103300006B0120E030E048E851E4C301B2010E94C3
:10331000CD310E941F349601AB0169817A81C501CC
:103320000E949B1040E068E279E08DE497E00E9403
:103330000F0C0F5F1F4F6ACF8091AE048111EFCE4B
:103340008091B0048111EBCE91E09093AE0440E007
:1033500064E67BE08DE497E00E940F0CF10110829F
:10336000692D882D0E948010DACE6889695622E482
:1033700039E04AEF490D82EC97E00E94980C9701E2
:1033800042E459E0B30166507109C50105970E94F6
:10339000C606882391F08091AE0481110EC0809101
:1033A000B00481110AC0F1E0F093AE0440E064E69D
:1033B0007BE08DE497E00E940F0C85E09BEFB1CE9F
:1033C0002AE339E082EC97E00E94980C97014AE3E7
:1033D00059E0B6018F8198850E94C606882309F4BA
:1033E0009ECE8091AE0481119ACE8091B00481115D
:1033F00096CE21E02093AE04AACF128AF2CEC12C41
:10340000D12CE12C8FE3F82E29CFF10183811816FE
:103410000CF4A3C0692D882D0E9480108091A00417
:103420008F5F8093A00440E06EE179E08DE497E047
:103430000E940F0C8091A5049091A604F1012481B3
:10344000213029F0233061F08C599F4F02C08853FE
:103450009F4F9093A6048093A504F10110828EC023
:1034600088519C4FF6CFFF2009F4B9C0A0E01A9F05
:10347000F0011124E751FD4FE081EE2311F0AF5F21
:10348000F6CFA83008F0A0E01A9FD0011124A75170
:10349000BD4F0C9311969C93119712969C93129783
:1034A0001C961C921C9751961C925197F9013196CB
:1034B000E4911396EC931397F9013296E4911496E4
:1034C000EC931497F9013396E4911596EC931597C4
:1034D000F9013496E4911696EC931697F901359616
:1034E000E4911796EC931797F9013696E4911896A4
:1034F000EC931897F9013796E4911996EC93199784
:10350000F9013896E4911A96EC931A97F9013996D5
:10351000E4911B96EC931B97F9013A96E4911D9662
:10352000EC931D97F9013B96E4911E96EC931E9740
:10353000F9013C96E4911F96EC931F97F9013D9693
:10354000E4915096EC93FB01E20FF31FE4914E0FD0
:10355000511D8F5F225F3F4F3AC020E030E040E8CE
:103560005FE36B817C818D819E810E94943418166B
:103570002CF4F1018481833009F06FCFF3E12F0E39
:10358000311C21E8221623E0320609F072CB80912B
:103590009C0490919D049A83898340919A04509150
:1035A0009B0480919804F090B1049EE0899F900163
:1035B000112428563C4FE1E0E80FE81BFF0B9E9FCB
:1035C000B0019F9F700D112413E101E09FEFE9818D
:1035D000FA81E417F5071CF0853608F444CF809390
:1035E000980450939B0440939A0460960FB6F89405
:1035F000DEBF0FBECDBFDF91CF911F910F91FF9026
:10360000EF90DF90CF90BF90AF909F908F907F9082
:103610006F905F904F903F902F9008958F929F9260
:10362000AF92BF92CF92DF92EF92FF920F931F93D0
:10363000CF93DF93CDB7DEB7A8970FB6F894DEBF70
:103640000FBECDBF842E922E21E02093C8071CA26E
:103650001BA21EA21DA218A61FA22AE0AE014F5F48
:103660005F4F7A010E942B31F70101900020E9F7AA
:103670003197AF014E195F09B701CE0183960E94C1
:10368000571510E08FA198A58017910788F56FE373
:1036900071E0C7010E94BF15ABA0BCA0A114B1048A
:1036A00019F1CFA0D8A4C114D104A9F08D819E81B5
:1036B000C80ED91EB601C7010E942F158823A1F09C
:1036C00029813A818D819E81B501820F931F0E94CD
:1036D000EA35DE82CD82B701CE0183960E9478154D
:1036E000C7010E94EE14CECFC7010E94DC14F3CFB5
:1036F0008092CB079092CC07CE0183960E94BD09A1
:10370000CE0183960E94EE14A8960FB6F894DEBF01
:103710000FBECDBFDF91CF911F910F91FF90EF9022
:10372000DF90CF90BF90AF909F908F9008958F9231
:103730009F92AF92BF92CF92DF92EF92FF920F9340
:103740001F93CF93DF938111B1C08091E707882346
:1037500009F4ACC01092400781E08093C807109232
:10376000C7071092C6078093D1078093D207C4E998
:10377000D3E01CE00E942C118823E1F3FE01849128
:1037800024EF32E040E060E082EC97E00E94980C89
:103790001092CB071093CC0784E993E00E941F108E
:1037A0008091C907982F990F990F891B8D5A809383
:1037B000CB078091CA07982F990F990F891B835DBA
:1037C0008093CC078091D90784FFB0C180EF92E04D
:1037D0000E941C118091C907982F990F990F891B7E
:1037E0008D5A8093CB078091CC078F5F8093CC0755
:1037F00080915A07882309F49CC188EE92E00E94C8
:103800001C118091C907982F990F990F891B8D5A08
:103810008093CB078091CC078F5F8093CC0780EE9D
:1038200092E00E941C1180913E07813099F48091B2
:103830005A078F5F082E000C990B60915B0770E0B0
:103840006F5F7F4F0E94F63480935A078DE497E0B4
:103850000E948E0C80913D078130B9F08091E7077E
:10386000482F50E070E060E0C090D907D090DA07B0
:10387000E090DB07F090DC07C416D506E606F706F5
:1038800008F478CF8F3F09F475CF8FEF8093E70767
:1038900060E08DE497E00E94D80B109250078DE411
:1038A00097E00E94930C81E08093400780E190E0D4
:1038B0000E948B32C82FD0E0D093A404C093A304FD
:1038C00081E190E00E948B3290E0982F88278C0F46
:1038D0009D1F8136FAEE9F0708F02EC19093A40435
:1038E0008093A30484E693E090936807809367072E
:1038F00090936A078093690781E00E94FF0B109202
:1039000063078FEE9BE090935F0780935E07C1E0B3
:10391000C0934E0782E00E94FF0B109264078FEC69
:103920009BE09093610780936007C0934F0780915D
:1039300064008E7F8093640087EC80937C0080E23B
:1039400080937B0062E070E080E090E00E94050BD5
:1039500080917A00806480937A0080917A0086FD5D
:10396000FCCFC0917800D0917900C095D0958EE5BC
:1039700080937C0062E070E080E090E00E94050BA4
:1039800080917A00806480937A0080917A0086FD2D
:10399000FCCF00917800109179000E94E00A009518
:1039A00010950C9FD0010D9FB00D1C9FB00D1124E0
:1039B0009B01AC0120953095409550950E94C032F6
:1039C0006B017C010E94E00A6C0D7D1D8E1D9F1D08
:1039D000611571058105910511F00E9422318091D8
:1039E0006400816080936400109240078AE08093B5
:1039F000AC0488E18093AD0482E38093B00483E05B
:103A00008093B1041092AE041092B2041092B304E9
:103A100010929D0410929C041092A6041092A5048A
:103A200010928703109286031092A0041092B6049D
:103A300010929F04109288031092850310928403C1
:103A400010928303109282031092810381E080938D
:103A50009E0410929904109296041092970410926A
:103A6000A8041092A7041092A204EDE5F2E01082DF
:103A7000379622E0E93EF207D1F71092E902109260
:103A8000FC0210920F031092220310923503109241
:103A9000480310925B0310926E03E9E8F3E08EE7AF
:103AA00094E0108237968E179F07D9F71092510233
:103AB000109255021092590210929804E8E9F3E02E
:103AC000E491F0E0F0939B04E0939A040EE714E095
:103AD000C4E68AE0882E912CA12CB12C90E3C92E4B
:103AE000D12CE12CF12C0E94D330A50194010E942D
:103AF000A1326C0FF80160830E94D330A7019601B8
:103B00000E94A132F8016183C95F0E5F1F4FC83B5D
:103B100051F7DF91CF911F910F91FF90EF90DF90C0
:103B2000CF90BF90AF909F908F9008958CEE92E0D1
:103B30004FCE84EE92E063CE1092A4041092A304C0
:103B4000D1CE1F920F920FB60F9211248F939F9395
:103B50008091E1009091E100937F9093E10083FFD9
:103B60000FC01092E90091E09093EB001092EC00EE
:103B700092E39093ED001092CC0498E09093F000C3
:103B800082FF22C093E09093E9009091F200992384
:103B900019F09AE39093E8009091BD04992341F0C5
:103BA0009091BD0491509093BD04911101C05D9A14
:103BB0009091CB04992341F09091CB049150909334
:103BC000CB04911101C0289A84FF18C08091E200B3
:103BD0008E7E81608093E2008091E1008F7E8093F1
:103BE000E1008091BE048E7E80618093BE049F912F
:103BF0008F910F900FBE0F901F90189580FFF7CFF9
:103C00008091E2008E7E80618093E2008091E100ED
:103C10008E7E8093E1008091BE048E7E8160E5CF30
:103C20001F920F920FB60F921124CF92DF92EF9254
:103C3000FF920F931F932F933F934F935F936F9335
:103C40007F938F939F93AF93BF93EF93FF93CF9304
:103C5000DF93CDB7DEB76C97DEBFCDBF1092E90022
:103C60008091E80083FF25C068E0CE0145960E9460
:103C7000820982EF8093E8008D8987FF39C0909197
:103C8000E80090FFFCCF982F907609F034C19E8910
:103C90004F89588D2F89F88C911131C0803861F58A
:103CA0008091BC048093F1001092F1008EEF80931C
:103CB000E8006C960FB6F894DEBF0FBECDBFDF9163
:103CC000CF91FF91EF91BF91AF919F918F917F9194
:103CD0006F915F914F913F912F911F910F91FF90A5
:103CE000EF90DF90CF900F900FBE0F901F90189520
:103CF0009EEF9093E800C7CF1092F100D5CF91309E
:103D000059F48111D3CF4130510581F68091BC0423
:103D10008D7F8093BC04CACF933049F48111C6CF04
:103D20004130510519F68091BC048260F2CF953084
:103D300041F48091E80080FFFCCF20682093E300ED
:103D4000B5CF963009F0A9C00B8D1C8D22E01092E2
:103D5000E9001092BA041092B904F2122EC0109227
:103D6000B8041092B7040E9451091F8299E0998308
:103D7000FA8291E09E8390EA98879AEF9987209142
:103D8000B9043091BA04275F3F4F3C832B838D8366
:103D90001092E9001092BA041092B9041093B8047A
:103DA0000093B70449E050E0BE016F5F7F4F80E0B1
:103DB0000E942B090E94510979CF1093B8040093F7
:103DC000B7040E943508DC0112960D911C91011573
:103DD000110509F451C1D801ED91FC910480F581E0
:103DE000E02DBE016B5E7F4FC8010995009709F079
:103DF0003EC1F80100851185EACFF3E0FF120EC045
:103E00008F89882309F440C0823061F440E860E182
:103E100083E79CE00E94F808811148CF81E28093FB
:103E2000EB0047CF813029F440E86BE087E69CE067
:103E3000F1CF833099F70E943508DC011296ED909E
:103E4000FC908E010F5F1F4F6801E114F10479F0BF
:103E5000D701ED91FC910680F781E02DB801C701F3
:103E60000995080F111DF701E084F184EECFD80108
:103E70001C92F60101900020E9F73197BF016C19FF
:103E80007D0940E0C601C6CF61E57CE0FB014491BD
:103E900050E080E80E942B0909CF973009F4BECF8B
:103EA000983021F481E08093F10000CF993009F03F
:103EB000FDCE837009F0B2CFE8E1F1E081E031E0BE
:103EC00096E32191222371F08093E9003093EB0077
:103ED000DF0111972C912093EC009093ED008F5F00
:103EE000873079F78EE78093EA001092EA008F8995
:103EF0008093CC04DBCE8B8D9C8D1092E9001092C8
:103F0000BA041092B9049093B8048093B704898DD1
:103F1000811192C08E899D89913A49F4813209F0CC
:103F20007DCF47E050E065E071E080E0B3CF9132B3
:103F300009F074CF833269F48F89988DB0E0A0E0E6
:103F40008093010190930201A0930301B0930401B7
:103F5000ADCE803269F48091E80082FFFCCF67E04B
:103F600085E091E00E9482098BEF8093E8009ECE6D
:103F7000823209F09BCE8F8980930C01EEEFFFE730
:103F8000859194918B3F9C4D51F1E0E0F8E0809158
:103F9000050190910601A0910701B0910801803BB5
:103FA0009440A105B105F1F480910C0180FD1AC087
:103FB000EE3F8AE0F80789F587E797E791838083EA
:103FC000809160008093BB0488E19BE00FB6F89479
:103FD000A895809360000FBE9093600067CEEEEFCF
:103FE000FAE0D5CF808191818737974709F05ECE7F
:103FF000A895809160008861809360008091BB04E7
:1040000080936000EE3F2AE0F20789F08091FE0A7B
:104010009091FF0A9183808349CE80819181873777
:10402000980751F29093FF0A8093FE0AC5CF109231
:10403000FF0A1092FE0A3ACE0E943508DC01129661
:104040000D911C910115110509F4E8CED801ED91EF
:10405000FC910190F081E02DBE016B5E7F4FC801A5
:104060000995811123CEF80100851185EBCF181633
:1040700019060CF41BCED2CEF1E0FF12BECE65E5E0
:104080007CE004CF0F920FB68F939F93EF93FF9333
:1040900080914B028D5F8D3708F08D5780934B02D6
:1040A000E4EDF6E080818E4F808391819F4F918374
:1040B00082818F4F828383818F4F8383ECE4F2E090
:1040C00080818F5F808381818F4F818382818F4F39
:1040D000828383818F4F83838FB18F6066991C9B0E
:1040E00088278F3681F48091FF0A981B963068F0FC
:1040F000E0E0F8E087E78083818388E180936000D7
:10410000F0936000FFCF9093FF0AFF91EF919F9192
:104110008F910FBE0F9018951F920F920FB60F92AE
:1041200011242F933F934F935F936F937F938F93BC
:104130009F93AF93BF93EF93FF936091C806611174
:1041400053C020E06091C906662319F180914902AD
:104150008F5F809349029091CC068917D0F08091AF
:10416000D20691E089278093D206109249022091CD
:10417000CF06222309F45EC08091000193E4899F59
:10418000802D1124895B809300010E94EA34909372
:10419000C6066091CA06662309F44EC080914A02A1
:1041A0008F5F80934A029091CD06891708F444C02E
:1041B0008091D30691E089278093D30610924A021A
:1041C0008091D006882369F08091000193E4899F53
:1041D000802D1124895B809300010E94EA34909322
:1041E000C7060E94BC0B2AC0809148028F5F809353
:1041F00048029091CB06891708F4A3CF8091D1068D
:1042000091E089278093D106109248022091CE0632
:10421000222371F08091000193E4899F802D112465
:10422000895B809300010E94EA349093C5068ACF8F
:1042300021E088CF21E0ADCF2111D3CFFF91EF91C5
:10424000BF91AF919F918F917F916F915F914F91AE
:104250003F912F910F900FBE0F901F901895E8ED92
:10426000F6E01382128288EE93E0A0E0B0E084834F
:104270009583A683B78382E291E0918380838FEF59
:104280009FEF958784871092C5071092C40784E337
:1042900091E09093C3078093C2070895CF93DF9373
:1042A000CDB7DEB72C970FB6F894DEBF0FBECDBFEB
:1042B000789484B5826084BD84B5816084BD85B501
:1042C000826085BD85B5816085BD80916E0081600D
:1042D00080936E00109281008091810082608093B3
:1042E00081008091810081608093810080918000B5
:1042F0008160809380008091910082608093910022
:104300008091910081608093910080919000816004
:10431000809390008091C10084608093C10080915F
:10432000C10082608093C1008091C1008160809350
:10433000C1008091C30081608093C3008091C00060
:1043400082608093C0008091C20081608093C2002F
:1043500080917A00846080937A0080917A008260F4
:1043600080937A0080917A00816080937A008091B6
:104370007A00806880937A001092CC041092BC047A
:104380001092BE048091D70081608093D70080EAAC
:104390008093D80089B5806189BD89B5826089BD67
:1043A00009B400FEFDCF61E070E080E090E00E9483
:1043B000050B8091D8008F7C80618093D80080911C
:1043C000E000807F8093E0008091E1008E7E80930A
:1043D000E1008DE08093E200559A209A82E3809379
:1043E000E80781E090E0A0E0B0E08093E1079093DF
:1043F000E207A093E307B093E40711E010935B0793
:1044000010935A078FEF8093E70784E18093320778
:1044100082E18093330783E18093340785E18093C1
:10442000350787E08093360788E08093370710923E
:1044300038070E947C0A1093D1071092D20710937C
:10444000C7071093C807E3EBF9E0E491EF5FE0934F
:10445000C907E4EBF9E0E491EF5FE093CA0785EB6D
:1044600099E09093D0078093CF071FB7F89480917D
:104470005002811127C0E6EEFCE08491E5E0FDE00A
:104480009491E82FF0E0EE0FFF1FE657F64FA5914D
:10449000B491EC91E92321F461E081E10E94120AD8
:1044A00061E081E10E94400A8CB580618CBD8CB5D1
:1044B00080648CBD61E08FE00E94400A61E080E191
:1044C0000E94400A809150028F5F809350021FBF6C
:1044D0008CB58C7F8CBD8DB581608DBD61E084E035
:1044E0000E94400A61E08CE00E94400A61E086E0A0
:1044F0000E94400A61E086E00E94120A61E070E0DA
:1045000080E090E00E94050B60E086E00E94120AC5
:104510006AE070E080E090E00E94050B61E086E0D8
:104520000E94120AE1EEFCE0E491F0E0EE0FFF1FC2
:10453000EB55F64F859194919093D4078093D307D0
:10454000E9EDFCE0E491F0E0EE0FFF1FEB55F64FD4
:10455000859194919093D6078093D507E0E0FDE094
:10456000E491E093D707E8EFFCE0E491E093D8070B
:104570000E949F0708E919E045EAE42E49E0F42E7D
:10458000F80184910E943F100F5F1F4FE016F10663
:10459000B9F7E091D507F091D60780819091D807BF
:1045A000892B8083E091D307F091D407908180918B
:1045B000D70780958923808300E014E080E00E9483
:1045C0003F1001501109D1F781E0809359070FEB9B
:1045D000C02E07E0D02E84E7E82E87E0F82E10E00A
:1045E00001E096E8A92E99E0B92EF60101936F013A
:1045F000F701A192B1927F01612F80E00E94C00774
:104600001F5F133091F761E085E00E94400A61E08E
:104610008DE00E94400A61E085E00E94400AE8E1E6
:10462000FDE0E491E150EF3008F0CAC1F0E0E55E52
:10463000FC4D0C940A352A236D2473247F248B248B
:10464000E024E024E0249724A324AF24BB24C9243D
:10465000E024D22484B5806884BD81E087BD809148
:104660009100887F816080939100F894109280007F
:1046700010928100109285001092840088E191E0F0
:104680009093890080938800809181008860809356
:1046900081008091810081608093810080916F0012
:1046A000826080936F00789480913E07813009F09A
:1046B0008CC110925A0780E00E94971B1AE0212EAD
:1046C000312C0E942C11A82E882309F473C68091E6
:1046D000B604811198C680914E07811123C0809144
:1046E000B2048A30F8F48091B1048823D9F081E0D3
:1046F0000E94FF0B109263078FEE9BE090935F0781
:1047000080935E0711E010934E0782E00E94FF0B3A
:10471000109264078FEC9BE0909361078093600791
:1047200010934F07B0909F04B1104CC6F0909E04B8
:10473000BEE74B2EB4E05B2E8201F80180818F1919
:10474000843608F458C18083F80160816456418141
:1047500082EC97E00E94D80D0E5F1F4FF4E00639FF
:104760001F0759F780919C0490919D040F970CF0BE
:104770004FC182E080939E040E941616A9E86A2E1B
:10478000A3E07A2E730199249394F7018081882302
:1047900009F45CC08090AE04909288038581C1804A
:1047A000D280C80ED11C87FDDA94D282C182868164
:1047B00003811481080F111D87FD1A95148303834B
:1047C000C801B1010E94F6344FEF460FC601B10196
:1047D0000E94F63461502EE63BE082EC97E00E94A6
:1047E000980C811024C02091AC042F5FC60166EFA5
:1047F0007FEF0E94F634260F2430C8F4C80166EF1C
:104800007FEF0E94F6348091AD04680F62307CF433
:104810006F3F6CF08091B004811109C09092AE049A
:1048200040E064E67BE08DE497E00E940F0CFDE140
:10483000CF0ED11C23E8C21623E0D20628F4035E73
:104840001F4F0B3C114010F0F7011082F7E0EF0E04
:10485000F11C2EE734E02E153F0509F096CFD090DD
:10486000B20439E03D1508F4D5C080913B07815072
:10487000BB24B3948E3F08F0B12C8091390781504E
:10488000AA24A3948E3F08F0A12C80913A0781506E
:1048900001E08E3F08F000E080913C07815011E07C
:1048A0008E3F08F010E08091AE04811181C191E348
:1048B0009D1508F4E4C09091AC048091AD04BB2038
:1048C00009F472C79D5FAA2009F475C7112309F482
:1048D000CEC08D5F8093AD0476C784B5806284BD01
:1048E00081E088BDBCCE809180008068809380008C
:1048F00081E090E09093890080938800B0CE809111
:10490000800080628093800081E090E090938B0033
:1049100080938A00A4CE809180008860809380007C
:1049200081E090E090938D0080938C0098CE8091F0
:10493000900080688093900081E090E090939900CF
:10494000809398008CCE809190008062809390003C
:1049500081E090E090939B0080939A0080CE8091BC
:10496000900088608093900081E090E090939D009B
:1049700080939C0074CE8091C00080688093C000BA
:104980008091C0008F7B8093C00081E08093CF0036
:1049900066CE8091C00080628093C00081E08093E9
:1049A000D0005DCE8091C20088608093C20080916B
:1049B000C2008B7F8093C20081E08093D2004FCEF3
:1049C00060E085E00E94120A4ACE40E065E37BE0A9
:1049D0008DE497E00E940F0C41E065E37BE08DE4FD
:1049E00097E00E940F0C42E065E37BE08DE497E0E6
:1049F0000E940F0C60CE8C5A80830E94D33020E33B
:104A000030E040E050E00E94A132F80161839CCE8A
:104A100081E0B0CE8091AD040A2D10E0883128F4F9
:104A200011E0843108F010E000E08091AC048C309B
:104A300030F491E0883008F090E0A12CB92E885035
:104A4000843018F48AE08093AC048AE0D8122BCF2B
:104A500081E00E94FF0B82E00E94FF0B24CF002325
:104A600009F4AFC6833008F483E08350A8C600235E
:104A700009F4A9C6833008F483E083502BCF0D2DB1
:104A800010E0B801012E000C880B990B0E946E31CA
:104A900020E030E048E452E40E943B3320E030E084
:104AA0004CE852E40E94AD334B015C0120E030E061
:104AB0004AEA52E40E94CD31A50194010E94CD3111
:104AC00020E030E040E251E40E943C334B015C01C5
:104AD00020E030E048EC52E40E9494341816A4F42C
:104AE00084E68093AC0464E6E7E7ED15D0F4F5E9DD
:104AF00060E0FD1508F1C801885791096BEF7FEF61
:104B00000E94F6346B5F18C0C501B4010E942634C0
:104B10006093AC046C3040F737E73D1508F06FC682
:104B2000E6CF262F2B50330BC901B1010E94F6347A
:104B300080919E048F5F680F60939E0460C6E9E8D1
:104B4000F3E010823796EE15FF05D9F78BC61123D7
:104B500009F48DC687C68091A804811191C6009181
:104B6000AC040250D090AD04DA94DA941091B204FF
:104B700083E18C1510F40C94182F103510F00C9460
:104B80002E2F2DE53BE04D2D602F82EC97E00E940B
:104B9000980CCC2009F478C673C6049726E53BE050
:104BA000029710F40C94252F2FE43BE00C94252F52
:104BB0001092B4048091B104823078F09CE3909319
:104BC000B00481508093B1041092AE046091AD04A2
:104BD0008091AC040E948010F7C6882341F0609158
:104BE000AD048091AC040E9480101092B304109226
:104BF000B10481E00E94FF0B82E00E94FF0BE4C63B
:104C000069E070E080E090E02CC734E0D31609F44E
:104C100053C0D31608F44FC185E0D8120C943D2E32
:104C2000F801E280F1804E2D6F2D82EC97E00E941A
:104C3000D80D76E0C72ECE0CE6E0BE2EBF0C4C2D74
:104C40006B2D82EC97E00E94D80DFAEFEF0EFF0E6D
:104C50004E2D6F2D82EC97E00E94D80D4E2D6B2DBE
:104C600082EC97E00E94D80D4C2D6F2D88C0F80182
:104C7000E280F1804E2D6F2D82EC97E00E94D80DDE
:104C800041E04E0D6F2D82EC97E00E94D80D4FEF62
:104C90004E0D6F2D82EC97E00E94D80D61E06F0DF4
:104CA0004E2D82EC97E00E94D80D6FEF6F0D4E2DC8
:104CB00082EC97E00E94D80DF801F280B3E0BB2EA1
:104CC000BF0CE18083E0A82EAE0C4B2D6A2D82EC48
:104CD00097E00E94D80D9DEFC92ECE0C4B2D6C2D68
:104CE00082EC97E00E94D80D2DEFB22EBF0C4B2D19
:104CF0006A2D82EC97E00E94D80D4B2D6C2D82EC32
:104D000097E00E94D80D35E0B32EBF0C45E0A42EED
:104D1000AE0C4B2D6A2D82EC97E00E94D80D5BEF14
:104D2000C52ECE0C4B2D6C2D82EC97E00E94D80D39
:104D30006BEFB62EBF0C4B2D6A2D82EC97E00E94D4
:104D4000D80D4B2D6C2D82EC97E00E94D80D6CEFA6
:104D50006E0D4F2D82EC97E00E94D80D64E06E0D31
:104D60004F2D82EC97E00E94D80D44E04F0D6E2D40
:104D700082EC97E00E94D80D4CEF4F0D6E2D82EC27
:104D800097E00E94D80D79C7F801F280AA24A39475
:104D9000AF0CE1804A2D6E2D82EC97E00E94D80D79
:104DA000BB24BA94BE0C4A2D6B2D82EC97E00E9476
:104DB000D80DCC24C394CE0C4A2D6C2D82EC97E0F8
:104DC0000E94D80DAA24AA94AF0C4A2D6E2D82EC15
:104DD00097E00E94D80D4A2D6B2D82EC97E00E943F
:104DE000D80D4A2D6C2D82EC97E00E94D80D4F2DE6
:104DF0006B2D82EC97E00E94D80D4F2D6C2D82EC2C
:104E000097E00E94D80D7EEFC72ECE0C4F2D6C2D53
:104E100082EC97E00E94D80D6DEF6E0D4F2D82EC65
:104E200097E00E94D80DE2E0AE2EAE0C4F2D6A2D19
:104E300082EC97E00E94D80D63E06E0D4F2D82EC5E
:104E400097E00E94D80DF2E09F2E9F0C492D6E2D09
:104E500082EC97E00E94D80D43E04F0D6E2D82EC5E
:104E600097E00E94D80DAEEFBA2EBF0C4B2D6E2DE1
:104E700082EC97E00E94D80D4DEF4F0D6E2D82EC25
:104E800097E00E94D80D492D6A2D82EC97E00E9490
:104E9000D80D492D6C2D82EC97E00E94D80D4B2D3A
:104EA0006A2D82EC97E00E94D80D4B2D6C2D82EC80
:104EB00097E00E94D80DF801E280F1806BEF6F0D52
:104EC0004E2D82EC97E00E94D80D65E06F0D4E2DBF
:104ED00082EC97E00E94D80D45E04E0D6F2D82ECDC
:104EE00097E00E94D80D4BEF4E0D6F2D82EC97E0AE
:104EF0000E94D80D54E0B52EBE0C64E0C62ECF0C37
:104F00004B2D6C2D82EC97E00E94D80DFCEFFF0E2C
:104F10004B2D6F2D82EC97E00E94D80D2CEFE20E06
:104F20004E2D6C2D82EC97E00E94D80D4E2D9DCE1B
:104F3000F801E280AA24A394AE0CF1804A2D6F2DD3
:104F400082EC97E00E94D80DBB24BA94BF0C4A2D86
:104F50006B2D82EC97E00E94D80DCC24C394CF0C2B
:104F60004A2D6C2D82EC97E00E94D80DAA24AA94B9
:104F7000AE0C4A2D6F2D82EC97E00E94D80D4A2D81
:104F80006B2D82EC97E00E94D80D4A2D6C2D82EC9F
:104F900097E00E94D80D4E2D6B2D82EC97E00E9479
:104FA000D80D4E2D6C2D82EC97E00E94D80D6EEF3F
:104FB0006F0D4E2D82EC97E00E94D80D6CEF6F0DB7
:104FC0004E2D82EC97E00E94D80D62E06F0D4E2DC1
:104FD00082EC97E00E94D80D64E06F0D4E2D82ECBC
:104FE00097E00E94D80D42E04E0D6F2D82EC97E0C5
:104FF0000E94D80D44E04E0D6F2D82EC97E00E9488
:10500000D80D4EEF4E0D6F2D82EC97E00E94D80D1B
:105010004CEF4E0D6F2D82EC97E00E94D80D33E0DF
:10502000B32EBE0C43E0C42ECF0C4B2D6C2D82EC66
:1050300097E00E94D80DFDEFFF0E4B2D6F2D82ECF7
:1050400097E00E94D80D2DEF6ACF11500F5FA8C6D0
:1050500063E671E0CE0101960E94BF154BE261E06C
:10506000CE0101960E948F15CE0101960E94EE148A
:105070006091A3047091A40490E080E006E02BE22C
:105080004CE30E940E1B80919C0490919D0401961C
:1050900090939D0480939C0420919A0430919B04EA
:1050A00024513109821793076CF08091B104882351
:1050B00049F080919904811166C0909198049230D2
:1050C00008F068C080919704882309F4BEC081501D
:1050D0008093970408E210E0081B110917FF02C033
:1050E0000F5F1F4F1595079580919904853008F043
:1050F00073C06EE671E0CE0107960E94BF15A8014D
:10510000BE01695F7F4FCE0101960E94D015BE019E
:105110006F5F7F4FCE0107960E94F614CE01019675
:105120000E94EE141A8219821C821B821E821D822A
:10513000BE01695F7F4FCE0101960E94781540E065
:1051400060E3CE0101960E948F15CE0101960E9468
:10515000EE14809197048C3150F46091990470E0C2
:1051600090E080E001E020E048E40E940E1B809186
:105170009704873108F465C080FD63C08DE497E033
:105180000E948E0C5EC0813081F49091980497311A
:1051900008F498CF8F5F8093990488E280939704F6
:1051A00080919804809396048DCF823029F4909159
:1051B0009804903378F786CF833029F4909198043F
:1051C000963440F77FCF843009F07CCF90919804DB
:1051D000903608F477CFDECF68E771E0CE0107960E
:1051E0000E94BF15A801BE01695F7F4FCE010196E5
:1051F0000E94D015BE016F5F7F4FCE0107960E94BF
:10520000F614CE0101960E94EE141A8219821C82B5
:105210001B821E821D82BE01695F7F4FCE010196F7
:105220000E94781540E068E2CE0101960E948F1539
:10523000CE0101960E94EE1480919704833108F00C
:105240009BCFCE0107960E94EE1410913F071130BC
:1052500009F08BC08091B104882309F486C0809145
:10526000B2048A3008F081C08091B0048D3208F019
:105270007CC010939F040E94870C1093C607109265
:10528000D1071092D2070AE020E340E060E182EC0F
:1052900097E00E94210F0BE024E54CE060E082ECF7
:1052A00097E00E94210F0CE024E34DE160E182ECE5
:1052B00097E00E94210F1093D1071093D20764E862
:1052C00071E0CE0101960E94BF1580E18093CB076B
:1052D0001092CC0782E08093C807CE0101960E940D
:1052E000BD09CE0101960E94EE146BE871E0CE017B
:1052F00001960E94BF154CE060E0CE0101960E942D
:105300008F15CE0101960E94EE146FE971E0CE0177
:1053100001960E94BF1542E160E0CE0101960E9415
:105320008F15CE0101960E94EE146BE471E0CE0160
:1053300001960E94BF154DE164E1CE0101960E94E5
:105340008F15CE0101960E94EE1465EB71E0CE013F
:1053500001960E94BF1544E260E1CE0101960E94D1
:105360008F15CE0101960E94EE148091B10488231E
:1053700009F48AC58091B204853BE0F08091B604BF
:10538000811118C081E08093B6041092AB040E9492
:10539000FF0B82E00E94FF0B41E069EB7BE08DE4B4
:1053A00097E00E940F0C42E06BE97BE08DE497E010
:1053B0000E940F0C80E090E0892B09F482C90E94C2
:1053C00000007FC980913F07813021F080913D0727
:1053D000813041F410929F048DE497E00E94930C79
:1053E0001092C60780913E07813021F71092C607C0
:1053F0000E94FF0B82E00E94FF0B0E94870C80E05E
:105400000E94971BD7CF8091B10464EC71E0882390
:1054100011F06EEC71E0CE0101960E94BF1588E09C
:105420008093CB071092CC0782E08093C807CE010F
:1054300001960E94BD09CE0101960E94EE14809152
:10544000AB04811115C04091B10420ED37E0429FBB
:10545000C001439F900D11249093AA048093A90446
:105460008091A804882321F01092AA041092A90424
:105470008091A9049091AA04892BA1F58091A70499
:10548000811130C011E01093A7046091A5047091C0
:10549000A6048091A3049091A4048617970780F432
:1054A0007093A4046093A30480E190E00E9493327F
:1054B0006091A40481E190E00E9493321093A204D1
:1054C0000091A5041091A60480E060E774E98A3099
:1054D00039F0FF24F394F80E0617170708F497C065
:1054E0008093A10468ED71E0CE0101960E94BF1582
:1054F0004EE061E0CE0101960E948F15CE0101962B
:105500000E94EE146091A00470E090E080E003E05F
:105510002EE048E40E940E1B8091B104882349F1DB
:105520006AEE71E0CE0101960E94BF1544E161E090
:10553000CE0101960E948F15CE0101960E94EE14B5
:1055400080E58093CB076091B10470E090E080E04B
:105550004AE00E94D6106091A9047091AA046115D6
:10556000710539F090E080E004E02AE144E40E9413
:105570000E1B8091A204882329F08091AB04853111
:1055800008F053C06CEF71E0CE0101960E94BF1588
:1055900044E261E0CE0101960E948F15CE01019692
:1055A0000E94EE146091A5047091A60490E080E042
:1055B00006E024E24CE30E940E1B8091A904909126
:1055C000AA04892B09F047C081E08093CB078EE1C4
:1055D0008093CC0766E172E082EC97E00E94CC10E9
:1055E00080E58093CB07E091A104EA3008F0CDC0BC
:1055F000F0E0E350F54D0C940A351E2B222BA12B25
:10560000A32BA92BAF2BB12BB72BBD2BBF2B90E01E
:1056100080E00E946C3120E030E040E45FE30E94D3
:10562000CD310E9426348F2D52CF6AE00E94EA3499
:10563000973008F0B7CF6AE072E0A6CF83E50E940A
:105640003A1009C08CE48093CB076DE172E082ECE4
:1056500097E00E94CC108091A9049091AA04892B14
:10566000E9F48091AB048531C8F08451990B6CE367
:1056700070E00E94F6344E970CF089C06FE272E041
:10568000CE0101960E94BF154AE26EE1CE0101965D
:105690000E948F15CE0101960E94EE148091A904FC
:1056A0009091AA04009719F58091AB04853108F414
:1056B0003FC080913D07813039F48DE497E00E942E
:1056C000930C81E00E94971B80913E07813021F06E
:1056D00080913F07813029F40E94870C80E00E946E
:1056E000971B8091A9049091AA04009709F1209139
:1056F000AB042531E8F08C018236910510F001E60B
:1057000010E0801B910B9093AA048093A9048DE470
:1057100097E00E948E0C8091A5049091A604080F3A
:10572000191F1093A6040093A50484E18093AB0491
:105730008091AB0491E0980F913590F59093AB0474
:1057400039CE81E47CCF8CE48093CB0760E272E0B9
:105750007ECF8CE48093CB0763E272E078CF82E463
:105760006ECF8CE48093CB0766E272E070CF8CE45E
:105770008093CB0769E272E06ACF83E460CF8CE468
:105780008093CB076CE272E062CF84E458CF67E38A
:1057900072E0CE0101960E94BF154AE26CE076CF1E
:1057A0008B538093AB0406CEAA2009F48FC89330A4
:1057B00008F493E09350112309F451C98D5F80934D
:1057C000AD049093AC048091AC04823018F482E074
:1057D0008093AC048091AD04823018F482E0809311
:1057E000AD048091AC04823518F081E58093AC045F
:1057F0008091AD04883218F087E28093AD04109157
:10580000B004143108F4A3C985E18093AD04612F7D
:1058100070E090E080E00E946C3120E030E040EFEA
:1058200051E40E943B3320E030E040E751E40E9425
:10583000AD339B01AC010E94CD3120E030E040EF60
:1058400051E40E94CD319B01AC0160E070E088EC36
:1058500091E40E943B330E9426346093AC041433DD
:1058600008F46DC911501093B0041092B204C090A6
:10587000B004C0FE74C98091B104833009F46BC9CF
:105880001092B4041092B5048091B4048E3171F476
:1058900080913D0781508E3F48F48091B2048A3058
:1058A00028F485E08093B5041092B4048091B40488
:1058B0008D3139F440E063E47BE08DE497E00E94B1
:1058C0000F0C1091B504153021F0812F8D7F8130A0
:1058D00041F54FEF5FEF6BEF7FEF8DE290E00E94BD
:1058E000461041E050E065E070E08DE290E00E94FB
:1058F000461050E040E070E060E087E390E00E94F6
:1059000046104FEF5FEF70E060E082E390E00E94AE
:10591000461041E050E070E060E082E390E00E94D9
:105920004610112329F011501093B5041092B404BD
:1059300080913D0781508E3F10F58091AF04811119
:105940001EC0F3E1FC15D8F08091B504811117C099
:105950008091B2048A3098F44FEF5FEF70E060E01E
:1059600082E390E00E94461041E050E070E060E089
:1059700082E390E00E94461086E08093AF0480911D
:10598000AF04882329F081508093AF041092B404AF
:105990008091AF04811107C08091B4048E3118F456
:1059A0008F5F8093B4048091B4048A3068F0809152
:1059B0009804853648F48091A5049091A604059634
:1059C0009093A6048093A5048091B1048111F3C043
:1059D0008091B3048F5F8093B3048A3008F4EBC0E6
:1059E0001092D1071092D2070AE02CE24AE064E15B
:1059F00082EC97E00E94210F0CE02CE24DE164E183
:105A000082EC97E00E94210F11E01093D1071093D0
:105A1000D20761E471E0CE0101960E94BF1586E1D4
:105A20008093CB078AE08093CC071093C807CE0100
:105A300001960E94BD09CE0101960E94EE142091AC
:105A4000B30482ED90E0821B9109883C91050CF033
:105A5000D7C864E170E00E94F634072E000C880B72
:105A6000990B01E02AE04CE30E940E1B6BE471E00D
:105A7000CE0101960E94BF154DE164E1CE01019671
:105A80000E948F15CE0101960E94EE1468E571E028
:105A9000CE0101960E94BF1544E268E1CE01019655
:105AA0000E948F15CE0101960E94EE148091B304DE
:105AB00064E10E94EA349A3021F48DE497E00E9478
:105AC0008E0C80913E07813029F486EE8093B304DA
:105AD0000E94870C80913F07813029F080913D071B
