:100000000C9493070C94BB070C94BB070C94BB0790
:100010000C94BB070C94BB070C94BB070C94BB0758
:100020000C94BB070C94BB070C942E120C94A012DA
:100030000C94BB070C94BB070C94BB070C94BB0738
:100040000C94BB070C946D0A0C94BB070C94BB0773
:100050000C94BB070C94BB070C94BB070C94800951
:100060000C94BB070C94BB070C94BB070C94BB0708
:100070000C94BB070C94BB070C94BB070C94BB07F8
:100080000C940B0B0C94BB070C94BB070C94BB0794
:100090000C94BB070C94BB070C94BB070C94BB07D8
:1000A0000C94BB070C94BB070C94BB073A083D08A3
:1000B0002C08300834085E085E085E0841084508D0
:1000C00049084F0853085E085908D508DA08DF08C0
:1000D000E908F3083D093D093D09FD080709110933
:1000E0001B0928093D093009F0F89C8E8783878E0B
:1000F0009CF8F00000FEFF0303030303070EFCF867
:100100000000FEFF0303030303070EFCF80000FFDB
:10011000FF00000000000000FFFF0000FEFF8383DF
:10012000838383C7EE7C380000F8FC0E07030303CB
:10013000070EFCF800003F7FE0C08080C0E07F3FFA
:10014000FFFF01010101010101FFFF0000FFFF0CA2
:100150000C0C0C1C3E77E3C100007FFFC0C0C0C088
:10016000C0E0703F1F00001F3F70E0C0C0C0E070E3
:100170003F1F00007FFFC1C1C1C1C1E3773E1C002A
:10018000001F3F70E0C0C0C0E0703F1F00000000D3
:100190000001FFFF01000000000000002400270014
:1001A0002A002D003000D5F08D14A1C881CFD9F1DF
:1001B000AF20001402130212021502070208020403
:1001C000010C0106010047414D45204F56455200A4
:1001D0001C22414541457F45454545457F454545AF
:1001E00045457F45454545457F45414541221C00E4
:1001F000001028BCF4BC2810000000000000000023
:1002000000000010389CFE9C381000000000000028
:100210000000000000103874FA7C38100000000064
:1002200000000000000000183C7CF87C3C18000036
:1002300000000000000000003E1C08081C3E304882
:100240004E31D1314E483000000101010101000062
:10025000304854AA45A24448300000010101010180
:10026000000010386CF6FBFE7C3810000000000126
:10027000000000001C227AFEFCFE7E3E1C000000F6
:100280000001000000003048B6B1CE2ECEB1B6005D
:1002900000010000000000013048B4AA55BA5DBA60
:1002A000B40000010000000000011028449209047D
:1002B0000182440000000001000100001C225D8555
:1002C000010201814100000000010001000008401E
:1002D0004A12B5EA7EFEFFFFFFFFFFFFFF000000AE
:1002E0000100010101010001010101011044145D3F
:1002F0007A575B7FFEFFFFFFFFFFFF00000000015A
:100300000001010101000101010108084429BEFDAD
:10031000775EFEFFFFFFFFFFFF000000010001000E
:1003200001010101010101012020202020202020C5
:10033000506175736564202020202020202000203B
:10034000202020202020436F6D706C6574650A0AA0
:10035000416C6C20686967682073636F7265206404
:100360006174610A776173206572617365642E2E12
:100370002E0020202020202020436F6E74726F6C8E
:10038000730A0A20202020413A2053686F6F74209E
:10039000737569740A20202020423A2050617573D9
:1003A000650A00FC42B995B942FC0000827C381015
:1003B0000000000001020202010000000000000035
:1003C0000000002020202020496E73747275637431
:1003D000696F6E730A0A4D61746368207061697297
:1003E00073206F66207368617065730A6279206C90
:1003F00061756E6368696E672063617264732074EF
:100400006F0A67657420706F696E74732C20627553
:100410007420646F6E27740A6D69737320746F6F34
:10042000206D616E79210A0000000000C0F01808FC
:100430000C040404040404040C0C1C3C3C788000F0
:10044000000000000000C0C000000080C00000806C
:1004500040CECE000020E0F8400000000000000088
:10046000000000000000000000000000000000008C
:10047000000000000000000000000000000000007C
:10048000000000008080C0E0E0F0F8FCFEFCF8F026
:10049000E0E0C0808080C0E0F0E0C08000000000AC
:1004A000000000000000000000000000071F3E7C6C
:1004B0007878F0F0F0F0E0E0E0E0C0C0C0808100CB
:1004C0000000000000007F7F4020107F7F40200060
:1004D000007F7F4040007F7F4040060606060606FC
:1004E00006060606060606060606060606060606AC
:1004F000060606060606060606060606060606069C
:10050000F6FEFEFFFFFFFFFFFFFFFFFFFFFFFFFF06
:10051000FFFFFFFFFFFFFFFFF70F1FFFFFFEFCF8CE
:10052000F0E0E0C08000000000FE8000000000005D
:100530000000000000000101010183E337171FCF15
:10054000EEEC080808081818387878F00000000069
:10055000000000F0FC0404848080000000000080A3
:1005600080800000000000000080808000000040CB
:10057000C0F08000000000008080808000000080CB
:10058000810F1F1FBFBF3F3F3F1F0FC7FFE70FFF79
:10059000FFBFBF3F3F1F1F8781E0F0FFFFFFFFFF4F
:1005A000FFFFFF7F3F1F0C000001070F1E1C3838A4
:1005B000307070606060606060606F3F3CB8DCEF1E
:1005C000E7E1E0E0C0C0C0C0808080000300000020
:1005D000000000FF7F020101FFFF80003C7FC1801F
:1005E00080417F1E00003C7FC18080417F1E000053
:1005F000FFFF8080003CFFD188848363010001FFFE
:100600007F02010103010000000003030303030252
:1006100001030F1F3F7FFFFFFFFFFF7F3F1F0F07FC
:1006200003010000000000000000000000000000C6
:1006300000000000000000FC0000000000000000BE
:10064000010101010303030307070F0F3FFEFCF83D
:10065000000000000000000000000000000000009A
:10066000000000000000000000000000000000008A
:10067000000000000000000000000000000000007A
:10068000000000000000000000000000000000006A
:100690000000000000000001010100000000000057
:1006A000000000000000000000000000000000004A
:1006B00000000000000000030F1E3C38707060E076
:1006C000E0C0C0C0C0C0C0C0C0406070381F0F03D1
:1006D000000000000000000000000000000000001A
:1006E000000000000000000000000000000000000A
:1006F00000000000000000000000000000000000FA
:1007000000000000000000000000000000000000E9
:1007100000000000000000000000000000000000D9
:10072000000000000000000063726169742E6E65B5
:10073000740040637261697400486F6C6D6573008A
:100740004A6F6E617468616E00458A15AA15AAD554
:100750006A342821321D0A0C06030207022341A035
:10076000418040814020804080402008C77DA255C4
:10077000A251A8158844A251AA54A8518205FF008D
:10078000004180800080E0F0F0F0F0E060606068A0
:10079000EDE4E3E0E06172E102E1321AAF11885466
:1007A0008A452A059245A241A055AA55AA55BFE0FF
:1007B000000000003CFEFFFFFF1DEC3637F7F7EEB0
:1007C0001FFF3FDF2E37F6EE1C037E55CAC5A25130
:1007D000A854AA552A158A452251A254A055FEC3F1
:1007E000BC66400038DF7FBFFFFFFE7D7D7DFDFEE4
:1007F0003F7FFFF06D1DBDFEFFE0833FC07FA25530
:10080000A2512804A251A854AA11A215A2C56A4552
:1008100063416B5E7871A64B8D979C3831230646F9
:100820004D4D6D727F6F1F370F1DCBE07F556A45B1
:1008300040C08AC56AB5DAEDCA3DCEF3FDFEF88741
:100840007FFFFFFFFFC0BFBEBDDB57A7CFB78BFA4F
:10085000F676A6CA76EA9C5FDFC0FEFEFFFFFFFFCA
:100860000FB6B9FBF8F3F7FFF800000000003E5B9D
:100870004F5B3E3E6B4F6B3E1C3E7C3E1C183C7EED
:100880003C181C577D571C1C5E7F5E1C00183C18D2
:1008900000FFE7C3E7FF0018241800FFE7DBE7FFCE
:1008A00030483A060E2629792926407F050507405B
:1008B0007F05253F5A3CE73C5A7F3E1C1C08081C1C
:1008C0001C3E7F14227F22145F5F005F5F06097F5A
:1008D000017F006689956A606060606094A2FFA2F3
:1008E0009408047E040810207E201008082A1C08A2
:1008F000081C2A08081E101010100C1E0C1E0C30AC
:10090000383E3830060E3E0E0600000000000000A3
:100910005F00000007000700147F147F14242A7F63
:100920002A12231308646236495620500008070330
:1009300000001C2241000041221C002A1C7F1C2AAE
:1009400008083E0808008070300008080808080001
:100950000060600020100804023E5149453E0042FC
:100960007F400072494949462141494D33181412CC
:100970007F1027454545393C4A49493141211109F4
:10098000073649494936464949291E0000140000E6
:100990000040340000000814224114141414140000
:1009A0004122140802015909063E415D594E7C124C
:1009B00011127C7F494949363E414141227F4141E4
:1009C000413E7F494949417F090909013E41415161
:1009D000737F0808087F00417F41002040413F01AC
:1009E0007F081422417F404040407F021C027F7FED
:1009F0000408107F3E4141413E7F090909063E41FE
:100A000051215E7F09192946264949493203017F50
:100A100001033F4040403F1F2040201F3F403840DF
:100A20003F631408146303047804036159494D4378
:100A3000007F4141410204081020004141417F04F0
:100A400002010204404040404000030708002054D7
:100A50005478407F28444438384444442838444437
:100A6000287F385454541800087E090218A4A49C06
:100A7000787F0804047800447D40002040403D0019
:100A80007F1028440000417F40007C047804787C7B
:100A9000080404783844444438FC182424181824E2
:100AA0002418FC7C08040408485454542404043FCB
:100AB00044243C4040207C1C2040201C3C403040D2
:100AC0003C44281028444C9090907C4464544C44FE
:100AD000000836410000007700000041360800029F
:100AE000010204023C2623263C1EA1A161123A40C9
:100AF00040207A3854545559215555794121545440
:100B00007841215554784020545579400C1E52723A
:100B10001239555555593954545459395554545816
:100B20000000457C410002457D420001457C40F0CB
:100B3000292429F0F0282528F07C5455450020541C
:100B4000547C547C0A097F49324949493232484829
:100B50004832324A4848303A4141217A3A424020AC
:100B600078009DA0A07D39444444393D4040403D3B
:100B70003C24FF2424487E4943662B2FFC2F2BFF67
:100B80000929F620C0887E090320545479410000C9
:100B9000447D413048484A32384040227A007A0A3F
:100BA0000A727D0D19317D2629292F282629292908
:100BB0002630484D4020380808080808080808383A
:100BC0002F10C8ACBA2F102834FA00007B000008A0
:100BD000142A142222142A14089500220095AA002F
:100BE0005500AAAA55AA55AA000000FF001010102F
:100BF000FF00141414FF001010FF00FF1010F0107D
:100C0000F0141414FC001414F700FF0000FF00FFA0
:100C10001414F404FC141417101F10101F101F14C8
:100C200014141F00101010F0000000001F1010100E
:100C3000101F10101010F010000000FF1010101006
:100C40001010101010FF10000000FF140000FF0033
:100C5000FF00001F10170000FC04F41414171017F5
:100C60001414F404F40000FF00F714141414141402
:100C700014F700F7141414171410101F101F141475
:100C800014F4141010F010F000001F101F000000EA
:100C90001F14000000FC140000F010F01010FF10F2
:100CA000FF141414FF141010101F00000000F010A7
:100CB000FFFFFFFFFFF0F0F0F0F0FFFFFF0000008C
:100CC0000000FFFF0F0F0F0F0F38444438447C2AF9
:100CD0002A3E147E02020606027E027E0263554907
:100CE00041633844443C04407E201E2006027E02BC
:100CF0000299A5E7A5991C2A492A1C4C7201724C3D
:100D0000304A4D4D303048784830BC625A463D3EFE
:100D1000494949007E0101017E2A2A2A2A2A44449F
:100D20005F444440514A444040444A51400000FF1F
:100D30000103E080FF000008086B6B0836123624C0
:100D400036060F090F0600001818000000101000EA
:100D50003040FF0101001F01011E00191D17120084
:100D60003C3C3C3C00000000000601150126013718
:100D7000014A015D01720188019F01B801D201EEB3
:100D8000010B022A024B026E029302BA02E4021025
:100D9000033F037003A403DC03170455049704DD29
:100DA0000427057505C80520067D06E0064907B835
:100DB000072D08A9082D09B9094D0AEA0A900B4028
:100DC0000CFA0CC00D910E6F0F5A1053115B12727A
:100DD000139A14D41520178018F519801B231DDED3
:100DE0001EB420A622B524E4263429A72B402E00C9
:100DF00031EA330037453ABC3D68414C456B49C840
:100E00004D68524F57805C0062101112131516176F
:100E1000181A1C1D1F21232527292C2E3134373A5F
:100E20003E4145494E52575C62686E757B838B9399
:100E30009CA5AFB9C4D0DCE9F70000000200090F9F
:100E40000000030401000C0000000000000000008E
:100E50000000000000000000040802011040804073
:100E600010204080408008020401804020100201D0
:100E70001080102040402000000000250028002B9A
:100E8000002E0031000404040404030405020202DD
:100E90000204030202020206060606060604040213
:100EA000020204040301080B00020202010009040B
:100EB00000000102020000052400100105240101C8
:100EC0000104240206052406000107058103100021
:100ED0004009040100020A00000007050202400068
:100EE0000007058302400000040309044172647591
:100EF000696E6F204C4C430041726475626F7900DB
:100F0000120100020000004041233680000101026E
:100F1000030112010002EF0201404123368000016B
:100F200001020301D11C11241FBECFEFDAE0DEBFA6
:100F3000CDBF26E0AEEDB1E001C01D92AF3BB207E0
:100F4000E1F711E0A0E0B1E0ECECF1E402C00590C3
:100F50000D92AE3DB107D9F717E0C3E9D7E004C061
:100F60002197FE010E94181DC239D107C9F70E94BE
:100F7000DD140C94E4200C940000CF92DF92EF92E9
:100F8000FF920F931F93CF93DF936C017A018B0134
:100F9000C0E0D0E0CE15DF0589F0D8016D918D015C
:100FA000D601ED91FC910190F081E02DC6010995EB
:100FB000892B11F47E0102C02196ECCFC701DF918D
:100FC000CF911F910F91FF90EF90DF90CF900895F8
:100FD0003FB7F89480912F0290913002A091310296
:100FE000B091320226B5A89B05C02F3F19F001969B
:100FF000A11DB11D3FBFBA2FA92F982F8827820F9F
:10100000911DA11DB11DBC01CD0142E0660F771FEE
:10101000881F991F4A95D1F708950E94321D362FD7
:1010200090E0FC01E75CF14F4491FC01E85AF14F7C
:101030002491FC01EB57F14F8491882309F451C0AE
:101040004423E1F150E0FA013197EF30F105B0F5BA
:10105000EA5AFF4F0C94181D909180009F7707C0AB
:10106000909180009F7D03C090918000977F909326
:10107000800024C094B59F7702C094B59F7D94BD35
:101080001DC0909190009F7707C0909190009F7D28
:1010900003C090919000977F909390000FC0909123
:1010A000C0009F7703C09091C0009F7D9093C000C7
:1010B00005C09091C200977F9093C200E82FF0E0A6
:1010C000EE0FFF1FE958F14FA591B4918FB7F89437
:1010D000EC91311103C020952E2301C02E2B2C93AF
:1010E0008FBF0895CF93DF9390E0FC01E85AF14F52
:1010F0002491FC01EB57F14F8491882361F190E03A
:10110000880F991FFC01E856FE4FC591D491FC0150
:10111000E958F14FA591B491611109C09FB7F894B6
:101120008881209582238883EC912E230BC0623026
:1011300061F49FB7F8943881822F80958323888348
:10114000EC912E2B2C939FBF06C08FB7F894E881AB
:101150002E2B28838FBFDF91CF9108951F93CF93BC
:10116000DF93182FEB0161E00E947208209711F4C1
:1011700060E004C0CF3FD10539F461E0812FDF91F9
:10118000CF911F910C940F08E12FF0E0E75CF14F35
:10119000E4914E2F50E0FA013197EF30F10508F05D
:1011A0006CC0EB59FF4F0C94181D84B5806884BD4A
:1011B000C7BD68C084B5806284BDC8BD63C080916E
:1011C0008000806880938000D0938900C09388005D
:1011D00059C080918000806280938000D0938B0002
:1011E000C0938A004FC08091800088608093800007
:1011F000D0938D00C0938C0045C080919000806892
:1012000080939000D0939900C09398003BC0809148
:101210009000806280939000D0939B00C0939A00CE
:1012200031C080919000886080939000D0939D00A1
:10123000C0939C0027C08091C00080688093C0004C
:101240008091C0008F7B8093C000C093CF001AC0F4
:101250008091C00080628093C000C093D00012C013
:101260008091C20088608093C2008091C2008B7F11
:101270008093C200C093D20005C0C038D1050CF0E5
:101280007CCF76CFDF91CF911F9108958F929F925F
:10129000AF92BF92CF92DF92EF92FF926B017C01EF
:1012A0000E94E8074B015C01C114D104E104F10480
:1012B000F1F00E94E807DC01CB0188199909AA091D
:1012C000BB09883E9340A105B10570F321E0C21A25
:1012D000D108E108F10888EE880E83E0981EA11C71
:1012E000B11CC114D104E104F10419F7DDCFFF9062
:1012F000EF90DF90CF90BF90AF909F908F90089528
:101300000F920FB68F939F93EF93FF9380912A02D2
:101310008D5F8D3708F08D5780932A02EBE2F2E063
:1013200080818E4F808391819F4F918382818F4FE7
:10133000828383818F4F8383EFE2F2E080818F5F2E
:10134000808381818F4F818382818F4F82838381CC
:101350008F4F83838FB18F6066991C9B88278F3650
:1013600081F48091FF0A981B963068F0E0E0F8E085
:1013700087E78083818388E180936000F093600039
:10138000FFCF9093FF0AFF91EF919F918F910FBE36
:101390000F9018958FB12CB193B130E02095309516
:1013A00020743327A90123E0559547952A95E1F745
:1013B000292F30E0209530952071332735952795DA
:1013C00035952795242B8095807F822B0895FC01ED
:1013D00021912EBD9C5F21910DB407FEFDCF2EBD46
:1013E000E817F907C1F70DB407FEFDCF0895CF92B6
:1013F000DF92EF92FF920F931F93CF93E82FF0E0CD
:10140000EC55F14FC491E62FF0E0603330F4E75F24
:10141000F14FE4910E2F10E006C0EE0FFF1FE75FC3
:10142000F24F059114916801E12CF12C60E074E217
:1014300084EF90E0A70196010E944A20BA01A90119
:1014400041505109610971094115510581E0680751
:10145000710580F060E970ED83E090E0A7019601EE
:101460000E944A20BA01A90141505109610971093C
:1014700083E001C081E0C130C9F0C33031F5909103
:101480009100987F892B809391005093990040930D
:101490009800109329020093280281E0809327028C
:1014A000809171008260809371000FC090918100E3
:1014B000987F892B80938100509389004093880006
:1014C00080916F00826080936F00CF911F910F9188
:1014D000FF90EF90DF90CF9008951F920F920FB67C
:1014E0000F9211242F933F938F939F93AF93BF93AA
:1014F000EF93FF9380912002882309F44DC08091DF
:101500001C0290911D02A0911E02B0911F02892B16
:101510008A2B8B2B51F180913A02E0913B02F091A2
:101520003C0290818927808380911C0290911D024A
:10153000A0911E02B0911F02181619061A061B066A
:10154000A4F580911C0290911D02A0911E02B09101
:101550001F020197A109B10980931C0290931D02FB
:10156000A0931E02B0931F0220C01092200280910F
:101570006F008D7F80936F0090913A02E0913B0263
:10158000F0913C028081282F30E0892F90E08095F7
:1015900090958223932308C080913A02E0913B0208
:1015A000F0913C02908189278083FF91EF91BF9158
:1015B000AF919F918F913F912F910F900FBE0F9000
:1015C0001F901895E82FF0E0EC55F14FE491E130D1
:1015D00019F0E33069F0089580916F008D7F80935A
:1015E0006F0090913A02E0913B02F0913C0208C0FA
:1015F0001092270290913702E0913802F09139025F
:101600008081282F30E0892F90E08095909582236B
:101610009323808308951F920F920FB60F92112487
:101620002F933F934F935F936F937F938F939F93EA
:10163000AF93BF93EF93FF9380912702882349F0E4
:1016400080913702E0913802F09139029081892728
:1016500080838091DE01882309F493C08091230266
:1016600090912402A0912502B0912602892B8A2B09
:101670008B2B09F486C08091230290912402A091C3
:101680002502B09126020197A109B1098093230296
:1016900090932402A0932502B0932602892B8A2BD3
:1016A0008B2B09F06EC0E0912102F0912202BF0164
:1016B0006F5F7F4F70932202609321024491942FB9
:1016C000907F842F8F70903819F40E94E20AEBCF3C
:1016D000903981F43296F0932202E0932102FB01CB
:1016E000649190913D028917F0F667FDDCCF0E946E
:1016F000F709D9CF903E29F41092220210922102CC
:10170000D2CF903F19F41092DE013BC097FDCBCFB2
:101710003296F0932202E0932102FB01249130E003
:10172000342BA0912802B09129020E949E206C5077
:101730007E4F8F4F9F4F28EE33E040E050E00E94F5
:101740007C2020932302309324024093250250935F
:1017500026028091230290912402A0912502B0914B
:101760002602892B8A2B8B2B61F481E090E0A0E08C
:10177000B0E08093230290932402A0932502B093BB
:101780002602FF91EF91BF91AF919F918F917F9131
:101790006F915F914F913F912F910F900FBE0F90DE
:1017A0001F9018956038710518F54034510500F503
:1017B000A42FA695A695A695B0E047705527B69597
:1017C000BA2FAA27B795A7956A0F7B1FFC01E60FD2
:1017D000F71F81E090E001C0880F4A95EAF72223C5
:1017E00019F09489892B03C0809594898923848B6F
:1017F00008952F923F924F925F926F927F928F92B5
:101800009F92AF92BF92CF92DF92EF92FF920F938F
:101810001F93CF93DF93CDB7DEB72A970FB6F89417
:10182000DEBF0FBECDBF6A3091F4FC01E85EFB4F16
:10183000408132972081318158E0459F200D311D34
:10184000112431832083329711821082C1C06D3000
:1018500009F4BEC09A878987885E9B4F9C838B83DF
:10186000DC012C90E985FA85EA5EFB4F608071808F
:10187000E985FA85EC5EFB4FFA83E98300811181EB
:1018800000381105D4F0AB81BC812C91422F50E07F
:10189000E981FA8180819181F6E02F9F800D911D71
:1018A0001124A981BA818D939C93E985FA85E75E1D
:1018B000FB4F208121115EC08BC0B0E46B16710418
:1018C00014F7C801E5E02E9E800D911D1124181615
:1018D0001906CCF6422C512CC301F8E02F9E800D46
:1018E000911D11241816190674F655E0659F900194
:1018F00011243F832E83E12CF12C85E0E816F104BE
:1019000041F0EE81FF81EE0DFF1DE759F74F349056
:1019100001C0312C630138E0932D91709D83480103
:10192000882D801B8215B0F456018A2D8C198215E2
:1019300068F42D81A501B40189859A8538870E94B4
:10194000D20BAFEFAA1ABA0A3885EFCFBFEF8B1AC6
:101950009B0AE6CF36943150C40CD51C3111DCCF34
:10196000EFEFEE1AFE0A040D151DF6E0EF16F10476
:1019700021F689CF6AEF64039001659F300D112431
:1019800020583F4F281739071CF5A985BA85ED91D6
:10199000FC9111970190F081E02D6AE0CD012A962B
:1019A0000FB6F894DEBF0FBECDBFDF91CF911F9170
:1019B0000F91FF90EF90DF90CF90BF90AF909F90EE
:1019C0008F907F906F905F904F903F902F900994F1
:1019D0002A960FB6F894DEBF0FBECDBFDF91CF9130
:1019E0001F910F91FF90EF90DF90CF90BF90AF903D
:1019F0009F908F907F906F905F904F903F902F902F
:101A000008954F925F926F927F928F929F92AF92C2
:101A1000BF92CF92DF92EF92FF920F931F93CF93DB
:101A2000DF931092F70185E090E09093010180939D
:101A300000011092E0011092DF0110921B0210923F
:101A40001A028EE190E09093490180934801109230
:101A5000E2011092E10183E090E0909341018093D4
:101A60004001909347018093460182E090E090937B
:101A70003F0180933E0183EEC82E81E0D82E9DEE7B
:101A8000A92E91E0B92EC0E0D0E02EE5622E772499
:101A9000739434E0832E912CF601119211926F0110
:101AA000F501119211925F01E12CF12C00E010E0A0
:101AB0000E9424200F5F1F4F27014C0E5D1EF20174
:101AC000EE5FFE4FB3010E94041D9C01245D3E4F5A
:101AD000209FC001219F900D309F900D11248058B0
:101AE0009F4F918380830E942420F201E05EFE4F8D
:101AF000B4010E94041D039691838083F2E0EF0EEF
:101B0000F11C03301105A1F62696CE31D10521F640
:101B10008EE091E0909303018093020182E890E0CF
:101B200090930F0180930E018CE791E090931B013D
:101B300080931A0188E893E190930701809306014E
:101B400088E690E190930D0180930C0180E594E18B
:101B5000909313018093120184E991E1909319010C
:101B60008093180184EB94E190931F0180931E01F0
:101B700010924301DF91CF911F910F91FF90EF9051
:101B8000DF90CF90BF90AF909F908F907F906F909D
:101B90005F904F900895FC0180913602811103C03F
:101BA0008FEF9FEF08959FB7F89482E08093E9004C
:101BB0002091F20030E01216130614F421E030E018
:101BC0002115310559F0289884E6809335028091DB
:101BD000F10080838091F200882319F09FBFC90132
:101BE00008958BE68093E800F9CFCF93DF931F929F
:101BF000CDB7DEB76983DC01ED91FC910280F38102
:101C0000E02D41E050E0BE016F5F7F4F09950F90DE
:101C1000DF91CF91089583E08093E9008091F200F5
:101C2000882319F08AE38093E8000895CF93DF9327
:101C30001F92CDB7DEB7FC018485958597FD05C061
:101C40002FEF3FEF358724870BC0CE0101960E940E
:101C5000CB0D019719F4898190E002C08FEF9FEFBF
:101C60000F90DF91CF9108950F931F93CF93DF9340
:101C70001F92CDB7DEB78C01FC018485958597FF57
:101C80000EC0CE0101960E94CB0D019719F4298157
:101C900030E002C02FEF3FEFF80135872487F801CD
:101CA000848595850F90DF91CF911F910F910895B5
:101CB000FC018485958597FD0BC09FB7F89482E061
:101CC0008093E9008091F2009FBF90E00196089513
:101CD0009FB7F89482E08093E9008091F2009FBF63
:101CE00090E008958F929F92AF92BF92CF92DF9231
:101CF000EF92FF920F931F93CF93DF935C016B01E1
:101D00008A0180915101882309F45EC080913602D6
:101D1000882309F459C08091340280FF05C0809166
:101D2000E00082608093E000E8018AEFF82E93E003
:101D3000E92E2FE3822E3AE3932E209709F43DC03B
:101D40008FB7F894E092E9009091E80095FF06C003
:101D50009091F200282D291B922F01C090E08FBF97
:101D600091110AC0FA94FF2079F161E070E080E0FF
:101D700090E00E944609E1CF292F30E0C217D30737
:101D80000CF49C2F8FB7F894E092E9002091E800C2
:101D900025FF11C0292F30E0C21BD30BF601915053
:101DA00020F041914093F100FACFC20ED31E9091E2
:101DB000E80095FF13C08FBFC0CF5D9884E6809385
:101DC00033021016110644F081E090E0F501938390
:101DD000828380E090E005C0C80103C09092E800D3
:101DE000EACFDF91CF911F910F91FF90EF90DF909D
:101DF000CF90BF90AF909F908F900895CF93DF9337
:101E00001F92CDB7DEB760913E0282EA91E069830E
:101E10000E9434206981681721F082EA91E00E94D3
:101E20003C2060913F0283EA91E069830E94342064
:101E30006981681721F083EA91E00E943C208EE3DB
:101E400092E00F90DF91CF91089520E084E592E039
:101E5000B22FB111BFEFFC010024B193B193B19344
:101E6000B1930394D1F70895CF93DF9390913D02FE
:101E7000923009F46EC0C82F292F30E0F901EC55DB
:101E8000F14FD491F901EA59F94F80839F5F909304
:101E90003D0261E00E947208D13019F0D33039F16F
:101EA00058C010928000109281008091810088605B
:101EB00080938100809181008160809381008C2FCC
:101EC00090E0FC01EB57F14FE491F0E0EE0FFF1FC3
:101ED000E958F14F2591349130933C0220933B0215
:101EE000FC01E85AF14F849180933A0232C010927B
:101EF00090001092910080919100886080939100F1
:101F0000809191008160809391008C2F90E0FC0182
:101F1000EB57F14FE491F0E0EE0FFF1FE958F14F5E
:101F2000259134913093390220933802FC01E85A0C
:101F3000F14F84918093370280913D02882321F0F4
:101F40006CE380E00E94F70980E0DF91CF910C9470
:101F5000E20ADF91CF9108952F923F924F925F92C4
:101F60006F927F928F929F92AF92BF92CF92DF92A9
:101F7000EF92FF920F931F93CF93DF93CDB7DEB70E
:101F800028970FB6F894DEBF0FBECDBF222E312C9E
:101F90009C01220D331D37FD30C1803891050CF0B6
:101FA0002CC19B01200F311D37FD27C16034710505
:101FB0000CF023C1DB0177FF04C0AA27BB27A61BB7
:101FC000B70BA770BB279B0177FF02C0295F3F4F6C
:101FD00013E0359527951A95E1F777FF08C0215052
:101FE000310968E070E05B01AA1ABB0AD501E02F55
:101FF000E695E695E695CE2ED12C077019F00FEFF9
:10200000C01AD00AB9017695762F6627779567951D
:10201000680F791F5601A20EB31EBC82AB82412C01
:10202000512CF8E0CF2ED12C86010A1B1B0B1A83F2
:102030000983AB80BC802A153B0509F4DEC028303B
:10204000310509F4DAC02F3F1FEF31070CF4CAC085
:102050003B01E0E86E0E711C8B010C521D4F1E837C
:102060000D834C0100E010E0021513050CF0BAC01E
:10207000E0E88E16910409F4B5C097FCA8C02F3F84
:10208000FFEF3F0709F4B5C0F801E40DF51DCD8061
:10209000DE80C618D708AA24A394E40FF51FEA101F
:1020A00013C0E491C60ED71EF0E05F010A2E02C0F5
:1020B000AA0CBB1C0A94E2F7B886AF82F601B08086
:1020C000EF81F885EB292BC0E11017C0E491C60E13
:1020D000D71EF0E00A2E02C0EE0FFF1F0A94E2F7AF
:1020E0005F01A094B094B886AF82F601A080B12CB5
:1020F000EF81F885AE22BF2213C0E491C60ED71E31
:10210000F0E05F010A2E02C0AA0CBB1C0A94E2F7A1
:10211000B886AF82F601B080EF81F885EB255F01CC
:10212000F601A082109709F452C02730310509F456
:102130004EC0F801E40DF51DAA24A394EA1011C0C5
:10214000E40FF51FE491CE2ED12C5601098002C078
:10215000B594A7940A94E2F7ED81FE81D080AD2872
:1021600035C0CD80DE80C618D708E40FF51FE1101A
:1021700018C0E491C60CD71CAE2EB12C098002C049
:10218000B594A7940A94E2F7F501E095F095F887E5
:10219000EF83F601A080B12CEF81F885AE22BF223B
:1021A00014C0E491C60CD71CAE2EB12CF5010980E9
:1021B00002C0F595E7950A94E2F7F887EF83F601F8
:1021C000B080EF81F885EB255F01F601A0820F5FFB
:1021D0001F4FED81FE813196FE83ED83FFEF8F1A55
:1021E0009F0A42CF2F5F3F4F420C531C60587F4FD6
:1021F00020CF109709F09DCFEACF28960FB6F8941C
:10220000DEBF0FBECDBFDF91CF911F910F91FF9029
:10221000EF90DF90CF90BF90AF909F908F907F9086
:102220006F905F904F903F902F900895009769F0C6
:10223000FC0101900020E9F73197AF01481B590BD1
:10224000BC0180E492E00C94BD0780E090E008952A
:102250000F931F93CF93DF938C01C0E0D0E0F80180
:10226000EC0FFD1F6491662371F0E0914002F09144
:1022700041020190F081E02D80E492E00995892BE4
:1022800011F02196ECCFCE01DF91CF911F910F91EC
:10229000089580915E0681110DC082E080935A06F8
:1022A00084E080935B0610925D0610925C0681E0EC
:1022B00080935E068AE596E008954091BD065091B0
:1022C000BE062091BB063091BC0642175307B4F4FA
:1022D0009091E8009570E1F39091E80092FD19C0AB
:1022E0008093F1008091BD069091BE0601968F7398
:1022F0009927892B19F48EEF8093E8008091BD0611
:102300009091BE0601969093BE068093BD0681E033
:10231000089580E00895CF92DF92EF92FF920F939D
:102320001F93CF93DF931F92CDB7DEB7182F062FE1
:10233000E42E862F880F8E5F99830E945D1183E0C3
:102340000E945D11F12EC12E9981D92E8C2D8F19ED
:10235000801798F4F601E7FE02C0849101C08081E5
:102360000E945D11182F80E00E945D118123FFEF14
:10237000CF1ADF0A8111EACF01C081E00F90DF910F
:10238000CF911F910F91FF90EF90DF90CF90089524
:10239000DF92EF92FF920F931F93CF93DF93D82E8C
:1023A0008A017B01E40EF51EEB01CE15DF0571F00D
:1023B000D7FE03C0FE01849101C088810E945D1197
:1023C00021968111F2CF8FEF9FEF01C0C801DF91FD
:1023D000CF911F910F91FF90EF90DF900895615082
:1023E00030F02091F100FC0120830196F8CF28986D
:1023F00084E68093350208950F931F93CF93DF9364
:102400001F92CDB7DEB782E0898342E450E066EAEE
:102410007EE080E80E94C8110E944911DC011296FA
:102420000D911C9113970115110569F0D801ED91DB
:10243000FC910280F381E02DBE016F5F7F4FC801E8
:10244000099597FF07C089810F90DF91CF911F9168
:102450000F910895F80100851185E5CF1F920F9225
:102460000FB60F9211248F939F938091E10090916A
:10247000E100937F9093E10083FF0FC01092E90089
:1024800091E09093EB001092EC0092E39093ED00BA
:102490001092360298E09093F00082FF20C093E003
:1024A0009093E9009091F200992319F09AE39093A8
:1024B000E80090913302992339F0909133029150C2
:1024C00090933302992389F190913502992339F041
:1024D00090913502915090933502992341F184FFF8
:1024E00010C08091E2008E7E81608093E200809136
:1024F000E1008F7E8093E100809134028E7E8061C6
:1025000011C080FF16C08091E2008E7E80618093B2
:10251000E2008091E1008E7E8093E10080913402A0
:102520008E7E81608093340204C05D9ACDCF289A5C
:10253000D6CF9F918F910F900FBE0F901F9018953F
:102540001F920F920FB60F921124CF92DF92EF924B
:10255000FF920F931F932F933F934F935F936F932C
:102560007F938F939F93AF93BF93EF93FF93CF93FB
:10257000DF93CDB7DEB76C97DEBFCDBF1092E90019
:102580008091E80083FFFAC168E0CE0145960E9481
:10259000EF1182EF8093E8008D8987FF05C090914D
:1025A000E80090FFFCCF03C09EEF9093E800982FC7
:1025B000907609F0C6C09E892F89188D91110CC0A4
:1025C000803829F48091B9068093F10002C01092FE
:1025D000F1001092F10047C1422F50E0512B913091
:1025E00051F4811140C14130510509F03CC1809145
:1025F000B9068D7F0BC0933061F4811134C1413035
:10260000510509F030C18091B90682608093B90606
:102610002AC1953041F48091E80080FFFCCF20680A
:102620002093E30020C1963009F05FC0EB8CFC8C56
:102630001092E9001092BE061092BD06123091F57C
:102640001092BC061092BB060E94FC1199E0BE01DC
:102650006F5F7F4FDB01E92F1D92EA95E9F79983C0
:102660001A8391E09E8390EA98879AEF9987209148
:10267000BD063091BE06275F3F4F3C832B838D8381
:102680001092E9001092BE061092BD06F092BC06B0
:10269000E092BB0649E050E080E00E94C8110E9431
:1026A000FC11E1C0F092BC06E092BB060E94491109
:1026B000DC011296ED90FC901397E114F10409F4FB
:1026C000C0C0D701ED91FC910480F581E02DBE01E1
:1026D0006B5E7F4FC7010995009719F00CF0C3C0DE
:1026E000C6C0F701E084F184E8CF973009F4BFC099
:1026F000983021F481E08093F100B5C0993009F061
:10270000B2C0837009F0B3C0E7E7F1E081E021E0F7
:1027100036E39081992361F08093E9002093EB00E8
:1027200091919093EC003093ED008F5F873089F7A3
:102730008EE78093EA001092EA008F898093360238
:1027400092C08B8D9C8D1092E9001092BE06109263
:10275000BD069093BC068093BB06898D811156C03F
:102760008E899D89913A59F4813209F080C047E001
:1027700050E06AE471E080E00E94C81174C09132B8
:1027800009F075C0833289F4888D90E0982F8827EE
:102790002F89822BA0E0B0E08093520190935301E7
:1027A000A0935401B09355015EC0803269F48091CA
:1027B000E80082FFFCCF67E08AE491E00E94EF111D
:1027C0008BEF8093E80006C0823209F04CC08F89FD
:1027D000809351018091B806882319F0EEEFFAE05A
:1027E00002C0E0E0F8E080914A0190914B01A09195
:1027F0004C01B0914D01803B9440A105B10509F019
:1028000088C08091510180FFA0C083C00E944911FF
:10281000DC0112960D911C9113970115110539F1E8
:10282000D801ED91FC910190F081E02DBE016B5E2D
:102830007F4FC8010995811116C0F80100851185E7
:10284000ECCF1130C1F0133091F48F89882309F453
:1028500055C08230E9F440E867E088EF9EE00E94CE
:102860008B11882321F08EEF8093E80087C081E2EE
:102870008093EB0083C08B8D9C8D089711F410938F
:10288000BA068091BA06811136C060E07FE038C098
:10289000813029F440E86BE08CEE9EE0E0CF83309D
:1028A00031F70E944911DC011296ED90FC901397CC
:1028B0008E010F5F1F4F6801E114F10479F0D70119
:1028C000ED91FC910680F781E02DB801C7010995D3
:1028D000080F111DF701E084F184EECFD8011C929E
:1028E000F60101900020E9F73197BF016C197D09CD
:1028F00040E0C601B4CF62E17FE002C068EE7EE056
:102900006115710509F4B3CFFB01449150E080E8F3
:1029100033CF0FB6F894A8958091600088618093BA
:102920006000109260000FBEA895EE3F2AE0F2070B
:1029300039F08091FE0A9091FF0A9183808393CFB2
:102940001092FF0A1092FE0A8ECFEE3F8AE0F8073F
:1029500031F0808191819093FF0A8093FE0A87E78E
:1029600097E7918380839BE088E10FB6F894A89560
:10297000809360000FBE9093600075CF6C960FB689
:10298000F894DEBF0FBECDBFDF91CF91FF91EF91E5
:10299000BF91AF919F918F917F916F915F914F9177
:1029A0003F912F911F910F91FF90EF90DF90CF906B
:1029B0000F900FBE0F901F901895CF93DF9300D00C
:1029C00000D000D0CDB7DEB7789484B5826084BDE6
:1029D00084B5816084BD85B5826085BD85B5816023
:1029E00085BD80916E00816080936E0010928100A1
:1029F000809181008260809381008091810081605C
:102A0000809381008091800081608093800080911C
:102A10009100826080939100809191008160809309
:102A20009100809190008160809390008091C1001E
:102A300084608093C1008091C10082608093C10056
:102A40008091C10081608093C1008091C30081604A
:102A50008093C3008091C00082608093C000809109
:102A6000C20081608093C20080917A00846080936C
:102A70007A0080917A00826080937A0080917A0057
:102A8000816080937A0080917A00806880937A00D8
:102A9000109236021092B906109234028091D7003B
:102AA00081608093D70080EA8093D80089B58061E7
:102AB00089BD89B5826089BD09B400FEFDCF61E0A2
:102AC00070E080E090E00E9446098091D8008F7C01
:102AD00080618093D8008091E000807F8093E00047
:102AE0008091E1008E7E8093E1008DE08093E20092
:102AF000559A209AEEEFFFE7859194918B3F9C4D7C
:102B000019F481E08093B8061FB7F8948091F90119
:102B1000811127C0E6E9FEE08491E9E6FEE09491A8
:102B2000E82FF0E0EE0FFF1FE856FE4FA591B4919D
:102B3000EC91E92321F461E081E10E940F0861E05A
:102B400081E10E9472088CB580618CBD8CB5806477
:102B50008CBD61E08FE00E94720861E080E10E941C
:102B600072088091F9018F5F8093F9011FBF03EB19
:102B700011E0F80184910E5F1F4F31966491882314
:102B800019F00E947208F5CF61E086E00E940F08FC
:102B900061E070E080E090E00E94460960E086E03D
:102BA0000E940F086AE070E080E090E00E94460911
:102BB00061E086E00E940F08E1E9FEE0E491F0E0C8
:102BC000EE0FFF1FE958F14F859194919093FF010B
:102BD0008093FE01E4E6FEE0E491E093FD01E9E884
:102BE000FEE0E491F0E0EE0FFF1FE958F14F859110
:102BF00094919093FC018093FB01ECE5FEE0E4915D
:102C0000E093FA018CB58C7F8CBD8DB581608DBD54
:102C1000E091FE01F091FF0190818091FD01982BE0
:102C20009083A091FB01B091FC012C919091FA014D
:102C3000909592239C939081809589238083E6EAE6
:102C4000F1E021E0E33BF20749F084918EBD000002
:102C50000DB407FEFDCF8EB53196F3CFE091FB01A9
:102C6000F091FC0190818091FA01892B8083E091A1
:102C7000FE01F091FF0190818091FD0180958923F3
:102C800080838091640081608093640080916400FF
:102C90008260809364008091640080688093640007
:102CA00080916400806480936400809165008160FD
:102CB000809365000E94CA0987FF1AC080E094E0F3
:102CC0001EBC00000DB407FEFDCF2EB50197C1F765
:102CD00060E070E08AE00E94AE0860E070E08BE0A7
:102CE0000E94AE0860E070E089E00E94AE08FFCF6D
:102CF000AEEEAA2EBB24BA9418E1CC24CA94D12CEF
:102D0000812F8A19B601681B71098AE00E94AE08FA
:102D10006FEF70E08BE00E94AE086FEF70E089E02B
:102D20000E94AE080E94250FEE24E39400E128E5FE
:102D300048EE50E0B50184E190E00E94AC0F84E5DC
:102D400092E00E94E7096BE170E080E090E00E9471
:102D5000460930EFA31206C06AEF70E080E090E011
:102D60000E9446094FEFA41AB40A59E1A516B1040E
:102D700039F66EEE72E080E090E00E9446096FEF57
:102D800070E08AE00E94AE086FEF70E08BE00E9476
:102D9000AE086FEF70E089E00E94AE0885E00E9407
:102DA000340F8DE00E94340F1092DE0182E090E03B
:102DB0000E943420882369F080916400877F80938B
:102DC000640080916500877F8093650081E0809337
:102DD000F80186E98093460286E08093490284E503
:102DE00092E00E94E70980E090E00E94292082EAB8
:102DF00091E00E94342080933E0283EA91E00E9499
:102E0000342080933F020E94250FF3E02F2E312CB7
:102E10000E94250F8091460190914701019797FDEF
:102E200005C0909347018093460104C0309247014A
:102E300020924601809119028F5F80931902809140
:102E40004401909145018330910509F456C454F42E
:102E50008130910509F47BC00CF022C1892B09F463
:102E600061C0E9C48031910509F4F9C0823391054C
:102E700021F00F9709F0DFC48BC0EE24E39400E348
:102E800020E349E457E068E070E088E090E00E94C9
:102E9000AC0F8BE490E0909355068093540688E045
:102EA00090E0909357068093560680E497E00E9446
:102EB000281187E590E0909355068093540682E1AF
:102EC00090E0909357068093560689E397E00E941E
:102ED000281186E590E0909355068093540686E28B
:102EE00090E0909357068093560682E397E00E9405
:102EF000281184E490E0909355068093540681E372
:102F000090E0909357068093560688E297E00E94DF
:102F100028110E94CA0983FF8EC480914301811148
:102F2000BAC489C4EE24E39400E320E848E254E004
:102F300060E070E080E090E00E94AC0F0E94CA095F
:102F400083FF79C4809143018111AAC474C4109293
:102F5000550610925406109257061092560683ECAE
:102F600093E00E9428110E94CA0983FF04C0809147
:102F7000430181119EC4EE24E39400E120E143EA81
:102F800053E063E370E08EE690E00E94AC0F53C420
:102F9000EE24E39400E120E143EA53E063E370E0D0
:102FA0008EE690E00E94AC0F1092550610925406E7
:102FB000109257061092560682E793E00E9428115D
:102FC0001F928AE18F931F928BE18F938DE791E09F
:102FD0009F938F93E1E0CE2EE2E0DE2EDF92CF9240
:102FE0000E94371DC6010E9416111F9209E10F931E
:102FF0001F9218E11F9383E991E09F938F93DF92D3
:10300000CF920E94371DC6010E9416111F920F9386
:103010001F921F9388EA91E09F938F93DF92CF9244
:103020000E94371DC6010E9416110E94CA090FB6E0
:10303000F894DEBF0FBECDBF82FF08C00E94CA0950
:1030400087FF04C080914201811140C40E94CA09D7
:1030500083FFF1C380914201811147C4ECC3EE2488
:10306000E39400E120E143EA53E063E370E08EE69D
:1030700090E00E94AC0F10925506109254061092E8
:103080005706109256068FE393E00E9428110E9483
:10309000CA0983FFD0C38091420181112DC4CBC3E3
:1030A0000E94CA0982FF04C08091420181112DC48F
:1030B0008091F701882389F01092550610925406EA
:1030C000109257061092560688E293E00E9428114B
:1030D00084E592E00E94E709AEC30E94CA0985FF19
:1030E00004C080914201811119C40E94CA0986FF5F
:1030F00004C08091420181111DC40E94CA0987FF4A
:1031000004C080914201811121C40E94CA0984FF38
:1031100004C080914201811125C4809140019091A9
:103120004101079724F030924101209240018091A3
:10313000400190914101039734F486E090E0909330
:1031400041018093400180913E0190913F0105979C
:1031500034F084E090E090933F0180933E018091B1
:103160003E0190913F0197FF04C010923F011092E1
:103170003E010E94CA0983FF18C080914301882341
:10318000A1F0E0913E01F0913F01EE0FFF1FE351EE
:10319000FE4F80819181892B31F480914001909183
:1031A000410191838083109243015DEEA52E51E091
:1031B000B52E63EEC62E61E0D62E1A8219827FE00C
:1031C000872E912C412C512CF50160807180611467
:1031D000710409F453C0F6010190F081E02DFC83E5
:1031E000EB83CF010196F6019183808389379105A6
:1031F00034F011821082F501118210823FC080915B
:1032000019029201280F311DC9016AE070E00E9485
:10321000041DCB01B1010E94041D2EE1289FA001D5
:10322000299F500D112442535D4FEE24E39400E199
:103230002FE0B4018B819C8102970E94AC0FC301E7
:10324000039722E1289F3001299F700C1124A301CC
:103250004A575D4FE12C29E0B4018B819C8108968F
:103260000E94AC0FA301425C5D4FEE24E39429E081
:10327000B4018B819C8109960E94AC0F49815A81CF
:10328000405E5E4F3A0189819A818E5F9E4F9E8398
:103290008D831C821B8212E1F30180819181892B35
:1032A00009F4CEC08091460190914701892B39F4F1
:1032B000ED81FE8180819181019791838083ED81F1
:1032C000FE81808191810997FCF4809100019091A9
:1032D0000101019790930101809300010E94242035
:1032E00068E077E00E94041D845D9E4FED81FE81C1
:1032F000918380830E94242064E070E00E94041D7A
:103300000396F30191838083ED81FE818081918119
:103310008A3091050CF494C0F3012081318121158C
:10332000310509F48DC0F60140815181BA01685F11
:103330007F4F6817790731F0475F5F4F481759078C
:1033400009F06EC0F501808191818217930709F021
:1033500060C02091E1013091E2012F5F3F4F309337
:10336000E2012093E101C90169E170E00E94041DBE
:10337000892B49F48091000190910101019690936D
:10338000010180930001C9016CE070E00E94041DFE
:10339000892B49F48091DF019091E001019690938F
:1033A000E0018093DF01F50111821082F6011182A4
:1033B00010828091DF019091E0010A979CF40E94B5
:1033C00024202091DF013091E0014CE94203B0015B
:1033D000439F700D112464527A4F0E94041D88533C
:1033E0009F4F08C00E94242068E572E00E94041DDF
:1033F0008C599F4FED81FE81918380830E94242010
:1034000064E070E00E94041D0396F30191838083C1
:1034100017C0F60111821082F5011182108210C0CE
:1034200023503109129FA001139F500D1124425CBB
:103430005D4FEE24E39400E129E0B4010E94AC0F5B
:103440002B813C812F5F3F4F3C832B8332E0630E07
:10345000711C4D815E814E5F5F4F5E834D838B811A
:103460009C81039709F018CF9FEF491A590AE2E0AF
:10347000AE0EB11CFAE08F0E911C22E0C20ED11CE0
:1034800049815A814A5F5F4F5A83498355E0451607
:10349000510409F099CE8091400190914101FC01C5
:1034A0003397FA83E98322E12E9FC0012F9F900D6D
:1034B00011249C01225C3D4F290180913E01909195
:1034C0003F012AE0289FB001299F700D1124615F00
:1034D0007F4FEE24E39400E129E0A20181E090E037
:1034E0000E94AC0F0EE010E021E0A8016CE070E05B
:1034F00080E492E00E94D20B0F5F1F4F0134110550
:1035000099F70CE010E021E04EE050E0B80180E4D3
:1035100092E00E94D20B0F5F1F4F0138110599F7FF
:10352000EE24E39408E023E04BE352E063E070E034
:1035300085E290E00E94AC0F23E048E352E063E0B4
:1035400070E083E590E00E94AC0F8AE049815A81E7
:10355000849F3001859F700C11245AE2650E711C06
:1035600030EFA32E31E0B32E4AE2842E912CC12CF1
:10357000D12C89819A81EE24E39400E129E08C1515
:103580009D0529F4A20162E070E0C30104C0A50119
:1035900062E070E0C4010E94AC0F9FEFC91AD90A23
:1035A000EAE08E0E911CF2E1AF0EB11C24E0C216CF
:1035B000D104F9F608E110E02CE0C22ED12C40E84D
:1035C000C416D10469F0C0FC07C021E0A801B6010F
:1035D00080E492E00E94D20B3FEFC31AD30AEFCFF0
:1035E000065F1F4F0034110539F78DE090E090938E
:1035F00055068093540630925706209256068091C5
:10360000E2018F938091E1018F938BED91E09F9385
:103610008F9381E092E09F938F930E94371D81E00A
:1036200092E00E94161186E690E0909355068093F2
:103630005406109257061092560682E991E00E94B5
:10364000161180900001909001010F900F900F9043
:103650000F900F900F9097FE1AC030924501209264
:10366000440188EC809300028091E1019091E20195
:1036700020913E0230913F02281739070CF0DBC041
:1036800090933F0280933E020E94FE0ED4C0EE242F
:10369000E39408E020E240ED51E063E070E08EE565
:1036A00090E00E94AC0F9FE5492E512CA12CB12C2B
:1036B000A814B90409F4BFC06201320155E0650ED7
:1036C000711CC614D70491F004E010E021E0A801B9
:1036D000B60180E492E00E94D20B0F5F1F4F0930C9
:1036E0001105A1F78FEFC81AD80AEBCF9FEFA91ADF
:1036F000B90AE6E04E0E511CDBCF89E290E09093D0
:1037000055068093540689E090E090935706809385
:10371000560686EC91E00E94281180913E0290911D
:103720003F022091E1013091E2018217930729F5D0
:10373000009719F124E030E03093550620935406A9
:103740002EE130E030935706209356069F938F93D7
:103750008BEB91E09F938F9381E092E09F938F9307
:103760000E94371D81E092E00E9416110F900F9089
:103770000F900F900F900F903DC089E290E09093D2
:1037800055068093540683E190E09093570680930A
:1037900056063F932F9384ED91E09F938F9301E022
:1037A00012E01F930F930E94371DC8010E9416114B
:1037B00086E190E0909355068093540682E290E073
:1037C000909357068093560680913F028F93809185
:1037D0003E028F938FEC91E09F938F931F930F93F3
:1037E0000E94371DC8010E9416110FB6F894DEBF63
:1037F0000FBECDBF80910002882321F081508093BD
:1038000000020CC0EE24E39400E120E143EA53E01F
:1038100063E370E08EE690E00E94AC0F0E94CA095C
:1038200083FF09C080914301882329F08091000221
:10383000882309F4A3C080914201811118C00E941D
:10384000CA0982FD14C00E94CA0983FD10C00E94EB
:10385000CA0985FD0CC00E94CA0986FD08C00E94E5
:10386000CA0987FD04C00E94CA0984FF92C08091E2
:103870004301811104C00E94CA0983FF8EC084E500
:1038800092E00E94E70980E090E0892B09F4C0CA29
:103890000E940000BDCA109245011092440106C06A
:1038A00081E090E0909345018093440110924301A0
:1038B00027C08FE090E090934501809344011092DF
:1038C0004301109242010E94010D55CB80E190E02E
:1038D00090934501809344011092420110923F025F
:1038E00010923E020E94FE0EB1CB82E090E09093D7
:1038F00045018093440104C0109245011092440197
:10390000109242010E94010D96CF9091F70181E043
:1039100089278093F70110924201CACB8091400120
:103920009091410101979093410180934001109241
:103930004201DBCB8091400190914101019690932F
:1039400041018093400110924201D7CB80913E010A
:1039500090913F01019790933F0180933E01109217
:103960004201D3CB80913E0190913F01019690930B
:103970003F0180933E0110924201CFCB82E090E064
:1039800090934501809344010E94010D10924201E1
:1039900052CF81E0809342016ACF81E0809343015E
:1039A0006ECFE8E6F6E01382128288EE93E0A0E0A4
:1039B000B0E084839583A683B78382E691E0918308
:1039C00080838FEF9FEF95878487E0E4F2E0138296
:1039D000128282E791E0918380838CE3868380E189
:1039E00081871086178216861786108A118A128A96
:1039F00010925506109254061092570610925606D1
:103A000081E080935806089597FB072E16F40094E2
:103A100007D077FD09D00E941E1D07FC05D03EF49B
:103A2000909581959F4F0895709561957F4F08956A
:103A3000EE0FFF1F0590F491E02D0994AA1BBB1B0C
:103A400051E107C0AA1FBB1FA617B70710F0A61B9E
:103A5000B70B881F991F5A95A9F780959095BC01BF
:103A6000CD01089581E090E0F8940C94E420AEE05C
:103A7000B0E0EDE3FDE10C94BB200D891E8986E0EA
:103A80008C831A8309838FEF9FE79E838D83AE011A
:103A9000475E5F4F6F89788DCE0101960E945A1D57
:103AA0002F813885F801E20FF31F10822E96E4E093
:103AB0000C94D720ACE0B0E0E0E6FDE10C94AD2042
:103AC0007C016B018A01FC0117821682838181FFD0
:103AD000BDC1CE0101964C01F7019381F60193FD22
:103AE000859193FF81916F01882309F4ABC18532E1
:103AF00039F493FD859193FF81916F01853229F40B
:103B0000B70190E00E94421FE7CF512C312C20E0FA
:103B10002032A0F48B3269F030F4803259F08332D5
:103B200069F420612CC08D3239F0803339F4216082
:103B300026C02260246023C0286021C027FD27C042
:103B400030ED380F3A3078F426FF06C0FAE05F9E79
:103B5000300D1124532E13C08AE0389E300D1124ED
:103B6000332E20620CC08E3221F426FD6BC12064FE
:103B700006C08C3611F4206802C0883641F4F60184
:103B800093FD859193FF81916F018111C1CF982F92
:103B90009F7D9554933028F40C5F1F4FFFE3F9830A
:103BA0000DC0833631F0833771F0833509F05BC087
:103BB00022C0F801808189830E5F1F4F4424439403
:103BC000512C540115C03801F2E06F0E711CF80140
:103BD000A080B18026FF03C0652D70E002C06FEFAA
:103BE0007FEFC5012C870E94371F2C0183012C8594
:103BF0002F77222E17C03801F2E06F0E711CF801EA
:103C0000A080B18026FF03C0652D70E002C06FEF79
:103C10007FEFC5012C870E942C1F2C012C8520686A
:103C2000222E830123FC1BC0832D90E048165906E9
:103C3000B0F4B70180E290E00E94421F3A94F4CFC2
:103C4000F50127FC859127FE81915F01B70190E086
:103C50000E94421F31103A94F1E04F1A510841146A
:103C6000510471F7E5C0843611F0893639F5F80151
:103C700027FF07C060817181828193810C5F1F4F94
:103C800008C060817181072E000C880B990B0E5FB4
:103C90001F4F2F76722E97FF09C0909580957095D3
:103CA00061957F4F8F4F9F4F2068722E2AE030E042
:103CB000A4010E947A1FA82EA81844C0853729F4B1
:103CC0002F7EB22E2AE030E025C0F22FF97FBF2EE2
:103CD0008F36C1F018F4883579F0B4C0803719F008
:103CE000883721F0AFC02F2F2061B22EB4FE0DC057
:103CF0008B2D8460B82E09C024FF0AC09F2F9660C8
:103D0000B92E06C028E030E005C020E130E002C056
:103D100020E132E0F801B7FE07C060817181828145
:103D200093810C5F1F4F06C06081718180E090E03D
:103D30000E5F1F4FA4010E947A1FA82EA818FB2D0A
:103D4000FF777F2E76FE0BC0372D3E7FA51450F4F3
:103D500074FE0AC072FC08C0372D3E7E05C0BA2C26
:103D6000372D03C0BA2C01C0B52C34FF0DC0FE01A5
:103D7000EA0DF11D8081803311F4397E09C032FFD4
:103D800006C0B394B39404C0832F867809F0B3942B
:103D900033FD13C030FF06C05A2CB31418F4530C73
:103DA0005B18B32CB31468F4B70180E290E03C8751
:103DB0000E94421FB3943C85F5CFB31410F43B1816
:103DC00001C0312C34FF12C0B70180E390E03C8782
:103DD0000E94421F3C8532FF17C031FD03C088E7B7
:103DE00090E002C088E590E0B7010CC0832F867890
:103DF00059F031FF02C08BE201C080E237FD8DE255
:103E0000B70190E00E94421FA51438F4B70180E387
:103E100090E00E94421F5A94F7CFAA94F401EA0D51
:103E2000F11D8081B70190E00E94421FA110F5CFE3
:103E3000332009F451CEB70180E290E00E94421F86
:103E40003A94F6CFF7018681978102C08FEF9FEFFA
:103E50002C96E2E10C94C920FC0105906150704061
:103E60000110D8F7809590958E0F9F1F0895FC0143
:103E70006150704001900110D8F7809590958E0F99
:103E80009F1F08950F931F93CF93DF93FB0123810F
:103E900021FD03C08FEF9FEF28C022FF16C046818F
:103EA0005781248135814217530744F4A081B181A1
:103EB0009D012F5F3F4F318320838C932681378173
:103EC0002F5F3F4F3783268310C0EB01092F182F38
:103ED0000084F185E02D0995892BE1F68E819F8183
:103EE00001969F838E83812F902FDF91CF911F9119
:103EF0000F910895FA01AA27283051F1203181F15C
:103F0000E8946F936E7F6E5F7F4F8F4F9F4FAF4FE1
:103F1000B1E03ED0B4E03CD0670F781F891F9A1FF4
:103F2000A11D680F791F8A1F911DA11D6A0F711DA8
:103F3000811D911DA11D20D009F468943F912AE0B4
:103F4000269F11243019305D3193DEF6CF0108959C
:103F5000462F4770405D4193B3E00FD0C9F7F6CFCD
:103F6000462F4F70405D4A3318F0495D31FD405295
:103F7000419302D0A9F7EACFB4E0A695979587952B
:103F800077956795BA95C9F700976105710508950A
:103F90009B01AC010A2E06945795479537952795B6
:103FA000BA95C9F7620F731F841F951FA01D08954E
:103FB0008F929F92AF92BF92CF92DF92EF92FF9239
:103FC000CF93DF93EC01688179818A819B816115B0
:103FD00071058105910521F464E279ED8BE597E0A7
:103FE0002DE133EF41E050E00E944A2049015A019F
:103FF0009B01AC01A7EAB1E40E9469206B017C013E
:10400000ACEEB4EFA50194010E947720DC01CB0156
:104010008C0D9D1DAE1DBF1DB7FF03C00197A109EB
:10402000B04888839983AA83BB839F77DF91CF9120
:10403000FF90EF90DF90CF90BF90AF909F908F90C8
:1040400008950E94D81F089586E591E00E94D81F28
:104050000895A0E0B0E08093560190935701A0939B
:104060005801B09359010895F999FECF92BD81BDD1
:10407000F89A992780B50895262FF999FECF1FBA8F
:1040800092BD81BD20BD0FB6F894FA9AF99A0FBE81
:1040900001960895052E97FB1EF400940E9461205E
:1040A00057FD07D00E947C2007FC03D04EF40C94EF
:1040B000612050954095309521953F4F4F4F5F4F70
:1040C000089590958095709561957F4F8F4F9F4F84
:1040D00008950E949E20A59F900DB49F900DA49FCF
:1040E000800D911D11240895B7FF0C9469200E9442
:1040F0006920821B930B0895A1E21A2EAA1BBB1BF9
:10410000FD010DC0AA1FBB1FEE1FFF1FA217B307A3
:10411000E407F50720F0A21BB30BE40BF50B661FB9
:10412000771F881F991F1A9469F76095709580957D
:1041300090959B01AC01BD01CF010895A29FB001F4
:10414000B39FC001A39F700D811D1124911DB29FCB
:10415000700D811D1124911D08952F923F924F9251
:104160005F926F927F928F929F92AF92BF92CF9207
:10417000DF92EF92FF920F931F93CF93DF93CDB710
:10418000DEB7CA1BDB0B0FB6F894DEBF0FBECDBF88
:1041900009942A88398848885F846E847D848C8459
:1041A0009B84AA84B984C884DF80EE80FD800C8162
:1041B0001B81AA81B981CE0FD11D0FB6F894DEBF45
:1041C0000FBECDBFED010895F894FFCF050080002C
:1041D00080008000800080008000800080008000DF
:1041E00080008000800080008000800002000000CD
:1041F00000000300000000000400000000000500B3
:1042000000000000030000000000020001000101A6
:10421000320003001E0000E1000000000000FFFF6C
:10422000FFFF010000000100000000000000F50D8C
:10423000720E580E160E340E0B0E00000000F90B15
:10424000BD0700C180810000002020202563256378
:104250003A204368616E676520737569740A0020AF
:104260002020256325633A204368616E67652072CC
:104270006F770A0042202B2025633A204572617334
:10428000652064617461004E4557204849474820C5
:1042900053434F52453A202564210048494748205E
:1042A00053434F52453A20256400FFFFFFFFFFFFB5
:1042B000FFFFFFFFFFFFFFFFFFFFFFFFFFFFFFFF0E
:1042C000FFFFFFFFFFFFFFFFFFFFFFFFFFFFFFFFFE
:1042D000FFFFFFFFFFFFFFFFFFFFFFFFFFFFFFFFEE
:1042E000FFFFFFFFFFFFFFFFFFFFFFFFFFFFFFFFDE
:1042F000FFFFFFFFFFFFFFFFFFFFFFFFFFFFFFFFCE