:100000000C94FE040C9426050C9426050C942605ED
:100010000C9426050C9426050C9426050C942605B4
:100020000C9426050C9426050C94BC080C945C07D3
:100030000C9426050C9426050C9426050C94260594
:100040000C9426050C94CA160C9426050C942605CF
:100050000C9426050C9426050C9426050C945C093A
:100060000C9426050C9426050C9426050C94260564
:100070000C9426050C9426050C9426050C94260554
:100080000C9485160C9426050C9426050C942605D4
:100090000C9426050C9426050C9426050C94260534
:1000A0000C9426050C9426050C94260512010002DA
:1000B000EF020140412336800001010203011201D9
:1000C00000020000004041233680000101020301CC
:1000D00041726475696E6F204C4C43005553422049
:1000E000494F20426F6172640004030904080B0049
:1000F00002020201000904000001020200000524BE
:100100000010010524010101042402060524060053
:10011000010705810310004009040100020A0000E4
:1001200000070502024000000705830240000008A6
:100130000800183C66FF423C001010000000000060
:100140000000000200038003C003E003F803F00393
:10015000C0030000000000000000001010000000BC
:1001600000000000000000060007C003F803F003D1
:10017000E001C0018001000000000000001010003C
:1001800000000000000000000000000FF00FF0076A
:10019000E003E001C001C00080000000000000108A
:1001A000100000000000000000002000E003E00F4D
:1001B000E00FE003E000E00020000000000000008D
:1001C0000010100000000000000000008001C001CD
:1001D000C003E007E00FF00FF00000000000000097
:1001E00000000010100000000000000000010001ED
:1001F0008001C003E003F003F807C0060000000020
:1002000000000000001010000000000000000003CB
:100210000003C003F003F803E003C0038002000002
:1002200000000000000000101000000000000000AE
:100230000000000FF007E007E003C003C0018001E9
:10024000800000000000000000101000000000000E
:1002500000000000C003C00FC01FC007C003C001E2
:10026000C00040000000000000000010100000006E
:10027000000000000000800180038007C00FC01F45
:10028000C003E0006000000000000000001010004B
:100290000000000000000001000380038007C00789
:1002A000E00FF00FF0000000000000000000001060
:1002B0001000000000000000000400070007C00755
:1002C000F007F007C0070004000000000000000075
:1002D0000010100000000000000000000000000FEF
:1002E000F00FF007E007C00380038001000000006A
:1002F00000000010100000000000000000000000DE
:100300006003E01FC00FC007C003800180008000B1
:1003100000000000001010000000000000000000BD
:100320004001C003C007C01FC00FC003C000C00011
:10033000000000000000001010000000000000009D
:10034000000180018003C003C007E007E00FF00058
:10035000000000000000000000080860A090F0000D
:10036000000000080820529D818181413E10100844
:10037000101C38264C63C2C1838002800280048036
:100380000480028002C0034006200C10300FE008F9
:100390000820D090600000000008083C12F183841F
:1003A00083413E10100FE00430040C04027E014033
:1003B000014006403840304018400620033002100B
:1003C000E40B9C0C0008086090907000000000088E
:1003D00008265A81424181413E101008081E3C31D6
:1003E000C46002C003400E600820042002200340C5
:1003F000034002400623041EF8083808086090D025
:10040000B00000000008081C22418181815A2E1092
:100410001003F006080C0C100420024003C0013049
:100420000118016001C1834182228436841C88083E
:10043000F8D5F08D14A1C881CFD9F1AF200000000C
:100440000000003E5B4F5B3E3E6B4F6B3E1C3E7CB4
:100450003E1C183C7E3C181C577D571C1C5E7F5E62
:100460001C00183C1800FFE7C3E7FF001824180021
:10047000FFE7DBE7FF30483A060E262979292640B8
:100480007F050507407F05253F5A3CE73C5A7F3EE4
:100490001C1C08081C1C3E7F14227F22145F5F0076
:1004A0005F5F06097F017F006689956A6060606012
:1004B0006094A2FFA29408047E040810207E2010FD
:1004C00008082A1C08081C2A08081E101010100C06
:1004D0001E0C1E0C30383E3830060E3E0E06000054
:1004E00000000000005F00000007000700147F14F8
:1004F0007F14242A7F2A1223130864623649562067
:10050000500008070300001C2241000041221C008B
:100510002A1C7F1C2A08083E08080080703000084A
:1005200008080808000060600020100804023E511E
:1005300049453E00427F40007249494946214149B0
:100540004D331814127F1027454545393C4A494917
:100550003141211109073649494936464949291E81
:100560000000140000004034000000081422411470
:1005700014141414004122140802015909063E41C2
:100580005D594E7C1211127C7F494949363E4141EA
:1005900041227F4141413E7F494949417F09090943
:1005A000013E414151737F0808087F00417F4100AF
:1005B0002040413F017F081422417F404040407F5E
:1005C000021C027F7F0408107F3E4141413E7F09AB
:1005D0000909063E4151215E7F09192946264949EC
:1005E000493203017F01033F4040403F1F2040202C
:1005F0001F3F4038403F631408146303047804032A
:100600006159494D43007F414141020408102000D7
:100610004141417F04020102044040404040000348
:1006200007080020545478407F2844443838444414
:100630004428384444287F385454541800087E090C
:100640000218A4A49C787F0804047800447D40002C
:100650002040403D007F1028440000417F40007C46
:10066000047804787C080404783844444438FC183E
:1006700024241818242418FC7C0804040848545422
:10068000542404043F44243C4040207C1C2040204F
:100690001C3C4030403C44281028444C9090907CB6
:1006A0004464544C440008364100000077000000C8
:1006B0004136080002010204023C2623263C1EA10A
:1006C000A161123A4040207A385454555921555569
:1006D000794121545478412155547840205455791A
:1006E000400C1E52721239555555593954545459AB
:1006F00039555454580000457C410002457D420064
:1007000001457C40F0292429F0F0282528F07C546C
:100710005545002054547C547C0A097F493249498C
:1007200049323248484832324A4848303A414121F9
:100730007A3A42402078009DA0A07D394444443953
:100740003D4040403D3C24FF2424487E4943662BE5
:100750002FFC2F2BFF0929F620C0887E0903205487
:100760005479410000447D413048484A3238404085
:10077000227A007A0A0A727D0D19317D2629292FE5
:1007800028262929292630484D40203808080808FD
:1007900008080808382F10C8ACBA2F102834FA00FF
:1007A000007B000008142A142222142A1408950041
:1007B000220095AA005500AAAA55AA55AA00000031
:1007C000FF00101010FF00141414FF001010FF00A1
:1007D000FF1010F010F0141414FC001414F700FFB4
:1007E0000000FF00FF1414F404FC141417101F1071
:1007F000101F101F1414141F00101010F000000020
:10080000001F101010101F10101010F0100000002A
:10081000FF101010101010101010FF10000000FF3B
:10082000140000FF00FF00001F10170000FC04F47C
:1008300014141710171414F404F40000FF00F71434
:10084000141414141414F700F714141417141010BB
:100850001F101F141414F4141010F010F000001FD7
:10086000101F0000001F14000000FC140000F01016
:10087000F01010FF10FF141414FF141010101F00BC
:10088000000000F010FFFFFFFFFFF0F0F0F0F0FFBE
:10089000FFFF0000000000FFFF0F0F0F0F0F384495
:1008A0004438447C2A2A3E147E02020606027E0256
:1008B0007E0263554941633844443C04407E201E17
:1008C0002006027E020299A5E7A5991C2A492A1C46
:1008D0004C7201724C304A4D4D303048784830BC33
:1008E000625A463D3E494949007E0101017E2A2A5D
:1008F0002A2A2A44445F444440514A444040444ADE
:1009000051400000FF0103E080FF000008086B6B0E
:10091000083612362436060F090F06000018180094
:1009200000001010003040FF0101001F01011E00F7
:10093000191D1712003C3C3C3C000000000008045C
:100940000200FB02FB03FC04FF0400040203040298
:1009500004FF04FD04FC04FB01FBFFFBFEFCFCFDAB
:10096000FB00F803F906FA07FD0800070306060373
:10097000070008FD07FA06F903F800F9FDFAFAFD89
:10098000F90000000200090F0000030401000C0040
:100990000000000000000000000000000000000057
:1009A000040802011040804010204080408008026E
:1009B00004018040201002011080102040402004DB
:1009C00004040404030405020202020403020202F6
:1009D00002060606060606040402020204040000DB
:1009E0000000250028002B002E0031000000000030
:1009F000240027002A002D003000480B11241FBEC0
:100A0000CFEFDAE0DEBFCDBF12E0A0E0B1E0E4EC72
:100A1000FDE302C005900D92A830B107D9F728E098
:100A2000A8E0B2E001C01D92A632B207E1F714E0DF
:100A3000CEEFD4E004C02197FE010E94AA1ECD3F54
:100A4000D107C9F70E9429050C94E01E0C94000000
:100A500008950E94100A0E94280588E092E00E94F2
:100A60003C090E944F09C0E0D0E00E945309209742
:100A7000E1F30E940000F9CF615030F02091F100C5
:100A8000FC0120830196F8CF289884E68093110218
:100A9000089540910C0250910D0220910A0230916C
:100AA0000B0242175307B4F49091E8009570E1F3FC
:100AB0009091E80092FD19C08093F10080910C02A2
:100AC00090910D0201968F739927892B19F48EEF5F
:100AD0008093E80080910C0290910D020196909312
:100AE0000D0280930C0281E0089580E00895EF925A
:100AF000FF920F931F93CF93DF93F82E192FE62EBB
:100B0000042F81E0860F880F0E94490583E00E9430
:100B10004905CF2DD12FEC0EFD2EF11CCE15DF0592
:100B2000B9F007FF13C0FE0184910E944905182FF8
:100B300080E00E944905812321968111EFCFDF914A
:100B4000CF911F910F91FF90EF9008958881EDCF85
:100B500081E0F5CF8091D70081608093D70080EA53
:100B60008093D80089B5806189BD89B5826089BDCF
:100B700009B400FEFDCF61E070E080E090E00E94EB
:100B8000D7098091D8008F7C80618093D8008091B4
:100B9000E000807F8093E0000895CF93DF931F9261
:100BA000CDB7DEB71982CE0101960E94C30A0E941A
:100BB000E10BBE016F5F7F4F0E945D0B89810F903B
:100BC000DF91CF9108952FB7FC012083F8946770CF
:100BD0006093E9000895CF93DF931F92CDB7DEB7FE
:100BE000682FCE0101960E94E3058091F200998161
:100BF0009FBF0F90DF91CF910895EF92FF920F93D7
:100C00001F93CF93DF931F92CDB7DEB79091100261
:100C1000992379F157FD2DC08A017B01682FCE0100
:100C200001960E94E3058091F20090E008171907F1
:100C30000CF4C801282FF70144E6215038F0289819
:100C4000409311023091F1003193F7CF009739F0C2
:100C50002091F200211103C02BE62093E8002981A6
:100C60002FBF0F90DF91CF911F910F91FF90EF90C9
:100C700008958FEF9FEFF5CFCF93DF931F92CDB7FE
:100C8000DEB741E050E0BE016F5F7F4F0E94FD057F
:100C9000019731F4898190E00F90DF91CF91089511
:100CA0008FEF9FEFF9CFCF93DF931F92CDB7DEB7D2
:100CB000682FCE0101960E94E3059091E800892FEC
:100CC000807295FF04C09091F20080E4891B9981A5
:100CD0009FBF0F90DF91CF9108956F927F928F9277
:100CE0009F92AF92BF92CF92DF92EF92FF920F93BB
:100CF0001F93CF93DF931F92CDB7DEB7A82E6B0162
:100D0000B42E052F80911002811112C08FEF9FEF3A
:100D10000F90DF91CF911F910F91FF90EF90DF9097
:100D2000CF90BF90AF909F908F907F906F900895DD
:100D3000E42EF52E8AEF982E8A2D8072882E9AE363
:100D4000792E8A2D8074682EE114F10409F449C0CB
:100D50008A2D0E945306182F81110AC09A94992057
:100D6000A9F261E070E080E090E00E94D709ECCF4A
:100D70008E151F0411F00CF01E2D6A2DCE01019668
:100D80000E94E3058091E80085FD03C089818FBF43
:100D9000DBCF812F90E0E81AF90A882029F0115062
:100DA000A0F01092F100FBCFF601A7FC0AC0115091
:100DB00050F021912093F100FACF24912093F1007B
:100DC00031961150D0F7C80ED91E8091E80085FFEA
:100DD00005C0E114F104D1F66620C1F27092E8007A
:100DE000D5CF5D9884E6809312028B2D902F90CF03
:100DF0001092E90010920D0210920C0290930B02D7
:100E000080930A020895DF92EF92FF920F931F934F
:100E1000CF93DF93D82E8A01EB017B01E40EF51E00
:100E2000CE15DF0559F0D7FE12C0FE0184910E9455
:100E3000490521968111F4CF0FEF1FEFC801DF9113
:100E4000CF911F910F91FF90EF90DF9008958881CF
:100E5000EECFAF92BF92DF92EF92FF920F931F936C
:100E6000CF93DF935C018B01EB019BEFD92E209791
:100E7000C1F07E01C134D1051CF080E4E82EF12CD4
:100E80008091E80082FFFCCFC8018C1B9D0B6E2D6A
:100E90008A0D9B1D0E943C05D092E800CE19DF0907
:100EA000E6CFC801DF91CF911F910F91FF90EF9096
:100EB000DF90BF90AF9008951F920F920FB60F92E0
:100EC0001124EF92FF920F931F932F933F934F9311
:100ED0005F936F937F938F939F93AF93BF93EF93A2
:100EE000FF93CF93DF93CDB7DEB76C97DEBFCDBF57
:100EF0001092E9008091E80083FF25C068E0CE01F0
:100F000045960E943C0582EF8093E8008D8987FF1B
:100F100037C09091E80090FFFCCF982F907609F0B1
:100F20000DC19E894F89588D2F89188D91112FC021
:100F3000803851F580910F028093F1001092F100FA
:100F40008EEF8093E8006C960FB6F894DEBF0FBE6C
:100F5000CDBFDF91CF91FF91EF91BF91AF919F9165
:100F60008F917F916F915F914F913F912F911F9141
:100F70000F91FF90EF900F900FBE0F901F9018955C
:100F80009EEF9093E800C9CF1092F100D7CF913037
:100F900059F48111D5CF4130510591F680910F025E
:100FA0008D7F80930F02CCCF933049F48111C8CF4D
:100FB0004130510529F680910F028260F2CF9530C1
:100FC00041F48091E80080FFFCCF20682093E3008B
:100FD000B7CF963009F084C0EB8CFC8C123039F519
:100FE00090E080E00E94F8060E94CD051F8299E003
:100FF00099831A8391E09E8390EA98879AEF998764
:1010000020910C0230910D02275F3F4F3C832B83D0
:101010008D83C7010E94F80649E050E0BE016F5F72
:101020007F4F80E00E9403070E94CD0589CFC70152
:101030000E94F8060E94E10BBE016B5E7F4F0E948A
:10104000850B009731F00CF07BCF81E28093EB00B1
:101050007ACF1130B1F48B8D9C8D089719F481E013
:1010600080930902809109026EEB70E0882311F0F1
:101070006CEA70E0FB01449150E080E80E940307B5
:101080005FCF133011F78F89882339F1823049F40B
:1010900040E86CE08CED90E00E9477058823A9F28F
:1010A0004FCF813029F440E86BE080ED90E0F4CF41
:1010B000833059F60E94E10B8E010F5F1F4FB8017C
:1010C0000E94A40BF80101900020E9F73197BF01BD
:1010D000601B710B40E0C801DFCF69EE70E0CACF42
:1010E000973009F4B2CF983021F481E08093F10079
:1010F00027CF993009F024CF837009F0A6CFE1E023
:10110000F1E081E031E096E32191222371F08093B8
:10111000E9003093EB00DF0111972C912093EC0054
:101120009093ED008F5F873079F78EE78093EA0028
:101130001092EA008F898093100202CF8B8D9C8DD4
:101140000E94F806898D811105C0CE0145960E9446
:10115000CE0AA4CF0E94E10BBE016B5E7F4F0E94BE
:10116000C30B9CCF8093E9008091F200882319F093
:101170008AE38093E80008951F920F920FB60F92B2
:1011800011242F933F934F935F936F937F938F938C
:101190009F93AF93BF93CF93EF93FF93C091E100E1
:1011A0008091E100837F8093E1008093E100C3FFA1
:1011B0000FC01092E90081E08093EB001092EC00E8
:1011C00082E38093ED001092100288E08093F0009B
:1011D000C2FF1BC083E00E94B208809112028823E4
:1011E00041F080911202815080931202811101C05E
:1011F0005D9A80911102882341F080911102815003
:1012000080931102811101C0289AC4FF23C08091EC
:10121000E2008E7E81608093E2008091E1008F7E0B
:101220008093E10080910E028E7E806180930E0299
:10123000FF91EF91CF91BF91AF919F918F917F914E
:101240006F915F914F913F912F910F900FBE0F9033
:101250001F901895C0FFECCF8091E2008E7E8061D8
:101260008093E2008091E1008E7E8093E100809186
:101270000E028E7E8160DACF1092100210920F0261
:1012800010920E020E94AA05E1EEF0E080818E7EAF
:1012900080838DE08093E200559A209A08950E9401
:1012A000F50B0C94310C0E94230C882321F00E9432
:1012B0001B0D0C942D0C08950F920FB68F939F93D6
:1012C000EF93FF93809113028D5F8D3708F08D5758
:1012D00080931302E4E1F2E080818E4F808391815C
:1012E0009F4F918382818F4F828383818F4F83832E
:1012F000E8E1F2E080818F5F808381818F4F81837D
:1013000082818F4F828383818F4F83838FB18F60E0
:1013100066991C9B88278F3681F48091FF0A981B61
:10132000963068F0E0E0F8E087E78083818388E129
:1013300080936000F0936000FFCF9093FF0AFF91CD
:10134000EF919F918F910FBE0F9018952FB7F89442
:10135000609114027091150280911602909117020B
:101360002FBF08953FB7F894809118029091190209
:10137000A0911A02B0911B0226B5A89B05C02F3F71
:1013800019F00196A11DB11D3FBFBA2FA92F982FAB
:101390008827BC01CD01620F711D811D911D42E0A6
:1013A000660F771F881F991F4A95D1F708958F926E
:1013B0009F92AF92BF92CF92DF92EF92FF926B011A
:1013C0007C010E94B2094B015C01C114D104E1040B
:1013D000F104E9F00E94720F0E94B20968197909BC
:1013E0008A099B09683E73408105910570F321E0ED
:1013F000C21AD108E108F10888EE880E83E0981E31
:10140000A11CB11CC114D104E104F10429F7FF901F
:10141000EF90DF90CF90BF90AF909F908F90089506
:10142000789484B5826084BD84B5816084BD85B5BF
:10143000826085BD85B5816085BDEEE6F0E0808186
:1014400081608083E1E8F0E01082808182608083A7
:10145000808181608083E0E8F0E08081816080832A
:10146000E1E9F0E080818260808380818160808317
:10147000E0E9F0E0808181608083E1ECF0E0808150
:1014800084608083808182608083808181608083AA
:10149000E3ECF0E0808181608083E0ECF0E080812B
:1014A00082608083E2ECF0E0808181608083EAE703
:1014B000F0E080818460808380818260808380818D
:1014C000816080838081806880830895CF93DF93DB
:1014D0001F92CDB7DEB76983DC01ED91FC910280EC
:1014E000F381E02D41E050E0BE016F5F7F4F099531
:1014F0000F90DF91CF910895CF93DF93EC018C850E
:101500009D8597FF05C082E00E943C069D878C87E1
:101510008C859D85DF91CF91089583E00C94B2086E
:10152000FC018485958597FD06C082E00E94EB054D
:1015300090E00196089582E00E94EB0590E0089506
:10154000FC018485958597FD05C02FEF3FEF35871A
:101550002487089582E00C943C06CF93DF93EC013E
:1015600080911201882331F083E00E946D061816E5
:10157000190634F081E090E09B838A8380E090E05C
:10158000DF91CF910895FC0190819E5F908342E4AA
:1015900050E06DEE70E080E80C940307FC0191814F
:1015A0008081813A61F4913209F063C047E050E0F4
:1015B0006BE071E080E00E94030781E008958132D2
:1015C00009F057C0933269F482819381B0E0A0E0C2
:1015D0008093070190930801A0930901B0930A0139
:1015E000ECCF903209F047C067E070E08BE091E00B
:1015F0000E94290780910B0190910C01A0910D018F
:10160000B0910E01803B9440A105B105E9F48091B1
:10161000120180FD19C080910008909101089093FB
:10162000FF0A8093FE0A87E797E79093010880936B
:10163000000888E19BE00FB6F894A89580936000BD
:101640000FBE90936000B9CF0FB6F894A895809123
:101650006000886180936000109260000FBEA895C2
:101660008091FE0A9091FF0A9093010880930008F0
:10167000A4CF80E00895923209F09FCF82818093B9
:101680001201B8CF2FEF3FEFFC0135872487089573
:10169000ECE1F2E01382128288EE93E0A0E0B0E089
:1016A00084839583A683B7838FE491E091838083BD
:1016B0008FEF9FEF958784870895EF92FF920F93A6
:1016C0001F93CF93DF937B01FC01C281D38110E094
:1016D00000E0209791F0E881F9810280F381E02D0C
:1016E000B701CE01099597FD06C0080F191F0884A0
:1016F000D985C02DEECF0FEF1FEFC801DF91CF913D
:101700001F910F91FF90EF9008950F931F93CF9328
:10171000DF938B01FC01C281D381209771F0E881B6
:10172000F9810480F581E02DB801CE01099500977B
:1017300031F40884D985C02DF0CF90E080E0DF91AE
:10174000CF911F910F9108950F931F93CF93DF9324
:101750008B01FC01C281D381209771F0E881F9816E
:101760000680F781E02DB801CE010995080F111D03
:101770000884D985C02DF0CFF8011082DF91CF9178
:101780001F910F9108950F931F93CF93DF938B01B8
:10179000FC01C281D381209771F0E881F981019029
:1017A000F081E02DB801CE010995811105C00884B2
:1017B000D985C02DF0CF80E0DF91CF911F910F919F
:1017C000089580916C0281110DC082E080937402B3
:1017D00084E080937502109277021092760281E085
:1017E00080936C0284E792E00895E4E6F0E0808163
:1017F0008064808380818160808380818068808331
:10180000808182608083E5E6F0E080818160808372
:101810000E9424130E9433120E949E150E94BA1146
:101820000E94B0120E941C130E94B3140C94B211B7
:1018300083B7817F83BF83B7816083BF889583B778
:101840008E7F83BF0895CF930E944A12C82F8111C3
:101850000E94CF128C2FCF9108950E94A6130C9452
:101860001E1442E050E060E088E792E00C94730FB1
:101870000E9423190E94220E0E944C0D0E940F17F5
:101880000E94801A0E943C0E0E944019E8E7F2E094
:1018900081E0808311820895CF930E94C60D0E943B
:1018A0008A1B0E942E1A0E94841B0E94F6190E9415
:1018B0001319C82F0E9410191F92CF9390E0019620
:1018C0009F938F938BE591E09F938F9387E08F9306
:1018D0001F920E94D4138091790291E0980F909307
:1018E00079022DB73EB7285F3F4F0FB6F8943EBF41
:1018F0000FBE2DBF883C58F00E940A190E9416188E
:101900000E942E0F82E08093780210927902CF918C
:1019100008950E94C60D0E9435170E948A1B0E94DE
:10192000E40E0E942E1A0E9416170E94841B0E9429
:10193000430E0E94F6190E94D21B882331F084E0E6
:10194000809378021092790208950E94CF1B882319
:1019500011F083E0F5CF0E9415198823A9F30E94A6
:101960006B0F882389F30E941C198111E8CF81E055
:10197000E7CF0E94C60D0E9435170E94E40E0E9418
:101980002E1A0E9416170E94430E0E94F61980918B
:10199000790291E0980F909379028D3338F00E948C
:1019A0009D1B82E0809378021092790208950E9434
:1019B000C60D0E9435170E94E40E0E942E1A0E9446
:1019C00016170E94430E0E94F6190E941C198823C4
:1019D00079F10E941519882359F188E691E09F93C7
:1019E0008F9386E08F931F920E94D4130F900F90D5
:1019F0000F900F900E94370E9F938F938DE791E089
:101A00009F938F9387E08F931F920E94D4130E941D
:101A100016130F900F900F900F900F900F9084FF60
:101A200006C00E94DD0D109278021092790208958E
:101A300083E791E0D4CF80917802823049F1F0F4CD
:101A4000882311F1813011F11F9281E28F9385E893
:101A500091E09F938F938EE891E09F938F9387E916
:101A600091E09F938F930E9473118DB79EB7089654
:101A70000FB6F8949EBF0FBE8DBF0895833051F00E
:101A8000843011F70C94D70C0C94380C0C944C0C3B
:101A90000C94890C0C94B90C08951F93CF93DF9389
:101AA000D82F162FC42F403198F01F9281E38F93C7
:101AB00081EA91E09F938F9389EA91E09F938F93BE
:101AC0000E9473110F900F900F900F900F900F9036
:101AD000EC2FF0E0EE0FFF1FE55DFE4F40815181DE
:101AE000612F8D2FDF91CF911F910C9429140F93AB
:101AF0001F93CF93DF93182F062FD42FC22F44307C
:101B000010F4233098F01F9288E38F9381EA91E0DC
:101B10009F938F9389EB91E09F938F930E94731112
:101B20000F900F900F900F900F900F90EC2FF0E010
:101B300083E0D89FE00DF11D1124EE0FFF1FED5E35
:101B4000FE4F40815181602F812FDF91CF911F91F6
:101B50000F910C9429144FE251E00C9429140C9429
:101B6000031480E190E00E94C1110E94E011611510
:101B700071058105910511F00E94BB1480E190E090
:101B80000E94C1110E94C1140C941E12EAE7F2E0F7
:101B900083818F9382818F9385ED91E09F938F93C3
:101BA00087E08F9382E18F930E94D4130F900F9060
:101BB0000F900F900F900F90089580917C0290915C
:101BC0007D0220917A0230917B0282179307D0F038
:101BD00090937B0280937A0290E080E00E94C11192
:101BE00081E40E94041283E50E94041284E50E94AD
:101BF000041285E40E94041280917A0290917B0283
:101C00000C941612089510927B0210927A0290E0C2
:101C100080E00E94C1110E94C611813491F40E949B
:101C2000C611833571F40E94C611843551F40E94A7
:101C3000C611853431F40E94D61190937B028093B3
:101C40007A02089544E050E060E08AE792E00E9462
:101C5000730F0E94B10D0C94030EEAE7F2E02281AB
:101C60003381820F932F911D9383828308958091F6
:101C70007A0290917B02089549E050E060E08EE79F
:101C800092E00C94730FCF92DF92EF92FF92CF937A
:101C9000DF9380917E028130A9F1E0F0823059F12A
:101CA0001F9285E38F9389ED91E09F938F9381EE4F
:101CB00091E09F938F9387E991E09F938F930E9488
:101CC00073118DB79EB708960FB6F8949EBF0FBEDE
:101CD0008DBF11C080917F02909180029C012150A4
:101CE00031093093800220937F02181619061CF0E8
:101CF00081E080937E02DF91CF91FF90EF90DF90A3
:101D0000CF9008950E947D1A81113FC062E370E078
:101D100080E090E00E947F156B017C0124E1C20EFF
:101D2000D11CE11CF11C0E949915811147C08FEF55
:101D30009FEF8C9DE0018D9DD00D9C9DD00D1124B9
:101D400062E370E080E090E00E947F156B017C010F
:101D500024E1C20ED11CE11CF11C0E9499158111D5
:101D600030C08FEF9FEF8C9D90018D9D300D9C9D1D
:101D7000300D11246091830270918402AE01809134
:101D80008102909182020E946C1A8091810290914E
:101D900082022091850230918602820F931F9093D8
:101DA000820280938102880F892F881F990B0496E5
:101DB0008938910508F49FCF82E09BCF81E090E0C5
:101DC000B8CF81E090E0CFCF80917E028130A1F446
:101DD0006091830270918402660F672F661F770BF4
:101DE00064508091810290918202880F892F881F10
:101DF000990B84500C94AB0D089520917E022130F4
:101E000059F52091830230918402220F232F221F43
:101E1000330BA9014350510964177507ECF02D5F8E
:101E20003F4F26173707C4F020918102309182027C
:101E3000220F232F221F330BA9014350510984176E
:101E4000950754F02D5F3F4F281739072CF082E09B
:101E500080937E0281E0089580E00895CF930E94F0
:101E60009915C82F10927E026CE370E080E090E03C
:101E70000E947F15645C7F4F7093800260937F02A5
:101E800080E092E4CC2311F080E09EEF90938202F8
:101E90008093810288ED9FEFCC2311F088E290E0DF
:101EA000909386028093850268E370E080E090E082
:101EB0000E947F156C5F7F4F8F4F9F4F27E0660F0B
:101EC000771F881F991F2A95D1F77093840260931A
:101ED0008302CF91089581E090917E02923009F0C3
:101EE00080E0089508954115510549F0141615062E
:101EF00034F4FC016083415051090196F7CF0895F5
:101F00000F931F93CF938B01252F0E94551EFB012A
:101F1000C82F1E161F063CF4522FB801CF010E9495
:101F2000800F482F292FC05DE42FF22FC193CF01DE
:101F3000CF911F910F910895AF92BF92CF92DF92F0
:101F4000EF92FF920F931F93CF93DF935B01FA0100
:101F5000102FFE2C0E94551E6B01EC011616170661
:101F60001CF02230310554F021503109E12C012FB1
:101F7000AF01B501C6010E949C0FFC01CF01019683
:101F8000209721F4CD2811F4FF2069F0C05DC083B3
:101F9000DF91CF911F910F91FF90EF90DF90CF9045
:101FA000BF90AF9008951083F3CF8F929F92AF921E
:101FB000BF92CF92EF920F931F93CF93DF934B017A
:101FC0005C01D02F1E2DCC2D80E188169104A10438
:101FD000B10418F4223031058CF021503109CC2E97
:101FE000E12C0D2FC501B401E4E096958795779516
:101FF0006795EA95D1F70E94D50FAC0194012F7037
:102000003327CA0101962115310549F489288A2808
:102010008B28B9F4111115C0FA01D08307C02A30FA
:10202000310578F0CA502C0FFA012083DF91CF914F
:102030001F910F91EF90CF90BF90AF909F908F9096
:102040000895205DF1CFCF92DF92EF92FF92CF9370
:102050006B017C01C22F80E1C816D104E104F104B8
:1020600058F0C70134E096958795779567953A952E
:10207000D1F70E942310AC018FE0C822DD248AE052
:10208000C816D10458F0CA50CC0EFA01C192CF0143
:10209000CF91FF90EF90DF90CF90089580E3C80E2E
:1020A000F4CFDC01FB019D91992311F09193FBCFBB
:1020B000CF0108952F923F924F925F926F927F923D
:1020C0008F929F92AF92BF92CF92EF92FF920F9317
:1020D0001F93CF93DF9300D000D0CDB7DEB79A83A4
:1020E0008983DB01FA0110E2712C612C3DE2F32EB1
:1020F0002C91211119C0A981BA811C920F900F90C7
:102100000F900F90DF91CF911F910F91FF90EF9063
:10211000CF90BF90AF909F908F907F906F905F9087
:102120004F903F902F900895253269F0AD014F5F99
:102130005F4F5C834B83A981BA812C935F01119619
:10214000BA83A98395C011962C911197203329F158
:10215000AD014E5F5F4F5C834B8330ED320F3A3001
:1021600008F0B0C0622E220F770890E3691A710858
:102170008B809C80AFEF8A1A9A0AAB81BC812C912C
:102180002C3609F45DC08CF4233609F490C0243653
:1021900039F1E981FA811082B1CFCD0103969C8398
:1021A0008B8310E312962C91D8CF233709F472C099
:1021B000283779F79C828B8221E0DF016D917D9138
:1021C0005D0190E080E02223A9F121E6C22EEE24F9
:1021D000E394012F930149815A810E94D50F20C0B9
:1021E0009C828B8221E05F01B2E0AB0EB11C80814A
:1021F000918197FF09C0919581959109E981FA81B3
:10220000F0823196FA83E983222369F0EE24E39485
:10221000012F930149815A816AE070E00E949C0F6E
:102220009A83898325C049815A816AE070E00E94BF
:10223000800FF6CF21E649815A810E942310F0CF0A
:102240005F01B4E0AB0EB11C20803180428053802E
:1022500081E6C82EEE24E394012F930149815A812F
:10226000C201B1010E94D50F9A8389839C828B821F
:10227000F501AB81BC813CCF5F0144E0A40EB11CF1
:10228000208031804280538021E649815A81C201F9
:10229000B101D3CF9C828B825F0152E0A50EB11CAD
:1022A00069817A81808191810E945110B9CF9C828D
:1022B0008B825F0182E0A80EB11C2081A981BA81C6
:1022C0002C933DCF2C36C1F23CF4233691F32436C7
:1022D00009F05FCF20E087CF2337F1F2283709F0EC
:1022E00058CF20E06ACFCF93DF93CDB7DEB7A89762
:1022F0000FB6F894DEBF0FBECDBFAE01435D5F4F9A
:10230000FA0161917191AF01CE0101960E945A10BC
:102310008E010F5F1F4FF12CF80141918F01442373
:1023200031F060E08F2D0E94B413F394F5CF0E943A
:10233000A613FFCF860F971F97FF02C0905C0895EA
:10234000811520E492070CF090540895860F971F92
:1023500097FF02C0905E0895811520E292070CF06D
:102360009052089540E855E260E070E08CE192E020
:102370000C94420B42E050E060E087E892E00C945D
:10238000730F90938802809387020895F999FECF86
:1023900080918702909188029C012F5F3F4F30937C
:1023A00088022093870240960C94CA1ECF930E9405
:1023B000C611C82F0E94C611982F8C2FCF91089557
:1023C000CF92DF92EF92FF92CF93DF930E94C611DC
:1023D000C82F0E94C611D82F0E94C61190E0B0E00D
:1023E000A0E07C01DD24CC24DD2ACC2A0E94C61189
:1023F000A7019601582BCA01B901DF91CF91FF9037
:10240000EF90DF90CF900895F999FECF2091870249
:1024100030918802A9014F5F5F4F5093880240932B
:102420008702682FC90140960C94D21ECF93C92F02
:102430000E9404128C2FCF910C9404121F93CF93FF
:10244000DF93172FD82FC92F862F0E940412812FB8
:102450000E9404128D2F0E9404128C2FDF91CF91C5
:102460001F910C94041241E150E060E089E892E091
:102470000E94730FE9E8F2E08EE1808381E28487B5
:102480000895682F809199020E94351E81E0911174
:1024900080E008950F931F930E94A6092091960251
:1024A000222391F020919002362F321B3093940218
:1024B00020918A0230918B022F5F3F4F30938B0225
:1024C00020938A021092960200918C0210918D0244
:1024D00020918E0230918F02601771078207930757
:1024E00038F4061B023010F00E94180C80E02CC05B
:1024F00040919502009190021091910220919202D8
:1025000030919302040F111D211D311D061717076D
:1025100028073907E0F000938C0210938D02209376
:102520008E0230938F026093900270939102809399
:1025300092029093930281E0809396028091990297
:102540008F5F8093990281E01F910F9108956093AE
:102550008C0270938D0280938E0290938F02E3CF52
:1025600045E050E060E08AE992E00E94730F62E08B
:1025700084E10E94211C62E083E10E94211C62E050
:1025800082E10E94211C62E085E10E94211C62E040
:1025900087E00E94211C62E088E00C94211C4FB16E
:1025A0008CB123B190E08095909533E09595879517
:1025B0003A95E1F78870992730E020953095359568
:1025C00027953595279524703327822B942F909546
:1025D000907F892B30919A0290919B029827232F0C
:1025E0002095922390939B02282F209523232093BC
:1025F0009C0280939A029C7F21F490919E029111FB
:102600000FC080939D0296E090939E02882359F01C
:1026100080919E02882349F0815080939E02089504
:1026200010929D02F3CF10929E02089580919B021A
:10263000089580919D02089508958EBD00000DB407
:1026400007FEFDCF8EB50895CF92DF92EF92FF92F5
:102650000F931F93CF93DF9340E054E060E08FE946
:1026600092E00E94730F0E948B1C8CB58C7F8CBDF6
:102670008DB581608DBD61E084E00E94211C61E028
:102680008CE00E94211C61E086E00E94211C61E038
:1026900086E00E945D1C61E070E080E090E00E94B6
:1026A000D70960E086E00E945D1C6AE070E080E08F
:1026B00090E00E94D70961E086E00E945D1CEBEC8F
:1026C000F9E0E491F0E0EE0FFF1FE252F64FC59102
:1026D000D491E3ECF9E0E491F0E0EE0FFF1FE25259
:1026E000F64FE590F490ECEAF9E01491E4EAF9E0B1
:1026F00004918881812B8883D7019C91802F8095BC
:1027000089238C93888110958123888321E3C22EAD
:1027100024E0D22EF60184910E941D13FFEFCF1A00
:10272000DF0A8EE3C81684E0D806A1F7D701EC9142
:10273000E02BEC93E8811E231883DF91CF911F914A
:102740000F91FF90EF90DF90CF900895CF93DF939C
:10275000CFE9D2E089910E941D1386E0CF39D807D6
:10276000C9F7DF91CF9108958931E8F46830D8F442
:1027700095E04902A001112420E8629FD0011124B4
:10278000899FA00DB11D1124A156BD4F90E080E09E
:10279000425C5B4FFA01E80FF91FE491ED9301965B
:1027A00085309105B9F708951F93CF93DF93CDB787
:1027B000DEB7A8970FB6F894DEBF0FBECDBFAE014F
:1027C0004E5C5F4F68A979A9CE0101960E945A100C
:1027D00010E08EA5810FE1E0F0E0EC0FFD1FE10FAE
:1027E000F11D4081442329F06FA50E94B4131F5F9F
:1027F000F0CFA8960FB6F894DEBF0FBECDBFDF9125
:10280000CF911F91089587FD18C06034B0F4E62F72
:10281000E695E695E69590E8E99FF0011124E80F2A
:10282000F11DE156FD4F677021E030E001C0220F3D
:102830006A95EAF78081822B808308958FE992E080
:10284000FC01002411921192119211920394D1F77C
:1028500008952F923F924F925F926F927F928F9244
:102860009F92AF92BF92CF92DF92EF92FF920F931F
:102870001F93CF93DF93FA01A490EA012296319639
:102880005490EA2CE694E694E694F12CB0E0A0E0B3
:10289000062E000C770B66246394082E000C990B0F
:1028A000A51508F04DC0AB014A0F5B1F4034510520
:1028B00008F042C09A0113E0359527951A95E1F783
:1028C0003695322F22273795279547705527762C36
:1028D00001C0770C4A95EAF7FE01B12C280F391F89
:1028E000EF01BA1458F5849050E040E0C0E89C2E07
:1028F000CB2DD0E06C01CC0EDD1E1E01220E331E4E
:102900008601040F151F0038110560F4182D1921D8
:1029100049F08101040F151F01561D4FE801488041
:102920004728488296944F5F5F4F4830510541F7E2
:10293000D8E0BD0E3196D4CFCE0DDF1D1196B0CFAD
:10294000DF91CF911F910F91FF90EF90DF90CF908B
:10295000BF90AF909F908F907F906F905F904F90BF
:102960003F902F9008954BE952E16CE776EF8FE9A5
:1029700096E00C94971DAB01BC018FE996E00C9496
:10298000971D4F925F926F927F928F929F92AF921C
:10299000BF92CF92DF92EF92FF920F931F93EFE9D6
:1029A000F6E00485158526853785C480D580E680C8
:1029B000F780408451846284738480809180A280F7
:1029C000B380E894B7F8D701C60184259525A625DC
:1029D000B72588259925AA25BB25AC01BD01440F43
:1029E000551F661F771F4C015D0184269526A6267C
:1029F000B726D901C801B695A79597958795082759
:102A000019272A273B27082519252A253B25C08277
:102A1000D182E282F3820487158726873787B9013E
:102A2000A8014170552766277727709560955095C6
:102A300041955F4F6F4F7F4F80899189A289B389FC
:102A400084239523A623B72384259525A625B7257A
:102A500084839583A683B78384899589A689B7895A
:102A6000482359236A237B23D901C801072E7AE022
:102A7000880F991FAA1FBB1F7A95D1F7702D882543
:102A80009925AA25BB2584279527A627B7278087C0
:102A90009187A287B387892F9A2FAB2FBB278C0DE5
:102AA0009D1DAE1DBF1D082719272A273B278170B2
:102AB0009927AA27BB27B095A095909581959F4F00
:102AC000AF4FBF4FC08CD18CE28CF38CBC01CD01D9
:102AD0006C217D218E219F216027712782279327DA
:102AE0001F910F91FF90EF90DF90CF90BF90AF902C
:102AF0009F908F907F906F905F904F900895CF92AE
:102B0000DF92EF92FF926B017C010E94C114A7013A
:102B100096010E94691E97FF07C090958095709559
:102B200061957F4F8F4F9F4FFF90EF90DF90CF9039
:102B300008950E94C114862F81700895CF93DF936A
:102B400040E150E060E08BEB96E00E94730F61E0A3
:102B500085E00E94211CE4ECF9E0E491F0E0EE0F46
:102B6000FF1FE252F64F85919491CBEBD6E09B8705
:102B70008A87E5EAF9E0E491EC8761E08DE00E9464
:102B8000211CECECF9E0E491F0E0EE0FFF1FE252C3
:102B9000F64F859194919E878D87EDEAF9E0E49157
:102BA000EF8710929000A1E9B0E01C921092800093
:102BB000E1E8F0E010828C9188608C938C918160C8
:102BC0008C93808188608083808181608083E5E64A
:102BD000F0E08081877F8083E4E6F0E08081877F7A
:102BE0008083DF91CF9108954115510591E06907E8
:102BF0007105F0F096E076956795579547959A950B
:102C0000D1F793E04150510961097109811112C056
:102C100080919100887F892B809391005093990037
:102C200040939800809171008260809371000895B4
:102C300091E0E8CF80918100887F892B809381008B
:102C4000509389004093880080916F008260809348
:102C50006F000895CF93C82F9B0185E0C89FF001B6
:102C60001124E554F94F8081811127C081E08083D0
:102C7000440F551F469FC001479F900D569F900DD2
:102C8000112468EE73E00E94411E61157105A9F0E0
:102C9000CB01B0E0A0E081839283A383B48350E0B2
:102CA00040E060E072E18AE790E00E948B1EBA018A
:102CB000A9018C2FCF910C94F415CF910895811117
:102CC00017C0909171009D7F90937100E091C506AF
:102CD000F091C60620819091C7069095922390832B
:102CE00095E0899FF0011124E554F94F1082089571
:102CF00090916F009D7F90936F00E091C806F091D6
:102D0000C90620819091CA06E8CF1F920F920FB694
:102D10000F9211242F933F934F935F936F937F9361
:102D20008F939F93AF93BF93EF93FF93E091C5066B
:102D3000F091C60680819091C70689278083809193
:102D4000BC069091BD06A091BE06B091BF0601974A
:102D5000A109B1098093BC069093BD06A093BE065D
:102D6000B093BF06892B8A2B8B2B19F480E00E942D
:102D70005F16FF91EF91BF91AF919F918F917F91DE
:102D80006F915F914F913F912F910F900FBE0F90D8
:102D90001F9018951F920F920FB60F9211242F9328
:102DA0003F934F935F936F937F938F939F93AF93D3
:102DB000BF93EF93FF93E091C806F091C90680811D
:102DC0009091CA06892780838091C1069091C2069E
:102DD000A091C306B091C4060197A109B1098093DF
:102DE000C1069093C206A093C306B093C406892B74
:102DF0008A2B8B2B19F481E00E945F16FF91EF91D3
:102E0000BF91AF919F918F917F916F915F914F9102
:102E10003F912F910F900FBE0F901F90189542E297
:102E200051E060E08BEC96E00C94730FCF93DF934E
:102E3000CBECD6E08981882381F069857A858D8104
:102E40009E810E949A119E838D836B857C858F81E4
:102E500098850E94A61198878F832C9687E0CB3E99
:102E6000D80741F7DF91CF910895CF93DF93CBEC53
:102E7000D6E08981882399F03C816F817885660F3F
:102E8000672F661F770B631B8D819E81880F892FAB
:102E9000881F990B2B814A81831B0E94770D2C96EA
:102EA00087E0CB3ED80729F7DF91CF910895AF9205
:102EB000BF92CF92DF92EF92FF920F931F93CF9327
:102EC000DF93122FA82EB12C2CE0829FF001112449
:102ED000E553F94F20E86203B0011124768365833E
:102EE00020E84203A001112450874783C02FD0E07F
:102EF0006091EC07062E000C770B6F5F7F4F6C0F15
:102F00007D1F660F771F660F771F072E000C880B3B
:102F1000990B0E947F152091EC07022E000C330BB9
:102F20002F5F3F4F220F331F6901330FEE08FF0859
:102F3000C60ED71EE81EF91E0E949915811170C099
:102F40008FEF9FEF2CE02A9DF0012B9DF00D1124B7
:102F5000E553F94F8C9D90018D9D300D9C9D300D5A
:102F60001124328721876091EC07062E000C770B25
:102F70006F5F7F4F6C0F7D1F660F771F660F771F88
:102F8000072E000C880B990B0E947F152091EC07EF
:102F9000022E000C330B2F5F3F4F220F331F6901AE
:102FA000330FEE08FF08C60ED71EE81EF91E0E945A
:102FB0009915811138C08FEF9FEF2CE02A9DD00129
:102FC0002B9DB00D1124A553B94F8C9D90018D9D63
:102FD000300D9C9D300D11241C963C932E931B9715
:102FE00012961C93129713960C931397FE01E25CB2
:102FF000F64FE4911496EC93149781E011968C931C
:103000008091CB068F5F8093CB06DF91CF911F918C
:103010000F91FF90EF90DF90CF90BF90AF90089509
:1030200081E090E08FCF81E090E0C7CF0F931F93B6
:10303000CF93DF93C0E08091EC07082E000C990B32
:10304000C81719069CF50E9499158823D1F064E0F1
:1030500070E080E090E00E947F15162F0E94991585
:10306000DFE38111D0E060E870E080E090E00E9452
:103070007F1500E0212F4D2F8C2F0E945717CF5F17
:10308000DACF64E070E080E090E00E947F15162FB8
:1030900060E470E080E090E00E947F15D62F0E94EF
:1030A00099156FE7882329F360E0E3CFDF91CF9193
:1030B0001F910F910895FF920F931F93CF93DF936A
:1030C000D82F162FF42E022FEBECF6E0C0E0818112
:1030D0008823B9F0CF5F3C96C831C9F71F928AE8C0
:1030E0008F9389EE91E09F938F9381EF91E09F936F
:1030F0008F930E9473110F900F900F900F900F906D
:103100000F902F2D412F6D2F8C2F0E945717DF917D
:10311000CF911F910F91FF900895AF92BF92DF92D0
:10312000EF92FF920F931F93CF93DF93EBECF6E0B8
:10313000D0E0C0E0D180DD2009F464C005811681B3
:10314000000F012F001F110BE780F084EE0CEF2C15
:10315000EE1CFF08DC01A01BB10BAB014E195F098F
:103160002481022E000C330B2F5F3F4FAA9F50018A
:10317000AB9FB00CB00C1124449FD001459FB00D03
:10318000B00D1124AA0DBB1D229FA001239F500D3D
:10319000500D11244A175B07ACF12CE02C9FC001A5
:1031A0002D9F900D11249C012553394F5901F90190
:1031B0002381223074F42F5F42816E2D802F0E9474
:1031C0005B18F50123812F5F42816E2D802F0E94B5
:1031D0005B188CE08C9FF0018D9FF00D1124E5535E
:1031E000F94F11828091CB0681508093CB068D2DB3
:1031F000DF91CF911F910F91FF90EF90DF90BF90E3
:10320000AF90089521963C96C831D10509F092CF30
:10321000D12CEDCFECEEF7E080818F5F80830895B5
:103220008091EC07089585E0089581E09091CB06A8
:1032300019160CF480E0089581E09091EC07953028
:103240000CF480E0089508954CE850E064EE72E0DC
:1032500081E00C942A1648EE53E064EC70E081E0C3
:103260000C942A1642E350E06EE670E080E00C9485
:103270002A1644E650E06EE670E080E00C942A16D0
:103280004DE250E060E08DEE97E00C94730FCF9329
:10329000DF93CDEED7E08981882379F08A819B8105
:1032A0009C01215031093B832A8397FF0EC019826C
:1032B0008091ED0781508093ED072B9688E0CE300A
:1032C000D80749F7DF91CF9108956E817F81660F0E
:1032D000672F661F770B8C819D81880F892F881F30
:1032E000990B0E948D18882361F019828091ED0757
:1032F00081508093ED070E94321981E00E942D0ECB
:10330000DCCF6E817F81660F672F661F770B8C8104
:103310009D81880F892F881F990B0E94FD0E88239D
:1033200051F019828091ED0781508093ED070E9442
:1033300039198AE0E3CF688579858C819D810E9467
:103340009A119D838C836A857B858E819F810E94E3
:10335000A6119F838E83B1CF80910F08882309F433
:1033600044C080911008909111089C0121503109AE
:10337000309311082093100897FF03C010920F0894
:1033800008956091140870911508660F672F661FE5
:10339000770B8091120890911308880F892F881F4E
:1033A000990B0E948D18882321F010920F080C941D
:1033B0003219609116087091170880911208909147
:1033C00013080E949A119093130880931208609139
:1033D00018087091190880911408909115080E949E
:1033E000A611909315088093140808950E94471918
:1033F0000C94AC19CF93DF93CDEED7E0898188236D
:1034000071F06E817F81660F672F661F770B8C814D
:103410009D81880F892F881F990B0E94AF0D2B96D5
:1034200088E0CE30D80751F7DF91CF910895809191
:103430000F08882391F06091140870911508660FA9
:10344000672F661F770B8091120890911308880FE1
:10345000892F881F990B0C94AF0D08950E94FA19BB
:103460000C94171ACF93DF93EC019091ED079330F2
:1034700070F48091EE07882369F08091F907882322
:1034800041F180910408A2E0B0E0882329F0DF91A7
:10349000CF910895B0E0A0E08BE08A9FF0018B9F70
:1034A000F00D1124E351F84FA8E2B0E0B383A283FA
:1034B000D583C48377836683518740873387228788
:1034C00081E081839F5F9093ED07DF91CF910C9412
:1034D0002419A1E0B0E0E0CFEDEEF7E0ACE3B0E01E
:1034E000B4A3A3A396A385A370A767A352A741A7DC
:1034F00034A723A781E082A3089580910F0808953F
:103500004BE050E060E08AE198E00E94730FEAE14E
:10351000F8E080E090E29183808380E090E1938303
:103520008283089560911E0870911F0880911A0887
:1035300090911B080E949A1190931B0880931A087F
:10354000609120087091210880911C0890911D08BD
:103550000E94A61190931D0880931C0884E10E948C
:1035600041128823C1F080911E0890911F08009796
:1035700031F094F0019790931F0880931E0880917A
:10358000200890912108009731F044F00197909322
:1035900021088093200808950196EDCF0196F7CF7A
:1035A00040911E0850911F08CA0189539F4F8F38C0
:1035B000914038F52091200830912108C9018953A4
:1035C0009F4F8F389140E8F48091220890E0880F57
:1035D000991FFC01EF59F64FE4914E0F511DE7FD85
:1035E0005A9550931F0840931E08FC01EE59F64F60
:1035F000E4912E0F311DE7FD3A9530932108209379
:10360000200808950F931F93AAE1B8E018962C9113
:10361000189730E0220F331FF901EF5BF64F14913A
:10362000A9014F5F5F4FFA01EF5BF64F64912F598D
:10363000364FF9019491FA01EF59F64FE4918FE07A
:1036400016962D913C911797E802200D311D1124FB
:1036500014964D915C9115979802400D511D1124BF
:1036600000E86003B00111241296ED91FC911397CC
:103670006E0F7F1F00E81003F00111248D919C91C3
:103680008E0F9F1F1F910F910C94321ACF93DF93CF
:103690000E941913C82F0E941613D82FC5FF06C009
:1036A0008091220881508F7080932208C6FF06C047
:1036B000809122088F5F8F7080932208C3FD0E9443
:1036C000D01AD2FD0E94021BD7FF03C081E0809375
:1036D0002308DF91CF91089560911C0870911D0817
:1036E000660F672F661F770B80911A0890911B0851
:1036F000880F892F881F990B0E948D1880932408AA
:1037000081110C942B1908950E94461B0E94921A55
:103710000C946C1BEAE1F8E062817381660F672FFD
:10372000661F770B685080819181880F892F881FD1
:10373000990B408588500C944D0DCF93DF9360E733
:1037400070E080E090E00E947F15CAE1D8E0685FF9
:103750007F4F8F4F9F4F27E0660F771F881F991F5E
:103760002A95D1F77983688360E370E080E090E088
:103770000E947F15685F7F4F8F4F9F4F37E0660F26
:10378000771F881F991F3A95D1F77B836A831D8223
:103790001C821F821E821986DF91CF91089580912D
:1037A0002308089580912408089581508F3008F0EF
:1037B00047C0E82FF0E0E152F44E0C94AA1EFC1B27
:1037C000001CEE1BF41BF81B201C201C201C031CDF
:1037D000091C0D1C111C171C201C1B1C8091800037
:1037E0008F77809380000895809180008F7DF9CF3E
:1037F00080918000877FF5CF84B58F7784BD089551
:1038000084B58F7DFBCF809190008F77809390005F
:103810000895809190008F7DF9CF80919000877FEF
:10382000F5CF8091C0008F778093C000089580917C
:10383000C0008F7DF9CF8091C200877F8093C20046
:103840000895CF93DF9390E0FC01E056F64F24916A
:103850008154964FFC0184918823C9F090E0880F31
:10386000991FFC01E451F64FA591B491FC01E2527D
:10387000F64FC591D49161110DC09FB7F8948C910A
:10388000209582238C938881282328839FBFDF91F2
:10389000CF910895623051F49FB7F8943C91822FF4
:1038A000809583238C93E8812E2BEFCF8FB7F894EC
:1038B000EC912E2B2C938FBFEACF1F93CF93DF93E6
:1038C000282F30E0F901EF57F64F8491F901E056C7
:1038D000F64FD491F901E154F64FC491CC23A9F0ED
:1038E000162F81110E94D51BEC2FF0E0EE0FFF1F69
:1038F000E252F64FA591B4918FB7F894EC91111163
:1039000008C0D095DE23DC938FBFDF91CF911F914C
:103910000895DE2BF8CFCF93CFB7F8948091250888
:10392000811127C0E0EDF9E08491E1EBF9E0949199
:10393000E82FF0E0EE0FFF1FE451F64FA591B49190
:10394000EC91E92321F461E081E10E945D1C61E0DA
:1039500081E10E94211C8CB580618CBD8CB5806496
:103960008CBD61E08FE00E94211C61E080E10E943B
:10397000211C809125088F5F80932508CFBFCF91B0
:1039800008954F925F926F927F928F929F92AF9223
:10399000BF92CF92DF92EF92FF920F931F93FC01A1
:1039A000448455846684778484809580A680B7801B
:1039B000C084D184E284F38480819181A281B38127
:1039C000BF77B501A4014C255D256E257F25842791
:1039D0009527A627B7278C019D01000F111F221FD5
:1039E000331F082719272A273B27B301A201769501
:1039F0006795579547954425552566257725402792
:103A000051276227732780829182A282B3824487E2
:103A1000558766877787DB01CA0181709927AA27B6
:103A2000BB27B095A095909581959F4FAF4FBF4F05
:103A300080889188A288B38888229922AA22BB22F2
:103A4000C824D924EA24FB24C482D582E682F782E2
:103A5000C488D588E688F7888C219D21AE21BF21B6
:103A6000032E3AE0440F551F661F771F3A95D1F792
:103A7000302D402751276227732784279527A627B3
:103A8000B72780879187A287B3871F910F91FF90F7
:103A9000EF90DF90CF90BF90AF909F908F907F90EE
:103AA0006F905F904F900895FC0180819181A28179
:103AB000B381BF77892B8A2B8B2BC1F584819581AC
:103AC000A681B781892B8A2B8B2B81F580859185E7
:103AD000A285B385892B8A2B8B2B41F5848595850F
:103AE000A685B785892B8A2B8B2B01F584E590E081
:103AF000A0E0B0E080839183A283B38389E490E067
:103B0000A0E0B0E084839583A683B7838EE490E041
:103B1000A0E0B0E080879187A287B38789E590E035
:103B2000A0E0B0E084879587A687B78708958F9235
:103B30009F92AF92BF92CF92DF92EF92FF920F933C
:103B40001F93CF93DF93EC01488359836A837B8370
:103B500088899989AA89BB898C839D83AE83BF8319
:103B60008C899D89AE89BF8988879987AA87BB87F9
:103B7000888D998DAA8DBB8D8C879D87AE87BF87D9
:103B8000C12CD12C7601C394860103701127000F3C
:103B9000111F000F111F0C0F1D1FF6013197E3704D
:103BA000FF27EE0FFF1FEE0FFF1FEC0FFD1F8081A1
:103BB0009181A281B3819C01AD016EE1569547953B
:103BC000379527956A95D1F7282739274A275B2704
:103BD00065E679E887E09CE60E94251E4B015C01C2
:103BE0008C0C9D1CAE1CBF1CF80180819181A281B0
:103BF000B38188269926AA26BB2680829182A2823A
:103C0000B382FFEFCF1ADF0AEF0AFF0A88E0C81677
:103C1000D104E104F10409F0B7CFCE010E94541D94
:103C200008E010E0CE010E94C11C01501109D1F73B
:103C3000DF91CF911F910F91FF90EF90DF90CF9088
:103C4000BF90AF909F908F900895DB018F939F93CB
:103C50000E94B01EBF91AF91A29F800D911DA39FA6
:103C6000900DB29F900D11240895991B79E004C026
:103C7000991F961708F0961B881F7A95C9F78095AB
:103C80000895AA1BBB1B51E107C0AA1FBB1FA617A3
:103C9000B70710F0A61BB70B881F991F5A95A9F7F5
:103CA00080959095BC01CD01089597FB072E16F4E1
:103CB000009407D077FD09D00E94411E07FC05D073
:103CC0003EF4909581959F4F0895709561957F4F33
:103CD0000895A1E21A2EAA1BBB1BFD010DC0AA1F4D
:103CE000BB1FEE1FFF1FA217B307E407F50720F065
:103CF000A21BB30BE40BF50B661F771F881F991FE0
:103D00001A9469F760957095809590959B01AC0128
:103D1000BD01CF010895052E97FB1EF400940E946B
:103D2000A21E57FD07D00E94691E07FC03D04EF467
:103D30000C94A21E50954095309521953F4F4F4FC2
:103D40005F4F089590958095709561957F4F8F4F47
:103D50009F4F0895EE0FFF1F0590F491E02D0994F9
:103D60000E94BB1EA59F900DB49F900DA49F800D37
:103D7000911D11240895A29FB001B39FC001A39F7C
:103D8000700D811D1124911DB29F700D811D112494
:103D9000911D0895F999FECF92BD81BDF89A99279A
:103DA00080B50895262FF999FECF1FBA92BD81BD27
:103DB00020BD0FB6F894FA9AF99A0FBE01960895AD
:103DC000F894FFCF00C18081000000FFFFFFFF00DB
:103DD000E10000000000000F040504FB03D903CF3D
:103DE00003C503A30399038F036D036303590337CB
:103DF000031503F302D102AF028D026B02490227C1
:103E0000020502E301C1019F017D015B013901004F
:103E1000000000660AAD0A900AA00A7C0A8D0A57C3
:103E20004156452025642F256420200047414D45FB
:103E300020434C4541520047414D45204F56455285
:103E400000424553542025640067616D652E637000
:103E5000700047616D652E616374002573282564C9
:103E60002925780A007265732E6370700025732807
:103E70002564296E756D203C2031360A0025732893
:103E800025642974797065203C203420262620730F
:103E9000697A65203C20330A002533640075666F1B
:103EA0002E6370700055666F2E61637400617374C9
:103EB0002E6370700025732825642969203C2041F9
:103EC00053545F4D41585F434E540A00FFFFFFFFBC
:103ED000FFFFFFFFFFFFFFFFFFFFFFFFFFFFFFFFF2
:103EE000FFFFFFFFFFFFFFFFFFFFFFFFFFFFFFFFE2
:103EF000FFFFFFFFFFFFFFFFFFFFFFFFFFFFFFFFD2