:100000000C943C100C9464100C9464100C946410C8
:100010000C9464100C9464100C9464100C94641090
:100020000C9464100C9464100C94EB230C945A24DC
:100030000C9464100C9464100C9464100C94641070
:100040000C9464100C9464100C9464100C94641060
:100050000C9464100C9464100C9464100C944B2653
:100060000C9464100C9464100C9464100C94641040
:100070000C9464100C9464100C9464100C94641030
:100080000C94B0260C9464100C9464100C946410BE
:100090000C9464100C9464100C9464100C94641010
:1000A0000C9464100C9464100C9464100808001CE8
:1000B0001C3E3E7F3A7F327F1C3E001C0000000C3D
:1000C0000C1E1E3F1A3F0C1E000C00000000000614
:1000D000060F060F000600000000000000000838B0
:1000E00000000008F0C0000000C0F03E0FE08000FB
:1000F0000000078FE03C8F0000003F7F0080FF1C66
:1001000000F0FC1E03F9E0000003C7F03C0F0700FD
:100110003EFFC1007FFC800000000008F0C000002E
:100120000000C0F03F0FE0800000078FE03C870137
:10013000003C7F0380FC1F0000F0FC1F03F8E00080
:1001400000C7F03C0F0700003EFFC1007FFC8000AD
:100150000000000008F0C0000000C0F03E0FE0808A
:1001600000078FE03C870100003F7F0080FF1C00FC
:10017000F0FC1E03F9E0000003C7F03C0F0700008D
:1001800000FFFF0000FFFC000000000080F84000BE
:1001900000C0F03E0FE1800000078FE03C870100C7
:1001A0003E7F0180FC1F0000F0FC1F03F8E0000010
:1001B0000003C7F03C0F070000FEFF0100FFFC003A
:1001C00000000000F0C8000000C0F03E0FE000009A
:1001D000008FE03C8F0300003F7F0080FF1C000089
:1001E00000F0FC1F03F8E0000003C7F03C0F07001D
:1001F00000C0FF1F00C0FF3C00000080F04800006E
:10020000C0F03E0FE1800000078FE03C8701000056
:10021000003F7F0080FF1C0000F0FC1F03F8E0009F
:10022000000003C7F03C0F0700C0FE1F01C0FF3CE9
:10023000000000F0C8000000C0F03E0FE0800000A9
:100240000007CFE03C870000003F7F0080FF1C00DC
:100250000000F0FC1F03F8E0000003C7F03C0F07AC
:1002600000FEFF0100FFFC00000000F8C0000000DD
:1002700000C0F03F0FE0800000078FE03C870100E6
:1002800000003F7F0080FF1C0000F0FC1F03F8E02F
:100290000003C7F03C0F070000FEFF0100FFFC0059
:1002A000080800C000E000FC00F000C000E000FC16
:1002B00000F040806080708C40B040A04084788026
:1002C000609040A048B040906080408020C038C01E
:1002D00030C000C000E000FC00F010C000C020F8FA
:1002E00004E03C38000000000080F8FE0FE3FB1B38
:1002F0000B0B8BFBF3F7F6F6F60606ECECECECECEE
:10030000ECECECECECECECECECEEE6F6F6F6F7F301
:10031000FBFBCBCBFBE30FFEF8801E332121339E8A
:1003200000000080F8FF0FE0F8F9F9F9F9F9F9F9A0
:10033000F1F3F3F3F3F0F0FFFFFFFFFFFFFFFFFF29
:10034000FFFFFFFFFFFFFFFFFFFFFFFFFFFFFFFFBD
:100350007F7FFEE00FFFF880060600000000000F20
:100360003FF0C60704040707070707070707070743
:100370000707FFFFFFFFFFFFFFFFFFFFFFFFFFFF7D
:10038000FFFF07070707070787870707268607076F
:10039000C6F03F1F0080800000000000000003073F
:1003A00084C4E4E4E4E4E4E4E4E4C49C000FE7E7A8
:1003B000E7E7E7E7E7E7E7E7C7870F1F0FC7E7E0EC
:1003C000ECE4E4E4E5E5E4C4040404070300C0400D
:1003D000C30311000000000000000000FFFFFFFF4A
:1003E000FF393939FFFFFF0FE0E0EFEF0FFFFF1894
:1003F0003879FFFFF703E0E0EFEF0FFFF9F0F0FCD3
:10040000FDFDFD0DECE0E0E0000001210100000039
:10041000000080C0602060C080000000000C0C0064
:100420007EFE803C3E1C1C1C1C1C0C0C0E0C0C0C80
:100430000C0E1E1C1C1C1C3C3E80FE7E000000009E
:10044000C0E0E0C000000000030300000E1B3166A6
:10045000C680D060311B0E00003828380001471ECE
:100460003820202020301010D0D0101090103020D4
:10047000202020381E0701000006060000010100B0
:100480000000000000000000170800FF7FFF41FF90
:1004900077FF77FF41FF7FFF41FF55FF55FF5DFF6E
:1004A0007FFF41FF5FFF50FF50FF7FFF41FF75FF60
:1004B00015FF113F1F3F003F00FF7FFF41FF75FF0A
:1004C00015FF11FF7FFF41FF5FFF50FF50FF7FFFD0
:1004D00041FF6DFF6DFF41FF7FFF11FF77FF47FF7A
:1004E00071FF1FFF003F00FF77FF5DFF41FF5DFFD2
:1004F0007FFF41FF7BFF36FF6FFF41FF7FFF41FF23
:1005000075FF15FF1DFF7FFF41FF5DFF5DFF41FF91
:100510007FFF00FF00FF7FFF41FF5DFF55FF57FF9B
:100520007FFF41FF5DFF5DFF41FF7FFF41FF3AFF1E
:1005300077FF41FF7FFF41FF75FF15FF1D3F073F1D
:10054000000F4040FFFFFF0707E7E7676767676740
:1005500067E7E70707FFFF1F1F67677F7F1F1F070B
:1005600007E7E7E7E707079F9F7F7F87876767FFC3
:10057000FFFFFF0707E7E7676767676767E7E70763
:1005800007FFFFFFFFFFFF00007F7F60606060608C
:10059000607F7F0000FFFF06069898787898987E25
:1005A0007E8787797986867F7F8686070798987900
:1005B00079FFFF00007F7F6060606060607F7F0088
:1005C00000FFFFFFFFFFFF666686867E7EE6E67E13
:1005D0007E1E1E6666E7E79898797906069F9FF863
:1005E000F86767E6E6E1E106061919F8F8616118AF
:1005F000181F1F8686E6E666661E1E666666669E8F
:100600009EFFFFFFFFFFFF9E9E61611818676760F6
:100610006006066666E1E11919FEFE9E9E9F9F0731
:100620000780807F7FF9F9E6E666667F7F868666CB
:1006300066868667676161FEFEE0E01818606067A5
:1006400067FFFFFFFFFFFF6767E6E6F8F818187817
:10065000786060666601017E7EFFFF9999E7E7F8A2
:10066000F861618686F9F9010160601818E7E760B2
:100670006007079E9E7E7EF9F96161FEFE60601E46
:100680001EFFFFFFFFFFFF66667F7F7F7F7E7E6628
:100690006678786666E6E618188181FFFF01010733
:1006A0000718186767E7E70606F8F87878F9F90693
:1006B00006E6E66161E6E60707FEFE8787181898FA
:1006C00098FFFFFFFFFFFF0000FEFE06060606067E
:1006D00006FEFE0000FFFF9E9E818101010000F8E2
:1006E000F818180606F9F9E6E66767E6E69F9FE060
:1006F000E087878686E7E700000707797998987F83
:100700007FFFFFFFFFFFFFE0E0E7E7E6E6E6E6E664
:10071000E6E7E7E0E0FFFFE1E1E7E7FEFEF8F8E704
:10072000E7E6E6FEFEE1E1F9F9E0E0F9F9F9F9E1E1
:10073000E1E7E7F9F9E7E7E0E0FEFEFEFEE1E1FED2
:10074000FEFFFFFF4F081F09091F001F09091700BF
:1007500001011F0101000A000000000E1911170617
:100760000000000810101F001F10101F00171515A3
:100770001D0001011F010100111F11001F020408CB
:100780001F0010101010001F1111110007041C078A
:10079000001F0909171E080E19111706000000088E
:1007A00010101F001F11111F0015151F001F090930
:1007B0001700111F114B081F111111001F11111FDC
:1007C000001F11110E001F151511000A0000000076
:1007D0000E191117060000001F11151D001F090931
:1007E0001F000F10100F001F151511001F02040825
:1007F0001F001F11111F00121F1000121F10001DDB
:10080000151764100606FFFFFF0707030000FEFF31
:10081000FF8783C3FEFC0000E0FC3E0F070FFFFED6
:10082000000000FFFF3E00000000000000FFFF3E50
:100830000000000000000F7FF8C0E0FE1F0700006E
:1008400000000000000086FFFF8787870703000085
:1008500006FFFF070000003C7EE7C3871E0C000078
:10086000E0FFFF808080FEFF0000FFFF7F000000B0
:100870000000FFFF7F031FFFF9E000003F7FF8F05B
:10088000F0F87F1F0000FEFFFFE0E0E0E060000006
:10089000FEFFFFE0E0E0E06000000000FFFF7F00FF
:1008A00000000000000000000000FFFF7F010100C9
:1008B00000000000C0FFFFE000003078F8E0E1F742
:1008C0007F3E0000FFFF7F010101FF7F130800FF53
:1008D0007FFF51FF55FF55FF45FF7FFF41FF75FF2C
:1008E00015FF1DFF7FFF5DFF49FF63FF49FF5DFFB0
:1008F00077FF00FF00FF7FFF41FF5DFF5DFF41FFCE
:100900007FFF41FF75FF15FF1DFF7FFF41FF75FF53
:1009100015FF1D3F073F000F000000FF7FFF41FF55
:100920005DFF5DFF41FF7FFF41FF7BFF36FF6FFFF4
:1009300041FF7FFF00FF00000000000000000000FA
:100940002040000100F0E080001818000040000284
:10095000E0F0D090E00000400C0C80C0E0F0F078B7
:10096000783C0000C080072F7E78E0C0081870E057
:10097000E0F1F1D9F8FC7E3E1E0FE73309C1701893
:100980008EE3E0F0707FDCF0C1050D4F4F4E4C5907
:10099000F10307670300FC0300FC0700F80F00F0F9
:1009A0001F00FF9C9BFB7C0F0350D0F27A1E8EC76A
:1009B00063F0F89C9EFCF0E0C04F0080DFD0C0CF19
:1009C000D8D07F3F1F8340A4A3D3D3D0D0D2D3238A
:1009D000A3D3F189017179F9FCFEFFFFFFFFFFFF4F
:1009E000FF7FC0801F201F4FC703FFFFE307C1FE2B
:1009F0003FC7FFFFC1C2FEFCFCFC04FCFCFC3C0C3E
:100A0000C426FF7FFFE3C08817285F9F9F8640634F
:100A10009C7F7F7F0139FB47BE7E78271F3F7EF892
:100A2000F7F4FFE7DBBDB5DBE7FEFCBCE4E4FCDC90
:100A300088D9F1F2F2B1F8CCC8F9F1F2F2F1F1F2A1
:100A4000E2E41C1C1E4E6666677373F3C3833E3E6E
:100A50003C70800010000060620000081C0800006C
:100A60009818311CC6E3F9FCFEFEFF7EBEDEDE5F99
:100A70005FBE7839C2469C3CF8F838D8ECAC2CDC28
:100A80003CFCE0FFFFFFFFFFFF7FBFB8B7AFACACA0
:100A9000ADB7585C5B9A8A0061FFFE6D7BFBFBFD86
:100AA0009E83C38F7FFFFFFFFFFCFBF4E8D0D0D015
:100AB000D0D0D050A8088760787F3C3B1B9C1F3368
:100AC000337E3F1F8FE4C34FCFCFE7E7E72727C72A
:100AD000CB4DCE9F9F9880847804FAFDFDFEFDFDEE
:100AE000FA041317E71F07F8FFFFFF7F0300F8E77B
:100AF0001FC0FFFFFF3F01807C807FFFFFFFFFFFE4
:100B0000C0C0F4FB7C7F201FBF7FFFFCF8F7F4FB25
:100B1000E0DFBFFFFFF8F0F7F4F4FBFAF9FBFBF7B7
:100B200007E7E4E4E4E4E2F1F0F1E2E4E4C5C9C992
:100B3000C9C9C9C8C5C9C98B93939393939391911C
:100B400088C5000030786830000000000000000018
:100B50000000000000000000000000000000000095
:100B60000000F87002C7C200000000000000000092
:100B70000000000000000000000000000000000075
:100B8000000080C2E0787CFC9800000000000000BB
:100B90000000000000000000000000000000000055
:100BA00000007F79362F2D36393F3F6E7EFCDC8C7E
:100BB000D8F8B8F87070707070606070F0F0F0B8CD
:100BC000E9FF08FCC23DFDFDFDFDFAF20C0870C115
:100BD0002191E8F4F4FAFAFAFAFAFAF4F4E8C9A975
:100BE00068F4BC83E3FCC3FFFFFFFF3F0000C07C51
:100BF0008BF3FFFFFFFEC1B9E98B5367AFCF07C38C
:100C0000E0FFFFFFFFFF0703E3111088C4E20103C9
:100C1000FC03FFFFFFFFE707E72351B07D7DF8FFEF
:100C2000FFFFCB8B9393919089C6E0F0FF9F9CF8D8
:100C3000F8F1E4C5C9C9C8C8C4E3F0D8F1F2E2E4E8
:100C4000E4E40000000000000000000000000000DC
:100C50000000000000000000000000000000001084
:100C6000381000000000000000000000000000003C
:100C70000000000000000000000000000000000173
:100C800018981000C0C00000000000000000000024
:100C900000000000000000000000C0E0A0C0001C38
:100CA000F7FFCEB4B4CCF8B8F0E0E0E0C0C0C0C00C
:100CB000C0C0808080C0C0C0C0E030D9E9A8D83CA6
:100CC000FFFFF4E8E9E9E9D32353D1E9E9E9E9E9E8
:100CD000E9D3A327A7A7448C47A7A7A6A5458E1F9E
:100CE0003F7FFF0307EF0FCFC3C0C3836353575743
:100CF000EF0743E0F0FFC0C0A0DFFFFFC10078872F
:100D00000030FF78783B3D0C844165797B7B7F3FE9
:100D10003E0180BF3F3F3901C1B9BF3F1F00807F07
:100D20000000E4E4E4A2F2F19899F1F2F2F2F2F2B6
:100D3000B2F9F8F8F9C9C9F9F8ECF8F9F9D988DC89
:100D4000FEFF0C10E0F030F810F810F8E0FC1CFE8C
:100D500022FF4DFF45FF41FF227F1C3E00010103A2
:100D6000010301030007060F090F090F060F000614
:100D70000000000080D312BF34FEF0FCF8FEFEFF3E
:100D8000F8FEF0FC34FE12BF80D3008000010007A3
:100D900003070307010F0C0F010F030703070007E9
:100DA00000010000E0F0F0F8F8FCFCFE3AFF11BF93
:100DB0008ADFC4EEA0F410F8A0F040E00307070FAC
:100DC0000F0F0F0F0F0F0F0F0F0F070F0307010369
:100DD000000100002073227704AE008C000303079B
:100DE0000003008C04AE2277207300700006020717
:100DF00001030001000E060F000E000101030207AF
:100E000000060000F0FC0CFE42FF1A7F1D3F0D1F84
:100E1000010F018382C7028F0CFEF0FC0003030761
:100E2000040F040E080C080C080D090F050F040F21
:100E3000030700033C7E46FFBAFF7AFFF4FEE8FC9E
:100E4000F4FE7AFFBAFF46FF3C7E003C0000000043
:100E5000000101030207050F020701030001000062
:100E60000000000000C040F070FC7CFF7FFFFFFF2F
:100E7000F7FFF3FF71FB3079103800180000000015
:100E80000008080E060F0307010300010000000020
:100E900000000000F8FF06FF02FF01FF01FF3DFF19
:100EA00041FF81FF02FF06FFF8FE00F80C0F0B0F59
:100EB000020F040F040F040F040F040F020F0B0F97
:100EC0000C0F000C0D08001C083E1C3E083E007E66
:100ED000247F3E7F207F007F3E7F227F3E7F007FFA
:100EE000001C083E1C3E083E007F3A7F2A7F2E7F72
:100EF000007F3E7F227F3E7F007F001C083E1C3E1D
:100F0000083E007F227F2A7F3E7F007F3E7F227F38
:100F10003E7F007F001C083E1C3E083E001F0E1F47
:100F2000087F3E7F007F3E7F227F3E7F007F001C48
:100F3000083E1C3E083E007F2E7F2A7F3A7F007FBE
:100F40003E7F227F3E7F007F06080C0C121E253F4D
:100F5000213F121E0C0C1818000011A67CFAFCE8A8
:100F60000000080C0F183070E09090F808040200A0
:100F700042476F6F0000C101000000000000000048
:100F800000010101EF86820210804824361F1310F1
:100F900010F030100804040C3E02060F13244880A1
:100FA0000102860C1440C098E9000007081C3E614D
:100FB000C0C020000800000110123AFE01010381A8
:100FC000000000000000000000010101E2420000FA
:100FD000020221170C041E131030101010080444D4
:100FE000EE460E091000400042040880000013E0A5
:100FF000000304080C1B2060E0F0300804C25060BD
:101000000080C2FF0000C1010000000000000000DD
:10101000000101016220200001412103021D137023
:10102000301010100804040486020607081000009F
:10103000040000122478F1F808080C0E0810204073
:10104000C0C0E010080020108082C7C70080810067
:101050000000000000000000000101C23C18080868
:101060008000004221103F101010101008040406E8
:101070001E020508102040001818000000C0C0E043
:1010800020F01038081C04CEC4EE64FE22F70227BC
:101090000207020702070207040E040E040E081CD2
:1010A000103820F0C0E000C00000007E7EFF81FF0D
:1010B00000810000008787CF018700010000000049
:1010C0000000000000000000000000000000000020
:1010D0000000008181FF7EFF007E00000003030707
:1010E000040F081C103921732377227740E240E077
:1010F00040E040E040E040E0207020702070103878
:10110000081C040F0307000300001010F0F8C0F0E3
:1011100080E0C0E161FF77FFFBFFFBFF9AFF28FE45
:1011200008FC90F8E0F0C0E000E0C0E00F1F030F03
:1011300001C343FF74FF6BFF6AFF5FFF1F7F1B3F0D
:10114000153F153F0D1F0E1F0B1F010F00E0C0E0E4
:1011500080C0C0E0E0F171FF7BFFFBFFFAFF98FE6B
:1011600028FC90F8E0F0C0E000E0C0E0003F1F3F46
:10117000071F01C743FF74FF6BFF5AFF5FFF1F7F0D
:101180001B3F153F051F0E1F0F1F010FF0F8C0F08A
:1011900080C0C0E161F777FFFBFFFBFF9AFF28FEED
:1011A00008FC90F8E0F0C0E000E0C0E00F1F030F83
:1011B00001C343FF74FF6BFF6AFF5FFF1F7F1B3F8D
:1011C000153F153F0D1F0E1F0B1F010FF8FCE0F818
:1011D00080E060F070FFFBFFFBFF9BFF2AFF08FE33
:1011E00098FCF0F8E0F000E0C0E000C0070F030753
:1011F000010704FF6BFF6AFF5FFF5BFF157F153F71
:10120000153F0D1F0E1F0B1F010F000315080000D7
:10121000008080C080C10183002120700020000078
:1012200000800084040E00040000008080C0008064
:101230000018183C183C0018000000C0C0E0C0E0D6
:1012400000C1001010380010008080C080C20287EA
:1012500000020000004040E00040000C0C1E0C1E8C
:10126000000C0000006060F060F000600008081CE6
:10127000008880C0C0E040E181C300810000002000
:10128000207000200006060F068F000600000030C8
:101290003078307800300004040E00C4C0E0E0F084
:1012A000A0F0C0E100C000000010103800100003E2
:1012B000038783C7008300000018183C183C0018FF
:1012C00000020207006260F0F0F8D0F860F0006001
:1012D00000000008081C00080001014341E3004130
:1012E0000000000C0C1E0C1E008C000101030031DC
:1012F000307878FC68FC3078003000000004040E80
:101300000004000000212071002000000006060FEC
:10131000068F80C6008000010018183C3C7E347E99
:10132000183C001800000002020700020000001034
:1013300010380010000000030307034740E300409B
:101340000000000C0C1E1E3F1A3F0C9E000C0000FB
:1013500000010103000100000008081C0008000053
:101360000001010301232071002000000006060F88
:101370000F1F0D9F86CF00860000000000010000B7
:1013800000000084048E0004000000000001001131
:1013900010380010000000030307070F064F43E753
:1013A00000430000000000000000008080C282C7EF
:1013B00000820000000000000008081C00080080F7
:1013C000000101030307032721730021000000002F
:1013D0000000000000C0C0E1C1E300C10000000047
:1013E00000000004040E008480C00080000101039E
:1013F0000113103900100000000000000000006020
:1014000060F060F1006000000000008000820207D0
:10141000004240E00040000000010009081C0008F4
:10142000000000000080000000303078307800308C
:1014300007080C0CD8D878782E3E3B3B68684444AB
:1014400050100000000000000080008080C0C0E05C
:1014500040E0A0F060F0E0F0E0F0E0F060F0E0F0FC
:1014600060F060F060F0E0F0E0F0C0E0C0E0C0E00C
:10147000C0F0C0F0D0F8D0F850F8B0F8B0F830F8BC
:1014800030F8B0F8B0F8D8FC58FC2CFEECFEECFEBE
:101490008CFE8CFEECFEECFE2CFE58FCD8FCD8FC3E
:1014A00058FCD8FCD8FC58FC58FCD0F8D0F810F800
:1014B00050F8B0F8B0F8B0F8B0F860F040E040E0B4
:1014C000A0F0A0F0A0F0A0F0A0F0A0F0A0F0A0F09C
:1014D000A0F060F060F0C0E080C00080000000007C
:1014E00000000000000E0C1F0B1F173F1B3F163F94
:1014F000153F1D3F0E1F0F1F0F1F071F081F0E1F39
:101500000B1F0B1F0B1F0C1F0F1F0F1F0F1F0F1F7A
:101510000F1F173F173F173F173F2F7F2F7F2E7F3C
:101520002E7F2F7F2F7F2F7F163F0B1F0B1F0B1F31
:101530000B1F0B1F0B1F0B1F0B1F173F173F173FD7
:10154000173F173F173F163F163F173F173F173FED
:10155000173F2F7F2C7F2D7F2F7F2E7F2F7F2F7F79
:101560002F7F2F7F2F7F2F7F2F7F173F173F173F13
:10157000173F173F1B3F0A1F091F0F1F0E1F001E9B
:1015800000000000000000000080008080C0C0E07B
:1015900040E0A0F060F0E0F0E0F0E0F060F0E0F0BB
:1015A00060F0A0F0A0F060F0E0F0C0E0C0E0C0E0CB
:1015B000C0F0C0F0D0F8D0F850F8B0F8B0F830F87B
:1015C00030F8B0F8B0F8B0F8B0F858FCD8FCD8FC57
:1015D00018FC18FCD8FCD8FC58FC2CFEECFEECFEE9
:1015E000ACFEECFEECFE2CFE6CFED8FCD8FC18FC2D
:1015F00058FCD8FC50F8D0F8D0F8A0F0A0F0A0F03B
:10160000A0F060F060F040E040E0A0F0A0F0A0F0BA
:10161000A0F060F040E040E0C0E0C0E080C00080AA
:1016200000000000000E0C1F0B1F173F1B3F163F52
:10163000153F1D3F0E1F0F1F0F1F071F081F0E1FF7
:101640000B1F0B1F0D1F0E1F0F1F0F1F0F1F0F1F35
:101650000F1F173F173F173F173F2F7F2F7F2E7FFB
:101660002E7F2F7F2F7F2F7F2C7F163F173F173F17
:10167000173F173F173F173F163F0B1F0B1F0B1F3F
:101680000B1F0B1F0B1F0B1F0B1F173F173F173F86
:10169000173F173F163F163F173F2E7F2F7F2F7F95
:1016A0002F7F173F173F173F173F0B1F0B1F0B1FB6
:1016B0000B1F0D1F050F050F060F0307030701037F
:1016C00000030000000000000080008080C0C0E037
:1016D00040E0A0F060F0E0F0E0F0E0F060F0E0F07A
:1016E00060F060F060F0E0F0E0F0C0E0C0E0C0E08A
:1016F000C0F0C0F0D0F8D0F850F8B0F8B0F830F83A
:1017000030F8B0F8B0F8B0F8B0F8B0F8B0F8B0F819
:1017100030F830F8B0F8B0F8B0F858FCD8FCD8FC85
:1017200058FCD8FCD8FC58FC58FCECFEECFE8CFEB7
:10173000ACFEECFE2CFE6CFEECFE58FCD8FCD0F8A7
:10174000D0F8D0F8D0F8D0F8D0F8D0F8B0F8A0F0B1
:10175000A0F060F060F0C0E0C0E080C080C0008019
:1017600000800000000E0C1F0B1F173F1B3F163F91
:10177000153F1D3F0E1F0F1F0F1F071F081F0E1FB6
:101780000B1F0B1F0B1F0C1F0F1F0F1F0F1F0F1FF8
:101790000F1F173F173F173F173F2F7F2F7F2E7FBA
:1017A0002E7F2F7F2F7F2F7F2C7F2C7F2F7F2F7FD0
:1017B0002E7F2E7F2F7F2F7F2C7F163F173F173FC7
:1017C000173F173F173F163F163F0B1F0B1F0B1FEF
:1017D0000B1F0B1F0B1F0B1F0B1F0B1F0B1F0B1FB9
:1017E0000B1F173F173F173F173F173F173F173F75
:1017F000173F0B1F0B1F0A1F0C1F070F070F0307B5
:1018000000030000000000000080008080C0C0E0F5
:1018100040E0A0F060F0E0F0E0F0E0F060F0E0F038
:10182000E0F0E0F0E0F0E0F0E0F0C0E0C0E0C0E0C8
:10183000C0F0C0F0D0F8D0F850F8B0F8B0F830F8F8
:1018400030F8B0F8B0F8B0F8B0F858FCD8FCD8FCD4
:1018500018FC18FCD8FCD8FC58FC58FCD8FCD8FC68
:1018600058FCD8FCD8FC58FC58FCD8FCD8FC18FC18
:1018700058FCD8FC58FCD8FCD8FC58FCD8FCD0F854
:10188000D0F8D0F8D0F8D0F8D0F8A0F0A0F0A0F0C0
:1018900060F0C0E080C080C0008000000000000058
:1018A00000000000000E0C1F0B1F173F1B3F163FD0
:1018B000153F1D3F0E1F0F1F0F1F071F081F0E1F75
:1018C0000A1F061F061F091F0F1F0F1F0F1F0F1FC5
:1018D0000F1F173F173F173F173F2F7F2F7F2E7F79
:1018E0002E7F2F7F2F7F2F7F2E7F163F173F173F93
:1018F000173F173F173F173F163F163F173F173F3A
:10190000173F173F173F163F163F173F173F173F29
:10191000173F173F163F163F173F0B1F0B1F0B1F9D
:101920000B1F0B1F0B1F0B1F0B1F173F173F173FE3
:10193000173F163F163F153F1B3F0E1F0C1E001C86
:1019400000001018000000E0E0F818FC04FE9AFF08
:10195000CDFFE1FFE1F3C1E382C7049E18FCE0F88C
:1019600000E0000000000003030704FFF4FF07FF8E
:10197000F7FF03FF03FFF7FF07FFF4FF04FF030771
:1019800000030000000000000000001F1F3F00FFD8
:10199000FFFF00FF00FFFFFF00FF1F3F001F0000D1
:1019A00000000000008080E060F010F828FCB8FC27
:1019B00094FE84DE84CE84CE88DC089C10F860F02F
:1019C00080E000800007070F081F08FFEFFF0FFFF0
:1019D000E7FF07FF07FFE7FF0FFFEFFF08FF081F05
:1019E000070F0007000C081C081C040F03F770FF0A
:1019F0000F7F000F000F0F7F70FF03F7040F081C0D
:101A0000081C000C008080C040E0A0F060F050F89E
:101A1000107810381038103810382070207040E0DE
:101A200080C000800F1F103F103F18FFDCFF0EFF2B
:101A3000CEFF0EFF0EFFCEFF0EFFDCFF18FE103FA5
:101A4000103F0F1F040E040E046E2277113B081F77
:101A5000070F00070007070F081F113B2277046ECE
:101A6000040E040E008080E060F010F828FCB8FC42
:101A700094FE84DE84CE84CE88DC089C10F860F06E
:101A800080E000800007070F081F08FFEFFF0FFF2F
:101A9000E7FF07FF07FFE7FF0FFFEFFF08FF081F44
:101AA000070F0007001C0C1E020F01632071103F7E
:101AB0000F1F000F000F0F1F103F20710163020F57
:101AC0000C1E001C1010008080E0A0F070F8D8FC04
:101AD0008CFEA4FFCDFFFDFFABFF29FF48FD70F892
:101AE00070FCFCFE00FE000000010103030702077A
:101AF00003070207030701070207030703070003A1
:101B000000000001000180E0A0F070F8D8FC8CFE1D
:101B1000A4FFCDFFFDFFADFFABFFD9FF70F960F073
:101B2000F0F8F8FC00FC00010103030702070307BB
:101B3000020703070307050F060F060F000E00003C
:101B400000010103000380F070F8D8FC8CFEA4FFB4
:101B5000CDFFFDFFADFFABFF99FFF0F960F0E0F0C6
:101B6000F0F800F800000001010302070307020774
:101B700003070307050F0E0F0D0F000F00010107EC
:101B8000070F000F000080E0A0F070F8D8FC8CFE7A
:101B9000A4FFCDFFFDFFADFFABFFD9FF70F960F0F3
:101BA000F0F8F8FC00FC000101030307020703073B
:101BB000020703070307050F060F060F000E0000BC
:101BC00000010103000393F36EFEF4FC8AFE42FE63
:101BD00061FF72FF8BFFFBFFB7FF2AFFD5F7BAFA51
:101BE000ACECD2F210F00000E1E192F3ADFFB3FFF4
:101BF0005F7F2F3FEFFF557FB6FFB3FF8DFFFBFFEA
:101C0000373F415F9E9F00383A7E78FCFCFE9CFE89
:101C10004CFE6AFF9AFFFBFFB7FF63F7D0F3B8F8FB
:101C200084C480C001C10000000000C040E161FF29
:101C30003F7F0F3F0F3F357F75FF0AFF191F273F7B
:101C40004F7F010F0001008684CEC4EEA4FE74FE17
:101C5000BCFEDCFFFCFF5AFF56FF30FFE0F060F0F7
:101C6000E0F0F0F800F80000000101030207030FA4
:101C70000A0F090F0B0F0B0F0D0F010F00010000D2
:101C800000010107000708081C3E227F41FF4DFFAD
:101C900049FF227F1C3E001C60FCBCFE92FF65FFDA
:101CA000A1FF52FF0C5E000C1C3E227F4DFF45FF42
:101CB00041FF227F1C3E001C0E1F1F3F3F7F7EFF07
:101CC0003F7F1F3F0E1F000E0C9F8FFFEFFF7FFF18
:101CD0003B7F193F081D0008387C7CFE6EFF75FFB6
:101CE0003A7F143E081C00083010FEFFFF8783C3B4
:101CF000FEFC000000F0FE1F03FFFF800000FEFF5F
:101D0000000000FEFFFF0000003C7EE7C3871E0CC2
:101D1000000086FFFF8787870703FFFF7F0303031A
:101D200001000000FFFF070703FFFFFF00003F7FE8
:101D3000F0E0E0FF7F1F00003078F8E0E1F77F3E41
:101D40000000FFFFFFE1E1E0E0600810E0FC3E0F73
:101D5000070FFFFE3F7FF8F0F0F87F1F00001CFE2A
:101D6000FFFF00000000E0FFFF7F6000001C1E0777
:101D700083C7FF7EF0FCEEE7E3617070000E0F8713
:101D8000C3E7BF1E70F8F8F0E0F17F3FC0F0FC8FB2
:101D900083FFFEC003030303FFFF7F0000FEFEC7B7
:101DA000C7C7C78378F8F0E0E0F17F3FE0F8BCCE2A
:101DB000C7C380003F7FF1E0E0F17F3F0E0F0F07C8
:101DC000C7F37F0F0000F0FE1F030000007CFEE75A
:101DD000C3E77F3E3E7FF3E1E1F37F3EFCFE8F07EA
:101DE000078FFEFC0001C3E3733D1F070808007C5A
:101DF0007CFEFEFFC7FFE3FF7FFF3E7F003E00004B
:101E0000000606CFC6FFFFFFFFFF07FF000700C069
:101E1000C0E6E6FFF7FFFBFFDFFF0EDF000E00006E
:101E2000004242E7E7FFDBFFFFFF7EFF007E00602E
:101E300060F878FE7EFFE7FFFFFF67FF00670000A6
:101E4000005050FFDFFFDFFFFBFF73FF00730070E8
:101E500070F8F8FECEFFCFFF7FFF79FF007900809A
:101E600080C3C3F7F3FF7FFF1F7F071F00070070CA
:101E700070FFFEFFDFFFCBFFFFFF7EFF007E000055
:101E8000009E9EFFDFFFF3FF3FFF1E3F001E54102A
:101E9000E0FC3E0F073F3F1E000000F0FE1F03FF67
:101EA000FF800000FFFFF0C0C0F8FFFF000086FFCA
:101EB000FF87878707030000000000000000E0FCA8
:101EC0003E0F070FFFFE00001FFFFF0080FEFF1FF9
:101ED000000086FFFF87878707030000FEFFFF875C
:101EE00083C3FEFC3F7FF0E0E6E77FFF0000FFFFDB
:101EF000070703FFFFFF0000FFFF010F0F01FFFFB8
:101F00000000FFFFFFE1E1E0E060000000000000F2
:101F100000003F7FF8F0F0F87F1F00000007FFFC93
:101F20007F0F00000000FFFFFFE1E1E0E060000044
:101F3000FFFF7F031FFFF9E0F0F89C8E8783878EF9
:101F40009CF8F00000FEFF0303030303070EFCF8F8
:101F50000000FEFF0303030303070EFCF80000FF6D
:101F6000FF00000000000000FFFF0000FEFF838371
:101F7000838383C7EE7C380000F8FC0E070303035D
:101F8000070EFCF800003F7FE0C08080C0E07F3F8C
:101F9000FFFF01010101010101FFFF0000FFFF0C34
:101FA0000C0C0C1C3E77E3C100007FFFC0C0C0C01A
:101FB000C0E0703F1F00001F3F70E0C0C0C0E07075
:101FC0003F1F00007FFFC1C1C1C1C1E3773E1C00BC
:101FD000001F3F70E0C0C0C0E0703F1F0000000065
:101FE0000001FFFF01000000D5F08D14A1C881CFD2
:101FF000D9F1AF2000B117BF15AD15A9154E1807BF
:1020000017AF193D1A37185823080B0002020201B6
:10201000000904000001020200000524001001056F
:10202000240101010424020605240600010705819C
:102030000310004009040100020A00000007050225
:102040000240000007058302400000040309041257
:10205000010002EF0201404123368000010102032A
:102060000141726475696E6F204C4C43004172648B
:1020700075626F790000442711241FBECFEFDAE0AC
:10208000DEBFCDBF11E0A0E0B1E0E2E7F6E502C0BF
:1020900005900D92A635B107D9F728E0A6E5B1E085
:1020A00001C01D92A430B207E1F710E1CCE3D0E10A
:1020B00004C02197FE010E94312BCB33D107C9F711
:1020C0000E9476270C94372B0C94000080916603B5
:1020D00008959091FF07982329F49091FE07982383
:1020E00081E009F480E008956F927F928F929F9231
:1020F000AF92BF92CF92DF92EF92FF920F931F9316
:10210000CF93DF937C01B0E0A0E0FA01802F90E054
:10211000C590B590211511F49115B1F047E04B0D24
:10212000479546954695833009F4440F4C9DA00190
:10213000249FE00DF11D259FF00D109629F0949F2E
:10214000A00DB11D959FB00D11248F3F21F4109665
:1021500082E009F081E0CC2DD0E0A7014C0F5D1F9B
:10216000141615060CF06FC090E8E916F1040CF097
:102170006AC09B012B0D311D121613060CF063C0B3
:10218000603471050CF05FC0309709F45CC0362FE5
:1021900037708B0177FF02C0095F1F4F93E01595E1
:1021A00007959A95E1F7202F77FF04C0332311F0AC
:1021B0002FEF200F002711270E191F09F7FC02C06F
:1021C00010E000E090E89E19403851050CF49C2D79
:1021D000901B422F022E000C550BA42EA0942F3FD3
:1021E0000CF0A12CDD24D3946B2D677009F4D12C55
:1021F000B694B694B694DB0C4D0D511D4930510583
:102200001CF048E0D42ED21ADA182A0D40E8240334
:10221000B00111246E0D7F1D600F711FCA9C000D4F
:10222000111D1124AF01400F511FE32E032E000C8E
:10223000FF08833009F410C1A8F4813009F4C3C049
:10224000823009F471C0DF91CF911F910F91FF90FF
:10225000EF90DF90CF90BF90AF909F908F907F9046
:102260006F9008958A3F91F1BD2CB20E8B3F59F7C4
:102270002B1549F3DB01A756BC4F10E000E009170E
:1022800008F09BC0FA01E00FF11FE491F0E00E2C82
:1022900002C0EE0FFF1F0A94E2F727FD05C08C91E4
:1022A000DE2ED0948D218C93332361F0273054F4AB
:1022B0006D0180E8C80ED11CAF2EA094F60180817C
:1022C0008A2180830F5F1F4F1196D9CFBD2CB20E8C
:1022D0002B1509F4B8CFDB01A756BC4F10E000E086
:1022E000091708F064C0FA01E00FF11FE491F0E073
:1022F0004F010E2C02C0880C991C0A94E2F727FDAE
:1023000003C08C9188298C93332351F0273044F4F7
:102310006D0180E8C80ED11CF60180818929808377
:102320000F5F1F4F1196DCCFAFEFB0E0032E02C05E
:10233000AA0FBB1F0A94E2F7A095B0959B2E8D2C97
:10234000820E281509F47FCF8B0107561C4FD12C24
:10235000C12CC91630F5FA01EC0DFD1DE491F0E039
:102360003F010E2C02C0660C771C0A94E2F727FD91
:1023700005C0F80180818A2386298083332359F0A0
:1023800027304CF45801F0E8AF0EB11CF501808104
:10239000892187298083FFEFCF1ADF0A0F5F1F4F44
:1023A000D8CF2F5F4C0F5D1F60587F4FCACF2F5F74
:1023B0004C0F5D1F60587F4F8BCF2F5F4C0F5D1F01
:1023C00060587F4F55CFA00FB11F8D2D820F28175A
:1023D00009F439CF8B0107561C4FD12CC12CC916DB
:1023E00098F5FD01EC0DFD1DA490B12C0E2C02C042
:1023F000AA0CBB1C0A94E2F7A094B094FA01EC0D6D
:10240000FD1D8490912C0E2C02C0880C991C0A94FE
:10241000E2F727FD08C0F8017080E72DEA217E2E43
:102420007828F8017082332349F027303CF4F80112
:10243000E058FF4FA080BA20B928B082FFEFCF1A32
:10244000DF0A0F5F1F4FCBCF2F5F4C0F5D1FAC0F0D
:10245000BD1F60587F4FBBCFE92EF12CFA01E00F72
:10246000F11FDB01A756BC4F00E810E00E191F0951
:10247000CE19DF09BE01660F771F41E050E07A01F7
:10248000032E01C0EE0C0A94EAF7592F4D2D892E28
:10249000932ECF93DF93ED01EF96EF962296A590C2
:1024A000C590992059F0AE9C5001CE9C6001273018
:1024B0002CF4F880D094FD20FB28F99222233AF0E6
:1024C000FC90C094FC20FA28FD920C94681211969E
:1024D0005A9529F74A9551F0582D23951124E60F66
:1024E000F11DA00FB11DC00FD11DD9CFDF91CF912C
:1024F0001124A9CEE9E9F3E0A0E0B8E000800EBC29
:102500008111012C1197A0FDFDCF0192B9F70DB4F7
:102510000895FC0180919803882311F13FB7F89446
:1025200082E08093E9002091F200822F90E018165B
:10253000190614F481E090E0882339F0289844E6E5
:10254000409397034091F1004083222339F020917A
:10255000F200211103C02BE62093E8003FBF08954D
:102560008FEF9FEF08952FB7F89483E08093E900F1
:102570009091E800892F807295FF04C09091F2003D
:1025800080E4891B2FBF089580918F0381110DC0B6
:1025900082E080938B0384E080938C0310928E03FF
:1025A00010928D0381E080938F038BE893E0089570
:1025B000CF93DF931F92CDB7DEB76983DC01ED9136
:1025C000FC910280F381E02D41E050E0BE016F5F9D
:1025D0007F4F09950F90DF91CF91089583E080930D
:1025E000E9008091F200882319F08AE38093E800E3
:1025F00008950E94B31290E00895CF93DF931F9245
:10260000CDB7DEB7FC018485958597FD08C02FEF17
:102610003FEF358724870F90DF91CF910895CE014A
:1026200001960E948912019719F4898190E0F3CFF5
:102630008FEF9FEFF0CF0F931F93CF93DF931F92F6
:10264000CDB7DEB78C01FC018485958597FF0BC063
:10265000CE0101960E948912019771F4898190E060
:10266000F80195878487F801848595850F90DF911F
:10267000CF911F910F9108958FEF9FEFF1CFFC0144
:102680008485958597FD0BC09FB7F89482E0809371
:10269000E9008091F2009FBF90E0019608959FB7F6
:1026A000F89482E08093E9008091F2009FBF90E06F
:1026B00008954091850350918603209183033091C2
:1026C000840342175307B4F49091E8009570E1F346
:1026D0009091E80092FD19C08093F10080918503EC
:1026E0009091860301968F739927892B19F48EEFA9
:1026F0008093E800809185039091860301969093E2
:1027000086038093850381E0089580E00895DF9239
:10271000EF92FF920F931F93CF93DF93D82E8A01EE
:10272000EB017B01E40EF51ECE15DF0559F0D7FE57
:1027300012C0FE0184910E94591321968111F4CF99
:102740000FEF1FEFC801DF91CF911F910F91FF9005
:10275000EF90DF9008958881EECF0F931F93CF9372
:10276000DF931F92CDB7DEB782E0898342E450E069
:1027700069E070E280E80E9487130E94C412DC01C5
:1027800012960D911C910115110589F0D801ED915A
:10279000FC910280F381E02DBE016F5F7F4FC80185
:1027A000099597FD04C0F80100851185ECCF89815A
:1027B0000F90DF91CF911F910F910895615030F0EC
:1027C0002091F100FC0120830196F8CF289884E63F
:1027D0008093970308950895FC010E948314319714
:1027E00028F068517C4F8F4F9F4FF9CFAB01FC0110
:1027F0000E948314641775078E079F07C8F3089516
:102800008F929F92AF92BF92CF92DF92EF92FF9200
:102810000F931F93CF93DF936C017B018A0180910B
:102820002901882309F45AC080919803882309F468
:1028300055C080918A0380FF05C08091E0008260CE
:102840008093E000E801B12C8AEFA82E93E0892E56
:102850002AE3922E209711F4BB20C9F10E94B312F3
:10286000811108C0AA94AA20C9F181E090E00E94D9
:10287000EC13F0CF8C171D0611F00CF08C2F9FB7C6
:10288000F8948092E9002091E80025FD02C09FBFE6
:10289000E1CF282F30E0C21BD30BF701815020F08D
:1028A00041914093F100FACFE20EF31EBB2021F0DC
:1028B0009092E800B12CEBCF8091E80085FDE7CF46
:1028C0009092E800BB24B394209709F3F3CF5D986E
:1028D00084E680938903101611063CF081E090E0B5
:1028E000F6019383828310E000E0C801DF91CF916D
:1028F0001F910F91FF90EF90DF90CF90BF90AF901E
:102900009F908F900895A9E7B3E02FB7F8947D9139
:102910008D919C9166B52FBFA89B05C06F3F18F4A1
:102920007F5F8F4F9F4F22E0660F771F881F991F91
:102930002A95D1F70895AB01FC010E948314415000
:102940005109E109F10928F068517C4F8F4F9F4FE1
:10295000F6CFAB01FC010E948314641775078E0744
:102960009F07C8F3089520916E03E0916C03F091E6
:102970006D03CF01029690936D0380936C03222325
:1029800019F0859194910895808191810895CF9255
:10299000DF92EF92FF92CF93DF930E94B3148115E1
:1029A00020E8920791F4809171008D7F80937100EF
:1029B000109291004698479810926B03DF91CF9147
:1029C000FF90EF90DF90CF90089521E020936B036C
:1029D000813020E8920751F48091690390916A0355
:1029E00090936D0380936C030E94B31497FD05C010
:1029F00020916803222309F454C020916703211118
:102A000050C021E020936F03EC01DF77209709F09D
:102A10004BC081E08093700346983FE9C32E3FE0AE
:102A2000D32EE12CF12CCAEFD0E0E091F707F09122
:102A3000F8070995811103C081E0809370038091AC
:102A40006F03882329F080917003882309F43FC025
:102A500047980E94B3140097F1F19C01DE010E9497
:102A6000EE2ADC01CB0129E0B595A79597958795CE
:102A70002A95D1F7109290002AE020939100D092ED
:102A80009900C09298008093710390937203A09371
:102A90007303B0937403809171008260809371001E
:102AA0008DCF10926F03B0CF9E0150E040E060E404
:102AB00072E48FE090E00E949A2A69017A0181E035
:102AC000C81AD108E108F10810927003AECF4699F8
:102AD000BFCF479ABECF8FEF9FEFDC01CBCF9C01DA
:102AE000E1E7F0E090819D7F908310926E03E9EE24
:102AF000F7E0F0936D03E0936C03F0936A03E093C7
:102B00006903318320837383628380E090E8958337
:102B100084830C94C7140F9303E00E9474100F91E8
:102B200008950F930AEF0E9474100F9108952D9A43
:102B300008950C94EC130E94A82608951092660341
:102B40003E983F9808953E9A3F9A81E080936603AD
:102B5000089586E080938103089520E042E455E0E3
:102B600070E060E080E290E00E9491158CE00E94AD
:102B70006910882319F081E08093810308950F93F1
:102B80001F93CF9310E000E0C0E02C2F40E459E009
:102B900070E060E0C8010E949115CF5F005E1F4F9A
:102BA000C43099F720E048E854E062E070E089E43E
:102BB00090E00E948B1521E048E854E062E070E06C
:102BC00083E690E00E948B1522E048E854E06EE036
:102BD00070E089E490E00E948B1523E048E854E01F
:102BE0006EE070E083E690E00E948B15C091590181
:102BF000109102012CE0C29FB00111246E5F7F4F43
:102C00002AE1129FC0011124209182034CE052E17D
:102C1000875B9F4F0E948B1580E40E946910811191
:102C200030C080E20E946910882329F0809102015F
:102C300081111092020180E10E946910882329F01D
:102C4000C11103C081E08093590180E80E9469109E
:102C5000882329F0809159018111109259018CE04B
:102C60000E946910882349F080915901880F909142
:102C700002019E5F890F80938103CF911F910F9175
:102C800008951111CECF81E080930201CACFCF9277
:102C9000DF92EF92FF920F931F939AE0499F60019A
:102CA00011240D2C000CEE08FF0800916203109116
:102CB000630320916403309165030C0D1D1D2E1DCF
:102CC0003F1D0093620310936303209364033093CA
:102CD0006503ECEAF1E030E020E09381911118C047
:102CE000220F331F220F331FF901E455FE4F91E0ED
:102CF00093838083618342838091D0018F5F80932F
:102D0000D0011F910F91FF90EF90DF90CF90089529
:102D10002F5F3F4F349629303105F9F6F2CF1F93DC
:102D2000CF93DF938091FC079091FD0787709927DF
:102D3000892B51F480910101909157019F5F9093ED
:102D400057018F5F8093010180915701883010F007
:102D50001092570180910101883010F0109201010A
:102D6000C8E0D0E010915701212F40EA52E068E31B
:102D700070E0CE010E9491152896C837D10591F7D1
:102D8000212F4EED50E068E070E090E080E00E947E
:102D90009115C09101012C2F4EED50E068E070E0DC
:102DA00085E090E00E949115212F4EED50E068E003
:102DB00070E083E790E00E9491152C2F4EED50E0DB
:102DC00068E070E088E790E0DF91CF911F910C946C
:102DD0009115E8E1F2E028E030E09081911110C017
:102DE000F90193E0EE0FFF1F9A95E1F7EE52FE4FC7
:102DF000808361838EEF848381E0868327830895B7
:102E00002F5F3F4F38962332310539F708950F93DE
:102E10001F93CF9310E000E0C0E02C2F40E459E076
:102E200070E060E0C8010E949115CF5F005E1F4F07
:102E3000C43099F720E04CEC58E062E070E088E59F
:102E400090E00E948B1521E04CEC58E06EE070E0C1
:102E50008EE490E00E948B1522E04CEC58E06EE08E
:102E600070E086E690E00E948B158091660326E173
:102E7000829FC0011124209182034CE052E16EE058
:102E800070E0845B9F4F0E948B1580E40E94691064
:102E900081110E94A31580E20E94691081110E9495
:102EA0009E158CE00E946910882381F0C091660312
:102EB00082E090E00E94842AC81729F06C2F82E0FB
:102EC00090E00E948C2A81E080938103CF911F9132
:102ED0000F910895CF92DF92EF92FF926B017C01E8
:102EE000C114D104E104F10441F00E94EB29A701CF
:102EF00096010E949A2A6B017C01C701B601FF90DE
:102F0000EF90DF90CF900895CF93DF93EC0120E90D
:102F10002603B001112468587F4F072E000C880B40
:102F2000990B0E946A17688360E470E080E090E08B
:102F30000E946A177A83698363E070E080E090E022
:102F40000E946A176F5F7F4F8F4F9F4F6B8363E0C5
:102F500070E080E090E00E946A176C83DF91CF916F
:102F60000895CF93DF93C0915801CF5FC09358016C
:102F700020E042EE52E064E070E082E290E00E94E5
:102F80009115C53B80F010925801CAE5D1E060E090
:102F9000CE010E948417259681E0CA3AD807B9F776
:102FA00081E080938103DF91CF910895BF92CF920A
:102FB000DF92EF92FF920F931F93CF93DF93B82E80
:102FC000282F36EF3203E00111242F96D12C03E095
:102FD00010E085E0C82EED2CF12CCE15DF05ECF1CC
:102FE0008091FC079091FD07B8010E94092B892B65
:102FF00071F4CE9CF001CF9CF00D1124E65AFE4FE7
:10300000238181819281821B910992838183CE9C4D
:10301000F001CF9CF00D1124E65AFE4F8181928180
:10302000883F9F4F44F4DC9CC00111246B2D865ACD
:103030009E4F0E948417CE9CF001CF9CF00D11246E
:10304000E65AFE4F61817281808124814CEA50E012
:1030500090E00E948B15D394BECFDF91CF911F914A
:103060000F91FF90EF90DF90CF90BF90089520E0F8
:1030700048EE5CE164E170E088E290E00E94911526
:103080000E948F1680E00E94D61788E00E94691087
:10309000882319F087E080938103089520E042E0BF
:1030A00058E068E070E08EE090E00E94911520E02A
:1030B00045EB57E06EE170E08AE190E00E949115E7
:1030C00020E045E957E066E270E083E390E00E948B
:1030D000911520E044E457E062E370E08EE190E077
:1030E0000E9491150E948F1680E00E94D6178CE0F6
:1030F0000E946910882319F081E08093810308956C
:103100008130C1F030F0823089F1833009F444C05D
:103110000895E2EDF1E0AEE2B1E088E721E08083DE
:103120009D919C5091832683805F3896883FB9F7A4
:1031300088E12FC06BE270E080E090E00E946A17A7
:10314000E2EDF1E0AEE2B1E098E73BEA675021E062
:1031500090838D91839F812D11248695860F818385
:103160002683905F3896983F99F7E2CF6CE270E043
:1031700080E090E00E946A17665FE2EDF1E088E788
:1031800091E0808361839683805F3896883FC9F79A
:1031900088E08093000108956EE170E080E090E0A7
:1031A0000E946A17665FE2EDF1E080E021E0982F6F
:1031B0009370915F990F990F990F9083982F96951F
:1031C0009695990F990F990F960F918326838F5F8C
:1031D0003896883061F7109200010895FC018081D3
:1031E00080588083809100018823F1F09781983086
:1031F000D8F4815080930001E2EDF1E081E0968106
:10320000911180E0389692E0E231F907C1F7882306
:1032100051F0809156010E948018809156018F5F75
:1032200083708093560108951682E6CFCF93DF9383
:10323000813009F03FC02091F402022E000C330BC4
:10324000909104019217130691F18CF1E5EFF2E0F1
:1032500030E020E09385911157C09CE0929FE001FF
:10326000939FD00D1124CB50DD4F91E09B878A872F
:103270009CEF9E831F8290E19C839EE09D8370E083
:103280007B836A83853001F58DEF8E8364E070E087
:1032900080E090E00E946A17DC01CB010297A1094F
:1032A000B1092A813B81820F931F9B838A83DF911F
:1032B000CF910895823051F62091F302022E000C36
:1032C000330B90910301BECF813061F48EEF8F8379
:1032D00084E18D838DEF8E838091F4028F5F8093E4
:1032E000F402E5CF823019F78EEF8E838CE48C8365
:1032F0008AE08D8380E990E0998388838091F3024E
:103300008F5F8093F302D3CF2F5F3F4F3C962930DE
:10331000310509F09FCFCBCFCF93DF93EC010E9413
:10332000EB292CE030E040E050E00E949A2A605700
:103330007F4F798368838A85813049F48091F402D4
:1033400081508093F4021B86DF91CF9108958230E3
:10335000D1F78091F30281508093F302F4CFBF92B2
:10336000CF92DF92EF92FF920F931F93CF93DF9351
:10337000109262031092630310926403109265032B
:103380001092F1021092F2028CE390E090931001FF
:1033900080930F011092D101E2EDF1E030E828E0D6
:1033A0009AE08EEF30831182228393838483158287
:1033B0001682389642E0EA3EF407A1F780E00E94C8
:1033C0008018ECEAF1E010821182128213823496A6
:1033D00081E0E03DF807B9F7109261031092AB016C
:1033E0001092EC021092ED021092EE021092EF0297
:1033F00010920D01C5EFD2E08DEFB82E0EE018E06F
:103400009AE0C92ED12CE12CF12CBE82CE010E9473
:103410008C190C831D830E94EB29A70196010E9441
:103420009A2A688762E370E080E090E00E946A1761
:10343000665F7F4F8F4F9F4F69871B861A862C963A
:1034400043E0C136D40709F7CAE5D1E006E911E047
:1034500061E0CE010E94841725960C171D07C1F765
:1034600087E080938103DF91CF911F910F91FF90AF
:10347000EF90DF90CF90BF9008952F923F924F92A0
:103480005F926F927F928F929F92AF92BF92CF92F4
:10349000DF92EF92FF920F931F93CF93DF93CDB7FD
:1034A000DEB72B970FB6F894DEBF0FBECDBF0E94DC
:1034B0009B1587FF0CC08091190190911A018930EA
:1034C00091052CF0019790931A01809319010E94A5
:1034D0009B1584FF0CC08091190190911A018C33C7
:1034E00091052CF4019690931A018093190188E0BC
:1034F0000E946910882319F088E08093810384E09A
:103500000E9469108111A5C08091610387FFDEC010
:103510008091050190910601181619060CF4B0C1AE
:1035200020916203309163034091640350916503DD
:10353000232F342F452F55272115310541055105DE
:1035400021F421E030E040E050E064EB70E080E006
:1035500090E00E94CC2A20563F4F309306012093E2
:1035600005010E94EB2922E030E040E050E00E949B
:103570009A2A672B682B692B01F580910D01811127
:1035800016C01091AB0181E080930D018EE980930C
:1035900007016EE270E080E090E00E946A176C5FC5
:1035A0007F4F8F4F9F4F6093080110930E018091C2
:1035B000AB018F5F87708093AB0180916203909124
:1035C0006303A0916403B09165038D3D35E09307DB
:1035D000A105B10508F490C020910F0130911001B0
:1035E0002C33310509F07CC026E430E03093100123
:1035F00020930F012EE020930008893B4BE09407B5
:10360000A105B10548F020E530E03093100120938A
:103610000F012CE0209300082AE02093040123E00E
:1036200020930301853F9140A105B10508F472C0C4
:103630000E94EB2923E030E040E050E00E949A2A0B
:1036400089E1689F602D11246C5F85E00E94161946
:1036500061C08091F102882351F09091EB029111A9
:1036600006C081508093F10288E08093EB02809144
:10367000F202882309F448CF90911701911144CFA9
:1036800090E190931101909119019093120195E0AE
:10369000909315011092160191E0909317018150BB
:1036A0008093F2020CEB12E061E070E0C8010E942E
:1036B0006F1561E070E080E090E00E949B140A507A
:1036C0001109003921E0120779F71ECF8091050119
:1036D000909106010197909306018093050118CF00
:1036E000893B5BE09507A105B10508F495CF263429
:1036F000310509F091CF87CF813263E09607A105AC
:10370000B10508F089CF813971E09707A105B105AE
:1037100008F085CF8091620390916303A0916403C8
:10372000B0916503893C9105A105B10580F00E9427
:10373000EB2923E030E040E050E00E949A2A89E142
:10374000689F602D11246C5F82E00E9416198091A1
:10375000620390916303A0916403B0916503893E75
:103760009340A105B10520F060E282E00E941619A5
:103770008091620390916303A0916403B09165030B
:1037800081399140A105B10520F18091AA012091D4
:10379000190130911A01203231050CF0FCC0815022
:1037A0008093AA0160E08091AA018F5F833008F0C6
:1037B000F7C00E94EB2922E030E040E050E00E9498
:1037C0009A2A8FE3689F602D11246C5F81E00E942C
:1037D00016198091620390916303A0916403B091E4
:1037E0006503813D9740A105B10580F00E94EB295A
:1037F00023E030E040E050E00E949A2A89E1689F8F
:10380000602D11246C5F85E00E941619809162037F
:1038100090916303A0916403B0916503883E934047
:10382000A105B10508F0BFC00E94EB2923E030E0FC
:1038300040E050E00E949A2A89E1689F602D11249F
:103840006C5F80E00E94161980916203909163037F
:10385000A0916403B0916503C397A105B10580F001
:103860000E94EB2923E030E040E050E00E949A2AD9
:1038700089E1689F602D11246C5F80E00E94161919
:103880008091FC079091FD0763E070E00E94092B96
:10389000892BE9F480916103ECEEF2E090E0219154
:1038A000222381F02150DF0111972C9321110AC0AE
:1038B000923009F487C0933009F488C0913009F43C
:1038C00083C08F779F5F943051F78093610380911D
:1038D0000D01882309F48FC08091070190910B019D
:1038E000890F80930701833010F410920D0100912D
:1038F000080110E0E82EF12C68E10E94FD2A9231C7
:1039000050F420910E0142E45DE0B801615071096C
:10391000C7010E948B15E0911901F0911A01809165
:103920001B0120911C0140910A01609109016E0D5B
:103930007F2D711D653171050CF45DC090E04496DA
:10394000E816F9060CF057C0400F512F511DE4172F
:10395000F5070CF050C02E0F3F2F311D0217130733
:103960000CF049C010910E0166E970E084E195E029
:103970000E946F15183008F037C0E12FF0E0ED53CA
:10398000F34E0C94312BE81CED1E2A1F331F671FCA
:10399000701F7E1F8B1F8F5F8093AA0161E003CF92
:1039A0001092AA010ECF0E94EB2923E030E040E004
:1039B00050E00E949A2A89E1689F602D11246C5F73
:1039C00085E040CF8F7B7ECF8F7E7CCF8B7F7ACF81
:1039D0008091F1028111FAC189E08093F202809115
:1039E000610381608093610310920D018091070152
:1039F000805880930701A2EDEA2EA1E0FA2E8701FC
:103A0000D12CB4E1AB2EB12CD80116968C91882321
:103A100009F470C08091610382FD04C0B7E0BD1558
:103A200008F04FC08091FC0780FD4BC0F8018081F9
:103A30009501281B31091216130614F0843348F53A
:103A4000D80111969C9111972091190130911A017A
:103A5000921713061CF49F5F11969C93F8019181B5
:103A60009217130619F014F091509183843118F4D1
:103A70008F5FD8018C93F8018081853110F08150DF
:103A80008083D8018C919501281B310912161306E9
:103A900014F08E33B0F4D80111968C9111972091C7
:103AA000190130911A01821713061CF48F5F1196C9
:103AB0008C93F80181818217130619F014F081505C
:103AC0008183D8018C9114969C911497890F8C93C3
:103AD000833028F4C8010E94EE181092D101F80139
:103AE00061816150770B808120E040E354E190E0F8
:103AF0000E948B15D394085F1F4FF3E2DF1284CF2F
:103B00008091D001811110C280911701811142C2B0
:103B10008091FC079091FD0763E070E00E94092B03
:103B2000892B09F468C2A0901901B0901A01009184
:103B30001B01C0901C01EAEE8E2EE2E09E2E10E0EA
:103B40000C5E1F4FCA0CDB2CD11CD7012C9130E02E
:103B500011968C91119713964C91139712966C9124
:103B6000620F732F711D65317105C4F12017310784
:103B7000ACF590E0480F592F511DA416B50674F509
:103B80008C159D055CF568E270E08CE291E00E9486
:103B90006F158091620390916303A0916403B091CB
:103BA00065030196A11DB11D809362039093630389
:103BB000A0936403B0936503C7010E94EE1880913F
:103BC000D1018F5F8093D101883040F041E0609156
:103BD00019018CE10E9447161092D101B8E0EB0E5A
:103BE000F11C8E149F0409F0B0CF8091FC079091D6
:103BF000FD0763E070E00E94092B892B79F4809126
:103C0000EB02882359F069E170E084E893E00E94B8
:103C10006F158091EB0281508093EB028091FC073D
:103C20009091FD0765E070E00E94092B892B39F423
:103C300080911D01882319F0815080931D010E94FD
:103C40009B1587FF2AC362E070E086E090E00E9447
:103C50001D2B8091FC079091FD070E94092B892B59
:103C600029F48091EA028F5F8093EA028091EA0250
:103C7000843010F01092EA0280911D01882311F027
:103C8000837071F06091190170911A016850710987
:103C90002091EA024AE051E18EE090E00E948B150B
:103CA0000091610304FF13C08091ED028D3310F485
:103CB00080FD0DC06091190170911A016C5071095D
:103CC00020E048E750E18AE090E00E948B151091D7
:103CD000EB02112371F06091190170911A016C507F
:103CE00071092091EA0246E55FE08AE090E00E94D7
:103CF00091158091FC079091FD0766E070E00E94AD
:103D0000092B892B29F48091F0028F5F8093F002B8
:103D10008091F002843008F407FD1092F002809147
:103D2000EC02893208F0BFC28770863008F4BBC24B
:103D300060916203709163038091640390916503C5
:103D40002AE0FE0131967F01AF010E94432AF7016C
:103D500001900020E9F73197EE19FF09AE2E06E039
:103D60000E1B10E0802E002E000C9908B7E0DB2E11
:103D7000181519040CF421C3E7E00E028001112488
:103D80000A5A1F4FD12C0A2C000CBB0887E0C82E02
:103D90008D2D90E08A159B050CF01FC38E0D9F1D85
:103DA000DC012C9121330CF416C320532A3008F087
:103DB00012C34CEE5DE170E060E0C801DC9C800D58
:103DC000911D11240E948B15D394E2CF42E06091A3
:103DD000190188E20E94471607CE05EF12E0D801CC
:103DE0001B968C911B97882331F12D913C91119753
:103DF0002738310504F51A968C91813019F5909188
:103E0000F40291509093F402F80162816D5F822F69
:103E10000E94E916D8018C9112966C918A5F0E94DB
:103E2000E916F80162816A5F80818D5F0E94E91660
:103E3000C8010E948C19045F1F4FF3E001361F0771
:103E400071F6D2CD823001F79091F30291509093A8
:103E5000F302DACF809161038460809361038FEF76
:103E60008093EF02C1CD05EF12E084E0F82ED80177
:103E70001B968C911B978823E1F08D919C91119753
:103E800087389105B4F412966C911297685F1A9670
:103E90002C91213021F0223099F041E006C0909120
:103EA000F40291509093F40242E00E944716F80108
:103EB000F286045F1F4FF3E001361F07C1F694CD71
:103EC0009091F30291509093F30244E0EECF8091F1
:103ED00061038061809361038FEF8093ED0284CD55
:103EE0001091610315FF06C045E06091190184E15E
:103EF0000E94471610621093610376CD8091F20202
:103F0000811164CF8091610380648093610388E0B4
:103F10008093F10269CD8091610380688093610391
:103F200089E98093EC0260CD8091FC0780FDECCDA7
:103F30000CEA11E0F0EDAF2EF1E0BF2ED8011396A0
:103F40008C911397882301F11196DC901197DA94E4
:103F50001196DC92119712962C91129721506D2D8B
:103F60000D2C000C770B8C9144EC5EE0082E000CBD
:103F7000990B0E948B15D7FE07C0F8011382809120
:103F8000D00181508093D0010C5F1F4FA016B10665
:103F9000A9F6BACD30911501E0911101E30FE0933C
:103FA00011014091160160911201242F260F2093D8
:103FB0001201213410F0109217018091FC079091AA
:103FC000FD0766E070E00E94092B892B41F413166F
:103FD00034F4315030931501415040931601422F73
:103FE0004150550BBA0120E048E45FE08E2F90E08D
:103FF0000E948B158DCD8091610387FD94CD05EFD7
:1040000012E081E6C82E83E0D82E93E0A92EB12CD1
:104010002AE3822E912C34E1732E5524539446E0EA
:10402000642E5AE0452E6BE1362E7FE0272ED80114
:104030001B968C911B97882309F43EC01A96EC912D
:104040001A97E73050F5F0E0E85DFF4D0C94312B06
:104050002F209220E8201C213F216E20F520F8011E
:104060008085181684F5968120813181290F311DB4
:1040700097FD3A9531832083815080878091EB02B0
:10408000882359F0D8011A966C921A9741E012963B
:104090006C9112978C910E944716D80114968C91BE
:1040A0001497F501E81BF1092D913C912E173F075C
:1040B0001CF4C8010E948C19045F1F4FC016D10662
:1040C00009F0B5CF30CD19968C911997815019F020
:1040D00019968C93D3CF71862086D0CFF801808536
:1040E0001816ACF4968120813181290F311D97FD7E
:1040F0003A9531832083815080878091EB02882319
:1041000061F2D8011A966C921A9742E0C0CF1996C4
:104110008C911997815019F019968C93EECF4186A6
:104120003086EBCFF80190852081318187814281F3
:10413000538119160CF5BA01680F711D87FD7A9528
:10414000CB01738362834681240F311D47FD3A956D
:10415000318320838D3F9F4F0CF45086D8011896F1
:104160008C911897815018161CF418968C9395CF43
:10417000F8011086718691CF2150310911963C9338
:104180002E9319969C911997915019969C9387FD9F
:104190008F5F8595481B510987FD5395F80153831F
:1041A000428325812695B401621B71096417750746
:1041B0000CF41186D80119968C91199718160CF4E5
:1041C0006CCFE9E01896EC93189719961C9265CF7E
:1041D00016962C9116978D919C911197820F911D97
:1041E00027FD9A958D939C9358CFF80122813381B6
:1041F0002150310933832283858190E09195819507
:104200009109281739070CF048CFC8010E948C1972
:104210008091620390916303A0916403B091650360
:104220000196A11DB11D8093620390936303A09337
:104230006403B093650331CF8091610382FF19C09D
:1042400012968D919C9113972091190130911A012A
:10425000821793072CF4019613969C938E931297D2
:10426000F80182819381281739071CF40197938301
:104270008283D8018D919C9111970497B3CFF80157
:1042800082819381019793838283181619060CF417
:1042900004CFC8010E948C1900CF0E949B1584FD99
:1042A000D2CC61E0D1CCF6E05F2E112321F0117069
:1042B000A4E05A2E510E55EFE52E52E0F52E61E6A0
:1042C000C62E63E0D62E7DE0A72EB12CEAE08E2E1E
:1042D000912CD7011A96EC911A97E73008F048C054
:1042E000F0E0E458FE4D12960D911C9113976D90DD
:1042F0007C9011970C94312B83219321C021C821EC
:10430000CF218321D821F701208512160CF421E05A
:104310008091F002289F202D1124B801615071096D
:1043200044EC5AE122C018968C91189720E0181698
:10433000BCF019968C91082E000C990B97FD0196F4
:10434000959587959C01220F331F820F931F23E0C1
:10435000843191052CF4B4010E941D2B21E0260F1D
:10436000B8016450710942E459E1C3010E948B1500
:10437000BCE0EB0EF11CCE14DF0409F0AACFD8CCC0
:10438000B801635071092091F00240E454E1EDCF8F
:10439000B8016150710920E040E354E1E6CFC80163
:1043A000B5010E941D2B282F4CE052E1B801DDCF52
:1043B000B80161507109252DB3CF1D9DC001112495
:1043C00020E04CEE5DE170E060E08A5A9F4F0E9471
:1043D0008B151F5FCDCC20E0ECCC0E948F1681E0C6
:1043E0000E94D6170091610310E007FF0AC020E089
:1043F00046E85CE161E070E081E090E00E948B15AE
:1044000018E000FF1AC0F090F202FF20B1F0812FF7
:1044100090E021E046E85CE161E070E001960E94F6
:104420008B1588E0810F90E02F2D4CEE5DE161E06F
:1044300070E001960E948B15105FB02FB071EB2ECB
:1044400004FF0BC0812F90E022E046E85CE161E0D0
:1044500070E001960E948B15185F05FF0BC0812F3D
:1044600090E023E046E85CE161E070E001960E94A4
:104470008B15185F06FF1AC0F090F102FF20B1F013
:10448000812F90E024E046E85CE161E070E0019675
:104490000E948B1588E0810F90E02F2D4CEE5DE19E
:1044A00061E070E001960E948B15105F02FF0AC068
:1044B000812F90E025E046E85CE161E070E0019644
:1044C0000E948B15E110A6C06090190170901A012E
:1044D00020901B0140901C0105EF12E0B12CA12C93
:1044E000312CE4E12E0E311C460C572C511CD80106
:1044F0001A964C911A97842F8D7F843009F4CDC081
:10450000ED90FC9011971296CD90DC901397159634
:10451000BC91BB87F80184808E0C9F2C911C8091EC
:1045200017018823F1F12091110130E090911201DF
:1045300080911301509114012815390594F5280F25
:10454000311DE216F3066CF5892F90E096012B0FD2
:10455000311D821793072CF5850F911DC816D906BA
:1045600004F568E06C0D423009F46DC0453009F483
:1045700071C0413009F070C08091F4028150809385
:10458000F40243E08E2D0E94471662E370E088EC4F
:1045900090E00E946F15E4E0D8011A96EC93109217
:1045A0001701F5E18F1691040CF477C0E214F304BF
:1045B0000CF073C0C6012B85820F911D6816790619
:1045C0000CF06BC0C414D5040CF067C0809161037B
:1045D00085FF44C062E370E088E191E00E946F15BE
:1045E000809161038F7D809361032CE02A9DC0013F
:1045F0002B9D900D11248B509D4FDC012D913C91F2
:104600001197205231092D933C930E948C1984E21A
:1046100080931D012B960FB6F894DEBF0FBECDBF61
:10462000DF91CF911F910F91FF90EF90DF90CF908E
:10463000BF90AF909F908F907F906F905F904F90C2
:104640003F902F9008958091F30281508093F30260
:1046500045E098CF42E096CF41E094CF80E180934F
:1046600000088CE390E09093100180930F0100E923
:1046700011E06CE271E0C8010E946F156FE070E01C
:1046800080E090E00E949B140A5011090436110545
:1046900081F789E080938103BDCFBFEFAB1ABB0ADE
:1046A000045F1F4FE9E0AE16B10409F020CFB2CF8E
:1046B0008F929F92AF92BF92CF92DF92EF92FF9232
:1046C0000F931F93CF93DF93CDB7DEB72A970FB623
:1046D000F894DEBF0FBECDBF20E04EE85EE168E09B
:1046E00070E08AE190E00E9491150E948F1660911F
:1046F00062037091630380916403909165032AE0E3
:10470000AE014F5F5F4F7A010E94432AF70101908B
:104710000020E9F73197EE19FF09AE2E06E00E1BD7
:1047200010E0802E002E000C99089AE0D92E181562
:1047300019043CF15AE0050280011124005E1F4F6C
:10474000D12C0A2C000CBB088AE0C82E8D2D90E0DD
:104750008A159B052CF58E0D9F1DFC0120812133B0
:10476000ECF020532A30D0F44AE45DE164E270E0DA
:10477000C801DC9C800D911D11240E949115D394D9
:10478000E5CF1D9DC001112420E04AE45DE164E213
:1047900070E080960E9491151F5FC9CF20E0E4CFA2
:1047A0008CE00E946910882319F081E080938103D6
:1047B0002A960FB6F894DEBF0FBECDBFDF91CF9122
:1047C0001F910F91FF90EF90DF90CF90BF90AF902F
:1047D0009F908F9008951F920F920FB60F92112401
:1047E0008F939F938091E1009091E100937F90934C
:1047F000E10083FF0FC01092E90091E09093EB007D
:104800001092EC0092E39093ED001092980398E0E0
:104810009093F00082FF22C093E09093E900909182
:10482000F200992319F09AE39093E800909189039C
:10483000992341F0909189039150909389039111AC
:1048400001C05D9A90919703992341F0909197034D
:10485000915090939703911101C0289A84FF18C03A
:104860008091E2008E7E81608093E2008091E10081
:104870008F7E8093E10080918A038E7E8061809399
:104880008A039F918F910F900FBE0F901F901895E4
:1048900080FFF7CF8091E2008E7E80618093E200FE
:1048A0008091E1008E7E8093E10080918A038E7E6C
:1048B0008160E5CF1F920F920FB60F921124CF9215
:1048C000DF92EF92FF920F931F932F933F934F939B
:1048D0005F936F937F938F939F93AF93BF93EF9368
:1048E000FF93CF93DF93CDB7DEB76C97DEBFCDBF1D
:1048F0001092E9008091E80083FF25C068E0CE01B6
:1049000045960E94DE1382EF8093E8008D8987FF31
:1049100039C09091E80090FFFCCF982F907609F075
:1049200034C19E894F89588D2F89F88C911131C0DF
:10493000803861F5809188038093F1001092F10036
:104940008EEF8093E8006C960FB6F894DEBF0FBE32
:10495000CDBFDF91CF91FF91EF91BF91AF919F912B
:104960008F917F916F915F914F913F912F911F9107
:104970000F91FF90EF90DF90CF900F900FBE0F90B0
:104980001F9018959EEF9093E800C7CF1092F1000A
:10499000D5CF913059F48111D3CF4130510581F6F3
:1049A000809188038D7F80938803CACF933049F428
:1049B0008111C6CF4130510519F68091880382607C
:1049C000F2CF953041F48091E80080FFFCCF206861
:1049D0002093E300B5CF963009F0A9C00B8D1C8D54
:1049E00022E01092E9001092860310928503F212E1
:1049F0002EC010928403109283030E94AD131F8275
:104A000099E09983FA8291E09E8390EA98879AEFE1
:104A100099872091850330918603275F3F4F3C8320
:104A20002B838D831092E9001092860310928503E8
:104A3000109384030093830349E050E0BE016F5F4D
:104A40007F4F80E00E9487130E94AD1379CF1093AF
:104A50008403009383030E94C412DC0112960D911B
:104A60001C910115110509F410C1D801ED91FC91BB
:104A70000480F581E02DBE016B5E7F4FC801099572
:104A8000009709F0FDC0F80100851185EACFF3E039
:104A9000FF120EC08F89882309F440C0823061F470
:104AA00040E867E08DE690E20E941127811148CF2F
:104AB00081E28093EB0047CF813029F440E86BE03E
:104AC00081E690E2F1CF833099F70E94C412DC01B5
:104AD0001296ED90FC908E010F5F1F4F6801E1145C
:104AE000F10479F0D701ED91FC910680F781E02D7A
:104AF000B801C7010995080F111DF701E084F18481
:104B0000EECFD8011C92F60101900020E9F7319711
:104B1000BF016C197D0940E0C601C6CF6BE470E2AD
:104B2000FB01449150E080E80E94871309CF973041
:104B300009F4BECF983021F481E08093F10000CFDA
:104B4000993009F0FDCE837009F0B2CFE7E3F1E0D0
:104B500081E031E096E32191222371F08093E90016
:104B60003093EB00DF0111972C912093EC00909390
:104B7000ED008F5F873079F78EE78093EA0010921F
:104B8000EA008F8980939803DBCE8B8D9C8D1092E9
:104B9000E90010928603109285039093840380931A
:104BA0008303898D811151C08E899D89913A49F481
:104BB000813209F07DCF47E050E062E271E080E0B1
:104BC000B3CF913209F074CF833269F48F89988D15
:104BD000B0E0A0E080931E0190931F01A0932001FC
:104BE000B0932101ADCE803269F48091E80082FF5C
:104BF000FCCF67E082E291E00E94DE138BEF8093AE
:104C0000E8009ECE823209F09BCE8F8980932901E5
:104C10008091220190912301A0912401B09125015E
:104C2000803B9440A105B10569F48091290180FD84
:104C300009C088E780938703809164008F7D80930B
:104C400064007ECE109287037BCE0E94C412DC01EA
:104C500012960D911C910115110509F429CFD80167
:104C6000ED91FC910190F081E02DBE016B5E7F4FD4
:104C7000C8010995811164CEF80100851185EBCF3B
:104C8000181619060CF45CCE13CFF1E0FF12FFCE1C
:104C90006FE470E245CF0F930FB70F931F9211246B
:104CA0008F939F93EF93FF93EDE7F3E08091780369
:104CB00091E08D5F8D3710F08D5793958093780339
:104CC0008081890F80839181911D91830281011DD3
:104CD00002838381811D838309270F700927029531
:104CE0000093770335D0811100937503803989F4DF
:104CF00000917603901B963070F087E78093000850
:104D00008093010888E198E08093600090936000B0
:104D1000FFCF9093760380918703815018F08093A2
:104D2000870359F3E9E7F3E080819181019680835D
:104D3000918382819381811D911D82839383FF9151
:104D4000EF919F918F911F900F910FBF0F91189529
:104D50008FB18095807F669B88601C9B84600895DE
:104D60001F920F920FB60F9211242F933F934F93E0
:104D70005F936F937F938F939F93AF93BF93EF93C3
:104D8000FF938091710390917203A0917303B0918E
:104D90007403892B8A2B8B2B09F440C080917003FC
:104DA00081110BC088B190E4892788B980916F0385
:104DB000882319F088B1805888B980917103909147
:104DC0007203A0917303B0917403181619061A06A2
:104DD0001B069CF48091710390917203A091730360
:104DE000B09174030197A109B10980937103909365
:104DF0007203A0937303B0937403FF91EF91BF917B
:104E0000AF919F918F917F916F915F914F913F9162
:104E10002F910F900FBE0F901F9018950E94C714EE
:104E2000ECCFEF92FF920F931F93CF93DF93F82E67
:104E3000192FE62E042F81E0860F880F0E94591348
:104E400083E00E945913CF2DD12FEC0EFD2EF11CC3
:104E5000CE15DF05B9F007FF13C0FE0184910E9453
:104E60005913182F80E00E94591381232196811134
:104E7000EFCFDF91CF911F910F91FF90EF900895A9
:104E80008881EDCF81E0F5CFE9E9F7E01382128266
:104E900088EE93E0A0E0B0E084839583A683B78397
:104EA00081E491E0918380838FEF9FEF95878487E2
:104EB000E9EFF7E083E591E0918380831582168224
:104EC00080E1878314821382118686E690E19093B5
:104ED000F8078093F70780E090E89093F6078093B7
:104EE000F50746983E9A47983F9A0895789483E04C
:104EF00084BD83E085BD81E080936E00E1E8F0E051
:104F000083E08083E0E881E08083E1E983E08083DF
:104F1000E0E981E08083E1EC87E08083E3EC81E0FD
:104F20008083E0EC82E08083E2EC81E08083EAE74A
:104F300087E08083806880831092980310928803B2
:104F400010928A038091D70081608093D70080EA15
:104F50008093D80089B5806189BD89B5826089BD9B
:104F600009B400FEFDCF81E090E00E94EC13809137
:104F7000D8008F7C80618093D8008091E000807F92
:104F80008093E0008091E1008E7E8093E1008DE0CF
:104F90008093E200559A209A81EC80937C0081EF07
:104FA00085B987EE84B984E38BB984EF8AB9769AA0
:104FB0006E9880EF81BB10BA80E58CBD81E08DBD1D
:104FC00085E090E00E9499155F9902C05F9AF8CF42
:104FD0005C98E8EEFFE19DE085918EBD00000DB488
:104FE00007FEFDCF8EB59A95B9F75C9A81E880935C
:104FF000640081E0809365000E947A120E949B15F4
:1050000087FF11C05C9885EA8EBD00000DB407FED5
:10501000FDCF8EB55C9A2E982F982D9881E083BF96
:10502000889513BEFCCF0E949B1582FF48C02D9827
:105030000E949B1584788438E1F40E94971588ECCF
:1050400090E00E9499152F9882E090E00E94842AB7
:105050008F3F29F06FEF82E090E00E948C2A84EF6E
:1050600091E00E9499152F9A0E949B1584788438AC
:10507000D9F30E949B1584718431E1F40E94971545
:1050800088EC90E00E9499152E9882E090E00E94B2
:10509000842A882329F060E082E090E00E948C2A34
:1050A00084EF91E00E9499152E9A0E949B158471BD
:1050B0008431D9F388EC90E00E949915B4CF0E9416
:1050C000971582E090E00E94842A882309F477C033
:1050D0000E94A31581E090E00E94842A182F14708A
:1050E00081E090E00E94842A81FF0CC011112E986B
:1050F000C0EFDFEF0E949B1586FF64C02E9A2F9AA7
:105100000E94971582E390E00E9499150E949B15DA
:105110008111F8CF80E180930008809164008E7F38
:105120008093640080917A00806480937A008091FB
:105130007A0086FDFCCFC0917800D09179000E9462
:105140008314AB01BC01CE01B0E0A0E0DC019927E3
:1051500088278C019D01040F151F261F371FC901C9
:10516000B8012091640021602093640061157105ED
:105170008105910511F00E943A2ADD24D39406E0BE
:1051800010E0C12C99E9E92E93E0F92EC0E0D0E0BF
:10519000BB24B39490917D0380910108292F281B93
:1051A000822F20910208222309F47AC080930308F9
:1051B00010920208209771F30E940000EBCF0E942A
:1051C0009E1588CF112329F0C430D10511F42E9AF1
:1051D0002F9881E00E947A120C2F0770A02EAE014A
:1051E00033E0559547953A95E1F7CA019695982F82
:1051F00088279795879587569C4F70E060E04E3FD3
:105200002FEF520769F130E020E0DB01A85CB04EDF
:105210007C01E0E8EE0EF11CFD01E20FF31FE491CA
:10522000F0E04F010A2C02C0880C991C0A94E2F7A6
:105230004F3F540739F06C01C20ED31EF601B488FB
:10524000B828B48AAA2039F06701C20ED31EF6012D
:1052500004890929048B2F5F3F4F28353105E1F67A
:105260004F5F5F4F80589F4F685A7F4F603B71057B
:1052700031F680E00E947A128FE090E00E9499154A
:105280002196C931D10509F035CF112311F02F9A9C
:105290002D9880E991E00E9499150E94971532CFD0
:1052A00020910008821740F48F5F821708F082CFA8
:1052B000D3BE889513BE7ECFB092020890930108AA
:1052C0008091FC079091FD0701969093FD078093D4
:1052D000FC078091FE078093FF070E949B15809337
:1052E000FE078091FC079091FD07B8010E94092BF1
:1052F000892B29F4809182038F5F809382038091B0
:1053000082038D3010F0109282039C2DF7019111D1
:105310009FEF8FEF91939193919391938150D0F759
:10532000E0918103F0E0EE0FFF1FEB50F04E85910E
:105330009491FC01099580E00E947A123BCF8F92F4
:105340009F92AF92BF92CF92DF92EF92FF92CF9354
:10535000DF93EC01688179818A819B8161157105F8
:105360008105910521F464E279ED8BE597E02DE16B
:1053700033EF41E050E00E949A2A49015A019B0113
:10538000AC01A7EAB1E40E94B92A6B017C01ACEE42
:10539000B4EFA50194010E94C72AC60ED71EE81ECD
:1053A000F91EF7FE06C081E0C81AD108E10880E8BE
:1053B000F80AC882D982EA82FB82C701B6019F77C8
:1053C000DF91CF91FF90EF90DF90CF90BF90AF90A3
:1053D0009F908F9008958F929F92AF92BF92CF929D
:1053E000DF92EF92FF9260912A0170912B018091E0
:1053F0002C0190912D01611571058105910521F414
:1054000064E279ED8BE597E02DE133EF41E050E088
:105410000E949A2A49015A019B01AC01A7EAB1E412
:105420000E94B92A6B017C01ACEEB4EFA501940196
:105430000E94C72AC60ED71EE81EF91EF7FE06C038
:1054400081E0C81AD108E10880E8F80AC0922A0170
:10545000D0922B01E0922C01F0922D01C701B601F0
:105460009F77FF90EF90DF90CF90BF90AF909F908D
:105470008F90089560932A0170932B0180932C01E3
:1054800090932D010895BB272A3051F4992342F4BB
:10549000BDE290958095709561957F4F8F4F9F4F9E
:1054A0000C94532ABB27FA01A62F621771058105B8
:1054B0009105330B30FB66F0AA27660F771F881F14
:1054C000991FAA1FA21710F0A21B63953850A9F7C5
:1054D000A05DAA3308F0A95DA19336F7B111B1938D
:1054E0001082CA010C94742ADC01FC01672F7191AF
:1054F0007723E1F7329704C07C916D9370836291BA
:10550000AE17BF07C8F30895F999FECF92BD81BDCC
:10551000F89A992780B50895262FF999FECF1FBADA
:1055200092BD81BD20BD0FB6F894FA9AF99A0FBECC
:1055300001960895052E97FB1EF400940E94B12A4F
:1055400057FD07D00E94CC2A07FC03D04EF40C94E0
:10555000B12A50954095309521953F4F4F4F5F4F61
:10556000089590958095709561957F4F8F4F9F4FCF
:1055700008950E94EE2AA59F900DB49F900DA49FC0
:10558000800D911D11240895B7FF0C94B92A0E9433
:10559000B92A821B930B0895A1E21A2EAA1BBB1BEA
:1055A000FD010DC0AA1FBB1FEE1FFF1FA217B307EF
:1055B000E407F50720F0A21BB30BE40BF50B661F05
:1055C000771F881F991F1A9469F7609570958095C9
:1055D00090959B01AC01BD01CF010895A29FB00140
:1055E000B39FC001A39F700D811D1124911DB29F17
:1055F000700D811D1124911D0895991B79E004C03F
:10560000991F961708F0961B881F7A95C9F7809501
:105610000895AA1BBB1B51E107C0AA1FBB1FA617F9
:10562000B70710F0A61BB70B881F991F5A95A9F74B
:1056300080959095BC01CD01089597FB072E16F437
:10564000009407D077FD09D00E94092B07FC05D0F4
:105650003EF4909581959F4F0895709561957F4F89
:105660000895EE0FFF1F0590F491E02D0994F89432
:10567000FFCF0303010101140080200E0EFF000084
:10568000003C0000000A0A020000002000020400A2
:10569000FFFFFFFF00E1000000000000010000002C
:1056A000172029303630292000C1808100000000F9
:1056B000000000D8120014F912EE123F13FD121B65
:1056C0001300000000EB1300FFFFFFFFFFFFFFFFD1
:1056D000FFFFFFFFFFFFFFFFFFFFFFFFFFFFFFFFDA
:1056E000FFFFFFFFFFFFFFFFFFFFFFFFFFFFFFFFCA
:1056F000FFFFFFFFFFFFFFFFFFFFFFFFFFFFFFFFBA