:100000000C94C7100C94EF100C94EF100C94EF109C
:100010000C94EF100C94EF100C94EF100C94EF1064
:100020000C94EF100C94EF100C940F220C947E2281
:100030000C94EF100C94EF100C94EF100C94EF1044
:100040000C94EF100C94EF100C94EF100C94EF1034
:100050000C94EF100C94EF100C94EF100C946F2490
:100060000C94EF100C94EF100C94EF100C94EF1014
:100070000C94EF100C94EF100C94EF100C94EF1004
:100080000C94D4240C94EF100C94EF100C94EF10FB
:100090000C94EF100C94EF100C94EF100C94EF10E4
:1000A0000C94EF100C94EF100C94EF103C380000FF
:1000B00000000080F8FE0FE3FB1B0B0B8BFBF3F73C
:1000C000F6F6F60606ECECECECECECECECECECEC1E
:1000D000ECECECEEE6F6F6F6F7F3FBFBCBCBFBE352
:1000E0000FFEF8801E332121339E00000080F8FFB0
:1000F0000FE0F8F9F9F9F9F9F9F9F1F3F3F3F3F09D
:10010000F0FFFFFFFFFFFFFFFFFFFFFFFFFFFFFF0E
:10011000FFFFFFFFFFFFFFFFFFFF7F7FFEE00FFFFF
:10012000F880060600000000000F3FF0C607040438
:10013000070707070707070707070707FFFFFFFF6F
:10014000FFFFFFFFFFFFFFFFFFFFFFFF070707079F
:1001500007078787070726860707C6F03F1F008027
:100160008000000000000000030784C4E4E4E4E42D
:10017000E4E4E4E4C49C000FE7E7E7E7E7E7E7E748
:10018000E7E7C7870F1F0FC7E7E0ECE4E4E4E5E526
:10019000E4C4040404070300C040C30311000000CA
:1001A000000000000000FFFFFFFFFF393939FFFFAB
:1001B000FF0FE0E0EFEF0FFFFF183879FFFFF703C5
:1001C000E0E0EFEF0FFFF9F0F0FCFDFDFD0DECE0DE
:1001D000E0E00000012101000000000080C060207C
:1001E00060C080000000000C0C007EFE803C3E1CC5
:1001F0001C1C1C1C0C0C0E0C0C0C0C0E1E1C1C1CB9
:100200001C3C3E80FE7E00000000C0E0E0C000001C
:100210000000030300000E1B3166C680D060311B56
:100220000E00003828380001471E382020202030DA
:100230001010D0D0101090103020202020381E0731
:10024000010000060600000101000000000000009F
:1002500000005A087F417777417F4155555D7F41C6
:100260005F50507F417515111F000000003E0A0AC3
:100270000E003E202020003E12123E000E08380ED6
:1002800000000000003E003E04083E003E0A0A0254
:10029000003E22223E00000000003E222222003EBC
:1002A00022223E003E04083E003E0A0A0200003EB2
:1002B00008083E003E2A2A22003E202020003E0A56
:1002C0000A0E000000007F417515117F415F5050FC
:1002D0007F416D6D417F117747711F000000003E27
:1002E000003E04083E003E0A0A02003E22223E0072
:1002F000000000003E222222003E22223E003E0458
:10030000083E003E0A0A0200003E08083E003E2A5F
:100310002A22003E202020003E0A0A0E0000000093
:10032000003E0A0A0E003E202020003E12123E002F
:100330000E08380E000000007F417F417B77417F2F
:100340004175151D7F415D5D417F000000003E222B
:100350002222003E22223E003E04083E003E0A0ABF
:100360000200003E08083E003E2A2A22003E2020CD
:1003700020003E0A0A0E00000000003E0A0A0E009D
:100380003E202020003E12123E000E08380E0000D3
:100390000000003E003E04083E003E0A0A02003E05
:1003A00022223E000000007F415D55577F415D5D88
:1003B000417F417B77417F4175151D073F3FA9A5CF
:1003C000926ABBFDD4A73EF5A94F7D6ABB954A5200
:1003D0003AE7DCA73EB5DD3AE75895544A2AA9D357
:1003E000A9ED4CE994738E753BA754526DB79FFAF3
:1003F000D4A73EF5A94F6DB752497CF1E9B4DD6E43
:10040000B7DBEDE93421A554D65D6EABA4CA39E75C
:10041000744C5249B9DD49C5A4A4FDD43BA964DBA1
:100420009994547C7C3A6DB7DBED767B3A4D88AF7E
:10043000FEFFFFFFFFFF753AE79CFBFFFFFFD3695D
:10044000ABA473977BBB4D6D576D973ABDBBDC4E2C
:100450002ABBAB9D4F3BA9ACCE6F976ABB6ABBDD95
:100460006EFFFFED76BB7D57BBDA2EF1A5A492FDA2
:10047000FFFFFF29E75C72BBDBEEFE7F2795DD2ED9
:10048000DBD52E9D7E573B2795CC39A7F8DA2E7BFE
:10049000D53B9DDFD5CE6DF74ABA5DEDDEEEB73BBD
:1004A0009DCE6E7797DB6EAFED126DE9FFFFDDE558
:1004B000769FFA77B52BBBFDFFAFEDD66EAD924AB6
:1004C000A77FD55BA9AC734EB55DAAED4C69BB3D6A
:1004D0002595E44BC724956C57BBA4926EBB6C5713
:1004E0003BBBDD6EAFED125FFDFFFFFFE9B4DD9EAC
:1004F0004E6FB7FFFFB59D697B4A2AA93EF5EF6AAB
:10050000E7A492ED6AE7B6ABB64BE59CB34AAAB650
:100510004B9DAEED32E79CFDD49773CE4A25957383
:10052000CE6E77DB55CE39852F429D6EBBDD6EB723
:100530005B9DE623DCD5AE5EF54A2AE95EF5562AD8
:1005400099BBDCE9F4CE3995DD96DDD676ABE3DAFE
:100550009EFAD4FFAAB7CEB9F8FAFF19DDE5DE3965
:10056000A7F02595B4DB55AF7AD5AB5EF5AAB7DB1E
:10057000955492522AA99454522AE9B64B2595ECE7
:1005800055AFA4922A9D77CEA9744CDB553A2D9590
:10059000544A2AEB9C73DBA554D26D274DA77BD51B
:1005A0005303573F30A75C39756A25EDAA7156A7EA
:1005B000B729B9EEAAAFCEC5EC94EB743ABD555548
:1005C0003156B6D45649558A3625D3DBD4B9C8F44A
:1005D000F65529BB1D4D3B55B54DBFDD9EDA2A278B
:1005E0009369575BE76CB6DA266DAEC271155FD5BD
:1005F000399B4B5E358292554529235AA5F86C4CA0
:10060000955413C554578ED239B22657A4EA8F9009
:10061000F7E854A72F5C25EF8EB06DDA46942DBE17
:10062000E457D98A9134EC85A64B2EF331E5945CDE
:1006300056321DDD36A2EC769B55524925E3DD6E20
:10064000278B28A9A4D2C9FC763B96D6D96DB4CA0B
:1006500066B7DBED484A2BA9A4B25B25B7DBD0B463
:10066000DD8EDD25E5EA5CB9194F27EF8A51B9AE79
:100670005C4595AB2293CA459DAF4AD1761DA54DE9
:10068000775D97738A57554747282B9D4AF1F1A507
:10069000D124958B3A5F9562FC3A9B4D55956BA59D
:1006A000EA5C5A395D75A4AB56B7924A71A65229D5
:1006B0001B9173A5942AA62C674EE52A2F552B5D16
:1006C00049E988B24F14539D55DB88B6645F6A1BB5
:1006D00091EAE52AC5E8A29411A5DD6D09952B3EA6
:1006E00019A3DD6E27CA3E514C75566D23DAF229E7
:1006F0002595BA4F7D2B46AA6A5E29EBA2EB955E43
:100700005656C9ED76D6ED76BB54763BD956D9ED23
:1007100076BBCECEBE5D2AA9A4B2DBED6CF9ECB4FB
:100720004965475B769D5D479BDDA6B7DBED3AD615
:100730007552D96D3EB6ED76BB5476ABE8D2D9ECA6
:1007400076BDAA52B9BC2CA25CD9883AC7572E599B
:1007500036A62C553A577C691B8A52753EAA53DB44
:100760004B1165ABBC52652BEF545C2A3CAA8AA89E
:10077000927C3EAA1C57371BAF8C69D52AF5DF51F6
:100780007D8EAF5CB26C4C59C6AAA3727B59595589
:10079000E955AD7CE57457B54EBFABEA96B5543715
:1007A000B35DF552A592E9582BA77ABB95EAD49789
:1007B000DBAA4BA5E2FA2EA5AC923873CA955C3A37
:1007C000556FBF557CB5B29FB2E9955356C669BF08
:1007D000CA5672BB8EA9AA75FA5D55B7ACA5BAC93F
:1007E00072AA9454A76C0A54087F515555457F410D
:1007F0005D5D417F415F5F417F417B77417F415D2F
:100800005D633E007F415D5D417F4175151D7F4108
:1008100075151D07000000002E2A2A3A003E2222EC
:100820003E003E20203E003E04083E003E22221CA8
:100830000000003E22223E003E04083E00002E2A18
:100840002A3A003E22223E003E20203E003E04087E
:100850003E003E22221C0000003E22223E003E0AB4
:100860000A02003E0A0A02000000007F5155554569
:100870007F415D5D417F415F5F417F417B77417F8C
:10088000415D5D633E007F415D5D417F417B77411E
:100890007F7F3F295529A9A4524E59E7F2933B2760
:1008A000D5525965B7CE3939ED4AAA5BDD6AABA49A
:1008B00092524957D96873E5B65B25A5A2CFB9ED29
:1008C000E5B6CA512B69B7DB5DADE45A6E9574E3AA
:1008D0006BBB4E07792959C96DE52A79B94A3A594E
:1008E000D9753A746697CA39259573A5942396EB02
:1008F000FCEAD456C9CAC5152161F6AA88E34F950A
:100900008DA92A4558B9A64B1E7B57B1EF95549433
:10091000BB28552A7E621F9D8C304FBF55B29297DF
:10092000BB9C2AA5CAA952AA9C2AA5CAA952AA9CBC
:10093000734E2AA9EC88D36D4F57F7AEEC4EE9A45D
:10094000B22955D7B52BCDA4D76B4925B79165935F
:10095000A96E55D96CE8D29FEA2BA9A4B259652794
:1009600056A5545FCEAE774E6E678AAF94B2D94F1C
:10097000E9F4F6743A55F4F9B6DB5DB9645A2AE73E
:10098000E2EA53DB65E128A752E9644925972ED7AF
:10099000E964D9309FCF56927FE994DD6E97CA29DA
:1009A000E575BADCD575AEAB3EF5559FFA56F74AFC
:1009B0002A49659D74D2B794CA6E95AA2534E9DC9C
:1009C000E52A7939252FA764ED2A59BB4A762A955D
:1009D0004AA552A9743A9D4E77AE94EADC7E4954FA
:1009E00055555555555555555555555555555555B7
:1009F00055555555555555551551D5AA6A55CA954C
:100A000072D2D9F19A0E7D59259D22CC39E79C737B
:100A1000CE39E79C535249256D9C2BA9EC3A9D4E4B
:100A200067D3E9743A9D4E87A6ED76BBDD2E9554CB
:100A30005249E59C73CE39E79C73CE39E79C73CE5F
:100A40003925957CAB6A55A5AEAAABEAAABAAAAE7F
:100A5000AAABEAAABAAAAEAAABEAAABAAABAAAAB3F
:100A60007295ABAAAB54B72AD925EDE752C94A55BE
:100A7000A5AA5255A9AA5455AA2A5595AA4A55A5D8
:100A8000AA52155157E5AAABB25557D996BE56A5ED
:100A9000B2E9743A9D4DA552A9542A954AA552A986
:100AA00054A752A954EA53A9542A554C76BBF5E5EC
:100AB000D3F6542AB54AA5524C5249259954AF7AD7
:100AC000D52BA94AA952AA94924A5EEE72DBCB5D5D
:100AD000EE72DBCBE92C5755AA2A5595AA4A55A5A3
:100AE000AA5255A9AA5455AA2A5595AA4A55A5AA63
:100AF0005255A9AA5455B252D9AAAEAAEAAAABAA8B
:100B0000AB5257A9CB55FDD59FBAFAEEE465ABBA07
:100B1000B2B58A48A9BC3B6DCFEA93E75252A724ED
:100B200063CB54555555555555A5AA5255A9AA54A8
:100B300055AA2A5595AA4A55A5AA62AACA55E52AD0
:100B40005BD97C44E9B24C3A3A4F4BA4D36922BBFF
:100B5000CD9EB6DB747BBB65B24C96B2AAAAAAAA9C
:100B6000AAAAAAAAAAAAAAAAAAAAAAAAAAAAAAAAE5
:100B7000AAAAAAAAAAAAAAAAAAAAAAAAAA52559D8F
:100B8000ABAAAEAA7C369FAD5CADAA72755555B9BD
:100B9000ABAAAAAAAAAAAAAAAAAAAAAAAAAAAAAAB4
:100BA000AAAAAAAAAAAAAAAAAA4A5655B6AAABAAA1
:100BB000ABBAAABAAAABAAABBA2A57B964AE52EA80
:100BC00056A5D4AD6A77B9DA5DAE9695547DD52B2E
:100BD000592FAB7BD5AB5EA5D3E9743A9D4EA7D315
:100BE000E97474B9AA54E7BE552975B97ABBEAAF5E
:100BF000CA75AA7295ECD4E53E75B96F55CAD5CEC3
:100C0000B94A2A5949252BA9ECA74E7DEA4F6D9D7B
:100C100093CECE964EA7D3A9542A954AA55255C92C
:100C2000AA4A55555555555555555555555555552A
:100C300055555555555555555555B22E5B5557D5A6
:100C40005575555D5557D55575555D55D9AA4A55B4
:100C50005555555555555555555555555555556039
:100C6000B8AAAAAA2A5955C9AAAAAAAAAAAAAAAADD
:100C7000AAAAAAAAAAAAAAAAAAAAAAAAAAAAAAAAD4
:100C8000AA0A080800FF00FF00FF00FF00FF00FFA6
:100C900000FF00FFAAFF00FFAAFF00FF00FF00FF08
:100CA00000FF00FFAAFF00FFAAFF00FFAAFF00FF4E
:100CB00000FF00FFAAFF00FFAAFF00FFAAFF00FF3E
:100CC000AAFF00FF00FF00FF00FF00FFA8FF00FFDA
:100CD000AAFF00FF00FF00FF00FF00FFAAFF00FFC8
:100CE000AAFF00FFA8FF00FF00FF00FFAAFF00FF10
:100CF000AAFF00FFAAFF00FF00FF00FF00FF00FFA8
:100D000000FF00FFAAFF00FFAAFF00FFA8FF00FFEF
:100D1000A0FF00FFAAFF00FFA8FF00FFA8FF00FF41
:100D2000A8FF00FFA0FF00FFA0FF00FF00FF00FFE3
:100D300000FF00FFAAFF00FFAAFF00FFA0FF00FFC7
:100D4000A0FF00FF80FF00FFAAFF00FFA8FF00FF39
:100D5000AAFF00FF00FF00FFAAFF00FF00FF00FF47
:100D600000FF00FFA0FF00FFA8FF00FFAAFF00FF99
:100D7000AAFF00FFA8FF00FFA0FF00FF00FF00FF89
:100D800000FF00FF00000000000000000000000065
:100D9000000E030800000000000007030700000029
:100DA000000E0F00000303030000000D0004080301
:100DB000090A0A0D0003010D0003030300070002E6
:100DC000010503030301010C0B0303020A030303E0
:100DD0000502000202060303030B010303030302DF
:100DE0000B03030303030B020303030303030303C4
:100DF00003030303030303030303030300070007C1
:100E000000000000000809080000000001010101C5
:100E100000040404040000000700070000000000B4
:100E200008080000007E62FFABFF63FFABFF62FFBC
:100E3000007E387E7EFFA3FF6BFF63FFEAFF30FE7C
:100E40001038387E7EFF63FFABFFE3FF6AFF30FEA2
:100E50001038387E7EFFE3FF6BFF23FFEAFF30FE92
:100E60001038103830FEEAFF63FF6BFFA3FF7EFFF0
:100E7000387E1038307E6AFFE3FFABFF63FF7EFFF2
:100E8000387E103830FEEAFF23FF6BFFE3FF7EFF62
:100E9000387E0000007E62FFA3FF63FFA3FF62FFB6
:100EA000007E0000007E42FFEBFF63FFEBFF42FF8E
:100EB000007E0000107E62FFEBFF63FFEBFF62FF2E
:100EC000107E010203020405060510080404000454
:100ED00000000000000000000000000008000814EE
:100EE000000008002200080000140041040204066B
:100EF00000000000000000000000000006060600E0
:100F0000060000000000000000000000081611129A
:100F10000C000000000000000000000004040400B9
:100F200000000000000000000000000004000404B5
:100F3000000000000000000000000000410014005C
:100F4000000800220008000014080008060402043B
:100F5000000000000000000000000000060006067F
:100F60000600000000000000000000000C12111636
:100F7000080000000000000000000000040404005D
:100F80000000000000000000000000001010000041
:100F9000303010100000000000000000E0E0C0C091
:100FA00080800000C0C080800000303060600000A1
:100FB0007878FEFEFFFFCEFEE4FCF2FEFDFFF8FFB8
:100FC000F7FFCFFFF3FFF7FFCFFF7E7E3C3C000033
:100FD000101000008080000000000000F0F0606051
:100FE000C0C08080E0E0C0C08080101020203C3C69
:100FF0007E7EFFFFFFFF66E6F0F0F9F9FEFEDCFC07
:10100000BBFFF7FFF8FFFDFFFBFFE7FF7E7E000061
:1010100000008080C0C00000000000003030606030
:1010200080800000E0E040400000000010101C1C28
:101030003F3F7F7FFFFFB3F37CFCFCFCBFFFCEFE96
:10104000DDFDB8F8FFFFFEFEFDFD72723C3C0000C6
:1010500000008080202000000000000090902020F0
:1010600000000000E0E000000000000000000000C0
:1010700018183E3EFFFF8EFEDCFCBCFCCFFFF3FFEA
:10108000EEFEDCFC9FFFFFFF7E7E38380000000094
:1010900000006060B0B0000000000000C0C00000B0
:1010A00000000000C0C000000000000000000000C0
:1010B0003030FCFC8FFFDEFEECFCF6FEFBFFF9FFA0
:1010C000F6FEEFFF8FFFFFFF7878000000000000C2
:1010D00000003030909000008080C0C0F0F0000030
:1010E0008080E0E0C0C080800000000000000000C0
:1010F0007C7CFFFFCFFFB3FFFBFFFDFFF8FFFBFF93
:10110000FDFFFBFF77FF83FFFFFF60600000000033
:1011100000009090C0C000000000808060E08080EF
:101120008080C0C0808000000000000000007E7E43
:10113000CFFFB7FFF9FFFBFFFDFFFEFFFCFFFDFF49
:10114000FEFFF9FFFBFFB7FFC2FE7F7F3C3C0000C4
:1011500080808080C0C0606000008080C0C00000CF
:101160008080E0E0C0C080800000808000002727F1
:101170007B7BFDFDFEFEFCFCBFFFDFFFEFFFBFFF43
:10118000BEFEFCFCFBFB7C7C393907073F3F8080BF
:10119000C0C040402020D0D000000000808000006F
:1011A0004040F0F0202040408080C0C08080030399
:1011B0003C3CFEFEFFFF3FFFDFFFEEFEC7FFDFFF11
:1011C000DEFEBDFDFEFEFFFF7E7E3B3B070780800F
:1011D000606020201010808000000000C0C080806F
:1011E00000003030C0C080804040E0E0C0C000005F
:1011F00018187E7EFFFF9FFFEEFEF7FFE3FFEFFF75
:10120000E7FFEEFE9FFFFFFF7F7F3C3C03030000F4
:10121000202010100000000000000000808000006E
:10122000000000000000000030306060000000009E
:1012300000007878FCFCCEFEF6FEFBFFF1FFFEFE20
:10124000F6FEEFFFFEFEFCFC7878000000000000D8
:10125000101000000000000000000000000000006E
:10126000000000000000000010102020000000001E
:10127000000030307878E4FCFAFEFCFC7FFFB8F820
:10128000FAFAF4FCFCFC7878303000000000000032
:10129000000000000000000000000000000000004E
:1012A000000000000000000000001010000000001E
:1012B00000007878FCFCFCFCFEFEBEFEC7FFECFCE8
:1012C000DEFEFCFCFCFCF8F8707000000000000082
:1012D000000000000000000000000000808000000E
:1012E00000000000000000000000000000000000FE
:1012F0007A7AFDFDFCFCFEFEFEFE9FFFE3FFF6FE9C
:10130000CEFEEFFFDEFEFCFCFCFC7B7B0E0E000045
:10131000C0C060600000000000008080C0C000000D
:1013200000000000808000000000E0E0C0C000007D
:1013300000007878FEFEFCFC9EFEEFFFF1FFFBFF55
:10134000F6FEEFFFF7FFCFFFFEFE7C7C01010C10E5
:10135000C0C0A0E050F090F050F090F050F010F0CD
:1013600010F010F020E0C0C07F7FEAFFD5FFAAFF99
:10137000D5FF82FF417F333F617FB4FFA4FF7F7FB2
:10138000C0C060E090F050F090F050F010F010F01D
:1013900010F010F020E0C0C07F7FD5FFAAFFD5FF7E
:1013A00082FF417F333F213F343F647FB1FFFFFF26
:1013B000C0C0A0E050F090F050F010F010F010F02D
:1013C00010F010F020E0C0C07F7FEAFFD5FF82FF61
:1013D000417F333F213F343F243F717F83FF7F7F35
:1013E000C0C060E090F050F090F050F010F010F0BD
:1013F00010F010F020E0C0C07F7FD5FFAAFFD5FF1E
:1014000082FF417F333F213F343F647FB1FFFFFFC5
:10141000C0C020E010F010F010F050F090F050F04C
:1014200090F050F0A0E0C0C07F7FA4FFB4FF617FC8
:10143000333F417F82FFD5FFAAFFD5FFEAFF7F7FC1
:10144000C0C020E010F010F010F010F050F090F05C
:1014500050F090F060E0C0C0FFFFB1FF647F343F08
:10146000213F333F417F82FFD5FFAAFFD5FF7F7F1A
:10147000C0C020E010F010F010F010F010F050F0AC
:1014800090F050F0A0E0C0C07F7F83FF717F243FC9
:10149000343F213F333F417F82FFD5FFEAFF7F7F0B
:1014A000C0C020E010F010F010F010F050F090F0FC
:1014B00050F090F060E0C0C0FFFFB1FF647F343FA8
:1014C000213F333F417F82FFD5FFAAFFD5FF7F7FBA
:1014D00008100000008000800080008000800080F4
:1014E00000003E7F43FFC9FF81FFD1FF81FFCBFF9B
:1014F0007EFF00000000000000000000000000006F
:1015000000003C7E46FFD2FF82FFE2FF82FFD6FF53
:101510007CFE008080C080C080C080C080C080C051
:1015200000801F3F217F647F407F687F407F657F11
:101530003F7F80C0C0E040E040E040E040E0C0E0ED
:1015400080C00F1F103F327F207F347F207F327F8B
:101550001F3F00000080008000800080008000802D
:1015600000007EFFCBFF81FFD1FF81FFC9FF43FF5A
:101570003E7F0000000000000000000000000000AE
:1015800000007CFED6FF82FFE2FF82FFD2FF46FF13
:101590003C7E008080C080C080C080C080C080C091
:1015A00000803F7F657F407F687F407F647F217F31
:1015B0001F3F80C0C0E040E040E040E040E0C0E0CD
:1015C00080C01F3F327F207F347F207F327F103FDB
:1015D0000F1F0608383844FCD4FC64FCD4FC3838AF
:1015E000383844FCD4FCE4FC54FC3838383844FC2B
:1015F00014FCE4FC54FC3838383844FCD4FC24FC9B
:1016000054FC38383838D4FC64FCD4FC44FC3838FA
:10161000383854FCE4FCD4FC44FC3838383854FCEA
:10162000E4FC14FC44FC3838383854FC24FCD4FC6A
:1016300044FC3838080877FFFFFF77FF75FF75FF18
:1016400077FFFFFF77FF08080000000000000000A0
:101650000000000000000000FFFFAAFF53FF02FF90
:1016600053FF02FFFFFFFEFF0303F2F313F31EFF1E
:1016700013F312F313F312F313F312F313F312F33E
:1016800013F312F313F312F313F312F313F31EFF16
:1016900013F3F2F30303020303030203030302033E
:1016A000030302030303020303030203FFFF020316
:1016B00003030203030302030303020303030203FE
:1016C00003030203FFFF0203F3F312F31FFF12F3FE
:1016D00013F312F313F312F313F312F313F312F3DE
:1016E0001FFF12F3F3F30203FFFFAAFF00FF00FF47
:1016F00000FF00FFFFFFFFFFFFFFAAFF94FF80FF37
:1017000094FF80FFFFFFFFFF0000FFFF80FF80FFCF
:1017100080FF80FF80FF80FF80FF80FF80FF80FFD1
:1017200080FF80FF80FF80FF80FF80FF80FF80FFC1
:1017300080FFFFFF000000001F1F101F101F101F61
:10174000101F101F101F101F101F101F101F101F21
:10175000101F101F101F101F101F101F101F101F11
:10176000101F101F1F1F00000000000000000000DD
:1017700080808080808080808080C0C0FFFFC0C06B
:101780008080808080808080808080808080808059
:101790008080808080808080808080808080808049
:1017A0008080C0C0FFFFC0C080808080808080803B
:1017B0008080000000000000030302030303FEFF1B
:1017C0000BFFFEFF03030203808080808080FFFF09
:1017D000A0FFFFFF80808080010203040505060052
:1017E00000070505080309010A0C0D0E0014131467
:1017F000141514000F10110A0A0000000005060558
:10180000050705000000000A0B141414141413003B
:10181000001514141414140B010505050505050025
:1018200000050505050505010A0000000014141453
:10183000141414000000000A0A0000000005170537
:10184000051705000000000A0B14141414141800E6
:10185000001814141414140B1008000000007A7CF3
:101860002C1C0C0C0C0C0000000078783A3C1C1C62
:101870002C2C1C0C0C1C1C1C1C0C00E0F07A1C2ECC
:101880001A1A0E0606060606070006CFFF3E2E1E93
:101890000E0E1E7EE68606060702627A1E060A06FF
:1018A0000202FAFEFA02070707070C0C0C1C2C7C3C
:1018B0007A00007A7C2C1C0C0C0C7F3F292BEBD47B
:1018C000ED9C724E49259D7352C99AAE4B39A9E4DD
:1018D00056C9CB39A724AE9C734A92679D73CED963
:1018E000E992CA39255529A5A492CA3AE7A4A29437
:1018F0005BE79CBB945376AB64589257B54EA7D325
:10190000DBED76ABA4924A2AA9A473CE39E79C7387
:10191000524925955476BBDD6ED7E9743A1D7C5744
:101920007DA7224CDB552959C5759F3A22558EDB80
:1019300069C795CBDA58FB88A2D29175A58A304940
:1019400098DE4A25952BE9A473A79C73CA4628E71D
:10195000554A7E4A950C534A2A59D9CAD5B272B50E
:10196000BB5C55EA56AAD4AD547FD5AA77B5EA5DDB
:10197000A7AA729DAC5C74F1A7D7E9ED3A3CA5D358
:101980006925753A1DDC945291B64B6FD39F8AB688
:101990009254319E524A66E74B978BAE5CA73BB997
:1019A0006A95CA5E7366B99D93CA3969D72B6EC2B0
:1019B0007233F5574A2ABBDD0E7F315545545551D8
:1019C0005545559D549753CEA9A2CB55B642957215
:1019D00052D96D259D2B9B929754B2764E5ECEC9FF
:1019E0004A3A1DDED2F96565C35E3A9D4E479FDDDA
:1019F0006ED3E9AC72B55355D55B57CA39B9547635
:101A00009B4E2A59C998D2F96CBA92958C7E9B4EFE
:101A1000A7D3E9743E084BBE934E25EF6FB5A48B58
:101A20004D4BE594735C69656B55A57295AD10B728
:101A3000D4E1CF7907957D2A455455F9B9D6F346B7
:101A400057915555FECA8D30A9AA52524925955431
:101A500052492595545249259574CE39E79C73CE49
:101A600039E79C73CE39E79C73CE39A9F0E8F97653
:101A70004E75CEA9B4BC73F2AE9657A5AA5A9E4E27
:101A8000A7D34CD2B94B2AA9A492CA6EB7DBD0997E
:101A9000B73E3466D3BB4A3A9B8F2E7CC5D556558C
:101AA000E594BA5CAF2E77ABCB497539ABAADAAA0D
:101AB00070B7DE2AA9A492CA39554A49556AAB4A79
:101AC000392795735249E7E456A97297BBDCAD5CA0
:101AD00027635D3AE73A97EA9D934A2AA9A472CE12
:101AE00071D1D9ABDAAE6AB95472A9E4365FB9AA3A
:101AF000EAAABAAAAEAAABEAAACA55B6B221309DE2
:101B00004EA7D3DBED76ABA4E2928A34455455114F
:101B1000C5B58E38BA8AACAA22AA92C1639F4A116F
:101B200055557EAEF5BCD155645595BF72632DBF3A
:101B30002CA5A452A5A452A5A44AF7AADCA5D35962
:101B4000E5D35BE7A4924EC9ED36E6EC5249259DFC
:101B50005355B9AAAEAAAEAAABEAAABAAABA2A57EC
:101B600011259573CE39A7A4924A6EB7E974E84B54
:101B7000DBAB2AA756A57E7529D5AB5276554A57B9
:101B800055A5AB547AF82CAEB6AA2AA7D4E57A7537
:101B9000B95B5D4EAACB5955D556A5D243506925A0
:101BA0009DB3EBF4B65E5572BB0DCDE9743A680A8D
:101BB000122040E098FCFCF41C1C14147CF4FEF58C
:101BC000D808000000F8BFFFFFEF0000000271EB33
:101BD000FFFFFE8E80000219FEFFFFFF00000000E5
:101BE0006FDFFFFFFF00000000287F5F7F1F786826
:101BF000707161F5BF7F2718000000000000101C05
:101C0000FEFEFEEE78E09000000000000000000004
:101C10004020FFFFFFFFEF00180000000000000061
:101C200000000020FFFFFFFBF30C88000000000015
:101C30000000000020833F7F7F7F3F250644000097
:101C4000000000F8F4FCFEFF1E1C1F1BF8F8FEFC51
:101C50009800002000010B0303090580C0E9EAFF9A
:101C6000FFFF3F20000000000080C0F8FDFB7F3F29
:101C70001F3713030100000000789E7D7FFF7D7BEE
:101C800039787878F8B8380000000078F87C7CFE65
:101C90001A302E0B1DFBFCE4F8400000000001038D
:101CA00003E3C0E0E0E4F9FFFFBFBF00000010283D
:101CB00070F0F4F9000303012BF7FFFFFF60000051
:101CC0000018073F3F3F7C1830283C3F3F3F3F0014
:101CD00000000000808000C2FCF0FEFE3C0200001C
:101CE0000000000080008878ECE3FF6F0D0320E027
:101CF000E0E0A0000000E4FCFFFFFFCDE2F0F0A078
:101D0000FEFBFFFFFCC038000001010100010101E2
:101D100001017F7F1F3FDC090000000020F6FEFC70
:101D2000FC1C1C1C1C1CBC2C1C0000000000657F43
:101D3000FFFF7F7060F0F0F0F070B0A000000000D6
:101D40008060E0E0E003030000FF7FFFFEFF020091
:101D50000000053E3F7F3F785858787B7F3F7FBD2E
:101D60001000000080FCFCFAFC1C0E0C161A1E1E53
:101D70001C000000000030DFFFFFFF72797878F868
:101D8000F8F8F0F000000088EEFFFFCDCF00020071
:101D900041BF7FFFFFFB000000030F7F9F3F9FBC01
:101DA0008C58383F7F5F3F2F00000000003E1E3EF2
:101DB0005C3D3C3CFCFCFCFC7C3C0000000000006A
:101DC00000008040B0FF7FFFCF15234000000000DF
:101DD000000050D0FDFDFDFF1F03010000000000CA
:101DE000000027493FFFFF7F3F0700000000000081
:101DF000000000A4FEF2FEFE3C3C3C1C34FCFCD483
:101E0000F4000000000837BFFFDF6440C0F0C0FFEF
:101E1000FFFFBFA09B0000D1ECFEFFFFBF411111EF
:101E2000297FFFBFFF0E000000041B7FBF3FB3727E
:101E3000A1A2F3FF7F7F3F5F20006000B7FDF2FEAD
:101E40007EA61E0A1EFEFEFC58C080002080FDF704
:101E5000CFF935080028B5FCFFE7BF1009070031AE
:101E6000171F2B1D170E16AA7DFFFFFFFF0800008E
:101E70000000387878786C78787B3C7F5F5F2E281C
:101E8000000003081F111F121F101D151711151F29
:101E900007041F17151D1F151D01011F1F151F17F3
:101EA000151F7F1FD8766EABE476E79C5356D54A54
:101EB0002A3BA6526E59DB6D25B79554A5B65787B8
:101EC000A9CEA9DE6E9554A55C85A79CDBA6D7D5C7
:101ED000FDAAA3934A552595544A95729754F272D8
:101EE000A3B1725529A9E44A2AA9A4934A3AF52B29
:101EF000E93A46572B2B955C5AA563CCA594B3CAF7
:101F000039452A95AA4A2AA9942AE52EA9E4E56624
:101F10004AA952CE492595545229E99C7276BB555F
:101F2000B7533ADDC71A15692D9DB33BE75CC7EE81
:101F30005475B15F5272E5B2CEE9F8553E1455F2D0
:101F4000AA9D9B34F66AD292F12E9D935B2515FED5
:101F500056AA3C533ED7CF16D5CED5555CA914BF53
:101F60009276A6A4AB5D5E45DA39E692F12E9D939A
:101F70005B2515B1CE466C77A5EE7B59D15D1F610F
:101F800077AB78BB28F34FBC948AAF762ED9155F18
:101F90006AE7B618924A45974F21483BA7634BA57D
:101FA00072F61A41CC552B1757D53563785D1E57FD
:101FB0004C9572E98B2955672FB22459CC9D3C155D
:101FC0009FABA72D3455AD5C5C55D78CA12AC59528
:101FD000AAEDDAC9EE38CB293B6156C9CB29299D38
:101FE000B2EBECD239A7A472EE439173CA2AA7F4DC
:101FF0005CE9F4E59C73CEB998E274CE39E71C77BE
:102000003E5AE56AA7A4734EC62A955495ACA572AC
:102010004E2A594965C75D6D93B5535249574A9544
:102020005B2A79A9CB39E77097AEA473CE3957C92B
:10203000D025955495ACA5724E2A594965E74CE5D3
:102040009473CE395594B573CE39259D545CF0F810
:102050009C8E8783878E9CF8F00000FEFF030303AD
:102060000303070EFCF80000FEFF0303030303074E
:102070000EFCF80000FFFF00000000000000FFFF62
:102080000000FEFF8383838383C7EE7C380000F863
:10209000FC0E07030303070EFCF800003F7FE0C0BF
:1020A0008080C0E07F3FFFFF01010101010101FFCE
:1020B000FF0000FFFF0C0C0C0C1C3E77E3C100007E
:1020C0007FFFC0C0C0C0C0E0703F1F00001F3F7056
:1020D000E0C0C0C0E0703F1F00007FFFC1C1C1C1B0
:1020E000C1E3773E1C00001F3F70E0C0C0C0E0703D
:1020F0003F1F000000000001FFFF01000000D5F0BD
:102100008D14A1C881CFD9F1AF200093175A17467B
:10211000172E173217341986186D191F17802108CA
:102120000B0002020201000904000001020200008B
:1021300005240010010524010101042402060524E0
:102140000600010705810310004009040100020A8E
:10215000000000070502024000000705830240005E
:10216000000403090412010002EF0201404123367A
:102170008000010102030141726475696E6F204C99
:102180004C430041726475626F7900006825112428
:102190001FBECFEFDAE0DEBFCDBF11E0A0E0B1E0BF
:1021A000EEE4F3E502C005900D92A033B107D9F734
:1021B00026E0A0E3B1E001C01D92AD3BB207E1F71C
:1021C00010E1C7ECD0E104C02197FE010E949F29D5
:1021D000C63CD107C9F70E9429260C94A5290C9466
:1021E00000008091600108956F927F928F929F927C
:1021F000AF92BF92CF92DF92EF92FF920F931F9315
:10220000CF93DF937C01B0E0A0E0FA01802F90E053
:10221000C590B590211511F49115B1F047E04B0D23
:10222000479546954695833009F4440F4C9DA0018F
:10223000249FE00DF11D259FF00D109629F0949F2D
:10224000A00DB11D959FB00D11248F3F21F4109664
:1022500082E009F081E0CC2DD0E0A7014C0F5D1F9A
:10226000141615060CF06FC090E8E916F1040CF096
:102270006AC09B012B0D311D121613060CF063C0B2
:10228000603471050CF05FC0309709F45CC0362FE4
:1022900037708B0177FF02C0095F1F4F93E01595E0
:1022A00007959A95E1F7202F77FF04C0332311F0AB
:1022B0002FEF200F002711270E191F09F7FC02C06E
:1022C00010E000E090E89E19403851050CF49C2D78
:1022D000901B422F022E000C550BA42EA0942F3FD2
:1022E0000CF0A12CDD24D3946B2D677009F4D12C54
:1022F000B694B694B694DB0C4D0D511D4930510582
:102300001CF048E0D42ED21ADA182A0D40E8240333
:10231000B00111246E0D7F1D600F711FCA9C000D4E
:10232000111D1124AF01400F511FE32E032E000C8D
:10233000FF08833009F410C1A8F4813009F4C3C048
:10234000823009F471C0DF91CF911F910F91FF90FE
:10235000EF90DF90CF90BF90AF909F908F907F9045
:102360006F9008958A3F91F1BD2CB20E8B3F59F7C3
:102370002B1549F3DB01AE56BE4F10E000E0091704
:1023800008F09BC0FA01E00FF11FE491F0E00E2C81
:1023900002C0EE0FFF1F0A94E2F727FD05C08C91E3
:1023A000DE2ED0948D218C93332361F0273054F4AA
:1023B0006D0180E8C80ED11CAF2EA094F60180817B
:1023C0008A2180830F5F1F4F1196D9CFBD2CB20E8B
:1023D0002B1509F4B8CFDB01AE56BE4F10E000E07C
:1023E000091708F064C0FA01E00FF11FE491F0E072
:1023F0004F010E2C02C0880C991C0A94E2F727FDAD
:1024000003C08C9188298C93332351F0273044F4F6
:102410006D0180E8C80ED11CF60180818929808376
:102420000F5F1F4F1196DCCFAFEFB0E0032E02C05D
:10243000AA0FBB1F0A94E2F7A095B0959B2E8D2C96
:10244000820E281509F47FCF8B010E561E4FD12C1A
:10245000C12CC91630F5FA01EC0DFD1DE491F0E038
:102460003F010E2C02C0660C771C0A94E2F727FD90
:1024700005C0F80180818A2386298083332359F09F
:1024800027304CF45801F0E8AF0EB11CF501808103
:10249000892187298083FFEFCF1ADF0A0F5F1F4F43
:1024A000D8CF2F5F4C0F5D1F60587F4FCACF2F5F73
:1024B0004C0F5D1F60587F4F8BCF2F5F4C0F5D1F00
:1024C00060587F4F55CFA00FB11F8D2D820F281759
:1024D00009F439CF8B010E561E4FD12CC12CC916D1
:1024E00098F5FD01EC0DFD1DA490B12C0E2C02C041
:1024F000AA0CBB1C0A94E2F7A094B094FA01EC0D6C
:10250000FD1D8490912C0E2C02C0880C991C0A94FD
:10251000E2F727FD08C0F8017080E72DEA217E2E42
:102520007828F8017082332349F027303CF4F80111
:10253000E058FF4FA080BA20B928B082FFEFCF1A31
:10254000DF0A0F5F1F4FCBCF2F5F4C0F5D1FAC0F0C
:10255000BD1F60587F4FBBCFE92EF12CFA01E00F71
:10256000F11FDB01AE56BE4F00E810E00E191F0947
:10257000CE19DF09BE01660F771F41E050E07A01F6
:10258000032E01C0EE0C0A94EAF7592F4D2D892E27
:10259000932ECF93DF93ED01EF96EF962296A590C1
:1025A000C590992059F0AE9C5001CE9C6001273017
:1025B0002CF4F880D094FD20FB28F99222233AF0E5
:1025C000FC90C094FC20FA28FD920C94E81211961D
:1025D0005A9529F74A9551F0582D23951124E60F65
:1025E000F11DA00FB11DC00FD11DD9CFDF91CF912B
:1025F0001124A9CE9091B806982329F49091B7069A
:10260000982381E009F480E00895E2E9F1E0A0E098
:10261000B8E000800EBC8111012C1197A0FDFDCF08
:102620000192B9F70DB40895FC01809191018823BE
:1026300011F13FB7F89482E08093E9002091F20015
:10264000822F90E01816190614F481E090E0882398
:1026500039F0289844E6409390014091F10040837E
:10266000222339F02091F200211103C02BE62093A0
:10267000E8003FBF08958FEF9FEF08952FB7F894BC
:1026800083E08093E9009091E800892F807295FFA4
:1026900004C09091F20080E4891B2FBF08958091BF
:1026A000880181110DC082E08093840184E08093D1
:1026B0008501109287011092860181E08093880144
:1026C00084E891E00895CF93DF931F92CDB7DEB7F2
:1026D0006983DC01ED91FC910280F381E02D41E002
:1026E00050E0BE016F5F7F4F09950F90DF91CF9152
:1026F000089583E08093E9008091F200882319F027
:102700008AE38093E80008950E943E1390E00895C4
:10271000CF93DF931F92CDB7DEB7FC0184859585FB
:1027200097FD08C02FEF3FEF358724870F90DF918B
:10273000CF910895CE0101960E941413019719F4C8
:10274000898190E0F3CF8FEF9FEFF0CF0F931F932E
:10275000CF93DF931F92CDB7DEB78C01FC01848548
:10276000958597FF0BC0CE0101960E941413019727
:1027700071F4898190E0F80195878487F801848558
:1027800095850F90DF91CF911F910F9108958FEF55
:102790009FEFF1CFFC018485958597FD0BC09FB716
:1027A000F89482E08093E9008091F2009FBF90E06E
:1027B000019608959FB7F89482E08093E900809194
:1027C000F2009FBF90E0089540917E0150917F01FB
:1027D00020917C0130917D0142175307B4F4909110
:1027E000E8009570E1F39091E80092FD19C08093A4
:1027F000F10080917E0190917F0101968F7399275E
:10280000892B19F48EEF8093E80080917E019091DE
:102810007F01019690937F0180937E0181E008956E
:1028200080E00895DF92EF92FF920F931F93CF9372
:10283000DF93D82E8A01EB017B01E40EF51ECE1545
:10284000DF0559F0D7FE12C0FE0184910E94E41307
:1028500021968111F4CF0FEF1FEFC801DF91CF91C7
:102860001F910F91FF90EF90DF9008958881EECF38
:102870000F931F93CF93DF931F92CDB7DEB782E004
:10288000898342E450E06FE171E280E80E94121413
:102890000E944F13DC0112960D911C910115110538
:1028A00089F0D801ED91FC910280F381E02DBE0109
:1028B0006F5F7F4FC801099597FD04C0F80100853F
:1028C0001185ECCF89810F90DF91CF911F910F91EE
:1028D0000895615030F02091F100FC0120830196B1
:1028E000F8CF289884E68093900108950895FC011C
:1028F0000E940E15319728F068517C4F8F4F9F4FE3
:10290000F9CFAB01FC010E940E15641775078E0705
:102910009F07C8F308958F929F92AF92BF92CF9274
:10292000DF92EF92FF920F931F93CF93DF936C018F
:102930007B018A0180910C01882309F45AC080919F
:102940009101882309F455C08091830180FF05C05F
:102950008091E00082608093E000E801B12C8AEF72
:10296000A82E93E0892E2AE3922E209711F4BB2003
:10297000C9F10E943E13811108C0AA94AA20C9F18E
:1029800081E090E00E947714F0CF8C171D0611F0C3
:102990000CF08C2F9FB7F8948092E9002091E8000A
:1029A00025FD02C09FBFE1CF282F30E0C21BD30B13
:1029B000F701815020F041914093F100FACFE20EEF
:1029C000F31EBB2021F09092E800B12CEBCF809158
:1029D000E80085FDE7CF9092E800BB24B3942097F0
:1029E00009F3F3CF5D9884E68093820110161106F7
:1029F0003CF081E090E0F6019383828310E000E0F8
:102A0000C801DF91CF911F910F91FF90EF90DF9060
:102A1000CF90BF90AF909F908F900895A3E7B1E0C3
:102A20002FB7F8947D918D919C9166B52FBFA89B8F
:102A300005C06F3F18F47F5F8F4F9F4F22E0660FF6
:102A4000771F881F991F2A95D1F708952091680153
:102A5000E0916601F0916701CF01029690936701C2
:102A600080936601222319F08591949108958081C5
:102A700091810895CF92DF92EF92FF92CF93DF93EF
:102A80000E942615811520E8920791F4809171002B
:102A90008D7F809371001092910046984798109214
:102AA0006501DF91CF91FF90EF90DF90CF90089577
:102AB00021E020936501813020E8920751F4809154
:102AC00063019091640190936701809366010E9475
:102AD000261597FD05C020916201222309F454C0F8
:102AE00020916101211150C021E020936901EC0186
:102AF000DF77209709F04BC081E080936A01469808
:102B00003FE9C32E3FE0D32EE12CF12CCAEFD0E0F9
:102B1000E091F005F091F1050995811103C081E084
:102B200080936A0180916901882329F080916A016C
:102B3000882309F43FC047980E9426150097F1F1B9
:102B40009C01DE010E947C29DC01CB0129E0B595C6
:102B5000A795979587952A95D1F7109290002AE02E
:102B600020939100D0929900C092980080936B01BD
:102B700090936C01A0936D01B0936E0180917100F0
:102B80008260809371008DCF10926901B0CF9E0159
:102B900050E040E060E472E48FE090E00E94282979
:102BA00069017A0181E0C81AD108E108F1081092A0
:102BB0006A01AECF4699BFCF479ABECF8FEF9FEF46
:102BC000DC01CBCF9C01E1E7F0E090819D7F908319
:102BD00010926801E2EEF5E0F0936701E093660180
:102BE000F0936401E09363013183208373836283F4
:102BF00080E090E8958384830C943A150F9303E06A
:102C00000E94F4100F9108950F930AEF0E94F410A0
:102C10000F9108952D9A08950C9477140E94CC2456
:102C20000895109260013E983F9808953E9A3F9A09
:102C300081E08093600108950F931F93CF93DF93FA
:102C4000DC0130E020E0D0E0C0E071E001E010E025
:102C5000261798F514968C911497811116C0149626
:102C60007C93149712964D915C911397ED91FC9182
:102C70001197E40FF51FE4911596EC9315974F5FAC
:102C80005F4F13965C934E93129714969C911497F2
:102C900015968C911597892349F0A801022E02C040
:102CA000440F551F0A94E2F7C42BD52B990F1496A5
:102CB0009C9314972F5F3F4FCBCFCE01DF91CF91E5
:102CC0001F910F9108952F923F924F925F926F92B2
:102CD0007F928F929F92AF92BF92CF92DF92EF92AC
:102CE000FF920F931F93CF93DF9300D000D000D0BB
:102CF000CDB7DEB75C017A8369831C821B821D829B
:102D00001E8268E0CE0101960E941C1601963C01CD
:102D100068E0CE0101960E941C168C0161E0CE0194
:102D200001960E941C1693012A0D3B1D37FD6EC0B3
:102D300098012F5F3F4F37FD69C06901E3E0D594EB
:102D4000C794EA95E1F727703327232B19F09FEFFB
:102D5000C91AD90A382E44244394512C10E000E0BB
:102D6000F12CE12C22242394EC14FD040CF04EC031
:102D700088248394912C61E0CE0101960E941C1658
:102D8000892B21F482E0880E911CF5CF682DCE01AD
:102D900001960E941C16019630E020E028173907A2
:102DA00098F531105428A42DAA0F59F5A7014F5FAB
:102DB0005F4F49305105A8F4B501600F711F6038AD
:102DC000710578F4F701F695FE2FEE27F795E79554
:102DD000EA0DFB1DE00FF11FEE56FE4F6081562AF3
:102DE00050820F5F1F4F44244394061517052CF0A3
:102DF0007A014424439410E000E02F5F3F4F5A2EA5
:102E0000CDCF4A2EA52DF9CF3224AECF26960FB6C0
:102E1000F894DEBF0FBECDBFDF91CF911F910F9110
:102E2000FF90EF90DF90CF90BF90AF909F908F90EA
:102E30007F906F905F904F903F902F9008956AEB36
:102E400078E190E080E00E94631680E80E94FA1228
:102E5000882319F087E080937B01089586E08093B2
:102E60007B01089562EA75E084E190E00E946316B8
:102E700088E00E94FA12811105C084E00E94FA12D3
:102E8000882319F081E080937B0108956CEB73E057
:102E900080E290E00E94631688E00E94FA1281119D
:102EA00005C084E00E94FA12882319F081E0809323
:102EB0007B010895CF9361E978E090E080E00E9483
:102EC0006316C09100012EEF2C0F42E552E068E33B
:102ED00070E084E190E00E94041680E40E94FA12FF
:102EE000882329F0C53018F4CF5FC093000180E239
:102EF0000E94FA12882339F080910001833018F083
:102F000081508093000188E00E94FA12811105C06F
:102F100084E00E94FA12882321F0809100018093BE
:102F20007B01CF910895CF93C0913001CF5FC093C3
:102F3000300120E04CEA50E064E070E082E290E092
:102F40000E940416C53B28F01092300181E0809366
:102F50007B01CF910895CF92DF92EF92FF920F9372
:102F60001F93CF93DF932091550130E030933401CC
:102F7000209333018091560190E0DC011197B093CA
:102F80003601A093350148E0409337014093380162
:102F9000EBE3F1E0C3E5D1E08901085F1F4F07963D
:102FA000C080D180E280F38064814581C016D10663
:102FB0007CF46C0D7D2D711D261737074CF4E81637
:102FC000F90634F44E0D5F2D511DA417B50774F0AA
:102FD0003696CE17DF0721F780E0DF91CF911F9162
:102FE0000F91FF90EF90DF90CF90089581E0F5CFA3
:102FF000CF92DF92EF92FF92CF93DF93C091520670
:1030000036E0C32ED12CE12CF12C80915206C8134E
:1030100009C00E948528A70196010E942829609373
:103020005206F3CFC0915306D091540628E0C22E29
:10303000D12CE12CF12C80915306C8131CC0809137
:103040005406D81318C00E948528A70196010E9433
:10305000282970E0FB01EE0FFF1FEE5AF94F838124
:1030600080935306660F771FFB01EA5AF94F808160
:1030700080935406E0CFDF91CF91FF90EF90DF90E7
:10308000CF900895CF93DF93EC010E9485282CE325
:1030900030E040E050E00E942829645C7F4F8F4F71
:1030A0009F4F69878881813051F050F1823079F4E7
:1030B00082E090E098878F8386E08C8307C083E06E
:1030C00090E098878F8388E08C8389E08D831B86CE
:1030D0001A8683E0898380E48A831B820E94852884
:1030E00022E030E040E050E00E94282921E0672BF8
:1030F000682B692B09F420E02E83DF91CF9108958E
:1031000085E090E098878F838CE0D7CF0F931F9353
:10311000CF93DF9310925F0110925E0110925D01D8
:1031200010925C0188E592E090936C0680936B06A8
:1031300081E080936F069EE190936D0610926E067B
:1031400093E090937006109271061092720624E03C
:103150002093740622E020937506909376061092D1
:103160007706109278061092790610927A0680936C
:103170007B06EBE6F6E094E082E0D3E0C1E0938BDF
:10318000848BD68B178AC08F118E399626E0E13A50
:10319000F207A9F70E94F817C0935701D09358017E
:1031A00088E18093550186E2809356011092F205E2
:1031B000C093FE05C0930A06C2EFD5E002E516E013
:1031C000CE010E94421810925B012C960C171D072D
:1031D000B9F710923C0110923B012FE130E030939F
:1031E0003E0120933D0197E390933F0182E080935D
:1031F000400148E450E05093420140934101309334
:10320000440120934301909345018093460128E2B5
:1032100030E030934801209347014FE050E0509355
:103220004A01409349019FE290934B0180934C01E6
:1032300030934E0120934D012FE230E03093500146
:1032400020934F01909351018093520110925401A9
:10325000109253011092310187E080937B01DF913E
:10326000CF911F910F910895CF9361E978E090E09D
:1032700080E00E9463162091600147EE57E068E30A
:1032800070E086E190E00E94041680E40E94FA1249
:1032900081110E94161680E20E94FA1281110E948A
:1032A000111688E00E94FA12811105C084E00E9484
:1032B000FA12882381F0C091600182E090E00E94C0
:1032C0001229C81729F06C2F82E090E00E941A2979
:1032D00081E080937B01CF9108952F923F924F928E
:1032E0005F926F927F928F929F92AF92BF92CF9296
:1032F000DF92EF92FF920F931F93CF93DF93CDB79F
:10330000DEB72A970FB6F894DEBF0FBECDBF80E8B8
:103310000E94FA12882319F088E080937B010E94B2
:103320000E1686FF2EC01092590110923101109294
:1033300053018091B5069091B60666E070E00E9458
:103340008B29892B39F4809154018F5F8430B0F43C
:103350008093540110E080915701082E000C990BC6
:103360001817190674F40E94AB17811105C08091DB
:1033700055018F5F809355011F5FEDCF109254016F
:10338000E9CF0E940E1685FF2FC081E0809359017E
:1033900010923101109253018091B5069091B606BA
:1033A00066E070E00E948B29892B39F480915401EA
:1033B0008F5F8430B0F48093540110E08091570106
:1033C000082E000C990B1817190674F40E94AB17FD
:1033D000811105C0809155018150809355011F5F77
:1033E000EDCF10925401E9CF0E940E1680FD29C046
:1033F0002091B5063091B606C9016CE370E00E94D9
:103400008B29892B29F4809131018F5F80933101C1
:10341000809131018630A8F082E08093590186E0E6
:1034200080933101C9016FE070E00E948B29892BE4
:1034300041F4809153018F5F843208F00FC1809373
:1034400053010E940E1683FF12C0109231010E9498
:103450000E1683FF06C180915C0190915D01039778
:1034600009F0FFC000917206002309F40BC184E04B
:103470000E94FA128823C9F0809132018823A9F0B2
:1034800080915601853018F081508093560187E075
:1034900090E090933A01809339011092320164E6F2
:1034A00070E08CE390E00E94E215809139019091E8
:1034B0003A0101978E3F7FEF97070CF440C290933B
:1034C0003A0180933901E0903901F0903A0100917E
:1034D000550110E01E141F040CF034C2D12CC12C75
:1034E0000E94AB17811107C080915601833018F0FC
:1034F0008150809356018FEFC81AD80AEC14FD044E
:1035000079F78091530690E09801285F3F4F82172A
:1035100093079CF50896081719077CF5209156012A
:1035200030E08091540690E0A901485F5F4F841716
:1035300095071CF5089628173907FCF480915E0161
:1035400090915F018C599F4F90935F0180935E0132
:1035500064E670E08CE291E00E94E21580915206F0
:10356000823009F408C308F047C2882309F48CC2EA
:10357000813009F4C3C20E94F81780915601833349
:1035800040F08091550185538F3018F489E0809385
:103590007B0112EF612E15E0712E02E5202E06E070
:1035A000302E7301D70113968C9113978034B0F0AD
:1035B0001B968C911B9781110AC0E1E01B96EC933E
:1035C0001B9711968C911197815011968C93E0E482
:1035D000D7011296EC93129713961C92D7011A9664
:1035E0000C911A97002309F403C41296BC918B2EF8
:1035F000912CF70183819581A92EB12C9501280F7B
:10360000311DA481EBE3F1E010E024014A0E511CCE
:103610004081518162817381C480D58044155505F4
:1036200074F44C0D511D841695064CF4261737077B
:1036300034F06D0D711D261737070CF4102F3696D8
:1036400041E0E335F40721F7111153C32F3331055E
:103650000CF04BC38F5FF70183834BC31092530170
:10366000F0CE0E940E1683FF07C080915C019091FE
:103670005D01049709F4F6CE88E00E94FA128111E8
:10368000F1CEF5CE809173068F5F863009F4BFC00E
:1036900080937306E091730619E01E9FF0011124D8
:1036A000E559F94F81E0818F80916D06858BC0903F
:1036B0007A06D12C2FEFC21AD20A0D2C000CEE087C
:1036C000FF080E948528A09073061A9D900111247E
:1036D000A9014559594F5A01A70196010E9428296D
:1036E000D50157966C930E94852822E030E040E097
:1036F00050E00E942829613051F4E09173061E9F2A
:10370000F0011124E559F94F87898195878B8091C4
:1037100070068093720680915C0190915D01823009
:10372000910509F48AC008F075C0009709F479C0C2
:10373000019709F47BC0109178060E94852822E049
:1037400030E040E050E00E942829613009F41195F2
:10375000E0917306B9E0EB9FF0011124E559F94FB0
:10376000809156018E5F810F828B8091770690E069
:1037700001966C01092E000CEE08FF0841E050E0B4
:1037800060E070E0019781F00E948528A701960112
:1037900021503109410951090E942829AB01BC017E
:1037A0004F5F5F4F6F4F7F4F90915901E92FF0E0CE
:1037B000EE0FFF1F21E030E02E1B3F0BE091730660
:1037C00089E0E89FF0011124E559F94F322F330FBA
:1037D000330F330F80915501830F818B80917606D3
:1037E000841B829F802D1124868B192F110F8091AD
:1037F0007106081778F50E94AB17811106C08091F9
:1038000055018150810F809355010F5FF0CF1092C9
:10381000730640CF84309105D1F0A0F0059709F0F0
:103820008ACF64E670E084E690E004C06CE271E068
:103830008CE890E00E94E2157ECF6CE271E08EEBA6
:1038400090E0F8CF64E670E088E790E0F3CF60E5C1
:1038500070E0E9CF80915C0190915D01059709F0DE
:1038600006CE809173068F5F80937306863011F4C5
:1038700010927306E091730619E01E9FF001112467
:10388000E559F94F81E0818F80916D06858BC0905D
:103890007A06D12C9FEFC91AD90A0D2C000CEE081C
:1038A000FF080E948528A09073061A9D900111249C
:1038B000D901A559B94F5D01A70196010E94282998
:1038C000F501678B0E94852822E030E040E050E05F
:1038D0000E942829E0917306613059F41E9FD0019F
:1038E0001124A559B94F57968C91579781955796A2
:1038F0008C9329E0E29FF0011124E559F94F809162
:1039000056018D5F828B8091590190E03091740651
:1039100020915501389F200D1124218B409176066E
:1039200021E030E0B901641B7109AB01880F991FD8
:10393000281B390B429F202D1124268B98CD8EEF0A
:103940009FEFBDCDE114F10409F4DBCD9090560159
:10395000D80111968090320130E020E093E5A92E45
:1039600091E0B92E680197E0C90ED11C892D90E035
:10397000BC016F5F7F4FEBE3F1E00996408151811D
:103980004C155D058CF47480470D511DA417B507C7
:103990005CF4428153814817590734F47580470D10
:1039A000511D6417750704F146E3491500F1369679
:1039B000AE16BF0619F7939421503109E216F306AB
:1039C000A9F69092560180923201B0933401A093EF
:1039D0003301709336016093350186E0809337019F
:1039E00088E0809338018DCD88248394E5CF8824A6
:1039F000839487E3982EE0CF843009F43AC108F429
:103A0000FAC0853009F0B7CD85E090E090935D0174
:103A100080935C0188E592E090936C0680936B063E
:103A200081E080936F069EE190936D0610926E0682
:103A300093E090937006109271061092720624E043
:103A40002093740622E020937506909376061092D8
:103A50007706109278061092790610927A06809373
:103A60007B06EBE6F6E081EA96E054E042E033E0E4
:103A700021E0538B448B368B178A208F118E399619
:103A80008E179F07B1F777CD10925D0110925C0100
:103A900088E592E090936C0680936B0681E08093BA
:103AA0006F069EE190936D0610926E0693E09093E0
:103AB0007006109271061092720624E0209374062C
:103AC00022E0209375069093760610927706109266
:103AD00078061092790610927A0680937B06EBE6C0
:103AE000F6E034E0338B248B968B178A808F118E0F
:103AF000399656E0E13AF507A9F73DCD21E030E0EF
:103B000030935D0120935C0128E532E030936C0630
:103B100020936B0680936F0620E120936D06109230
:103B20006E0698E29093700698E09093710610925A
:103B30007206209374069093750680937606109211
:103B400079061092780610927A0685E080937B06BB
:103B5000EBE6F6E081EA96E050E148E031E025E06E
:103B6000538B448B368B178A208F118E39968E1784
:103B70009F07B1F700CD22E030E030935D01209344
:103B80005C0128E532E030936C0620936B0691E0EF
:103B900090936F0693E290936D0610926E0694E1F7
:103BA0009093700694E0909371061092720695E0DF
:103BB0009093740693E09093750690937606109216
:103BC0007706109279061092780610927A06809302
:103BD0007B06EBE6F6E021EA36E045E083E092E0A2
:103BE000438B848B868B178A908F118E39962E1774
:103BF0003F07B1F7C0CC83E090E090935D018093E4
:103C00005C0188E592E090936C0680936B0681E0FE
:103C100080936F069EE190936D0610926E0698E079
:103C20009093700695E090937106109272069093AF
:103C3000740693E09093750694E090937606109244
:103C40007706109279068093780610927A06809310
:103C50007B06EBE6F6E035E023E0338B248B968B96
:103C6000178A808F118E399666E0E13AF607A9F738
:103C700082CC24E030E030935D0120935C0128E5A4
:103C800032E030936C0620936B0623E020936F069E
:103C900096E090936D0610926E06809370061092D7
:103CA0007206109271069093740690937506209395
:103CB000760682E0809377061092790691E09093E1
:103CC000780690937A0680937B06EBE6F6E086E032
:103CD00092E0838B848B268B178A908F118E399676
:103CE00076E0E13AF707A9F746CCB653BF3008F4BF
:103CF000B1CCA4014F5F5F4FF701C380D12C20915D
:103D0000550130E0B9016A5F7F4F46175707FCF451
:103D10002E5F3F4FA1504A0F511D24173507BCF4A9
:103D2000A6014F5F5F4F2091560130E0B9016A5FF5
:103D30007F4F461757075CF42E5F3F4F9150490F56
:103D4000511D241735071CF4F9E0F0937B010BE6B5
:103D500016E0AC0CBD1CD80159968C91599788235C
:103D600009F43FC051968C91519790E084159505C8
:103D7000C4F553962C915397820F911D881699067E
:103D800084F552968C91529790E08A159B054CF5DC
:103D900054962C915497820F911DC816D9060CF594
:103DA00058962C91F70187819085821B9109908705
:103DB00087831816190664F080915E0190915F0167
:103DC000019690935F0180935E01C7010E944218A3
:103DD00080915C0190915D01019719F0D80159968D
:103DE0001C92075F1F4FB6E0013A1B0709F0B3CFE3
:103DF000ECE0EE0EF11C2E143F0409F0D3CB209121
:103E0000B5063091B60602EF15E0E8E7F0E041E0D4
:103E1000D80111966C9170E0C9010E948B29892B01
:103E200039F5D80119968C911997882309F4DAC1CC
:103E3000815019968C93D80112969C9112971496E2
:103E40008C911497BF01681B71099617170639F0FA
:103E500034F016968C911697842716968C9398308A
:103E600038F4D80116968C911697842716968C9361
:103E7000045F1F4F0E151F0559F6C90166E070E07B
:103E80000E948B29892B29F480915B018F5F80939D
:103E90005B0180915B01843010F010925B016091B6
:103EA0006F0670E0C9010E948B29892B09F071C04F
:103EB00020916B0630916C062150310930936C06CD
:103EC00020936B0680917206882319F081508093AD
:103ED0007206ABE6B6E041EA56E0FD01818D88232B
:103EE00071F085898150858B811101C0118E818986
:103EF0009689890F818B82899789890F828B399660
:103F00004E175F0759F7121613060CF442C01092B1
:103F10005D0110925C0188E592E090936C068093BD
:103F20006B0681E080936F069EE190936D06109280
:103F30006E0693E0909370061092710610927206CE
:103F400024E02093740622E0209375069093760671
:103F500010927706109278061092790610927A06DF
:103F600080937B0634E053963C93539754962C935E
:103F7000549756969C93569757961C9257975896D7
:103F80008C93589759961C9259971996EA17FB07E4
:103F900051F7A4E8AA2EADE0BA2EB0E1EB2EF12C39
:103FA0004501F8E0CF2ED12CF40124915090550119
:103FB000852D8695869542E85CE0B701D601A81B61
:103FC000B109CD010E94FE15BFEF8B1A9B0AE8E0F4
:103FD000CE0ED11CF8EACF16D10431F724E1A20E9F
:103FE000B11C38E0E30EF11C40E4E416F104C1F624
:103FF00057E0551518F088E08093550180915501E0
:10400000813718F080E780935501F0905901609155
:10401000560170E08091550190E0A2E0FA12F1C0E3
:10402000E0915301F0E0E450F24F249140E25EE071
:104030000E94FE158F2D880FF80EFF0C7BE6C72E11
:1040400076E0D72EE1EAAE2EE6E0BE2EF601818DB7
:10405000882359F020915C012F0D628970E08189DD
:104060004AEC5EE090E00E940416F9E0CF0ED11C0D
:10407000AC14BD0459F78091B50680FD05C0809150
:104080005A018F5F80935A0180915A018F3010F04E
:1040900010925A0120915A014CE85FE060E370E011
:1040A00088E390E00E94FE15D3011A968C911A972E
:1040B0008823E1F08C91813009F4AFC008F4BBC0D3
:1040C0008230A1F416962C911697220F220F809120
:1040D0005B01280F13966C9113976250770B129621
:1040E0008C9142ED55E190E00E94FE15BCE06B0E14
:1040F000711C06151705C1F66091540670E0809199
:10410000530620E044E356E190E00E94FE1568ED7E
:10411000C62E67E1D62E10E000E05601F12CE12C0E
:10412000F501249146E456E1B801C7010E94FE154D
:10413000FFEFAF1ABF0A28E0E20EF11C30E8E316E9
:10414000F10471F740E1C40ED11C085F1F4F003429
:10415000110519F74AE0BE016F5F7F4F7B01809127
:104160005E0190915F010E94DD28F701019000201F
:10417000E9F73197EE19FF09CE2E05E00E1BD12C81
:10418000002E000C110B8D2D90E0801791070CF480
:1041900064C0000F111F000F111F0E591F4FB12CCB
:1041A0000C2C000CDD088B2D90E08C159D050CF07F
:1041B00065C0F701E80FF91F208121330CF45CC0C2
:1041C00020532A3008F058C0880F991F880F991F74
:1041D00042E85EE166E070E0800F911F0E940416E5
:1041E000B394E1CF12968C9112978F5F16969C91A3
:1041F0001697990F891B12968C9312971A964C93C7
:104200001ACEE0915401B4E0FB9E90011124E20F1C
:10421000F32FF11DEE53F14F08CFF3012681220F4A
:10422000220F80915B01280F63816750770B828199
:1042300040ED54E158CF16962C911697220F220F7D
:1042400080915B01280F13966C9113976450770B44
:1042500012968C914EE453E146CF880F991F880F38
:10426000991F20E042E85EE166E070E08E599F4FC2
:104270000E940416D39487CF20E0A6CF20915C0142
:1042800048E558E166E070E08BE090E00E9404169B
:1042900080917B018930D9F464EF71E080E090E097
:1042A000AB01FC010E940E1541505109E109F109D1
:1042B00028F068517C4F8F4F9F4FF6CFAB01FC0128
:1042C0000E940E15641775078E079F07C8F32A967C
:1042D0000FB6F894DEBF0FBECDBFDF91CF911F9117
:1042E0000F91FF90EF90DF90CF90BF90AF909F9095
:1042F0008F907F906F905F904F903F902F90089598
:104300008F929F92AF92BF92CF92DF92EF92FF92E5
:104310000F931F93CF93DF93CDB7DEB72A970FB6D6
:10432000F894DEBF0FBECDBF62EA7EE190E080E090
:104330000E9463164AE0CE0101967C01BC01809187
:104340005E0190915F010E94DD28F701019000203D
:10435000E9F73197EE19FF09AE2E05E00E1B10E0CC
:10436000802E002E000C990894E1D92E18151904FE
:104370003CF194E1090280011124025F1F4FD12C0E
:104380000A2C000CBB0884E1C82E8D2D90E08A1504
:104390009B052CF58E0D9F1DFC0120812133ECF037
:1043A00020532A30D0F440EB5BE160E270E0C801BA
:1043B000DC9C800D911D11240E940416D394E5CF3E
:1043C0001D9DC001112420E040EB5BE160E270E044
:1043D0000E960E9404161F5FC9CF20E0E4CF88E04C
:1043E0000E94FA12811105C084E00E94FA1288230B
:1043F00019F081E080937B012A960FB6F894DEBF16
:104400000FBECDBFDF91CF911F910F91FF90EF9025
:10441000DF90CF90BF90AF909F908F9008951F92A4
:104420000F920FB60F9211248F939F938091E1000A
:104430009091E100937F9093E10083FF0FC0109271
:10444000E90091E09093EB001092EC0092E39093DE
:10445000ED001092910198E09093F00082FF22C04D
:1044600093E09093E9009091F200992319F09AE378
:104470009093E80090918201992341F090918201FC
:10448000915090938201911101C05D9A9091900199
:10449000992341F090919001915090939001911146
:1044A00001C0289A84FF18C08091E2008E7E81604E
:1044B0008093E2008091E1008F7E8093E100809103
:1044C00083018E7E8061809383019F918F910F90F5
:1044D0000FBE0F901F90189580FFF7CF8091E200DC
:1044E0008E7E80618093E2008091E1008E7E8093D9
:1044F000E100809183018E7E8160E5CF1F920F9253
:104500000FB60F921124CF92DF92EF92FF920F938A
:104510001F932F933F934F935F936F937F938F934B
:104520009F93AF93BF93EF93FF93CF93DF93CDB759
:10453000DEB76C97DEBFCDBF1092E9008091E80036
:1045400083FF25C068E0CE0145960E94691482EF82
:104550008093E8008D8987FF39C09091E80090FF33
:10456000FCCF982F907609F034C19E894F89588DE1
:104570002F89F88C911131C0803861F580918101CB
:104580008093F1001092F1008EEF8093E8006C961A
:104590000FB6F894DEBF0FBECDBFDF91CF91FF9174
:1045A000EF91BF91AF919F918F917F916F915F91AB
:1045B0004F913F912F911F910F91FF90EF90DF90BE
:1045C000CF900F900FBE0F901F9018959EEF909375
:1045D000E800C7CF1092F100D5CF913059F4811186
:1045E000D3CF4130510581F6809181018D7F809339
:1045F0008101CACF933049F48111C6CF41305105B2
:1046000019F6809181018260F2CF953041F480915A
:10461000E80080FFFCCF20682093E300B5CF963000
:1046200009F0A9C00B8D1C8D22E01092E9001092B8
:104630007F0110927E01F2122EC010927D01109225
:104640007C010E9438141F8299E09983FA8291E0DC
:104650009E8390EA98879AEF998720917E01309106
:104660007F01275F3F4F3C832B838D831092E900AE
:1046700010927F0110927E0110937D0100937C01C6
:1046800049E050E0BE016F5F7F4F80E00E9412144E
:104690000E94381479CF10937D0100937C010E9411
:1046A0004F13DC0112960D911C910115110509F4AF
:1046B00010C1D801ED91FC910480F581E02DBE017F
:1046C0006B5E7F4FC8010995009709F0FDC0F801A6
:1046D00000851185EACFF3E0FF120EC08F89882391
:1046E00009F440C0823061F440E867E083E891E279
:1046F0000E943525811148CF81E28093EB0047CF9E
:10470000813029F440E86BE087E791E2F1CF833014
:1047100099F70E944F13DC011296ED90FC908E01E8
:104720000F5F1F4F6801E114F10479F0D701ED919B
:10473000FC910680F781E02DB801C7010995080FAB
:10474000111DF701E084F184EECFD8011C92F6012F
:1047500001900020E9F73197BF016C197D0940E015
:10476000C601C6CF61E671E2FB01449150E080E8EA
:104770000E94121409CF973009F4BECF983021F46B
:1047800081E08093F10000CF993009F0FDCE837075
:1047900009F0B2CFE2E1F1E081E031E096E321916E
:1047A000222371F08093E9003093EB00DF01119731
:1047B0002C912093EC009093ED008F5F873079F778
:1047C0008EE78093EA001092EA008F89809391012E
:1047D000DBCE8B8D9C8D1092E90010927F011092A0
:1047E0007E0190937D0180937C01898D811151C060
:1047F0008E899D89913A49F4813209F07DCF47E055
:1048000050E065E071E080E0B3CF913209F074CF01
:10481000833269F48F89988DB0E0A0E08093010124
:1048200090930201A0930301B0930401ADCE8032B6
:1048300069F48091E80082FFFCCF67E085E091E0B9
:104840000E9469148BEF8093E8009ECE823209F0BB
:104850009BCE8F8980930C01809105019091060178
:10486000A0910701B0910801803B9440A105B105DA
:1048700069F480910C0180FD09C088E78093800174
:10488000809164008F7D809364007ECE10928001C1
:104890007BCE0E944F13DC0112960D911C910115E5
:1048A000110509F429CFD801ED91FC910190F08117
:1048B000E02DBE016B5E7F4FC8010995811164CE6A
:1048C000F80100851185EBCF181619060CF45CCEA3
:1048D00013CFF1E0FF12FFCE65E671E245CF0F93F3
:1048E0000FB70F931F9211248F939F93EF93FF9312
:1048F000E7E7F1E08091720191E08D5F8D3710F074
:104900008D579395809372018081890F8083918167
:10491000911D91830281011D02838381811D838307
:1049200009270F70092702950093710135D0811175
:1049300000936F01803989F400917001901B9630CB
:1049400070F087E7809300088093010888E198E081
:104950008093600090936000FFCF909370018091EE
:104960008001815018F08093800159F3E3E7F1E072
:104970008081918101968083918382819381811DC1
:10498000911D82839383FF91EF919F918F911F904F
:104990000F910FBF0F9118958FB18095807F669B07
:1049A00088601C9B846008951F920F920FB60F922F
:1049B00011242F933F934F935F936F937F938F9324
:1049C0009F93AF93BF93EF93FF9380916B0190916F
:1049D0006C01A0916D01B0916E01892B8A2B8B2BFC
:1049E00009F440C080916A0181110BC088B190E444
:1049F000892788B980916901882319F088B1805886
:104A000088B980916B0190916C01A0916D01B0917A
:104A10006E01181619061A061B069CF480916B018C
:104A200090916C01A0916D01B0916E010197A10967
:104A3000B10980936B0190936C01A0936D01B093C9
:104A40006E01FF91EF91BF91AF919F918F917F91F7
:104A50006F915F914F913F912F910F900FBE0F90EB
:104A60001F9018950E943A15ECCFEF92FF920F938A
:104A70001F93CF93DF93F82E192FE62E042F81E09A
:104A8000860F880F0E94E41383E00E94E413CF2D69
:104A9000D12FEC0EFD2EF11CCE15DF05B9F007FF6E
:104AA00013C0FE0184910E94E413182F80E00E943D
:104AB000E413812321968111EFCFDF91CF911F91D4
:104AC0000F91FF90EF9008958881EDCF81E0F5CFB1
:104AD000109295051092940588EE93E0A0E0B0E066
:104AE0008093960590939705A0939805B0939905A8
:104AF0008CE191E090939305809392058FEF9FEF67
:104B000090939F0580939E058EE291E09093B3066B
:104B10008093B2061092B7061092B80680E1809397
:104B2000B9061092B6061092B5061092BB0681EF38
:104B300090E19093F1058093F00580E090E89093E8
:104B4000EF058093EE0546983E9A47983F9A88E590
:104B500092E090936C0680936B0687E180936D06DC
:104B600010926E0681E080936F0693E0909370063A
:104B700010927106109272061092730624E0209330
:104B800074068093750690937606109277061092BD
:104B900078061092790610927A0680937B06EBE6EF
:104BA000F6E0238B848B158A968B178A808F118E63
:104BB000399636E0E13AF307A1F78FE28093550684
:104BC00087E0809356069AE49093570680935806A0
:104BD0002AE02093590687E180935A0637E2309302
:104BE0005B0680935C0692E590935D0680935E067B
:104BF0009EE690935F06809360068CE38093610647
:104C0000309362062093630687E38093640629E26B
:104C1000209365068093660620E5209367068093BF
:104C200068069093690680936A060E94F817E2EF7F
:104C3000F5E022E536E042E093E086E040839183B0
:104C400084838583128613863C962E173F07B1F71F
:104C50000895789483E084BD83E085BD81E08093EE
:104C60006E00E1E8F0E083E08083E0E881E08083AB
:104C7000E1E983E08083E0E981E08083E1EC87E0A3
:104C80008083E3EC81E08083E0EC82E08083E2ECEF
:104C900081E08083EAE787E08083806880831092E8
:104CA000910110928101109283018091D70081605F
:104CB0008093D70080EA8093D80089B5806189BD50
:104CC00089B5826089BD09B400FEFDCF81E090E026
:104CD0000E9477148091D8008F7C80618093D800E7
:104CE0008091E000807F8093E0008091E1008E7EE3
:104CF0008093E1008DE08093E200559A209A81EC48
:104D000080937C0081EF85B987EE84B984E38BB909
:104D100084EF8AB9769A6E9880EF81BB10BA80E5ED
:104D20008CBD81E08DBD85E090E00E940C165F99FE
:104D300002C05F9AF8CF5C98EEEFF0E29DE08591BB
:104D40008EBD00000DB407FEFDCF8EB59A95B9F764
:104D50005C9A81E88093640081E0809365000E9402
:104D600005130E940E1687FF11C05C9885EA8EBD60
:104D700000000DB407FEFDCF8EB55C9A2E982F98DB
:104D80002D9881E083BF889513BEFCCF0E940E163C
:104D900082FF48C02D980E940E1684788438E1F472
:104DA0000E940A1688EC90E00E940C162F9882E070
:104DB00090E00E9412298F3F29F06FEF82E090E08F
:104DC0000E941A2984EF91E00E940C162F9A0E94EB
:104DD0000E1684788438D9F30E940E1684718431BB
:104DE000E1F40E940A1688EC90E00E940C162E98BE
:104DF00082E090E00E941229882329F060E082E09E
:104E000090E00E941A2984EF91E00E940C162E9ADD
:104E10000E940E1684718431D9F388EC90E00E94D0
:104E20000C16B4CF0E940A1682E090E00E9412296C
:104E3000882309F472C00E94161681E090E00E9457
:104E40001229182F147081E090E00E94122981FF2E
:104E50000CC011112E98C0EFDFEF0E940E1686FFD6
:104E60005FC02E9A2F9A0E940A1682E390E00E9459
:104E70000C160E940E168111F8CF80E18093B906BE
:104E8000809164008E7F8093640080917A008064BA
:104E900080937A0080917A0086FDFCCFC0917800E3
:104EA000D09179000E940E15AB01BC01CE01B0E09B
:104EB000A0E0DC01992788278C019D01040F151FB4
:104EC000261F371FC901B80120916400216020937B
:104ED0006400611571058105910511F00E94D428C7
:104EE000EE24E39402E911E0C0E0D0E0DD24D394A5
:104EF000909177018091BA06292F281B822FF0907C
:104F0000BB06FF2009F47AC02093BC061092BB06B2
:104F1000209771F30E940000EBCF0E9411168DCFF5
:104F2000112329F0C430D10511F42E9A2F9881E075
:104F30000E9405130C2F0770A02EAE0133E055958B
:104F400047953A95E1F7CA019695982F8827979546
:104F500087958E569E4F70E060E04E3F2FEF5207D0
:104F600069F130E020E0DB01A25BBF4D7C01E0E8AD
:104F7000EE0EF11CFD01E20FF31FE491F0E04F0192
:104F80000A2C02C0880C991C0A94E2F74F3F540780
:104F900039F06C01C20ED31EF601B488B828B48A69
:104FA000AA2039F06701C20ED31EF601048909292F
:104FB000048B2F5F3F4F28353105E1F64F5F5F4F80
:104FC00080589F4F685A7F4F603B710531F680E0F3
:104FD0000E9405138FE090E00E940C162196C931C3
:104FE000D10509F03ACF112311F02F9A2D9880E9BD
:104FF00091E00E940C160E940A1637CF2091B90644
:10500000821740F48F5F821708F082CFE3BE889545
:1050100013BE7ECFD092BB069093BA068091B506A0
:105020009091B60601969093B6068093B50680914E
:10503000B7068093B8060E940E168093B7069F2D80
:10504000F80191119FEF8FEF919391939193919329
:105050008150D0F7E0917B01F0E0EE0FFF1FE55F9C
:10506000FE4D85919491FC01099580E00E94051305
:105070004FCF8F929F92AF92BF92CF92DF92EF92DB
:10508000FF92CF93DF93EC01688179818A819B81C4
:10509000611571058105910521F464E279ED8BE5D7
:1050A00097E02DE133EF41E050E00E9428294901CB
:1050B0005A019B01AC01A7EAB1E40E9447296B01A8
:1050C0007C01ACEEB4EFA50194010E945529C60EF7
:1050D000D71EE81EF91EF7FE06C081E0C81AD108E7
:1050E000E10880E8F80AC882D982EA82FB82C70117
:1050F000B6019F77DF91CF91FF90EF90DF90CF9037
:10510000BF90AF909F908F9008958F929F92AF9293
:10511000BF92CF92DF92EF92FF9260910D0170915A
:105120000E0180910F0190911001611571058105AB
:10513000910521F464E279ED8BE597E02DE133EF01
:1051400041E050E00E94282949015A019B01AC012D
:10515000A7EAB1E40E9447296B017C01ACEEB4EFF1
:10516000A50194010E945529C60ED71EE81EF91EFE
:10517000F7FE06C081E0C81AD108E10880E8F80A05
:10518000C0920D01D0920E01E0920F01F092100139
:10519000C701B6019F77FF90EF90DF90CF90BF904F
:1051A000AF909F908F90089560930D0170930E01C2
:1051B00080930F01909310010895BB274A3031F47A
:1051C000992322F4BDE2909581959F4F0C94E92894
:1051D000BB27FB015527AA27880F991FAA1FA417D1
:1051E00010F0A41B83955051B9F7A05DAA3308F0C5
:1051F000A95DA193009779F7B111B1931192CB01F9
:105200000C940229DC01FC01672F71917723E1F7EF
:10521000329704C07C916D9370836291AE17BF0783
:10522000C8F30895F999FECF92BD81BDF89A9927E8
:1052300080B50895262FF999FECF1FBA92BD81BD82
:1052400020BD0FB6F894FA9AF99A0FBE0196089508
:10525000052E97FB1EF400940E943F2957FD07D0AE
:105260000E945A2907FC03D04EF40C943F29509514
:105270004095309521953F4F4F4F5F4F0895909542
:105280008095709561957F4F8F4F9F4F08950E9435
:105290007C29A59F900DB49F900DA49F800D911D1A
:1052A00011240895B7FF0C9447290E944729821BB7
:1052B000930B0895A1E21A2EAA1BBB1BFD010DC082
:1052C000AA1FBB1FEE1FFF1FA217B307E407F507B6
:1052D00020F0A21BB30BE40BF50B661F771F881F92
:1052E000991F1A9469F760957095809590959B0128
:1052F000AC01BD01CF010895A29FB001B39FC001D1
:10530000A39F700D811D1124911DB29F700D811DF1
:105310001124911D0895AA1BBB1B51E107C0AA1FB0
:10532000BB1FA617B70710F0A61BB70B881F991F46
:105330005A95A9F780959095BC01CD010895EE0F7F
:10534000FF1F0590F491E02D0994F894FFCF03FF1F
:10535000FFFFFF00E100000000000001000000006E
:10536000C180810000000000000063138B148413CF
:105370007913CA138813A613000000007614FFFFE8
:10538000FFFFFFFFFFFFFFFFFFFFFFFFFFFFFFFF2D
:10539000FFFFFFFFFFFFFFFFFFFFFFFFFFFFFFFF1D
:1053A000FFFFFFFFFFFFFFFFFFFFFFFFFFFFFFFF0D
:1053B000FFFFFFFFFFFFFFFFFFFFFFFFFFFFFFFFFD
:1053C000FFFFFFFFFFFFFFFFFFFFFFFFFFFFFFFFED
:1053D000FFFFFFFFFFFFFFFFFFFFFFFFFFFFFFFFDD
:1053E000FFFFFFFFFFFFFFFFFFFFFFFFFFFFFFFFCD
:1053F000FFFFFFFFFFFFFFFFFFFFFFFFFFFFFFFFBD