:100000000C94DC0F0C9404100C9404100C94041049
:100010000C9404100C9404100C9404100C94041010
:100020000C9404100C9404100C949B160C940A1756
:100030000C9404100C9404100C9404100C940410F0
:100040000C9404100C9404100C9404100C940410E0
:100050000C9404100C9404100C9404100C94FB18D1
:100060000C9404100C9404100C9404100C940410C0
:100070000C9404100C9404100C9404100C940410B0
:100080000C9460190C9404100C9404100C9404103B
:100090000C9404100C9404100C9404100C94041090
:1000A0000C9404100C9404100C94041005A84CCD6E
:1000B000B2D44EB93836A9020C50B9918688083CA2
:1000C000A6AAAA2ABE000000803FFFFFFFFF0F0F75
:1000D0000F0F0F0F0F0FFFFFFFFF0F0F0F0F0F0F70
:1000E0000F0F0F0F0F0FFFFFFFFFFFFFFFFF0F0FA0
:1000F0000F0F0F0F0F0FFFFFFFFFFFFFFFFFFFFFB0
:10010000FFFFFFFFFFFFFFFFFFFF0F0F0F0F0F0F9F
:100110000F0F0F0F0F0FFFFFFFFF00000000000089
:10012000000000000000FFFFFFFFFFFFFFFFF0F0F7
:10013000F0F0F0F0F0F0F0F0F0F0FFFFFFFFF0F083
:10014000F0F0F0F0F0F0FFFFFFFFFFFFFFFF0F0FF9
:100150000F0F0F0F0F0F0F0F0F0F0F0F0F0FFFFFCF
:10016000FFFFFFFFFFFFFFFFFFFFFFFFFFFF00009D
:10017000000000000000FFFFFFFF0F0F0F0F0F0F29
:100180000F0F0F0F0F0FFFFFFFFF0F0F0F0FFFFFDF
:10019000FFFFFFFFFFFFFFFFFFFFF0F0F0F0F0F0C9
:1001A000F0F0F0F0F0F0FFFFFFFF0F0F0F0F0F0F59
:1001B0000F0FFFFFFFFF0F0F0F0FF0F0F0F0FFFF2B
:1001C000FFFFF0F0F0F0F0F0F0F0000000000F0F93
:1001D0000F0FFFFFFFFF0000000000000000F0F025
:1001E000F0F0FFFFFFFFF0F0F0F0FFFFFFFF0F0F59
:1001F0000F0F0F0F0F0FFFFFFFFFFFFFFFFFF0F0CD
:10020000F0F0F0F0F0F0FFFFFFFFC0C03C3CCCCCC2
:10021000FFFFFFFFFCFCFCFCC0C003033F3F3F3F70
:10022000FFFFFFFF3F3F3F3F0303C0C0FCFCFCFC60
:10023000FFFFFFFFFCFCFCFCC0C003033F3F333368
:10024000CFCFFFFF3F3F3F3F0303C0C0FCFCFCFCA0
:10025000FFFFFFFFFCFCFCFCC0C003033F3F3F3F30
:10026000FFFFFFFF33333C3C030300000000003E70
:100270005B4F5B3E3E6B4F6B3E1C3E7C3E1C183C16
:100280007E3C181C577D571C1C5E7F5E1C00183C72
:100290001800FFE7C3E7FF0018241800FFE7DBE7BB
:1002A000FF30483A060E2629792926407F050507A2
:1002B000407F05253F5A3CE73C5A7F3E1C1C0808FE
:1002C0001C1C3E7F14227F22145F5F005F5F0609C3
:1002D0007F017F006689956A606060606094A2FF1C
:1002E000A29408047E040810207E201008082A1C0E
:1002F00008081C2A08081E101010100C1E0C1E0CDA
:1003000030383E3830060E3E0E0600000000000079
:10031000005F00000007000700147F147F14242AE8
:100320007F2A1223130864623649562050000807BA
:100330000300001C2241000041221C002A1C7F1CDB
:100340002A08083E080800807030000808080808DD
:10035000000060600020100804023E5149453E0044
:10036000427F400072494949462141494D331814A2
:10037000127F1027454545393C4A494931412111F1
:1003800009073649494936464949291E00001400E3
:100390000000403400000008142241141414141406
:1003A000004122140802015909063E415D594E7C64
:1003B0001211127C7F494949363E414141227F4119
:1003C00041413E7F494949417F090909013E414177
:1003D00051737F0808087F00417F41002040413F62
:1003E000017F081422417F404040407F021C027F71
:1003F0007F0408107F3E4141413E7F090909063EC6
:100400004151215E7F091929462649494932030194
:100410007F01033F4040403F1F2040201F3F4038A6
:10042000403F631408146303047804036159494D81
:1004300043007F4141410204081020004141417FB7
:10044000040201020440404040400003070800202D
:10045000545478407F28444438384444442838442D
:1004600044287F385454541800087E090218A4A464
:100470009C787F0804047800447D40002040403D83
:10048000007F1028440000417F40007C04780478FD
:100490007C080404783844444438FC182424181890
:1004A000242418FC7C0804040848545454240404EC
:1004B0003F44243C4040207C1C2040201C3C4030D9
:1004C000403C44281028444C9090907C4464544C08
:1004D0004400083641000000770000004136080063
:1004E00002010204023C2623263C1EA1A161123A0D
:1004F0004040207A3854545559215555794121545A
:10050000547841215554784020545579400C1E525E
:100510007212395555555939545454593955545402
:10052000580000457C410002457D420001457C4069
:10053000F0292429F0F0282528F07C545545002086
:1005400054547C547C0A097F493249494932324823
:10055000484832324A4848303A4141217A3A42408A
:100560002078009DA0A07D39444444393D4040405E
:100570003D3C24FF2424487E4943662B2FFC2F2B2F
:10058000FF0929F620C0887E0903205454794100D0
:1005900000447D413048484A32384040227A007A4F
:1005A0000A0A727D0D19317D2629292F282629292D
:1005B000292630484D40203808080808080808084F
:1005C000382F10C8ACBA2F102834FA00007B000076
:1005D00008142A142222142A14089500220095AA2D
:1005E000005500AAAA55AA55AA000000FF00101045
:1005F00010FF00141414FF001010FF00FF1010F083
:1006000010F0141414FC001414F700FF0000FF0095
:10061000FF1414F404FC141417101F10101F101FE3
:100620001414141F00101010F0000000001F101010
:1006300010101F10101010F010000000FF1010100C
:10064000101010101010FF10000000FF140000FF29
:1006500000FF00001F10170000FC04F41414171012
:10066000171414F404F40000FF00F7141414141405
:100670001414F700F7141414171410101F101F147B
:100680001414F4141010F010F000001F101F0000DC
:10069000001F14000000FC140000F010F01010FF08
:1006A00010FF141414FF141010101F00000000F0AD
:1006B00010FFFFFFFFFFF0F0F0F0F0FFFFFF000082
:1006C000000000FFFF0F0F0F0F0F38444438447C29
:1006D0002A2A3E147E02020606027E027E0263552C
:1006E0004941633844443C04407E201E2006027E7B
:1006F000020299A5E7A5991C2A492A1C4C7201728D
:100700004C304A4D4D303048784830BC625A463DF6
:100710003E494949007E0101017E2A2A2A2A2A44AB
:10072000445F444440514A444040444A51400000E0
:10073000FF0103E080FF000008086B6B08361236EB
:100740002436060F090F06000018180000001010CC
:10075000003040FF0101001F01011E00191D17128A
:10076000003C3C3C3C0000000000F0F89C8E87837D
:10077000878E9CF8F00000FEFF0303030303070EBF
:10078000FCF80000FEFF0303030303070EFCF80060
:1007900000FFFF00000000000000FFFF0000FEFF60
:1007A0008383838383C7EE7C380000F8FC0E070345
:1007B0000303070EFCF800003F7FE0C08080C0E02C
:1007C0007F3FFFFF01010101010101FFFF0000FF69
:1007D000FF0C0C0C0C1C3E77E3C100007FFFC0C077
:1007E000C0C0C0E0703F1F00001F3F70E0C0C0C02D
:1007F000E0703F1F00007FFFC1C1C1C1C1E3773E70
:100800001C00001F3F70E0C0C0C0E0703F1F000030
:1008100000000001FFFF01000000D5F08D14A1C809
:1008200081CFD9F1AF2000000000000000F0F0F00F
:10083000F00000000000000000F0F0F0F000000008
:1008400000000000000000000000000000000000A8
:100850000000000000F0F0F0F000000000000000D8
:1008600000F0F0F0F00000000000000000000000C8
:1008700000F0F0F0F00000000000000000F0F0F0E8
:10088000F0F0F0F0F0F0F0F0F0F0F0F0F000000038
:1008900000F0F0F0F0F0F0F0F0F0F0F0F0F0F0F048
:1008A000F0000000000000000000000000FFFFFF5B
:1008B000FFF0F0F0F0F0F0F0F0FFFFFFFF000000BD
:1008C0000000000000000000000000000000000028
:1008D0000000000000FFFFFFFF000000000000001C
:1008E00000FFFFFFFF00000000000000000F0F0FDF
:1008F0000F000000000000000000000000FFFFFFEC
:10090000FFF0F0F0F0F0F0F0F0FFFFFFFF0000006C
:1009100000FFFFFFFF0F0F0F0F0F0F0F0F00000063
:1009200000000000000000000000000000000000C7
:10093000000F0F0F0F00000000000000000000007B
:1009400000000000000000000000000000000000A7
:1009500000000000000F0F0F0F0F0F0F0F0F0F0FF2
:100960000F0F0F0F0F00000000000000000000003C
:10097000000000000000000000000000000F0F0F4A
:100980000F000000000F0F0F0F000000000000001C
:10099000000F0F0F0F0F0F0F0F0F0F0F0F0F0F0F76
:1009A0000F000000000000000000000000FFFFFF3B
:1009B000FF0F0F0F0F0F0F0F0FFFFFFFFF000000C4
:1009C0000000000000000000000000000000000027
:1009D00000000000000F0F0F0FFFFFFFFF0F0F0FB2
:1009E0000F0F0F0F0F00000000FFFFFFFF0F0F0F93
:1009F0000F0F0F0F0FFFFFFFFF00000000FFFFFFB3
:100A0000FF0000000000000000FFFFFFFF000000EB
:100A100000FFFFFFFFFFFFFFFFFFFFFFFF0F0F0FB5
:100A20000F000000000000000000000000FFFFFFBA
:100A3000FF0F0F0F0F0F0F0F0FFFFFFFFF00000043
:100A400000000000000000000000000000000000A6
:100A5000000000000000000000FFFFFFFF0000009A
:100A6000000000000000000000FFFFFFFF0F0F0F5D
:100A70000FFFFFFFFF0F0F0F0F00000000FFFFFF32
:100A8000FFF0F0F0F0F0F0F0F0FFFFFFFF000000EB
:100A900000FFFFFFFFF0F0F0F0F0F0F0F0F0F0F00A
:100AA000F0000000000000000000000000F0F0F086
:100AB000F0F0F0F0F0F0F0F0F0F0F0F0F000000006
:100AC00000F0F0F0F0000000000000000000000066
:100AD0000000000000F0F0F0F0F0F0F0F0F0F0F0C6
:100AE000F0F0F0F0F000000000F0F0F0F000000096
:100AF0000000000000F0F0F0F000000000F0F0F066
:100B0000F0F0F0F0F0F0F0F0F0F0F0F0F0000000B5
:100B100000F0F0F0F0F0F0F0F0F0F0F0F0F0F0F0C5
:100B2000F0000000000000000000000000FFFFFFD8
:100B3000FFF0F0F0F0F0F0F0F0FFFFFFFF0000003A
:100B400000FFFFFFFF0000000000000000000000A9
:100B50000000000000FFFFFFFFF0F0F0F0F0F0F009
:100B6000F0FFFFFFFF00000000FFFFFFFFF0F0F0CD
:100B7000F0F0F0F0F0FFFFFFFF00000000FFFFFFCC
:100B8000FF0F0F0F0F0F0F0F0F00000000000000EE
:100B900000FFFFFFFFF0F0F0F0F0F0F0F0FFFFFFDC
:100BA000FF0000000000000000000000000F0F0F19
:100BB0000F00000000000000000000000000000026
:100BC000000F0F0F0F0F0F0F0F0F0F0F0F0F0F0F44
:100BD0000F000000000F0F0F0F00000000000000CA
:100BE000000F0F0F0F00000000000000000F0F0F9C
:100BF0000F0000000000000000000000000F0F0FB9
:100C00000F0F0F0F0F0F0F0F0F0F0F0F0F00000021
:100C1000000F0F0F0F000000000F0F0F0F0000005C
:100C200000000000000000F0F03F3FC3C30F0F0FB3
:100C30000FC3C33F3FF0F0FFFF303000003C3C3CAF
:100C40003C00003030FFFFFFFFCFCFC0C0FCFCFCFA
:100C5000FCC0C0CFCFFFFF0000F0F0CFCFFCFCFC0A
:100C6000FCCFCFF0F0000000003333FFFFF0F0F0D6
:100C7000F0FFFF3333000000000C0C0F0F000000EA
:100C8000000F0F0C0C0000FFFFFFFF0F0F0F0F0FE7
:100C90000F0F0FFFFFFFFF00000000FFFFFFFF002F
:100CA00000000000000000FFFFFFFF00000000FF49
:100CB000FFFFFFFFFFFFFFFFFFFFFF0F0F0F0F0003
:100CC000000000FFFFFFFF0F0F0F0F0F0F0F0FFFB1
:100CD000FFFFFFFFFFFFFFF0F0F0F0F0F0F0F0FF9C
:100CE000FFFFFF000000000F0F0F0FF0F0F0F0F01B
:100CF000F0F0F00F0F0F0F00000000FFFFFFFFF0FC
:100D0000F0F0F0F0F0F0F0F0F0F0F000000000FF94
:100D1000FFFFFF0F0F0F0FFFFFFFFF0F0F0F0FFF63
:100D2000FFFFFF0F0F0F0F0F0F0F0F0F0F0F0F0012
:100D3000000000FFFFFFFF0F0F0F0F0F0F0F0FFF40
:100D4000FFFFFF00000000FFFFFFFF0F0F0F0FFF6F
:100D5000FFFFFFFFFFFFFF00000000FFFFFFFFFF9F
:100D6000FFFFFFFFFFFFFF0F0F0F0FFFFFFFFFF062
:100D7000F0F0F0F0F0F0F0FFFFFFFF00000000FFE8
:100D8000FFFFFF0F0F0F0F0F0F0F0FFFFFFFFF00F2
:100D9000000000FFFFFFFF0000000000000000FF58
:100DA000FFFFFF00000000FFFFFFFFF0F0F0F0F09A
:100DB000F0F0F0F0F0F0F000000000F0F0F0F0F0F3
:100DC000F0F0F000000000F0F0F0F0FFFFFFFF0097
:100DD00000000000000000F0F0F0F0F0F0F0F0F0A3
:100DE000F0F0F000000000FFFFFFFF0F0F0F0FFFFC
:100DF000FFFFFF000000000F0F0F0FFFFFFFFF0FAF
:100E00000F0F0F0F0F0F0F00000000FFFFFFFFFF7E
:100E1000FFFFFFFFFFFFFF0F0F0F0F00000000FF9E
:100E2000FFFFFF0F0F0F0F0F0F0F0F0F0F0F0F0011
:100E30000000000F0F0F0FFFFFFFFF0F0F0F0F0F2F
:100E40000F0F0F00000000FFFFFFFF000000000079
:100E500000000000000000FFFFFFFFF0F0F0F0F0E6
:100E6000F0F0F0F0F0F0F0000000000F0F0F0FFFB7
:100E7000FFFFFFFFFFFFFFFFFFFFFF00000000007D
:100E8000000000FFFFFFFF00000000000000000066
:100E90000000003030CCCCCCCC3030000000000062
:100EA000000000000000000000000000000000033F
:100EB00003FFFFCCCC33333333CCCCFFFF0303C071
:100EC000C0FCFCC3C33F3F3F3FC3C3FCFCC0C0A545
:100ED0000032000080000000000000CCCCC0C0C088
:100EE000C0CCCC00000000000000000000000003A7
:100EF000033333333303030000000000000000001D
:100F000000000000000000000000000000000000E1
:100F1000000000F0F0FFFF33333C3C3C3C3333FF38
:100F2000FFF0F0000030303333FFFFFCFCCCCCCCC2
:100F3000CCFCFCFFFF33333030C0C0FFFFFFFF0F9E
:100F40000F030303030F0FFFFFFFFFC0C0000000EC
:100F5000000000CCCCC0C0C0C0CCCC000000000061
:100F60000000000000C0C00000303030300000C081
:100F7000C0000000000000000000000303000000AB
:100F80000003030000000000000000F0F0FFFF334A
:100F9000333C3C3C3C3333FFFFF0F00000F0F0F317
:100FA000F33F3FFFFFCFCFCFCFFFFF3F3FF3F3F044
:100FB000F00C0C0F0F0F0F0C0C030303030C0C0FA2
:100FC0000F0F0F0C0CC4001E000080FCFCCCCCFCEE
:100FD000FCC3C3C3C3C3C3FCFC0000000000000388
:100FE000030000000000000000303000003C3C3CEA
:100FF0003C3C3C000000000000000000000000003D
:10100000000000FCFCCCCCFCFCC3C3C3C3C3C3FCCA
:10101000FC0000030300000000000003030000FCCC
:10102000FCC3C3C3C3C3C3FCFCCCCCFCFC000000AA
:10103000000000030300000000000000003C3C3CF6
:101040003C3C3C000030300000000000000000008C
:1010500000000000000000FCFCC3C3C3C3C3C3FC0A
:10106000FCCCCCFCFC0000030300000000000003EB
:101070000300000000000030303030C0C0F0F0301D
:101080003000000000000000000000000000000030
:10109000000000000000003030FCFCCCCCCCCC3098
:1010A000300C0CCCCCF0F0C0C00000000000000000
:1010B00000030303030C0C0C0C00000000000030C4
:1010C000303030C0C0F0F03C3C0C0C0000000000A0
:1010D00000000000000000000000000000000030E0
:1010E00030FCFCCCCCCCCC30300C0CC3C333330C38
:1010F0000C0000000000000000030303030C0C0CB4
:101100000C0000000000003030F0F0C0C030303083
:10111000300000000000000000000000000000009F
:1011200000000000000000C0C0F0F0CCCC0C0C307F
:1011300030CCCCCCCCFCFC303000000C0C0C0C03C4
:10114000030303000000000000000000000C0C3C42
:101150003CF0F0C0C0303030300000000000000033
:101160000000000000000000000000000000000C73
:101170000C3333C3C30C0C3030CCCCCCCCFCFC30A7
:101180003000000C0C0C0C030303030000000000F3
:101190000000007B0064006E006400620064005781
:1011A00000640052006400490064004100900100A6
:1011B000806E0078008300780000001E00A5007893
:1011C00000C400780000001E00F7007800260178B7
:1011D0000000001E0000806E003C000000870083BD
:1011E000003C0000008700A5003C0000008700C410
:1011F000003C000000140083003C0000005000830D
:10120000003C0000008700A5003C0000008700C4EF
:10121000003C0000008700F7003C0000008700C48D
:10122000003C000000F000C4003C0000003200DC84
:10123000003C0000003200C4003C00000032000608
:10124000013C000000B40083003C000080F0F0305E
:1012500030FCFC0F0FC3C30F0FC3C30F0F3C3CF098
:10126000F003030F0FFCFC30300C0C0C0C000000E2
:10127000003030FFFF00000000FFFFCFCFC0C0FCF8
:10128000FCCCCCC0C0FFFF03033030C0C0FCFCCF9F
:10129000CFFCFCCFCFFCFCF0F0000000003333FCAF
:1012A000FCFCFCFFFFFFFF333300000303030303D9
:1012B000030000000003030F0FF0F03030FCFC0FC0
:1012C0000FC3C30F0FC3C30F0F3C3CF0F003030F5A
:1012D0000FFCFC30300C0C0C0C000000003030FF18
:1012E000FF00000000FFFFCFCFC0C0CCCCCCCCC0F3
:1012F000C0CFCFFFFF3030C0C0FCFCCFCFFCFCCF55
:10130000CFFCFCF0F0000000003333FCFCFCFCFFE1
:10131000FFFFFF3333000000000C0C0F0F00000C28
:101320000C0F0F0000F0F03C3C0F0FC3C30F0FC3B6
:10133000C30F0FFCFC3030F0F0FFFF303000000036
:10134000000C0C0C0C3030FCFC0F0F03030303FFEC
:10135000FFC0C0CCCCFCFCC0C0CFCFFFFF00000062
:1013600000F0F0FCFCCFCFFCFCCFCFFCFCC0C030C9
:10137000303333FFFFFFFFFCFCFCFC333300000085
:10138000000F0F0303000000000303030303030027
:1013900000F0F03C3C0F0FC3C30F0FC3C30F0FFC93
:1013A000FC3030F0F0FFFF3030000000000C0C0C7F
:1013B0000C3030FCFC0F0F0303FFFFCFCFC0C0CCBD
:1013C000CCCCCCC0C0CFCFFFFF00000000F0F0FCC1
:1013D000FCCFCFFCFCCFCFFCFCC0C030303333FFA0
:1013E000FFFFFFFCFCFCFC33330000000000000F9B
:1013F0000F0C0C00000F0F0C0C00000000C0C0FC14
:10140000FCFCFCFFFFF3F3CCCCFCFCC0C003033FAF
:101410003F3F3FFFFFFFFF3F3F3F3F03030000C051
:10142000C0F0F0FCFCFCFCF0F0C0C00000000003C9
:10143000030F0F3F3F3F3F0F0F03030000C0C03CAF
:101440003C0C0C030303030C0C3C3CC0C003033CEA
:101450003C3030C0C0C0C030303C3C030300000012
:1014600000FFFFFFFF00000000000000000F0F0F53
:101470000F000000000000FCFC03030303FCFC0061
:1014800000000003030C0C0C0C03030000F0F00C34
:101490000C030303030C0CF0F0000003030C0C0C12
:1014A0000C03030000C0C0FCFC0C0CCFCFC3C3CFA7
:1014B000CF0C0CFCFCC0C00F0FFCFCC0C0CFCF0C8D
:1014C0000CCFCFC0C0FCFC0F0F00000000000003D9
:1014D0000303030303000000000000C0C0FCFC0C79
:1014E0000CCFCF0C0CFCFCC0C000000F0F0C0C3C50
:1014F0003C0C0C0F0F0000F7001E00008006013CA2
:10150000004A013C000080FFFFFFFFFFFFFFFFFFDD
:10151000FFFFFFFFFFFFFFFFFFFFFFFFFFFFFFFFDB
:10152000FFFFFFFFFFFFFF0000000000000000FFC3
:10153000FFFFFFFFFFFFFFFFFFFFFFFFFFFFFFFFBB
:10154000FFFFFFFFFFFFFF000000000000000000A2
:10155000000000000000000000000000000000FF8C
:10156000FFFFFFFFFFFFFFFFFFFFFFFFFFFFFFFF8B
:10157000FFFFFFFFFFFFFFFFFFFFFFFFFFFFFFFF7B
:10158000FFFFFFFFFFFFFFFFFFFFFFFFFFFFFFFF6B
:10159000FFFFFFFFFFFFFFFFFFFFFFFFFFFFFFFF5B
:1015A000FFFFFFFFFFFFFF00000000000000000042
:1015B00000000000000000FFFFFFFFFFFFFFFF0033
:1015C000000000000000000000000000000000FF1C
:1015D000FFFFFFFFFFFFFF00000000000000000012
:1015E00000000000000000FFFFFFFFFFFFFFFFFF04
:1015F000FFFFFFFFFFFFFFFFFFFFFFFFFFFFFFFFFB
:10160000FFFFFFFFFFFFFF0000000000000000FFE2
:10161000FFFFFFFFFFFFFFFFFFFFFFFFFFFFFF00D9
:1016200000000000000000000000000000000000BA
:1016300000000000000000FFFFFFFFFFFFFFFF00B2
:10164000000000000000000000000000000000009A
:1016500000000000000000FFFFFFFFFFFFFFFF0092
:10166000000000000000000000000000000000FF7B
:10167000FFFFFFFFFFFFFFFFFFFFFFFFFFFFFFFF7A
:10168000FFFFFFFFFFFFFF0F0F0F0FFFFFFFFF0F1A
:101690000F0F0F0F0F0F0F00000000FFFFFFFF0FD6
:1016A0000F0F0F0F0F0F0FFFFFFFFF00000000FFD6
:1016B000FFFFFF0000000000000000FFFFFFFF0031
:1016C000000000FFFFFFFFFFFFFFFFFFFFFFFF0F17
:1016D0000F0F0F00000000000000000000000000DD
:1016E0000000000000000000000000FFFFFFFF00FE
:1016F0000000000000000000000000FFFFFFFF0FDF
:101700000F0F0FFFFFFFFF0F0F0F0F00000000FF75
:10171000FFFFFFF0F0F0F0F0F0F0F0FFFFFFFF0050
:10172000000000FFFFFFFFF0F0F0F0F0F0F0F0F04D
:10173000F0F0F000000000000000000000000000D9
:1017400000000000000000F0F0F0F0F0F0F0F0F029
:10175000F0F0F0F0F0F0F000000000F0F0F0F0F049
:10176000F0F0F0F0F0F0F0F0F0F0F000000000F039
:10177000F0F0F0F0F0F0F0F0F0F0F0F0F0F0F00059
:10178000000000F0F0F0F0F0F0F0F0F0F0F0F0F029
:10179000F0F0F000000000F0F0F0F0F0F0F0F0F009
:1017A000F0F0F0F0F0F0F0FFFFFFFFF0F0F0F0F0FD
:1017B000F0F0F0FFFFFFFF00000000FFFFFFFFF071
:1017C000F0F0F0F0F0F0F0FFFFFFFF00000000FF8E
:1017D000FFFFFFF0F0F0F0F0F0F0F0F0F0F0F000CC
:1017E00000000000000000FFFFFFFF0000000000FD
:1017F00000000000000000FFFFFFFFF0F0F0F0F03D
:10180000F0F0F0FFFFFFFF0F0F0F0F0000000000D0
:1018100000000000000000000000000F0F0F0F008C
:10182000000000000000000F0F0F0F00000000007C
:101830000000000F0F0F0F0F0F0F0F0F0F0F0F00F4
:10184000000000000000000F0F0F0F00000000005C
:10185000000000000000000F0F0F0F00000000004C
:101860000000000F0F0F0F0000000000000000003C
:101870000000000000000033333F3F3C3C0000000C
:10188000000000000000000000CCCCCFCF3F3F00A4
:1018900000000033333F3F3C3C000000003F3F0F5F
:1018A0000F3F3F000000003F3F3F3F0F0F00000091
:1018B00000000000000000000000003F3F3C3C3CF6
:1018C0003C000000000303CCCC3F3F0000000000C0
:1018D0000000000000000000000000F0F0C3C3FFA3
:1018E000FF030300003C3CC0C0FCFC000000000003
:1018F00000FCFC000000000000FCFCCCCCCCCC00C8
:10190000000000FCFCFCFC3C3C000000000000006F
:1019100000000000000000FFFFC0C0C0C0C0C00049
:10192000000000FCFC0000000000000C0CFCFCC0EF
:10193000C000000000CCCCFCFCF0F000000000FC7B
:10194000FC0C0C000000000000F0F0F0F0FCFCFFCC
:10195000FFFFFF0F0F0F0F0F0F0F0F0F0F0F0F00D6
:10196000000000FFFFFFFF0F0F0F0F0F0F0F0FFF04
:10197000FFFFFF00000000FFFFFFFF00000000006E
:10198000000000FFFFFFFF00000000FFFFFFFF0F50
:101990000F0F0F0F0F0F0FFFFFFFFF00000000FFE3
:1019A000FFFFFF0F0F0F0F0F0F0F0FFFFFFFFF00C6
:1019B000000000FFFFFFFFFFFFFFFFFFFFFFFF0F24
:1019C0000F0F0F0F0F0F0FFFFFFFFFFFFFFFFFFFB7
:1019D000FFFFFF00000000FFFFFFFFF0F0F0F0FF4F
:1019E000FFFFFFFFFFFFFF00000000FFFFFFFFF012
:1019F000F0F0F0F0F0F0F0FFFFFFFF00000000FF5C
:101A0000FFFFFF0F0F0F0F0F0F0F0FFFFFFFFF0065
:101A1000000000FFFFFFFF0F0F0F0FFFFFFFFF0F83
:101A20000F0F0F00000000FFFFFFFFF0F0F0F0F0DD
:101A3000F0F0F0F0F0F0F000000000000000000016
:101A40000000000000000000000000F0F0F0F000D6
:101A500000000000000000F0F0F0F000000000F0D6
:101A6000F0F0F0F0F0F0F0F0F0F0F0F0F0F0F00066
:101A7000000000F0F0F0F0F0F0F0F0F0F0F0F0F036
:101A8000F0F0F000000000F0F0F0F0F0F0F0F0F016
:101A9000F0F0F0F0F0F0F0000000000000000000B6
:101AA0000000000000000000000000000000000036
:101AB000000000000000000000000000000000FF27
:101AC000FFFFFF0F0F0F0FF0F0F0F0FFFFFFFF0021
:101AD000000000FFFFFFFF0000000000000000FF0B
:101AE000FFFFFF00000000FFFFFFFFF0F0F0F0F04D
:101AF000F0F0F0F0F0F0F000000000FFFFFFFF0F4B
:101B00000F0F0F0F0F0F0F0000000000000000006C
:101B100000000000000000000000000000000000C5
:101B200000000000000000000000000000000000B5
:101B30000000000F0F0F0F00000000000000000F5A
:101B40000F0F0F000000000F0F0F0F0F0F0F0F0FE1
:101B50000F0F0F0F0F0F0F00000000000000000F0D
:101B60000F0F0F0F0F0F0F0F0F0F0F000000000FC1
:101B70000F0F0F0F0F0F0F0F0F0F0F0F0F0F0F0084
:101B80000000000000000000000000000000000055
:101B9000000000FFFFFFFF00000000000000000049
:101BA00000000000000000FFFFFFFFFFFFFFFFFF3E
:101BB000FFFFFF0F0F0F0F000000000F0F0F0FFFB1
:101BC000FFFFFF0F0F0F0F0F0F0F0F00000000FFA1
:101BD000FFFFFF0000000000000000FFFFFFFF000C
:101BE000000000FFFFFFFF0F0F0F0F0F0F0F0FFF82
:101BF000FFFFFF00000000FFFFFFFF0000000000EC
:101C000000000000000000FFFFFFFFF0F0F0F0F028
:101C1000F0F0F0F0F0F0F000000000FFFFFFFFF048
:101C2000F0F0F0F0F0F0F0F0F0F0F0000000000064
:101C3000000000FFFFFFFF000000000000000000A8
:101C4000000000FFFFFFFF0F0F0F0F0F0F0F0FFF21
:101C5000FFFFFF00000000FFFFFFFF0F0F0F0F0F40
:101C60000F0F0FFFFFFFFF00000000FFFFFFFFF05F
:101C7000F0F0F0F0F0F0F0F0F0F0F0000000000014
:101C80000000000000F0F0F0F0F0F0F0F0F0F0F004
:101C9000F0F0F0F0F000000000F0F0F0F0F0F0F004
:101CA000F0F0F0F0F0F0F0F0F000000000F0F0F0F4
:101CB000F00000000000000000F0F0F0F000000074
:101CC00000F0F0F0F0F0F0F0F0F0F0F0F0F0F0F004
:101CD000F000000000F0F0F0F0F0F0F0F0F0F0F0C4
:101CE000F0F0F0F0F0000000000000000000000044
:101CF000000000000000000000FFFFFFFF000000E8
:101D0000000F0F0F0FFFFFFFFF00000000FFFFFF9E
:101D1000FF0000000000000000FFFFFFFF000000C8
:101D200000FFFFFFFF0000000000000000FFFFFFBA
:101D3000FF00000000FFFFFFFFF0F0F0F0F0F0F018
:101D4000F0F0F0F0F000000000FFFFFFFF0F0F0FBA
:101D50000F0F0F0F0F000000000000000000000038
:101D6000000000000000000000000000000F0F0F46
:101D70000F00000000000000000F0F0F0F00000018
:101D8000000F0F0F0F0F0F0F0F0F0F0F0F0F0F0F72
:101D90000F000000000F0F0F0F0F0F0F0F0F0F0F8F
:101DA0000F0F0F0F0F00000000000000000F0F0FBB
:101DB0000F0F0F0F0F0F0F0F0F000000000F0F0F6F
:101DC0000F0F0F0F0F0F0F0F0F0F0F0F0F00000050
:101DD000000000000000006E005000830050000072
:101DE000001E00A5005000C4005000000032008317
:101DF000005000A500500000001E00C4005000F775
:101E000000500000003200A5005000C40050000047
:101E1000001E00F70050002601500000003200C4F0
:101E2000005000F700500000001E00260150005D29
:101E3000015000008036363636363636F6E6CE1E8F
:101E4000FCF8F000000080E0F83C8EE68E3CF8E004
:101E50008000000000B6B636B6B63636F6E60EFCA2
:101E6000F800F8FC0EE6F6363636363636363636B6
:101E70003600F8FC0EE6F636363636363636363668
:101E80003600F6F6363636363636F6F6C61EFEFC22
:101E9000F09B9B9B9B9B9B9BFBF1640EFFFBF100CC
:101EA000E0FC3F87F0FE8F838FFEF0873FFCE00071
:101EB00000FFFF00FFFF8080FFFF00FFFF00FFFF2C
:101EC00000FFFF80809B9B9BFBFB03FFFF00FFFF4E
:101ED00000FBFB9B9B9B9B9B9B9B9B808000FFFF36
:101EE00000FFFF1F3FFBE39B78FEDF0F030D0D0D8F
:101EF0000D0D0D0D0D0C0E0F0703010E0F030C0F32
:101F000007010D0D0D0D0D0D0C0F0F0E000F0F0C19
:101F10000D0D0D0D0D0C0E07030003070E0C0D0D1E
:101F20000D0D0D0D0D0D0C0F0F0003070E0C0D0DFB
:101F30000D0D0D0D0D0D0D0D0D000F0F000F0F00F0
:101F40000000030F0E09070F0C080B00020202012C
:101F50000009040000010202000005240010010530
:101F6000240101010424020605240600010705815D
:101F70000310004009040100020A000000070502E6
:101F80000240000007058302400000040309041218
:101F9000010002EF020140412336800001010203EB
:101FA0000141726475696E6F204C4C43004172644C
:101FB00075626F790000391A11241FBECFEFDAE085
:101FC000DEBFCDBF11E0A0E0B1E0ECEFF8E502C06C
:101FD00005900D92AC35B107D9F726E0ACE5B1E03C
:101FE00001C01D92A632B207E1F71FE0CCEDDFE0A1
:101FF00004C02197FE010E94622CCB3DD107C9F796
:102000000E947A1A0C947C2C0C940000809172012E
:102010000895EFEAF1E0A0E0B8E000800EBC811185
:10202000012C1197A0FDFDCF0192B9F70DB40895D1
:1020300090E0EFEAF1E091119FEF8FEF9193919390
:10204000919391938150D0F7EFE0F6E0128A118AD4
:10205000108A1786089590911906982329F0909177
:102060001806982381E009F080E008959C01480F4C
:10207000592F511D4138510511F440E850E0421BE1
:10208000CB018770992791E001C0990F8A95EAF7F3
:1020900077FF02C0695F7F4FFB0183E0F595E7950D
:1020A0008A95E1F7F695FE2FEE27F795E795E20F73
:1020B000F31FE155FE4F415030F08191DF01119740
:1020C000892B8C93F8CF0895FC018091AE01882371
:1020D00011F13FB7F89482E08093E9002091F2007B
:1020E000822F90E01816190614F481E090E08823FE
:1020F00039F0289844E64093AD014091F1004083C7
:10210000222339F02091F200211103C02BE6209305
:10211000E8003FBF08958FEF9FEF08952FB7F89421
:1021200083E08093E9009091E800892F807295FF09
:1021300004C09091F20080E4891B2FBF0895809124
:10214000A50181110DC082E08093A10184E08093FC
:10215000A2011092A4011092A30181E08093A50135
:1021600081EA91E00895CF93DF931F92CDB7DEB758
:102170006983DC01ED91FC910280F381E02D41E067
:1021800050E0BE016F5F7F4F09950F90DF91CF91B7
:10219000089583E08093E9008091F200882319F08C
:1021A0008AE38093E80008950E948E1090E00895DD
:1021B000CF93DF931F92CDB7DEB7FC018485958561
:1021C00097FD08C02FEF3FEF358724870F90DF91F1
:1021D000CF910895CE0101960E946410019719F4E1
:1021E000898190E0F3CF8FEF9FEFF0CF0F931F9394
:1021F000CF93DF931F92CDB7DEB78C01FC018485AE
:10220000958597FF0BC0CE0101960E94641001973F
:1022100071F4898190E0F80195878487F8018485BD
:1022200095850F90DF91CF911F910F9108958FEFBA
:102230009FEFF1CFFC018485958597FD0BC09FB77B
:10224000F89482E08093E9008091F2009FBF90E0D3
:10225000019608959FB7F89482E08093E9008091F9
:10226000F2009FBF90E0089540919B0150919C0126
:102270002091990130919A0142175307B4F490913B
:10228000E8009570E1F39091E80092FD19C0809309
:10229000F10080919B0190919C0101968F73992789
:1022A000892B19F48EEF8093E80080919B01909127
:1022B0009C01019690939C0180939B0181E008957D
:1022C00080E00895DF92EF92FF920F931F93CF93D8
:1022D000DF93D82E8A01EB017B01E40EF51ECE15AB
:1022E000DF0559F0D7FE12C0FE0184910E9434111F
:1022F00021968111F4CF0FEF1FEFC801DF91CF912D
:102300001F910F91FF90EF90DF9008958881EECF9D
:102310000F931F93CF93DF931F92CDB7DEB782E069
:10232000898342E450E069E47FE180E80E94621121
:102330000E949F10DC0112960D911C910115110550
:1023400089F0D801ED91FC910280F381E02DBE016E
:102350006F5F7F4FC801099597FD04C0F8010085A4
:102360001185ECCF89810F90DF91CF911F910F9153
:102370000895615030F02091F100FC012083019616
:10238000F8CF289884E68093AD010895AEE6B1E0D9
:102390002FB7F8947D918D919C9166B52FBFA89B26
:1023A00005C06F3F18F47F5F8F4F9F4F22E0660F8D
:1023B000771F881F991F2A95D1F70895AF92BF9272
:1023C000CF92DF92EF92FF920F931F93CF93DF9301
:1023D0006C017B018B01040F151FEB015E01AE1830
:1023E000BF08C017D10759F06991D601ED91FC9152
:1023F0000190F081E02DC6010995892B79F7C5017F
:10240000DF91CF911F910F91FF90EF90DF90CF90D0
:10241000BF90AF900895FC010E94C611319728F03B
:1024200068517C4F8F4F9F4FF9CFAB01FC010E9449
:10243000C611641775078E079F07C8F308958F921A
:102440009F92AF92BF92CF92DF92EF92FF920F9343
:102450001F93CF93DF936C017B018A0180912A0146
:10246000882309F45AC08091AE01882309F455C02D
:102470008091A00180FF05C08091E0008260809380
:10248000E000E801B12C8AEFA82E93E0892E2AE320
:10249000922E209711F4BB20C9F10E948E10811159
:1024A00008C0AA94AA20C9F181E090E00E940B1212
:1024B000F0CF8C171D0611F00CF08C2F9FB7F894FD
:1024C0008092E9002091E80025FD02C09FBFE1CF86
:1024D000282F30E0C21BD30BF701815020F041912F
:1024E0004093F100FACFE20EF31EBB2021F0909250
:1024F000E800B12CEBCF8091E80085FDE7CF90920A
:10250000E800BB24B394209709F3F3CF5D9884E6E9
:1025100080939F01101611063CF081E090E0F601D7
:102520009383828310E000E0C801DF91CF911F9177
:102530000F91FF90EF90DF90CF90BF90AF909F9062
:102540008F90089520916301E0916101F091620103
:10255000CF0102969093620180936101222319F0CA
:10256000859194910895808191810895CF92DF9211
:10257000EF92FF92CF93DF930E94A212811520E881
:10258000920791F4809171008D7F80937100109279
:1025900091004698479810926001DF91CF91FF908B
:1025A000EF90DF90CF90089521E02093600181307B
:1025B00020E8920751F480915E0190915F01909321
:1025C0006201809361010E94A21297FD05C02091D3
:1025D0005D01222309F454C020915C01211150C0F7
:1025E00021E020936401EC01DF77209709F04BC0D4
:1025F00081E08093650146983FE9C32E3FE0D32EEA
:10260000E12CF12CCAEFD0E0E0910D06F0910E061E
:102610000995811103C081E0809365018091640177
:10262000882329F080916501882309F43FC04798E9
:102630000E94A2120097F1F19C01DE010E949A29EA
:10264000DC01CB0129E0B595A795979587952A954B
:10265000D1F7109290002AE020939100D092990037
:10266000C09298008093660190936701A0936801DF
:10267000B0936901809171008260809371008DCF69
:1026800010926401B0CF9E0150E040E060E472E43B
:102690008FE090E00E94462969017A0181E0C81A22
:1026A000D108E108F10810926501AECF4699BFCF7D
:1026B000479ABECF8FEF9FEFDC01CBCF9C01E1E7C4
:1026C000F0E090819D7F908381E08093630130935F
:1026D00062012093610130935F0120935E010C94AD
:1026E000B6122D9A08950C940B120E945819089551
:1026F00020E191E061FD94E060FD990F62FD92950B
:10270000687F269FD0011124A80FA155BE4F8C9140
:1027100040FF03C0892B8C93089590958923FBCFAC
:10272000DF92EF92FF920F931F93CF93DF937C0181
:10273000D22E8B01040F111DEB0177FF02C0D0E0F8
:10274000C0E0C8010134110514F080E490E0C8171E
:10275000D9075CF480E8E816F10428F44D2DBE0199
:10276000C7010E9478132196ECCFDF91CF911F9182
:102770000F91FF90EF90DF900895CF92DF92EF924C
:10278000FF920F931F93CF93DF936B01122FEC01F6
:102790007C01E40EF11CCE15DF0544F4202F412FFF
:1027A000B601CE010E9490132196F5CFDF91CF9113
:1027B0001F910F91FF90EF90DF90CF900895EF92CF
:1027C000FF920F931F93CF93DF937C018B01C42F54
:1027D000D22F0E943610B8016D0F711D6150710922
:1027E0006034710521F04C2FC7010E94361021E0A2
:1027F0004D2FB801C7010E949013C7018C0F911D86
:1028000021E04D2FB8010197DF91CF911F910F91DA
:10281000FF90EF900C9490132F923F924F925F9203
:102820006F927F928F929F92AF92BF92CF92DF92E0
:10283000EF92FF920F931F93CF93DF93CDB7DEB745
:1028400028970FB6F894DEBF0FBECDBF9E838D8351
:102850006A3061F5DC0155968C91B8E08B9F900150
:102860001124ED81FE8181899289820F931F928BC1
:10287000818B108A178681E090E028960FB6F89435
:10288000DEBF0FBECDBFDF91CF911F910F91FF90A3
:10289000EF90DF90CF90BF90AF909F908F907F9000
:1028A0006F905F904F903F902F9008956D3019F387
:1028B0002D813E8138872F83D9011F960D911C9160
:1028C0005097003811050CF07CC05196AD90BC902B
:1028D000B0E4AB16B1040CF074C0F901258825E012
:1028E000C801229E800D911D1124181619060CF0A6
:1028F00068C0622C712CC30133E0880F991F3A9590
:10290000E1F78A0D9B1D181619060CF05AC0F489C0
:10291000FB83AF81B8855396BC91BC83629FB001A5
:102920001124FB01E659FD4F2F011982F201849118
:10293000F981F53009F480E0450128E02A83A82FC9
:10294000B0E0BE83AD833C8080FF3B80311004C08B
:10295000BB81EC81BE17F9F078018E2D801B8215AA
:10296000D0F4D12CC12CC21490F4F0E8EF16F1048D
:1029700050F4B601680D791D6034710520F4432DC3
:10298000C7010E9478132FEFC21AD20AECCF3FEF93
:10299000E31AF30AE2CF8D819E81959587959A81FE
:1029A00091509A83860C971C9111C9CFA981AF5F72
:1029B000A983BFEF4B1A5B0A060D171DA63009F05D
:1029C000B5CFEF81F8852589422F50E08785908922
:1029D000F6E02F9F800D911D1124AF81B885509690
:1029E0009C938E931F9756962C915697222309F409
:1029F00042CF6AEF64039001659F300D1124205887
:102A00003F4F281739070CF036CFED91FC91119705
:102A10000190F081E02D6AE0CD0109952CCF2F9235
:102A20003F924F925F926F927F928F929F92AF925E
:102A3000BF92CF92DF92EF92FF920F931F93CF93AB
:102A4000DF9300D000D0CDB7DEB76E2C30E0F901B7
:102A5000E80FF91FF7FD90C0803891050CF08CC08D
:102A6000402E512CF201E60FF71FF7FD85C06034B0
:102A700071050CF081C0E62FE7707E2EE3E05594DF
:102A80004794EA95E1F7F3E075956795FA95E1F7D4
:102A9000A62E660FBB08B5017695762F662777952B
:102AA0006795680F791F61557E4FDA0110E000E0ED
:102AB0007801EA0CFB1CF8E0EF16F1040CF05CC0A6
:102AC0004FEFE416F4060CF44DC09C838B8350E06A
:102AD00040E04B01F0E88F0E911CCB80DC80D7FCEE
:102AE00031C0FD01E40FF51FE491F0E06F01072C08
:102AF00002C0CC0CDD1C0A94E2F7DA82C982EFEF47
:102B0000EE16FE0609F456C06B01C40ED51EF60182
:102B10003080F1E06F1247C0E9813E2AF601308231
:102B2000772081F0F7E0EF16F10461F06401C40E44
:102B3000D51EF6013080F1E0EA816F1238C03E2ADE
:102B4000F60130824F5F5F4FEB81FC813196FC8351
:102B5000EB834217530734F4EB81FC81E038F10535
:102B600009F0BBCF0F5F1F4F60587F4FA20FB31FFD
:102B70004016510609F09CCF0F900F900F900F90C8
:102B8000DF91CF911F910F91FF90EF90DF90CF9049
:102B9000BF90AF909F908F907F906F905F904F907D
:102BA0003F902F900895298020943220B7CFE09550
:102BB0003E22C6CF7110BACFC5CF0895089590E0D8
:102BC00080E00895EF920F93CF93DF938091890176
:102BD00090918A0120911C01222309F45FC0019683
:102BE00090938A01809389018091890190918A0153
:102BF000449724F010928A011092890180918901F2
:102C000090918A0197FF06C083E190E090938A013A
:102C100080938901C0918901D0918A01C530D10585
:102C200084F46091170170911801EE24E39400E19F
:102C300020E14DEF53E18091190190911A010E941A
:102C40000F15CE010597059780F4609117017091DB
:102C50001801EE24E39400E120E14AE452E080917F
:102C6000190190911A010E940F15CE010A9705973C
:102C7000B8F46091170170911801EE24E39400E11B
:102C800020E14AE252E08091190190911A010E94DC
:102C90000F15DF91CF910F91EF9008950197A0CF7D
:102CA0002F97BCF36091170170911801EE24E39403
:102CB00000E120E14AE052E0E6CFEF920F93FC0101
:102CC000CB01EA30F105B8F4BA01E359F94EEE242C
:102CD000E39400E120E10C94622C77167E168116B5
:102CE000841687168A168D169016931696164AEE37
:102CF00051E00E940F150F91EF9008954AEC51E0BA
:102D0000F8CF4AEA51E0F5CF4AE851E0F2CF4AE67F
:102D100051E0EFCF4AE451E0ECCF4AE251E0E9CF95
:102D20004AE051E0E6CF4AEE50E0E3CF4AEC50E013
:102D3000E0CF0C9430291F920F920FB60F921124FE
:102D40008F939F938091E1009091E100937F909306
:102D5000E10083FF0FC01092E90091E09093EB0037
:102D60001092EC0092E39093ED001092AE0198E087
:102D70009093F00082FF22C093E09093E90090913D
:102D8000F200992319F09AE39093E80090919F0143
:102D9000992341F090919F01915090939F0191113F
:102DA00001C05D9A9091AD01992341F09091AD01E0
:102DB00091509093AD01911101C0289A84FF18C0E1
:102DC0008091E2008E7E81608093E2008091E1003C
:102DD0008F7E8093E1008091A0018E7E8061809340
:102DE000A0019F918F910F900FBE0F901F9018958B
:102DF00080FFF7CF8091E2008E7E80618093E200B9
:102E00008091E1008E7E8093E1008091A0018E7E12
:102E10008160E5CF1F920F920FB60F921124CF92CF
:102E2000DF92EF92FF920F931F932F933F934F9355
:102E30005F936F937F938F939F93AF93BF93EF9322
:102E4000FF93CF93DF93CDB7DEB76C97DEBFCDBFD7
:102E50001092E9008091E80083FF25C068E0CE0170
:102E600045960E94B91182EF8093E8008D8987FF13
:102E700039C09091E80090FFFCCF982F907609F030
:102E800034C19E894F89588D2F89F88C911131C09A
:102E9000803861F580919E018093F1001092F100DD
:102EA0008EEF8093E8006C960FB6F894DEBF0FBEED
:102EB000CDBFDF91CF91FF91EF91BF91AF919F91E6
:102EC0008F917F916F915F914F913F912F911F91C2
:102ED0000F91FF90EF90DF90CF900F900FBE0F906B
:102EE0001F9018959EEF9093E800C7CF1092F100C5
:102EF000D5CF913059F48111D3CF4130510581F6AE
:102F000080919E018D7F80939E01CACF933049F4BA
:102F10008111C6CF4130510519F680919E01826022
:102F2000F2CF953041F48091E80080FFFCCF20681B
:102F30002093E300B5CF963009F0A9C00B8D1C8D0E
:102F400022E01092E90010929C0110929B01F21273
:102F50002EC010929A01109299010E9488111F822E
:102F600099E09983FA8291E09E8390EA98879AEF9C
:102F7000998720919B0130919C01275F3F4F3C83B3
:102F80002B838D831092E90010929C0110929B017B
:102F900010939A010093990149E050E0BE016F5FE0
:102FA0007F4F80E00E9462110E94881179CF1093B8
:102FB0009A01009399010E949F10DC0112960D91D5
:102FC0001C910115110509F410C1D801ED91FC9176
:102FD0000480F581E02DBE016B5E7F4FC80109952D
:102FE000009709F0FDC0F80100851185EACFF3E0F4
:102FF000FF120EC08F89882309F440C0823061F42B
:1030000040E867E08DEA9FE10E94C119811148CF35
:1030100081E28093EB0047CF813029F440E86BE0F8
:1030200081EA9FE1F1CF833099F70E949F10DC0184
:103030001296ED90FC908E010F5F1F4F6801E11416
:10304000F10479F0D701ED91FC910680F781E02D34
:10305000B801C7010995080F111DF701E084F1843B
:10306000EECFD8011C92F60101900020E9F73197CC
:10307000BF016C197D0940E0C601C6CF6BE87FE156
:10308000FB01449150E080E80E94621109CF973023
:1030900009F4BECF983021F481E08093F10000CF95
:1030A000993009F0FDCE837009F0B2CFE0E3F1E092
:1030B00081E031E096E32191222371F08093E900D1
:1030C0003093EB00DF0111972C912093EC0090934B
:1030D000ED008F5F873079F78EE78093EA001092DA
:1030E000EA008F898093AE01DBCE8B8D9C8D109290
:1030F000E90010929C0110929B0190939A01809399
:103100009901898D811151C08E899D89913A49F427
:10311000813209F07DCF47E050E063E271E080E06A
:10312000B3CF913209F074CF833269F48F89988DCF
:10313000B0E0A0E080931F0190932001A0932101B3
:10314000B0932201ADCE803269F48091E80082FF15
:10315000FCCF67E083E291E00E94B9118BEF80938E
:10316000E8009ECE823209F09BCE8F8980932A019F
:103170008091230190912401A0912501B091260115
:10318000803B9440A105B10569F480912A0180FD3E
:1031900009C088E780939D01809164008F7D8093B2
:1031A00064007ECE10929D017BCE0E949F10DC01B8
:1031B00012960D911C910115110509F429CFD80122
:1031C000ED91FC910190F081E02DBE016B5E7F4F8F
:1031D000C8010995811164CEF80100851185EBCFF6
:1031E000181619060CF45CCE13CFF1E0FF12FFCED7
:1031F0006FE87FE145CF0F930FB70F931F92112414
:103200008F939F93EF93FF93E3E7F1E080916D013C
:1032100091E08D5F8D3710F08D57939580936D0100
:103220008081890F80839181911D91830281011D8D
:1032300002838381811D838309270F7009270295EB
:1032400000936C0135D0811100936A01803989F4B3
:1032500000916B01901B963070F087E78093000817
:103260008093010888E198E080936000909360006B
:10327000FFCF90936B0180919D01815018F0809356
:103280009D0159F3EEE6F1E0808191810196808302
:10329000918382819381811D911D82839383FF910C
:1032A000EF919F918F911F900F910FBF0F911895E4
:1032B0008FB18095807F669B88601C9B8460089599
:1032C0001F920F920FB60F9211242F933F934F939B
:1032D0005F936F937F938F939F93AF93BF93EF937E
:1032E000FF938091660190916701A0916801B09170
:1032F0006901892B8A2B8B2B09F440C080916501D1
:1033000081110BC088B190E4892788B9809164014C
:10331000882319F088B1805888B98091660190910E
:103320006701A0916801B0916901181619061A0683
:103330001B069CF48091660190916701A091680141
:10334000B09169010197A109B10980936601909339
:103350006701A0936801B0936901FF91EF91BF915C
:10336000AF919F918F917F916F915F914F913F911D
:103370002F910F900FBE0F901F9018950E94B612BC
:10338000ECCFEF92FF920F931F93CF93DF93F82E22
:10339000192FE62E042F81E0860F880F0E9434112A
:1033A00083E00E943411CF2DD12FEC0EFD2EF11CA5
:1033B000CE15DF05B9F007FF13C0FE0184910E940E
:1033C0003411182F80E00E9434118123219681113D
:1033D000EFCFDF91CF911F910F91FF90EF90089564
:1033E0008881EDCF81E0F5CF0F931F93CF93DF93CB
:1033F0008C0181E090E00E94991680FF32C08AE043
:1034000090E00E9499169FEF980F9E3F50F522E39F
:1034100030E0D80150963C932E931F9728E330E07C
:1034200052963C932E935197CBE0D0E0D801ED918A
:10343000FC910190F081E02D682FC8010995CE0123
:103440000E9499162196C131D10581F780E00E9432
:10345000091088EE93E0DF91CF911F910F910C94AA
:103460007313DF91CF911F910F91089504970C94DE
:10347000F419EFEAF5E01382128288EE93E0A0E0FF
:10348000B0E084839583A683B7838AE391E0918338
:1034900080838FEF9FEF95878487EFE0F6E01382BC
:1034A00012821186128680E1838710861782158624
:1034B0008CE491E0918380838AE591E09583848315
:1034C000108A1786128A118A81E0838B148A858B71
:1034D000168A86E090E190930E0680930D0680E0B8
:1034E00090E890930C0680930B0646983E9A479876
:1034F0003F9A0895CDB7DEB72597DEBFCDBF78944C
:1035000083E084BD83E085BD81E080936E00E1E8C7
:10351000F0E083E08083E0E881E08083E1E983E01C
:103520008083E0E981E08083E1EC87E08083E3EC65
:1035300081E08083E0EC82E08083E2EC81E08083C4
:10354000EAE787E08083806880831092AE01109262
:103550009E011092A0018091D70081608093D700D6
:1035600080EA8093D80089B5806189BD89B5826081
:1035700089BD09B400FEFDCF81E090E00E940B12EE
:103580008091D8008F7C80618093D8008091E0008A
:10359000807F8093E0008091E1008E7E8093E10047
:1035A0008DE08093E200559A209A81EC80937C0014
:1035B00081EF85B987EE84B984E38BB984EF8AB94A
:1035C000769A6E9880EF81BB10BA80E58CBD81E061
:1035D0008DBD85E090E00E9473135F9902C05F9AF1
:1035E000F8CF5C98EAE1F8E09DE085918EBD00009F
:1035F0000DB407FEFDCF8EB59A95B9F75C9A81E8B8
:103600008093640081E0809365000E9409100E940D
:10361000751387FF11C05C9885EA8EBD00000DB45C
:1036200007FEFDCF8EB55C9A2E982F982D9881E0DD
:1036300083BF889513BEFCCF0E94751382FF48C0DC
:103640002D980E94751384788438E1F40E947113D8
:1036500088EC90E00E9473132F9882E090E00E9423
:1036600030298F3F29F06FEF82E090E00E943829E7
:1036700084EF91E00E9473132F9A0E94751384784F
:103680008438D9F30E94751384718431E1F40E9467
:10369000711388EC90E00E9473132E9882E090E002
:1036A0000E943029882329F060E082E090E00E94A7
:1036B000382984EF91E00E9473132E9A0E947513AB
:1036C00084718431D9F388EC90E00E947313B4CFF5
:1036D0000E94711382E090E00E949916882309F4F9
:1036E00040C03E9A3F9A81E08093720181E090E071
:1036F0000E949916182F147081FF0EC011112E9878
:1037000020EF3FEF3A8329830E94751386FF2EC076
:103710002E9A2F9A0E94711382E390E00E947313F5
:103720000E9475138111F8CF80E180931A0622243C
:103730002394312C9091730180911B06792F781B73
:10374000872F20911C06222309F448C070931D0680
:1037500010921C0680E090E0892B61F30E9400002B
:10376000E6CF109272013E983F98C0CF112339F0F6
:1037700049815A814430510511F42E9A2F9881E0E5
:103780000E940910EE24E39400E128E54AE657E0A0
:1037900069817A8184E190E00E940F1580E00E94A7
:1037A00009108FE090E00E94731369817A816F5F46
:1037B0007F4F7A8369836931710509F0A5CF1123A1
:1037C00011F02F9A2D9880E991E00E9473130E94C6
:1037D00071138FE096E00E94F4199ECF20911A0693
:1037E000721748F48F5F821708F0B4CF81E083BF6F
:1037F000889513BEAFCF81E080931C0690931B0683
:103800008091160690911706019690931706809363
:10381000160680911806809319060E9475138093EE
:1038200018060E941810E0911D01F0911E013196BA
:10383000E730F10508F03FC0E05EF34E0C94622CD7
:10384000271C5F1C5B1D9C1D00250A262D270E943E
:103850001810EE24E39404E12CE545E35EE166E113
:1038600070E082E190E00E940F1580E00E94091054
:1038700087ED9DE10E945E1360E070E180E090E0E2
:10388000AB01FC010E94C61141505109E109F10947
:1038900028F068517C4F8F4F9F4FF6CFAB01FC0152
:1038A0000E94C611641775078E079F07C8F3109210
:1038B0001E0110921D0180E00E9409104BCF7091F3
:1038C00098017983EE24E39404E224E743E95BE181
:1038D000711102C04FE459E170E060E086E090E0D1
:1038E0000E940F15EE24E39400E124E747E658E137
:1038F00060E370E086E090E00E940F15898100E0AF
:1039000020E140E164E170E0882309F4BEC084E274
:1039100090E00E94BD138091160644E150E064E2FD
:1039200070E080FFBEC00E94751387FF0EC08091BB
:10393000190682FD0AC08091180682FF06C099818F
:103940009111B6C081E08093980188E00E942B100D
:10395000882309F4B0CF30921E0120921D0181E02E
:1039600080931C011092950180931B011092940189
:10397000E6E1F0E0F0931A01E09319012AE230E069
:103980003093180120931701F0931601E09315016D
:103990004AE450E0509314014093130164E570E051
:1039A00070931201609311013093100120930F0165
:1039B000ECE3F0E0F0930E01E0930D012EE230E035
:1039C00030930C0120930B01F0930A01E09309015D
:1039D00022E030E030930801209307018093060134
:1039E0001092930110929201109291011092900105
:1039F00010928F0110928E0110928D0110928C0105
:103A000010928B0110928A01109289011092880104
:103A1000109287018EE590E0909305018093040158
:103A20008EE090E090930301809302011092860152
:103A300010928501109284011092830110928201EC
:103A4000109281011092800110927F0110927E01EC
:103A500010927D0110927C0110927B0110927A01EC
:103A60002FB7F89460917301709174018091750182
:103A7000909176012FBF611571058105910511F0B7
:103A80000E9427291092790116CF8EE290E00E94C1
:103A9000BD138091160680FD46CF44E150E06EE2F2
:103AA00070E080919601909197010E945D163BCF46
:103AB000109298014ACFEE24E39404E220E647E80E
:103AC00056E16CE170E084E090E00E940F15809177
:103AD000160680FD10C08091000190910101823096
:103AE0009105B1F08330910501F100E220E247E059
:103AF00056E1019799F088E00E942B10882309F481
:103B0000DACE82E090E090931E0180931D01D3CE27
:103B1000EE24E39400E220E247E855E168E070E03B
:103B200088E590E00E940F15E6CFEE24E39400E2D2
:103B300020E247E055E1F2CF80918101909182012E
:103B400001969093820180938101CC976CF08091D3
:103B50007F019091800101969093800180937F0175
:103B6000109282011092810180917F0190918001D9
:103B7000CC976CF080917D0190917E01019690939D
:103B80007E0180937D011092800110927F018091CF
:103B90009601909197018130910599F082309105BD
:103BA00061F0892B69F580917F0180FD29C08091AA
:103BB000810190918201019719F581E080938F0135
:103BC0001FC020917F0130918001C90163E070E046
:103BD0000E944E2C892B31F48091810190918201B9
:103BE000019759F3C901019763E070E00E944E2CE0
:103BF000892B31F480918101909182014F97E9F2F4
:103C000080918301909184010196843191050CF09B
:103C10007EC19093840180938301809104019091EF
:103C200005012091190130911A01AC014B50510945
:103C3000241735070CF444C00796821793070CF439
:103C40003FC020911701309118018091020190919D
:103C50000301AC0147505109241735078CF1079631
:103C6000821793076CF10E94D82820E730E040E0EB
:103C700050E00E9446296E5F7F4F8F4F9F4F709399
:103C80000501609304010E94D8282CE230E040E056
:103C900050E00E9446296E5F7F4F8F4F9F4F709379
:103CA0000301609302018091850190918601019644
:103CB00090938601809385018DEF94E10E945E13BD
:103CC000009117011091180180919801882309F43F
:103CD00025C10E94751386FF08C00A32110529F418
:103CE00081E080931C01809379010E94751385FF08
:103CF00008C00A32110529F410921C0181E080935A
:103D0000790180917901882371F080911901909156
:103D10001A0120911C01222309F4FEC002969093FF
:103D20001A01809319010E94751384FF05C00A329D
:103D3000110514F0109279018091190190911A01E6
:103D40008E36910544F0109279018EE690E09093C2
:103D50001A01809319018091190190911A0103971A
:103D600044F41092790182E090E090931A018093DC
:103D700019010A321105A9F48091190682FD11C0BA
:103D80008091180682FF0DC081E0809394018CEF32
:103D90009FEF90938E0180938D0187EF94E10E94B5
:103DA0005E1380919401882309F120918D01309157
:103DB0008E018091170190911801820F931F9093AB
:103DC00018018093170180918B0190918C010196CD
:103DD00090938C0180938B0183709927892B31F408
:103DE0002F5F3F4F30938E0120938D0184E00E941E
:103DF0002B10882369F080918D0190918E0197FF9F
:103E000007C001969595879590938E0180938D01BB
:103E100080911701909118018B9764F08AE290E0ED
:103E200090931801809317011092940110928C01C5
:103E300010928B018091160680FD1AC08091850139
:103E4000909186016AE070E00E944E2C9B019A835B
:103E5000898348E150E06EE270E0C9010E945D167E
:103E600048E150E062E470E089819A810E945D1629
:103E700010919801112309F49CC0409102015091C6
:103E800003015A834983C0900401D09005018091B9
:103E9000160680FD0BC0EE24E3940EE02EE04BED01
:103EA00054E169817A81C6010E940F1569817A8186
:103EB00062507109E12C02E122E145EA54E1C601B8
:103EC00002970E940F1520911701309118013A8333
:103ED00029832A3231050CF0DCC1112309F4C2C058
:103EE000C0901901D0901A01EE24E39400E120E182
:103EF0004DE354E169817A81C6010E940F15E12CDE
:103F000020E14DE154E169817A81C601FDC1109241
:103F100084011092830181CE029701CF0E94751314
:103F200086FF19C02091190130911A013A83298323
:103F30000E94751385FD0FC081E080931C010E94D3
:103F4000751384FF24C049815A814D5F5F4F5093A0
:103F50001A01409319010E94751385FFEDCE8091DF
:103F6000190190911A019A8389830E94751386FD25
:103F7000E3CE10921C010E94751384FF11C0E981E9
:103F8000FA813397F0931A01E0931901D5CE698134
:103F90007A816E5F7F4F70931A0160931901DBCFB6
:103FA00029813A812250310930931A012093190155
:103FB000C3CE809177019091780101968C31910563
:103FC0000CF04BC09093780180937701609177015A
:103FD000709178017A8369836730710584F4609108
:103FE000020170910301EE24E3940CE02CE04DE813
:103FF00054E180910401909105010E940F1589817F
:104000009A810797079720F089819A81459784F0D4
:104010006091020170910301EE24E3940CE02CE026
:1040200045E754E180910401909105010E940F152C
:10403000E981FA813E97379708F045CF60910201F8
:1040400070910301EE24E3940CE02CE04DE554E183
:10405000809104019091050134CF10927801109263
:104060007701B4CF0E94E21520E440E870E060E000
:1040700090E080E00E94DF132EE34EE761E070E005
:1040800081E090E00E94DF1380918501909186018C
:104090008097ACF0809100019091010123E030E025
:1040A00030931E0120931D0110928601109285010C
:1040B000039709F026C287ED91E10E945E1380917B
:1040C0000001909101018230910509F487C283308B
:1040D000910509F454C3019709F0EDCB80911501C6
:1040E0009091160120919501222309F40DC20196A9
:1040F00090931601809315018091150190911601FE
:104100008C3691050CF402C210929501C090960174
:10411000D090970182E0C80ED11C0D2C000CEE0847
:10412000FF0880911B01882309F4F7C1C114D10451
:10413000E104F10439F00E94D828A70196010E94F9
:1041400046296B018091130190911401C80ED91E6C
:10415000D0921401C0921301809113019091140127
:10416000803791050CF4F4C110921B0120911901C4
:1041700030911A01AC014D50510924173507A4F0B4
:104180000B968217930784F0809117019091180184
:10419000879754F084E090E090931E0180931D0176
:1041A00083E991E10E945E138091150190911601BF
:1041B0002091190130911A01AC014D505109241779
:1041C0003507ACF00F96821793078CF0809117019A
:1041D000909118010796479750F484E090E09093EF
:1041E0001E0180931D0183E991E10E945E13C0903E
:1041F0008301D090840140911501509116015A839A
:10420000498380919501EE24E3940CE022E1882318
:1042100009F4B3C15AE0C516D1040CF0A1C14FE6B0
:1042200051E166E070E089819A810E940F15E12CCE
:1042300022E14BE451E166E070E089819A810E94BD
:104240000F1580911301909114019A8389838091B5
:104250001B01EE24E3940AE02EE0882309F4ABC1AD
:1042600047E550E19AE0C916D10414F04FE150E15E
:1042700064E370E089819A810E940F15E12C2EE0A1
:104280004BE350E164E370E089819A810E940F154D
:1042900012CB0E94751384FF3AC08EE290E0909397
:1042A0001801809317011123D9F040911901509101
:1042B0001A015A834983EE24E39400E120E14DE39F
:1042C00054E16EE270E089819A810E940F15E12C21
:1042D00020E14DE154E16EE270E089819A8114C0E1
:1042E0000E94751385FDBECE0E94751386FDBACE61
:1042F000EE24E39400E120E14DEF53E16EE270E043
:104300008091190190911A010E940F15ADCE8AE299
:1043100090E09093180180931701609119017091BA
:104320001A017A83698380911C01882309F4C8C526
:104330000E94751386FF53C0112379F1E12C04E12B
:1043400020E14DEC53E16AE270E089819A810E949C
:104350000F15EE24E39408E124E141E953E168E21A
:1043600070E089819A8102970E940F15809116064C
:1043700080FD7ACE01E022E042E06CE370E08981CA
:104380009A810E94BD1322E042E06CE370E08981D3
:104390009A8106960E94BD1367CE80918701909105
:1043A0008801019684319105ACF490938801809343
:1043B00087018091870190918801EE24E39404E1C4
:1043C00020E141E653E10A9714F04DEC53E16AE233
:1043D00070E083CF1092880110928701EACF10928B
:1043E000880110928701112359F1C980DA8072E0A7
:1043F000C71AD10880917901E12C04E120E14DEC4C
:1044000053E16AE270E0882371F089819A810E9409
:104410000F15EE24E39408E124E141E953E168E259
:1044200070E0C601A1CF89819A810E940F15EE2408
:10443000E39408E124E145E253E168E270E065CDF0
:10444000EE24E39404E120E1C0CF112371F1E12CCB
:1044500004E120E145EF52E16AE270E089819A814E
:104460000E940F15EE24E39408E124E149EB52E1A8
:1044700068E270E089819A8102970E940F1580910D
:10448000160680FDF1CD01E022E042E06CE370E031
:1044900089819A8108960E94BD1322E042E06CE374
:1044A00070E089819A810E9675CF809187019091F5
:1044B0008801019684319105A4F49093880180933A
:1044C00087018091870190918801EE24E39404E1B3
:1044D00020E149E852E10A970CF479CF45EF52E127
:1044E00076CF1092880110928701EBCF24E14DE442
:1044F00052E168E270E008CFEE24E39404E120E1A9
:10450000EDCF81EB91E1D9CD0197F2CD02970CF07F
:10451000FDCD81E080939501F9CDE0911301F091FB
:104520001401FA83E983C114D104E104F10439F0E0
:104530000E94D828A70196010E9446296B01298173
:104540003A812C193D09309314012093130104CEB4
:10455000823091050CF00ACE21E020931B0106CE9B
:1045600047E251E166E070E089819A810E940F156F
:10457000E12C22E143E051E15ECE6AE0C616D104AF
:104580006CF44FED50E166E070E089819A810E9401
:104590000F15E12C22E14BEB50E14DCE47E950E104
:1045A00066E070E089819A810E940F15E12C22E17A
:1045B00043E750E140CE43E050E1EAE0CE16D104BB
:1045C00014F04BEC5FE064E370E089819A810E9413
:1045D0000F15E12C2EE047EE5FE054CE20918F01C5
:1045E000222371F080911101909112013091060106
:1045F000332309F4ACC00296909312018093110109
:104600008091110190911201823091050CF0A1C0AE
:1046100081E08093060180910F01909110018A97AB
:1046200061F4222351F08CEF9FEF909393018093DC
:10463000920185EC9FE00E945E1380918F01882398
:1046400009F1209192013091930180910F01909195
:104650001001820F931F9093100180930F0180919E
:104660009001909191010196909391018093900116
:1046700083709927892B31F42F5F3F4F309393013B
:104680002093920180910F01909110018A9784F0FC
:104690008AE290E09093100180930F0110928F01B5
:1046A0001092910110929001109293011092920138
:1046B00080911101909112012091190130911A01FC
:1046C000AC014D5051092417350704F1419682176A
:1046D0009307E4F080910F01909110012091170150
:1046E00030911801AC014F5E5F4F4217530774F0D1
:1046F0000D972817390754F084E090E090931E013D
:1047000080931D0183E991E10E945E13C0900F0127
:10471000D090100120911101309112013A83298328
:10472000EE24E3943AE2C316D104D1F404E124E187
:1047300049E85FE06AE270E089819A810E940F1582
:10474000E12C24E14DE45FE06AE270E09DCD029748
:1047500053CF8B3691050CF45ECF109206015BCFE0
:1047600008E124E141E15FE0B60189819A810E947C
:104770000F15E12C24E145ED5EE0B60185CD809179
:104780000D0190910E012091190130911A01AC0197
:104790004B5051092417350704F10B9682179307E4
:1047A000E4F080910B0190910C0120911701309160
:1047B0001801AC01455F5F4F4217530774F00B9728
:1047C0002817390754F084E090E090931E018093FD
:1047D0001D0183E991E10E945E138091090190918E
:1047E0000A012091190130911A01AC014B50510975
:1047F0002417350704F10B9682179307E4F0809194
:104800000701909108012091170130911801AC0126
:10481000455F5F4F4217530774F00B97281739070E
:1048200054F084E090E090931E0180931D0183E991
:1048300091E10E945E1380917B0190917C01019730
:104840002091960130919701821B930B20917A0160
:1048500021115DC397FDC3C090937C0180937B01C0
:1048600000917B0110917C01B801012E000C880B96
:10487000990B0E94C52A2BED3FE049E450E40E94C9
:10488000902B20E030E044E353E40E941B2A4B01CC
:104890005C010E94162A2B013C0160910D01709170
:1048A0000E01072E000C880B990B0E94C52A6B0184
:1048B0007C0120E030E040E352E4C301B2010E94F9
:1048C000902B9B01AC01C701B6010E94AA290E944E
:1048D0008D2A6B017A83698370930A0160930901C1
:1048E000C501B4010E94FD2B2B013C0160910B011D
:1048F00070910C01072E000C880B990B0E94C52AA1
:104900004B015C0120E030E040E352E4C301B2011E
:104910000E94902B9B01AC01C501B4010E94AA2901
:104920000E948D2A709308016093070141E0C41A28
:10493000D1085FE6C516D10430F4615071096F32B9
:10494000710508F4A8C381E080937A010C541F4FCD
:1049500010937C0100937B0149815A81141615063E
:1049600054F08FEC9EE00E945E1382E090E0909302
:104970000A01809309018091090190910A01803711
:10498000910554F08FEC9EE00E945E138EE690E05D
:1049900090930A0180930901809107019091080189
:1049A0001816190654F08FEC9EE00E945E1382E008
:1049B00090E0909308018093070180910701909106
:1049C0000801C0970CF467C38FEC9EE00E945E1351
:1049D0008EE290E090930801809307015CC387E624
:1049E00091E03ACF00E120E14DE354E1B601898145
:1049F0009A810E940F15E12C20E14DE154E1BDCEDA
:104A0000EE24E39400E12CE447EF5DE066E070E023
:104A100086E090E00E940F158091160680FD0AC086
:104A200046E050E06AE670E080910001909101015B
:104A30000E945D164AE250E066E070E080917D01E0
:104A400090917E010E945D16EE24E39400E120E146
:104A500047ED5DE06AE270E08AE190E00E940F15A8
:104A600080917F01909180016AE070E00E944E2C5D
:104A70009B019A8389834AE250E06EE270E0C901AB
:104A80000E945D164AE250E062E470E089819A81FA
:104A90000E945D1620E147EB5DE06AE270E086E58A
:104AA00090E00E940F15809181019091820166E053
:104AB00070E00E944E2CCB014AE250E06AE670E0C2
:104AC0000E945D1688E00E942B10882311F40C943C
:104AD0005B1C81E080931C011092950180931B0167
:104AE00010929401E6E1F0E0F0931A01E0931901CD
:104AF0002AE230E03093180120931701F093160159
:104B0000E09315014AE450E05093140140931301DF
:104B100064E570E07093120160931101309310010D
:104B200020930F01ECE3F0E0F0930E01E0930D0110
:104B30002EE230E030930C0120930B01F0930A0138
:104B4000E093090122E030E030930801209307014F
:104B5000809306011092930110929201109291019C
:104B60001092900110928F0110928E0110928D017F
:104B700010928C0110928B0110928A01109289017F
:104B800010928801109287018EE590E090930501C4
:104B9000809304018EE090E09093030180930201E2
:104BA0001092860110928501109284011092830167
:104BB000109282011092810110927A011092790173
:104BC00080910001909101018330910561F485E0AD
:104BD00090E090931E0180931D013092010120927C
:104BE00000010C945B1C30921E0120921D0181304B
:104BF000910531F430930101209300010C945B1C6A
:104C0000029759F783E090E09093010180930001AF
:104C10000C945B1C8091160680FD15C0EE24E39475
:104C200000E12CE44FE15DE06EE070E08AE190E0AD
:104C30000E940F152CE447E85CE062E270E08AE134
:104C400090E00E940F1580919801882309F4BDC05F
:104C500020911701309118013A832983C0901901DE
:104C6000D0901A01E12C04E120E147E55CE0698184
:104C70007A81C6010E940F1569817A81625071099B
:104C8000EE24E39408E120E147E25CE0C6010E94E3
:104C90000F150E94D82829E030E040E050E00E9443
:104CA00046296B017C0134E0C30ED11CE11CF11CD0
:104CB0000E94D82829E130E040E050E00E944629D7
:104CC000AB01BC014250510961097109A090170163
:104CD000B0901801A40EB51E0E94D82821E130E042
:104CE00040E050E00E9446290091190110911A01FC
:104CF000060F171F4C2D50E05D834C83CC0C41E018
:104D00004C0DB5018C819D81681B790B21E0C80198
:104D10000E9490133101EC81FD816E1A7F0A6F01B0
:104D2000D194C194D108CC0CDD1CF12CE12C44248D
:104D30004394512C2C813D81E216F3060CF078C08F
:104D400077FC09C0215031093D832C8332E0C30E2A
:104D5000D11C6C0C7D1C4FEFE41AF40A52E0450E96
:104D6000511C640C751C8C81880F8F5F8B8321E034
:104D7000482FB5018C819D81681B790B7A836983EB
:104D8000C701800F911F0E94901345018E189F0844
:104D900021E0442DB4018C819D81800F911F0E94E0
:104DA000901321E04B8169817A81C8018E199F0996
:104DB0000E94901321E0442DB401C801EC81FD81D3
:104DC0008E1B9F0B0E949013B5CF0E94D82825E020
:104DD00030E040E050E00E944629AB01BC01425067
:104DE0005109610971092091170130911801240FAF
:104DF000351F3A8329830E94D82825E030E040E01F
:104E000050E00E944629DC01CB010297A109B109BB
:104E10002091190130911A01820F931FEE24E3941F
:104E200004E120E147E55CE069817A810E940F1589
:104E300088E00E942B10882311F40C945B1C1092C4
:104E40001E0110921D01309201012092000110926A
:104E50009701109296010C945B1CEE24E39400E4FD
:104E600020E847E258E070E060E090E080E00E94D7
:104E70000F158091160680FD0AC044E050E06AE1FB
:104E800070E080919601909197010E945D1688E0F4
:104E90000E942B10882311F40C945B1C10921E01AD
:104EA00010921D0180919601909197010196833097
:104EB00091056CF690939701809396010C945B1C7E
:104EC0000E94751385FDC1CA109288011092870156
:104ED000112309F411CBE12C04E120E145EF52E16B
:104EE0006AE270E089819A810E940F1589819A8116
:104EF000029720917901EE24E39408E1222309F43A
:104F0000F5CA24E149EB52E168E270E0B6CA97FFC6
:104F100002C087E691E090937C0180937B01009131
:104F20007B0110917C01B801012E000C880B990BBC
:104F30000E94C52A2BED3FE049E450E40E94902BEB
:104F400020E030E044E353E40E941B2A4B015C0163
:104F50000E94162A2B013C016091090170910A01FF
:104F6000072E000C880B990B0E94C52A6B017C014F
:104F700020E030E040E352E4C301B2010E94902BF4
:104F80009B01AC01C701B6010E94AA290E948D2A8B
:104F90006B017A83698370930E0160930D01C501E3
:104FA000B4010E94FD2B2B013C016091070170911F
:104FB0000801072E000C880B990B0E94C52A4B0193
:104FC0005C0120E030E040E352E4C301B2010E9402
:104FD000902B9B01AC01C501B4010E94AA290E943B
:104FE0008D2A70930C0160930B01E1E0CE1AD10879
:104FF000FFE6CF16D10430F4615071096F327105AC
:1050000008F449C010927A010C541F4F10937C0190
:1050100000937B0129813A811216130654F08FEC1C
:105020009EE00E945E1382E090E090930E018093D8
:105030000D0180910D0190910E018037910554F082
:105040008FEC9EE00E945E138EE690E090930E013E
:1050500080930D0180910B0190910C011816190697
:1050600054F08FEC9EE00E945E1382E090E09093FB
:105070000C0180930B0180910B0190910C01C09762
:1050800054F08FEC9EE00E945E138EE290E09093CD
:105090000C0180930B0180917B0190917C01813206
:1050A00053E0950734F08856914090937C018093AB
:1050B0007B01C0900B01D0900C0160910D017091AB
:1050C0000E017A836983EE24E39400E120E14FEA44
:1050D0005EE0B60189819A810E940F15E12C20E1E2
:1050E0004FE85EE0B60189819A810E940F15C09059
:1050F0000701D09008018091090190910A019A83DB
:10510000898380919801EE24E394882309F46ACC82
:1051100020E14DEF53E131CB8F929F92AF92BF923E
:10512000CF92DF92EF92FF92CF93DF93EC016881F1
:1051300079818A819B81611571058105910521F431
:1051400064E279ED8BE597E02DE133EF41E050E04B
:105150000E94462949015A019B01AC01A7EAB1E42A
:105160000E9465296B017C01ACEEB4EFA5019401AE
:105170000E947329C60ED71EE81EF91EF7FE06C050
:1051800081E0C81AD108E10880E8F80AC882D9820B
:10519000EA82FB82C701B6019F77DF91CF91FF9032
:1051A000EF90DF90CF90BF90AF909F908F90089539
:1051B0008F929F92AF92BF92CF92DF92EF92FF9227
:1051C00060912B0170912C0180912D0190912E0105
:1051D000611571058105910521F464E279ED8BE596
:1051E00097E02DE133EF41E050E00E94462949016C
:1051F0005A019B01AC01A7EAB1E40E9465296B0149
:105200007C01ACEEB4EFA50194010E947329C60E97
:10521000D71EE81EF91EF7FE06C081E0C81AD108A5
:10522000E10880E8F80AC0922B01D0922C01E092AC
:105230002D01F0922E01C701B6019F77FF90EF90EC
:10524000DF90CF90BF90AF909F908F900895609324
:105250002B0170932C0180932D0190932E010895C2
:10526000F999FECF92BD81BDF89A992780B508952E
:10527000262FF999FECF1FBA92BD81BD20BD0FB672
:10528000F894FA9AF99A0FBE01960895052E97FBA5
:105290001EF400940E945D2957FD07D00E947829D2
:1052A00007FC03D04EF40C945D2950954095309541
:1052B00021953F4F4F4F5F4F089590958095709582
:1052C00061957F4F8F4F9F4F08950E949A29A59F08
:1052D000900DB49F900DA49F800D911D11240895F1
:1052E000B7FF0C9465290E946529821B930B0895D2
:1052F000A1E21A2EAA1BBB1BFD010DC0AA1FBB1FDA
:10530000EE1FFF1FA217B307E407F50720F0A21B4B
:10531000B30BE40BF50B661F771F881F991F1A94B8
:1053200069F760957095809590959B01AC01BD01E2
:10533000CF010895A29FB001B39FC001A39F700D3C
:10534000811D1124911DB29F700D811D1124911D8D
:1053500008955058BB27AA270E94C1290C94422BBC
:105360000E94092B38F00E94102B20F039F49F3F47
:1053700019F426F40C94062B0EF4E095E7FB0C943C
:10538000002BE92F0E94672B58F3BA1762077307A7
:105390008407950720F079F4A6F50C94892B0EF478
:1053A000E0950B2EBA2FA02D0B01B90190010C0135
:1053B000CA01A0011124FF27591B99F0593F50F44D
:1053C000503E68F11A16F040A22F232F342F4427A5
:1053D000585FF3CF469537952795A795F04053959D
:1053E000C9F77EF41F16BA0B620B730B840BBAF06D
:1053F0009150A1F0FF0FBB1F661F771F881FC2F7D8
:105400000EC0BA0F621F731F841F48F487957795EB
:105410006795B795F7959E3F08F0B0CF9395880FA5
:1054200008F09927EE0F9795879508950E94192BFC
:10543000E3950C94532B0E942F2A0C94422B0E942C
:10544000102B58F00E94092B40F029F45F3F29F0FF
:105450000C94002B51110C948A2B0C94062B0E9457
:10546000672B68F39923B1F3552391F3951B550BE3
:10547000BB27AA2762177307840738F09F5F5F4F27
:10548000220F331F441FAA1FA9F335D00E2E3AF066
:10549000E0E832D091505040E695001CCAF72BD07E
:1054A000FE2F29D0660F771F881FBB1F26173707CF
:1054B0004807AB07B0E809F0BB0B802DBF01FF2701
:1054C00093585F4F3AF09E3F510578F00C94002BB3
:1054D0000C948A2B5F3FE4F3983ED4F3869577953E
:1054E0006795B795F7959F5FC9F7880F911D9695BA
:1054F000879597F90895E1E0660F771F881FBB1F16
:10550000621773078407BA0720F0621B730B840BC2
:10551000BA0BEE1F88F7E09508950E94942A6894CC
:10552000B1110C948A2B08950E946F2B88F09F571D
:1055300098F0B92F9927B751B0F0E1F0660F771FB7
:10554000881F991F1AF0BA95C9F714C0B13091F0AD
:105550000E94892BB1E008950C94892B672F782F36
:105560008827B85F39F0B93FCCF386957795679572
:10557000B395D9F73EF490958095709561957F4FDE
:105580008F4F9F4F0895E89409C097FB3EF4909584
:105590008095709561957F4F8F4F9F4F9923A9F00C
:1055A000F92F96E9BB279395F6958795779567959B
:1055B000B795F111F8CFFAF4BB0F11F460FF1BC0DF
:1055C0006F5F7F4F8F4F9F4F16C0882311F096E972
:1055D00011C0772321F09EE8872F762F05C0662320
:1055E00071F096E8862F70E060E02AF09A95660FD9
:1055F000771F881FDAF7880F9695879597F9089592
:1056000097F99F6780E870E060E008959FEF80EC75
:10561000089500240A941616170618060906089518
:1056200000240A94121613061406050608950C9415
:10563000062B0E946F2BD8F3E894E0E0BB279F571E
:10564000F0F02AED3FE049EC06C0EE0FBB0F661FFD
:10565000771F881F28F0B23A62077307840728F083
:10566000B25A620B730B840BE3959A9572F78038EC
:1056700030F49A95BB0F661F771F881FD2F79048AA
:105680000C94072C092E0394000C11F4882352F07B
:10569000BB0F40F4BF2B11F460FF04C06F5F7F4F5E
:1056A0008F4F9F4F0895EF93E0FF07C0A2EA2AEDC6
:1056B0003FE049EC5FEB0E94C1290E94422B0F9012
:1056C000039401FC9058ECEAF0E00C94132C57FD85
:1056D0009058440F551F59F05F3F71F04795880F60
:1056E00097FB991F61F09F3F79F0879508951216F7
:1056F00013061406551FF2CF4695F1DF08C01616A3
:1057000017061806991FF1CF869571056105089453
:105710000895E894BB2766277727CB0197F908956A
:105720000E94A32B0C94422B0E94092B38F00E945C
:10573000102B20F0952311F00C94002B0C94062BC9
:1057400011240C948A2B0E94672B70F3959FC1F350
:10575000950F50E0551F629FF001729FBB27F00D1F
:10576000B11D639FAA27F00DB11DAA1F649F662774
:10577000B00DA11D661F829F2227B00DA11D621FC3
:10578000739FB00DA11D621F839FA00D611D221F7D
:10579000749F3327A00D611D231F849F600D211D61
:1057A000822F762F6A2F11249F5750409AF0F1F0E4
:1057B00088234AF0EE0FFF1FBB1F661F771F881F4D
:1057C00091505040A9F79E3F510580F00C94002B5A
:1057D0000C948A2B5F3FE4F3983ED4F3869577953B
:1057E0006795B795F795E7959F5FC1F7FE2B880FF3
:1057F000911D9695879597F908959F930E94192B6F
:105800000F9007FCEE5F0C94532B9F3F31F09150AB
:1058100020F4879577956795B795880F911D969594
:10582000879597F908959F938F937F936F93FF9335
:10583000EF939B01AC010E94902BEF91FF910E948E
:10584000272C2F913F914F915F910C94902BDF93D8
:10585000CF931F930F93FF92EF92DF927B018C0106
:10586000689406C0DA2EEF010E94A32BFE01E89493
:10587000A5912591359145915591A6F3EF010E948F
:10588000C129FE019701A801DA9469F7DF90EF9032
:10589000FF900F911F91CF91DF91089597FB072EF5
:1058A00016F4009407D077FD09D00E94682C07FCFD
:1058B00005D03EF4909581959F4F08957095619520
:1058C0007F4F0895EE0FFF1F0590F491E02D09948E
:1058D000AA1BBB1B51E107C0AA1FBB1FA617B70716
:1058E00010F0A61BB70B881F991F5A95A9F7809532
:1058F0009095BC01CD010895F894FFCF01000E00F2
:105900005E000102003C002E003C002A0054004AC8
:105910000016002A0016000101FFFFFFFFFFFF0035
:10592000E10000000000000100000000C1808100D3
:10593000000000000000B3101F12D410C9101A118B
:10594000D810F610000000000C14DE11DF15DE1573
:10595000F419FCFF0000361AFFFFFFFFFFFFFFFFF7
:10596000FFFFFFFFFFFFFFFFFFFFFFFFFFFFFFFF47
:10597000FFFFFFFFFFFFFFFFFFFFFFFFFFFFFFFF37
:10598000FFFFFFFFFFFFFFFFFFFFFFFFFFFFFFFF27
:10599000FFFFFFFFFFFFFFFFFFFFFFFFFFFFFFFF17
:1059A000FFFFFFFFFFFFFFFFFFFFFFFFFFFFFFFF07
:1059B000FFFFFFFFFFFFFFFFFFFFFFFFFFFFFFFFF7
:1059C000FFFFFFFFFFFFFFFFFFFFFFFFFFFFFFFFE7
:1059D000FFFFFFFFFFFFFFFFFFFFFFFFFFFFFFFFD7
:1059E000FFFFFFFFFFFFFFFFFFFFFFFFFFFFFFFFC7
:1059F000FFFFFFFFFFFFFFFFFFFFFFFFFFFFFFFFB7