:100000000C94B6040C94DE040C94DE040C94DE0410
:100010000C94DE040C94DE040C94DE040C94DE04D8
:100020000C94DE040C94DE040C9452080C94F2063A
:100030000C94DE040C94DE040C94DE040C94DE04B8
:100040000C94DE040C9431190C94DE040C94DE0440
:100050000C94DE040C94DE040C94DE040C94F20880
:100060000C94DE040C94DE040C94DE040C94DE0488
:100070000C94DE040C94DE040C94DE040C94DE0478
:100080000C94E9180C94DE040C94DE040C94DE0449
:100090000C94DE040C94DE040C94DE040C94DE0458
:1000A0000C94DE040C94DE040C94DE0412010002B5
:1000B000EF020140412336800001010203011201D9
:1000C00000020000004041233680000101020301CC
:1000D00041726475696E6F204C4C43005553422049
:1000E000494F20426F6172640004030904080B0049
:1000F00002020201000904000001020200000524BE
:100100000010010524010101042402060524060053
:10011000010705810310004009040100020A0000E4
:1001200000070502024000000705830240000008A6
:1001300008F0909090909090F01805FFFFFF4924F0
:1001400092492492492492FFFFFF1804000000FF07
:10015000FFFF492492FFFFFF1804FFFFFF4924928D
:10016000492492FFFFFF1804FFFFFF800001800079
:1001700001FFFFFF1808000000DB6D80DB6D80DBF6
:100180006D80DB6D80000000DB6D80DB6D8018080A
:10019000000000DB6C00DB6C00DB6C00DB6C000043
:1001A0000000DB6D80DB6D801808000000DB600064
:1001B000DB6000DB6000DB6000000000DB6D80DBEB
:1001C0006D801808000000DB0000DB0000DB000091
:1001D000DB0000000000DB6D80DB6D801808000094
:1001E00000D80000D80000D80000D80000000000AF
:1001F000DB6D80DB6D801808000000C00000C000CF
:1002000000C00000C00000000000DB6D80DB6D80DE
:1002100018080000000000000000000000000000BE
:1002200000000000DB6D80DB6D8008083838185E48
:100230007B187C6608083838181C3ED83C0C080827
:100240003838083EDB18386E08081C1C187ADE188F
:100250003E6608081C1C18387C1B3C3008081C1C17
:10026000107CDB181C7618042492487FFFFFFFFFE8
:10027000FE1249241804124924FFFFFE7FFFFF24C9
:10028000924818044924927FFFFE7FFFFE49249282
:100290001804124924FFFFFE7FFFFF249248180430
:1002A0002492487FFFFFFFFFFE12492418044924CF
:1002B000927FFFFE7FFFFE492492010101030305A7
:1002C00007070808080808080707050303010101D4
:1002D000FFFFFFFDFDFBF9F9F8F8F8F8F8F8F9F978
:1002E000FBFDFDFFFFFFD5F08D14A1C881CFD9F133
:1002F000AF200000000000003E5B4F5B3E3E6B4FB6
:100300006B3E1C3E7C3E1C183C7E3C181C577D57A7
:100310001C1C5E7F5E1C00183C1800FFE7C3E7FF53
:100320000018241800FFE7DBE7FF30483A060E26E6
:1003300029792926407F050507407F05253F5A3C3E
:10034000E73C5A7F3E1C1C08081C1C3E7F14227F81
:1003500022145F5F005F5F06097F017F0066899559
:100360006A606060606094A2FFA29408047E040842
:1003700010207E201008082A1C08081C2A08081EC5
:10038000101010100C1E0C1E0C30383E3830060EAB
:100390003E0E06000000000000005F0000000700A5
:1003A0000700147F147F14242A7F2A122313086461
:1003B0006236495620500008070300001C22410005
:1003C0000041221C002A1C7F1C2A08083E08080045
:1003D00080703000080808080800006060002010E5
:1003E0000804023E5149453E00427F40007249499F
:1003F00049462141494D331814127F102745454580
:10040000393C4A49493141211109073649494936A0
:10041000464949291E000014000000403400000035
:100420000814224114141414140041221408020167
:100430005909063E415D594E7C1211127C7F494993
:1004400049363E414141227F4141413E7F49494930
:10045000417F090909013E414151737F0808087F26
:1004600000417F41002040413F017F081422417F2D
:10047000404040407F021C027F7F0408107F3E41C5
:1004800041413E7F090909063E4151215E7F09191C
:100490002946264949493203017F01033F40404034
:1004A0003F1F2040201F3F4038403F631408146323
:1004B00003047804036159494D43007F41414102DF
:1004C00004081020004141417F0402010204404021
:1004D000404040000307080020545478407F2844DF
:1004E00044383844444428384444287F38545454C9
:1004F0001800087E090218A4A49C787F08040478D8
:1005000000447D40002040403D007F102844000012
:10051000417F40007C047804787C080404783844E7
:10052000444438FC1824241818242418FC7C08049B
:100530000408485454542404043F44243C404020BC
:100540007C1C2040201C3C4030403C442810284467
:100550004C9090907C4464544C4400083641000018
:1005600000770000004136080002010204023C2628
:1005700023263C1EA1A161123A4040207A385454EF
:100580005559215555794121545478412155547874
:100590004020545579400C1E527212395555555908
:1005A000395454545939555454580000457C41002D
:1005B00002457D420001457C40F0292429F0F028C5
:1005C0002528F07C545545002054547C547C0A095D
:1005D0007F4932494949323248484832324A4848CC
:1005E000303A4141217A3A42402078009DA0A07DD6
:1005F00039444444393D4040403D3C24FF24244894
:100600007E4943662B2FFC2F2BFF0929F620C0883B
:100610007E090320545479410000447D413048480C
:100620004A32384040227A007A0A0A727D0D193126
:100630007D2629292F28262929292630484D402082
:10064000380808080808080808382F10C8ACBA2F5E
:10065000102834FA00007B000008142A1422221407
:100660002A14089500220095AA005500AAAA55AAA6
:1006700055AA000000FF00101010FF00141414FF12
:10068000001010FF00FF1010F010F0141414FC0004
:100690001414F700FF0000FF00FF1414F404FC140E
:1006A0001417101F10101F101F1414141F00101007
:1006B00010F0000000001F101010101F101010107C
:1006C000F010000000FF101010101010101010FF9C
:1006D00010000000FF140000FF00FF00001F1017B3
:1006E0000000FC04F414141710171414F404F4009C
:1006F00000FF00F714141414141414F700F7141462
:1007000014171410101F101F141414F4141010F0E8
:1007100010F000001F101F0000001F14000000FC5C
:10072000140000F010F01010FF10FF141414FF1448
:100730001010101F00000000F010FFFFFFFFFFF07F
:10074000F0F0F0F0FFFFFF0000000000FFFF0F0FD0
:100750000F0F0F38444438447C2A2A3E147E02028C
:100760000606027E027E0263554941633844443CDA
:1007700004407E201E2006027E020299A5E7A5996C
:100780001C2A492A1C4C7201724C304A4D4D3030A3
:1007900048784830BC625A463D3E494949007E018E
:1007A00001017E2A2A2A2A2A44445F444440514AAD
:1007B000444040444A51400000FF0103E080FF00F4
:1007C0000008086B6B083612362436060F090F0630
:1007D000000018180000001010003040FF01010058
:1007E0001F01011E00191D1712003C3C3C3C00007B
:1007F0000000001000110012001300150016001771
:100800000018001A001C001D001F002100230025F5
:1008100000270029002C002E003100340037003A58
:10082000003E004100450049004E00520057005C68
:1008300000620068006E0075007B0083008B0093EF
:10084000009C00A500AF00B900C400D000DC00E9A6
:1008500000F70006011501260137014A015D01720A
:100860000188019F01B801D201EE010B022A024B5F
:10087000026E029302BA02E40210033F037003A463
:1008800003DC03170455049704DD0427057505C828
:100890000520067D06E0064907B8072D08A9082DA2
:1008A00009B9094D0AEA0A900B400CFA0CC00D91E7
:1008B0000E6F0F5A1053115B1272139A14D4152035
:1008C000178018F519801B231DDE1EB420A622B543
:1008D00024E4263429A72B402E0031EA3300374583
:1008E0003ABC3D68414C456B49C84D68524F5780F2
:1008F0005C00620000000200090F00000304010018
:100900000C000000000000000000000000000000DB
:100910000004080201104080401020408040800800
:100920000204018040201002011080102040400489
:100930000404040403040502020202040302020286
:10094000020606060606060404020202040000006F
:1009500000250028002B002E00310000000000249C
:100960000027002A002D00300000CD0A11241FBEF0
:10097000CFEFDAE0DEBFCDBF11E0A0E0B1E0E0E311
:10098000FDE302C005900D92A23DB107D9F727E023
:10099000A2EDB1E001C01D92A231B207E1F714E06F
:1009A000C6EBD4E004C02197FE010E944C1EC53B5B
:1009B000D107C9F70E94E1040C94961E0C94000024
:1009C00008950E9495090E94E00482ED91E00E9442
:1009D000D2080E94E508C0E0D0E00E94E908209714
:1009E000E1F30E940000F9CF615030F02091F10056
:1009F000FC0120830196F8CF289884E68093DB01E0
:100A000008954091D6015091D7012091D4013091A1
:100A1000D50142175307B4F49091E8009570E1F3C3
:100A20009091E80092FD19C08093F1008091D60169
:100A30009091D70101968F739927892B19F48EEF26
:100A40008093E8008091D6019091D7010196909310
:100A5000D7018093D60181E0089580E00895EF9258
:100A6000FF920F931F93CF93DF93F82E192FE62E4B
:100A7000042F81E0860F880F0E94010583E00E9409
:100A80000105CF2DD12FEC0EFD2EF11CCE15DF056B
:100A9000B9F007FF13C0FE0184910E940105182FD1
:100AA00080E00E940105812321968111EFCFDF9123
:100AB000CF911F910F91FF90EF9008958881EDCF16
:100AC00081E0F5CF8091D70081608093D70080EAE4
:100AD0008093D80089B5806189BD89B5826089BD60
:100AE00009B400FEFDCF61E070E080E090E00E947C
:100AF0006D098091D8008F7C80618093D8008091AF
:100B0000E000807F8093E0000895CF93DF931F92F1
:100B1000CDB7DEB71982CE0101960E94480A0E9425
:100B2000660BBE016F5F7F4F0E94E20A89810F90C2
:100B3000DF91CF9108952FB7FC012083F89467705F
:100B40006093E9000895CF93DF931F92CDB7DEB78E
:100B5000682FCE0101960E949B058091F200998139
:100B60009FBF0F90DF91CF910895EF92FF920F9367
:100B70001F93CF93DF931F92CDB7DEB79091DA0129
:100B8000992379F157FD2DC08A017B01682FCE0191
:100B900001960E949B058091F20090E008171907CA
:100BA0000CF4C801282FF70144E6215038F02898AA
:100BB0004093DB013091F1003193F7CF009739F08A
:100BC0002091F200211103C02BE62093E800298137
:100BD0002FBF0F90DF91CF911F910F91FF90EF905A
:100BE00008958FEF9FEFF5CFCF93DF931F92CDB78F
:100BF000DEB741E050E0BE016F5F7F4F0E94B50558
:100C0000019731F4898190E00F90DF91CF910895A1
:100C10008FEF9FEFF9CFCF93DF931F92CDB7DEB762
:100C2000682FCE0101960E949B059091E800892FC4
:100C3000807295FF04C09091F20080E4891B998135
:100C40009FBF0F90DF91CF9108956F927F928F9207
:100C50009F92AF92BF92CF92DF92EF92FF920F934B
:100C60001F93CF93DF931F92CDB7DEB7A82E6B01F2
:100C7000B42E052F8091DA01811112C08FEF9FEF02
:100C80000F90DF91CF911F910F91FF90EF90DF9028
:100C9000CF90BF90AF909F908F907F906F9008956E
:100CA000E42EF52E8AEF982E8A2D8072882E9AE3F4
:100CB000792E8A2D8074682EE114F10409F449C05C
:100CC0008A2D0E940B06182F81110AC09A94992030
:100CD000A9F261E070E080E090E00E946D09ECCF45
:100CE0008E151F0411F00CF01E2D6A2DCE010196F9
:100CF0000E949B058091E80085FD03C089818FBF1C
:100D0000DBCF812F90E0E81AF90A882029F01150F2
:100D1000A0F01092F100FBCFF601A7FC0AC0115021
:100D200050F021912093F100FACF24912093F1000B
:100D300031961150D0F7C80ED91E8091E80085FF7A
:100D400005C0E114F104D1F66620C1F27092E8000A
:100D5000D5CF5D9884E68093DC018B2D902F90CFCA
:100D60001092E9001092D7011092D6019093D5010C
:100D70008093D4010895DF92EF92FF920F931F9317
:100D8000CF93DF93D82E8A01EB017B01E40EF51E91
:100D9000CE15DF0559F0D7FE12C0FE0184910E94E6
:100DA000010521968111F4CF0FEF1FEFC801DF91EC
:100DB000CF911F910F91FF90EF90DF900895888160
:100DC000EECFCF93DF93EB012091E80022FFFCCF21
:100DD0006C2F0E94F4048BEF8093E800CE01DF912A
:100DE000CF9108951F920F920FB60F921124EF9298
:100DF000FF920F931F932F933F934F935F936F93A4
:100E00007F938F939F93AF93BF93EF93FF93CF9372
:100E1000DF93CDB7DEB76C97DEBFCDBF1092E90090
:100E20008091E80083FF25C068E0CE0145960E94CE
:100E3000F40482EF8093E8008D8987FF37C090919A
:100E4000E80090FFFCCF982F907609F00DC19E89A5
:100E50004F89588D2F89188D91112FC0803851F5E9
:100E60008091D9018093F1001092F1008EEF809370
:100E7000E8006C960FB6F894DEBF0FBECDBFDF91D1
:100E8000CF91FF91EF91BF91AF919F918F917F9102
:100E90006F915F914F913F912F911F910F91FF9013
:100EA000EF900F900FBE0F901F9018959EEF9093AC
:100EB000E800C9CF1092F100D7CF913059F48111D9
:100EC000D5CF4130510591F68091D9018D7F809326
:100ED000D901CCCF933049F48111C8CF41305105AD
:100EE00029F68091D9018260F2CF953041F480914A
:100EF000E80080FFFCCF20682093E300B7CF963056
:100F000009F084C0EB8CFC8C123039F590E080E065
:100F10000E94B0060E9485051F8299E099831A837A
:100F200091E09E8390EA98879AEF99872091D60165
:100F30003091D701275F3F4F3C832B838D83C701BF
:100F40000E94B00649E050E0BE016F5F7F4F80E035
:100F50000E94BB060E94850589CFC7010E94B0068A
:100F60000E94660BBE016B5E7F4F0E940A0B0097CA
:100F700031F00CF07BCF81E28093EB007ACF11301F
:100F8000B1F48B8D9C8D089719F481E08093D30187
:100F90008091D3016EEB70E0882311F06CEA70E071
:100FA000FB01449150E080E80E94BB065FCF133004
:100FB00011F78F89882339F1823049F440E86CE0D9
:100FC0008CED90E00E942F058823A9F24FCF81304D
:100FD00029F440E86BE080ED90E0F4CF833059F6DF
:100FE0000E94660B8E010F5F1F4FB8010E94290BF4
:100FF000F80101900020E9F73197BF01601B710BE8
:1010000040E0C801DFCF69EE70E0CACF973009F445
:10101000B2CF983021F481E08093F10027CF99304E
:1010200009F024CF837009F0A6CFE1E0F1E081E080
:1010300031E096E32191222371F08093E90030930F
:10104000EB00DF0111972C912093EC009093ED00C1
:101050008F5F873079F78EE78093EA001092EA007D
:101060008F898093DA0102CF8B8D9C8D0E94B00610
:10107000898D811105C0CE0145960E94530AA4CFE7
:101080000E94660BBE016B5E7F4F0E94480B9CCF97
:101090008093E9008091F200882319F08AE380931D
:1010A000E80008951F920F920FB60F9211242F930C
:1010B0003F934F935F936F937F938F939F93AF93E0
:1010C000BF93CF93EF93FF93C091E1008091E10034
:1010D000837F8093E1008093E100C3FF0FC01092F3
:1010E000E90081E08093EB001092EC0082E38093B2
:1010F000ED001092DA0188E08093F000C2FF1BC07F
:1011000083E00E9448088091DC01882341F08091AF
:10111000DC0181508093DC01811101C05D9A8091D6
:10112000DB01882341F08091DB0181508093DB015A
:10113000811101C0289AC4FF23C08091E2008E7EF5
:1011400081608093E2008091E1008F7E8093E100D6
:101150008091D8018E7E80618093D801FF91EF91BC
:10116000CF91BF91AF919F918F917F916F915F913F
:101170004F913F912F910F900FBE0F901F90189598
:10118000C0FFECCF8091E2008E7E80618093E20010
:101190008091E1008E7E8093E1008091D8018E7E67
:1011A0008160DACF1092DA011092D9011092D80141
:1011B0000E946205E1EEF0E080818E7E80838DE00A
:1011C0008093E200559A209A08950E947A0B0C941D
:1011D000B60B0E94A80B882321F00E940D0C0C94E2
:1011E000B20B08950F920FB68F939F93EF93FF93D7
:1011F0008091DD018D5F8D3708F08D578093DD0183
:10120000EEEDF1E080818E4F808391819F4F91833D
:1012100082818F4F828383818F4F8383E2EEF1E05F
:1012200080818F5F808381818F4F818382818F4F07
:10123000828383818F4F83838FB18F6066991C9BDC
:1012400088278F3681F48091FF0A981B963068F0CA
:10125000E0E0F8E087E78083818388E180936000A5
:10126000F0936000FFCF9093FF0AFF91EF919F9161
:101270008F910FBE0F9018952FB7F8946091DE01F3
:101280007091DF018091E0019091E1012FBF0895FD
:101290003FB7F8948091E2019091E301A091E401BD
:1012A000B091E50126B5A89B05C02F3F19F0019626
:1012B000A11DB11D3FBFBA2FA92F982F8827BC01B0
:1012C000CD01620F711D811D911D42E0660F771FD8
:1012D000881F991F4A95D1F70895CF92DF92EF9218
:1012E000FF92CF93DF936B017C010E944809EB01D1
:1012F000C114D104E104F10439F4DF91CF91FF90DE
:10130000EF90DF90CF9008950E948C100E944809C2
:101310006C1B7D0B683E734058F381E0C81AD108FE
:10132000E108F108C851DC4FE3CF789484B58260BE
:1013300084BD84B5816084BD85B5826085BD85B579
:10134000816085BDEEE6F0E0808181608083E1E828
:10135000F0E0108280818260808380818160808360
:10136000E0E8F0E0808181608083E1E9F0E0808165
:1013700082608083808181608083E0E9F0E0808109
:1013800081608083E1ECF0E08081846080838081F3
:1013900082608083808181608083E3ECF0E08081E3
:1013A00081608083E0ECF0E0808182608083E2EC09
:1013B000F0E0808181608083EAE7F0E080818460F2
:1013C000808380818260808380818160808380814E
:1013D000806880830895CF93DF931F92CDB7DEB7E7
:1013E0006983DC01ED91FC910280F381E02D41E005
:1013F00050E0BE016F5F7F4F09950F90DF91CF9155
:101400000895CF93DF93EC018C859D8597FF05C0F0
:1014100082E00E94F4059D878C878C859D85DF91F5
:10142000CF91089583E00C944808FC01848595854C
:1014300097FD06C082E00E94A30590E00196089502
:1014400082E00E94A30590E00895FC0184859585C3
:1014500097FD05C02FEF3FEF35872487089582E081
:101460000C94F405CF93DF93EC0180911201882353
:1014700031F083E00E9425061816190634F081E049
:1014800090E09B838A8380E090E0DF91CF91089584
:10149000FC0190819E5F908342E450E06DEE70E02D
:1014A00080E80C94BB06FC0191818081813A61F453
:1014B000913209F063C047E050E06BE071E080E0FA
:1014C0000E94BB0681E00895813209F057C0933233
:1014D00069F482819381B0E0A0E08093070190934A
:1014E0000801A0930901B0930A01ECCF903209F0F2
:1014F00047C067E070E08BE091E00E94E1068091D8
:101500000B0190910C01A0910D01B0910E01803B57
:101510009440A105B105E9F48091120180FD19C044
:1015200080910008909101089093FF0A8093FE0A31
:1015300087E797E7909301088093000888E19BE094
:101540000FB6F894A895809360000FBE909360004A
:10155000B9CF0FB6F894A895809160008861809308
:101560006000109260000FBEA8958091FE0A9091D5
:10157000FF0A9093010880930008A4CF80E00895AB
:10158000923209F09FCF828180931201B8CF2FEF62
:101590003FEFFC01358724870895E6EEF1E01382E2
:1015A000128288EE93E0A0E0B0E084839583A68366
:1015B000B78383E491E0918380838FEF9FEF9587DA
:1015C00084870895EF92FF920F931F93CF93DF9339
:1015D0007B01FC01C281D38110E000E0209791F0F3
:1015E000E881F9810280F381E02DB701CE010995F0
:1015F00097FD06C0080F191F0884D985C02DEECFAE
:101600000FEF1FEFC801DF91CF911F910F91FF9056
:10161000EF9008950F931F93CF93DF938B01FC01FD
:10162000C281D381209771F0E881F9810480F5812E
:10163000E02DB801CE010995009731F40884D985D1
:10164000C02DF0CF90E080E0DF91CF911F910F91FE
:1016500008950F931F93CF93DF938B01FC01C281F9
:10166000D381209771F0E881F9810680F781E02D20
:10167000B801CE010995080F111D0884D985C02D28
:10168000F0CFF8011082DF91CF911F910F91089553
:101690000F931F93CF93DF938B01FC01C281D38102
:1016A000209771F0E881F9810190F081E02DB80177
:1016B000CE010995811105C00884D985C02DF0CFD0
:1016C00080E0DF91CF911F910F91089580913602B4
:1016D00081110DC082E080933E0284E080933F023E
:1016E000109241021092400281E0809336028EE314
:1016F00092E00895E4E6F0E0808180648083808158
:101700008160808380818068808380818260808323
:10171000E5E6F0E08081816080830E9429140E94C8
:1017200035130E9435170E94BC120E94B2130E940A
:1017300021140E943D160C94B41283B7817F83BF9D
:1017400083B7816083BF889583B78E7F83BF0895F9
:10175000CF930E944C13C82F81110E94D1138C2F5C
:10176000CF9108950E94AB140C94081541E050E00D
:1017700060E082E492E00C948D100E947B0C0E9449
:10178000270C0E94A2190E9479190E940B0E0E9438
:10179000161081E08093420208950E94000F0E947B
:1017A0006E0D0E94871B0E94780E0E94531B0E94A0
:1017B0001B1487FD109242020E945B1B882321F0BC
:1017C00082E08093420208950E94260E8111F8CF94
:1017D00008950E94000F0E946E0D0E94871B0E94B8
:1017E0005B1B8823B9F08FE491E09F938F9384E093
:1017F0008F9386E08F930E94D9140F900F900F90D3
:101800000F900E941B14887421F00E94C60D109244
:101810004202089589E591E0E8CF8091420281304B
:1018200091F078F0823089F01F928F938FE991E0E8
:101830009F938F930E948D120F900F900F900F9097
:1018400008950C94BD0B0C94CD0B0C94E90B45E062
:1018500050E060E083E492E00C948D1091E08531DB
:1018600024F092E08C330CF094E080914302E82F56
:10187000F0E0ED5BFD4F91838F5F837080934302B7
:1018800008958091440290914502892B90914602DF
:10189000892B90914702892B80FD0BC063E070E09B
:1018A00080E090E00E9409176F5F7F4F8F4F9F4F3E
:1018B0000CC081FD0EC063E070E080E090E00E940B
:1018C0000917675F7F4F8F4F9F4F660F660F862FF9
:1018D000089582FD0BC063E070E080E090E00E941C
:1018E00009176F5E7F4F8F4F9F4FEFCF63E170E01F
:1018F00080E090E0D7CF08954FE251E00C941315AB
:1019000046E651E00C949D151F93CF93DF93D82F9B
:10191000162FC42F433098F01F9281E48F9383E6F3
:1019200091E09F938F938BE691E09F938F930E941A
:101930008D120F900F900F900F900F900F90EC2F33
:10194000F0E0EE0FFF1FE95DFE4F40815181612FF6
:101950008D2FDF91CF911F910C949D151F93CF93E5
:10196000DF93D82F162FC42F433098F01F9288E4AE
:101970008F9383E691E09F938F938BE691E09F9303
:101980008F930E948D120F900F900F900F900F90D9
:101990000F90EC2FF0E0EE0FFF1FE35DFE4F408154
:1019A0005181612F8D2FDF91CF911F910C949D1547
:1019B0001F93CF93DF93D82F162FC42F433098F067
:1019C0001F928FE48F9383E691E09F938F938BE632
:1019D00091E09F938F930E948D120F900F900F9024
:1019E0000F900F900F90EC2FF0E0EE0FFF1FEF5DC8
:1019F000FE4F40815181612F8D2FDF91CF911F913B
:101A00000C949D150F931F93CF93DF93D82F162F10
:101A1000C42F022F433098F01F9286E58F9383E600
:101A200091E09F938F938BE691E09F938F930E9419
:101A30008D120F900F900F900F900F900F904C2FD2
:101A400050E0440F551F10166CF4475C5E4FFA01CE
:101A500040815181612F8D2FDF91CF911F910F9187
:101A60000C949D154D5C5E4FF2CFCF93C82F8730FD
:101A700098F01F9284E68F9383E691E09F938F9373
:101A80008AE791E09F938F930E948D120F900F90A1
:101A90000F900F900F900F90EC2FF0E0EE0FFF1FC4
:101AA000ED5EFE4F4081518168E38AE6CF910C9450
:101AB000131580E190E00E94C3120E94E2126115AA
:101AC00071058105910511F00E94451680E190E0B5
:101AD0000E94C3120E944B160C942013EF92FF92A7
:101AE0000F931F93CF9389E891E09F938F931F9259
:101AF000C5E1CF930E94D9148EE891E09F938F9314
:101B000082E08F93CF930E94D91483E991E09F9351
:101B10008F9384E08F93CF930E94D91488E4E82EAA
:101B200082E0F82EF70181818F9380818F9308E9FD
:101B300011E01F930F9381E08F93CF930E94D914EC
:101B4000F70183818F9382818F931F930F9383E09B
:101B50008F93CF930E94D914F70185818F9384814D
:101B60008F931F930F9385E08F93CF930E94D91487
:101B70008DB79EB74E960FB6F8949EBF0FBE8DBF21
:101B8000CF911F910F91FF90EF90089580914A029D
:101B900090914B022091480230914902821793079D
:101BA000D0F0909349028093480290E080E00E9438
:101BB000C3128EE40E94061383E50E9406138DE291
:101BC0000E94061384E50E940613809148029091BA
:101BD00049020C9418130895109249021092480279
:101BE00090E080E00E94C3120E94C8128E3491F4EB
:101BF0000E94C812833571F40E94C8128D3251F4CC
:101C00000E94C812843531F40E94D8129093490280
:101C100080934802089546E050E060E088E492E056
:101C20000E948D100E94590D0C94EC0DE8E4F2E036
:101C3000828193810196938382830895E8E4F2E0A0
:101C400084819581019695838483089581E0209114
:101C50004A0230914B022E31310508F480E008959C
:101C6000E091B102F0E0E654FD4FAEE4B2E011962F
:101C70008C9111978823A9F012968C91129781303C
:101C8000B1F4949115968C911597890F13968C93B6
:101C9000139714968C91149788341CF011961C920B
:101CA0001197169682E0AE3AB80709F70895823088
:101CB00081F7949116968C911697890F14968C93B0
:101CC0001497E7CF86E00E944313882381F0809128
:101CD000B0028F5F63E00E94EB1D9093B002809191
:101CE000B1028F5F6CE20E94EB1D9093B1020895E8
:101CF0000E94300E0C94620E1F93CF93DF93C82F77
:101D0000D62F142F0E942E0CAEE4B2E08C91282F17
:101D100030E096E0929FF001939FF00D1124E25B7A
:101D2000FD4F41E041831283C383C583D4832F5F7A
:101D30003F4F929FF001939FF00D1124E25BFD4F06
:101D4000D0838F5F8F708C93DF91CF911F91089517
:101D5000CF93C091AF02C850C03454F46C2F80E0D0
:101D60000E947C0C6C2F84E60E947C0CC85FF4CF30
:101D7000CF9108950F931F93CF93DF93CEE4D2E0DA
:101D80000CE911E089818823E9F08A81833021F10F
:101D9000A8F0843041F1853069F11F928F938091D2
:101DA0004E021F928F931F930F930E948D120F90DC
:101DB0000F900F900F900F900F9004C06C818B814B
:101DC0000E94800C269682E0CE3AD807D9F6DF91A1
:101DD000CF911F910F9108954091B0026C818B813A
:101DE0000E94840CEFCF4091B0026C818B810E94E5
:101DF000AE0CE8CF40E06C818B810E94D80CE2CF22
:101E00000E94A80E0C94BA0EAF92CF92EF92FF925E
:101E10000F931F93062E000C770B0E2C000CFF085F
:101E2000F701EA0DF11DA7FCFA956E177F07F4F490
:101E3000620F711D27FD7A95E616F706BCF4082E91
:101E4000000C990B002E000C110B98012C0D311D6C
:101E5000C7FC3A95821793074CF49C01240F311D5F
:101E600047FD3A9581E0021713070CF080E01F91BF
:101E70000F91FF90EF90CF90AF900895082E000C37
:101E8000990B26E0429FF0011124E25BFD4F438154
:101E9000042E000C550B9A01285E3F4F82179307C2
:101EA0004CF49C01260F311D67FD3A9581E04217E5
:101EB00053070CF080E0089596E0899FF00111240B
:101EC000E25BFD4F81E09281933009F080E008955C
:101ED00096E0899FF0011124E25BFD4F81E0928141
:101EE000943009F080E0089596E0899FF001112474
:101EF000E25BFD4F81E09281923009F080E008952D
:101F000096E0899FF0011124E25BFD4F81E0928110
:101F1000953009F080E008955F926F927F928F92E2
:101F20009F92AF92BF92CF92DF92EF92FF920F9368
:101F30001F93CF93DF93B82ED62E742E622E0111ED
:101F400014C081E08F9384E18F9382EA91E09F93A4
:101F50008F938CEA91E09F938F930E948D120F9044
:101F60000F900F900F900F900F90C0914E02DD2DAB
:101F700020E1F22E802E000F990836E0532E8D2F8F
:101F80008D1988151904ECF410E15C9EF001112400
:101F9000E25BFD4F8181882371F084E0A82E98E1F7
:101FA000C92EE4800381262D472D6D2F8B2D0E9495
:101FB000040F8111FC2ECF5FCF70115031F7DF5F1E
:101FC000DECF8F2DDF91CF911F910F91FF90EF907A
:101FD000DF90CF90BF90AF909F908F907F906F9049
:101FE0005F9008950F930E948C0F91E0803109F467
:101FF00090E0892F0F91089596E0899FF0011124B8
:10200000E25BFD4F8481089564E170E080E090E040
:102010000E9409176B3071058105910528F46554FC
:102020007E4FFB018081089580E00895CF93DF9378
:1020300045E650E060E08EE492E00E948D1040E0C2
:102040006CE384E00E947C0E40E06CE38CE10E9433
:102050007C0E40E06CE384E30E947C0E40E06CE385
:102060008CE40E947C0EC4E30E940410D82F0E94CE
:10207000410C4D2F6C2F0E947C0EC850C43FA1F71D
:10208000DF91CF9108950F931F93CF93DF93C82FC4
:10209000EEE4F2E08181882331F084818C0F848327
:1020A00086818C0F8683369682E0EE3AF80791F7A8
:1020B0002091AF02022E000C330BC9018C0F911D31
:1020C000C7FD9A9568E070E00E94F71D8C01281BFF
:1020D000390B37FD0AC00E940410D82F0E94410C12
:1020E0004D2F68EF6C0F0E947C0E0093AF02809121
:1020F000B202C80FC03238F4C093B202DF91CF9160
:102100001F910F910895C052C093B202DF91CF91F9
:102110001F910F910C94160E08954115510549F029
:102120001416150634F4FC016083415051090196E0
:10213000F7CF08950F931F93CF938B01252F0E9404
:10214000F71DFB01C82F1E161F063CF4522FB801C5
:10215000CF010E949A10482F292FC05DE42FF22F43
:10216000C193CF01CF911F910F910895AF92BF926C
:10217000CF92DF92EF92FF920F931F93CF93DF9353
:102180005B01FA01102FFE2C0E94F71D6B01EC0180
:10219000161617061CF02230310554F02150310973
:1021A000E12C012FAF01B501C6010E94B610FC0160
:1021B000CF010196209721F4CD2811F4FF2069F07A
:1021C000C05DC083DF91CF911F910F91FF90EF9081
:1021D000DF90CF90BF90AF9008951083F3CF8F9290
:1021E0009F92AF92BF92CF92EF920F931F93CF9394
:1021F000DF934B015C01D02F1E2DCC2D80E1881682
:102200009104A104B10418F4223031058CF021505E
:102210003109CC2EE12C0D2FC501B401E4E09695D7
:10222000879577956795EA95D1F70E94EF10AC01F5
:1022300094012F703327CA0101962115310549F405
:1022400089288A288B28B9F4111115C0FA01D08386
:1022500007C02A30310578F0CA502C0FFA012083CC
:10226000DF91CF911F910F91EF90CF90BF90AF90E2
:102270009F908F900895205DF1CFCF92DF92EF92E3
:10228000FF92CF936B017C01C22F80E1C816D1046D
:10229000E104F10458F0C70134E0969587957795ED
:1022A00067953A95D1F70E943D11AC018FE0C822A5
:1022B000DD248AE0C816D10458F0CA50CC0EFA01C9
:1022C000C192CF01CF91FF90EF90DF90CF90089512
:1022D00080E3C80EF4CFDC01FB019D91992311F03E
:1022E0009193FBCFCF0108952F923F924F925F922F
:1022F0006F927F928F929F92AF92BF92CF92EF9206
:10230000FF920F931F93CF93DF9300D000D0CDB7F0
:10231000DEB79A838983DB01FA0110E2712C612C0C
:102320003DE2F32E2C91211119C0A981BA811C9292
:102330000F900F900F900F90DF91CF911F910F9101
:10234000FF90EF90CF90BF90AF909F908F907F9035
:102350006F905F904F903F902F900895253269F0D5
:10236000AD014F5F5F4F5C834B83A981BA812C9392
:102370005F011196BA83A98395C011962C9111978C
:10238000203329F1AD014E5F5F4F5C834B8330ED0D
:10239000320F3A3008F0B0C0622E220F770890E377
:1023A000691A71088B809C80AFEF8A1A9A0AAB81F8
:1023B000BC812C912C3609F45DC08CF4233609F4D1
:1023C00090C0243639F1E981FA811082B1CFCD0174
:1023D00003969C838B8310E312962C91D8CF2337DE
:1023E00009F472C0283779F79C828B8221E0DF01E3
:1023F0006D917D915D0190E080E02223A9F121E6BD
:10240000C22EEE24E394012F930149815A810E9448
:10241000EF1020C09C828B8221E05F01B2E0AB0E06
:10242000B11C8081918197FF09C091958195910997
:10243000E981FA81F0823196FA83E983222369F0F7
:10244000EE24E394012F930149815A816AE070E000
:102450000E94B6109A83898325C049815A816AE017
:1024600070E00E949A10F6CF21E649815A810E94BD
:102470003D11F0CF5F01B4E0AB0EB11C2080318084
:102480004280538081E6C82EEE24E394012F93010D
:1024900049815A81C201B1010E94EF109A83898358
:1024A0009C828B82F501AB81BC813CCF5F0144E013
:1024B000A40EB11C208031804280538021E64981E6
:1024C0005A81C201B101D3CF9C828B825F0152E05D
:1024D000A50EB11C69817A81808191810E946B1166
:1024E000B9CF9C828B825F0182E0A80EB11C208153
:1024F000A981BA812C933DCF2C36C1F23CF423360E
:1025000091F3243609F05FCF20E087CF2337F1F233
:10251000283709F058CF20E06ACFCF93DF93CDB7AB
:10252000DEB7A8970FB6F894DEBF0FBECDBFAE01E1
:10253000435D5F4FFA0161917191AF01CE01019648
:102540000E9474118E010F5F1F4FF12CF801419111
:102550008F01442331F060E08F2D0E94B914F39471
:10256000F5CF0E94AB14FFCF40E855E260E070E089
:1025700086EE91E00C94C70A42E050E060E083EB05
:1025800092E00C948D109093B4028093B30208955E
:10259000F999FECF8091B3029091B4029C012F5F14
:1025A0003F4F3093B4022093B30240960C94801EA8
:1025B000CF930E94C812C82F0E94C812982F8C2F48
:1025C000CF910895CF92DF92EF92FF92CF93DF9356
:1025D0000E94C812C82F0E94C812D82F0E94C81289
:1025E00090E0B0E0A0E07C01DD24CC24DD2ACC2A00
:1025F0000E94C812A7019601582BCA01B901DF91A8
:10260000CF91FF90EF90DF90CF900895F999FECF92
:102610002091B3023091B402A9014F5F5F4F5093F4
:10262000B4024093B302682FC90140960C94881EEF
:10263000CF93C92F0E9406138C2FCF910C940613B1
:102640001F93CF93DF93172FD82FC92F862F0E9468
:102650000613812F0E9406138D2F0E9406138C2FC4
:10266000DF91CF911F910C94061341E150E060E09F
:1026700085EB92E00E948D10E5EBF2E084E180832F
:1026800082E384870895682F8091C5020E94EB1D24
:1026900081E0911180E008950F931F930E943C09FF
:1026A0002091C202222391F02091BC02362F321BCE
:1026B0003093C0022091B6023091B7022F5F3F4F96
:1026C0003093B7022093B6021092C2020091B80272
:1026D0001091B9022091BA023091BB0260177107C4
:1026E0008207930738F4061B023010F00E949D0BFE
:1026F00080E02CC04091C1020091BC021091BD024B
:102700002091BE023091BF02040F111D211D311D09
:102710000617170728073907E0F00093B80210934F
:10272000B9022093BA023093BB026093BC0270934B
:10273000BD028093BE029093BF0281E08093C202EB
:102740008091C5028F5F8093C50281E01F910F9138
:1027500008956093B8027093B9028093BA0290937F
:10276000BB02E3CF45E050E060E086EC92E00E94DF
:102770008D1062E084E10E94D71B62E083E10E9439
:10278000D71B62E082E10E94D71B62E085E10E94D4
:10279000D71B62E087E00E94D71B62E088E00C94C0
:1027A000D71B4FB18CB123B190E08095909533E069
:1027B000959587953A95E1F78870992730E02095AF
:1027C0003095359527953595279524703327822B9D
:1027D000942F9095907F892B3091C6029091C702DB
:1027E0009827232F209592239093C702282F209576
:1027F00023232093C8028093C602907F21F49091F6
:10280000CA0291110FC08093C9029AE09093CA0244
:10281000807F59F08091CA02882349F081508093CB
:10282000CA0208951092C902F3CF1092CA02089505
:102830008091C60208958091C70208958091C802D0
:10284000089508958EBD00000DB407FEFDCF8EB52E
:102850000895CF92DF92EF92FF920F931F93CF9341
:10286000DF9340E054E060E08BEC92E00E948D103A
:102870000E94411C8CB58C7F8CBD8DB581608DBD57
:1028800061E084E00E94D71B61E08CE00E94D71BCE
:1028900061E086E00E94D71B61E086E00E94131C85
:1028A00061E070E080E090E00E946D0960E086E009
:1028B0000E94131C6AE070E080E090E00E946D09C5
:1028C00061E086E00E94131CEBE3F9E0E491F0E0A4
:1028D000EE0FFF1FE35BF64FC591D491E3E3F9E000
:1028E000E491F0E0EE0FFF1FE35BF64FE590F4900C
:1028F000EDE1F9E01491E5E1F9E004918881812BA3
:102900008883D7019C91802F809589238C9388811F
:1029100010958123888326EEC22E22E0D22EF60166
:1029200084910E942214FFEFCF1ADF0A83EFC816AA
:1029300082E0D806A1F7D701EC91E02BEC93E88177
:102940001E231883DF91CF911F910F91FF90EF907D
:10295000DF90CF900895CF93DF93CBECD2E08991B5
:102960000E94221486E0CB3CD807C9F7DF91CF91B3
:1029700008958931E8F46830D8F495E04902A0015F
:10298000112420E8629FD0011124899FA00DB11D60
:102990001124A553BD4F90E080E04D505D4FFA01EA
:1029A000E80FF91FE491ED93019685309105B9F791
:1029B00008951F93CF93DF93CDB7DEB7A8970FB6D7
:1029C000F894DEBF0FBECDBFAE014E5C5F4F68A96D
:1029D00079A9CE0101960E94741110E08EA5810F95
:1029E000E1E0F0E0EC0FFD1FE10FF11D4081442319
:1029F00029F06FA50E94B9141F5FF0CFA8960FB6FB
:102A0000F894DEBF0FBECDBFDF91CF911F91089527
:102A10008BEC92E0FC010024119211921192119220
:102A20000394D1F708952F923F924F925F926F9245
:102A30007F928F929F92AF92BF92CF92DF92EF924E
:102A4000FF920F931F93CF93DF93FA01A490EA01B3
:102A5000229631965490EA2CE694E694E694F12C72
:102A6000B0E0A0E0062E000C770B66246394082EDD
:102A7000000C990BA51508F04DC0AB014A0F5B1F68
:102A80004034510508F042C09A0113E0359527956E
:102A90001A95E1F73695322F2227379527954770FB
:102AA0005527762C01C0770C4A95EAF7FE01B12C28
:102AB000280F391FEF01BA1458F5849050E040E018
:102AC000C0E89C2ECB2DD0E06C01CC0EDD1E1E018B
:102AD000220E331E8601040F151F0038110560F405
:102AE000182D192149F08101040F151F05531D4FA1
:102AF000E80148804728488296944F5F5F4F4830EE
:102B0000510541F7D8E0BD0E3196D4CFCE0DDF1D73
:102B10001196B0CFDF91CF911F910F91FF90EF9061
:102B2000DF90CF90BF90AF909F908F907F906F90ED
:102B30005F904F903F902F9008952F923F924F9229
:102B40005F926F927F928F929F92AF92BF92CF923D
:102B5000DF92EF92FF920F931F93CF93DF9300D0FA
:102B600000D0CDB7DEB7FA017490DA011296319633
:102B70003490872C869486948694912C1C821B8298
:102B8000062E000C770B44244394082E000C990B5E
:102B90007C01F4E0EF1AF1080B81031508F056C030
:102BA0004B815C81460F571F4034510508F045C0EA
:102BB0009A0113E0359527951A95E1F73695322F4E
:102BC00022273795279547705527542C01C0550C5F
:102BD0004A95EAF7FD01B12C280F391FDF01B71420
:102BE00070F5649050E040E0A0E8AA2EAB2DB0E074
:102BF0006D01CE0CDF1C8D01020F131F1A83098398
:102C00008601040F151F0036110568F4162D1A21D0
:102C100051F009811A81040F151F05531D4FD8016A
:102C20002C9025282C92A6944F5F5F4F4830510579
:102C300039F7B8E0BB0E3196D1CFA80DB91D0B8185
:102C40001C810F5F1F4F1C830B83A6CF0F900F902B
:102C50000F900F90DF91CF911F910F91FF90EF9008
:102C6000DF90CF90BF90AF909F908F907F906F90AC
:102C70005F904F903F902F9008954BE952E16CE7A1
:102C800076EF8BEC96E00C944D1DAB01BC018BEC08
:102C900096E00C944D1D4F925F926F927F928F92AF
:102CA0009F92AF92BF92CF92DF92EF92FF920F93DB
:102CB0001F93EBECF6E00485158526853785C480E7
:102CC000D580E680F780408451846284738480805C
:102CD0009180A280B380E894B7F8D701C60184251B
:102CE0009525A625B72588259925AA25BB25AC01BC
:102CF000BD01440F551F661F771F4C015D018426DF
:102D00009526A626B726D901C801B695A795979509
:102D10008795082719272A273B27082519252A25BB
:102D20003B25C082D182E282F38204871587268701
:102D30003787B901A8014170552766277727709515
:102D40006095509541955F4F6F4F7F4F8089918976
:102D5000A289B38984239523A623B72384259525A7
:102D6000A625B72584839583A683B783848995890F
:102D7000A689B789482359236A237B23D901C8012F
:102D8000072E7AE0880F991FAA1FBB1F7A95D1F7EB
:102D9000702D88259925AA25BB2584279527A62748
:102DA000B72780879187A287B387892F9A2FAB2F68
:102DB000BB278C0D9D1DAE1DBF1D082719272A2777
:102DC0003B2781709927AA27BB27B095A09590959E
:102DD00081959F4FAF4FBF4FC08CD18CE28CF38C4D
:102DE000BC01CD016C217D218E219F21602771279F
:102DF000822793271F910F91FF90EF90DF90CF9044
:102E0000BF90AF909F908F907F906F905F904F900A
:102E10000895CF92DF92EF92FF926B017C010E94A6
:102E20004B16A70196010E940B1E97FF07C09095B5
:102E30008095709561957F4F8F4F9F4FFF90EF90DA
:102E4000DF90CF900895E1E7F0E080818D7F80836F
:102E5000A7EEB6E05496ED91FC9155979081569669
:102E60008C918095892380830895CF93DF934AE1E5
:102E700050E060E087EE96E00E948D1061E085E012
:102E80000E94D71BE4E3F9E0E491F0E0EE0FFF1FAE
:102E9000E35BF64F85919491C7EED6E09D8B8C8BCA
:102EA000E6E1F9E0E491EE8B61E08DE00E94D71B52
:102EB000ECE3F9E0E491F0E0EE0FFF1FE35BF64F87
:102EC00085919491988F8F8BEEE1F9E0E491E98FF1
:102ED00010929000A1E9B0E01C9210928000E1E80D
:102EE000F0E010828C9188608C938C9181608C933F
:102EF000808188608083808181608083E5E6F0E066
:102F00008081877F8083E4E6F0E08081877F808313
:102F1000DF91CF91089590E0FC01E951F94F1182C2
:102F2000FC01EE0FFF1FE80FF91FE951F94FA489CB
:102F3000B5899C918689809589238C930895411544
:102F4000510591E069077105F0F096E07695679577
:102F5000579547959A95D1F793E0415051096109EA
:102F60007109811112C080919100887F892B809313
:102F70009100509399004093980080917100826075
:102F800080937100089591E0E8CF80918100887F5F
:102F9000892B809381005093890040938800809111
:102FA0006F00826080936F000895CF93C82F8130A7
:102FB00021F48091F606811126C0E62FF0E0EE0F95
:102FC000FF1FED50F84F2591349150E040E0C111C2
:102FD00008C02093EE063093EF064093F00650931E
:102FE000F106EC2FF0E0E951F94F81E0818360E0D8
:102FF00074E284EF90E00E942D1EBA01A9018C2F8B
:10300000CF910C949F17CF910895CF93DF93EC014C
:103010008091F60681112DC081E08093F606DE01D5
:10302000AA0FBB1F9A01AB010E94521E28EE33E08B
:1030300040E050E00E940B1E21153105410551056D
:10304000C1F02093F7063093F8064093F9065093A9
:10305000FA069E0150E040E060E072E18AE790E00D
:103060000E942D1EBA01A90181E0DF91CF910C943D
:103070009F17DF91CF910895811102C00C942317FF
:1030800080916F008D7F80936F00E091FE06F0913C
:10309000FF069081809100078095892380830895A1
:1030A0000E94231781E00E943C181092E7060895C1
:1030B000CF93DF93C6ECD1E0E091F406F091F506F2
:1030C000BF016F5F7F4F7093F5066093F406A49184
:1030D0009A2F907F8A2F8F70903909F440C0B8F5ED
:1030E000903809F446C097FD50C03296F093F5062B
:1030F000E093F406FB016491BA2FA62F2091EE060F
:103100003091EF064091F0065091F1060E94521E58
:103110006C507E4F8F4F9F4F28EE33E040E050E0E1
:103120000E940B1E211531054105510509F042C0D1
:1031300081E090E0A0E0B0E08093EA069093EB0697
:10314000A093EC06B093ED06DF91CF910895903EE9
:1031500099F0903F41F6DF91CF910C945018329640
:10316000F093F506E093F406FB0164910E94D517F5
:10317000A3CF0E948B17A0CF8091F2069091F30607
:103180009093F5068093F40697CF8091F206909184
:10319000F306681B790B7F936F931F92AF93DF93B6
:1031A000CF930E948D120F900F900F900F900F9061
:1031B0000F9082CF2093EA063093EB064093EC0603
:1031C0005093ED06C1CF81E00E943C181092F606A4
:1031D00008951F920F920FB60F9211242F933F93D1
:1031E0004F935F936F937F938F939F93AF93BF930F
:1031F000EF93FF938091E806882349F0E091FB0666
:10320000F091FC0680819091FD0689278083809152
:10321000EA069091EB06A091EC06B091ED060197BD
:10322000A109B1098093EA069093EB06A093EC06FE
:10323000B093ED06892B8A2B8B2B11F40E94581822
:10324000FF91EF91BF91AF919F918F917F916F917E
:103250005F914F913F912F910F900FBE0F901F9054
:1032600018951F920F920FB60F9211242F933F9330
:103270004F935F936F937F938F939F93AF93BF937E
:10328000EF93FF93E091FE06F091FF06808190910D
:103290000007892780838091F6068823C9F08091F2
:1032A000F7069091F806A091F906B091FA060197F9
:1032B000A109B1098093F7069093F806A093F90647
:1032C000B093FA06892B8A2B8B2B11F40E94E318FA
:1032D000FF91EF91BF91AF919F918F917F916F91EE
:1032E0005F914F913F912F910F900FBE0F901F90C4
:1032F000189541E050E060E081E097E00E948D1079
:1033000081E08093010708952091010721110C9419
:103310000518089542E350E060E070E08AE491E02F
:103320000C94841942E350E060E070E087E295E09D
:103330000C94841942E350E060E070E08FEA90E082
:103340000C9484194FE050E060E082E097E00E9426
:103350008D10E2E0F7E080E094E09283818380E0EA
:1033600094E39483838388E790E096838583108633
:10337000178288E08187828781E0838708950F9391
:103380001F93CF93DF9310910407D0910A07DF5F5B
:10339000C091060760910C076C0F0D2F21E0409142
:1033A0000B07812F0E94F20F811118C0809109072D
:1033B00090910A07C29690930A078093090720917B
:1033C000050730910607820F931F9093060780939D
:1033D0000507DF91CF911F910F91089560910C0720
:1033E0006C0F21E040910B07812F0E948C0F80937E
:1033F0000F078091090790910A07892B11F00E940D
:103400009A1980910F070E94FC0F082E000C990B4F
:1034100020910C07821B910927FD939510920507B7
:103420008093060710920A071092090710920E0760
:1034300010920207CECFCF932091090730910A074F
:103440001216130634F482E080930207CF910C9495
:10345000BF192E5C3F4F30930A07209309078091D4
:10346000050790910607280F391F30930607209310
:103470000507232F330F330B20313105A4F4C0E1AE
:10348000C21B8C2F0E9443108C2FCC0F990B982FAE
:1034900088272091050730910607820F931F90938C
:1034A000060780930507CF910895CF9340910F07AA
:1034B00060910B07809104070E943E0F811106C0A6
:1034C00082E080930207CF910C94BF1980910F077F
:1034D0000E94740F882339F180910F070E94FC0F1E
:1034E000082E000C990B0897109205078093060789
:1034F000282F382F330F330B20313105A4F4C0E1CE
:10350000C81B8C2F0E9443108C2FCC0F990B982F27
:1035100088272091050730910607820F931F90930B
:103520000607809305070E941814847279F083E0DF
:103530000E944313882341F080910E078F5F67E05C
:103540000E94EB1D90930E07CF9108950E941E14C8
:103550008472D1F380910F070E94800F90910E0723
:103560008823C1F0892F90E0019648E3489F90019D
:10357000499F300D381B112430930A072093090707
:103580000E9492190E941E0E81E080930207CF9143
:103590000C941B1A8AE6989F9001391B1124285C11
:1035A000310930930A07209309070E948A19EACF4C
:1035B00080910207813091F078F0823089F01F927B
:1035C0008F938FE991E09F938F930E948D120F90BC
:1035D0000F900F900F9008950C94551A0C941B1A8D
:1035E0000C94BF1980910F070E945C0F882359F03B
:1035F00080910D0718168CF484E690E090930807EC
:1036000080930707089580910F070E94680F882311
:1036100039F080910D0718167CF78CE890E0EECF1A
:1036200088E790E0EBCF0E94F21A20910D074091BD
:103630000707509108072403C001259F900D11240E
:103640004091030750910407840F951F811535E0C1
:103650009307FCF0909304078093030720910B07D6
:1036600083E690E0821B910927FD9395982F882788
:103670002091030730910407281739074CF09093E5
:1036800004078093030780910D07819580930D07B0
:10369000089580E095E090930407809303072195B7
:1036A00020930D07DBCF0E94131B0C94D81A809136
:1036B0000E070C94350D80910607282F382F330FF5
:1036C000330B81E0203431050CF480E008950E9432
:1036D0005B1B81111BC08091020781110DC08AE024
:1036E0000E944313882341F0809110078F5F63E0AD
:1036F0000E94EB1D909310076091060720910D0723
:1037000040911007809104070C94020D08950E94C7
:10371000671B0C94571B81508F3008F047C0E82F6F
:10372000F0E0EB56F44E0C944C1EB21BB61BA41BDF
:10373000AA1BAE1BD61BD61BD61BB91BBF1BC31B9C
:10374000C71BCD1BD61BD11B809180008F77809328
:1037500080000895809180008F7DF9CF8091800056
:10376000877FF5CF84B58F7784BD089584B58F7D2D
:10377000FBCF809190008F77809390000895809187
:1037800090008F7DF9CF80919000877FF5CF809159
:10379000C0008F778093C00008958091C0008F7D16
:1037A000F9CF8091C200877F8093C2000895CF93A4
:1037B000DF9390E0FC01EF5EF64F2491815D964F20
:1037C000FC0184918823C9F090E0880F991FFC01C7
:1037D000E55AF64FA591B491FC01E35BF64FC59114
:1037E000D49161110DC09FB7F8948C9120958223DC
:1037F0008C938881282328839FBFDF91CF910895E0
:10380000623051F49FB7F8943C91822F80958323C6
:103810008C93E8812E2BEFCF8FB7F894EC912E2B61
:103820002C938FBFEACF1F93CF93DF93282F30E0E5
:10383000F901ED50F74F8491F901EF5EF64FD49105
:10384000F901E15DF64FC491CC23A9F0162F811147
:103850000E948B1BEC2FF0E0EE0FFF1FE35BF64F97
:10386000A591B4918FB7F894EC91111108C0D0953F
:10387000DE23DC938FBFDF91CF911F910895DE2B64
:10388000F8CFCF93CFB7F89480911107811127C05B
:10389000E0E4F9E08491E2E2F9E09491E82FF0E0CD
:1038A000EE0FFF1FE55AF64FA591B491EC91E92375
:1038B00021F461E081E10E94131C61E081E10E943A
:1038C000D71B8CB580618CBD8CB580648CBD61E0EC
:1038D0008FE00E94D71B61E080E10E94D71B80919E
:1038E00011078F5F80931107CFBFCF9108954F923B
:1038F0005F926F927F928F929F92AF92BF92CF9280
:10390000DF92EF92FF920F931F93FC014484558442
:103910006684778484809580A680B780C084D184B3
:10392000E284F38480819181A281B381BF77B50164
:10393000A4014C255D256E257F2584279527A62784
:10394000B7278C019D01000F111F221F331F08276D
:1039500019272A273B27B301A2017695679557952A
:103960004795442555256625772540275127622709
:10397000732780829182A282B382448755876687AB
:103980007787DB01CA0181709927AA27BB27B095E9
:10399000A095909581959F4FAF4FBF4F808891889C
:1039A000A288B38888229922AA22BB22C824D924BB
:1039B000EA24FB24C482D582E682F782C488D588B3
:1039C000E688F7888C219D21AE21BF21032E3AE0A5
:1039D000440F551F661F771F3A95D1F7302D4027AA
:1039E00051276227732784279527A627B727808723
:1039F0009187A287B3871F910F91FF90EF90DF907F
:103A0000CF90BF90AF909F908F907F906F905F907E
:103A10004F900895FC0180819181A281B381BF778D
:103A2000892B8A2B8B2BC1F584819581A681B78147
:103A3000892B8A2B8B2B81F580859185A285B38577
:103A4000892B8A2B8B2B41F584859585A685B78597
:103A5000892B8A2B8B2B01F584E590E0A0E0B0E068
:103A600080839183A283B38389E490E0A0E0B0E0F7
:103A700084839583A683B7838EE490E0A0E0B0E0D2
:103A800080879187A287B38789E590E0A0E0B0E0C6
:103A900084879587A687B78708958F929F92AF9264
:103AA000BF92CF92DF92EF92FF920F931F93CF932B
:103AB000DF93EC01488359836A837B8388899989E2
:103AC000AA89BB898C839D83AE83BF838C899D89A2
:103AD000AE89BF8988879987AA87BB87888D998D8A
:103AE000AA8DBB8D8C879D87AE87BF87C12CD12CBB
:103AF0007601C394860103701127000F111F000F78
:103B0000111F0C0F1D1FF6013197E370FF27EE0FF9
:103B1000FF1FEE0FFF1FEC0FFD1F80819181A2811F
:103B2000B3819C01AD016EE1569547953795279578
:103B30006A95D1F7282739274A275B2765E679E870
:103B400087E09CE60E94DB1D4B015C018C0C9D1CF8
:103B5000AE1CBF1CF80180819181A281B3818826AF
:103B60009926AA26BB2680829182A282B382FFEF89
:103B7000CF1ADF0AEF0AFF0A88E0C816D104E10471
:103B8000F10409F0B7CFCE010E940A1D08E010E051
:103B9000CE010E94771C01501109D1F7DF91CF911E
:103BA0001F910F91FF90EF90DF90CF90BF90AF905B
:103BB0009F908F900895DB018F939F930E94521ED8
:103BC000BF91AF91A29F800D911DA39F900DB29FB9
:103BD000900D11240895991B79E004C0991F961740
:103BE00008F0961B881F7A95C9F78095089597FB72
:103BF000072E16F4009407D077FD09D00E945D1EB1
:103C000007FC05D03EF4909581959F4F08957095DF
:103C100061957F4F0895A1E21A2EAA1BBB1BFD01DF
:103C20000DC0AA1FBB1FEE1FFF1FA217B307E4079B
:103C3000F50720F0A21BB30BE40BF50B661F771FF3
:103C4000881F991F1A9469F76095709580959095D3
:103C50009B01AC01BD01CF010895052E97FB1EF419
:103C600000940E94441E57FD07D00E940B1E07FCC3
:103C700003D04EF40C94441E5095409530952195F8
:103C80003F4F4F4F5F4F0895909580957095619588
:103C90007F4F8F4F9F4F0895EE0FFF1F0590F491B8
:103CA000E02D09940E94711EA59F900DB49F900D68
:103CB000A49F800D911D11240895AA1BBB1B51E1E7
:103CC00007C0AA1FBB1FA617B70710F0A61BB70B8C
:103CD000881F991F5A95A9F780959095BC01CD0131
:103CE0000895A29FB001B39FC001A39F700D811DD5
:103CF0001124911DB29F700D811D1124911D0895F5
:103D0000F999FECF92BD81BDF89A992780B50895A3
:103D1000262FF999FECF1FBA92BD81BD20BD0FB6E7
:103D2000F894FA9AF99A0FBE01960895F894FFCF85
:103D300000C18081000000FFFFFFFF00E1000000E4
:103D40000000001002F601DC01C201A8018E01741E
:103D50000158014A013901820274026602AC029ED6
:103D60000290023E0234022A025C02520248020021
:103D7000000000EB09320A150A250A010A120A4757
:103D8000414D45204F56455200434F4D504C4554F0
:103D90004521007265732E637070002573282564B9
:103DA000296E756D203C20330A002573282564296F
:103DB0006E756D203C20370A0042657374002052F6
:103DC0006563004A756D70002534640025782025F0
:103DD000780073746167652E637070002573282501
:103DE00064296D7920213D20300A0001010202037F
:103DF0000304040505055B536E64202578202578AF
:103E00005D00FFFFFFFFFFFFFFFFFFFFFFFFFFFF63
:103E1000FFFFFFFFFFFFFFFFFFFFFFFFFFFFFFFFB2
:103E2000FFFFFFFFFFFFFFFFFFFFFFFFFFFFFFFFA2
:103E3000FFFFFFFFFFFFFFFFFFFFFFFFFFFFFFFF92
:103E4000FFFFFFFFFFFFFFFFFFFFFFFFFFFFFFFF82
:103E5000FFFFFFFFFFFFFFFFFFFFFFFFFFFFFFFF72
:103E6000FFFFFFFFFFFFFFFFFFFFFFFFFFFFFFFF62
:103E7000FFFFFFFFFFFFFFFFFFFFFFFFFFFFFFFF52
:103E8000FFFFFFFFFFFFFFFFFFFFFFFFFFFFFFFF42
:103E9000FFFFFFFFFFFFFFFFFFFFFFFFFFFFFFFF32
:103EA000FFFFFFFFFFFFFFFFFFFFFFFFFFFFFFFF22
:103EB000FFFFFFFFFFFFFFFFFFFFFFFFFFFFFFFF12
:103EC000FFFFFFFFFFFFFFFFFFFFFFFFFFFFFFFF02
:103ED000FFFFFFFFFFFFFFFFFFFFFFFFFFFFFFFFF2
:103EE000FFFFFFFFFFFFFFFFFFFFFFFFFFFFFFFFE2
:103EF000FFFFFFFFFFFFFFFFFFFFFFFFFFFFFFFFD2