:100000000C9463180C948B180C948B180C948B180C
:100010000C948B180C948B180C948B180C948B18D4
:100020000C948B180C948B180C94EC230C945E2479
:100030000C948B180C948B180C948B180C948B18B4
:100040000C948B180C948B180C948B180C948B18A4
:100050000C948B180C948B180C948B180C94461FD2
:100060000C948B180C948B180C948B180C948B1884
:100070000C948B180C948B180C948B180C948B1874
:100080000C948B180C948B180C948B180C948B1864
:100090000C948B180C948B180C948B180C948B1854
:1000A0000C948B180C948B180C948B185F2989294D
:1000B000822A982AF42A202B422CB12CB62C4B29C8
:1000C000D5F08D14A1C881CFD9F1AF2000FFFFFF7B
:1000D000FFFFFFFFFFFFFFFFFFFFFFFFFFFFFFFF30
:1000E000FFFFFFFFFFFFFFFFFFFFFFFFFFFFFFFF20
:1000F000FFFFFFFFFFFFFFFFFFFFFFFFFFFFFFFF10
:10010000FFFFFFFFFFFFFFFFFFFFFFFFFFFFFFFFFF
:10011000FFFFFFFFFFFFFFFFFFFFFFFFFFFFFFFFEF
:10012000FFFFFFFFFFFFFFFFFFFFFFFFFFFFFFFFDF
:10013000FFFFFFFFFFFFFFFFFFFFFFFFFFFFFFFFCF
:10014000FFFFFFFFFFFFFFFFFFFFFFFFFF010101B9
:1001500001010101010101C1E1F9F9F9F9F9F9F927
:10016000F9F9F9F9F9F9F9F9F9F9F9F9F9F9F9F9FF
:10017000F9F9F9F9F9F9F9F9F9F9F9F9F9F9F9F9EF
:10018000F9F9F9F9F9F9F9F9F9F9F9F9F9F9F9F9DF
:10019000F9F9F9F9F9F9F9F9F9F9F9F9F9F9F9F9CF
:1001A000F9F9F9F9F9F9F9F9F9F9F9F9F9F9F9F9BF
:1001B000F9F9F9F9F9F9F9F9F9F9F9F9F9F9F9F9AF
:1001C000F9E1C1010101010101010101010000008A
:1001D00000000000000000FFFFFFFFFFFFFFFFFF28
:1001E000FFFFFFFFFFFFFFFFFFFFFFFFFFFFFFFF1F
:1001F000FFFFFFFFFFFFFFFFFFFFFFFFFFFFFFFF0F
:10020000FFFFFFFFFFFFFFFFFFFFFFFFFFFFFFFFFE
:10021000FFFFFFFFFFFFFFFFFFFFFFFFFFFFFFFFEE
:10022000FFFFFFFFFFFFFFFFFFFFFFFFFFFFFFFFDE
:10023000FFFFFFFFFFFFFFFFFFFFFFFFFFFFFFFFCE
:10024000FFFFFFBF5E00000000000000002070F80C
:10025000FCFCFCFCF87020FFFFFFFFFFFFFFFFFF2F
:10026000FFFFFFFFFFFFFFFFFFFFFFFFFFFFFFFF9E
:10027000FFFFFFFFFFFFFFFFFFFFFFFFFFFFFFFF8E
:10028000FFFFFFFFFFFFFFFFFFFFFFFFFFFFFFFF7E
:10029000FFFFFFFFFFFFFFFFFFFFFFFFFFFFFFFF6E
:1002A000FFFFFFFFFFFFFFFFFFFFFFFFFFFFFFFF5E
:1002B000FFFFFFFFFFFFFFFFFFFFFFFFFFFFFFFF4E
:1002C000FFFFFFAA55000000000000000000000131
:1002D00003030303010000FFFFFFFFFFFFFFFFFF1A
:1002E000FFFFFFFFFFFFFFFFFFFFFFFFFFFFFFFF1E
:1002F000FFFFFFFFFFFFFFFFFFFFFFFFFFFFFFFF0E
:10030000FFFFFFFFFFFFFFFFFFFFFFFFFFFFFFFFFD
:10031000FFFFFFFFFFFFFFFFFFFFFFFFFFFFFFFFED
:10032000FFFFFFFFFFFFFFFFFFFFFFFFFFFFFFFFDD
:10033000FFFFFFFFFFFFFFFFFFFFFFFFFFFFFFFFCD
:10034000FFFFFFAA550000000000000000000000B1
:1003500000008080C0C0C0FFFFFFFFFFFFFFFFFF66
:10036000FFFFFFFFFFFFFFFFFFFFFFFFFFFFFFFF9D
:10037000FFFFFFFFFFFFFFFFFFFFFFFFFFFFFFFF8D
:10038000FFFFFFFFFFFFFFFFFFFFFFFFFFFFFFFF7D
:10039000FFFFFFFFFFFFFFFFFFFFFFFFFFFFFFFF6D
:1003A000FFFFFFFFFFFFFFFFFFFFFFFFFFFFFFFF5D
:1003B000FFFFFFFFFFFFFFFFFFFFFFFFFFFFFFFF4D
:1003C000FFFFFFEAD5C080800000000000000000B1
:1003D0003CFFFFFFFFFFFFFFFFFFFFFFFFFFFFFFF0
:1003E000FFFFFFFFFFFFFFFFFFFFFFFFFFFFFFFF1D
:1003F000FFFFFFFFFFFFFFFFFFFFFFFFFFFFFFFF0D
:10040000FFFFFFFFFFFFFFFFFFFFFFFFFFFFFFFFFC
:10041000FFFFFFFFFFFFFFFFFFFFFFFFFFFFFFFFEC
:10042000FFFFFFFFFFFFFFFFFFFFFFFFFFFFFFFFDC
:10043000FFFFFFFFFFFFFFFFFFFFFFFFFFFFFFFFCC
:10044000FFFFFFFFFFFFFFFFFF3C000000F0F8F0A1
:10045000F0F8F1CFFFFFFFFFFFFFFFFFFFFFFFFF00
:10046000FFFFFFFFFFFFFFFFFFFFFFFFFFFFFFFF9C
:10047000FFFFFFFFFFFFFFFFFFFFFFFFFFFFFFFF8C
:10048000FFFFFFFFFFFFFFFFFFFFFFFFFFFFFFFF7C
:10049000FFFFFFFFFFFFFFFFFFFFFFFFFFFFFFFF6C
:1004A000FFFFFFFFFFFFFFFFFFFFFFFFFFFFFFFF5C
:1004B000FFFFFFFFFFFFFFFFFFFFFFFFFFFFFFFF4C
:1004C000FFFFFFFFFFFFFFF9F0F0F8F0F080407E44
:1004D000FFFFFFFFFFFFFFFFFFFFFFFFFFFFFFFF2C
:1004E000FFFFFFFFFFFFFFFFFFFFFFFFFFFFFFFF1C
:1004F000FFFFFFFFFFFFFFFFFFFFFFFFFFFFFFFF0C
:10050000FFFFFFFFFFFFFFFFFFFFFFFFFFFFFFFFFB
:10051000FFFFFFFFFFFFFFFFFFFFFFFFFFFFFFFFEB
:10052000FFFFFFFFFFFFFFFFFFFFFFFFFFFFFFFFDB
:10053000FFFFFFFFFFFFFFFFFFFFFFFFFFFFFFFFCB
:10054000FFFFFFFFFFFFFFFFFFFFFFFFFFFF7E003B
:1005500000000000000000000000C020905050503B
:10056000505050505050505050505050505050508B
:10057000505050505050505050505050505050507B
:10058000505050505050505050505050505050506B
:10059000505050505050505050505050505050505B
:1005A000505050505050505050505050505050504B
:1005B000505050505050505050505050505050503B
:1005C000509020C00000000000000000000000006B
:1005D00000000000000000000000FF00FF0000001D
:1005E0007E12120C00427E40000020545478009C81
:1005F000A0A07C0038545458007C08040800000077
:1006000000FF0000000000444A4A320038444428F9
:100610000038444438007C0804080038545458001A
:10062000000000FF000000040E44300C22200000F7
:100630007E12120C0020545478007C08040800003C
:1006400000FF00FF0000000000000000000000208C
:1006500050A884243484A8502000FF00FF02020226
:10066000020202020202020202020202020202026A
:10067000020202020202020202020202020202025A
:1006800002FA020202020202020202020202020252
:10069000020202020202020202020202020202023A
:1006A000020202FA02020202020202020202020232
:1006B000020202020202020202020202020202021A
:1006C00002FF00FF0000000000000000000000002A
:1006D00000010202020201000000FF00FF0004000E
:1006E00004000400040004000400040004000400EA
:1006F00004000400040004000400040004000400DA
:1007000000FF0000040004000400040004000400D2
:1007100004000400040004000400040004000400B9
:10072000040000FF000004000400040004000400B2
:100730000400040004000400040004000400040099
:1007400000FF00FF000000000000000000000000AB
:10075000000000000000808080807F00FF00080013
:100760000800080008000800080008000800080049
:100770000800080008000800080008000800080039
:1007800000FF00000800080008000800080008003A
:100790000800080008000800080008000800080019
:1007A000080000FF0000080008000800080008001A
:1007B00008000800080008000800080008000800F9
:1007C00000FF007F808080800000000000000000AB
:1007D0000000003CF7FFDDF77F6DBFC33C00100059
:1007E0001000100010001000100010001000100089
:1007F0001000100010001000100010001000100079
:1008000000FF000010001000100010001000100089
:100810001000100010001000100010001000100058
:10082000100000FF00001000100010001000100069
:100830001000100010001000100010001000100038
:10084000003CF7FFDDF77F6DBFC33C000000008078
:10085000F0C0E090C08005FD2D85D080EF80E0C025
:10086000E080C0C080A0C080C0E0E080E0C0C08068
:10087000E08080C0E0E080E080C0E08080C080E078
:10088000C0E780E080E0C080E080E0C0C080E08021
:10089000C080C0C0E080E0C0C0A0C08080E0C08058
:1008A00080C0808FE080C0C0E080E0C0C080E08079
:1008B00080C0E0E080E080C0E0808080E080E0C038
:1008C000E097C0A005FD2D85C090E080F0C0E080DD
:1008D00040007E08087E003844443800427E4000D4
:1008E0000038545458000000000078EEFEBBEFFFC3
:1008F000DB7E867800000000007F00000000000022
:100900000000000000000000007F00000000000068
:100910000000000000000000007F00000000000058
:100920000000000000000000007F00FF0000000049
:10093000000002027E02023844443800043E444073
:10094000002054547800427E400000000000000067
:1009500000FD0D6D6D9DFDFD5D5D3DFD1DBDDDBDB4
:10096000FDFDFDFDFDFDFDFDFDFDFE7DF50BFB5AD5
:10097000AAF5FDFEFDFDFDFDFD05FDFDFDFDFDFDF9
:10098000FDFDFDFDFDFDFDFDFD05FDFDFDFDFDFD8F
:10099000FDFDFDFDFDFDFDFDFD05FDFDFDFDFDFD7F
:1009A000FDFDFDFDFDFDFDFDFD05F8F265EAEAEA50
:1009B000EAEAEAEAEAEAEAEAEA6AEAEAEAEAEAEA17
:1009C0006AEAEAEA6AEAEAEAEAEA6AEAEAEAEA6A87
:1009D000EA171417171717161515141714171717E2
:1009E00017161516161515161516141714141516B0
:1009F00015151615151615141FA81F1F1F1F1F1FCD
:100A00001F1F1F1F1F1F1F1F1FA81F1F1F1F1F1F6D
:100A10001F1F1F1F1F1F1F1F1FA81F1F1F1F1F1F5D
:100A20001F1F1F1F1F1F1F1F1FA81F14171415167E
:100A30001615151615151615141716151516151461
:100A40001714151617141516151417141516141750
:100A50001680808080808080808080808080808000
:100A60008080808080808080808080808080808086
:100A7000808080808080808000AA0080808080804C
:100A8000808080808080808000AA0080808080803C
:100A9000808080808080808000AA0080808080802C
:100AA000808080808080808000AA0080808080801C
:100AB0008080808080808080808080808080808036
:100AC0008080808080808080808080808080808026
:100AD0008000000000000000000000000000000096
:100AE0000000000000000000000000000000000006
:100AF000000000000000000000AA0000000000004C
:100B0000000000000000000000AA0000000000003B
:100B1000000000000000000000AA0000000000002B
:100B2000000000000000000000AA0000000000001B
:100B300000000000000000000000000000000000B5
:100B400000000000000000000000000000000000A5
:100B50000004040404040404040404040404040459
:100B60000404040404040404040404040404040445
:100B7000040404040404040400AA00040404040497
:100B8000040404040404040400AA00040404040487
:100B9000040404040404040400AA00040404040477
:100BA000040404040404040400AA00040404040467
:100BB00004040404040404040404040404040404F5
:100BC00004040404040404040404040404040404E5
:100BD0000420202020202020202020202020202031
:100BE0002020202020202020202020202020202005
:100BF000202020202020202000AA002020202020AB
:100C0000202020202020202000AA0020202020209A
:100C1000202020202020202000AA0020202020208A
:100C2000202020202020202000AA0020202020207A
:100C300020202020202020202020202020202020B4
:100C400020202020202020202020202020202020A4
:100C50002000000000000000000000000000000074
:100C60000000000000000000000000000000000084
:100C7000000000000000000000AA000000000000CA
:100C8000000000000000000000AA000000000000BA
:100C9000000000000000000000AA000000000000AA
:100CA000000000000000000000AA0000000000009A
:100CB0000000000000000000000000000000000034
:100CC0000000000000000000000000000000000024
:100CD00000206E616D653F2000506C617965722067
:100CE0000000000000000000000000000000000004
:100CF00000000000000000000000000000000000F4
:100D000000FFFFFFFFFFFFFFFFFFFFFFFFFFFFFFF2
:100D1000FFFFFFFFFFFFFFFFFFFFFFFFFFFFFFFFE3
:100D2000FFFFFFFFFFFFFFFFFFFFFFFFFFFFFFFFD3
:100D3000FFFFFFFFFFFFFFFFFFFFFFFFFFFFFFFFC3
:100D400000000000000000000000000000000000A3
:100D50000000000000000000000000000000000093
:100D60000000000000000000000000000000000083
:100D70000000000000000000000000000000000073
:100D800000FFFFFFFFFFFFFFFFFFFFFFFFFFFFFF72
:100D9000FFFFFFFFFFFFFFFFFFFFFFFFFFFFFFFF63
:100DA000FFFFFFFFFFFFFFFFFFFFFFFFFFFFFFFF53
:100DB000FFFFFFFFFFFFFFFFFFFFFFFFFFFFFFFF43
:100DC0000000000000000000000000000000000023
:100DD0000000000000000000000000000000000013
:100DE0000000000000000000000000000000000003
:100DF00000000000000000000000000000000000F3
:100E000000FFFFFFFFFFFFFFFFFFFFFFFFFFFFFFF1
:100E1000FFFFFFFFFFFFFFFFFFFFFFFFFFFFFFFFE2
:100E2000FFFFFFFFFFFFFFFFFFFFFFFFFFFFFFFFD2
:100E3000FFFFFFFFFFFFFFFFFFFFFFFFFFFFFFFFC2
:100E400000000000000000000000000000000000A2
:100E50000000000000000000000000000000000092
:100E60000000000000000080C0C0E0E0E0E0C0C082
:100E700080000000000000000000000000000000F2
:100E800000FFFFFFFFFFFFFFFFFFFFFFFFFFFFFF71
:100E9000FFFFFFFFFFFFFFFFFFFFFFFFFFFFFFFF62
:100EA000FFFFFFFFFFFFFFFFFFFFFFFFFFFFFFFF52
:100EB000FFFFFFFFFFFFFFFFFFFFFFFFFFFFFFFF42
:100EC0000000000000000000000000000000000022
:100ED00080C0C0E0E0E0E0C0C08000000000000092
:100EE0000000000000001E7FFFFFFFFFFFFFFFFF6D
:100EF0007F1E000000000000000000000000000055
:100F000000FFFFFFFFFFFFFFFFFFFFFFFFFFFFFFF0
:100F1000FFFFFFFFFFFFFFFFFFFFFFFFFFFFFFFFE1
:100F2000FFFFFFFFFFFFFFFFFFFFFFFFFFFFFFFFD1
:100F3000FFFFFFFFFFFFFFFFFFFFFFFFFFFFFFFFC1
:100F40000000000000000000000000000000001E83
:100F50007FFFFFFFFFFFFFFFFF7F1E00000000007D
:100F600000F0F8F8FCF8F8FCF8E2FFFFFFF7F2F009
:100F7000F8F8FCF8F8FCF8F0E0E0F0E0F0F8FCF845
:100F8000FCFFFFFFFFFFFFFFFFFFFFFFFFFFFFFF74
:100F9000FFFFFFFFFFFFFFFFFFFFFFFFFFFFFFFF61
:100FA000FFFFFFFFFFFFFFFFFFFFFFFFFFFFFFFF51
:100FB000FFFFFFFFFFFFFFFFFFFFFFFFFFFFFFFF41
:100FC000F8F0F8F0E0F0F0F8FCF8F8FCF8FCF8F8CD
:100FD000FCF8FAFFFFFFFFF2F8FCF8F8FCF8E0E09D
:100FE000F0FFFFFFFFFFFFFFFFFFFFFFFFFFFFFF20
:100FF000FFFFFFFFFFFFFFFFFFFFFFFFFFFFFFFF01
:10100000FFFFFFFFFFFFFFFFFFFFFFFFFFFFFFFFF0
:10101000FFFFFFFFFFFFFFFFFFFFFFFFFFFFFFFFE0
:10102000FFFFFFFFFFFFFFFFFFFFFFFFFFFFFFFFD0
:10103000FFFFFFFFFFFFFFFFFFFFFFFFFFFFFFFFC0
:10104000FFFFFFFFFFFFFFFFFFFFFFFFFFFFFFFFB0
:10105000FFFFFFFFFFFFFFFFFFFFFFFFFFFFFFFFA0
:10106000FFFFFFFFFFFFFFFFFFFFFFFFFFFFFFFF90
:10107000FFFFFFFFFFFFFFFFFFFFFFFFFFFFFFFF80
:10108000FFFFFFFFFFFFFFFFFFFFFFFFFFFFFFFF70
:10109000FFFFFFFFFFFFFFFFFFFFFFFFFFFFFFFF60
:1010A000FFFFFFFFFFFFFFFFFFFFFFFFFFFFFFFF50
:1010B000FFFFFFFFFFFFFFFFFFFFFFFFFFFFFFFF40
:1010C000FFFFFFFFFFFFFFFFFFFFFFFFFFFFFFFF30
:1010D000FFFFFFFFFFFFFFFFFFFFFFFFFFFFFFFF20
:1010E000FF80400000000000000000000000000041
:1010F00000000000000000000000000000000000F0
:1011000000000000FF00FF000000000000000000E1
:1011100000000000000000000000000000000000CF
:1011200000000000000000000000000000000000BF
:101130000000000000000000000000000000FF00B0
:10114000FF000000000000000000000000000000A0
:10115000000000000000000000000000000000008F
:10116000000000000000000000000000000000007F
:10117000000000000000000000000000000000006F
:1011800000000000FF00FF00000000000820883879
:10119000F8E0F8F838884040E00000608000E000A7
:1011A000000000008000000000000000000080003F
:1011B0000000004000000000000000000000FF00F0
:1011C000FF00000000000000000000000000000020
:1011D000000000000000000000000000000000000F
:1011E00000000000000000000000000000000000FF
:1011F00000000000000000000000000000000000EF
:1012000000000000FF00FF000000000000000002DE
:1012100008030701180B0B0600000000030E010075
:1012200006090E000F010E010E001F0906000E0038
:101230000F02000F000609000B0D00000000FF0068
:10124000FF0000000000000000000000000000009F
:10125000000000000000000000000000000000008E
:10126000000000000000000000008080C0C0C0C07E
:10127000808000000000000000000000000000006E
:1012800000000000FF00FF00000000000000E03050
:10129000FA6C7878786CFA30E0000000FC2404D412
:1012A00000FC00F020C020C000C020C008FC08C026
:1012B0002060000000000000000000000000FF00AF
:1012C000FF0000000000000000000000000000001F
:1012D0000000008080C0C0C0C0808000000000000E
:1012E0000000000000000000001E7B7FEEFBBFB688
:1012F0005F611E0000000000000000000000000010
:1013000000000000FF00FF000000000000000000DF
:1013100000010100010100000000000001000001C7
:1013200000010001000100010000010000010000B7
:101330000101000000000000000000000000FF00AC
:10134000FF0000000000000000000000000000009E
:1013500000001E7B7FEEFBBFB65F611E0000000039
:10136000000000C0F0C0F8E0F0C8E0C082FE96C205
:10137000E0C0F0C0F8E0F0C8E0E0C0C0E0C0E0F0DD
:10138000F8C0F0E8E7C0F7C0C0E0F0F8C0F0C8E08F
:10139000F0C0C0E0C0F0E0F8C0F0C8F0E0C0F8C0B5
:1013A000F0E8E0C0F0C0E0C0E0E0F8C0F0E8E0C085
:1013B000E0C0C0F0E0C0C0E0C0C0F0C0E0E0FFC0EE
:1013C000F7E8E0C0F0C0C0E0E0F0F8C0F0F8E0F806
:1013D000E0F0C8E0D082FE96C2E0C0F8C0F0E8E0DD
:1013E000C0C0E0FFFFEFFFE3FFE7FBEFFFFFFFFF02
:1013F000FFEFFFE3FFE7FBFFFFFFFFFFFFFFFFEF55
:10140000FFE3FFE7FBEFFFFFFFFFFFEFFFE3FFE778
:10141000FBEFFFFFFFFFFFFFFFEFFFE3FFE7FBEF48
:10142000FFFFFFFFFFEFFFE3FFE7FBEFFFFFFFFF24
:10143000FFFFFFEFFFE3FFE7FBEFFFFFFFFFFFEF24
:10144000FFE3FFE7FBEFFFFFFFFFFFFFFFFFEFFF04
:10145000E3FFE7FBEFFFFFFFFFFFEFFFE3FFE7FB2C
:10146000EFFFFFFFFFFFFFFFFFFFF7FFF1FFF3FDC0
:10147000F7FFFFFFFFFFFFFFFFFFFFFFFFFFFFFF84
:10148000FFFFFFFFF7FFF1FFF3FDF7FFFFFFFFFF98
:10149000FFFFFFFFFFFFFFFFFFFFFFFFFFFFF7FF64
:1014A000F1FFF3FDF7FFFFFFFFFFFFFFFFFFFFFF70
:1014B000FFFFFFFFFFFFFFFFF7FFF1FFF3FDF7FF68
:1014C000FFFFFFFFFFFFFFFFFFFFFFFFFFFFFFFF2C
:1014D000FFFFFFF7FFF1FFF3FDF7FFFFFFFFFFFF48
:1014E000FFFFFF050700003E000005077F7F7F7FAD
:1014F0007F000000000000C0E0F0F0F0F0F0F0F03D
:10150000F0F0F0F0F0F0F0F0F0F0F0F0F0F0F0F0DB
:10151000F0F0F0F0F0F0F0F0F0F0F0F0F0F0F0F0CB
:10152000F0F0F0F0F0F0F0F0F0F0F0F0F0F0F0F0BB
:10153000F0F0F0F0F0F0F0F0F0F0F0F0F0F0F0F0AB
:10154000F0F0F0F0F0F0E0C000000000000000005B
:10155000000000000000000000000000000000008B
:10156000000000000000000000000000000000007B
:1015700000000000000000FFFFFFFFFFFFFFFFFF74
:10158000FFFFFFFFFFFFFFFFFFFFFFFFFFFFFFFF6B
:10159000FFFFFFFFFFFFFFFFFFFFFFFFFFFFFFFF5B
:1015A000FFFFFFFFFFFFFFFFFFFFFFFFFFFFFFFF4B
:1015B000FFFFFFFFFFFFFFFFFFFFFFFFFFFFFFFF3B
:1015C000FFFFFFFFFFFFFFFF000000000000000023
:1015D000000000000000000000000000000000000B
:1015E00000000000000000000000000000000000FB
:1015F00000000000000000FFFFFFFFFFFFFFFFFFF4
:10160000FFFFFFFFFFFFFFFFFFFFFFFFFFFFFFFFEA
:10161000FFFFFFFFFFFFFFFFFFFFFFFFFFFFFFFFDA
:10162000FFFFFFFFFFFFFFFFFFFFFFFFFFFFFFFFCA
:10163000FFFFFFFFFFFFFFFFFFFFFFFFFFFFFFFFBA
:10164000FFFFFFFFFFFFFFFF00000000000000E0C2
:10165000E0E0E0E0E0E0E0E0E0E0E0E0E0E0E0006A
:10166000000000000000000000000000000000007A
:1016700000000000000000FFFFFFFFFFFFFFFFFF73
:10168000FFFFFFFFFFFFFFFFFFFFFFFFFFFFFFFF6A
:10169000FFFFFFFFFFFFFFFFFFFFFFFFFFFFFFFF5A
:1016A000FFFFFFFFFFFFFFFFFFFFFFFFFFFFFFFF4A
:1016B000FFFFFFFFFFFFFFFFFFFFFFFFFFFFFFFF3A
:1016C000FFFFFFFFFFFFFFFF00000000000000EF33
:1016D000EFEFEFEFEFEFEFEFEFEFEFEFEFEFEFE029
:1016E000E0E0E0E00000000000000000000000007A
:1016F00000000000000000FFFFFFFFFFFFFFFFFFF3
:10170000FFFFFFFFFFFFFFFFFFFFFFFFFFFFFFFFE9
:10171000FFFFFFFFFFFFFFFFFFFFFFFFFFFFFFFFD9
:10172000FFFFFFFFFFFFFFFFFFFFFFFFFFFFFFFFC9
:10173000FFFFFFFFFFFFFFFFFFFFFFFFFFFFFFFFB9
:10174000FFFFFFFFFFFFFFFF00000000000000EFB2
:10175000EFEFEFEFEFEFEFEFEFEFEFEFEFEFEFEF99
:10176000EFEFEFEFE0E0E0E0E0E00000000000007D
:101770000000000000000003878FCFCFCFCF8F8FF6
:101780000F0F0F0F0F0F0F0F0F0F0F0F0F0F0F0F69
:101790000F0F0F0F0F0F0F0F0F0FFFFFFFFFFFFFB9
:1017A000FFFFFF0F0F0F0F0F0F0F0F0F0F0F0F0F79
:1017B0000F0F0F0F0F0F0F0F0F0F0F0F0F0F0F8FB9
:1017C0008FCFCFCFCF8F8703000000000000000F26
:1017D0000F0F0F0F0F0F0F0F0F0F0F0F0F0F0F0F19
:1017E0000F0F0F0F0F0F0F0F0F0F00000000000063
:1017F0000000000000003CFFFFFFFFFFFFFFFFFFB6
:10180000FF3C00000000000000000000000000009D
:1018100000000000000000000000FFFFFFFFFFFFCE
:10182000FFFFFF00000000000000000000000000BB
:10183000000000000000000000000000003CFFFF6E
:10184000FFFFFFFFFFFFFFFF3C0000000000000064
:101850000000000000000000000000000000000088
:101860000000000000000000000000000000000078
:1018700000E0F0F0F8F0F0F8F1CFFFFFFFFFEFE14C
:10188000F0F0F8F0F0F8F0E0C0C0E0C0E0F0F8F000
:10189000F0F8F0E0F0E0C0E0F0F8FFFFFFFFFFFF3E
:1018A000FFFFFFF0F0F8F0F0F8F0E0F0F8F0F0F8FB
:1018B000F0E0F0E0E0C0E0F0F8F0F0F8F0F0F8F17F
:1018C000EFFFFFFFFFEFE1F0F0F8F0F0F8F0E0E0FD
:1018D000C0E0F0E0F0F8F0F0F8F0E0F0E0F0E0F078
:1018E000F8F0F0F8F8F0F0E0E0E0F0F0F8F0F0F800
:1018F000F0804000000000000000C0E0E060606098
:1019000060606060606060606060606060606060D7
:1019100060606060606060606060606060606060C7
:1019200060606060606060606060606060606060B7
:1019300060606060606060606060606060606060A7
:10194000606060606060E0E0C000000000000000D7
:101950000000000000000000000000000000000087
:101960000000000000000000000000000000000077
:1019700000000000000000000000FFFF00FE010169
:101980000101010101010101010101010101010147
:101990000101010181C16121212121216161010137
:1019A000010101010101E1E101E1E1212121616187
:1019B0000101010101010101010101010101010117
:1019C0000101010101FE00FFFF0000000000000016
:1019D0000000000000000000000000000000000007
:1019E00000000000000000000000000000000000F7
:1019F00000000000000000000000FFFF00FF0000EA
:101A00000000C0E0602020202060E0C00000000056
:101A100000000000FFFF000000000808F8F800F8D0
:101A2000080808F8F800FFFF00FFFF08080800009A
:101A300000000000000000000000000000000000A6
:101A40000000000000FF00FFFF0000000000000099
:101A50000000C08000C000C0404000C0008000C046
:101A60000000000000000000000000000000000076
:101A700000000000000000000000FFFF00FF000069
:101A80000000FFFF000000000000818100F808084E
:101A900008F8F800F8F10BFAF20AFAF203FB080B67
:101AA0000AFAF203F3F80B0B08F3FB00F8F008F85E
:101AB000F000FAFA00F8080808F8F800F8F008F85A
:101AC000F000000000FF00FFFF0000000000000029
:101AD0000000C740C107C047450580414601C641D7
:101AE000400040C040000000000000000000000076
:101AF00000000000000000000000FFFF007F808069
:101B000080808183838282828282838180838282B9
:101B1000828383808383808383808383808F8E828C
:101B20008283818081838282818383808383808397
:101B30008380838380838282828383808383808384
:101B400083808080807F00FFFF0000000000000095
:101B50000000C7414600C745C500C4454200C7450F
:101B60008500C00740C040008040400000000000E9
:101B70000000000000000000000003078786868642
:101B800006060606060606060606060606060606F5
:101B900006060606060606060606060606C606C665
:101BA000C6C6C6C6060606060606060606060606D5
:101BB00006060606060606060606060606060606C5
:101BC00006060686868687070300000000000000E0
:101BD00000000704040007010600070505000704CC
:101BE00007000700000700000405020000000000D5
:101BF0000000000000000000003CF7FFDDF77F6DF3
:101C0000BFC33C0000000000000000000000000016
:101C100000000000000000000000000000FF00FFC6
:101C2000FFFFFFFF000000000000000000000000B8
:101C300000000000000000000000000000000000A4
:101C40003CF7FFDDF77F6DBFC33C000000000000E4
:101C50000000000000000000000000000000000084
:101C60000000000000000000000000000000000074
:101C700000000080E080F0C0E090C08005FD2D8570
:101C8000C080E080F0C0E090C0C08080C080C0E034
:101C9000F080E0D0C080E08080C0E0F080EF90C7AE
:101CA000EF9FBFDF80E0C0F080E090E0C080F08078
:101CB000E0D0C080E080C080C0C090E080F0C0E094
:101CC00090C08005FD2D85C080E080F0C0E090C010
:101CD000C08080C0A0C0E0F080E0D0C080E080A0E4
:101CE000C0E0F080E090C0E08080C080E0C0F08084
:101CF000E090E00000000000000000000000000094
:101D000000000000000000000000000000000000D3
:101D100000000000000000000000000000000000C3
:101D200000000000000000000000000000000000B3
:101D300000000000000000000000000000000000A3
:101D40000000000000000000000000000000000093
:101D50000000000000000000000000000000000083
:101D60000000000000000000000000000000000073
:101D70000000000000000000000000000000000063
:101D80000000000000000000000000000000000053
:101D90000000000000000000000000000000000043
:101DA0000000808080808080000000008080808033
:101DB0008080808000000000000000000000000023
:101DC0000000000000000000000000000000000013
:101DD0000000000000000000000000000000000003
:101DE00000000000000000000000000000000000F3
:101DF00000000000000000000000000000000000E3
:101E000000000000000000000000000000000000D2
:101E100000000000000000000000000000000002C0
:101E20000A2AA8A38F3FFFFFFEF08000FFFFFFFFFD
:101E3000FFFFFF0700000000000080808080C0C01E
:101E40000080000000000000000000000000000012
:101E50000000000000000000000000000000000082
:101E60000000000000000000000000000000000072
:101E70000000000000000000000000000000000062
:101E80000000000000000000000000000000000052
:101E90000000000000000000000000000000000042
:101EA000000000020A0A28A3871F7FFCFFFFFFFF34
:101EB000FF7F01F0F8FCFE06A30B07073F0F230886
:101EC0000200000000000000000000000000000010
:101ED0000000000000000000000000000000000002
:101EE00000000000000000000000000000000000F2
:101EF00000000000000000000000000000000000E2
:101F000000000000000000000000000000000000D1
:101F100000000000000000000000000000000000C1
:101F20000000000000000000020A28A1871F7FFFB8
:101F30001F0080F1F3F3636322B21E20280000002B
:101F40000000000000000000000000000000000091
:101F50000000000000000000000000000000000081
:101F60000000000000000000000000000000000071
:101F70000000000000000000000000000000000061
:101F80000000000000000000000000000000000051
:101F90000000000000000000000000000000000041
:101FA000000000000000080808C808884A8A48485D
:101FB0000888498908CA480948C84808080800002C
:101FC0000000000000000000000000000000000011
:101FD0000000000000000000000000000000000001
:101FE00000000000000000000000000000000000F1
:101FF00000000000000000000000000000000000E1
:1020000000000000000000000000000000000000D0
:1020100000000000000000000000000000000000C0
:1020200000000000000000000000030000020303A5
:102030000001020100030100000300000000000095
:102040000000000000000000000000000000000090
:102050000000000000000000000000000000000080
:102060000000000000000000000000000000000070
:102070000000000000000000000000000000000060
:102080000000000000000000000000000000000050
:102090000000000000000000000000000000000040
:1020A0000000000000000000000000000000000030
:1020B0000000000000000000000000000000000020
:1020C0000000000000000000000000000000000010
:1020D0000000000000000000000000000000000000
:1020E00000000000000000000000000000000000F0
:1020F0000000000000000000F0FCFEFEFFFFFFFFFC
:10210000FEFEFCF0000000000000000000000000E7
:1021100000000000000000000000000000000000BF
:1021200000000000000000000000000000000000AF
:10213000000000000000000000000000000000009F
:10214000000000000000000000000000000000008F
:10215000000000000000000000000000000000007F
:10216000000000000000000000000000000000006F
:1021700000000080C0C0E0C0C0E3C73FFFFFFFFF1A
:10218000BF87C3C0E0C0C0E0C0800000800080C046
:10219000E0C0C0E0C080C0800080C0E0C0C0E0E01F
:1021A000C080008080C0C0E0C0C0E0C080C0E0C08F
:1021B000C0E0C080C080800080C0E0C0C0E0C0003F
:1021C000800080C0800000800080C08080C0E0C0AF
:1021D000C0E0C080C0800080C0E0C0C0E0C0C0805F
:1021E000008080C0C0E0C0C0E0C080C0C0C0C0E00F
:1021F000C080C003030303030303030303030303B8
:10220000030303030303030303030303030303039E
:10221000030303030303030303030303030303038E
:10222000030303030303030303030303030303037E
:10223000030303030303030303030303030303036E
:10224000030303030303030303030303030303035E
:10225000030303030303030303030303030303034E
:10226000030303030303030303030303030303033E
:102270000303038012000000000000F0DCFC76DEA7
:10228000FEB6FC0CF00000000000000000000000A2
:10229000000000000000000000000000000000003E
:1022A000000000000000000000000000000000002E
:1022B000000000000000000000000000000000001E
:1022C000000000000000000000000000000000000E
:1022D00000000000000000000000000000000000FE
:1022E00000000000000000000000000000000000EE
:1022F0000000000000008000C0008040030317F7CA
:10230000B51502038000C0008040000000000000FE
:102310000080C000804000008000000080C000807D
:10232000400080000000008000C00080408000006D
:10233000C00080400000800000000000C00080401D
:10234000000000000080000000000000800000008D
:10235000C000804000008000000080C0008040007D
:1023600080000000008000C0008040800000C000AD
:102370008040000080020302030303020302000303
:102380000002030203020303030203030202030227
:102390000303030203030302030202030303020312
:1023A0000203030202030203030302030203030204
:1023B00003020303030203020302030303020303F2
:1023C00003020302020303020203020203020303E5
:1023D00003020303030203020203030302030203D3
:1023E00003020203020303030203020303020302C4
:1023F0000303030203F8FCFEFF070787C7C7CFCF1D
:1024000086C0C0C0C0C0C0FEFFFFFEFFFFFFC7C741
:102410008F0F060000FCFEFFFF070707071F3F3E68
:102420009CC0C0C0C0C0C080C080C0C080C0C080D0
:1024300080C0C0C0C0C0800080C0C0C0C080C0809C
:10244000C080C0C080A0F0F0A0C0C0C0C0C0C0802C
:10245000C080C0C080000F1F3F7F707070717F7F91
:102460007F3F7F7F717F7F7F3F7F7F7F7F7F7F0188
:102470000100000000001F3F7F7F70707070787C4B
:102480003C3F7F7F717F7F7F3F7F7F3F7F7F3F7FAD
:102490007FFFFFFFF17F7F3F1F3F7F7F713F7F7F88
:1024A0003F7F7F3F7F7F3F7F7F3F7F7F717F7F7F4A
:1024B0003F7F7F3F7F7F3F00000000000000000063
:1024C000000000000000000000000000000000000C
:1024D00000000000000000000000000000000000FC
:1024E00000000000000000000000000000000000EC
:1024F00000000001010000000000000000000000DA
:1025000000000000000000000000000000000000CB
:102510000000000000000000611100F8FC0602024B
:1025200002828286860080808080808000FEFE009D
:10253000FEFE828282060600000000FCFE06020209
:102540000202061E1C008080808080800080008047
:10255000800080800000808080808000000080807B
:102560008080008000800080800000A0A00080802B
:102570008080808000800080800000000F1F30205D
:10258000202020203F3F003F2020203F3F003F3FB2
:10259000003F3F0000000000000000001F3F30200F
:1025A000202020203818003F2020203F3F003F3FC0
:1025B000003F3F003F3F00FFE020203F1F001F3F44
:1025C0002020103F3F003F3F003F3F003F3F003F84
:1025D0002020203F3F003F3F003F3F000000000021
:1025E00000000000000000000000000000000000EB
:1025F00000000000000000000000000000000000DB
:1026000000000000000000000000000000000000CA
:1026100000000000000000000000000000000000BA
:1026200000000000000000000000000000000000AA
:10263000000000000000000000000000000000009A
:10264000000000000000000000000000000000008A
:10265000000000000000000000000000000000007A
:10266000000000000000000000000000000000006A
:10267000000000000000000000000000000000005A
:10268000000000000000000000000000000000004A
:10269000000000000000000000000000000000003A
:1026A000000000000000000000000000000000002A
:1026B00000000000000000000000000000C0F0C0AA
:1026C000C0E0E0C0C0E0C0C0E0C0C0F0E0C0C0E01A
:1026D000C0C0F0C0C0E0F0C0C0E0C0C0F0C0C0E00A
:1026E000C0F0E0C0C0E0C0F0C0C0E0C0F0E0C0C0DA
:1026F000F0C0E0C0C0E0E0C0C0E0C0C0E0C0C0F0DA
:10270000E0C0C0E0C0C0F0C0C0E0F0C0C0E0C0C0E9
:10271000F0C0C0E0C0F0E0C0C0E0C0F0C0C0E0C0A9
:10272000F0E0C0C0F0C0E0C0E0E0C0C0E0C0E0C089
:10273000F0C0C0E0E0C0C0E0C0C0E0C0C0FAFCFA39
:10274000FCFAFCFAFCFAFCFAFCFAFCFAFCFAFCFAD9
:10275000FCFAFCFAFCFAFCFAFCFAFCFAFCFAFCFAC9
:10276000FCFAFCFAFCFAFCFAFCFAFCFAFCFAFCFAB9
:10277000FCFAFCFAFCFAFCFAFCFAFCFAFCFAFCFAA9
:10278000FCFAFCFAFCFAFCFAFCFAFCFAFCFAFCFA99
:10279000FCFAFCFAFCFAFCFAFCFAFCFAFCFAFCFA89
:1027A000FCFAFCFAFCFAFCFAFCFAFCFAFCFAFCFA79
:1027B000FCFAFCFAFCFAFCFAFCFAFCFAFCFFFFFF5C
:1027C000FFFFFFFFFFFFFFFFFFFFFFFFFFFFFFFF19
:1027D000FFFFFFFFFFFFFFFFFFFFFFFFFFFFFFFF09
:1027E000FFFFFFFFFFFFFFFFFFFFFFFFFFFFFFFFF9
:1027F000FFFFFFFFFFFFFFFFFFFFFFFFFFFFFFFFE9
:10280000FFFFFFFFFFFFFFFFFFFFFFFFFFFFFFFFD8
:10281000FFFFFFFFFFFFFFFFFFFFFFFFFFFFFFFFC8
:10282000FFFFFFFFFFFFFFFFFFFFFFFFFFFFFFFFB8
:10283000FFFFFFFFFFFFFFFFFFFFFFFFFFFFFFFFA8
:10284000FFFFFFFFFFFFFFFFFFFFFFFFFFFFFFFF98
:10285000FFFFFFFFFFFFFFFFFFFFFFFFFFFFFFFF88
:10286000FFFFFFFFFFFFFFFFFFFFFFFFFFFFFFFF78
:10287000FFFFFFFFFFFFFFFFFFFFFFFFFFFFFFFF68
:10288000FFFFFFFFFFFFFFFFFFFFFFFFFFFFFFFF58
:10289000FFFFFFFFFFFFFFFFFFFFFFFFFFFFFFFF48
:1028A000FFFFFFFFFFFFFFFFFFFFFFFFFFFFFFFF38
:1028B000FFFFFFFFFFFFFFFFFFFFFFFFFFFFFFFF28
:1028C000FFFFFFFFFFFFFFFFFFFFFFFFFFFFFFFF18
:1028D000FFFFFFFFFFFFFFFFFFFFFFFFFFFFFFFF08
:1028E000FFFFFFFFFFFFFFFFFFFFFFFFFFFFFFFFF8
:1028F000FFFFFFFFFFFFFFFFFFFFFFFFFFFFFFFFE8
:10290000FFFFFFFFFFFFFFFFFFFFFFFFFFFFFFFFD7
:10291000FFFFFFFFFFFFFFFFFFFFFFFFFFFFFFFFC7
:10292000FFFFFFFFFFFFFFFFFFFFFFFFFFFFFFFFB7
:10293000FFFFFFFFFFFFFFFFFFFFFFFFFFB33DB301
:1029400037BB3BB737BB37B73BB733BD3BB737BBFD
:1029500037B33DB337BB3DB337BB37B33DB337BBFD
:1029600033BD3BB737BB33BD33B73BB33DBB37B3E9
:102970003DB33BB737BB3BB737BB37B73BB733BDCF
:102980003BB737BB37B33DB337BB3DB337BB37B3CB
:102990003DB337BB33BD3BB737BB33BD33B73BB3B9
:1029A0003DBB37B33DB33BB73BBB37B73BB73BB39F
:1029B0003DB337BB3BB737BB37B73BB733AA55AA95
:1029C00055AA55AA55AA55AA55AA55AA55AA55AA0F
:1029D00055AA55AA55AA55AA55AA55AA55AA55AAFF
:1029E00055AA55AA55AA55AA55AA55AA55AA55AAEF
:1029F00055AA55AA55AA55AA55AA55AA55AA55AADF
:102A000055AA55AA55AA55AA55AA55AA55AA55AACE
:102A100055AA55AA55AA55AA55AA55AA55AA55AABE
:102A200055AA55AA55AA55AA55AA55AA55AA55AAAE
:102A300055AA55AA55AA55AA55AA55AA5504083EFD
:102A400009093E3F25251A1E2121123F21211E3F43
:102A50002525213F0505011E21293A3F04043F2178
:102A60003F21001021211F3F040A313F2020203F39
:102A700002023F3F02043F1E21211E3F0909061E9C
:102A800021112E3F09093622252519013F01011F79
:102A900020201F0F10201F3F10103F3B04043B035A
:102AA000043807312D2321102A2A3C3F2424181CE6
:102AB0002222141824243F1C2A2A2C043E05014CEF
:102AC00052523E3F040438243D20004040443D3FE4
:102AD000081422213F20003E04043E3E04023C1C18
:102AE00022221C7E22221C1C22227E3E040204245E
:102AF0002A2A12021F22201E20201E0E10201E3EF7
:102B000010103E360808364E50503E322A26221EFD
:102B100029251E223F2000322929261221251A0CA0
:102B20000A3F08172525191E252518013905031AFE
:102B300025251A0629291E002F000000200000026A
:102B4000290502000404000102040810204080004E
:102B5000000000003E5B4F5B3E3E6B4F6B3E1C3EF9
:102B60007C3E1C183C7E3C181C577D571C1C5E7F0D
:102B70005E1C00183C1800FFE7C3E7FF001824188C
:102B800000FFE7DBE7FF30483A060E2629792926C1
:102B9000407F050507407F05253F5A3CE73C5A7FAB
:102BA0003E1C1C08081C1C3E7F14227F22145F5F01
:102BB000005F5F06097F017F006689956A6060603B
:102BC000606094A2FFA29408047E040810207E2076
:102BD0001008082A1C08081C2A08081E10101010CB
:102BE0000C1E0C1E0C30383E3830060E3E0E060011
:102BF0000000000000005F00000007000700147FD5
:102C0000147F14242A7F2A1223130864623649563B
:102C100020500008070300001C2241000041221C34
:102C2000002A1C7F1C2A08083E080800807030001B
:102C30000808080808000060600020100804023E30
:102C40005149453E00427F40007249494946214171
:102C5000494D331814127F1027454545393C4A49E0
:102C6000493141211109073649494936464949291F
:102C70001E0000140000004034000000081422412F
:102C80001414141414004122140802015909063EB8
:102C9000415D594E7C1211127C7F494949363E41B3
:102CA0004141227F4141413E7F494949417F0909D4
:102CB00009013E414151737F0808087F00417F416F
:102CC000002040413F017F081422417F40404040A6
:102CD0007F021C027F7F0408107F3E4141413E7FFE
:102CE000090909063E4151215E7F091929462649F5
:102CF00049493203017F01033F4040403F1F2040CC
:102D0000201F3F4038403F631408146303047804D5
:102D1000036159494D43007F41414102040810209D
:102D2000004141417F040201020440404040400014
:102D30000307080020545478407F2844443838441E
:102D4000444428384444287F385454541800087E9A
:102D5000090218A4A49C787F0804047800447D40EC
:102D6000002040403D007F1028440000417F40008B
:102D70007C047804787C080404783844444438FCA3
:102D80001824241818242418FC7C08040408485427
:102D900054542404043F44243C4040207C1C2040E4
:102DA000201C3C4030403C44281028444C909090DB
:102DB0007C4464544C440008364100000077000015
:102DC000004136080002010204023C2623263C1E74
:102DD000A1A161123A4040207A38545455592155E6
:102DE0005579412154547841215554784020545507
:102DF00079400C1E52721239555555593954545454
:102E00005939555454580000457C410002457D42D3
:102E10000001457C40F0292429F0F0282528F07C89
:102E2000545545002054547C547C0A097F4932494A
:102E30004949323248484832324A4848303A41419A
:102E4000217A3A42402078009DA0A07D3944444434
:102E5000393D4040403D3C24FF2424487E494366A0
:102E60002B2FFC2F2BFF0929F620C0887E09032079
:102E7000545479410000447D413048484A3238403A
:102E800040227A007A0A0A727D0D19317D2629299D
:102E90002F28262929292630484D4020380808089F
:102EA0000808080808382F10C8ACBA2F102834FAC0
:102EB00000007B000008142A142222142A1408950A
:102EC00000220095AA005500AAAA55AA55AA0000FA
:102ED00000FF00101010FF00141414FF001010FF6A
:102EE00000FF1010F010F0141414FC001414F7007C
:102EF000FF0000FF00FF1414F404FC141417101F4B
:102F000010101F101F1414141F00101010F00000D8
:102F100000001F101010101F10101010F0100000F3
:102F200000FF101010101010101010FF1000000003
:102F3000FF140000FF00FF00001F10170000FC043A
:102F4000F414141710171414F404F40000FF00F71D
:102F500014141414141414F700F714141417141080
:102F6000101F101F141414F4141010F010F00000AF
:102F70001F101F0000001F14000000FC140000F0D0
:102F800010F01010FF10FF141414FF141010101F75
:102F900000000000F010FFFFFFFFFFF0F0F0F0F086
:102FA000FFFFFF0000000000FFFF0F0F0F0F0F38A3
:102FB000444438447C2A2A3E147E02020606027EDD
:102FC000027E0263554941633844443C04407E20FC
:102FD0001E2006027E020299A5E7A5991C2A492A0D
:102FE0001C4C7201724C304A4D4D3030487848309C
:102FF000BC625A463D3E494949007E0101017E2A94
:103000002A2A2A2A44445F444440514A44404044C6
:103010004A51400000FF0103E080FF000008086BF8
:103020006B083612362436060F090F0600001818F2
:103030000000001010003040FF0101001F01011EC0
:1030400000191D1712003C3C3C3C00000000000829
:103050000B0002020201000904000001020200004C
:1030600005240010010524010101042402060524A1
:103070000600010705810310004009040100020A4F
:10308000000000070502024000000705830240001F
:10309000000403090412010002EF0201404123363B
:1030A0008000010102030141726475696E6F204C5A
:1030B0004C430041726475696E6F204C656F6E61A0
:1030C00072646F00F53211241FBECFEFDAE0DEBF6D
:1030D000CDBF11E0A0E0B1E0EAECF9E602C0059056
:1030E0000D92AA38B107D9F726E0AAE8B1E001C0ED
:1030F0001D92A13BB207E1F718E1C3E6D8E104C095
:103100002197FE010E94D134C236D107C9F70E942F
:103110008E260C94E3340C94000090919905E2EA19
:10312000F5E080E0891759F0DF0113971C921196A2
:103130001C9211961C9210828F5F3596F3CF892FC7
:1031400025E0823160F4289FF0011124EB56FA4FFC
:10315000118612861386148615868F5FF2CF109221
:10316000F805EEE9F5E080E020E0291729F030814C
:10317000830F2F5F3596F9CF8093F80508952F922E
:103180003F925F926F927F928F929F92AF92BF9287
:10319000CF92DF92EF92FF920F931F93CF93DF9323
:1031A0009C0120583F4F2F3F310511F008F097C088
:1031B0009B01205C3F4F2038310508F090C0DB01B7
:1031C00077FF04C0AA27BB27A61BB70BA770BB2796
:1031D0009B0177FF02C0295F3F4FE3E035952795BC
:1031E000EA95E1F777FF08C02150310968E070E007
:1031F000FB01EA1BFB0BDF015901B694BA2CAA2490
:10320000B794A794A80EB91E60E070E04501F0E8FD
:103210008F0E911CE8E0F0E03F016A1A7B0A2F3F15
:10322000EFEF3E076CF42F5F3F4F60587F4F611503
:10323000F4E07F0709F453C02830310581F74FC00F
:10324000E401C60FD71FCB56DE4F8B010A0D1B1DA5
:103250000B561E4F6C01E12CF12CE0E8CE16D10488
:1032600011F3D7FC2AC02F3FFFEF3F07A9F1F70169
:10327000E60FF71FE40FF51FE491F0E01F010A2E9F
:1032800001C0220C0A94EAF7F80150802528208218
:10329000109799F02730310581F0F701E60FF71FFD
:1032A000E40FF51FE491F0E0062C02C0F595E795D8
:1032B0000A94E2F75880E529E883FFEFEF1AFF0A46
:1032C000EFEFCE1ADE0A21960F5F1F4FF0E8EF16E0
:1032D000F10409F0C2CFA7CF1097F9F6EECFDF9136
:1032E000CF911F910F91FF90EF90DF90CF90BF9003
:1032F000AF909F908F907F906F905F903F902F90B6
:1033000008950F931F93CF93DF936091190686E77B
:1033100090E00E945D216091970587E790E00E9410
:103320005D216091980588E790E00E945D216091A1
:10333000990589E790E00E945D2160919A058AE7EE
:1033400090E00E945D2160919B058BE790E00E94D8
:103350005D2160919C058CE790E00E945D21609169
:103360009D058DE790E00E945D21CEE7D0E08E01C3
:103370000B561A4FF801E557F1096081CE010E9402
:103380005D21F801E457F1096081CE0101960E94A8
:103390005D21F801E357F1096081CE0102960E9498
:1033A0005D21F801E257F1096081CE0103960E9488
:1033B0005D21F801E157F1096081CE0104960E9478
:1033C0005D212596C83DD10591F66091F80588EDFF
:1033D00090E00E945D216091F90589ED90E00E94E6
:1033E0005D216091FA058AED90E00E945D21609177
:1033F000FB058BED90E00E945D216091FC058CED5A
:1034000090E00E945D21CDEDD0E0FE01E05EFA4F3C
:103410006081CE010E945D212196C43ED105A9F7AD
:10342000FE01E05EFA4F6081CE010E945D2121968F
:10343000CB3ED105A9F7FE01E05EFA4F6081CE01D7
:103440000E945D212196C23FD105A9F7FE01E05EF1
:10345000FA4F6081CE010E945D212196C93FD105BE
:10346000A9F7DF91CF911F910F91089520913B060D
:10347000282329F490913A06982381E009F480E00A
:1034800008956F927F928F929F92AF92BF92CF9248
:10349000DF92EF92FF920F931F93CF93DF9300D0B1
:1034A00000D0CDB7DEB7DC014B017E2D41155105B3
:1034B00009F4EEC1FA016491319694915A01F2E057
:1034C000AF0EB11CC62ED12C222309F1492F4695EF
:1034D00046954695E42FF0E041E050E0892F877053
:1034E00011F440E050E04E0F5F1FC49EF001C59EF6
:1034F000F00DD49EF00D1124733011F4EE0FFF1F68
:103500002E9FA0012F9F500D1124A40EB51E7F3FAA
:1035100031F40115110511F071E001C072E0AD0147
:103520004C0D5D1D141615060CF0B2C1A038B10586
:103530000CF0AEC19401290F311D121613060CF0C8
:10354000A7C180E4881691040CF0A2C1A114B104B3
:1035500009F49EC1382D3770F40197FC379623E0AB
:10356000F595E7952A95E1F72E2F97FE04C03323B2
:1035700011F02FEF2E0FB7FF05C0EE27FF27EA1B34
:10358000FB0B02C0E0E0F0E04038510524F050E8C9
:103590005A1B952E01C0962E9E1AE22E022E000C6A
:1035A000FF082F3F1CF45E2D509501C050E041E014
:1035B000892F877009F440E0969596959695490F66
:1035C000E40EF11C99E0E916F10414F048E0421B06
:1035D000F42EF51A250F40E82403A00DB11D112487
:1035E000AE0FBF1F569FE00DF11D1124A5014E0F18
:1035F0005F1F81E090E05C01032E02C0AA0CBB1C9F
:103600000A94E2F7733009F400C1A0F4713009F4B0
:10361000B3C0723009F03CC18FEF8A9DB0018B9D21
:10362000700D1124609570957C836B837C806F2C6A
:10363000620E29C07A3F29F07B3F09F029C1F20EC2
:1036400087C0F20E51C0FA01E00FF11FE491EA9D2C
:103650007001EB9DF00C1124FA82E98227FD07C06E
:10366000FC01F080EF2DE623EE2AFC01E08231110F
:1036700013C00F5F1F4F0196091528F32F5F4C0DE4
:103680005D1DA058BF4F261509F402C1CD018B5610
:103690009E4F00E010E0F0CF27305CF7FC01E058CF
:1036A000FF4FE080E7208A80E828E082E2CFFA013D
:1036B000E60FF71FE491EA9D8001EB9D100D1124A8
:1036C0001A83098327FD04C0FC011081012B0083AC
:1036D000311113C06F5F7F4F0196691540F32F5F63
:1036E0004C0D5D1DA058BF4F2F1509F4D1C0CD0161
:1036F0008B569E4F60E070E0F0CF27305CF78C0176
:1037000000581F4FF801E080FA81EF2AF801E082AB
:10371000E1CFFA01E00FF11FE491EA9DC001EB9DBA
:10372000900D11249A83898327FD05C08095FB01A4
:10373000908189238083311114C00F5F1F4F6F5F09
:103740007F4F091530F32F5F4C0D5D1DA058BF4F03
:103750002F1509F49DC0BD016B567E4F00E010E0AF
:10376000F0CF273054F7FB01E058FF4F8A81809556
:10377000908189238083E1CF0E0F1F1F8F2C820E33
:10378000281509F485C0CD018B569E4F7C0160E061
:1037900070E0691590F5F801E60FF71FE491EA9DD6
:1037A000C001EB9D900D1124809590959C838B8397
:1037B000FA01E60FF71FE491EA9D3001EB9D700CD2
:1037C00011247A82698227FD05C0F701908189233F
:1037D000682A6082332359F027304CF4F701E0580F
:1037E000FF4F90818C8189239A81892B80836F5F21
:1037F0007F4FFFEFEF1AFF0ACCCF2F5F4C0D5D1DFF
:103800000C0D1D1DA058BF4FBBCF892D90E0E40FBC
:10381000F51FAB56BE4F60E870E0681B790BC81A05
:10382000D90A8601000F111F592D4F2D792CE32E37
:10383000CF93DF93ED01EF96EF9622968590C5909A
:10384000EE2059F08A9C4001CA9C600127302CF47C
:10385000F880D094FD20F928F99222233AF0FC90C8
:10386000C094FC20F828FD920C94371C11965A95B0
:1038700029F74A9551F0572D23951124E00FF11D9A
:10388000A60FB11DC60FD11DD9CFDF91CF91112445
:103890000F900F900F900F90DF91CF911F910F918C
:1038A000FF90EF90DF90CF90BF90AF909F908F9060
:1038B0007F906F900895823069F028F4813081F410
:1038C0008091F9050895833041F0843049F4809166
:1038D000FC0508958091FA0508958091FB050895EF
:1038E00080E00895833039F0843041F0823049F42B
:1038F00084E096E008958BE096E0089582E196E0FA
:1039000008958DEF95E00895009769F0FC0101900E
:103910000020E9F73197AF01481B590BBC0187E242
:1039200096E00C94B51E80E090E008958F929F92EF
:10393000AF92BF920F931F93CF93DF93CDB7DEB7B4
:10394000A1970FB6F894DEBF0FBECDBF19A24230CB
:1039500008F44AE08E010F5D1F4F842E912CA12C9C
:10396000B12CA50194010E948C34E62FB901CA0143
:1039700001501109EA3014F4E05D01C0E95CD8019E
:10398000EC93232B242B252B61F7C8010E94841C68
:10399000A1960FB6F894DEBF0FBECDBFDF91CF91D9
:1039A0001F910F91BF90AF909F908F900895682FB7
:1039B00070E080E090E04AE00C94961C0C94841C2B
:1039C0004F925F926F927F928F929F92AF92BF922F
:1039D000CF92DF92EF92FF920F931F93CF93DF93DB
:1039E000EC017B016A01C901A901461B570B57FF76
:1039F00003C051954195510996012C1B3D0B37FF92
:103A000003C031952195310911E02417350714F0D1
:103A100010E00AC03C2D2D2D6C01832F922F3C2FDE
:103A20002D2FE701E32EF22ECC16DD0654F43E2DA9
:103A30002F2D7C01832F922F3C2F2D2FE601C32E9B
:103A4000D22E26014C1A5D0A4C018E189F0897FE53
:103A500003C0919481949108520157FE03C02FEF47
:103A6000A21AB20AB594A794E816F90614F08FEFDB
:103A700001C081E0682E880F7708CC16DD06B4F00F
:103A8000202F112319F0AE01B70102C0A701BE011A
:103A900085E396E00E945020A818B908B7FE04C03C
:103AA000E60CF71CA40CB51C2196E7CFDF91CF9153
:103AB0001F910F91FF90EF90DF90CF90BF90AF904C
:103AC0009F908F907F906F905F904F9008950F938D
:103AD0001F93CF93DF938C01C0E0D0E0F801EC0F8F
:103AE000FD1F6491662371F0E0912706F09128068E
:103AF0000190F081E02D87E296E00995892B11F085
:103B00002196ECCFCE01DF91CF911F910F910895B7
:103B1000CF92DF92EF92FF92CF93DF936C01990FD8
:103B2000EE08FF08F7FE1FC0E0912706F091280677
:103B30000190F081E02D6DE287E296E00995EC01BD
:103B400066277727CB016C197D098E099F094AE00A
:103B50000E94961C8C0F9D1FDF91CF91FF90EF90DC
:103B6000DF90CF9008954AE0C701B601DF91CF9171
:103B7000FF90EF90DF90CF900C94961C80E0E5E9E9
:103B8000F1E081118FEF00248193819381938193E0
:103B90000394D1F7E1E3F6E0128A118A108A1786BE
:103BA0000895E5E9F1E080E0A0E0B8E000800EBC17
:103BB0008111012C1197A0FDFDCF0192B9F70DB431
:103BC0000895FC0180919401811103C08FEF9FEF54
:103BD00008959FB7F89482E08093E9002091F20065
:103BE00030E01216130614F421E030E021153105FF
:103BF00059F0289884E6809393018091F1008083A6
:103C00008091F200882319F09FBFC90108958BE6C7
:103C10008093E800F9CF2FB7F89483E08093E90010
:103C20009091E800892F807295FF04C09091F20076
:103C300080E4891B2FBF08958F929F92AF92BF920D
:103C4000CF92DF92EF92FF920F931F93CF93DF9368
:103C50005C016B017A0180910701882309F45BC044
:103C600080919401882309F456C08091920180FFCD
:103C700005C08091E00082608093E000E70110E0E1
:103C80000AEF83E0882E9AE3992E2097D9F10E94BB
:103C90000B1E81110AC0015009F43DC061E070E0C3
:103CA00080E090E00E940C1FF0CF282F30E0C21778
:103CB000D3070CF48C2F4FB7F8948092E9009091C1
:103CC000E80095FF1DC0282F30E0C21BD30BF60182
:103CD000982F915020F081918093F100FACFC20E7D
:103CE000D31E112319F09092E80009C08091E800DA
:103CF00085FD06C09092E80011E0209709F010E0E1
:103D00004FBFC3CF1111C3CF5D9884E6809391015B
:103D10001E141F0444F081E090E0F5019383828338
:103D200080E090E001C0C701DF91CF911F910F911A
:103D3000FF90EF90DF90CF90BF90AF909F908F90CB
:103D4000089580914C0681110DC082E08093480651
:103D500084E08093490610924B0610924A0681E057
:103D600080934C0688E496E00895CF92DF92EF921C
:103D7000FF920F931F93CF93DF936C017A018B0116
:103D8000C0E0D0E0CE15DF0589F0D8016D918D013E
:103D9000D601ED91FC910190F081E02DC6010995CD
:103DA000892B11F47E0102C02196ECCFC701DF916F
:103DB000CF911F910F91FF90EF90DF90CF900895DA
:103DC0000895089580E090E008950E94D7343FB7A9
:103DD000F8948091A7069091A806A091A906B091A9
:103DE000AA0626B5A89B05C02F3F19F00196A11D74
:103DF000B11D3FBFBA2FA92F982F8827820F911D81
:103E0000A11DB11DBC01CD0142E0660F771F881FC7
:103E1000991F4A95D1F708958F929F92AF92BF92C2
:103E2000CF92DF92EF92FF926B017C010E94E71E1E
:103E30004B015C01C114D104E104F104F1F00E94D2
:103E4000E71EDC01CB0188199909AA09BB09883E44
:103E50009340A105B10570F321E0C21AD108E10831
:103E6000F10888EE880E83E0981EA11CB11CC114D5
:103E7000D104E104F10419F7DDCFFF90EF90DF905A
:103E8000CF90BF90AF909F908F9008950F920FB6F4
:103E90008F939F93EF93FF938091A6068D5F8D374D
:103EA00008F08D578093A606EAE8F1E080818E4FF6
:103EB000808391819F4F918382818F4F8283838101
:103EC0008F4F8383E7EAF6E080818F5F8083818173
:103ED0008F4F818382818F4F828383818F4F838332
:103EE0008FB18F6066991C9B88278F3681F48091F3
:103EF000FF0A981B963068F0E0E0F8E087E78083DF
:103F0000818388E180936000F0936000FFCF9093FD
:103F1000FF0AFF91EF919F918F910FBE0F9018951F
:103F2000EF920F931F933AEFE32E00E010E00E9410
:103F3000411A1F910F91EF900895EF920F931F93E5
:103F40003BEFE32E00E010E00E94411A1F910F9119
:103F5000EF900895CF93DF93FC016A3039F48581A7
:103F6000848396818185890F868345C084816E37DD
:103F700019F48D5F84833FC0262FEF0166816F5F48
:103F80002A334CF42033C4F42D32C1F02E3281F0A8
:103F9000213221F515C02B352CF421345CF42F335C
:103FA00019F11CC09FE9920F9A31C0F4275409C03F
:103FB0002FE307C0215405C02C5F03C021E401C0DA
:103FC0002EE33F81062E000C770B082E000C990B78
:103FD000313061F44DE35AE20E94901F88858C5F76
:103FE0009C81890F8C8307C020E4EBCF4DE35AE21C
:103FF0000E949D1FF3CF81E090E0DF91CF91089563
:10400000BC0180E090E00C940C1F8FB18095807F04
:10401000669B88601C9B84600895FC01840F911D41
:1040200018161906E4F5E038F105CCF5F7FF02C0E3
:10403000E0E0F0E08138910514F080E890E0382F5E
:104040003E1BAB0177FF02C0495F5F4F83E0559590
:1040500047958A95E1F75695542F442757954795EC
:10406000E40FF51FEB56FE4F6770772781E090E075
:1040700001C0880F6A95EAF7482F222349F02130C2
:1040800071F4315020F08081842B8193FACF089510
:104090008095315020F0908198239193FACF089524
:1040A00060387105D0F440345105B8F4E7E4FBE220
:1040B00080E1849FD001A0781124A60F4770E40FFF
:1040C000F11D8491AB56BE4F222319F06C91862BC3
:1040D00003C080956C9186238C9308952F923F9214
:1040E0004F925F926F927F928F929F92AF92BF9208
:1040F000CF92DF92EF92FF920F931F93CF93DF93B4
:10410000CDB7DEB729970FB6F894DEBF0FBECDBF8F
:10411000FC016A3069F425898189928938E0239FFE
:10412000800D911D1124928B818B108A1786AAC055
:104130006D3009F4A7C099878887F588348823886B
:10414000618872880785108900381105C4F0A88538
:10415000B98555962C915597422F50E01F968D9119
:104160009C915097B6E02B9F800D911D1124E885FE
:10417000F985908B8787268921116EC083C0F0E472
:104180006F16710424F7C80125E0F29E800D911D81
:10419000112418161906DCF68F2D90E09C838B8372
:1041A000C301A8E0FA9E800D911D1124181619066E
:1041B00074F6B5E06B9FB0011124FB01E15BF44D97
:1041C000FA83E98330E08885998504969E838D8300
:1041D000E981FA81E490353009F4E12C430188E06B
:1041E000482EE0FC02C0532C01C0522C51100BC0D1
:1041F000321009C0E6944A948B819C81880E991EE6
:104200004110EFCF1BC068018C2D801B8F1590F7DC
:1042100054018A2D88198F1568F4252DA501B60142
:104220008D819E813F830E9450209FEFA91AB90A79
:104230003F81EFCFAFEFCA1ADA0AE6CF3F5FEB81DB
:10424000FC810E0F1F1F89819A8101969A838983B1
:10425000363009F0BDCF7BCF6AEF64039001659FD4
:10426000300D112420583F4F281739075CF4A885DA
:10427000B985ED91FC9111970190F081E02D6AE0F4
:10428000CD01099581E090E029960FB6F894DEBF44
:104290000FBECDBFDF91CF911F910F91FF90EF9097
:1042A000DF90CF90BF90AF909F908F907F906F9056
:1042B0005F904F903F902F9008950F931F93CF934F
:1042C000DF931F92CDB7DEB78C0169830E9444341F
:1042D0006981681741F0C8010F90DF91CF911F915C
:1042E0000F910C944C340F90DF91CF911F910F914F
:1042F00008950C944434CF93DF93C091A406D091D9
:10430000A5064DE356E260E070E0CE010E94BF18C2
:104310004DE356E260E070E0CE0180589F4F0E946E
:10432000BF18809138069091390665E070E00E94D0
:10433000BD34892B71F42197C0388FEFD80728F04E
:10434000D093A506C093A40604C01092A5061092AF
:10435000A406DF91CF91089525E0829FC00111242A
:10436000FC01EB56FA4F6187128613861486158678
:104370001092F8051092F9051092FA051092FB05BB
:104380001092FC058091990550E040E030E020E07B
:10439000E2EAF5E090E060E0681791F0DF01149741
:1043A0007C91570F11967C91470F11967C91370F96
:1043B00011967C91270F7081970F6F5F3596ECCF28
:1043C0005093F8054093F9053093FA052093FB05C7
:1043D0009093FC0595E0823160F4989FF0011124E0
:1043E000EB56FA4F118612861386148615868F5F58
:1043F000F2CF0895EF920F931F93EE24E39405EF0D
:1044000013E220E048E155E262E070E08FE090E0E6
:104410000E94411A1F910F91EF9008950F931F93DF
:10442000CF93DF9300E010E0C8E1D0E020E0AE01E0
:10443000B80185E396E00E9450202196CA32D1054A
:10444000A9F70F5F1F4F0038110571F701E029E14F
:1044500030E040E850E069E170E080E090E00E94E8
:10446000E01C28E230E040E850E068E270E080E0E4
:1044700090E00E94E01CDF91CF911F910F91089571
:10448000EF920F931F93EE24E39403EF10E220E0EA
:1044900043E752E26EE270E080E090E00E94411A51
:1044A0001F910F91EF900895CF93C82F643028F09B
:1044B00080E791E00E94DE1C02C0633039F4C4360C
:1044C00038F480E791E00E94DE1C02C0623031F4D3
:1044D000CA3020F480E791E00E94DE1C8C2FCF913F
:1044E0000C94D71CFC01623059F018F4613031F0A3
:1044F0000895633039F0643039F0089541830895A8
:10450000428308954383089544830895FC016230F3
:1045100059F020F4613061F481810895633031F005
:10452000643031F4848108958281089583810895EF
:1045300080E00895CF93DF931F92CDB7DEB76983F4
:10454000DC01ED91FC910280F381E02D41E050E02F
:10455000BE016F5F7F4F09950F90DF91CF91089556
:1045600083E08093E9008091F200882319F08AE3C8
:104570008093E8000895FC018485958597FD0BC024
:104580009FB7F89482E08093E9008091F2009FBF8A
:1045900090E0019608959FB7F89482E08093E90037
:1045A0008091F2009FBF90E008954091AF06509136
:1045B000B0062091AD063091AE0642175307B4F411
:1045C0009091E8009570E1F39091E80092FD19C098
:1045D0008093F1008091AF069091B00601968F73A1
:1045E0009927892B19F48EEF8093E8008091AF060C
:1045F0009091B00601969093B0068093AF0681E04B
:10460000089580E00895CF92DF92EF92FF920F938A
:104610001F93CF93DF931F92CDB7DEB7182F062FCE
:10462000E42E862F880F8E5F99830E94D52283E027
:104630000E94D522F12EC12E9981D92E8C2D8F1951
:10464000801798F4F601E7FE02C0849101C08081D2
:104650000E94D522182F80E00E94D5228123FFEFEF
:10466000CF1ADF0A8111EACF01C081E00F90DF91FC
:10467000CF911F910F91FF90EF90DF90CF90089511
:10468000DF92EF92FF920F931F93CF93DF93D82E79
:104690008A017B01E40EF51EEB01CE15DF0571F0FA
:1046A000D7FE03C0FE01849101C088810E94D522FB
:1046B00021968111F2CF8FEF9FEF01C0C801DF91EA
:1046C000CF911F910F91FF90EF90DF90089561506F
:1046D00030F02091F100FC0120830196F8CF28985A
:1046E00084E68093930108950E940B1E90E0089544
:1046F000CF93DF931F92CDB7DEB7FC0184859585FC
:1047000097FD05C02FEF3FEF358724870BC0CE0103
:1047100001960E94E11D019719F4898190E002C081
:104720008FEF9FEF0F90DF91CF9108950F931F931D
:10473000CF93DF931F92CDB7DEB78C01FC01848548
:10474000958597FF0EC0CE0101960E94E11D01974D
:1047500019F4298130E002C02FEF3FEFF8013587CF
:104760002487F801848595850F90DF91CF911F9163
:104770000F9108950F931F93CF93DF931F92CDB79F
:10478000DEB782E0898342E450E06FE470E380E8C2
:104790000E9440230E94A11EDC0112960D911C91E3
:1047A00013970115110569F0D801ED91FC91028074
:1047B000F381E02DBE016F5F7F4FC801099597FF20
:1047C00007C089810F90DF91CF911F910F910895BC
:1047D000F80100851185E5CF1F920F920FB60F9259
:1047E00011248F939F938091E1009091E100937F3A
:1047F0009093E10083FF0FC01092E90091E0909345
:10480000EB001092EC0092E39093ED001092940173
:1048100098E09093F00082FF20C093E09093E9002D
:104820009091F200992319F09AE39093E800909107
:104830009101992339F090919101915090939101B8
:10484000992389F190919301992339F090919301E3
:10485000915090939301992341F184FF10C080916E
:10486000E2008E7E81608093E2008091E1008F7E85
:104870008093E100809192018E7E806111C080FF63
:1048800016C08091E2008E7E80618093E20080916C
:10489000E1008E7E8093E100809192018E7E8160A6
:1048A0008093920104C05D9ACDCF289AD6CF9F9174
:1048B0008F910F900FBE0F901F9018951F920F921F
:1048C0000FB60F921124CF92DF92EF92FF920F93C7
:1048D0001F932F933F934F935F936F937F938F9388
:1048E0009F93AF93BF93EF93FF93CF93DF93CDB796
:1048F000DEB76C97DEBFCDBF1092E9008091E80073
:1049000083FFEDC168E0CE0145960E94672382EFE8
:104910008093E8008D8987FF05C09091E80090FFA3
:10492000FCCF03C09EEF9093E800982F907609F09B
:10493000C6C09E892F89188D91110CC0803829F42A
:104940008091AC068093F10002C01092F1001092A9
:10495000F10048C1422F50E0512B913051F48111A8
:1049600041C14130510509F03DC18091AC068D7FB8
:104970000BC0933061F4811135C14130510509F00C
:1049800031C18091AC0682608093AC062BC195301A
:1049900041F48091E80080FFFCCF20682093E30081
:1049A00021C1963009F05FC0EB8CFC8C1092E900BD
:1049B0001092B0061092AF06123091F51092AE062A
:1049C0001092AD060E94BA2399E0BE016F5F7F4F3F
:1049D000DB01E92F1D92EA95E9F799831A8391E0AB
:1049E0009E8390EA98879AEF99872091AF0630913D
:1049F000B006275F3F4F3C832B838D831092E900E5
:104A00001092B0061092AF06F092AE06E092AD069C
:104A100049E050E080E00E9440230E94BA23E2C0B7
:104A2000F092AE06E092AD060E94A11EDC01129645
:104A3000ED90FC901397E114F10409F4C0C0D70184
:104A4000ED91FC910480F581E02DBE016B5E7F4FFE
:104A5000C7010995009719F00CF0C4C0C7C0F70151
:104A6000E084F184E8CF973009F4C0C0983021F495
:104A700081E08093F100B6C0993009F0B3C0837033
:104A800009F0B4C0E3E4F1E081E021E036E3908195
:104A9000992361F08093E9002093EB00919190932A
:104AA000EC003093ED008F5F873089F78EE78093BD
:104AB000EA001092EA008F898093940193C08B8D55
:104AC0009C8D1092E9001092B0061092AF06909360
:104AD000AE068093AD06898D811156C08E899D8961
:104AE000913A59F4813209F081C047E050E060E02A
:104AF00071E080E00E94402375C0913209F076C0D9
:104B0000833289F4888D90E0982F88272F89822B13
:104B1000A0E0B0E08093080190930901A0930A01FE
:104B2000B0930B015FC0803269F48091E80082FF8E
:104B3000FCCF67E080E091E00E9467238BEF8093D9
:104B4000E80006C0823209F04DC08F8980930701CA
:104B50008091AB06882319F0EEEFFAE002C0E0E0A6
:104B6000F8E08091000190910101A0910201B091C3
:104B70000301803B9440A105B10509F07BC0809101
:104B8000070180FF93C076C00E94A11EDC0112962F
:104B90000D911C9113970115110541F1D801ED916B
:104BA000FC910190F081E02DBE016B5E7F4FC8014A
:104BB0000995811117C0F80100851185ECCF1130DE
:104BC00009F44EC0133091F48F89882309F445C04D
:104BD000823081F440E860E183EB90E30E9403239C
:104BE000882321F08EEF8093E80079C081E28093E2
:104BF000EB0075C0813029F440E86BE087EA90E370
:104C0000EDCF833099F70E94A11EDC011296ED9042
:104C1000FC9013978E010F5F1F4F6801E114F104A0
:104C200079F0D701ED91FC910680F781E02DB80174
:104C3000C7010995080F111DF701E084F184EECF3B
:104C4000D8011C92F60101900020E9F73197BF01CD
:104C50006C197D0940E0C601C1CF61E970E302C073
:104C600065E970E36115710509F2FB01449150E0BB
:104C700080E840CF0FB6F894A895809160008861D5
:104C800080936000109260000FBEA895EE3F2AE06E
:104C9000F20739F08091FE0A9091FF0A9183808398
:104CA000A1CF1092FF0A1092FE0A9CCFEE3F8AE03D
:104CB000F80731F0808191819093FF0A8093FE0A7A
:104CC00087E797E7918380839BE088E10FB6F894AC
:104CD000A895809360000FBE9093600083CF6C9680
:104CE0000FB6F894DEBF0FBECDBFDF91CF91FF911D
:104CF000EF91BF91AF919F918F917F916F915F9154
:104D00004F913F912F911F910F91FF90EF90DF9066
:104D1000CF900F900FBE0F901F901895CF93DF93F9
:104D200000D01F92CDB7DEB7789484B5826084BD81
:104D300084B5816084BD85B5826085BD85B581609F
:104D400085BD80916E00816080936E00109281001D
:104D500080918100826080938100809181008160D8
:104D60008093810080918000816080938000809199
:104D70009100826080939100809191008160809386
:104D80009100809190008160809390008091C1009B
:104D900084608093C1008091C10082608093C100D3
:104DA0008091C10081608093C1008091C3008160C7
:104DB0008093C3008091C00082608093C000809186
:104DC000C20081608093C20080917A0084608093E9
:104DD0007A0080917A00826080937A0080917A00D4
:104DE000816080937A0080917A00806880937A0055
:104DF000109294011092AC06109292018091D7000B
:104E000081608093D70080EA8093D80089B5806163
:104E100089BD89B5826089BD09B400FEFDCF61E01E
:104E200070E080E090E00E940C1F8091D8008F7CA1
:104E300080618093D8008091E000807F8093E000C3
:104E40008091E1008E7E8093E1008DE08093E2000E
:104E5000559A209AEEEFFFE7859194918B3F9C4DF8
:104E600019F481E08093AB0681EC80937C0085B1DE
:104E7000806F85B984B1877E84B984B1876E84B927
:104E80005E9A5F988AB1806D8AB9769A6E9881B37E
:104E9000806F81BB899880B38D7080BB80E58CBDAD
:104EA00081E08DBD85E090E00E9400205F9A85E062
:104EB00090E00E9400205E985C98E0ECF0E08DE0CD
:104EC0008E0F94919EBD00000DB407FEFDCF31966C
:104ED0008E13F7CF5C9A81E880936400809165001F
:104EE0008160809365000E94052087FF24C05C9844
:104EF00085EA8EBD00000DB407FEFDCF5C9A2E98AA
:104F00002F982D988091640080628093640081E0E6
:104F100083BF889513BEFCCF2D980E94052084780E
:104F2000843871F00E9405208471843129F188EC65
:104F300090E00E9400200E94052082FDEDCF38C045
:104F40002D9A88EC90E00E9400202F9882E090E05B
:104F50000E9444348F3F29F06FEF82E090E00E947E
:104F60004C3484EF91E00E9400202F9A0E9405208B
:104F700084788438D9F3D6CF2D9A88EC90E00E94BB
:104F800000202E9882E090E00E944434882329F08B
:104F900060E082E090E00E944C3484EF91E00E9457
:104FA00000202E9A0E94052084718431D9F3BFCF4E
:104FB0002D9A809164008E7F8093640080917A00A6
:104FC000806480937A0080917A0086FDFCCF009106
:104FD0007800109179000E94E71E20E030E09801EF
:104FE00011270027600F711F821F931F6115710524
:104FF0008105910511F00E943B348091640081602D
:105000008093640080E180933C0610921E0680E24B
:1050100080931F06809320068093210680932206AA
:10502000809323068093240684E790E00E947921F0
:10503000182F85E790E00E9479216091950516135D
:1050400004C090919605891761F084E790E00E9472
:105050005D216091960585E790E00E945D210E94A8
:10506000811986E790E00E9479218093190687E7ED
:1050700090E00E9479218093970588E790E00E9454
:1050800079218093980589E790E00E947921182F73
:10509000809399058AE790E00E94792180939A0590
:1050A0008BE790E00E94792180939B058CE790E04C
:1050B0000E94792180939C058DE790E00E947921E0
:1050C00080939D05A12CB12C00E06501F5E0CF0E89
:1050D000D11C011749F1C50182589F4F0E947921C7
:1050E000F601EB56FA4F7F018483C50181589F4F2B
:1050F0000E947921F7018583C50180589F4F0E9446
:105100007921F7018683C5018F579F4F0E9479212E
:10511000F7018783C5018E579F4F0E947921F701C0
:1051200080870F5F5601D1CF85E0123160F4819FF7
:10513000F0011124EB56FA4F11861286138614865D
:1051400015861F5FF2CF88ED90E00E947921809351
:10515000F80589ED90E00E9479218093F9058AEDA8
:1051600090E00E9479218093FA058BED90E00E94F7
:1051700079218093FB058CED90E00E94792180934A
:10518000FC050DED10E0C8010E947921F801E05EF8
:10519000FA4F80830F5F1F4F043E1105A1F7C8012E
:1051A0000E947921F801E05EFA4F80830F5F1F4F64
:1051B0000B3E1105A1F7C8010E947921F801E05EBC
:1051C000FA4F80830F5F1F4F023F1105A1F7C801FF
:1051D0000E947921F801E05EFA4F80830F5F1F4F34
:1051E000093F1105A1F782E196E026E0280F298307
:1051F00055245394E6E14E2EF5E0FF2E8FB7F89438
:1052000040918A0150918B0160918C0170918D01C8
:105210008FBF80913D06342F381B832F90913E061F
:10522000992331F030933F0610923E060C941631CC
:1052300090913C06391748F48F5F891710F00C9451
:10524000163153BE889513BEF1C750923E06409367
:105250003D06809138069091390601969093390663
:10526000809338060E94BE1D80913A0680933B06CB
:105270000E94052080933A060E94BE1DE091190607
:105280008E2F90E08A30910508F0CEC7FC01EA5AD3
:10529000FF4F0C94D13450921A0682E080931B0683
:1052A00083E080931C0684E080931D068090970520
:1052B000E12C912C340181E0681A710873C643EF28
:1052C0005CE160E070E080E090E00E94BF1800E0E8
:1052D00010E0E090900120E04E2DB80180E090E0D9
:1052E0000E940D20B8016F5F7F4F20E04E2D80E8B7
:1052F00090E08E1991090E940D200E5F1F4F00341F
:10530000110539F7E7FC89C7E394E394E092900133
:105310008BC70E947B210E944022EE24E39401EF80
:1053200014E120E041EF58E160E070E080E090E0BF
:105330000E94411A00E010E0E090900120E04E2D24
:10534000B80180E090E00E940D20B8016F5F7F4FB0
:1053500020E04E2D80E890E08E1991090E940D20EA
:105360000E5F1F4F0034110539F7EE2021F08CEF4E
:105370008E0D8093900110918F01113009F188F00A
:10538000123081F520E04AEE54E165E270E08AE5F2
:1053900090E00E949D1F20E043EE54E165E270E042
:1053A0001DC020E04AEE54E165E170E08AE590E03E
:1053B0000E949D1F20E043EE54E165E170E00EC0C5
:1053C00020E04AEE54E16DE170E08AE590E00E9451
:1053D0009D1F20E043EE54E16DE170E08AE590E02E
:1053E0000E94901F80E80E94361A882321F0111134
:1053F000115010938F0180E10E94361A882339F0F2
:1054000080918F01823009F08F5F80938F0188E057
:105410000E94361A882309F407C710918F011130B2
:1054200009F454C0C8F0123009F0FEC683E080933E
:105430009A0510929B0510929C0510929D05109262
:10544000F9051092FA051092FB051092FC050E94D6
:105450008D181093190650C083E080939A0510921E
:105460009B0510929C0510929D051092F9051092D3
:10547000FA051092FB051092FC0582E180939905D4
:1054800080E090E024E0FC01EB56FA4F2187128681
:1054900013861486158605968A359105A1F788E44A
:1054A0008093F8055092970550929805E2E1F6E056
:1054B00080E2DF0155978C9317968C9317968C9307
:1054C000819399819E13F5CF83E014C083E080938C
:1054D0009A0510929B0510929C0510929D051092C2
:1054E000F9051092FA051092FB051092FC050E9436
:1054F0008D1887E0809319060E94811980E88093B7
:10550000900192C60E947B21EE24E39401EE1CE000
:1055100020E041EE50E160E070E080E090E00E9429
:10552000411A88E00E94361A882309F47DC678C69D
:105530000E947B210E9440220E94FA210E940E229A
:1055400086E080932C0680932B068DE180932D06B8
:105550008BE491E00E94DE1C6091970570E080E092
:1055600090E04AE00E94961C8EE591E00E94841C27
:1055700080913806909139068F739927809758F457
:1055800001E025E230E043E650E065E270E080E6CD
:1055900090E00E94E01C80E80E94361A811113C03E
:1055A00080E10E94361A81110EC0809138069091D8
:1055B00039066CE070E00E94BD3420918E0130E02D
:1055C0008217930741F40E94052087FD39C60E9487
:1055D000052084FD3CC688E00E94361A882311F01D
:1055E00084E0B5C184E09ECFF09219060E94811933
:1055F00080919805823099F040F4813009F510923D
:105600001E0686E0EDEFF5E015C0833071F08430C2
:10561000B9F410921E0686E0E2E1F6E00BC01092AB
:105620001E0686E0E4E0F6E005C010921E0686E065
:10563000EBE0F6E0AFE1B6E001900D928A95E1F77C
:105640000E947B210E9440220E94FA210E940E2289
:1056500086E080932C0680932B068DE180932D06A7
:1056600089ED9CE00E94671D809198050E94D71CDF
:1056700081ED9CE00E94671D6FE1C62E66E0D62E8C
:1056800010E07DE1E72E2C2DEFE1F6E02E1B82E508
:10569000810F80932C0680932B06E0922D0680913B
:1056A0003806909139068F739927809728F4809156
:1056B0001E06821709F4DEC5F60161916F01E091C3
:1056C0002706F09128060190F081E02D87E296E010
:1056D00009951A5F1432B9F610911E0680E80E94EF
:1056E000361A811113C080E10E94361A81110EC052
:1056F00080913806909139066CE070E00E94BD34CC
:1057000020918E0130E08217930709F50E94052051
:1057100087FF19C0E12FF0E0E25EF94F81818A3501
:1057200009F4C8C50CF0BAC5803209F4C1C50CF043
:10573000B2C580913806909139066CE070E00E9405
:10574000BD3480938E010E94052084FDB8C580E29F
:105750000E94361A882331F080911E06882341F179
:1057600081500AC080E40E94361A882341F080915B
:105770001E068530E8F48F5F80931E0619C084E012
:105780000E94361A8823A1F080919805823058F043
:1057900084E0809319060E948119809198058150B8
:1057A0008093980505C083E0809319060E948119B3
:1057B00088E00E94361A882309F436C510919805AE
:1057C000123089F038F41130C9F46FE176E08DEFD2
:1057D00095E012C0133061F0143081F46FE176E08F
:1057E00082E196E009C06FE176E084E096E004C0D3
:1057F0006FE176E08BE096E00E94DC3480919705C3
:10580000181708F03DC084E0809319060E948119A2
:10581000809198058F5F8093980506C580E80E9467
:10582000361A81119AC580E10E94361A811195C5F8
:1058300080E20E94361A811190C580E40E94361AD7
:1058400081118BC580913806909139066CE070E02B
:105850000E94BD3420918E0130E08217930709F435
:105860007CC588E00E94361A882321F050929D055D
:105870000E94811984E00E94361A882309F4D4C456
:1058800086E065C00E947B210E9440220E94FA218E
:105890000E940E2286E080932C0680932B068DE1D9
:1058A00080932D0681E691E00E94DE1C60919905AF
:1058B00070E080E090E04AE00E94961C8EE591E066
:1058C0000E94841C80913806909139068F73992725
:1058D000809790F4809199058A3018F04EE550E059
:1058E00002C049E550E001E025E230E065E270E009
:1058F00086E590E00E94E01C80E80E94361A811143
:1059000013C080E10E94361A81110EC080913806C2
:10591000909139066CE070E00E94BD3420918E01B8
:1059200030E08217930769F40E94052087FDEDC4DB
:105930000E94052084FF05C080919905843008F0FD
:10594000FCC488E00E94361A882321F087E0809307
:10595000190668C484E00E94361A882309F464C4D6
:105960003FCE88E0809319060E94811952E0E52E0F
:1059700000E010E020E04FEC58E060E070E080E0F4
:1059800090E00E94411A50922C0650922B064092B1
:105990002D068DEF95E00E94DE1C809197058230E8
:1059A00058F050922C0650922B0681E280932D06DF
:1059B00084E096E00E94DE1C80919705833058F0C9
:1059C00050922C0650922B068CE280932D068BE091
:1059D00096E00E94DE1C80919705843058F050922A
:1059E0002C0650922B0687E380932D0682E196E0E9
:1059F0000E94DE1C80919A0590E08C30910514F095
:105A00002CE201C02EE220932C0620932B0610924C
:105A10002D0602970E94881D80919A0590E08B3098
:105A2000910514F02CE301C02EE320932C06209363
:105A30002B0610922D0601970E94881D80919A05D1
:105A40008A3010F09CE401C09EE490932C06909361
:105A50002B0610922D060E94D71C10922E068091C4
:105A60009A0590E00397F89EF001F99EF00D11243D
:105A7000EB56FA4F81858A3010F09CE201C09EE21D
:105A800090932C0690932B069BE090932D060E94FA
:105A9000D71C80919A0590E00297F89EF001F99E3C
:105AA000F00D1124EB56FA4F81858A3010F09CE3FB
:105AB00001C09EE390932C0690932B069BE090935D
:105AC0002D060E94D71C80919A0590E00197F89EC0
:105AD000F001F99EF00D1124EB56FA4F81858A30C2
