:100000000C940B040C9433040C9433040C943304BC
:100010000C9433040C9433040C9433040C94330484
:100020000C9433040C9433040C945C0A0C94CB0AA7
:100030000C9433040C9433040C9433040C94330464
:100040000C9433040C9433040C9433040C94330454
:100050000C9433040C9433040C9433040C94BC0CB3
:100060000C9433040C9433040C9433040C94330434
:100070000C9433040C9433040C9433040C94330424
:100080000C9433040C9433040C9433040C94330414
:100090000C9433040C9433040C9433040C94330404
:1000A0000C9433040C9433040C94330400000000CB
:1000B000003E5B4F5B3E3E6B4F6B3E1C3E7C3E1CEE
:1000C000183C7E3C181C577D571C1C5E7F5E1C0034
:1000D000183C1800FFE7C3E7FF0018241800FFE7EB
:1000E000DBE7FF30483A060E2629792926407F05AE
:1000F0000507407F05253F5A3CE73C5A7F3E1C1CC4
:1001000008081C1C3E7F14227F22145F5F005F5F83
:1001100006097F017F006689956A6060606060946F
:10012000A2FFA29408047E040810207E2010080874
:100130002A1C08081C2A08081E101010100C1E0C7F
:100140001E0C30383E3830060E3E0E060000000011
:100150000000005F00000007000700147F147F14F8
:10016000242A7F2A1223130864623649562050003D
:1001700008070300001C2241000041221C002A1C29
:100180007F1C2A08083E0808008070300008080814
:100190000808000060600020100804023E51494534
:1001A0003E00427F400072494949462141494D3352
:1001B0001814127F1027454545393C4A49493141B9
:1001C000211109073649494936464949291E000087
:1001D00014000000403400000008142241141414DC
:1001E0001414004122140802015909063E415D59C8
:1001F0004E7C1211127C7F494949363E41414122D1
:100200007F4141413E7F494949417F090909013EFA
:10021000414151737F0808087F00417F4100204021
:10022000413F017F081422417F404040407F021C33
:10023000027F7F0408107F3E4141413E7F0909094A
:10024000063E4151215E7F09192946264949493216
:1002500003017F01033F4040403F1F2040201F3FDC
:100260004038403F63140814630304780403615961
:10027000494D43007F4141410204081020004141A3
:10028000417F04020102044040404040000307084F
:100290000020545478407F2844443838444444284B
:1002A000384444287F385454541800087E090218F2
:1002B000A4A49C787F0804047800447D400020407A
:1002C000403D007F1028440000417F40007C0478BE
:1002D00004787C080404783844444438FC18242406
:1002E0001818242418FC7C08040408485454542486
:1002F00004043F44243C4040207C1C2040201C3C03
:100300004030403C44281028444C9090907C4464F9
:10031000544C44000836410000007700000041368C
:10032000080002010204023C2623263C1EA1A16112
:10033000123A4040207A3854545559215555794144
:100340002154547841215554784020545579400C1B
:100350001E527212395555555939545454593955FC
:100360005454580000457C410002457D420001453F
:100370007C40F0292429F0F0282528F07C545545AC
:10038000002054547C547C0A097F4932494949323F
:100390003248484832324A4848303A4141217A3A54
:1003A00042402078009DA0A07D39444444393D401E
:1003B00040403D3C24FF2424487E4943662B2FFCCB
:1003C0002F2BFF0929F620C0887E09032054547979
:1003D000410000447D413048484A32384040227A4A
:1003E000007A0A0A727D0D19317D2629292F2826C7
:1003F0002929292630484D402038080808080808CF
:100400000808382F10C8ACBA2F102834FA00007B27
:10041000000008142A142222142A1408950022002D
:1004200095AA005500AAAA55AA55AA000000FF00E7
:10043000101010FF00141414FF001010FF00FF1024
:1004400010F010F0141414FC001414F700FF000056
:10045000FF00FF1414F404FC141417101F10101FD5
:10046000101F1414141F00101010F0000000001FC3
:10047000101010101F10101010F010000000FF10CE
:100480001010101010101010FF10000000FF1400CA
:1004900000FF00FF00001F10170000FC04F41414FC
:1004A0001710171414F404F40000FF00F7141414C8
:1004B00014141414F700F7141414171410101F1048
:1004C0001F141414F4141010F010F000001F101F6B
:1004D0000000001F14000000FC140000F010F010D9
:1004E00010FF10FF141414FF141010101F00000050
:1004F00000F010FFFFFFFFFFF0F0F0F0F0FFFFFF54
:100500000000000000FFFF0F0F0F0F0F38444438AA
:10051000447C2A2A3E147E02020606027E027E02E5
:1005200063554941633844443C04407E201E200604
:10053000027E020299A5E7A5991C2A492A1C4C7241
:1005400001724C304A4D4D303048784830BC625AC8
:10055000463D3E494949007E0101017E2A2A2A2A58
:100560002A44445F444440514A444040444A514034
:100570000000FF0103E080FF000008086B6B0836F5
:1005800012362436060F090F060000181800000066
:100590001010003040FF0101001F01011E00191D55
:1005A0001712003C3C3C3C0000000000F0F89C8E20
:1005B0008783878E9CF8F00000FEFF03030303038C
:1005C000070EFCF80000FEFF0303030303070EFC05
:1005D000F80000FFFF00000000000000FFFF000027
:1005E000FEFF8383838383C7EE7C380000F8FC0E14
:1005F00007030303070EFCF800003F7FE0C0808084
:10060000C0E07F3FFFFF01010101010101FFFF0089
:1006100000FFFF0C0C0C0C1C3E77E3C100007FFFB9
:10062000C0C0C0C0C0E0703F1F00001F3F70E0C0EE
:10063000C0C0E0703F1F00007FFFC1C1C1C1C1E366
:10064000773E1C00001F3F70E0C0C0C0E0703F1F3D
:10065000000000000001FFFF01000000D5F08D1434
:10066000A1C881CFD9F1AF200000000000250028EB
:10067000002B002E00310000000000240027002A7B
:10068000002D0030000404040404030405020202E7
:10069000020403020202020606060606060404021B
:1006A000020204040408020110408040102040802F
:1006B00040800802040180402010020110801020B8
:1006C000404020534156454400423A4E6F00413A63
:1006D00059657300454550524F4D3F0053415645B3
:1006E00020544F00423A5361766500413A4578699B
:1006F0007400193A56616C7565202D00183A5661E0
:100700006C7565202B001A3A436F70792056616C26
:100710007565001B3A53656C6563740044697370BA
:100720006C617965643A200052617720726561647A
:10073000696E673A20004D6178696D756D20726150
:10074000773A20004D696E696D756D207261773A58
:10075000200043414C4942524154494F4E00423AD5
:1007600043616C00413A5265736574204D61782F86
:100770004D696E004D61783A004D696E3A004F56F2
:100780004552464C4F57004E454741544956450047
:100790004C49474854204D4554455200070605042E
:1007A0000100080A0B0C0D09080B000202020100EF
:1007B00009040000010202000005240010010524C4
:1007C0000101010424020605240600010705810336
:1007D00010004009040100020A000000070502029F
:1007E00040000007058302400000040309041201D1
:1007F0000002EF02014041233680000101020301A3
:1008000041726475696E6F204C4C4300417264758F
:10081000626F7900990D11241FBECFEFDAE0DEBFC1
:10082000CDBF11E0A0E0B1E0E0E6FCE202C005903F
:100830000D92A634B107D9F725E0A6E4B1E001C0D6
:100840001D92A63EB207E1F714E0CBE0D4E004C06D
:100850002197FE010E942816CA30D107C9F70E94CD
:10086000CA0D0C942E160C940000EFE7F1E0A0E006
:10087000B8E000800EBC8111012C1197A0FDFDCFC6
:100880000192B9F70DB408959091D905982329F4F0
:100890009091D805982381E009F480E0089590E0D4
:1008A000EFE7F1E091119FEF8FEF91939193919387
:1008B00091938150D0F70895FC0180917E018823A7
:1008C00011F13FB7F89482E08093E9002091F200A3
:1008D000822F90E01816190614F481E090E0882326
:1008E00039F0289844E640937D014091F10040831F
:1008F000222339F02091F200211103C02BE620932E
:10090000E8003FBF08958FEF9FEF08952FB7F89449
:1009100083E08093E9009091E800892F807295FF31
:1009200004C09091F20080E4891B2FBF089580914C
:10093000750181110DC082E08093710184E0809384
:100940007201109274011092730181E0809375011D
:1009500081E791E00895CF93DF931F92CDB7DEB783
:100960006983DC01ED91FC910280F381E02D41E08F
:1009700050E0BE016F5F7F4F09950F90DF91CF91DF
:10098000089583E08093E9008091F200882319F0B4
:100990008AE38093E80008950E94860490E0089519
:1009A000CF93DF931F92CDB7DEB7FC018485958589
:1009B00097FD08C02FEF3FEF358724870F90DF9119
:1009C000CF910895CE0101960E945C04019719F41D
:1009D000898190E0F3CF8FEF9FEFF0CF0F931F93BC
:1009E000CF93DF931F92CDB7DEB78C01FC018485D6
:1009F000958597FF0BC0CE0101960E945C0401977C
:100A000071F4898190E0F80195878487F8018485E5
:100A100095850F90DF91CF911F910F9108958FEFE2
:100A20009FEFF1CFFC018485958597FD0BC09FB7A3
:100A3000F89482E08093E9008091F2009FBF90E0FB
:100A4000019608959FB7F89482E08093E900809121
:100A5000F2009FBF90E0089540916B0150916C01AE
:100A60002091690130916A0142175307B4F49091C3
:100A7000E8009570E1F39091E80092FD19C0809331
:100A8000F10080916B0190916C0101968F73992711
:100A9000892B19F48EEF8093E80080916B0190917F
:100AA0006C01019690936C0180936B0181E0089535
:100AB00080E00895DF92EF92FF920F931F93CF9300
:100AC000DF93D82E8A01EB017B01E40EF51ECE15D3
:100AD000DF0559F0D7FE12C0FE0184910E942C055B
:100AE00021968111F4CF0FEF1FEFC801DF91CF9155
:100AF0001F910F91FF90EF90DF9008958881EECFC6
:100B00000F931F93CF93DF931F92CDB7DEB782E091
:100B1000898342E450E068EA77E080E80E945A0561
:100B20000E949704DC0112960D911C91011511058C
:100B300089F0D801ED91FC910280F381E02DBE0196
:100B40006F5F7F4FC801099597FD04C0F8010085CC
:100B50001185ECCF89810F90DF91CF911F910F917B
:100B60000895615030F02091F100FC01208301963E
:100B7000F8CF289884E680937D010895AF92BF92C4
:100B8000CF92DF92EF92FF920F931F93CF93DF9359
:100B90006C017B018B01040F151FEB015E01AE1888
:100BA000BF08C017D10759F06991D601ED91FC91AA
:100BB0000190F081E02DC6010995892B79F7C501D7
:100BC000DF91CF911F910F91FF90EF90DF90CF9029
:100BD000BF90AF900895FC010E948206319728F0E3
:100BE00068517C4F8F4F9F4FF9CFAB01FC010E94A2
:100BF0008206641775078E079F07C8F308958F92C2
:100C00009F92AF92BF92CF92DF92EF92FF920F939B
:100C10001F93CF93DF936C017B018A0180910C01BC
:100C2000882309F45AC080917E01882309F455C0B5
:100C30008091700180FF05C08091E0008260809308
:100C4000E000E801B12C8AEFA82E93E0892E2AE378
:100C5000922E209711F4BB20C9F10E9486048111C5
:100C600008C0AA94AA20C9F181E090E00E94EB0597
:100C7000F0CF8C171D0611F00CF08C2F9FB7F89455
:100C80008092E9002091E80025FD02C09FBFE1CFDE
:100C9000282F30E0C21BD30BF701815020F0419187
:100CA0004093F100FACFE20EF31EBB2021F09092A8
:100CB000E800B12CEBCF8091E80085FDE7CF909262
:100CC000E800BB24B394209709F3F3CF5D9884E642
:100CD00080936F01101611063CF081E090E0F60160
:100CE0009383828310E000E0C801DF91CF911F91D0
:100CF0000F91FF90EF90DF90CF90BF90AF909F90BB
:100D00008F900895AAE4B1E02FB7F8947D918D916A
:100D10009C9166B52FBFA89B05C06F3F18F47F5FFD
:100D20008F4F9F4F22E0660F771F881F991F2A95CC
:100D3000D1F708952D9A08950C94EB050E94190D92
:100D4000089520E191E061FD94E060FD990F62FD5E
:100D50009295687F269FD0011124A80FA158BE4FFD
:100D60008C9140FF03C0892B8C9308959095892323
:100D7000FBCF2F923F924F925F926F927F928F9212
:100D80009F92AF92BF92CF92DF92EF92FF920F931A
:100D90001F93CF93DF93CDB7DEB728970FB6F894A4
:100DA000DEBF0FBECDBF9E838D836A3061F5DC014F
:100DB00055968C91B8E08B9F90011124ED81FE81B6
:100DC00081899289820F931F928B818B108A17865B
:100DD00081E090E028960FB6F894DEBF0FBECDBF3D
:100DE000DF91CF911F910F91FF90EF90DF90CF9007
:100DF000BF90AF909F908F907F906F905F904F903B
:100E00003F902F9008956D3019F32D813E813887E2
:100E10002F83D9011F960D911C9150970038110511
:100E20000CF07CC05196AD90BC90B0E4AB16B10410
:100E30000CF074C0F901258825E0C801229E800DC0
:100E4000911D1124181619060CF068C0622C712C23
:100E5000C30133E0880F991F3A95E1F78A0D9B1D76
:100E6000181619060CF05AC0F489FB83AF81B885B7
:100E70005396BC91BC83629FB0011124FB01E455E1
:100E8000FF4F2F011982F2018491F981F53009F4A5
:100E900080E0450128E02A83A82FB0E0BE83AD831F
:100EA0003C8080FF3B80311004C0BB81EC81BE17C9
:100EB000F9F078018E2D801B8215D0F4D12CC12C35
:100EC000C21490F4F0E8EF16F10450F4B601680D86
:100ED000791D6034710520F4432DC7010E94A106DD
:100EE0002FEFC21AD20AECCF3FEFE31AF30AE2CF98
:100EF0008D819E81959587959A8191509A83860CD4
:100F0000971C9111C9CFA981AF5FA983BFEF4B1A7D
:100F10005B0A060D171DA63009F0B5CFEF81F885E5
:100F20002589422F50E087859089F6E02F9F800D1C
:100F3000911D1124AF81B88550969C938E931F9775
:100F400056962C915697222309F442CF6AEF6403F8
:100F50009001659F300D112420583F4F2817390705
:100F60000CF036CFED91FC9111970190F081E02DBE
:100F70006AE0CD0109952CCF682F8FEC95E00C9499
:100F8000B9060F931F93CF93DF938C01D0E0C0E09D
:100F9000F801EC0FFD1F6491662341F08FEC95E0A2
:100FA0000E94B906892B11F02196F2CFCE01DF9174
:100FB000CF911F910F9108950895089590E080E0DA
:100FC000089520915201222361F020916501309112
:100FD00066012817390784F49093640180936301B4
:100FE000089520916301309164018217930724F4DE
:100FF0009093660180936501089580915201882342
:1010000071F080916301909164012091530121114D
:101010000BC021E030E0821B930B0C94E107809120
:10102000650190916601F1CF25E030E0F4CF809129
:1010300052012091630130916401811104C020911B
:1010400065013091660180915301811106C081E0F4
:1010500090E0820F931F0C94E10785E090E0F9CFB8
:10106000FC0101900020E9F73197AF01481B590BB3
:10107000BC018FEC95E00C94BE058F929F92AF92CD
:10108000BF920F931F93CF93DF93CDB7DEB7A19796
:101090000FB6F894DEBF0FBECDBF19A2423008F4E0
:1010A0004AE08E010F5D1F4F842E912CB12CA12C94
:1010B000A50194010E94C313E62FB901CA01EA30C9
:1010C000F4F4E05DD801EE938D01232B242B252B26
:1010D00079F790E080E0109719F0CD010E94300878
:1010E000A1960FB6F894DEBF0FBECDBFDF91CF91B2
:1010F0001F910F91BF90AF909F908F900895E95CE2
:10110000E1CF4F925F926F927F928F929F92AF92B8
:10111000BF92CF92DF92EF92FF920F931F93CF93E4
:101120006B017C01742EAC019B010E942316882365
:1011300099F08AE391E0CF911F910F91FF90EF908A
:10114000DF90CF90BF90AF909F908F907F906F90E7
:101150005F904F900C94300846015701E894B7F81F
:101160002FEF3FEF4FE75FE7C501B4010E94231661
:1011700081110DC02FEF3FEF4FE75FE7C501B401CD
:101180000E94521418161CF48EE391E0D4CF2FEF76
:101190003FEF4FE75FE4C701B6010E94B115181693
:1011A0001CF482E491E0C7CF2FEF3FEF4FE75FECF5
:1011B000C701B6010E94521487FDF3CF20E030E052
:1011C000A901C701B6010E94521410E000E087FF98
:1011D00008C08DE20E94BC078C01F7FAF094F7F882
:1011E000F094C0E060E070E080E09FE37C1641F0A6
:1011F00020E030E040E251E40E945714CF5FF6CF88
:10120000A70196010E94E6132B013C010E94D01415
:101210004B015C014AE00E943D087C01E00EF11E9A
:10122000CC23B1F1C501B4010E94FF149B01AC01B4
:10123000C301B2010E94E5134B015C018EE20E94E2
:10124000BC07E80EF91EC15018F120E030E040E282
:1012500051E4C501B4010E94B6152B013C010E9466
:10126000D0144B01B12CA12C4AE0C501B4010E945D
:101270003D08E80EF91EC501B4010E94FF149B0150
:10128000AC01C301B2010E94E5134B015C01DBCF4D
:10129000C701CF911F910F91FF90EF90DF90CF90FA
:1012A000BF90AF909F908F907F906F905F904F9086
:1012B00008958F929F92AF92BF92CF92DF92EF925A
:1012C000FF926B017C0120E030E0A9010E94B11582
:1012D0004601570118166CF0B7FAB094B7F8B094FD
:1012E00020E030E0A901C701B6010E94B11587FDD9
:1012F00003C080E20E94BC0720E030E040E251E4FD
:10130000C501B4010E94521487FF03C080E20E940D
:10131000BC0720E030E048EC52E4C501B4010E9473
:10132000521487FF03C080E20E94BC0741E0C7015E
:10133000B601FF90EF90DF90CF90BF90AF909F905D
:101340008F900C948108CF92DF92EF92FF92CF930F
:10135000DF936C01990FEE08FF08F7FE17C08DE2CE
:101360000E94BC07EC0166277727CB016C197D0929
:101370008E099F094AE00E943D088C0F9D1FDF9156
:10138000CF91FF90EF90DF90CF9008954AE0C70192
:10139000B601DF91CF91FF90EF90DF90CF900C944A
:1013A0003D080C94AD130F931F93CF93DF938C01E3
:1013B000EB010E94AD138883C80101960E94AD1312
:1013C0008983CE01DF91CF911F910F9108950E94E3
:1013D000A41346E0489F9001499F300D112481E8F5
:1013E00090E0821B930B08950E94A41346E0489F4F
:1013F0009001499F300D112480E490E0821B930BF3
:1014000008950E94A41346E0489F9001499F300D23
:1014100011243695279580E490E0821B930B089564
:10142000FF920F931F93CF93DF93EC01F62E088169
:101430001981C8010E94AD13F81621F06F2DC80163
:101440000E94B513CE01DF91CF911F910F91FF90B4
:101450000895EF92FF920F931F93CF93DF9300D0E5
:10146000CDB7DEB78C017B019A838983FB01608154
:10147000CE0101960E94100A0F5F1F4F1A83098345
:10148000F7016181CE0101960E94100AC7010F90F9
:101490000F90DF91CF911F910F91FF90EF900895E2
:1014A00065E671E08EE093E00E94290A63E671E050
:1014B00080E193E00C94290A1F920F920FB60F92CD
:1014C00011248F939F938091E1009091E100937F8D
:1014D0009093E10083FF0FC01092E90091E0909398
:1014E000EB001092EC0092E39093ED0010927E01DD
:1014F00098E09093F00082FF22C093E09093E9007F
:101500009091F200992319F09AE39093E80090915A
:101510006F01992341F090916F01915090936F0169
:10152000911101C05D9A90917D01992341F09091B4
:101530007D01915090937D01911101C0289A84FF03
:1015400018C08091E2008E7E81608093E2008091DD
:10155000E1008F7E8093E100809170018E7E80613A
:10156000809370019F918F910F900FBE0F901F90ED
:10157000189580FFF7CF8091E2008E7E8061809386
:10158000E2008091E1008E7E8093E1008091700105
:101590008E7E8160E5CF1F920F920FB60F921124BD
:1015A000CF92DF92EF92FF920F931F932F933F936F
:1015B0004F935F936F937F938F939F93AF93BF935B
:1015C000EF93FF93CF93DF93CDB7DEB76C97DEBF7A
:1015D000CDBF1092E9008091E80083FF25C068E04C
:1015E000CE0145960E94B10582EF8093E8008D8977
:1015F00087FF39C09091E80090FFFCCF982F90763C
:1016000009F034C19E894F89588D2F89F88C91112A
:1016100031C0803861F580916E018093F1001092A5
:10162000F1008EEF8093E8006C960FB6F894DEBF61
:101630000FBECDBFDF91CF91FF91EF91BF91AF91E1
:101640009F918F917F916F915F914F913F912F91DA
:101650001F910F91FF90EF90DF90CF900F900FBEF2
:101660000F901F9018959EEF9093E800C7CF1092AF
:10167000F100D5CF913059F48111D3CF41305105CC
:1016800081F680916E018D7F80936E01CACF933079
:1016900049F48111C6CF4130510519F680916E0190
:1016A0008260F2CF953041F48091E80080FFFCCF5A
:1016B00020682093E300B5CF963009F0A9C00B8DC8
:1016C0001C8D22E01092E90010926C0110926B01C7
:1016D000F2122EC010926A01109269010E948005D8
:1016E0001F8299E09983FA8291E09E8390EA98871D
:1016F0009AEF998720916B0130916C01275F3F4FE2
:101700003C832B838D831092E90010926C01109220
:101710006B0110936A010093690149E050E0BE013A
:101720006F5F7F4F80E00E945A050E94800579CF4D
:1017300010936A01009369010E949704DC011296DC
:101740000D911C910115110509F410C1D801ED91FD
:10175000FC910480F581E02DBE016B5E7F4FC801D6
:101760000995009709F0FDC0F80100851185EACFC1
:10177000F3E0FF120EC08F89882309F440C0823045
:1017800061F440E867E08CE098E00E94210D81114F
:1017900048CF81E28093EB0047CF813029F440E8C5
:1017A0006BE080E098E0F1CF833099F70E949704D6
:1017B000DC011296ED90FC908E010F5F1F4F6801C7
:1017C000E114F10479F0D701ED91FC910680F781E5
:1017D000E02DB801C7010995080F111DF701E0843C
:1017E000F184EECFD8011C92F60101900020E9F7B8
:1017F0003197BF016C197D0940E0C601C6CF6AEE82
:1018000077E0FB01449150E080E80E945A0509CF3F
:10181000973009F4BECF983021F481E08093F10035
:1018200000CF993009F0FDCE837009F0B2CFEEE021
:10183000F1E081E031E096E32191222371F0809381
:10184000E9003093EB00DF0111972C912093EC001D
:101850009093ED008F5F873079F78EE78093EA00F1
:101860001092EA008F8980937E01DBCE8B8D9C8D58
:101870001092E90010926C0110926B0190936A0132
:1018800080936901898D811151C08E899D89913A1A
:1018900049F4813209F07DCF47E050E065E071E026
:1018A00080E0B3CF913209F074CF833269F48F892D
:1018B000988DB0E0A0E08093010190930201A09385
:1018C0000301B0930401ADCE803269F48091E80049
:1018D00082FFFCCF67E085E091E00E94B1058BEFCD
:1018E0008093E8009ECE823209F09BCE8F89809350
:1018F0000C018091050190910601A0910701B09122
:101900000801803B9440A105B10569F480910C0168
:1019100080FD09C088E780936D01809164008F7D10
:10192000809364007ECE10926D017BCE0E9497045E
:10193000DC0112960D911C910115110509F429CFB6
:10194000D801ED91FC910190F081E02DBE016B5E1C
:101950007F4FC8010995811164CEF801008511857A
:10196000EBCF181619060CF45CCE13CFF1E0FF1282
:10197000FFCE6EEE77E045CF0F930FB70F931F9218
:1019800011248F939F93EF93FF93EEE4F1E0809106
:10199000490191E08D5F8D3710F08D5793958093BD
:1019A00049018081890F80839181911D91830281FA
:1019B000011D02838381811D838309270F700927FD
:1019C00002950093480135D081110093460180397A
:1019D00089F400914701901B963070F087E780935F
:1019E00000088093010888E198E08093600090935C
:1019F0006000FFCF9093470180916D01815018F0F6
:101A000080936D0159F3EAE4F1E0808191810196C0
:101A10008083918382819381811D911D8283938331
:101A2000FF91EF919F918F911F900F910FBF0F9199
:101A300018958FB18095807F669B88601C9B846021
:101A40000895EF92FF920F931F93CF93DF93F82E99
:101A5000192FE62E042F81E0860F880F0E942C0597
:101A600083E00E942C05CF2DD12FEC0EFD2EF11C12
:101A7000CE15DF05B9F007FF13C0FE0184910E9467
:101A80002C05182F80E00E942C05812321968111BE
:101A9000EFCFDF91CF911F910F91FF90EF900895BD
:101AA0008881EDCF81E0F5CF0F931F93CF93DF9324
:101AB0008C0181E090E00E94D10980FF32C08AE071
:101AC00090E00E94D1099FEF980F9E3F50F522E3CE
:101AD00030E0D80150963C932E931F9728E330E0D6
:101AE00052963C932E935197CBE0D0E0D801ED91E4
:101AF000FC910190F081E02D682FC8010995CE017D
:101B00000E94D1092196C131D10581F780E00E9460
:101B1000350488EE93E0DF91CF911F910F910C94E3
:101B20009C06DF91CF911F910F91089504970C941B
:101B3000540DEFE7F5E01382128288EE93E0A0E007
:101B4000B0E084839583A683B78388E191E0918395
:101B500080838FEF9FEF95878487EFECF5E013820A
:101B600012821186128680E183871086178215867D
:101B70008AE291E09183808388E391E09583848376
:101B8000108A1786128A118A81E0838B148A858BCA
:101B9000168A089500D0CDB7DEB7789483E084BD6F
:101BA00083E085BD81E080936E00E1E8F0E083E0B2
:101BB0008083E0E881E08083E1E983E08083E0E9FD
:101BC00081E08083E1EC87E08083E3EC81E0808347
:101BD000E0EC82E08083E2EC81E08083EAE787E06A
:101BE00080838068808310927E0110926E01109233
:101BF00070018091D70081608093D70080EA809344
:101C0000D80089B5806189BD89B5826089BD09B474
:101C100000FEFDCF81E090E00E94EB058091D800AE
:101C20008F7C80618093D8008091E000807F8093DA
:101C3000E0008091E1008E7E8093E1008DE0809352
:101C4000E200559A209A81EC80937C0081EF85B95F
:101C500087EE84B984E38BB984EF8AB9769A6E985B
:101C600080EF81BB10BA80E58CBD81E08DBD85E041
:101C700090E00E949C065F9902C05F9AF8CF5C9842
:101C8000ECE5F6E09DE085918EBD00000DB407FE09
:101C9000FDCF8EB59A95B9F75C9A81E88093640080
:101CA00081E0809365000E9435040E949E0602E058
:101CB00010E087FF11C05C9885EA8EBD00000DB46E
:101CC00007FEFDCF8EB55C9A2E982F982D9881E057
:101CD00083BF889513BEFCCF0E949E0682FF40C042
:101CE0002D980E949E0684788438C1F40E949A063A
:101CF00088EC90E00E949C062F981A8309836FEF6E
:101D0000CE0101960E94100A84EF91E00E949C0689
:101D10002F9A0E949E0684788438D9F30E949E06EA
:101D200084718431C1F40E949A0688EC90E00E948C
:101D30009C062E981A83098360E0CE0101960E94CA
:101D4000100A84EF91E00E949C062E9A0E949E0643
:101D500084718431D9F388EC90E00E949C06BCCF5A
:101D60000E949A0682E090E00E94D109882309F43B
:101D7000A4C03E9A3F9A81E090E00E94D109282FAA
:101D80002470F22E81FF0CC021112E9800EF1FEF5E
:101D90000E949E0686FF94C02E9A2F9A0E949A0651
:101DA00082E390E00E949C060E949E068111F8CF7B
:101DB00088EC8093DA051092E5058CE093E00E94B0
:101DC000D1098C3409F0F0C08DE093E00E94D10974
:101DD0008D3609F0E9C065E671E08EE093E00E947F
:101DE000D30963E671E080E193E00E94D30986E6BF
:101DF0009CE9ADEAB7E480935B0190935C01A0930A
:101E00005D01B0935E0186E69CE9ADEAB7EC809394
:101E1000570190935801A0935901B0935A018091B2
:101E200064008E7F80936400EEEAF6E02491EFE890
:101E3000F6E084918823C9F090E0880F991FFC0197
:101E4000E958F94F45915491FC01E759F94FA59193
:101E5000B4919FB7F894FA01808120958223808302
:101E60008C91E22FE823EC939FBF81E080930001E7
:101E700028E0222E312C36E6432E3CE9532E3DEA53
:101E8000632E37EC732E98E3C92ED12C90914E011E
:101E90008091DB05F92FF81B8F2F2091DC05222381
:101EA00009F4A3C0F093DD051092DC0580E090E01A
:101EB000892B61F30E940000E6CF3E983F985BCFEC
:101EC000FF2029F00430110511F42E9A2F9881E09B
:101ED0000E943504802F8770E82EA80163E0559595
:101EE00047956A95E1F7CA019695982F88279795A7
:101EF000879581509E4F70E060E04E3FAFEF5A07EC
:101F000071F1DC01A058B10930E020E0FB01E4559B
:101F1000FA4F6F01F601E20FF31FE491F0E04F0179
:101F20000E2C02C0880C991C0A94E2F74F3F54070C
:101F300039F05496BC905497B8285496BC92549754
:101F4000EE2039F05C01A20EB31EF50184889828BA
:101F5000948A2F5F3F4F119628353105D9F64F5F90
:101F60005F4F80589F4F685A7F4F603B710529F63D
:101F700080E00E9435048FE090E00E949C060F5F95
:101F80001F4F0931110509F003CFFF2011F02F9ADF
:101F90002D9880E991E00E949C060E949A068FECA1
:101FA00095E00E94540DFCCE8CE093E09A838983E7
:101FB0006CE4CE0101960E94100A8DE093E09A83B2
:101FC00089836DE6CE0101960E94100A88EC90E0AC
:101FD000909366018093650188E691E09093640197
:101FE000809363010E94500A02CF2091DA05F21714
:101FF00048F48F5F821708F059CF81E083BF88953E
:1020000013BE54CF81E08093DC059093DB05809173
:10201000D6059091D70501969093D7058093D60564
:102020008091D8058093D9050E949E068093D8059B
:102030000E944F041092E1051092E0051092DF0516
:102040001092DE05E6EAF7E0849120917B00982F5C
:10205000990F990F90722F7D922B90937B00209176
:102060000001F0E42F9F900111248770822B809350
:102070007C0080917A00806480937A0080917A005D
:1020800086FDFCCF90917800809179008927982770
:1020900089270FEF13E0081B190B109368010093B9
:1020A0006701E0906501F0906601609163017091B5
:1020B00064016E197F09072E000C880B990B0E9492
:1020C00001159B01AC0160E070E088EC92E40E9495
:1020D00057144B015C01B8016E197F09072E000CE3
:1020E000880B990B0E9401159B01AC01C501B4013D
:1020F0000E94B6154B015C0180925F0190926001D5
:10210000A0926101B092620120915B0130915C016B
:1021100040915D0150915E010E94521487FF08C0FA
:1021200080925B0190925C01A0925D01B0925E0191
:1021300020915701309158014091590150915A0115
:10214000C501B4010E94B115181644F480925701DC
:1021500090925801A0925901B0925A018091560173
:10216000813009F439C138F0823009F46DC280E061
:102170000E9435049BCE20E030E040E053E4C501EE
:10218000B4010E94B61520E030E048EC52E40E9411
:1021900057144B015C0120E030E0A9010E94B11509
:1021A00020E030E040E05FE387FDF3C0C501B4010B
:1021B0000E94E6130E94C91400E860387105810589
:1021C00091050CF4062F84E00E944404882319F042
:1021D00081E08093560188E00E9444048823A1F0A6
:1021E00086E69CE9ADEAB7E480935B0190935C01DD
:1021F000A0935D01B0935E01409257015092580147
:102200006092590170925A0180E997E00E94010A98
:102210009093DF058093DE051092E1051092E005B2
:1022200080E997E00E94C10788EF9FEF9093DF0558
:102230008093DE0589E090E09093E1058093E005CE
:1022400083E08093E40560915F017091600180916B
:102250006101909162010E94590981E08093E40537
:10226000209167013091680180916501909166012C
:1022700028173907E1F1281739070CF08FC087E8D4
:1022800097E00E94010A9093DF058093DE0582E2C9
:1022900090E09093E1058093E00587E897E00E9445
:1022A000C10720916701309168018091630190918D
:1022B000640182179307DCF41092E20511E0109399
:1022C000E3058EE797E00E94010A9093DF05809373
:1022D000DE0582E290E09093E1058093E0058EE7D1
:1022E00097E00E94C1071093E2051092E305109257
:1022F000DF051092DE050DE210E01093E10500937A
:10230000E00589E797E00E94C10760915B01709149
:102310005C0180915D0190915E010E94590984E702
:1023200097E00E94E70984979093DF058093DE058C
:102330001093E1050093E00584E797E00E94C10750
:1023400060915701709158018091590190915A0103
:102350000E9459091092DF051092DE0507E310E094
:102360001093E1050093E00584E697E00E94C10721
:102370008EE597E00E94E7099093DF058093DE05E4
:102380001093E1050093E0058EE597E00E94C107F8
:10239000EECEC501B4010E94E5130CCFF12CE12C67
:1023A00010E0E016F1060CF07CCF81E2A82EB12CF3
:1023B00090E8E916F1042CF441E0B501C7010E9450
:1023C000A106AFEFAA1ABA0ABBE2AB16B10481F7B5
:1023D000EFEFEE1AFE0AE5CF20915401309155013E
:1023E0002115310551F021503109309355012093C9
:1023F0005401232B11F48093530188E00E9444047C
:1024000081111092560184E00E944404882319F03F
:1024100082E08093560180E20E944404882331F0D8
:102420008091520191E089278093520180E40E94BB
:102430004404882319F0C8010E94E10780E80E9443
:102440004404882309F4DEC00E94170885E090E068
:1024500090935501809354011092530182E597E0C7
:102460000E94010A9093DF058093DE051092E1053A
:102470001092E00582E597E00E94C107E6E0F0E0F7
:10248000F093DF05E093DE053092E1052092E00550
:1024900084E497E00E94C1078091650190916601F4
:1024A0000E94A30986E090E09093DF058093DE050B
:1024B000A0E1B0E0B093E105A093E00586E397E0EA
:1024C0000E94C10780916301909164010E94A30959
:1024D000809152011092DF051092DE05882309F4E5
:1024E000AEC0E0E1F0E0F093E105E093E00580E1CB
:1024F0000E94BC071092DF051092DE0588E190E093
:102500009093E1058093E00588E297E00E94C1077F
:1025100080916701909168010E94A3091092DF05E4
:102520001092DE05A0E2B0E0B093E105A093E005D3
:102530008CE197E00E94C10760915F01709160019A
:10254000809161019091620141E00E9481081092A6
:10255000DF051092DE05E8E2F0E0F093E105E0939C
:10256000E00583E197E00E94C10786E097E00E94C2
:10257000E7099093DF058093DE0588E290E0909371
:10258000E1058093E00586E097E00E94C107109284
:10259000DF051092DE05A0E3B0E0B093E105A09363
:1025A000E0058CEF96E00E94C10782EF96E00E9462
:1025B000E7099093DF058093DE05E0E3F0E0F09318
:1025C000E105E093E00582EF96E00E94C1071092DA
:1025D000DF051092DE05D092E105C092E0058BEE9A
:1025E00096E00E94C10784EE96E00E94E70990936E
:1025F000DF058093DE05D092E105C092E00584EE10
:1026000096E0C4CE80E10E944404882349F00E94F1
:10261000FD07A5E0B0E0B0935501A09354011CCF95
:1026200080915301882309F419CF0E949E0687FFE9
:1026300082C00E94170812CF0E94FD070FCF309270
:10264000E1052092E00553CF8093E4058CED96E000
:102650000E94F4099093DF058093DE058CE090E002
:102660009093E1058093E0058CED96E00E94C10710
:1026700084ED96E00E94F4099093DF058093DE05D7
:102680008CE190E09093E1058093E00584ED96E085
:102690000E94C10711E01093E4051092DF0510922B
:1026A000DE05D092E105C092E0058EEC96E00E9436
:1026B000C10789EC96E00E94E7099093DF058093BB
:1026C000DE05D092E105C092E00589EC96E00E941B
:1026D000C10784E00E94440481111093560188E0F0
:1026E0000E944404882309F442CD0E94500A0E94AB
:1026F0004F0482E08093E40583EC96E00E94F409A5
:102700009093DF058093DE0588E190E09093E105EA
:102710008093E00583EC96E00E94C10711E01093DE
:10272000E40580E00E94350480ED97E00E949C065D
:10273000109356011CCD0E949E0684FD7DCF109201
:1027400055011092540188CEFC0105900020E9F754
:10275000809590958E0F9F1F0895F999FECF92BD99
:1027600081BDF89A992780B50895262FF999FECF53
:102770001FBA92BD81BD20BD0FB6F894FA9AF99A9E
:102780000FBE01960895A1E21A2EAA1BBB1BFD01E4
:102790000DC0AA1FBB1FEE1FFF1FA217B307E40740
:1027A000F50720F0A21BB30BE40BF50B661F771F98
:1027B000881F991F1A9469F7609570958095909578
:1027C0009B01AC01BD01CF0108955058BB27AA273A
:1027D0000E94FD130C9477150E94691538F00E9431
:1027E000701520F039F49F3F19F426F40C94661507
:1027F0000EF4E095E7FB0C946015E92F0E94881514
:1028000058F3BA17620773078407950720F079F425
:10281000A6F50C94AA150EF4E0950B2EBA2FA02D58
:102820000B01B90190010C01CA01A0011124FF277D
:10283000591B99F0593F50F4503E68F11A16F04078
:10284000A22F232F342F4427585FF3CF4695379577
:102850002795A795F0405395C9F77EF41F16BA0B3C
:10286000620B730B840BBAF09150A1F0FF0FBB1FEA
:10287000661F771F881FC2F70EC0BA0F621F731F33
:10288000841F48F4879577956795B795F7959E3F90
:1028900008F0B0CF9395880F08F09927EE0F979521
:1028A000879508950E943C1508F481E008950E94E0
:1028B0006B140C9477150E94701558F00E946915DE
:1028C00040F029F45F3F29F00C94601551110C94ED
:1028D000AB150C9466150E94881568F39923B1F323
:1028E000552391F3951B550BBB27AA276217730736
:1028F000840738F09F5F5F4F220F331F441FAA1FCA
:10290000A9F335D00E2E3AF0E0E832D09150504085
:10291000E695001CCAF72BD0FE2F29D0660F771F33
:10292000881FBB1F261737074807AB07B0E809F019
:10293000BB0B802DBF01FF2793585F4F3AF09E3F9E
:10294000510578F00C9460150C94AB155F3FE4F3DF
:10295000983ED4F3869577956795B795F7959F5FE1
:10296000C9F7880F911D9695879597F90895E1E02D
:10297000660F771F881FBB1F621773078407BA078C
:1029800020F0621B730B840BBA0BEE1F88F7E095E7
:1029900008950E94D0146894B1110C94AB15089559
:1029A0000E94901588F09F5798F0B92F9927B7513A
:1029B000B0F0E1F0660F771F881F991F1AF0BA95E3
:1029C000C9F714C0B13091F00E94AA15B1E0089582
:1029D0000C94AA15672F782F8827B85F39F0B93F74
:1029E000CCF3869577956795B395D9F73EF4909596
:1029F0008095709561957F4F8F4F9F4F0895E89414
:102A000009C097FB3EF490958095709561957F4F36
:102A10008F4F9F4F9923A9F0F92F96E9BB279395E4
:102A2000F695879577956795B795F111F8CFFAF4F4
:102A3000BB0F11F460FF1BC06F5F7F4F8F4F9F4F25
:102A400016C0882311F096E911C0772321F09EE883
:102A5000872F762F05C0662371F096E8862F70E0E9
:102A600060E02AF09A95660F771F881FDAF7880FC3
:102A70009695879597F90895990F0008550FAA0B19
:102A8000E0E8FEEF16161706E807F907C0F0121681
:102A90001306E407F50798F0621B730B840B950B84
:102AA00039F40A2661F0232B242B252B21F40895D9
:102AB0000A2609F4A140A6958FEF811D811D089576
:102AC00097F99F6780E870E060E008959FEF80ECE1
:102AD000089500240A941616170618060906089584
:102AE00000240A9412161306140605060895092EEA
:102AF0000394000C11F4882352F0BB0F40F4BF2B59
:102B000011F460FF04C06F5F7F4F8F4F9F4F089598
:102B100057FD9058440F551F59F05F3F71F047958E
:102B2000880F97FB991F61F09F3F79F08795089573
:102B3000121613061406551FF2CF4695F1DF08C092
:102B4000161617061806991FF1CF869571056105AF
:102B500008940895E894BB2766277727CB0197F957
:102B600008950E943C1508F48FEF08950E94C9153E
:102B70000C9477150E94691538F00E94701520F0AA
:102B8000952311F00C9460150C94661511240C9487
:102B9000AB150E94881570F3959FC1F3950F50E017
:102BA000551F629FF001729FBB27F00DB11D639FFF
:102BB000AA27F00DB11DAA1F649F6627B00DA11DA5
:102BC000661F829F2227B00DA11D621F739FB00D4B
:102BD000A11D621F839FA00D611D221F749F3327BB
:102BE000A00D611D231F849F600D211D822F762F54
:102BF0006A2F11249F5750409AF0F1F088234AF031
:102C0000EE0FFF1FBB1F661F771F881F915050409C
:102C1000A9F79E3F510580F00C9460150C94AB15FC
:102C20005F3FE4F3983ED4F3869577956795B79523
:102C3000F795E7959F5FC1F7FE2B880F911D96953D
:102C4000879597F908950E943C15880B990B089574
:102C5000EE0FFF1F0590F491E02D0994F894FFCF3B
:102C600001FFFFFFFF00E100000000000000C18045
:102C70008100000000000000AB04FF05CC04C1048B
:102C80001205D004EE0400000000B906BE05DE0700
:102C9000DD07540DFCFF0000960D6E616E00696E3D
:102CA00066006F766600FFFFFFFFFFFFFFFFFFFF7D
:102CB000FFFFFFFFFFFFFFFFFFFFFFFFFFFFFFFF24
:102CC000FFFFFFFFFFFFFFFFFFFFFFFFFFFFFFFF14
:102CD000FFFFFFFFFFFFFFFFFFFFFFFFFFFFFFFF04
:102CE000FFFFFFFFFFFFFFFFFFFFFFFFFFFFFFFFF4
:102CF000FFFFFFFFFFFFFFFFFFFFFFFFFFFFFFFFE4