:100000000C94090C0C94310C0C94310C0C94310CA4
:100010000C94310C0C94310C0C94310C0C94310C6C
:100020000C94310C0C94310C0C94B3190C94221ACE
:100030000C94310C0C94310C0C94310C0C94310C4C
:100040000C94310C0C94310C0C94310C0C94310C3C
:100050000C94310C0C94310C0C94310C0C94131C3A
:100060000C94310C0C94310C0C94310C0C94310C1C
:100070000C94310C0C94310C0C94310C0C94310C0C
:100080000C94781C0C94310C0C94310C0C94310CA5
:100090000C94310C0C94310C0C94310C0C94310CEC
:1000A0000C94310C0C94310C0C94310C3C38000045
:1000B00000000080F8FE0FE3FB1B0B0B8BFBF3F73C
:1000C000F6F6F60606ECECECECECECECECECECEC1E
:1000D000ECECECEEE6F6F6F6F7F3FBFBCBCBFBE352
:1000E0000FFEF8801E332121339E00000080F8FFB0
:1000F0000FE0F8F9F9F9F9F9F9F9F1F3F3F3F3F09D
:10010000F0FFFFFFFFFFFFFFFFFFFFFFFFFFFFFF0E
:10011000FFFFFFFFFFFFFFFFFFFF7F7FFEE00FFFFF
:10012000F880060600000000000F3FF0C607040438
:10013000070707070707070707070707FFFFFFFF6F
:10014000FFFFFFFFFFFFFFFFFFFFFFFF070707079F
:1001500007078787070726860707C6F03F1F008027
:100160008000000000000000030784C4E4E4E4E42D
:10017000E4E4E4E4C49C000FE7E7E7E7E7E7E7E748
:10018000E7E7C7870F1F0FC7E7E0ECE4E4E4E5E526
:10019000E4C4040404070300C040C30311000000CA
:1001A000000000000000FFFFFFFFFF393939FFFFAB
:1001B000FF0FE0E0EFEF0FFFFF183879FFFFF703C5
:1001C000E0E0EFEF0FFFF9F0F0FCFDFDFD0DECE0DE
:1001D000E0E00000012101000000000080C060207C
:1001E00060C080000000000C0C007EFE803C3E1CC5
:1001F0001C1C1C1C0C0C0E0C0C0C0C0E1E1C1C1CB9
:100200001C3C3E80FE7E00000000C0E0E0C000001C
:100210000000030300000E1B3166C680D060311B56
:100220000E00003828380001471E382020202030DA
:100230001010D0D0101090103020202020381E0731
:10024000010000060600000101000000000000009F
:1002500000004020FFFFFF0707E7E7676767676762
:1002600067E7E70707FFFF1F1F67677F7F1F1F07FE
:1002700007E7E7E7E707079F9F7F7F87876767FFB6
:10028000FFFFFF0707E7E7676767676767E7E70756
:1002900007FFFFFFFFFFFF00007F7F60606060607F
:1002A000607F7F0000FFFF06069898787898987E18
:1002B0007E8787797986867F7F86860707989879F3
:1002C00079FFFF00007F7F6060606060607F7F007B
:1002D00000FFFFFFFFFFFF0606E6E69E9EE6E67EC6
:1002E0007E7E7E666607077878797906069F9FF896
:1002F000F86767E6E6E1E1060619197878616118A2
:10030000181F1F8686E6E666661E1E666666669E81
:100310009EFFFFFFFFFFFFE6E6E1E1E1E10101668D
:10032000667E7E6666000066669E9E1E1E9F9F0716
:100330000780807F7FF9F9E6E68686FEFE86866680
:1003400066868667676161FEFEE0E0181860606798
:1003500067FFFFFFFFFFFF676781811919FEFE60DE
:1003600060F8F866661E1E60601F1F8686E7E7F865
:10037000F861618686F9F90101E1E1F9F9E7E760E1
:100380006007079E9E7E7EF9F96161FEFE60601E39
:100390001EFFFFFFFFFFFF66667F7F606079797851
:1003A0007879796666E6E618180000E1E101010750
:1003B0000718186767E7E70606F9F9F9F9F9F90682
:1003C00006E6E66161E6E60707FEFE8787181898ED
:1003D00098FFFFFFFFFFFF0000FEFE060606060671
:1003E00006FEFE0000FFFF9E9E9E9E79790000F8AB
:1003F000F818180606F9F9E6E66767E1E19F9FE05D
:10040000E087878686E7E700000707797998987F75
:100410007FFFFFFFFFFFFFE0E0E7E7E6E6E6E6E657
:10042000E6E7E7E0E0FFFFE1E1FFFFE6E6F8F8E7F7
:10043000E7E6E6FEFEE1E1F9F9E0E0F9F9F9F9E1D4
:10044000E1E7E7F9F9E7E7E0E0FEFEFEFEE1E1FEC5
:10045000FEFFFFFF36101F111111001F11111F00A9
:100460001F11110E001F151511000A0000000E19B2
:1004700011170600000810101F001F11111F001592
:10048000151F001F09091700111F110000000000AF
:10049000003E12123E003E12122E0002023E0200E8
:1004A000140000001C32222E0C00001020203E0000
:1004B0003E22223E002A2A3E003E12122E00223EFA
:1004C00022004010FF0100C0FEFEFEE0E0E0E0F888
:1004D000FEFE06C1FDFD8D8D8D8D0D02C5F6750AE2
:1004E0000D0A0DCAED6A6DEAD51A151A559A559A74
:1004F000352A35AA352A352A352A352A35AA352A04
:1005000035AA372F5FA050DF5FC740C040C05EDF15
:100510005FC050DF5FD959D959D940D05FDF58D873
:1005200058C05EDF43C343C341C040CA55C241C245
:1005300041C855C050C040C854CA41CA40C051CA41
:1005400041C040C0FF01008054AA54A040A040A870
:1005500054AA048155A905890589050245A6550AAD
:100560000D0A0D8A4D2A4DAA551A151AD5DA55DAF3
:10057000B52AB5AA352A352A352AB52A35AAB52A83
:1005800035AAB72F5FA050CA55C240C040C054CA58
:1005900055C050CA55C851C851C840C055CA50C8A6
:1005A00050C054CA41C241C241C040DE5FC343C3D0
:1005B00041D85FD150D040D85CCF4BDE40C053DE35
:1005C00043C140C0FF01008054AA54A040A040A8ED
:1005D00054AA048155A905890589050245A6550A2D
:1005E0000D0A0D8A4D2A4DAA551A151A559A559A73
:1005F000352A35AA352A352A352A352A35AA352A03
:1006000035AA372F5FA050CA55C240C040C054CA57
:1006100055C050CA55C851C851C840C055CA50C825
:1006200050C054CA41C241C241C040CA55C241C271
:1006300041C855C050C040C854CA41CA40C051CA40
:1006400041C040C0FF01008054AA54A040A040A86F
:1006500054AA048155A905890589050245A6550AAC
:100660000D0A0D8A4D2A4DAA551A151A559A559AF2
:10067000352A35AA352A352A352A352A35AA352A82
:1006800035AA372F5FA050CA55C240C040C054CAD7
:1006900055C050CA55C851C851C840C055CA50C8A5
:1006A00050C054CA41C241C241C040CA55C241C2F1
:1006B00041C855C050C040C854CA41CA40C051CAC0
:1006C00041C040C0FF01000070F8DCCC8C8C0C0CE9
:1006D000C8E0703919191939F3E60586F5360506AB
:1006E00005F6F506EDEAED8A0DCAED0A15DAD5DA5A
:1006F000D5DA952A352A35AAB5AA356A556A556AD2
:10070000556A576F5FA048DC58D858D959CF47C0B1
:1007100047CF5CD858D85CCE47C340CF5FD858D8B5
:100720004FC740D85FC341CF5CDF47C05EDF5BD8B7
:100730005CCF47C040CC5FDB59CD4FC058CF45C1DF
:1007400058CF45C1FF0100002050884488040804A8
:100750008840201109110911A3460506A5160506B2
:100760000556A506AD4AAD0A0D4AAD0A155A955A69
:10077000955A952A352A352AB52A356A556A556A11
:10078000556A576F5FA048D448D048D148C542C089
:1007900042C548D048D048C442C140C54AD048D0DC
:1007A0004AC540D04AC140C548D542C04AD54AD0C2
:1007B00048C542C040C44AD148C54AC048C540C1E6
:1007C00048C540C137AB352A35AA352A352A35AA5E
:1007D00035AA35AA559A559A151A151A159A552AF1
:1007E0004D2A4D0A4DAA552A130A132A53A20382F1
:1007F00055A955A9410141A9550140AA548A448AE5
:10080000440A01FE50CA41C855C254CA41C855C223
:1008100044C044C850C850C845C040C045CA50C86C
:1008200050C840C045CA54C850C854CA45C250CA2E
:1008300055C040C245CA55CA40C055CA45C041C04E
:1008400040C060BF37AB352A35AA352A352A35AACC
:1008500035AA35AA559A559A151A151A159A552A70
:100860004D2A4D0A4DAA552A130A132A53A2038270
:1008700055A955A9410141A9550140AA548A448A64
:10088000440A01FE50CA41C855C254CA41C855C2A3
:1008900044C044C850C850C845C040C045CA50C8EC
:1008A00050C840C045CA54C850C854CA45C250CAAE
:1008B00055C040C245CA55CA40C055CA45C041C0CE
:1008C00040C060BF37ABB52AB5AA352AB52AB5AA4C
:1008D000B5AA35AAD5DAD5DA951A151A159A552A70
:1008E0004D2A4D0A4DAA552A130A132A53A20382F0
:1008F00055A955A9410141A9550140AA548A448AE4
:10090000440A01FE58DF43D85FC35EDE43D85FC6AA
:1009100046C04EDD58D858CD47C040C045CA50C823
:1009200050C840C045CA54C850C854CA45C250CA2D
:1009300055C040C245CA55CA40C055CA45C041C04D
:1009400040C060BF37AB352A35AA352A352A35AACB
:1009500035AA35AA559A559A151A151A15DAD56A6F
:100960006D6A6D0ACDEA753A1B1A1B3AF3E203C2AF
:10097000FDFD7DF9C101C1FDFD05C0FEFEDECECE4F
:10098000CE0E01FE50CA41C855C254CA41C855C214
:1009900044C044C850C850C845C040C04FCF58D8C4
:1009A00058D848C047CF5CD858D85CCE47C350DF32
:1009B0005FC040C34FDF5FDF40D05FDF47C141C151
:1009C00040C060BF576B556A556A556A352AB52ACB
:1009D000352A155A951A155A950AAD4AAD0A0D4A87
:1009E000AD0A0556A5162556A546050685462312C9
:1009F0000B120B12A3420341A9552850A00000502E
:100A0000A81401FE40C040D042D540C44AD148C5D8
:100A10004AC04AD548D04AC540D04AC140C548D549
:100A200042C048D54AD048C44AC140C042C548D057
:100A300048D048C442C140D54AC140C142D54AD538
:100A40004AC060BF576B556A556A556A35AAB5AA40
:100A5000352A15DAD51A15DAD50AEDEAED8A0DCA66
:100A6000ED0A05F6F5363576E5C60506C5E6733AB0
:100A70001B1A1B3AF3E203C1FDFD3CF8E08000F8CD
:100A8000FC3C01FE40C040D057DD41CC5FDB59CD7E
:100A90004FC04FDF58D85EC741D85FC341CF5CDF3E
:100AA00047C05CDF5BD858CC4FC340C047CF5CD851
:100AB00058D85CCE47C350DF5FC340C147DF5EDF1D
:100AC0004FC060BF08080055008000010080000191
:100AD0000080000100AA00AA00010080000100803F
:100AE000000100800055070854FCFEFE56FC5458D7
:100AF000F8FCFC5CF85870F0F8F878F070E0E0F082
:100B0000F0F0E0E000010203020100010203020133
:100B10000708000000000000000000000000008046
:100B20000000000000208000000010002080000075
:100B3000081408208000140A140A20000A150A1557
:100B40000A00000A1100110A000011000000110043
:100B50000000000000000000000000000000000095
:100B60000001020304050607080408498888804537
:100B70008888804584888043848880000100010043
:100B8000010203020102011310040E0E84848ACABA
:100B90009191FFD1110A0A04040E0E04E0E0F0E97D
:100BA000FFFFFFFFFFFFFFF0F0E0F0E0E0F0F800F4
:100BB000048E8E848ACA9191FF11110A0A040E0EC6
:100BC0000400C0E0E7FFFFFFFFFFFFFFF0F0F0F0E1
:100BD000E0E0F8FCFE0000848E8E84CAD151FF1143
:100BE000110A040E0E040000E0F7FFFFFFFFFFFFF5
:100BF000FFFFF8F0F0F0F0F8FEFFFF000080848EB9
:100C00008EC40A11FF110A040E0E04800000DFFFDB
:100C1000FFFFFFFFFFFEF0FFF0F8F0F0FCFFFFFF2B
:100C2000FF00008080848E0E0411FF11040E0E84DC
:100C300080800000FEFFFFFFFFFFFEF0F8FFF8F0EE
:100C4000F8FEFFFFFFFFFF0000808000040E0E048F
:100C5000FF040E0EC48080000000FFFFFFFFFFFABC
:100C6000F0F8F0FFF0F8FEFFFFFFFFFF9F000080AD
:100C700000000000040EFF0E04C0C08080000000D1
:100C8000FFFFFFFFF8F0F0F0F8FFF8FFFFFFFFFFB6
:100C9000FFCF010000000000040E0E04FF84CECE42
:100CA000848080800000FFFFFCF8F0F0F0F8F8FF8F
:100CB000FFFFFFFFFFFFC7C08000000000040E0E13
:100CC0000411FFD1C4CE8E8480000000FFFCF0E050
:100CD000F0F0F8F8FCFFFFFFFFFFFFE3E08080008B
:100CE0000000040E0E040AD1FFD1CAC4CE8E040047
:100CF0000000F8F0E0F0F0F8F0FFFFFFFFFFFFFF6B
:100D0000E1E0C0C0800000040E0E04CAD1D1FFD1C2
:100D1000D1CA040E0E040000F0C0E0E0F0F0FFFFC6
:100D2000FFFFFFFFFFF0F0E0E080C000040E0E04C4
:100D3000CACAD1D1FFD1D10A0A040E0E0400C0E004
:100D4000E0F0F0FFFFFFFFFFFFFFF0F0E0E0C0E0AA
:100D5000F00F1006FD06040808112F2120404080E6
:100D600040800003000000000000000000000103BC
:100D7000010CFA0C080808112F11202020C0A0C077
:100D80000003000000000000000000000003001845
:100D9000F418081010112F1110202060D0600003EB
:100DA0000000000000000000000000030030E830F8
:100DB000101010112F1110101030E8300003000037
:100DC000000000000000000000030060D060202050
:100DD00010112F1110100818F41800030000000063
:100DE000000000000000000300C0A0C0202020116F
:100DF0002F110808080CFA0C000300000000000086
:100E000000000000000300804080404020212F119E
:100E100008080406FD0601030100000000000000B0
:100E2000000000030000010203040506050403029C
:100E3000014040008000808080808000FC02020130
:100E40000202FC0000FC0202010202FC0000FC02A3
:100E500002010202FC0000FC0202010202FC00008E
:100E6000FC0202010202FC0000FC0202010202FC80
:100E700000000000011E316F5F5F5D5C5F5C585CCD
:100E8000585C5F5C5C5F5C585C585C5F5C5C5F5CA2
:100E9000585C585C5F5C5C5F5C585C585C5F5C5C99
:100EA0005F5C58DC18DCDFDC5C5F5C585C585C5FC6
:100EB0005CBEBE0000A018080404040818E040E06E
:100EC0001CE6FBFBFBEB0B0B0B0B0B0B0B0B0B6B76
:100ED000EB1B677F7E7CE0600000000000000000EC
:100EE0000000708F70FFFFFF702020F800000000EE
:100EF0000000000000000302040404020300001CC0
:100F0000233C3F3F3F1C00000000000000000000A9
:100F1000FF0000000000FF00000000C020101010C3
:100F200010101C131C3F1F1F1C101010101020C08D
:100F300000000000000000000000000000000000B1
:100F400000000000000000000000000000000000A1
:100F5000FF0000000000FF00000000FF0000000094
:100F6000000000000000000000000000000000FF82
:100F700000000000000000000000FF81FFFFFF00F4
:100F8000000000000000FF81FFFFFF0000000000E4
:100F9000FF8080808080FF00000080FFC040C0C0D4
:100FA000C0C0C0C0C0C0C0C0C0C0C0C0C0C0C0FF02
:100FB000800000000000000000030003030303039F
:100FC000000000000003000303030303000000030C
:100FD00003000303030303030003030300030303EA
:100FE00003030303030303030303030303030303D1
:100FF00003030000000000000000000000000000EB
:1010000000000000000000000000000000000000E0
:1010100000000000000000000000000000000000D0
:1010200000000000000000000000000000000000C0
:101030000000003E1000FC02FDFDCDCDFDBA020215
:10104000FD7D6D6D05E2FA9D0565ED6502C2FDADA4
:10105000AD05E21DFDE119FD05C2FD0DF9E139FD0A
:10106000FD0502FD7D6D6D0502F2FD0D0D0D1DFAF4
:10107000F408F007081717161616170B080B0B0BBA
:101080000B0B04040505050505020202020202011C
:101090000202020202020205050405050405050418
:1010A0000B0B0B0B0B081717171616160B0B04035D
:1010B000000108FF051855ABFFFFFF55AAFFFFFF12
:1010C00055AAFFFFFF0808FFFFFFFFFFFFFFFFFF1D
:1010D000FFFFFFFFFFFFFFFFFFC3FF99FFA5FFA576
:1010E000FF99FFC3FFFFFFFFFFE3FFDDFFBBFFBB78
:1010F000FFDDFFE3FFFFFFFFFF99FF81FFDBFFDB6A
:10110000FF81FF99FFFFFFFFFFC3FF9DFF8DFF855D
:10111000FF81FFC3FFFFFFFFFFC1FFB5FFA1FF85F9
:10112000FFADFF83FFFFFFFFFFE7FFC3FF89FF81E5
:10113000FFC3FFE7FFFFFFFFFFC3FFA5FFB5FFAD45
:10114000FFA5FFC3FFFFFFFFFF83FF99FFB5FFA5CB
:10115000FF9BFFC7FFFFFF3E0810387C0E0000001A
:101160000000000000000000C0FFDFDBDBDB01004F
:1011700080C0F07C6E63FFF00040E6CFCBF77302D7
:10118000000107FFF80C0703010000000000000049
:10119000000000703E1C0810387C0E00C0FF1F0FBE
:1011A0007CE0FE3F00387EE6C3C3C3677E1C00C000
:1011B000FF1F3BFBCF8E00C0FF0F3FFC701C87FF63
:1011C0001F0080C0F07C6E63FFF000C0FFDFC0C076
:1011D00000703E1C0810387C0E000000000000006B
:1011E00000000000C0FF3F1818D8FF8F00C0F07C3F
:1011F0006E63FFF000C0FF1F3BFBCF8E00C0FFCF30
:10120000C3C3E77E3C000000000000000000007047
:101210003E1C0800000000000000000000E0FE3F4F
:101220001B1B1F0E80C0F07C6E63FFFC0000007C67
:10123000FFC7C0C07C3F070040E6CFCBF37302C0BE
:10124000F8FFDFDBDB1B03000000000000000000F4
:10125000000308FFFFFF0000000001010100010181
:10126000010001000100010001070878FEC7C3E387
:101270007F1E0006E2FF07000080C4E6F3D3CF061E
:101280000064E6DBDBFF7630786CE6FF7F2060E011
:10129000CEDFDBFB7370F8DCDEDF7B7380C3E373D0
:1012A0001F0F0360F6DFDBFB7F0E40CCDFF3731F05
:1012B0000E03083F613F227F203D652721653F0FD8
:1012C000483E27653D3F653D0179073F653F2765FE
:1012D0003F4010FF0100000080C0E0E0E0E0E0E0FF
:1012E000E0E0E1E1E1E1E1E1E1E1E1E1E1E1E1E1F0
:1012F000F1F1F109050505050505050505050505D6
:10130000050505050505050505050505050505058D
:101310000505057F808080E0FFFFFFFFFFE39DE57F
:10132000858585858585858585858585858585856D
:101330008B8B8F90A0A0A0A0A0A0A0A0A0A0A0A0F8
:10134000A0A0A0A0A0A0A0A0A0A0A0A0A0A0A0A09D
:10135000A0A0A0050505050505050505050505056C
:10136000050505050505050505050505050505052D
:10137000050509F1D1D1A1A1A1A1A1A1A1A1A1A17D
:10138000A1A1A1A1A1A1A1A1A1A0A060C0800000D4
:101390000001FEA0A0A0A0A0A0A0A0A0A0A0A0A02E
:1013A000A0A0A0A0A0A0A0A0A0A0A0A0A0A0A0A03D
:1013B000A0A0908F8F8F878787878787878787876A
:1013C00087878787878787E7FFFFFFFFE09FE080AA
:1013D00080807F203055AA55FA05FAFBFAFB3A3B8C
:1013E0003A3B7AFBF6F5EA152A1D86FBFAFB3A3BF7
:1013F0003A3B3A3B3A55EA3FC1FEFFFF7F1F1C1CB8
:101400001C3CFEF7F7E3010000E0FFFFFF1F1C1C80
:101410001C1C1C040055AF50DF5FDF5FDC5CDC5C34
:10142000DC5EAF6FB75BA858B457B7D7B7D7B7D79D
:10143000B7D777596E55AA55AAD5EA552A353A95A0
:101440009ACD4A4526251213110909E4171C24C315
:1014500021110A040455AA7DDF1111FF02010100C8
:1014600000000080808040402020309FA0E0900F4E
:10147000102040808055AAD5ABD7ACDCB7D1B2D212
:10148000BED9A9D8AC54AA56AA55AB55AA55AA5547
:10149000AA56A958A8053A35DAEDF6757A3B3A3BD3
:1014A0003A7B76350A0D06FBFAFBBABBBABB3A05A6
:1014B0000A05FAFB3A00003F7FFFE1E0C0C0CCCE56
:1014C000FEFEFE0680407F7F7F73737373738080A0
:1014D000407F7F8F80556B556B56AD55AD55AD55E3
:1014E000AD56AAD5AA556B35ABF56B352B756A553C
:1014F000DB555B555A040404040A11E11A9566533E
:101500009249492422126D93111010202070AC23AF
:10151000202020202080808080F00E817807C03C31
:10152000030080804020209CA36498B0C080031CEE
:10153000E00000000058A858AB5EAA51A345897E80
:10154000C969A454B259A954AC56AA55AA55AA5C63
:10155000B0639CE000FBF60D1A15CAF53AFBFA3BA6
:101560000605E6FBFA7BFAFB063D6A35CAF57AFB0F
:10157000FAFB3A050A8F7F7EBC8F83607F7F0F0066
:1015800000F8FFFF03001FFFFEF07C1F0781FEFF36
:10159000FF070000E0555B555AD55A756B352B7621
:1015A000FDB52D556AD6AA55AD55AA56AA55ADD545
:1015B0006D54685477202020202023AC7020201008
:1015C0001011936D1222244949935265961BE11123
:1015D0000A0404040400000000E01C038040B098EA
:1015E00064A39C202040808000033CC00778810ECB
:1015F000F08080808000E09CE350AC56AB55AB5649
:10160000AA54AC59A952B464A949FE89C563B15A18
:10161000AE5BA858A885FAFBFA3B3A3B3A3B3A3B0B
:10162000060D0AC5FAFBFAFB3A3B3A3B7A7BF6F524
:10163000EAD52AD5AAFFFFFF1F1C1C1C1C1C040096
:101640000000F0FFFFFF7F01000000000000C1FF6D
:10165000FFFF3FC0BF577757B757B7D7B7D7B1D0FE
:10166000A05CDF5FDF5FDC5CDC5CDC5EAE6FB7572D
:10167000AB54AB55AA04040A1121C3241C17E40976
:10168000091112132625464DCA959A352A356AD571
:10169000AA55AA55AA80804020100F90E0A09F3044
:1016A0002020404080808000000000010102FF11E6
:1016B00011DFBA55AA58A859AE56AB55AA55AA5526
:1016C000AB56AA56AC54A859B95EB2D2B1D7ACD475
:1016D000AFD5AA55AA080B000202020100090400B6
:1016E000000102020000052400100105240101018F
:1016F00004240206052406000107058103100040AA
:1017000009040100020A000000070502024000006F
:10171000070583024000000403090412010002EFE0
:10172000020140412336800001010203014172643D
:1017300075696E6F204C4C430041726475626F791D
:1017400000F0F89C8E8783878E9CF8F00000FEFFE7
:101750000303030303070EFCF80000FEFF0303036B
:101760000303070EFCF80000FFFF0000000000006C
:1017700000FFFF0000FEFF8383838383C7EE7C3876
:101780000000F8FC0E07030303070EFCF800003FFF
:101790007FE0C08080C0E07F3FFFFF0101010101C9
:1017A0000101FFFF0000FFFF0C0C0C0C1C3E77E357
:1017B000C100007FFFC0C0C0C0C0E0703F1F00007C
:1017C0001F3F70E0C0C0C0E0703F1F00007FFFC13E
:1017D000C1C1C1C1E3773E1C00001F3F70E0C0C023
:1017E000C0E0703F1F000000000001FFFF0100008B
:1017F00000D5F08D14A1C881CFD9F1AF2000071515
:10180000BB14A014FB1885141F150A1683116F153D
:101810000C1D11241FBECFEFDAE0DEBFCDBF11E0FB
:10182000A0E0B1E0E6E7F1E402C005900D92A43338
:10183000B107D9F726E0A4E3B1E001C01D92AB3AAD
:10184000B207E1F71CE0C9E0DCE004C02197FE012B
:101850000E94B320C830D107C9F70E943E1D0C94E6
:10186000B9200C94000080910E0208956F927F922F
:101870008F929F92AF92BF92CF92DF92EF92FF92A0
:101880000F931F93CF93DF937C01B0E0A0E0FA01A8
:10189000802F90E0C590B590211511F49115B1F00D
:1018A00047E04B0D479546954695833009F4440F24
:1018B0004C9DA001249FE00DF11D259FF00D109679
:1018C00029F0949FA00DB11D959FB00D11248F3F5D
:1018D00021F4109682E009F081E0CC2DD0E0A70140
:1018E0004C0F5D1F141615060CF06FC090E8E9163A
:1018F000F1040CF06AC09B012B0D311D121613066A
:101900000CF063C0603471050CF05FC0309709F4CF
:101910005CC0362F37708B0177FF02C0095F1F4F05
:1019200093E0159507959A95E1F7202F77FF04C06E
:10193000332311F02FEF200F002711270E191F0955
:10194000F7FC02C010E000E090E89E194038510515
:101950000CF49C2D901B422F022E000C550BA42E34
:10196000A0942F3F0CF0A12CDD24D3946B2D677035
:1019700009F4D12CB694B694B694DB0C4D0D511DE0
:10198000493051051CF048E0D42ED21ADA182A0D3D
:1019900040E82403B00111246E0D7F1D600F711FFC
:1019A000CA9C000D111D1124AF01400F511FE32EE1
:1019B000032E000CFF08833009F410C1A8F4813015
:1019C00009F4C3C0823009F471C0DF91CF911F9137
:1019D0000F91FF90EF90DF90CF90BF90AF909F90CE
:1019E0008F907F906F9008958A3F91F1BD2CB20E39
:1019F0008B3F59F72B1549F3DB01A05CBD4F10E07D
:101A000000E0091708F09BC0FA01E00FF11FE49114
:101A1000F0E00E2C02C0EE0FFF1F0A94E2F727FD44
:101A200005C08C91DE2ED0948D218C93332361F0F0
:101A3000273054F46D0180E8C80ED11CAF2EA0945D
:101A4000F60180818A2180830F5F1F4F1196D9CFC5
:101A5000BD2CB20E2B1509F4B8CFDB01A05CBD4F35
:101A600010E000E0091708F064C0FA01E00FF11F70
:101A7000E491F0E04F010E2C02C0880C991C0A94EE
:101A8000E2F727FD03C08C9188298C93332351F012
:101A9000273044F46D0180E8C80ED11CF601808126
:101AA000892980830F5F1F4F1196DCCFAFEFB0E025
:101AB000032E02C0AA0FBB1F0A94E2F7A095B095AF
:101AC0009B2E8D2C820E281509F47FCF8B01005C94
:101AD0001D4FD12CC12CC91630F5FA01EC0DFD1D9E
:101AE000E491F0E03F010E2C02C0660C771C0A94D2
:101AF000E2F727FD05C0F80180818A2386298083CB
:101B0000332359F027304CF45801F0E8AF0EB11CE4
:101B1000F5018081892187298083FFEFCF1ADF0AB1
:101B20000F5F1F4FD8CF2F5F4C0F5D1F60587F4F47
:101B3000CACF2F5F4C0F5D1F60587F4F8BCF2F5F39
:101B40004C0F5D1F60587F4F55CFA00FB11F8D2DDB
:101B5000820F281709F439CF8B01005C1D4FD12C5F
:101B6000C12CC91698F5FD01EC0DFD1DA490B12CFA
:101B70000E2C02C0AA0CBB1C0A94E2F7A094B094ED
:101B8000FA01EC0DFD1D8490912C0E2C02C0880CE6
:101B9000991C0A94E2F727FD08C0F8017080E72D30
:101BA000EA217E2E7828F8017082332349F027300D
:101BB0003CF4F801E058FF4FA080BA20B928B08269
:101BC000FFEFCF1ADF0A0F5F1F4FCBCF2F5F4C0FF6
:101BD0005D1FAC0FBD1F60587F4FBBCFE92EF12CAE
:101BE000FA01E00FF11FDB01A05CBD4F00E810E03F
:101BF0000E191F09CE19DF09BE01660F771F41E0DC
:101C000050E07A01032E01C0EE0C0A94EAF7592F36
:101C10004D2D892E932ECF93DF93ED01EF96EF9606
:101C20002296A590C590992059F0AE9C5001CE9C6B
:101C3000600127302CF4F880D094FD20FB28F99225
:101C400022233AF0FC90C094FC20FA28FD920C94D8
:101C50002A0E11965A9529F74A9551F0582D239539
:101C60001124E60FF11DA00FB11DC00FD11DD9CF5A
:101C7000DF91CF911124A9CE9091A606982329F443
:101C80009091A506982381E009F480E0089590E002
:101C9000E0E4F2E091119FEF8FEF91939193919394
:101CA00091938150D0F70895E0E4F2E0A0E0B8E02D
:101CB00000800EBC8111012C1197A0FDFDCF019277
:101CC000B9F70DB40895FC0180913F02882311F10A
:101CD0003FB7F89482E08093E9002091F200822FD0
:101CE00090E01816190614F481E090E0882339F08A
:101CF000289844E640933E024091F100408322231D
:101D000039F02091F200211103C02BE62093E80066
:101D10003FBF08958FEF9FEF08952FB7F89483E0AA
:101D20008093E9009091E800892F807295FF04C0AC
:101D30009091F20080E4891B2FBF089580913602B4
:101D400081110DC082E08093320284E080933302DF
:101D5000109235021092340281E08093360282E3C1
:101D600092E0089508954091270250912802209111
:101D700025023091260242175307B4F49091E800EF
:101D80009570E1F39091E80092FD19C08093F10005
:101D9000809127029091280201968F739927892BB1
:101DA00019F48EEF8093E800809127029091280229
:101DB0000196909328028093270281E0089580E0A5
:101DC0000895DF92EF92FF920F931F93CF93DF93CB
:101DD000D82E8A01EB017B01E40EF51ECE15DF053E
:101DE00059F0D7FE12C0FE0184910E94B30E2196D5
:101DF0008111F4CF0FEF1FEFC801DF91CF911F9139
:101E00000F91FF90EF90DF9008958881EECF0F93B0
:101E10001F93CF93DF931F92CDB7DEB782E0898304
:101E200042E450E065ED76E180E80E94E10E0E9418
:101E30009E0EDC0112960D911C910115110589F081
:101E4000D801ED91FC910280F381E02DBE016F5F1E
:101E50007F4FC801099597FD04C0F80100851185E1
:101E6000ECCF89810F90DF91CF911F910F91089551
:101E7000615030F02091F100FC0120830196F8CFF1
:101E8000289884E680933E020895CF93DF931F92B3
:101E9000CDB7DEB76983DC01ED91FC910280F3815F
:101EA000E02D41E050E0BE016F5F7F4F09950F903C
:101EB000DF91CF91089583E08093E9008091F20053
:101EC000882319F08AE38093E80008950E948D0E1C
:101ED00090E00895CF93DF931F92CDB7DEB7FC015A
:101EE0008485958597FD08C02FEF3FEF35872487C0
:101EF0000F90DF91CF910895CE0101960E94630E5D
:101F0000019719F4898190E0F3CF8FEF9FEFF0CF25
:101F10000F931F93CF93DF931F92CDB7DEB78C0142
:101F2000FC018485958597FF0BC0CE0101960E9428
:101F3000630E019771F4898190E0F8019587848799
:101F4000F801848595850F90DF91CF911F910F91B6
:101F500008958FEF9FEFF1CFFC018485958597FD64
:101F60000BC09FB7F89482E08093E9008091F20063
:101F70009FBF90E0019608959FB7F89482E0809308
:101F8000E9008091F2009FBF90E00895FC010E945B
:101F90005D10319728F068517C4F8F4F9F4FF9CFDC
:101FA000AB01FC010E945D10641775078E079F0747
:101FB000C8F308958F929F92AF92BF92CF92DF9213
:101FC000EF92FF920F931F93CF93DF936C017B01EE
:101FD0008A0180910D01882309F45AC080913F0243
:101FE000882309F455C080912B0280FF05C08091A1
:101FF000E00082608093E000E801B12C8AEFA82E17
:1020000093E0892E2AE3922E209711F4BB20C9F188
:102010000E948D0E811108C0AA94AA20C9F181E006
:1020200090E00E94C60FF0CF8C171D0611F00CF047
:102030008C2F9FB7F8948092E9002091E80025FD4D
:1020400002C09FBFE1CF282F30E0C21BD30BF701A6
:10205000815020F041914093F100FACFE20EF31E3F
:10206000BB2021F09092E800B12CEBCF8091E800EA
:1020700085FDE7CF9092E800BB24B394209709F345
:10208000F3CF5D9884E680932A02101611063CF087
:1020900081E090E0F6019383828310E000E0C801C4
:1020A000DF91CF911F910F91FF90EF90DF90CF9034
:1020B000BF90AF909F908F900895A1E2B2E02FB7AC
:1020C000F8947D918D919C9166B52FBFA89B05C01A
:1020D0006F3F18F47F5F8F4F9F4F22E0660F771F8F
:1020E000881F991F2A95D1F70895AB01FC010E9422
:1020F0005D1041505109E109F10928F068517C4F08
:102100008F4F9F4FF6CFAB01FC010E945D1064170B
:1021100075078E079F07C8F3089520911602E09176
:102120001402F0911502CF0102969093150280934C
:102130001402222319F08591949108958081918150
:102140000895CF92DF92EF92FF92CF93DF930E9498
:102150008D10811520E8920791F4809171008D7F98
:102160008093710010929100469847981092130244
:10217000DF91CF91FF90EF90DF90CF90089521E015
:1021800020931302813020E8920751F480911102CC
:102190009091120290931502809314020E948D1068
:1021A00097FD05C020911002222309F454C020910C
:1021B0000F02211150C021E020931702EC01DF77BC
:1021C000209709F04BC081E08093180246983FE9C0
:1021D000C32E3FE0D32EE12CF12CCAEFD0E0E091EA
:1021E0009E06F0919F060995811103C081E08093BE
:1021F000180280911702882329F080911802882301
:1022000009F43FC047980E948D100097F1F19C019E
:10221000DE010E949020DC01CB0129E0B595A79555
:10222000979587952A95D1F7109290002AE02093F0
:102230009100D0929900C0929800809319029093D7
:102240001A02A0931B02B0931C028091710082605D
:10225000809371008DCF10921702B0CF9E0150E095
:1022600040E060E472E48FE090E00E943C2069016D
:102270007A0181E0C81AD108E108F1081092180229
:10228000AECF4699BFCF479ABECF8FEF9FEFDC010D
:10229000CBCF9C01E1E7F0E090819D7F908310928D
:1022A0001602E0E9F6E0F0931502E0931402F093D1
:1022B0001202E0931102318320837383628380E0F2
:1022C00090E8958384830C94A1100F9303E00E94FF
:1022D000360C0F9108950F930AEF0E94360C0F9160
:1022E00008952D9A08950C94C60F0E94701C0895AD
:1022F00010920E023E983F9808953E9A3F9A81E0D0
:1023000080930E0208950F931F93CF9310E000E087
:10231000C0E02C2F43ED53E170E060E0C8010E9463
:102320006B11CF5F005E1F4FC43099F720E041ED85
:1023300052E160E370E090E080E00E946B1121E0E8
:1023400041ED52E160E370E080E490E00E946B11A7
:1023500023E047E551E164E370E081E290E00E9410
:102360006B1188E00E943C0E882329F00E94470EE2
:1023700086E080933102CF911F910F9108956730CD
:102380007105E4F423E0880F991F2A95E1F7DB013A
:102390001196A80FB91FAA0FBB1FA558BE4FFC016D
:1023A000E60FF71FEE0FFF1FE558FE4F81E04D913E
:1023B0005C91208131814217530709F080E0089534
:1023C0007F928F929F92AF92BF92CF92DF92EF92C5
:1023D000FF920F931F93CF93DF9395E3C92E91E064
:1023E000D92E2BE7E22E21E0F22E10E000E0772438
:1023F0007394D0E0C0E0FE01EE0FFF1FEE0DFF1D55
:10240000808191819E012F5F3F4F5901892B39F1C6
:10241000BE01C8010E94BF11882309F1B501C8019E
:102420000E94BF118823D9F046018C0E9D1EF40135
:10243000708271827282BE016E5F7F4FC8010E94FE
:10244000BF11882361F0F4017382BE016D5F7F4F7D
:10245000C8010E94BF11882311F0F4017482E501C4
:10246000C830D10541F60F5F1F4FF8E0CF0ED11CE9
:1024700020E1E20EF11C0830110509F0BACFDF911E
:10248000CF911F910F91FF90EF90DF90CF90BF9071
:10249000AF909F908F907F900895873091050CF5B5
:1024A000DC01119623E0AA0FBB1F2A95E1F7A60FC6
:1024B000B71FAA0FBB1FA558BE4FFC0143E0EE0F8C
:1024C000FF1F4A95E1F7E60FF71FEE0FFF1FE558D4
:1024D000FE4F81E04D915C9120813181421753077D
:1024E00009F080E008953F924F925F926F927F9241
:1024F0008F929F92AF92BF92CF92DF92EF92FF9214
:102500000F931F93CF93DF9395E3A92E91E0B92EFC
:102510002BE7E22E21E0F22ECC24C394D12C10E044
:1025200000E033243394C7E0D0E0280182E0480E75
:10253000511C3801E3E06E0E711CFE01EE0FFF1F0F
:10254000EE0DFF1D80819181892B19F1BE01C8011B
:102550000E944D128823E9F0BE01C6010E944D126F
:102560008823B9F045018C0E9D1EF401308230861F
:10257000308ABE01C2010E944D12882351F0F4013D
:10258000308EBE01C3010E944D12882311F0F40168
:1025900030A2219790F60F5F1F4F88E0A80EB11C64
:1025A000EFEFCE1ADE0AF0E1EF0EF11C0830110554
:1025B00009F0B9CFDF91CF911F910F91FF90EF906C
:1025C000DF90CF90BF90AF909F908F907F906F9053
:1025D0005F904F903F900895CF92DF92EF92FF92DD
:1025E0000F931F93CF93DF9342E050E061E371E0DC
:1025F00080E496E00E94DA0F8BE7E82E81E0F82E67
:10260000D0E0C0E0670100E410E0F601208145EC75
:1026100050E1BE01C8010E946511F0E1CF0ED11C4E
:10262000085F1F4F0038110581F782E0E80EF11CAA
:102630002896C034D10531F7DF91CF911F910F91CA
:10264000FF90EF90DF90CF900895E5E3F1E01082E6
:102650001182128213821482158216821782389692
:1026600081E0E537F80799F70895DF92EF92FF923E
:102670000F931F93CF93DF93E090790180910A022B
:1026800090910B02A0910C02B0910D0220910502D5
:1026900030910602D0907A0165E371E0CBE7D1E09A
:1026A00050E040E08B01040F151FF801F080FF207F
:1026B000A1F08A01000F111F0C0F1D1FF8011182DC
:1026C00010820596A11DB11D2C5F3F4F29313105A8
:1026D00014F028E130E0D394EF2C4F5F5F4F483087
:1026E000510501F7685F7F4F6096F1E065377F071E
:1026F000B9F6E092790180930A0290930B02A093BD
:102700000C02B0930D023093060220930502D09282
:102710007A01EE2091F1409175015091760160911E
:10272000770170917801840F951FA61FB71F8093C2
:102730000A0290930B02A0930C02B0930D024C5925
:102740005F4F6F4F7F4F40937501509376016093B9
:1027500077017093780164E670E088EB91E00E9465
:10276000491164E670E080E090E00E94751068EC2A
:1027700070E087E194E00E94491110927901DF91A5
:10278000CF911F910F91FF90EF90DF900C94251344
:10279000CF92DF92EF92FF920F931F93CF93DF932D
:1027A0007C0110927A01DD24D39420917A0100916A
:1027B000FB011091FC016091FD017091FE01C09040
:1027C000FF01223008F050C0A801E3E0440F551F7C
:1027D000EA95E1F7FA01E60FF71FEE0FFF1FE55844
:1027E000FE4F80819181CD2433E0E316F10471F135
:1027F00034E0E316F104A1F1EB0132E0E316F10459
:1028000019F12197C40FD51FCC0FDD1FC558DE4F1E
:10281000488159815183408399838883C092FF0105
:102820001092750110927601109277011092780142
:102830002F5F20937A010E94E0110E9473120E9480
:102840003513D0920002B1CF2196DCCFE801219759
:1028500043E0CC0FDD1F4A95E1F7C60FD71FD4CF59
:102860000F5F1F4FE801F4CFEB0183E0CC0FDD1FBA
:102870008A95E1F7085F1F4F93E0000F111F9A95AB
:10288000E1F720E045EC50E1BE01C8010E9465116E
:1028900020E045EC50E1BE01C80108960E94651198
:1028A00020E045EC50E1BE01C80108970E94651187
:1028B000BE01685F7F4F20E045EC50E1C8010E94F7
:1028C0006511BE016850710920E045EC50E1C80176
:1028D0000E94651110927A01CC2071F069E170E0DC
:1028E0008AE491E0DF91CF911F910F91FF90EF90DB
:1028F000DF90CF900C944911DF91CF911F910F91F0
:10290000FF90EF90DF90CF90089520E043E350E1F7
:1029100060E170E081E290E00E946B1120E044E50C
:1029200054E060E270E085E290E00E946B118CE080
:102930000E943C0E882319F081E0809331020895B3
:1029400020E042E552E070E060E080E290E00E942A
:102950006B1121E042E552E060E270E080E290E03D
:102960000E946B118CE00E943C0E882319F081E0DC
:102970008093310208950F931F93CF9310E000E0EE
:10298000C0E02C2F43ED53E170E060E0C8010E94ED
:102990006B11CF5F005E1F4FC43099F7C0910001EB
:1029A0002EEF2C0F42EC54E060E370E090E080E00A
:1029B0000E946B1124E02C0F42EC54E060E370E0C5
:1029C00080E490E00E946B1180E40E943C0E88231A
:1029D00029F0C53018F4CF5FC093000180E20E9457
:1029E0003C0E882339F080910001833018F081502B
:1029F000809300018CE00E943C0E882321F080919E
:102A0000000180933102CF911F910F910895CF93D0
:102A1000C0913401CF5FC093340120E04CEA50E014
:102A200064E070E082E290E00E946B11C53B28F008
:102A30001092340181E080933102CF9108950F9379
:102A40001F93CF930E94470E10E000E0C0E02C2FB0
:102A500043ED53E170E060E0C8010E946B11CF5F6D
:102A6000005E1F4FC43099F7C0910E0224E02C0F76
:102A700042EC54E060E370E090E080E00E946B1173
:102A80002AE02C0F42EC54E060E370E080E490E038
:102A90000E946B1180E40E943C0E81110E947D1106
:102AA00080E20E943C0E81110E9478118CE00E940D
:102AB0003C0E882381F0C0910E0282E090E00E94DB
:102AC0002620C81729F06C2F82E090E00E942E206B
:102AD00081E080933102CF911F910F910895CF92A1
:102AE000DF92FF920F931F93CF93DF93CDB7DEB7A3
:102AF0002A970FB6F894DEBF0FBECDBFD12CC12CE4
:102B000010E0212F43ED53E170E060E0C6010E9428
:102B10006B111F5F80E2C80ED11C143091F720E0CA
:102B200041ED52E160E370E090E080E00E946B11C3
:102B300021E041ED52E160E370E080E490E00E942A
:102B40006B1160910A0270910B0280910C029091BE
:102B50000D022AE08E010F5F1F4FA8010E94E51FA2
:102B6000F80101900020E9F73197E01BF10BCE2E20
:102B700006E00E1BF12C002E000C110B8F2D90E0A7
:102B80008017910704F143E0000F111F4A95E1F708
:102B9000075D1F4FF12C0C2C000CDD088F2D90E0F1
:102BA0008C159D05FCF423E0880F991F2A95E1F709
:102BB00020E049E652E164E370E0800F911F0E943B
:102BC0006B11F394EBCF33E0880F991F3A95E1F73F
:102BD00020E049E652E164E370E089960E946B11BF
:102BE000F394CCCF8CE00E943C0E882329F00E9405
:102BF000470E81E0809331022A960FB6F894DEBF2B
:102C00000FBECDBFDF91CF911F910F91FF90DF904D
:102C1000CF9008958F929F92AF92BF92CF92DF9202
:102C2000EF92FF920F931F93CF93DF93CDB7DEB751
:102C30002A970FB6F894DEBF0FBECDBF8091A306D2
:102C40009091A4066DE270E00E949F20892B49F4C8
:102C5000809105029091060201979093060280935D
:102C60000502809105029091060297FF09C088E055
:102C70008093310264EF71E080E090E00E94751073
:102C80008091A3069091A40668E570E00E949F20C1
:102C9000892B89F481E0809309020E948D1F26E030
:102CA00030E040E050E00E943C2089E0689F602DC9
:102CB0001124609307028091A3069091A40683706B
:102CC0009927892BF1F48091040291E08927809360
:102CD0000402809108028F5F8D3008F0F1C080936C
:102CE0000802809103028F5F8C3008F0EEC0809361
:102CF0000302809102028F5F883108F0E9C080935F
:102D000002020E94EC12D0900402E090FD01F090CB
:102D1000FE0163E0EE0CFF1C6A95E1F70091FB01F8
:102D20001091FC01085F1F4F73E0000F111F7A958F
:102D3000E1F78091FF012D2D44EC5AE0B70181307D
:102D400009F4CFC0C8010E946511809105029091DD
:102D500006026DE370E0681B790B20E044EB50E164
:102D60008EE190E00E946B1120E041EB50E16EE3B8
:102D700070E08EE190E00E946B1120E043E350E1AF
:102D800070E060E081E090E00E946B1120E041E3A0
:102D90005EE06EE070E090E080E00E946B11F090E9
:102DA00003020F2D10E0F801EB5DF14F249141E596
:102DB0005DE06CE270E088E090E00E946B112F2DE6
:102DC00047E85BE06CE270E089E290E00E946B1102
:102DD000F801E558F44F249149E65BE061E270E0C8
:102DE00084E090E00E946B11E0910202F0E0EF5A63
:102DF000F44F24918091010240E15BE066E370E0D2
:102E00003CE0839FC00111240E946B11F801EC5F2C
:102E1000F44F249146EE5AE06DE070E081E090E0DE
:102E20000E946B1160910A0270910B0280910C025A
:102E300090910D022AE0AE014F5F5F4F7A010E9430
:102E4000E51FF70101900020E9F73197EE19FF091E
:102E5000AE2E06E00E1B10E0802E002E000C99080E
:102E600059E0D52E181519040CF457C059E0050285
:102E700080011124055F1F4FD12C0A2C000CBB08C8
:102E800049E0C42E8D2D90E08A159B050CF054C0AE
:102E90008E0D9F1DFC01208121330CF44BC020536B
:102EA0002A3008F047C041EB52E161E170E0C8010F
:102EB000DC9C800D911D11240E946B11D394E2CFF4
:102EC00010920802109209020CCF1092030211CF47
:102ED000109202028091010291E089278093010201
:102EE00010CFC80108970E9465112D2D44EC5AE0BF
:102EF000B701C80108960E946511B70168507109B1
:102F00002D2D44EC5AE0C8010E946511B701685F9D
:102F10007F4F2D2D44EC5AE015CF1D9DC00111248B
:102F200020E041EB52E161E170E00B960E946B11F1
:102F30001F5F98CF20E0B7CF80910902882389F0E6
:102F4000E0910802F0E0E75AFD4E249180910702DB
:102F500090E00BEF41E552E161E170E00B960E94D9
:102F6000360C0E94E0110E9473120E94351381E01A
:102F70008093000299249394809100028823D1F1D8
:102F8000109200022BE7A22E21E0B22E30E4E32EB5
:102F9000F12C850198E3C92ED12CF80186859785FF
:102FA000892BB9F484859585009799F09787868752
:102FB000158614860E94EC12F801268545EC50E136
:102FC000B601C7010E94651180E00E94540E9092E4
:102FD000000202501109F8E0CF1AD108F1F638E0EA
:102FE000E30EF11C40E1A40EB11C50E8E516F1041B
:102FF00081F6C2CF8BE7A82E81E0B82E00E410E066
:10300000F50180819181892B21F5C0900101D12C9E
:10301000F5E0CF0ED11C0D2C000CEE08FF0831E0BE
:10302000C31AD108E108F1080E948D1FA70196017B
:103030000E943C206F5F7F4F8F4F9F4FF501718340
:10304000608320E045EC50E170E060E0C8010E9440
:103050006511F0E1AF0EB11C085F1F4F003811057C
:1030600079F680E80E943C0E882381F08091FF0170
:1030700081110CC08091FD019091FE011816190676
:103080002CF401979093FE018093FD0180E10E9452
:103090003C0E882381F08091FF0181110CC080914A
:1030A000FD019091FE01873091052CF401969093DB
:1030B000FE018093FD0180E20E943C0E882381F096
:1030C0008091FF0181110CC08091FB019091FC0166
:1030D000181619062CF401979093FC018093FB01BC
:1030E00080E40E943C0E882381F08091FF018111D1
:1030F0000CC08091FB019091FC01873091052CF46C
:1031000001969093FC018093FB0180E80E943C0EA5
:10311000882379F08091FF01882359F08091FD0187
:103120009091FE011816190624F481E090E00E94A7
:10313000C81380E10E943C0E882371F08091FF014A
:10314000882351F08091FD019091FE01079724F4AE
:1031500082E090E00E94C81380E20E943C0E882327
:1031600079F08091FF01882359F08091FB019091C3
:10317000FC011816190624F483E090E00E94C8139D
:1031800080E40E943C0E882371F08091FF01882327
:1031900051F08091FB019091FC01079724F484E0A9
:1031A00090E00E94C81384E00E943C0E882331F016
:1031B0008091FF0191E089278093FF0188E00E94C0
:1031C0003C0E882329F00E94470E87E0809331024D
:1031D0002A960FB6F894DEBF0FBECDBFDF91CF9118
:1031E0001F910F91FF90EF90DF90CF90BF90AF9025
:1031F0009F908F900895AF92BF92CF92DF92EF92FF
:10320000FF920F931F93CF93DF930E94470E10926C
:103210000A0210920B0210920C0210920D02CBE7E0
:10322000D1E010E000E0C0900101D12C85E0C80E93
:10323000D11C0D2C000CEE08FF08E1E0CE1AD108DD
:10324000E108F1080E948D1F5801AA0CBB1CAC0EAE
:10325000BD1EA70196010E943C206F5F7F4F8F4FDC
:103260009F4FF501718360830F5F1F4F0830110579
:10327000D1F66096F1E0CB3FDF0799F60E94251367
:103280001092FF0184E090E09093FC018093FB0199
:103290009093FE018093FD0188E190E090930602F7
:1032A0008093050210927A0181E0809300021092CF
:1032B000790110E000E0C0E02C2F43ED53E170E015
:1032C00060E0C8010E946B11CF5F005E1F4FC430E9
:1032D00099F720E041ED52E160E370E090E080E09A
:1032E0000E946B1121E041ED52E160E370E080E467
:1032F00090E00E946B11C09101012FEF2C0F47E568
:1033000051E164E370E081E290E00E946B1180E49F
:103310000E943C0E811121C080E20E943C0E882355
:1033200039F080910101823018F0815080930101C1
:103330008CE00E943C0E882329F00E94470E86E014
:1033400080933102DF91CF911F910F91FF90EF9009
:10335000DF90CF90BF90AF900895C330E8F6CF5F75
:10336000C0930101D9CF1F920F920FB60F92112473
:103370008F939F938091E1009091E100937F9093D0
:10338000E10083FF0FC01092E90091E09093EB0001
:103390001092EC0092E39093ED0010923F0298E0BF
:1033A0009093F00082FF22C093E09093E900909107
:1033B000F200992319F09AE39093E80090912A0281
:1033C000992341F090912A02915090932A029111F1
:1033D00001C05D9A90913E02992341F090913E0286
:1033E000915090933E02911101C0289A84FF18C019
:1033F0008091E2008E7E81608093E2008091E10006
:103400008F7E8093E10080912B028E7E806180937D
:103410002B029F918F910F900FBE0F901F901895C8
:1034200080FFF7CF8091E2008E7E80618093E20082
:103430008091E1008E7E8093E10080912B028E7E50
:103440008160E5CF1F920F920FB60F921124CF9299
:10345000DF92EF92FF920F931F932F933F934F931F
:103460005F936F937F938F939F93AF93BF93EF93EC
:10347000FF93CF93DF93CDB7DEB76C97DEBFCDBFA1
:103480001092E9008091E80083FF25C068E0CE013A
:1034900045960E94380F82EF8093E8008D8987FF60
:1034A00039C09091E80090FFFCCF982F907609F0FA
:1034B00034C19E894F89588D2F89F88C911131C064
:1034C000803861F580912C028093F1001092F10018
:1034D0008EEF8093E8006C960FB6F894DEBF0FBEB7
:1034E000CDBFDF91CF91FF91EF91BF91AF919F91B0
:1034F0008F917F916F915F914F913F912F911F918C
:103500000F91FF90EF90DF90CF900F900FBE0F9034
:103510001F9018959EEF9093E800C7CF1092F1008E
:10352000D5CF913059F48111D3CF4130510581F677
:1035300080912C028D7F80932C02CACF933049F466
:103540008111C6CF4130510519F680912C0282605D
:10355000F2CF953041F48091E80080FFFCCF2068E5
:103560002093E300B5CF963009F0A9C00B8D1C8DD8
:1035700022E01092E9001092280210922702F21223
:103580002EC010922602109225020E94070F1F8261
:1035900099E09983FA8291E09E8390EA98879AEF66
:1035A00099872091270230912802275F3F4F3C8363
:1035B0002B838D831092E90010922802109227022B
:1035C000109326020093250249E050E0BE016F5F90
:1035D0007F4F80E00E94E10E0E94070F79CF109389
:1035E0002602009325020E949E0EDC0112960D9188
:1035F0001C910115110509F410C1D801ED91FC9140
:103600000480F581E02DBE016B5E7F4FC8010995F6
:10361000009709F0FDC0F80100851185EACFF3E0BD
:10362000FF120EC08F89882309F440C0823061F4F4
:1036300040E867E089E397E10E94D91C811148CFF7
:1036400081E28093EB0047CF813029F440E86BE0C2
:103650008DE297E1F1CF833099F70E949E0EDC0155
:103660001296ED90FC908E010F5F1F4F6801E114E0
:10367000F10479F0D701ED91FC910680F781E02DFE
:10368000B801C7010995080F111DF701E084F18405
:10369000EECFD8011C92F60101900020E9F7319796
:1036A000BF016C197D0940E0C601C6CF67E177E133
:1036B000FB01449150E080E80E94E10E09CF973071
:1036C00009F4BECF983021F481E08093F10000CF5F
:1036D000993009F0FDCE837009F0B2CFE3E1F1E05B
:1036E00081E031E096E32191222371F08093E9009B
:1036F0003093EB00DF0111972C912093EC00909315
:10370000ED008F5F873079F78EE78093EA001092A3
:10371000EA008F8980933F02DBCE8B8D9C8D1092C7
:10372000E9001092280210922702909326028093BB
:103730002502898D811151C08E899D89913A49F464
:10374000813209F07DCF47E050E066E071E080E033
:10375000B3CF913209F074CF833269F48F89988D99
:10376000B0E0A0E08093020190930301A0930401D4
:10377000B0930501ADCE803269F48091E80082FFFC
:10378000FCCF67E086E091E00E94380F8BEF8093DA
:10379000E8009ECE823209F09BCE8F8980930D0186
:1037A0008091060190910701A0910801B091090153
:1037B000803B9440A105B10569F480910D0180FD25
:1037C00009C088E780932902809164008F7D8093EF
:1037D00064007ECE109229027BCE0E949E0EDC01F8
:1037E00012960D911C910115110509F429CFD801EC
:1037F000ED91FC910190F081E02DBE016B5E7F4F59
:10380000C8010995811164CEF80100851185EBCFBF
:10381000181619060CF45CCE13CFF1E0FF12FFCEA0
:103820006BE177E145CF0F930FB70F931F921124F0
:103830008F939F93EF93FF93EDE2F2E0809120024C
:1038400091E08D5F8D3710F08D5793958093200216
:103850008081890F80839181911D91830281011D57
:1038600002838381811D838309270F7009270295B5
:1038700000931F0235D0811100931D02803989F415
:1038800000911E02901B963070F087E7809300082D
:103890008093010888E198E0809360009093600035
:1038A000FFCF90931E0280912902815018F08093DF
:1038B000290259F3E1E2F2E080819181019680834F
:1038C000918382819381811D911D82839383FF91D6
:1038D000EF919F918F911F900F910FBF0F911895AE
:1038E0008FB18095807F669B88601C9B8460089563
:1038F0001F920F920FB60F9211242F933F934F9365
:103900005F936F937F938F939F93AF93BF93EF9347
:10391000FF938091190290911A02A0911B02B0911D
:103920001C02892B8A2B8B2B09F440C08091180232
:1039300081110BC088B190E4892788B98091170262
:10394000882319F088B1805888B980911902909124
:103950001A02A0911B02B0911C02181619061A0631
:103960001B069CF48091190290911A02A0911B02EF
:10397000B0911C020197A109B1098093190290939B
:103980001A02A0931B02B0931C02FF91EF91BF910A
:10399000AF919F918F917F916F915F914F913F91E7
:1039A0002F910F900FBE0F901F9018950E94A1109D
:1039B000ECCFEF92FF920F931F93CF93DF93F82EEC
:1039C000192FE62E042F81E0860F880F0E94B30E78
:1039D00083E00E94B30ECF2DD12FEC0EFD2EF11CF3
:1039E000CE15DF05B9F007FF13C0FE0184910E94D8
:1039F000B30E182F80E00E94B30E8123219681110F
:103A0000EFCFDF91CF911F910F91FF90EF9008952D
:103A10008881EDCF81E0F5CFE0E4F6E013821282F9
:103A200088EE93E0A0E0B0E084839583A683B7831B
:103A30008DE191E0918380838FEF9FEF958784875D
:103A4000E0EAF6E08FE291E09183808315821682AE
:103A500080E1878314821382118683E39CE0909334
:103A60009F0680939E0680E090E890939D06809349
:103A70009C0646983E9A47983F9A0895789483E02A
:103A800084BD83E085BD81E080936E00E1E8F0E0D5
:103A900083E08083E0E881E08083E1E983E0808364
:103AA000E0E981E08083E1EC87E08083E3EC81E082
:103AB0008083E0EC82E08083E2EC81E08083EAE7CF
:103AC00087E080838068808310923F0210922C02EE
:103AD00010922B028091D70081608093D70080EAFA
:103AE0008093D80089B5806189BD89B5826089BD20
:103AF00009B400FEFDCF81E090E00E94C60F8091E6
:103B0000D8008F7C80618093D8008091E000807F16
:103B10008093E0008091E1008E7E8093E1008DE053
:103B20008093E200559A209A81EC80937C0081EF8B
:103B300085B987EE84B984E38BB984EF8AB9769A24
:103B40006E9880EF81BB10BA80E58CBD81E08DBDA1
:103B500085E090E00E9473115F9902C05F9AF8CFF0
:103B60005C98E1EFF7E19DE085918EBD00000DB41A
:103B700007FEFDCF8EB59A95B9F75C9A81E88093E0
:103B8000640081E0809365000E94540E0E947511CC
:103B900087FF11C05C9885EA8EBD00000DB407FE5A
:103BA000FDCF8EB55C9A2E982F982D9881E083BF1B
:103BB000889513BEFCCF0E94751182FF48C02D98D6
:103BC0000E94751184788438E1F40E94711188ECA8
:103BD00090E00E9473112F9882E090E00E942620CE
:103BE0008F3F29F06FEF82E090E00E942E2084EF5B
:103BF00091E00E9473112F9A0E9475118478843885
:103C0000D9F30E94751184718431E1F40E9471111D
:103C100088EC90E00E9473112E9882E090E00E9460
:103C20002620882329F060E082E090E00E942E2088
:103C300084EF91E00E9473112E9A0E947511847195
:103C40008431D9F388EC90E00E947311B4CF0E94C4
:103C5000711182E090E00E942620882309F46EC052
:103C60000E947D1181E090E00E942620182F1470A0
:103C700081E090E00E94262081FF0CC011112E9857
:103C8000C0EFDFEF0E94751186FF5BC02E9A2F9A5E
:103C90000E94711182E390E00E9473110E947511DD
:103CA0008111F8CF80E18093A706809164008E7F18
:103CB0008093640080917A00806480937A00809180
:103CC0007A0086FDFCCFC0917800D09179000E94E7
:103CD0005D10AB01BC01CE01B0E0A0E0DC01992792
:103CE00088278C019D01040F151F261F371FC9014E
:103CF000B801209164002160209364006115710572
:103D00008105910511F00E94DC1F11E0C0E0D0E0B8
:103D100001E090912D028091A806292F281B822F67
:103D20002091A906222309F47AC08093AA06109252
:103D3000A906209771F30E940000EBCF0E94781132
:103D400091CF112329F0C430D10511F42E9A2F9868
:103D500081E00E94540E0C2F0770A02EAE0133E0BC
:103D6000559547953A95E1F7CA019695982F88277A
:103D700097958795805C9D4F70E060E04E3F2FEFF8
:103D8000520769F130E020E0DB01AF5BB84E7C0107
:103D9000E0E8EE0EF11CFD01E20FF31FE491F0E00C
:103DA0004F010A2C02C0880C991C0A94E2F74F3F7D
:103DB000540739F06C01C20ED31EF601B488B8283E
:103DC000B48AAA2039F06701C20ED31EF601048915
:103DD0000929048B2F5F3F4F28353105E1F64F5FEE
:103DE0005F4F80589F4F685A7F4F603B710531F697
:103DF00080E00E94540E8FE090E00E9473112196A3
:103E0000C931D10509F03ECF112311F02F9A2D9819
:103E100080E991E00E9473110E9471113BCF2091C3
:103E2000A706821740F48F5F821708F082CF13BF76
:103E3000889513BE7ECF0093A9069093A806809123
:103E4000A3069091A40601969093A4068093A306DE
:103E50008091A5068093A6060E9475118093A50601
:103E60000E94470EE0913102F0E0EE0FFF1FE2509A
:103E7000F84E85919491FC01099580E00E94540EC2
:103E800058CF8F929F92AF92BF92CF92DF92EF92D4
:103E9000FF92CF93DF93EC01688179818A819B81C6
:103EA000611571058105910521F464E279ED8BE5D9
:103EB00097E02DE133EF41E050E00E943C204901C2
:103EC0005A019B01AC01A7EAB1E40E945B206B019F
:103ED0007C01ACEEB4EFA50194010E946920C60EEE
:103EE000D71EE81EF91EF7FE06C081E0C81AD108E9
:103EF000E10880E8F80AC882D982EA82FB82C70119
:103F0000B6019F77DF91CF91FF90EF90DF90CF9038
:103F1000BF90AF909F908F9008958F929F92AF9295
:103F2000BF92CF92DF92EF92FF9260910E0170915B
:103F30000F018091100190911101611571058105AA
:103F4000910521F464E279ED8BE597E02DE133EF03
:103F500041E050E00E943C2049015A019B01AC0124
:103F6000A7EAB1E40E945B206B017C01ACEEB4EFE8
:103F7000A50194010E946920C60ED71EE81EF91EF5
:103F8000F7FE06C081E0C81AD108E10880E8F80A07
:103F9000C0920E01D0920F01E0921001F092110137
:103FA000C701B6019F77FF90EF90DF90CF90BF9051
:103FB000AF909F908F90089560930E0170930F01C2
:103FC00080931001909311010895BB272A3051F47A
:103FD000992342F4BDE290958095709561957F4F4D
:103FE0008F4F9F4F0C94F51FBB27FA01A62F621726
:103FF000710581059105330B30FB66F0AA27660F2A
:10400000771F881F991FAA1FA21710F0A21B639584
:104010003850A9F7A05DAA3308F0A95DA19336F73F
:10402000B111B1931082CA010C941620DC01FC017D
:10403000672F71917723E1F7329704C07C916D93DC
:1040400070836291AE17BF07C8F30895F999FECF48
:1040500092BD81BDF89A992780B50895262FF999C8
:10406000FECF1FBA92BD81BD20BD0FB6F894FA9A5B
:10407000F99A0FBE01960895052E97FB1EF4009441
:104080000E94532057FD07D00E946E2007FC03D0EA
:104090004EF40C94532050954095309521953F4F08
:1040A0004F4F5F4F089590958095709561957F4F24
:1040B0008F4F9F4F08950E949020A59F900DB49F11
:1040C000900DA49F800D911D11240895B7FF0C94AD
:1040D0005B200E945B20821B930B0895A1E21A2EA5
:1040E000AA1BBB1BFD010DC0AA1FBB1FEE1FFF1F9C
:1040F000A217B307E407F50720F0A21BB30BE40BEC
:10410000F50B661F771F881F991F1A9469F7609532
:104110007095809590959B01AC01BD01CF010895EC
:10412000A29FB001B39FC001A39F700D811D1124F8
:10413000911DB29F700D811D1124911D0895AA1B20
:10414000BB1B51E107C0AA1FBB1FA617B70710F082
:10415000A61BB70B881F991F5A95A9F780959095B4
:10416000BC01CD010895EE0FFF1F0590F491E02DE5
:104170000994F894FFCF0301FFFFFFFF00E1000067
:10418000000000000100000000C18081000000006C
:10419000000000450FDA0F660F5B0FAC0F6A0F8847
:1041A0000F00000000B20E0D0A00FFFFFFFFFFFF2F
:1041B000FFFFFFFFFFFFFFFFFFFFFFFFFFFFFFFF0F
:1041C000FFFFFFFFFFFFFFFFFFFFFFFFFFFFFFFFFF
:1041D000FFFFFFFFFFFFFFFFFFFFFFFFFFFFFFFFEF
:1041E000FFFFFFFFFFFFFFFFFFFFFFFFFFFFFFFFDF
:1041F000FFFFFFFFFFFFFFFFFFFFFFFFFFFFFFFFCF