:100000000C94B5030C94DD030C94DD030C94DD0318
:100010000C94DD030C94DD030C94DD030C94DD03E0
:100020000C94DD030C94DD030C94D20E0C94410F60
:100030000C94DD030C94DD030C94DD030C94DD03C0
:100040000C94DD030C94DD030C94DD030C94DD03B0
:100050000C94DD030C94DD030C94DD030C947311FC
:100060000C94DD030C94DD030C94DD030C94DD0390
:100070000C94DD030C94DD030C94DD030C94DD0380
:100080000C94DD030C94DD030C94DD030C94DD0370
:100090000C94DD030C94DD030C94DD030C94DD0360
:1000A0000C94DD030C94DD030C94DD0347414D45B6
:1000B000204F564552004E5554530044414D4D4932
:1000C000540044455354524F5945440057415354EA
:1000D0004544004241442054494D4553004F482077
:1000E0004E4F004F55434800464F4F42494553003D
:1000F000575245434B454400424144204C55434BE5
:10010000002020486F740047726F6F767900204698
:1001100069726500536D6F6F746800205375706568
:100120007200536E617A7A7900546967687400537B
:1001300077656C6C004772616E64005072696D6522
:1001400000536F6C6964005374726F6E67002020F7
:1001500042696700204875676500476E61726C7977
:1001600000204E6561740044656C75786500202040
:10017000416365005769636B656400205369636B75
:1001800000202052616400477265617400537765F6
:1001900065740020436F6F6C0020476F6F64002010
:1001A0004E6963650000000000003E5B4F5B3E3E11
:1001B0006B4F6B3E1C3E7C3E1C183C7E3C181C5713
:1001C0007D571C1C5E7F5E1C00183C1800FFE7C3B7
:1001D000E7FF0018241800FFE7DBE7FF30483A0686
:1001E0000E2629792926407F050507407F05253FF2
:1001F0005A3CE73C5A7F3E1C1C08081C1C3E7F14DE
:10020000227F22145F5F005F5F06097F017F006627
:1002100089956A606060606094A2FFA29408047E81
:10022000040810207E201008082A1C08081C2A0830
:10023000081E101010100C1E0C1E0C30383E3830EA
:10024000060E3E0E06000000000000005F000000E9
:1002500007000700147F147F14242A7F2A12231317
:1002600008646236495620500008070300001C222B
:1002700041000041221C002A1C7F1C2A08083E085D
:10028000080080703000080808080800006060005E
:1002900020100804023E5149453E00427F40007252
:1002A000494949462141494D331814127F102745C9
:1002B0004545393C4A4949314121110907364949E7
:1002C0004936464949291E00001400000040340008
:1002D00000000814224114141414140041221408BC
:1002E00002015909063E415D594E7C1211127C7F74
:1002F000494949363E414141227F4141413E7F4982
:100300004949417F090909013E414151737F08086C
:10031000087F00417F41002040413F017F081422B7
:10032000417F404040407F021C027F7F0408107FD5
:100330003E4141413E7F090909063E4151215E7F10
:1003400009192946264949493203017F01033F40E3
:1003500040403F1F2040201F3F4038403F6314086B
:10036000146303047804036159494D43007F4141FC
:10037000410204081020004141417F0402010204AF
:100380004040404040000307080020545478407F1C
:10039000284444383844444428384444287F385456
:1003A00054541800087E090218A4A49C787F0804FD
:1003B000047800447D40002040403D007F102844E8
:1003C0000000417F40007C047804787C08040478B5
:1003D0003844444438FC1824241818242418FC7C7D
:1003E00008040408485454542404043F44243C4062
:1003F00040207C1C2040201C3C4030403C442810C5
:1004000028444C9090907C4464544C4400083641FD
:1004100000000077000000413608000201020402DB
:100420003C2623263C1EA1A161123A4040207A3886
:1004300054545559215555794121545478412155E9
:1004400054784020545579400C1E5272123955553B
:100450005559395454545939555454580000457C11
:10046000410002457D420001457C40F0292429F0ED
:10047000F0282528F07C545545002054547C547CA9
:100480000A097F4932494949323248484832324A9A
:100490004848303A4141217A3A42402078009DA0B4
:1004A000A07D39444444393D4040403D3C24FF2434
:1004B00024487E4943662B2FFC2F2BFF0929F62069
:1004C000C0887E090320545479410000447D4130A6
:1004D00048484A32384040227A007A0A0A727D0D32
:1004E00019317D2629292F28262929292630484DEA
:1004F0004020380808080808080808382F10C8AC39
:10050000BA2F102834FA00007B000008142A1422A5
:1005100022142A14089500220095AA005500AAAAC0
:1005200055AA55AA000000FF00101010FF00141477
:1005300014FF001010FF00FF1010F010F01414143E
:10054000FC001414F700FF0000FF00FF1414F40473
:10055000FC141417101F10101F101F1414141F0068
:10056000101010F0000000001F101010101F1010CD
:100570001010F010000000FF1010101010101010DC
:1005800010FF10000000FF140000FF00FF00001F1C
:1005900010170000FC04F414141710171414F404BA
:1005A000F40000FF00F714141414141414F700F7E7
:1005B000141414171410101F101F141414F4141012
:1005C00010F010F000001F101F0000001F140000AA
:1005D00000FC140000F010F01010FF10FF141414B1
:1005E000FF141010101F00000000F010FFFFFFFFAD
:1005F000FFF0F0F0F0F0FFFFFF0000000000FFFF51
:100600000F0F0F0F0F38444438447C2A2A3E147EC3
:1006100002020606027E027E0263554941633844A7
:10062000443C04407E201E2006027E020299A5E77B
:10063000A5991C2A492A1C4C7201724C304A4D4D16
:10064000303048784830BC625A463D3E49494900FE
:100650007E0101017E2A2A2A2A2A44445F4444401A
:10066000514A444040444A51400000FF0103E080A9
:10067000FF000008086B6B083612362436060F0997
:100680000F06000018180000001010003040FF0195
:1006900001001F01011E00191D1712003C3C3C3CCB
:1006A0000000000000D5F08D14A1C881CFD9F1AFB2
:1006B0002000F800F000E800E300DD00D300CC00EB
:1006C000C200BB00B600AC009F01990193018D01EF
:1006D000870181017B0174016E01670161015A018B
:1006E00054014E01470141013B0135012F01290110
:1006F00022011B0114010E0107010101080B000278
:1007000002020000090400000102020000052400AA
:10071000100105240101010424020605240600013C
:100720000705810310004009040100020A000000CF
:100730000705020240000007058302400000040391
:10074000090412010002EF0201404123368000013A
:100750000102030141726475696E6F204C4C4300C5
:1007600041726475626F7900011211241FBECFEFD0
:10077000DAE0DEBFCDBF11E0A0E0B1E0E6EAF9E3E8
:1007800002C005900D92A834B107D9F729E0A8E47A
:10079000B1E001C01D92AC36B207E1F713E0C5EB42
:1007A000D3E004C02197FE010E94C61CC43BD107C0
:1007B000C9F70E9463120C94D11C0C940000EDEB5D
:1007C000F1E080E0A0E0B8E000800EBC8111012CD7
:1007D0001197A0FDFDCF0192B9F70DB4089580E007
:1007E000EDEBF1E081118FEF0024819381938193F0
:1007F00081930394D1F70895480F592F511D141672
:10080000150684F5803891056CF597FF02C090E0DD
:1008100080E04138510514F040E850E0481BFB01EE
:10082000E770FF2721E001C0220FEA95EAF777FF82
:1008300002C0695F7F4FFB0133E0F595E7953A957C
:10084000E1F7F695FE2FEE27F795E795E80FF91FEC
:10085000E354FE4F415030F08191DF011197822B1C
:100860008C93F8CF089590915F09982329F4909183
:100870005E09982381E009F480E00895FC018091ED
:10088000BC01882311F13FB7F89482E08093E9001E
:100890002091F200822F90E01816190614F481E0DE
:1008A00090E0882339F0289844E64093BB014091BA
:1008B000F1004083222339F02091F200211103C07E
:1008C0002BE62093E8003FBF08958FEF9FEF089538
:1008D0002FB7F89483E08093E9009091E800892F86
:1008E000807295FF04C09091F20080E4891B2FBFB5
:1008F00008958091B30181110DC082E08093AF0112
:1009000084E08093B0011092B2011092B10181E0B5
:100910008093B3018FEA91E00895CF93DF931F9204
:10092000CDB7DEB76983DC01ED91FC910280F381E4
:10093000E02D41E050E0BE016F5F7F4F09950F90C1
:10094000DF91CF91089583E08093E9008091F200D8
:10095000882319F08AE38093E80008950E946804D0
:1009600090E00895CF93DF931F92CDB7DEB7FC01DF
:100970008485958597FD08C02FEF3FEF3587248745
:100980000F90DF91CF910895CE0101960E943E0411
:10099000019719F4898190E0F3CF8FEF9FEFF0CFAB
:1009A0000F931F93CF93DF931F92CDB7DEB78C01C8
:1009B000FC018485958597FF0BC0CE0101960E94AE
:1009C0003E04019771F4898190E0F801958784874E
:1009D000F801848595850F90DF91CF911F910F913C
:1009E00008958FEF9FEFF1CFFC018485958597FDEA
:1009F0000BC09FB7F89482E08093E9008091F200E9
:100A00009FBF90E0019608959FB7F89482E080938D
:100A1000E9008091F2009FBF90E008954091A90104
:100A20005091AA012091A7013091A80142175307C4
:100A3000B4F49091E8009570E1F39091E80092FD94
:100A400019C08093F1008091A9019091AA010196AB
:100A50008F739927892B19F48EEF8093E80080918A
:100A6000A9019091AA0101969093AA018093A901EE
:100A700081E0089580E00895EF92FF920F931F9315
:100A8000CF93DF93F82E192FE62E042F81E0860FE7
:100A9000880F0E940E0583E00E940E05CF2DD12FF6
:100AA000EC0EFD2EF11CCE15DF05B9F007FF13C0CB
:100AB000FE0184910E940E05182F80E00E940E0511
:100AC000812321968111EFCFDF91CF911F910F915B
:100AD000FF90EF9008958881EDCF81E0F5CFDF9210
:100AE000EF92FF920F931F93CF93DF93D82E8A013B
:100AF000EB017B01E40EF51ECE15DF0559F0D7FEA4
:100B000012C0FE0184910E940E0521968111F4CF3E
:100B10000FEF1FEFC801DF91CF911F910F91FF9051
:100B2000EF90DF9008958881EECF0F931F93CF93BE
:100B3000DF931F92CDB7DEB782E0898342E450E0B5
:100B40006CEF76E080E80E946F050E947904DC017A
:100B500012960D911C910115110589F0D801ED91A6
:100B6000FC910280F381E02DBE016F5F7F4FC801D1
:100B7000099597FD04C0F80100851185ECCF8981A6
:100B80000F90DF91CF911F910F910895615030F038
:100B90002091F100FC0120830196F8CF289884E68B
:100BA0008093BB010895AF92BF92CF92DF92EF92F4
:100BB000FF920F931F93CF93DF936C017B018B0107
:100BC000040F151FEB015E01AE18BF08C017D10757
:100BD00059F06991D601ED91FC910190F081E02DE1
:100BE000C6010995892B79F7C501DF91CF911F9136
:100BF0000F91FF90EF90DF90CF90BF90AF9008954E
:100C00003FB7F89480914E0190914F01A09150010F
:100C1000B091510126B5A89B05C02F3F19F0019650
:100C2000A11DB11D3FBFBA2FA92F982F8827BC0146
:100C3000CD01620F711D811D911D42E0660F771F6E
:100C4000881F991F4A95D1F708958F929F92AF926E
:100C5000BF92CF92DF92EF92FF926B017C010E94D4
:100C600000064B015C01C114D104E104F104B9F0A8
:100C70000E940006681979098A099B09683E734039
:100C80008105910580F321E0C21AD108E108F1083D
:100C900088EE880E83E0981EA11CB11CE4CFFF9063
:100CA000EF90DF90CF90BF90AF909F908F9008957E
:100CB0008F929F92AF92BF92CF92DF92EF92FF926C
:100CC0000F931F93CF93DF936C017B018A01809177
:100CD0000D01882309F45CC08091BC01882309F4CC
:100CE00057C08091AE0180FF05C08091E000826016
:100CF0008093E000E801B12C8AEFA82E93E0892EC2
:100D00002AE3922E209711F4BB20D9F10E946804A7
:100D100081110AC0AA94AA20D9F161E070E080E0B4
:100D200090E00E942506EECF8C171D0611F00CF006
:100D30008C2F9FB7F8948092E9002091E80025FD60
:100D400002C09FBFDFCF282F30E0C21BD30BF701BB
:100D5000815020F041914093F100FACFE20EF31E52
:100D6000BB2021F09092E800B12CEBCF8091E800FD
:100D700085FDE7CF9092E800BB24B394209709F358
:100D8000F3CF5D9884E68093AD01101611063CF018
:100D900081E090E0F6019383828310E000E0C801D7
:100DA000DF91CF911F910F91FF90EF90DF90CF9047
:100DB000BF90AF909F908F900895BC0190E080E02D
:100DC0000C9425068FB18095807F669B88601C9B64
:100DD0008460089580389105B8F460347105A0F4FA
:100DE00020E191E061FD94E060FD990F62FD929534
:100DF000687F269FD0011124A80FA354BE4F8C9169
:100E000040FF03C0892B8C93089590958923FBCFD5
:100E10008F929F92AF92BF92CF92DF92EF92FF920A
:100E20000F931F93CF93DF935C01EB01042FE22E0E
:100E30006034710510F40E94FC03EC0EFD2EF11CD1
:100E4000B701615071096034710520F4402FC5016C
:100E50000E94FC03D7FF02C0D0E0C0E04E01670152
:100E600081E4E816F1041CF080E4C82ED12C8C1427
:100E70009D044CF441E0B401C5010E94EA068FEFE5
:100E8000881A980AECCF0A0D1B2D111D015011096B
:100E9000CC15DD053CF441E0BE01C8010E94EA0624
:100EA0002196F6CFDF91CF911F910F91FF90EF9098
:100EB000DF90CF90BF90AF909F908F9008952F922A
:100EC0003F924F925F926F927F928F929F92AF92DA
:100ED000BF92CF92DF92EF92FF920F931F93CF9327
:100EE000DF93EC018B017A016901C61AD70AD7FE9C
:100EF00003C0D194C194D10847018C1A9D0A97FE72
:100F000003C09194819491088C149D0454F49E2DF7
:100F10008F2D7901292F382F9C2F8D2FE801092F34
:100F2000182FEC16FD0654F4902F812F8901292FDC
:100F3000382F9C2F8D2FE701E92EF82E17012C1A40
:100F40003D0A2901401A510A57FE03C051944194A9
:100F50005108310137FE03C08FEF681A780A759483
:100F600067948FEF021713070CF481E0A82E880F07
:100F7000BB08EC16FD06A4F041E0BE01C8018C14CC
:100F80009D0414F0B801CE010E94EA0664187508A9
:100F900077FE04C00A0D1B1D620C731C2196E9CF5D
:100FA000DF91CF911F910F91FF90EF90DF90CF9045
:100FB000BF90AF909F908F907F906F905F904F9079
:100FC0003F902F900895CF92DF92EF92FF920F9370
:100FD0001F93CF93DF936C0110E000E07C01E60EDD
:100FE000F11CE601D7FE02C0D0E0C0E0C70121E459
:100FF000E216F10414F080E490E0C817D9073CF43D
:1010000040E0BE01C8010E94EA062196EFCF0F5FC3
:101010001F4F0038110529F7DF91CF911F910F91D4
:10102000FF90EF90DF90CF9008952F923F924F92D4
:101030005F926F927F928F929F92AF92BF92CF9268
:10104000DF92EF92FF920F931F93CF93DF93CDB771
:10105000DEB72A970FB6F894DEBF0FBECDBF9A83D6
:1010600089836A3061F5DC0155968C91B8E08B9FDD
:1010700090011124E981FA8181899289820F931F5D
:10108000928B818B108A178681E090E02A960FB6AA
:10109000F894DEBF0FBECDBFDF91CF911F910F91AE
:1010A000FF90EF90DF90CF90BF90AF909F908F9088
:1010B0007F906F905F904F903F902F9008956D308C
:1010C00019F329813A813A872987D9011F96AD9072
:1010D000BC90B0E8AB16B1040CF07BC0F901C1883C
:1010E000D288F0E4CF16D1040CF073C0D901559624
:1010F0006C90559745E09501649E200D311D11249B
:10110000121613060CF065C0262C312C910153E009
:10111000220F331F5A95E1F72C0D3D1D12161306B1
:101120000CF057C05496BC91BB83E985FA85F389CE
:10113000FC83649FB00111249B012B553E4F3A83E1
:101140002983712CE981FA818491F5E07F1201C035
:1011500080E0460138E0532E282F30E03E832D8377
:101160004C8080FF4B80411004C03B818C8138173C
:10117000E1F010E000E00615C0F4D501A00FB11FAA
:10118000B887AF83F12CE12CE61460F4B701680D49
:10119000791D442D8F8198850E94EA06BFEFEB1AD6
:1011A000FB0AF2CF0F5F1F4FE6CF8D819E81959591
:1011B00087955A94820C931C5110CECF7394E98179
:1011C000FA813196FA83E983A20CB31CF6E07F1210
:1011D000B9CFA985BA8555962C915597422F50E0E5
:1011E0001F968D919C91B6E02B9F800D911D11242F
:1011F000E985FA85908B87872689222309F444CFD5
:101200006AEF64039001659F300D112420583F4F11
:10121000281739070CF038CFDF010190F081E02D5D
:101220000190F081E02D6AE0CD0109952DCF089560
:10123000089590E080E00895CF92DF92EF92FF92C0
:101240000F931F93CF93DF938AE5E82E81E0F82E6A
:10125000C2E0D0E0670101E310E0F6018081815037
:10126000823080F460919C0170919D016C0F7D1F14
:1012700080919E0190919F0126E046E0800F911F92
:101280000E940807FAE0CF0ED11C0A5F1F4F0F34EF
:10129000110519F78FEFE81AF80A2696CE33D10513
:1012A000C9F6DF91CF911F910F91FF90EF90DF90E2
:1012B000CF900895803127E2920758F4883E23E0CA
:1012C000920748F48436910540F40A9740F481E08F
:1012D000089585E0089584E0089583E0089582E00C
:1012E00008958F929F92AF92BF920F931F93CF93C7
:1012F000DF93CDB7DEB7A1970FB6F894DEBF0FBE70
:10130000CDBF19A2423008F44AE08E010F5D1F4F95
:10131000842E912CB12CA12CA50194010E94571A66
:10132000E62FB901CA01EA3044F5E05DD801EE9339
:101330008D01232B242B252B79F790E080E010974B
:1013400069F0FD0101900020E9F73197AF014A1BD8
:101350005B0BBD0185E599E00E94D305A1960FB610
:10136000F894DEBF0FBECDBFDF91CF911F910F91DB
:10137000BF90AF909F908F900895E95CD7CFFC010C
:1013800001900020E9F73197AF01481B590BBC01D0
:1013900085E599E00C94D305EF92FF921F93CF93CC
:1013A000DF93E0904901F0904A01C0914B01D09148
:1013B0004C01CE15DF0508F049C0C7010E945A094B
:1013C0001AEF282F1203C001112480589F4F9093C9
:1013D0006509809364091092670910926609B70144
:1013E00090E080E04AE00E947109C0914B01D091E9
:1013F0004C01CE010E945A09382F1303C001112459
:1014000080589F4F909365098093640988E090E02D
:101410009093670980936609209731F0BE0190E0B0
:1014200080E04AE00E94710960919C0170919D01E9
:1014300080919E0190919F0120E442E28F96DF917E
:10144000CF911F91FF90EF900C940807CE010E945E
:101450005A09282F3AEF3203C001112480589F4FB8
:101460009093650980936409109267091092660948
:10147000D3CFCF92DF92EF92FF926B017C01C11428
:10148000D104E104F10441F00E94BE19A7019601C4
:101490000E94251A6B017C01C701B601FF90EF90F5
:1014A000DF90CF900895DF92EF92FF920F931F93FA
:1014B000CF93DF9320914B0130914C01280F391FBE
:1014C00030934C0120934B014091490150914A01C6
:1014D0002417350708F047C044E1D42EC3E8D8E00C
:1014E0002EE1E22EF12C2D85211140C02CE030E0C0
:1014F0008A30910514F426E030E08C016FE270E050
:10150000621B730B072E000C880B990B0E94390A83
:101510006F5A7F4F798368838FE390E09B838A8340
:101520001C821D821E821F8280E090E0A0E6B0E453
:1015300088879987AA87BB8785E18E9DF0018F9D5B
:10154000F00D1124E35FF94FD586D48681E08E87B4
:1015500083E08F870C8BDF91CF911F910F91FF90CC
:10156000EF90DF90089539E1D32EB8CF2FEFE21A34
:10157000F20A659628E2E216F10409F0B4CFEBCF47
:101580002F923F924F925F926F927F928F929F9293
:10159000AF92BF92CF92DF92EF92FF920F931F9381
:1015A000CF93DF93CFEDD6E086E0382E96E0892EFC
:1015B000912CA12CB12C22E0C22ED12CE12CF12CAB
:1015C0002224239400918D01039D800111240E9407
:1015D000BE19A50194010E94251A0F5C1F4F600FD0
:1015E000711F7983688380918E018150990B389E99
:1015F000B001399E700D1124072E000C880B990B39
:1016000040908C01439C20011124052C000C66089D
:101610007708461657066806790654F46419750962
:10162000860997090E94390A460E571E681E791EC0
:101630005B824A821C821D821E821F820E94BE190A
:10164000A70196010E94251A0E94A41B688779872A
:101650008A879B8765E070E080E090E00E94390A0D
:10166000DC01CB010596A11DB11D8D878C872E86CF
:101670002F86659683E397E08C179D0709F0A2CF2C
:10168000DF91CF911F910F91FF90EF90DF90CF905E
:10169000BF90AF909F908F907F906F905F904F9092
:1016A0003F902F900895809148018B3010F0109258
:1016B000480180914801809356018F5F80934801D3
:1016C0000E94BE1925E030E040E050E00E94251A5B
:1016D0002AE0269FF001279FF00D1124E65AFE4FC5
:1016E00082E0808308952F923F924F925F926F9293
:1016F0007F928F929F92AF92BF92CF92DF92EF92A2
:10170000FF920F931F93CF93DF93EC017B010AE0CD
:1017100010E0061B170B8EE1809FB001819F700DBA
:101720001124072E000C880B990B0E94A41B2FE19B
:1017300035ED42E154E40E94891A4B015C0120E03E
:1017400030E040E05FE30E94591C20E034E244E7CF
:1017500059E40E94891AA50194010E94FA1A0E9474
:10176000731B6150710983E080939A0180E4809338
:101770009000709399006093980086E08C9F100110
:101780008D9F300C11249FE2290E311C97012F5F91
:101790003F4F829F6001839FD00C1124CDE0D6E0A3
:1017A0008AE0482E512C612C712C92E0892E912CCC
:1017B000A12CB12C0E94BE19A30192010E94251AEE
:1017C000620D731D79836883DB82CA8265E070E0F5
:1017D00080E090E00E94390A625071098109910904
:1017E0000E94A41B6C837D838E839F830E94BE19FD
:1017F000A50194010E94251A0E94A41B688779877D
:101800008A879B8765E070E080E090E00E94390A5B
:10181000DC01CB010A96A11DB11D8D878C8762E08A
:1018200070E080E090E00E94390A6F5F7F4F8F4F39
:101830009F4F6E8781E08F8765968CE496E08C17CA
:101840009D0709F0B7CF83E08093A10191E09093C9
:10185000A001EF28B1F489E080930101DF91CF91DD
:101860001F910F91FF90EF90DF90CF90BF90AF90BE
:101870009F908F907F906F905F904F903F902F90B0
:101880000895C8010E94530ADF91CF911F910F91D3
:10189000FF90EF90DF90CF90BF90AF909F908F9090
:1018A0007F906F905F904F903F902F900C94530BD0
:1018B00080914B0190914C012091490130914A0156
:1018C0002817390720F490934A0180934901109218
:1018D0004C0110924B01EAE5F1E011921186138A56
:1018E000158E17A281E0E436F807B9F71092A3012C
:1018F0001092A2011092A4010E94530B81E08093E8
:10190000010108950E94CC1C3F924F925F926F920A
:101910007F928F929F92AF92BF92CF92DF92EF927F
:10192000FF920F931F93CF93DF93EC0180910001FF
:101930008823A1F02FB7F894609152017091530160
:1019400080915401909155012FBF6115710581055A
:10195000910511F00E940D1A1092000183E080930E
:101960009A0180E48093900081E097E09093990041
:10197000809398000E94530B86E08C9F70018D9F8E
:10198000F00C11244FE2E40EF11CCDE0D6E06FED37
:10199000C62E66E0D62E8E017AE0872E912CA12CE1
:1019A000B12CE4E04E2E512C612C712C3324339455
:1019B0000E94BE19A50194010E94251A6E0D7F1D7B
:1019C000F801718360830E94BE19A50194010E94F1
:1019D000251A6A5C7F4FF8017383628367E070E0C9
:1019E00080E090E00E94390A6350710981099109F1
:1019F0000E94A41BF80164837583868397830E94E9
:101A0000BE19A30192010E94251A0E94A41BF8018D
:101A1000608771878287938764E270E080E090E05E
:101A20000E94390ADC01CB010A96A11DB11DF80103
:101A30008587848763E070E080E090E00E94390A47
:101A40006F5F7F4F8F4F9F4FF801668737860B5E22
:101A50001F4FC016D10609F0ABCF82E08093A101E1
:101A600085E08093A00120916D0180916301422F58
:101A7000480F5527551F20917701240F352F311D11
:101A800080918101280F311D80918B01820F932F4E
:101A9000911D059709F010C101EB17E054E1E52E07
:101AA000F12CF80185858111FCC064E070E080E0D4
:101AB00090E00E94390AF801718360838FE390E01F
:101AC00093838283148215821682178280E090E0CD
:101AD000A0E6B0E480879187A287B38785E18E9DD9
:101AE000F0018F9DF00D1124E35FF94F86E48587A7
:101AF000848781E0F801868782E087870E94BE198B
:101B00002AE130E040E050E00E94251AF801648BA1
:101B10002EE1422E512C612C712C38E0832E912C19
:101B2000A12CB12C47E0C42ED12CE12CF12C0E9429
:101B3000BE19A30192010E94251A615D7F4F79832E
:101B400068830E94BE19A50194010E94251A6A5C4F
:101B50007F4F7B836A836FE070E080E090E00E94BB
:101B6000390A67507109810991090E94A41B6C838D
:101B70007D838E839F830E94BE19A70196010E94D8
:101B8000251A0E94A41B688779878A879B8768E348
:101B900070E080E090E00E94390ADC01CB010A96F7
:101BA000A11DB11D8D878C8764E070E080E090E01E
:101BB0000E94390A6F5F7F4F8F4F9F4F6E871F863E
:101BC000659657E0C13BD50709F0B1CF81E080931E
:101BD000A1018AE08093A00103E611E0CEE0D1E00C
:101BE00083E0F82E90E4E92EBE010D2E000C880B48
:101BF000990B0E94A41B9B01AC016DE37AE284EB7C
:101C000093E40E94881A4B015C0120E030E040E040
:101C10005FE30E94591C20E034E244E759E40E944B
:101C2000891AA50194010E94FA1A0E94731B61503F
:101C30007109F0929A01E09290007093990060937C
:101C40009800F80190E080E0DF0111972C9120834B
:101C500001963A9685309105B9F76E9701501109B2
:101C6000209711F610925A011092640110926E01A1
:101C7000109278011092820184E190E0DF91CF917F
:101C80001F910F91FF90EF90DF90CF90BF90AF909A
:101C90009F908F907F906F905F904F903F900C94AB
:101CA000530AFFEFEF1AFF0A0B5E1F4F4EE1E416D7
:101CB000F10409F0F6CE2CCF81E090E0DFCF0F9356
:101CC0001F93CF93DF9390E080E0FC01E65AFE4F34
:101CD000D0E0C0E02081223009F054C0C0938D01D3
:101CE00080938C012AE02C9FA0012D9F500D112480
:101CF0009C01F901E40FF51FE65AFE4F6081613047
:101D000009F58901015011093AE03C9FA0013D9F6E
:101D1000500D1124465A5E4FFA01E00FF11F608307
:101D2000840F951FFC01108220938E0160938F0118
:101D30000E94C00AB801CE01DF91CF911F910F918F
:101D40000C94730B2F5F3F4F2A30310591F62AE038
:101D50002C9FF0012D9FF00D1124E65AFE4F31E02B
:101D60003187E80FF91F108220938E0182E0809363
:101D70008F010E94C00ACE01DF91CF911F910F9178
:101D80000C94840C21963A96C530D10509F0A2CF67
:101D900001968A30910509F098CFDF91CF911F917C
:101DA0000F9108951F920F920FB60F9211248F93E7
:101DB0009F938091E1009091E100937F9093E100E7
:101DC00083FF0FC01092E90091E09093EB00109216
:101DD000EC0092E39093ED001092BC0198E0909398
:101DE000F00082FF22C093E09093E9009091F2000E
:101DF000992319F09AE39093E8009091AD0199230B
:101E000041F09091AD0191509093AD01911101C0BD
:101E10005D9A9091BB01992341F09091BB01915043
:101E20009093BB01911101C0289A84FF18C0809142
:101E3000E2008E7E81608093E2008091E1008F7EDF
:101E40008093E1008091AE018E7E80618093AE012F
:101E50009F918F910F900FBE0F901F90189580FF4C
:101E6000F7CF8091E2008E7E80618093E2008091C6
:101E7000E1008E7E8093E1008091AE018E7E8160D4
:101E8000E5CF1F920F920FB60F921124CF92DF92DF
:101E9000EF92FF920F931F932F933F934F935F9374
:101EA0006F937F938F939F93AF93BF93EF93FF9322
:101EB000CF93DF93CDB7DEB76C97DEBFCDBF109267
:101EC000E9008091E80083FF25C068E0CE014596D7
:101ED0000E94C60582EF8093E8008D8987FF39C094
:101EE0009091E80090FFFCCF982F907609F034C1D4
:101EF0009E894F89588D2F89F88C911131C0803877
:101F000061F58091AC018093F1001092F1008EEFA9
:101F10008093E8006C960FB6F894DEBF0FBECDBF7D
:101F2000DF91CF91FF91EF91BF91AF919F918F91F1
:101F30007F916F915F914F913F912F911F910F91E1
:101F4000FF90EF90DF90CF900F900FBE0F901F90FB
:101F500018959EEF9093E800C7CF1092F100D5CF6F
:101F6000913059F48111D3CF4130510581F68091E0
:101F7000AC018D7F8093AC01CACF933049F48111BD
:101F8000C6CF4130510519F68091AC018260F2CF85
:101F9000953041F48091E80080FFFCCF20682093C9
:101FA000E300B5CF963009F0A9C00B8D1C8D22E05F
:101FB0001092E9001092AA011092A901F2122EC00B
:101FC0001092A8011092A7010E9495051F8299E026
:101FD0009983FA8291E09E8390EA98879AEF998795
:101FE0002091A9013091AA01275F3F4F3C832B83A9
:101FF0008D831092E9001092AA011092A90110930A
:10200000A8010093A70149E050E0BE016F5F7F4F38
:1020100080E00E946F050E94950579CF1093A8017A
:102020000093A7010E947904DC0112960D911C9186
:102030000115110509F451C1D801ED91FC910480FD
:10204000F581E02DBE016B5E7F4FC80109950097B9
:1020500009F03EC1F80100851185EACFF3E0FF12D7
:102060000EC08F89882309F440C0823061F440E8B3
:1020700067E080E697E00E943C05811148CF81E24D
:102080008093EB0047CF813029F440E86BE084E592
:1020900097E0F1CF833099F70E947904DC01129622
:1020A000ED90FC908E010F5F1F4F6801E114F10469
:1020B00079F0D701ED91FC910680F781E02DB80110
:1020C000C7010995080F111DF701E084F184EECFD7
:1020D000D8011C92F60101900020E9F73197BF0169
:1020E0006C197D0940E0C601C6CF6EE377E0FB01C5
:1020F000449150E080E80E946F0509CF973009F4C1
:10210000BECF983021F481E08093F10000CF993068
:1021100009F0FDCE837009F0B2CFE3E1F1E081E098
:1021200031E096E32191222371F08093E90030930E
:10213000EB00DF0111972C912093EC009093ED00C0
:102140008F5F873079F78EE78093EA001092EA007C
:102150008F898093BC01DBCE8B8D9C8D1092E90022
:102160001092AA011092A9019093A8018093A7014F
:10217000898D811192C08E899D89913A49F481326D
:1021800009F07DCF47E050E066E071E080E0B3CF3A
:10219000913209F074CF833269F48F89988DB0E061
:1021A000A0E08093020190930301A0930401B093F7
:1021B0000501ADCE803269F48091E80082FFFCCF4A
:1021C00067E086E091E00E94C6058BEF8093E8000F
:1021D0009ECE823209F09BCE8F8980930D01EEEF67
:1021E000FFE7859194918B3F9C4D51F1E0E0F8E041
:1021F0008091060190910701A0910801B091090119
:10220000803B9440A105B105F1F480910D0180FD62
:102210001AC0EE3F8AE0F80789F587E797E79183D0
:102220008083809160008093AB0188E19BE00FB6D2
:10223000F894A895809360000FBE9093600067CEDD
:10224000EEEFFAE0D5CF808191818737974709F08B
:102250005ECEA89580916000886180936000809137
:10226000AB0180936000EE3F2AE0F20789F0809195
:10227000FE0A9091FF0A9183808349CE80819181EB
:102280008737980751F29093FF0A8093FE0AC5CFD3
:102290001092FF0A1092FE0A3ACE0E947904DC01E5
:1022A00012960D911C910115110509F4E8CED80183
:1022B000ED91FC910190F081E02DBE016B5E7F4FAE
:1022C000C8010995811123CEF80100851185EBCF56
:1022D000181619060CF41BCED2CEF1E0FF12BECEBA
:1022E00062E477E004CF0F920FB68F939F93EF9342
:1022F000FF9380914D018D5F8D3708F08D5780934E
:102300004D01E2E5F1E080818E4F808391819F4F06
:10231000918382818F4F828383818F4F8383EEE409
:10232000F1E080818F5F808381818F4F8183828103
:102330008F4F828383818F4F83838FB18F606699A4
:102340001C9B88278F3681F48091FF0A981B96305A
:1023500068F0E0E0F8E087E78083818388E180939C
:102360006000F0936000FFCF9093FF0AFF91EF9120
:102370009F918F910FBE0F9018950F931F93CF933E
:10238000DF938C0181E090E00E941D1A80FF31C034
:102390008AE090E00E941D1A9FEF980F9E3F48F53B
:1023A00022E330E0D80150963C932E931F9728E308
:1023B00030E052963C932E935197CBE0D0E0D80179
:1023C000ED91FC910190F081E02D682FC8010995F5
:1023D000CE010E941D1A2196C131D10581F70E94BC
:1023E000DF0388EE93E0DF91CF911F910F910C9462
:1023F000DD06DF91CF911F910F91089504970C9402
:10240000BD111092C0051092BF0588EE93E0A0E0C8
:10241000B0E08093C1059093C205A093C305B0932B
:10242000C4058DE191E09093BE058093BD058FEFCB
:102430009FEF9093CA058093C90510925809109296
:10244000570910925E0910925F0980E1809360093C
:1024500010925D0910925C09109262098FE291E07E
:1024600090935609809355098DE391E090935A0912
:1024700080935909109265091092640910926709B6
:102480001092660981E0809368091092690980932F
:102490006A0910926B09EDE0F6E011821082138256
:1024A0001282148215821682178210861186128675
:1024B00013861486158686878787759699E0E53595
:1024C000F90759F70895CF93DF9300D000D01F92FA
:1024D000CDB7DEB7789484B5826084BD84B5816061
:1024E00084BD85B5826085BD85B5816085BD8091DF
:1024F0006E00816080936E00109281008091810057
:10250000826080938100809181008160809381004E
:102510008091800081608093800080919100826032
:1025200080939100809191008160809391008091CF
:1025300090008160809390008091C10084608093BE
:10254000C1008091C10082608093C1008091C10070
:1025500081608093C1008091C30081608093C3003B
:102560008091C00082608093C0008091C200816031
:102570008093C20080917A00846080937A00809179
:102580007A00826080937A0080917A0081608093E3
:102590007A0080917A00806880937A001092BC0162
:1025A0001092AC011092AE018091D70081608093AF
:1025B000D70080EA8093D80089B5806189BD89B54C
:1025C000826089BD09B400FEFDCF61E070E080E06B
:1025D00090E00E9425068091D8008F7C80618093D6
:1025E000D8008091E000807F8093E0008091E1003E
:1025F0008E7E8093E1008DE08093E200559A209AD0
:1026000081EC80937C0085B1806F85B984B1877E31
:1026100084B984B1876E84B95E9A5F988AB1806DFF
:102620008AB9769A6E9881B3806F81BB899880B39E
:102630008D7080BB80E58CBD81E08DBD85E090E034
:102640000E94DD065F9A85E090E00E94DD065E98BC
:102650005C98E5EAF6E084918EBD00000DB407FEBB
:10266000FDCF319626E0E23BF207A9F75C9A81E8BC
:1026700080936400809165008160809365000E9472
:10268000E20687FF15C05C9885EA8EBD00000DB498
:1026900007FEFDCF5C9A2E982F982D9880916400AC
:1026A00080628093640081E083BF889513BEFCCF75
:1026B00082E090E00E941D1A882359F13E9A3F9AC9
:1026C000109290008AE08093910080E180936009ED
:1026D0000E94EF0310926709109266091092650933
:1026E000109264090E94DF0382E080936E0172E021
:1026F000472E512C612C712C80910008909101087B
:102700008737974749F48091640080628093640022
:10271000FFCF3E983F98D4CF8FB7F89440915201A5
:102720005091530160915401709155018FBF809178
:102730006109942F981B892F90916209992359F070
:10274000809363091092620980E090E0892BA1F2E6
:102750000E940000D1CF90916009891740F48F5FEB
:10276000891790F781E083BF889513BEEDCF81E094
:10277000809362094093610980915C0990915D09A1
:10278000019690935D0980935C0980919A0188235A
:1027900039F0815080939A01811102C0109290000B
:1027A0000E94EF0310926709109266091092650962
:1027B00010926409ADE0B6E0BC83AB8362E0362ED4
:1027C000EB81FC811685E12EF12CB7010F2C000C5A
:1027D000880B990B0E94A41B2FE832EC45EF5DE3B8
:1027E0000E94591C9B01AC01AB81BC8118966D9174
:1027F0007D918D919C911B970E94881A4B015C01E1
:10280000EB81FC8180869186A286B3862FE832EC2C
:1028100045E75FE364817581868197810E94591C39
:10282000AB81BC8114966D937D938D939C93179788
:102830001F960C911F97013069F4E1E3F0E0519687
:10284000FC93EE9350972FE430E053963C932E93F5
:1028500052970EC00111CFC1AB81BC8151961C9221
:102860001E925097E0E8F0E05396FC93EE93529757
:10287000AB81BC8152962D913C915397A9014E1981
:102880005F092D913C911197421753075CF4119603
:102890005C934E93AB01BC017058FD01448355839A
:1028A00066837783AB81BC8150968D919C915197C3
:1028B0002D913C911197281739076CF411969C9330
:1028C0008E93FD0184819581A681B781B058848360
:1028D0009583A683B783AB81BC8112968D919C9121
:1028E00013978134910514F1E0E4F0E01396FC9322
:1028F000EE9312972DEB37E346E857E3C501B40199
:102900000E94541C18160CF08FC1C501B4019058D8
:102910002DEB37E346E857E30E94591CAB81BC819D
:1029200018966D937D938D939C931B978EEF800FDC
:10293000AB81BC811296ED90FC901397823010F120
:10294000F7FE20C018968D909D90AD90BC901B977F
:102950002DEB37E346E857E3C501B4010E94541C50
:1029600018160CF068C1C501B40190582DEB37E37F
:1029700046E857E30E94591CEB81FC816087718710
:1029800082879387EB81FC8160817181072E000C27
:10299000880B990B0E94A41BAB81BC8114962D91CE
:1029A0003D914D915C9117970E94891A0E946C1B72
:1029B000EB81FC8171836083B701FF0C880B990B5D
:1029C0000E94A41BAB81BC8118962D913D914D9125
:1029D0005C911B970E94881A0E946C1BEB81FC8102
:1029E000738362832584622D70E090E080E00E9412
:1029F000A41B6B017C01AB81BC811C966C9170E0C7
:102A000090E080E00E94A41B4B015C0120E030E0DC
:102A100040E05FE30E94591C9B01AC01C701B60175
:102A20000E94F51A87FF05C0133018F0EB81FC8176
:102A300036862DEC3CEC4CE45EE3C501B4010E940B
:102A4000591C9B01AC01C701B6010E94F51A87FF12
:102A50000AC0AB81BC811E968C911E97823018F003
:102A6000E1E01E96EC93222029F02A94AB81BC81F0
:102A70001D962C92EB81FC818585882321F1278589
:102A80006281738180819181223009F0DDC0909351
:102A90006509809364097093670960936609E48906
:102AA000F0E0EE0FFF1FE853F94F6591749180E954
:102AB00091E00E94161A80E991E00E94BF0986E425
:102AC00091E00E94BF09EB81FC817596FC83EB834A
:102AD000E555F94009F074CE80918F01882389F182
:102AE000815080938F010E94BE1930918D01A6E024
:102AF0003A9FA00111244D5C5F4F5C834B83A3017F
:102B000092010E94251A21E030E0672B682B692B87
:102B100011F430E020E08B819C81820F931F409163
:102B20008E014150550B66E0649F9001659F300D0A
:102B3000112440918C01469FB0011124AC010E94E8
:102B40005F0780915E0980935F090E94E20680938F
:102B50005E0980E40E943304882319F081E08093A9
:102B6000A60180E20E943304882319F081E080935B
:102B7000A50180E10E943304882319F081E080934D
:102B8000A40188E00E943304882319F081E0809337
:102B9000A30184E00E943304882319F081E080932C
:102BA000A2018091A101813009F009C18091A001A9
:102BB000882309F46AC081508093A00165E070E029
:102BC00080E090E00E94390A625071098109910900
:102BD00070939F0160939E0165E070E080E090E05B
:102BE0000E94390A625071098109910970939D010F
:102BF00060939C014CC0023049F4AB81BC8151967A
:102C00001C921E925097EFE2F0E02ECE033009F0B6
:102C10002FCEE1E5F0E0AB81BC815196FC93EE93C1
:102C2000509720E830E011CEEB81FC8110861186B0
:102C3000128613867BCEAB81BC8118961D921D92A5
:102C40001D921C921B979ECE233091F490936509A0
:102C5000809364097093670960936609EB81FC8136
:102C6000648970E090E080E04AE00E9471092BCF17
:102C7000AB81BC811E964C91413019F40E94EA064A
:102C800022CF242F0E9408071ECF1092A10180910D
:102C90000101813009F03CC18091A301882321F01A
:102CA0001092A3010E945F0E8091A201882321F05F
:102CB0001092A2010E945F0E8091A401882321F04E
:102CC0001092A4010E945F0E4091A6016091A5019F
:102CD00030E020E0F901E65AFE4F90E080E0B0815C
:102CE000B23009F0C6C0442309F498C0843091057D
:102CF00009F4F5C2AC014F5F5F4F728571118EC050
:102D00001092A6016093A501AAE0A49FB001A59F1F
:102D1000700D1124665A7E4FFB01E20FF31FB08342
:102D2000A89FA001A99F500D1124465A5E4F420F43
:102D3000531FDA011C9280919B01843108F4E4C096
:102D400009E010E04AE0D42ECC24C3949801265A1E
:102D50003E4F790144E050E05C834B83D701989665
:102D60009C919897923009F0AFC09A968C919A975F
:102D7000813009F094C0B8016F5F7F4F9AE02B81DA
:102D80003C81929FF001939FF00D1124E65AFE4F73
:102D9000DF01A60FB71F9C91E00FF11F913009F0E2
:102DA00079C09083B801C9010E94730B10929B01F6
:102DB0000E94CC090E941C090E94DF03C5CC82300E
:102DC00099F48091A001882309F45FCF815080930A
:102DD000A00163E070E080E090E00E94390A615059
:102DE00071098109910902CF833079F48091A001A2
:102DF000882309F44ACF81508093A00181E090E0BC
:102E000090939D0180939C0142CF10929F0110925C
:102E10009E0110929D0110929C0139CF662341F1D1
:102E2000009729F1AC0141505109DF011A976C91CB
:102E300061111DC01092A6011092A501AAE0A49FE5
:102E4000B001A59F700D1124665A7E4FFB01E20F61
:102E5000F31F42E04083A89FA001A99F500D1124B9
:102E6000465A5E4F420F531FFA01108264CF60E052
:102E700040E001963A968530910509F030CF2F5FFA
:102E80003F4F2A30310509F025CF4093A6016093CA
:102E9000A50151CF8C9310828B819C8185CF083006
:102EA000110561F54B815C81D49EF001D59EF00D3A
:102EB0001124E65AFE4F81858130C9F4808768E08D
:102EC00070E0CA010E94730BEB81FC813197FC8397
:102ED000EB83FAE0EF1AF1082B813C812F3F3F4F43
:102EE00009F03CCF0150110908F030CF5FCFC18607
:102EF00010868B819C810E94840CE6CF99969C93CE
:102F0000999798961C92E0CF8F5F80939B0150CF4A
:102F1000873021F50E94CC090E941C0982E290E0D2
:102F2000909365098093640984E190E09093670928
:102F3000809366098FE391E00E94BF090E94DF033E
:102F40008091A301811105C08091A201882309F419
:102F500033CF1092A2010E94580C2ECF883009F076
:102F60004BC0809159018D83811124C090915801EB
:102F70009B83903478F4292F30E04FE350E070E0E9
:102F800060E08FE390E00E945F07AB81AE5FA093AB
:102F9000580112CF20E430E04FE350E070E060E0F1
:102FA0008FE390E00E945F071092580181E08093C8
:102FB000590102CFBD81B13009F0FECEE091580138
:102FC000EB83E13288F43E2F369520E44E2F70E0FB
:102FD00060E08FE390E0831B91090E940807FB816A
:102FE000FE5FF0935801E8CE0E94CC091092580180
:102FF0002D8120930101E0CE893009F0DDCE0E94C1
:10300000CC090E941C0980915701811151C0609127
:10301000580136EF3603B001112468547E4F072E55
:10302000000C880B990B0E94A41B6B017C0120E013
:1030300030E040E05FE30E94591C20E034E244E7C6
:1030400059E40E94891AA70196010E94FA1A0E9467
:10305000731B6150710986E080939A0180E480932C
:1030600090007093990060939800409158014B83B1
:1030700047FD0EC050E02FE130E06FE170E090E0DE
:1030800080E00E945F075B815A5F5093580194CEA5
:103090002FE130E040E850E06FE170E090E080E048
:1030A0000E945F071092580181E08093570184CEFF
:1030B000813009F046C0F090580189E08F1520F169
:1030C0000F2D10E0AFE1B0E0A01BB10BBC83AB83D0
:1030D0006F2D660FCD010E94E307B801615E7F4F3F
:1030E0009B0140E850E090E080E00E945F072B8168
:1030F0003C8140E850E0B90190E080E00E945F0729
:10310000F394F092580158CE64E185E190E00E947A
:10311000E30729E230E040E850E069E270E090E047
:1031200080E00E945F0725E130E040E850E065E183
:1031300070E090E080E00E945F071092580182E00A
:10314000B4CF823009F078C065E186E190E00E945A
:10315000E30725E130E040E850E065E170E090E011
:1031600080E00E945F072AE230E040E850E06AE237
:1031700070E090E080E00E945F07E0915601F0E08F
:10318000EE0FFF1FEE54F94F6591749180E991E0C5
:103190000E94161AE0E9F1E090E080E021912223FC
:1031A000B1F101968A309105C9F72CE0E981FA81E5
:1031B0002E9FC0012F9F900D11249595879520E497
:1031C00030E0281B390B309365092093640989E1AD
:1031D00090E0909367098093660982E080936A0982
:1031E00080E991E00E94BF0986E491E00E94BF0956
:1031F00081E080936A09809158018A3058F41092D6
:10320000A3011092A2018F5F80935801D5CD9A83BC
:103210008983CBCF8091A301811105C08091A20148
:10322000882309F4C9CD1092A3011092A2018AE06B
:103230008093580183E039CF8330A1F5F090580195
:10324000FF2011F10F2D10E04FE150E0401B510B1A
:103250005C834B836F2D660FCA010E94E307B801A0
:10326000615E7F4F9B0140E850E090E080E00E946B
:103270005F072B813C8140E850E0B90190E080E09D
:103280000E945F07FA943DCF2FE130E040E850E024
:103290006FE170E090E080E00E945F0710925801BB
:1032A00084E003CF843009F087CD509158015B83CF
:1032B00057FD10C02FE130E040E850E06FE170E0D2
:1032C000AB818A2F90E00E945F07BB81BA5FB09309
:1032D000580172CD10925801109257013CCE6111E5
:1032E000A1CDC6CD8F929F92AF92BF92CF92DF9227
:1032F000EF92FF92CF93DF93EC01688179818A810D
:103300009B81611571058105910521F464E279EDD8
:103310008BE597E02DE133EF41E050E00E94251A64
:1033200049015A019B01AC01A7EAB1E40E94441A89
:103330006B017C01ACEEB4EFA50194010E94521A1E
:10334000C60ED71EE81EF91EF7FE06C081E0C81A99
:10335000D108E10880E8F80AC882D982EA82FB82B3
:10336000C701B6019F77DF91CF91FF90EF90DF907B
:10337000CF90BF90AF909F908F9008958F929F9223
:10338000AF92BF92CF92DF92EF92FF9260910E01C7
:1033900070910F01809110019091110161157105DB
:1033A0008105910521F464E279ED8BE597E02DE14B
:1033B00033EF41E050E00E94251A49015A019B0178
:1033C000AC01A7EAB1E40E94441A6B017C01ACEEA7
:1033D000B4EFA50194010E94521AC60ED71EE81E32
:1033E000F91EF7FE06C081E0C81AD108E10880E89E
:1033F000F80AC0920E01D0920F01E0921001F092F3
:103400001101C701B6019F77FF90EF90DF90CF9039
:10341000BF90AF909F908F90089560930E0170932E
:103420000F0180931001909311010895FB01DC01BD
:1034300005900D920020E1F70895F999FECF92BD15
:1034400081BDF89A992780B50895052E97FB1EF443
:1034500000940E943C1A57FD07D00E94571A07FC9F
:1034600003D04EF40C943C1A50954095309521951C
:103470003F4F4F4F5F4F08959095809570956195A0
:103480007F4F8F4F9F4F08950E94791AA59F900DEF
:10349000B49F900DA49F800D911D11240895B7FF36
:1034A0000C94441A0E94441A821B930B0895A1E2C3
:1034B0001A2EAA1BBB1BFD010DC0AA1FBB1FEE1FAE
:1034C000FF1FA217B307E407F50720F0A21BB30BF9
:1034D000E40BF50B661F771F881F991F1A9469F775
:1034E00060957095809590959B01AC01BD01CF01D1
:1034F0000895A29FB001B39FC001A39F700D811DCD
:103500001124911DB29F700D811D1124911D0895EC
:103510005058BB27AA270E94A01A0C941A1C0E947C
:103520000C1C38F00E94131C20F039F49F3F19F452
:1035300026F40C94091C0EF4E095E7FB0C94031C94
:10354000E92F0E942B1C58F3BA17620773078407F0
:10355000950720F079F4A6F50C944D1C0EF4E09537
:103560000B2EBA2FA02D0B01B90190010C01CA013D
:10357000A0011124FF27591B99F0593F50F4503EE8
:1035800068F11A16F040A22F232F342F4427585FDA
:10359000F3CF469537952795A795F0405395C9F7F2
:1035A0007EF41F16BA0B620B730B840BBAF09150AA
:1035B000A1F0FF0FBB1F661F771F881FC2F70EC049
:1035C000BA0F621F731F841F48F48795779567951C
:1035D000B795F7959E3F08F0B0CF9395880F08F008
:1035E0009927EE0F9795879508950E94DF1B08F4A1
:1035F00081E008950E940E1B0C941A1C0E94131C5B
:1036000058F00E940C1C40F029F45F3F29F00C9404
:10361000031C51110C944E1C0C94091C0E942B1C71
:1036200068F39923B1F3552391F3951B550BBB27F1
:10363000AA2762177307840738F09F5F5F4F220F36
:10364000331F441FAA1FA9F335D00E2E3AF0E0E82D
:1036500032D091505040E695001CCAF72BD0FE2F77
:1036600029D0660F771F881FBB1F2617370748070B
:10367000AB07B0E809F0BB0B802DBF01FF279358C3
:103680005F4F3AF09E3F510578F00C94031C0C9468
:103690004E1C5F3FE4F3983ED4F38695779567958B
:1036A000B795F7959F5FC9F7880F911D96958795F8
:1036B00097F90895E1E0660F771F881FBB1F621717
:1036C00073078407BA0720F0621B730B840BBA0BD5
:1036D000EE1F88F7E09508950E94731B6894B1115E
:1036E0000C944E1C08950E94331C88F09F5798F04C
:1036F000B92F9927B751B0F0E1F0660F771F881FF7
:10370000991F1AF0BA95C9F714C0B13091F00E9410
:103710004D1CB1E008950C944D1C672F782F88271D
:10372000B85F39F0B93FCCF3869577956795B39537
:10373000D9F73EF490958095709561957F4F8F4FA6
:103740009F4F0895E89409C097FB3EF490958095AB
:10375000709561957F4F8F4F9F4F9923A9F0F92F57
:1037600096E9BB279395F695879577956795B795D5
:10377000F111F8CFFAF4BB0F11F460FF1BC06F5FBB
:103780007F4F8F4F9F4F16C0882311F096E911C0CD
:10379000772321F09EE8872F762F05C0662371F0EE
:1037A00096E8862F70E060E02AF09A95660F771F02
:1037B000881FDAF7880F9695879597F90895990FDE
:1037C0000008550FAA0BE0E8FEEF16161706E807EB
:1037D000F907C0F012161306E407F50798F0621B0C
:1037E000730B840B950B39F40A2661F0232B242BE1
:1037F000252B21F408950A2609F4A140A6958FEF00
:10380000811D811D089597F99F6780E870E060E051
:1038100008959FEF80EC089500240A941616170669
:1038200018060906089500240A94121613061406B1
:1038300005060895092E0394000C11F4882352F014
:10384000BB0F40F4BF2B11F460FF04C06F5F7F4FCC
:103850008F4F9F4F089557FD9058440F551F59F0B3
:103860005F3F71F04795880F97FB991F61F09F3F6D
:1038700079F087950895121613061406551FF2CF96
:103880004695F1DF08C0161617061806991FF1CFE6
:1038900086957105610508940895E894BB2766270D
:1038A0007727CB0197F908950E94DF1B08F48FEF6B
:1038B00008950E946C1C0C941A1C0E940C1C38F079
:1038C0000E94131C20F0952311F00C94031C0C94FF
:1038D000091C11240C944E1C0E942B1C70F3959F04
:1038E000C1F3950F50E0551F629FF001729FBB27F7
:1038F000F00DB11D639FAA27F00DB11DAA1F649F93
:103900006627B00DA11D661F829F2227B00DA11D45
:10391000621F739FB00DA11D621F839FA00D611DCB
:10392000221F749F3327A00D611D231F849F600DEC
:10393000211D822F762F6A2F11249F5750409AF015
:10394000F1F088234AF0EE0FFF1FBB1F661F771FA1
:10395000881F91505040A9F79E3F510580F00C946C
:10396000031C0C944E1C5F3FE4F3983ED4F3869501
:1039700077956795B795F795E7959F5FC1F7FE2B0C
:10398000880F911D9695879597F90895EE0FFF1F63
:103990000590F491E02D099481E090E0F8940C9466
:1039A000D11CF894FFCF0108FFFFFFFF00E10000EA
:1039B000000000000100000000C180810000000044
:1039C0000000008D045806AE04A304F404B204D031
:1039D00004000000001508D30519091809BD11FCE1
:1039E000FF0000FE11596F752057696E2100FFFF1F
:1039F000FFFFFFFFFFFFFFFFFFFFFFFFFFFFFFFFD7