:100000000C94870B0C94AF0B0C94AF0B0C94AF0BB0
:100010000C94AF0B0C94AF0B0C94AF0B0C94AF0B78
:100020000C94AF0B0C94AF0B0C94D2140C9444159D
:100030000C94AF0B0C94AF0B0C94AF0B0C94AF0B58
:100040000C94AF0B0C94AF0B0C94AF0B0C94AF0B48
:100050000C94AF0B0C94AF0B0C94AF0B0C94860D5F
:100060000C94AF0B0C94AF0B0C94AF0B0C94AF0B28
:100070000C94AF0B0C94AF0B0C94AF0B0C94AF0B18
:100080000C94D00D0C94AF0B0C94AF0B0C94AF0BE5
:100090000C94AF0B0C94AF0B0C94AF0B0C94AF0BF8
:1000A0000C94AF0B0C94AF0B0C94AF0B461AF01DD5
:1000B000521DF119E819F91DE519F0F89C8E878396
:1000C000878E9CF8F00000FEFF0303030303070E76
:1000D000FCF80000FEFF0303030303070EFCF80017
:1000E00000FFFF00000000000000FFFF0000FEFF17
:1000F0008383838383C7EE7C380000F8FC0E0703FC
:100100000303070EFCF800003F7FE0C08080C0E0E2
:100110007F3FFFFF01010101010101FFFF0000FF1F
:10012000FF0C0C0C0C1C3E77E3C100007FFFC0C02D
:10013000C0C0C0E0703F1F00001F3F70E0C0C0C0E3
:10014000E0703F1F00007FFFC1C1C1C1C1E3773E26
:100150001C00001F3F70E0C0C0C0E0703F1F0000E7
:1001600000000001FFFF01000000D5F08D14A1C8C0
:1001700081CFD9F1AF20000000FCFC0C0C0C0C0C62
:100180000CFCFC0000FFFFFFC3C33333F0F0FFFFA4
:100190003F3FF3F33030F3F3FFFFC0C03F3F3C3C41
:1001A000CFCFFFFFFF0000FCFC0C0C0C0C0C0CFC78
:1001B000FC0000C0C0CFCFCCCCCCCCCCCCCFCFC0FF
:1001C000C0FFFFFF0000FCFC00003F3FC0C0F0F09C
:1001D0000000F0F003033F3F0C0CF3F3CFCFFFFF21
:1001E000FFC0C0CFCFCCCCCCCCCCCCCFCFC0C07993
:1001F000798181FFFFE1E11F1F87879999797979DB
:10020000FEFE67677E7E00000101616198987F7F36
:100210000606E6E600001F1FE7E79F9F9FE1E1F962
:10022000F91919878719191919E7E78080878799BC
:1002300099E7E71E1E81819999E0E0E00101FEFE49
:1002400018180000FEFE787887877878E0E0616112
:100250008080E0E0010161616119199F9F9E9E19F4
:10026000199E9E181899999F9FE1E19F9FF9F9FEA9
:10027000FE999999990707071818F9F99E9E9E9E6D
:1002800001019E9E67677E7E878778780101FFFF68
:100290006060060606E6E601011F1FE6E6FFFF189E
:1002A00018070739393F3F39393F3F39393F3F391F
:1002B00039F8F8F8060639390707C7C7FEFEC1C185
:1002C0000000FEFEC7C73E3EF8F8C1C10000F8F8C6
:1002D000F83939F8F80000FFFFC1C10606C6C600AC
:1002E00000FFFF030303030303FFFF0000FFFFFF03
:1002F000CFCFC0C0FCFCCFCF0303C0C0CCCCF3F346
:10030000F0F0CFCF0C0C0F0F0000F3F3F3C3C3C317
:10031000C300000C0C0C0CCFCF3C3C0000030303CB
:100320000303030303030300000F0F0F00000F0F6D
:10033000030303030000000000000C0C0F0F00007B
:100340000C0C0C0C0000000000030303030000036E
:10035000030F0F00000F0F0000FCFC0C0C0C0C0C2A
:100360000C0C0C0C0C8C0C0C0C0C0C0C0C0C0C0C4D
:100370000C0C0C2C4C0C0C0C0C0C0C0C0C0C2C0C3D
:100380000C0C0C0C0C0C0C0C0C4C2C0C0C0C0C0C4D
:100390000C0C0C8C0C0C0C0C0C0C0C0C0C0C0C0C1D
:1003A0000C0C0C0C0C0C0C0C0C8C4C4C2C1C0CCC9D
:1003B0004C4C4C6C2C2C2C0C0C0C0C0C0C0C0C0CFD
:1003C0006CCC8C0CCC0C0C0C0C1C6C8C0C0C0C0C1D
:1003D0000C0C0CFCFC00000000FFFF000000000003
:1003E00000000000000001020408000000000000FE
:1003F0000000001E1EF0F01E1E00FEFEC6FEFE00E7
:100400007EFEC0FE7E00000000000000000000082C
:1004100004020100000000000000000000000000D5
:1004200000000000000000E0FF7E060686864666AB
:10043000060606060606266646C6868606060606DC
:100440000606060686FFFE70C0C0C0C1F6F8C000F2
:10045000000000FFFF00000000FFFF00000002009E
:10046000020002000200000000FC0C1830180CFC16
:1004700000FC242404003C2424E4003C2424E40064
:10048000FC24240400FC040404F8000000FC000028
:1004900000FC00FC24243C000000020002000200DA
:1004A00002000000C0F0FEFF1F000181838380C8AE
:1004B000D8DCC0C0C0C08080808087870101010176
:1004C000000080F0FFFFFFF80303030303010000B7
:1004D000000000FFFF00000000FFFFC0C0C0C0C060
:1004E000C0C0C0C0C0D0C8C4C0C1C0C0C0C0C0C1EE
:1004F000C0C1D1C9C1C0C1C1C1C1C0C1C1C1D9C0C0
:10050000C1C1C1C1C0C1C1C1C1C0C0C8D0C0C1C1C9
:10051000C1C0C0C1C0C0C0C0C2C4C8D0C0C0C0C0BB
:10052000C0C0C0C0C0C38F7FFFFFFFFFFF3F9FCF92
:10053000EFEFEFEFCF9FBF3F7FFFFFFFFFFFFEFE1D
:10054000FCFEFFFF7F8FC7C1C0C0C0C0C0C0C0C01D
:10055000C0C0C0FFFF00000000000000000000005D
:10056000000000000000000000000000000000008B
:10057000000000000000000000000000000000007B
:10058000000000000000000000000000000000006B
:10059000000000000000000000000000000000005B
:1005A000000000000000000000030F3FFFFFFFFFFE
:1005B000FFFFFFFFFFFFFFFF7F3F3F1F1F0F0F07E3
:1005C0000703010000000000000000000000000020
:1005D000000000000000000000000000000000001B
:1005E000000000000000000000000000000000000B
:1005F00000000000000000000000000000000000FB
:1006000000000000000000000000000000000000EA
:1006100000000000000000000000000000000000DA
:1006200000000000000000000000000000010303C3
:1006300007070303010100000000000000000000A4
:1006400000000000000000000000000000000000AA
:10065000000000000000000000000000000000009A
:10066000000000000000000000000000000000008A
:10067000000000000000000000000000000000007A
:10068000000000000000000000000000000000006A
:10069000000000000000000000000000000000005A
:1006A000000000000000000000000000000000004A
:1006B000000000000000000000000000000000003A
:1006C000000000000000000000000000000000002A
:1006D000000000000000000000000000000000001A
:1006E000000000000000000000000000000000000A
:1006F00000000000000000000000000000000000FA
:1007000000000000000000000000000000000000E9
:1007100000000000000000000000000000000000D9
:1007200000000000000000000000000000000000C9
:1007300000000000000000000000000000000000B9
:1007400000000000000000000000000000000000A9
:10075000000000000000000000FF7E3C18000000C8
:1007600000183C7EFF0000000000000000000000B8
:100770000000000000000000000000000000000079
:1007800000000080C0E0F0F8FCF8F0F0FEFEFEFE95
:10079000FEFEFEF0F0F8FCF8F0E0C0800000000083
:1007A0000000000000000000000000000000000049
:1007B0000000000000000000000000000000000039
:1007C0000000000000000000000000000000000029
:1007D0000000000000000000000000000000000019
:1007E0000000000000000000C0C0C0C0C0C0C0C009
:1007F000C0C0C0C0F8FCFCF8DEDEFEDEDEF8FCFCAB
:10080000F8C0F8F8F9FFFFFFFFFFFFCFE7D3CBCB2E
:10081000CBD3E7CFFFFFFFFFFFFFF9F8F8C0C0C061
:10082000C0C0C0C0000000000000000000000000C8
:1008300000000000000000000000000000000000B8
:1008400000000000000000000000000000000000A8
:100850000000000000000000000000000000000098
:100860000000000000000000033FFCC000003078E2
:10087000484848D89000F0F8888888F8F000F8F8E0
:100880003060F8F8001818F8F8181800F0F88888A0
:1008900088F8F0000E0E003078484848D8900000E4
:1008A000C0FC9F838080808080808080808080806A
:1008B0008080808000000000000000000000000038
:1008C00000000000804030300C221D0D0D0D110D78
:1008D0000D0D0D1121212F2F122CD0101020C00032
:1008E00000000000000000000000033F3C3031B376
:1008F000F272120381E07B5B5858181BC3F07B4BEC
:1009000048C8FB3300C0701B0B080808030388E8C5
:10091000781B0B0880E078190B8AEA7A1B81E07853
:10092000D949496919016179D9C141713909C1E1CF
:10093000311D0F0300000000000000000000000057
:100940000000000087FEFEFE7E060676760686061E
:100950000606767606063E3EFEFEC782827C497E0D
:10096000000000000000000000000030383E373179
:10097000303030323330303030303033333030306C
:100980003333303030333232323230303032333150
:10099000303030323333323232333130323331303F
:1009A00030313230303030333330303C0E030100E0
:1009B0000000000000000000000000000000000037
:1009C000000000000FFFFFFFF0F8FC9C3C7D7D7CE9
:1009D0003C9CFCF8F8F8F8F8FFFFFF1F1F00000030
:1009E0000000000000000000000000000000000007
:1009F00000000000000000000000000000000000F7
:100A000000000000000000000000000000000000E6
:100A100000000000000000000000000000000000D6
:100A200000000000000000000000000000000000C6
:100A300000000000000000000000000000000000B6
:100A40000000000000F81D1D0587030707E71FBF12
:100A5000BFBF1F1FE70703030505041C1C38608088
:100A60000000000000000000000000000000000086
:100A70000000000000000000000000000000000076
:100A80000000000000000000000000000000000066
:100A90000000000000000000000000000000000056
:100AA0000000000000000000000000000000000046
:100AB0000000000000000000000000000000000036
:100AC00000000000E07F00001E03000000FF00BBEC
:100AD000BBBB0000FF00000000030F7070E00007C8
:100AE0007C7CE0000000000000000000000000002E
:100AF00000000000000000000000000000000000F6
:100B000000000000000000000000000000000000E5
:100B100000000000000000000000000000000000D5
:100B200000000000000000000000000000000000C5
:100B300000000000000000000000000000000000B5
:100B40000000009C7F3E3E3E7C7C7C7CFC47444514
:100B50004545FC7E7F7C7C7C3E3E1E1E1EFF1E307B
:100B600030305F4C300000F8A9ABFEFEAAABF903B1
:100B7000FFFF0F1B3363C38303030303FFFF030064
:100B8000FFFFC0800000000103060C18FFFF0000FB
:100B9000FFFF000103060C183060C080FFFF00005B
:100BA000FFFF0C183060C08000000001FFFF000054
:100BB000FFFFC0800000000103060C18FFFF0000CB
:100BC000FFFF000103060C183060C080FFFF00002B
:100BD000FFFF0C183060C08000000001FFFF000024
:100BE000FFFF00000000000103060C18FFFF00FFDC
:100BF000FF83114084F0FAF004002103FFFFFFFFA0
:100C0000FFFFFFFFFFFFFFFF00410800FFFFFFFFA7
:100C1000FF0301E4C48E1E1E8EC4E40103FFFFFF28
:100C2000FFC0801C3871000071381C80C0FFFF07B6
:100C30002371F8FCF8F1E3F3F9FCFCF8712307FEEB
:100C4000FCF8F0E1C3870F0F87C3E1F0F8FCFE006A
:100C50000E0EFE3E7EFEFEFEEECE8EFE0E0E000060
:100C60000000FFFCF8F0E1C3870F1FFF0000000049
:100C70000000FFF0E1C3870F1F3F7EFF0000000070
:100C80000000FFC3870F1F3F7EFCF8FF000000FF3E
:100C9000FF83114084F0FAF004002103FFFFFFFFFF
:100CA000FFFFFFFFFFFFFFFF00410800FFFFFFFF07
:100CB000FF0301E4C48E1E1E8EC4E40103FFFFFF88
:100CC000FFC0801C3871000071381C80C0FFFF0716
:100CD0002371F8FCF8F1E3F3F9FCFCF8712307FE4B
:100CE000FCF8F0E1C3870F0F87C3E1F0F8FCFEFFCB
:100CF000FF83114084F0FAF004002103FFFFFFFF9F
:100D0000FFFFFFFFFFFFFFFF00410800FFFFFFFFA6
:100D1000FF0301E4C48E1E1E8EC4E40103FFFFFF27
:100D2000FFC0801C3871000071381C80C0FFFF07B5
:100D30002371F8FCF8F1E3F3F9FCFCF8712307FEEA
:100D4000FCF8F0E1C3870F0F87C3E1F0F8FCFE0069
:100D50000000000000000000000000000000000093
:100D60000000000000000000000000000000000083
:100D70000000000000000000000000000000000073
:100D80000000008080C0C060203030909090909033
:100D900090909010103060C0808000000000000033
:100DA0000000000000000000000000000000000043
:100DB0000000000000000000000000000000000033
:100DC0000000000000000000000000000000000023
:100DD0000000000000000000000000000000000013
:100DE0000000000000000000000000000000000003
:100DF000000000000000000000000000000000F003
:100E00001C0643A15000F80C062311C9C8C80000F5
:100E100000C8C9C913260CF800030EF0000000003A
:100E200000000000000000000000000000000000C2
:100E300000000000000000000000000000000000B2
:100E400000000000000000000000000000000000A2
:100E50000000000000000000000000000000000092
:100E60000000000000000000000000000000000082
:100E70000000000000000000000000000000000171
:100E80001FF0810221F02366CC98F00101E1080CEB
:100E9000E00101F198CC466330180C070000000017
:100EA0000000000000000000000000000000000042
:100EB0000000000000000000000000000000000032
:100EC0000000000000000000000000000000000022
:100ED0000000000000000000000000000000000012
:100EE0000000000000000000000000000000000002
:100EF00000000000000000000000000000000000F2
:100F000000000103010100000000070404070404BD
:100F100007040407000000000000000000000000BB
:100F200000000000000000000000000000000000C1
:100F300000000000000000000000000000000000B1
:100F400000000000000000000000000000000000A1
:100F50000000000000000000000000000000000091
:100F600000000000000000FF010179490909FF00AD
:100F700000FF0101951111FF0000CF4979010179AE
:100F800049CF0000FF0103E644E60301FF00000033
:100F900000FF0101C14941417F0000FF010195119E
:100FA00011FF0000FF010179790101FF0000FF41FD
:100FB00041490909FF000000000000000000000096
:100FC0000000000000000000000000000000000021
:100FD0000000000000000000000000000000000011
:100FE00000000000000000030202020202020300EF
:100FF00000030202030202030000030202020202D3
:1010000002030000030202030003020203000000C7
:1010100000030202030000000000000302020302BA
:1010200002030000030202020202020300000302A4
:1010300002020202030000000000000000000000A5
:1010400000000000000000000000000000000000A0
:101050000000000000000000000000000000000090
:101060000000000000000000000000000000000080
:101070000000000000000000000000000000000070
:101080000000000000000000000000000000000060
:101090000000000000000000000000000000000050
:1010A0000000000000000000000000000000000040
:1010B0000000000000000000000000000000000030
:1010C0000000000000000000000000000000000020
:1010D0000000000000000000000000000000000010
:1010E0000000000000000000000000000000000000
:1010F00000000000000000000000000000000000F0
:1011000000000000000000000000000000000000DF
:1011100000000000000000000000000000000000CF
:1011200000000000000000000000000000000000BF
:1011300000000000000000000000000000000000AF
:10114000000000000000000000000000000000FFA0
:10115000FFFF7F3F1F8FC7C78F1F3F7FFFFFFFE34B
:10116000F1F8FCFEFFFFFFFFFFFFFEFCF8F1E3FFDD
:10117000FFFF7F3F1F8FC7E3F1F8FCFEFFFFFFFF7C
:10118000FFFFFEFCF8F1E3C78F1F3F7FFFFFFF006B
:10119000000000003E5B4F5B3E3E6B4F6B3E1C3ED3
:1011A0007C3E1C183C7E3C181C577D571C1C5E7FE7
:1011B0005E1C00183C1800FFE7C3E7FF0018241866
:1011C00000FFE7DBE7FF30483A060E26297929269B
:1011D000407F050507407F05253F5A3CE73C5A7F85
:1011E0003E1C1C08081C1C3E7F14227F22145F5FDB
:1011F000005F5F06097F017F006689956A60606015
:10120000606094A2FFA29408047E040810207E204F
:101210001008082A1C08081C2A08081E10101010A4
:101220000C1E0C1E0C30383E3830060E3E0E0600EA
:101230000000000000005F00000007000700147FAE
:10124000147F14242A7F2A12231308646236495615
:1012500020500008070300001C2241000041221C0E
:10126000002A1C7F1C2A08083E08080080703000F5
:101270000808080808000060600020100804023E0A
:101280005149453E00427F4000724949494621414B
:10129000494D331814127F1027454545393C4A49BA
:1012A00049314121110907364949493646494929F9
:1012B0001E00001400000040340000000814224109
:1012C0001414141414004122140802015909063E92
:1012D000415D594E7C1211127C7F494949363E418D
:1012E0004141227F4141413E7F494949417F0909AE
:1012F00009013E414151737F0808087F00417F4149
:10130000002040413F017F081422417F404040407F
:101310007F021C027F7F0408107F3E4141413E7FD7
:10132000090909063E4151215E7F091929462649CE
:1013300049493203017F01033F4040403F1F2040A5
:10134000201F3F4038403F631408146303047804AF
:10135000036159494D43007F414141020408102077
:10136000004141417F0402010204404040404000EE
:101370000307080020545478407F284444383844F8
:10138000444428384444287F385454541800087E74
:10139000090218A4A49C787F0804047800447D40C6
:1013A000002040403D007F1028440000417F400065
:1013B0007C047804787C080404783844444438FC7D
:1013C0001824241818242418FC7C08040408485401
:1013D00054542404043F44243C4040207C1C2040BE
:1013E000201C3C4030403C44281028444C909090B5
:1013F0007C4464544C4400083641000000770000EF
:10140000004136080002010204023C2623263C1E4D
:10141000A1A161123A4040207A38545455592155BF
:1014200055794121545478412155547840205455E0
:1014300079400C1E5272123955555559395454542D
:101440005939555454580000457C410002457D42AD
:101450000001457C40F0292429F0F0282528F07C63
:10146000545545002054547C547C0A097F49324924
:101470004949323248484832324A4848303A414174
:10148000217A3A42402078009DA0A07D394444440E
:10149000393D4040403D3C24FF2424487E4943667A
:1014A0002B2FFC2F2BFF0929F620C0887E09032053
:1014B000545479410000447D413048484A32384014
:1014C00040227A007A0A0A727D0D19317D26292977
:1014D0002F28262929292630484D40203808080879
:1014E0000808080808382F10C8ACBA2F102834FA9A
:1014F00000007B000008142A142222142A140895E4
:1015000000220095AA005500AAAA55AA55AA0000D3
:1015100000FF00101010FF00141414FF001010FF43
:1015200000FF1010F010F0141414FC001414F70055
:10153000FF0000FF00FF1414F404FC141417101F24
:1015400010101F101F1414141F00101010F00000B2
:1015500000001F101010101F10101010F0100000CD
:1015600000FF101010101010101010FF10000000DD
:10157000FF140000FF00FF00001F10170000FC0414
:10158000F414141710171414F404F40000FF00F7F7
:1015900014141414141414F700F71414141714105A
:1015A000101F101F141414F4141010F010F0000089
:1015B0001F101F0000001F14000000FC140000F0AA
:1015C00010F01010FF10FF141414FF141010101F4F
:1015D00000000000F010FFFFFFFFFFF0F0F0F0F060
:1015E000FFFFFF0000000000FFFF0F0F0F0F0F387D
:1015F000444438447C2A2A3E147E02020606027EB7
:10160000027E0263554941633844443C04407E20D5
:101610001E2006027E020299A5E7A5991C2A492AE6
:101620001C4C7201724C304A4D4D30304878483075
:10163000BC625A463D3E494949007E0101017E2A6D
:101640002A2A2A2A44445F444440514A44404044A0
:101650004A51400000FF0103E080FF000008086BD2
:101660006B083612362436060F090F0600001818CC
:101670000000001010003040FF0101001F01011E9A
:1016800000191D1712003C3C3C3C0000000000010A
:1016900002040810204080080B0002020201000929
:1016A00004000001020200000524001001052401CD
:1016B0000101042402060524060001070581031028
:1016C000004009040100020A000000070502024070
:1016D0000000070583024000000403090412010012
:1016E00002EF020140412336800001010203014163
:1016F000726475696E6F204C4C4300417264756969
:101700006E6F204C656F6E6172646F00EC1E112469
:101710001FBECFEFDAE0DEBFCDBF11E0A0E0B1E049
:10172000EAE4F3E402C005900D92A038B107D9F7BE
:1017300026E0A0E8B1E001C01D92A236B207E1F7B1
:101740001BE0C7E8DBE004C02197FE010E945720A0
:10175000C638D107C9F70E9474170C94A3210C94C2
:101760000000CF92DF92EF92FF920F931F93CF93DF
:10177000DF936C017A018B01C0E0D0E0CE15DF056C
:1017800089F0D8016D918D01D601ED91FC91019008
:10179000F081E02DC6010995892B11F47E0102C06C
:1017A0002196ECCFC701DF91CF911F910F91FF9050
:1017B000EF90DF90CF9008958091B701E091BA014A
:1017C000F091BB01882349F0CF0102969093BB01B1
:1017D0008093BA01859194910895CF0102969093D8
:1017E000BB018093BA01808191810895809180012D
:1017F0000895EFE8F6E190E1969FD001A0781124DA
:10180000A80F6770E60FF11D9491A253BE4F4423B9
:1018100019F08C91982B03C090958C9198239C93F0
:1018200008952F923F924F925F926F927F928F9284
:101830009F92AF92BF92CF92DF92EF92FF920F935F
:101840001F93CF93DF93CDB7DEB727970FB6F894EA
:10185000DEBF0FBECDBFFC016A3069F4248D808DE0
:10186000918D38E0239F800D911D1124918F808FE1
:10187000178A168AA6C06D3009F4A3C09F838E8391
:10188000348C238D2983328D3A83608C718CE68869
:10189000F78880E8E816F104C4F0AE81BF815C9659
:1018A0002C915C97422F50E056968D919C915797C2
:1018B000B6E02B9F800D911D1124EE81FF81978B47
:1018C000868B258D211167C07CC0F0E46F167104F2
:1018D00024F7C70125E0329E800D911D11241816B2
:1018E0001906DCF6432C512CC30138E0339E800DE1
:1018F000911D11241816190684F685E0689F800151
:10190000112401571E4E20E0F8012490253009F4DF
:10191000212C430158E020FC02C0398101C03A81EA
:1019200031110BC0F9818A81F81307C026945150F8
:10193000840C951C5111EFCF25C067018C2D8E1999
:101940008315A0F754018A2D88198315B8F490E8FF
:10195000C916D10478F4A0E4AA16B10458F4432FB0
:10196000B501C6012C833B835D830E94F90B5D8129
:101970003B812C81BFEFAB1ABB0AE5CFEFEFCE1A4C
:10198000DE0ADCCF2F5FE40CF51C0F5F1F4F263003
:1019900009F0BACF82CF6AEF64039001659F300DE2
:1019A000112420583F4F281739075CF4AE81BF81BE
:1019B000ED91FC9111970190F081E02D6AE0CD014D
:1019C000099581E090E027960FB6F894DEBF0FBE30
:1019D000CDBFDF91CF911F910F91FF90EF90DF90DE
:1019E000CF90BF90AF909F908F907F906F905F90BF
:1019F0004F903F902F9008950895089580E090E0D3
:101A00000895AF92BF92CF92DF92EF92FF920F9321
:101A10001F93FC01138612861586148671836083DA
:101A20005383428335832483B782A682D186C086BE
:101A300017870687F18AE08A1F910F91FF90EF9038
:101A4000DF90CF90BF90AF9008950E949E213FB746
:101A5000F8948091C6019091C701A091C801B091FE
:101A6000C90126B5A89B05C02F3F19F00196A11DFD
:101A7000B11D3FBFBA2FA92F982F8827820F911D24
:101A8000A11DB11DBC01CD0142E0660F771F881F6B
:101A9000991F4A95D1F708958F929F92AF92BF9266
:101AA000CF92DF92EF92FF926B017C010E94270D93
:101AB0004B015C01C114D104E104F104F1F00E9476
:101AC000270DDC01CB0188199909AA09BB09883EB9
:101AD0009340A105B10570F321E0C21AD108E108D5
:101AE000F10888EE880E83E0981EA11CB11CC11479
:101AF000D104E104F10419F7DDCFFF90EF90DF90FE
:101B0000CF90BF90AF909F908F9008950F920FB697
:101B10008F939F93EF93FF938091C5018D5F8D37D6
:101B200008F08D578093C501E1E8F1E080818E4F88
:101B3000808391819F4F918382818F4F82838381A4
:101B40008F4F8383E6ECF1E080818F5F808381811A
:101B50008F4F818382818F4F828383818F4F8383D5
:101B60008FB18F6066991C9B88278F3681F4809196
:101B7000FF0A981B963068F0E0E0F8E087E7808382
:101B8000818388E180936000F0936000FFCF9093A1
:101B9000FF0AFF91EF919F918F910FBE0F901895C3
:101BA0001F920F920FB60F921124CF92DF92EF92F5
:101BB000FF920F931F932F933F934F935F936F93D6
:101BC0007F938F939F93AF93BF93CF93DF93EF93C5
:101BD000FF938091C1019091C201A091C301B09186
:101BE000C401892B8A2B8B2B89F18091C001811133
:101BF0000BC098B180E4892788B98091BF01882300
:101C000019F088B1805888B98091C1019091C201C2
:101C1000A091C301B091C401181619061A061B063B
:101C20000CF0B1C08091C1019091C201A091C3019B
:101C3000B091C4010197A109B1098093C1019093AA
:101C4000C201A093C301B093C4019DC00E94DC0BEC
:101C5000811520E8920761F4809171008D7F809357
:101C6000710010929100469847981092BE018BC067
:101C700021E02093BE01813020E8920751F4809149
:101C8000BC019091BD019093BB018093BA010E9469
:101C9000DC0B97FD05C02091B901222309F43FC058
:101CA0002091B80121113BC021E02093BF01EC013C
:101CB000DF77209769F481E08093C00146983FE97F
:101CC000C32E3FE0D32EE12CF12CCAEFD0E014C09C
:101CD0008E0120E030E060E472E48FE090E0A90142
:101CE00098010E94E01F69017A0181E0C81AD108B9
:101CF000E108F1081092C001E091CE05F091CF0506
:101D00000995811103C081E08093C0018091BF01DA
:101D10008823B9F18091C001811133C003C01092B2
:101D2000BF01C5CF46992DC0479A0E94DC0B009792
:101D300071F09C01DE010E943420DC01CB0129E01E
:101D4000B595A795979587952A95D1F703C08FEFFD
:101D50009FEFDC01109290002AE020939100D09236
:101D60009900C09298008093C1019093C201A09302
:101D7000C301B093C40180917100826080937100AF
:101D800002C04798D2CFFF91EF91DF91CF91BF91E1
:101D9000AF919F918F917F916F915F914F913F9103
:101DA0002F911F910F91FF90EF90DF90CF900F90A8
:101DB0000FBE0F901F9018952D9A0895BC0180E0DA
:101DC00090E00C944C0D8FB12CB193B130E0209584
:101DD000309520743327A90123E0559547952A951E
:101DE000E1F7292F30E02095309520713327359584
:101DF000279535952795242B8095807F822B0895F4
:101E000083B7817F83BF83B7816083BF889583B7A2
:101E10008E7F83BF08958EBD00000DB407FEFDCFF9
:101E20000895FC019681962321F48581682381E041
:101E300009F480E00895CF92DF92EF92FF920F9322
:101E4000CF93DF936B017A01E20EF11CEA0157FF99
:101E500010C0C0E0D0E00DC0C217D30794F480E8F2
:101E6000C816D10428F4402FBE01C6010E94F90B08
:101E70002196970181E4E816F10474F320E430E040
:101E8000EBCFDF91CF910F91FF90EF90DF90CF904C
:101E900008958F929F92AF92BF92CF92DF92EF926E
:101EA0000F931F93CF93DF935C014A01102FEB0137
:101EB0006B01C20ED11CCC15DD054CF40E2D212F6B
:101EC000A401BE01C5010E941B0F2196F4CFDF9132
:101ED000CF911F910F91EF90DF90CF90BF90AF9077
:101EE0009F908F9008952F923F924F925F926F92A2
:101EF0007F928F929F92AF92BF92CF92DF92EF929A
:101F0000FF920F931F93CF93DF9300D000D000D0A8
:101F1000CDB7DEB74C0107EA11E0612C712CA0EDC2
:101F20004A2EA5E05A2EBAE2AB2EB12C22242A94D6
:101F3000322C93E0C92ED12CE12CF12C8FE090E0D3
:101F40000E9471209E838D83DC011C961C921E9240
:101F50001B9718965C924E9217971E969C928E92A3
:101F60001D97C30180589F4F12969C938E93119793
:101F70001496BC92AE9213971A963C922E92199791
:101F80001C920E94BC1FA70196010E94E01FED81D8
:101F9000FE8176836583D801ED93FD938D01B8E1D1
:101FA0006B0E711CE0E96E16710441F6FFE92F2EED
:101FB000F1E03F2E612C712C8FEF9FEF9A83898384
:101FC0001C821B8282E190E00E9471202C01A301FF
:101FD0004C5E5F4FA980BA80CB80DC80EFE6EE2EAE
:101FE000E1E1FE2E08E210E02AE230E060ED75E06B
:101FF0000E94010DD1014D925D921D01B8E26B0E60
:10200000711CE0EA6E167104B9F6412C512C66245D
:102010006A94762C82E190E00E9471201C01630199
:1020200052019FE4E92E91E1F92E00E210E025E053
:1020300030E047E050E060ED75E0C1010E94010D25
:1020400030929C0120929B01412C512C66246A9471
:10205000762C82E190E00E9471201C016301520104
:1020600025E230E047E050E060ED75E00E94010DB0
:1020700030929E0120929D01412C512C66246A943D
:10208000762C82E190E00E9471201C0163015201D4
:1020900025E030E040E250E060ED75E00E94010D87
:1020A0003092980120929701412C512C66246A9419
:1020B000762C82E190E00E9471201C0163015201A4
:1020C00025E230E040E250E060ED75E00E94010D55
:1020D00030929A0120929901412C512C66246A94E5
:1020E000762C82E190E00E9471201C016301520174
:1020F00025E030E049E350E060ED75E00E94010D1D
:102100003092940120929301412C512C66246A94C0
:10211000762C82E190E00E9471201C016301520143
:1021200025E230E049E350E060ED75E00E94010DEA
:10213000309296012092950186E090E00E947120F5
:10214000FC0180ED95E09383828389E390E09583A1
:10215000848311821082F0939201E093910177E8D9
:10216000E72E71E0F72E00ED15E08DE090E00E9483
:102170007120FC0112861186148613861283018356
:10218000948283821082D7018D939D937D01B1E962
:10219000EB16B1E0FB0649F710928601109285011B
:1021A00082E090E0909301018093000126960FB6A3
:1021B000F894DEBF0FBECDBFDF91CF911F910F917D
:1021C000FF90EF90DF90CF90BF90AF909F908F9057
:1021D0007F906F905F904F903F902F900895EF9277
:1021E0000F93CF93DF93EC014C815D818C859D85AE
:1021F000480F591F6A817B818A859B85680F791FEB
:1022000088819981E12C00E120E104960E94490F28
:10221000488959896C817D818C859D85680F791FDE
:10222000EA81FB818A859B8520E18E0F9F1F0E949A
:102230007F124A855B858E819F81480F591F5B877E
:102240004A878C859D8528853985820F931F9D87B8
:102250008C87840F951F97FF03C0919581959109F5
:102260002E853F858217930724F01B861A861D86CC
:102270001C86DF91CF910F91EF900895FC01809122
:10228000CD01811103C08FEF9FEF08959FB7F894A0
:1022900082E08093E9002091F20030E012161306EC
:1022A00014F421E030E02115310559F0289884E636
:1022B0008093CC018091F10080838091F20088238B
:1022C00019F09FBFC90108958BE68093E800F9CF0C
:1022D0002FB7F89483E08093E9009091E800892F6C
:1022E000807295FF04C09091F20080E4891B2FBF9B
:1022F0000895CF93DF931F92CDB7DEB76983DC01DA
:10230000ED91FC910280F381E02D41E050E0BE01AF
:102310006F5F7F4F09950F90DF91CF91089583E014
:102320008093E9008091F200882319F08AE380937A
:10233000E80008950E94681190E00895CF93DF931C
:102340001F92CDB7DEB7FC018485958597FD05C04A
:102350002FEF3FEF358724870BC0CE0101960E94F7
:102360003E11019719F4898190E002C08FEF9FEF31
:102370000F90DF91CF9108950F931F93CF93DF9329
:102380001F92CDB7DEB78C01FC018485958597FF40
:102390000EC0CE0101960E943E11019719F42981C9
:1023A00030E002C02FEF3FEFF80135872487F801B6
:1023B000848595850F90DF91CF911F910F9108959E
:1023C000FC018485958597FD0BC09FB7F89482E04A
:1023D0008093E9008091F2009FBF90E001960895FC
:1023E0009FB7F89482E08093E9008091F2009FBF4C
:1023F00090E008958F929F92AF92BF92CF92DF921A
:10240000EF92FF920F931F93CF93DF935C016B01C9
:102410007A0180910B01882309F45BC08091CD0182
:10242000882309F456C08091CB0180FF05C08091BC
:10243000E00082608093E000E70110E00AEF83E0B3
:10244000882E9AE3992E2097D9F10E946811811164
:102450000AC0015009F43DC061E070E080E090E006
:102460000E944C0DF0CF282F30E0C217D3070CF498
:102470008C2F4FB7F8948092E9009091E80095FF77
:102480001DC0282F30E0C21BD30BF601982F9150AE
:1024900020F081918093F100FACFC20ED31E112358
:1024A00019F09092E80009C08091E80085FD06C00F
:1024B0009092E80011E0209709F010E04FBFC3CFE1
:1024C0001111C3CF5D9884E68093CA011E141F04C6
:1024D00044F081E090E0F5019383828380E090E016
:1024E00001C0C701DF91CF911F910F91FF90EF9035
:1024F000DF90CF90BF90AF909F908F9008952F92D4
:102500003F924F925F926F927F928F929F92AF9283
:10251000BF92CF92DF92EF92FF920F931F93CF93D0
:10252000DF93CDB7DEB728970FB6F894DEBF0FBEA6
:10253000CDBF5A01822E912C9C01280D391D37FDEB
:10254000C4C0803891050CF0C0C09B01200F311D24
:1025500037FDBBC0603471050CF0B7C0AB0177FF2D
:1025600004C044275527461B570B477055279B012E
:1025700077FF02C0295F3F4FE3E035952795EA9545
:10258000E1F777FF08C02150310968E070E0DB0116
:10259000A41BB50BAD01602F66956695669570E03E
:1025A000077011F06F5F7F4FDB01A20FB31FBA837B
:1025B000A98339017694762C662477946794680E03
:1025C000791EE12CF12C00E010E02301B0E84B0E65
:1025D000511C68E070E0DB01A41BB50BBC83AB832E
:1025E00069817A812617370709F46FC028303105D1
:1025F00009F46BC02F3FBFEF3B070CF45BC0B20187
:10260000600F711FDB01A253BE4FBE83AD83D801A3
:10261000A60DB71DA253BE4F6C0160E070E06815B7
:1026200079050CF047C0E0E8CE16D10409F442C0A9
:10263000D7FC34C02F3FFFEF3F0709F442C0FB0136
:10264000EE0DFF1DEA0DFB1DE491042E01C0EE0FFF
:102650000A94EAF73C90E329EC9341155105F1F017
:1026600027303105D9F0FB01EE0DFF1DEA0DFB1DF2
:10267000E4912E2E312CF1010B8002C0F595E795E7
:102680000A94E2F7F887EF83ED81FE813080EF81D5
:10269000F885E3291F01ED81FE8120826F5F7F4F66
:1026A000ED81FE813196FE83ED83FFEFCF1ADF0AC5
:1026B0001196B5CF2F5F3F4F00581F4FE80CF91C04
:1026C0008FCF4115510579F6E9CF28960FB6F894CA
:1026D000DEBF0FBECDBFDF91CF911F910F91FF9055
:1026E000EF90DF90CF90BF90AF909F908F907F90B2
:1026F0006F905F904F903F902F900895009769F0F2
:10270000FC0101900020E9F73197AF01481B590BFC
:10271000BC0180ED95E00C94B10B80E090E0089551
:102720008F929F92AF92BF92CF92DF92EF92FF92E1
:102730000F931F93CF93DF93CDB7DEB7A1970FB65B
:10274000F894DEBF0FBECDBF6C01990FEE08FF08F5
:10275000F7FE31C0E091D005F091D1050190F081F4
:10276000E02D6DE280ED95E009958C01222733275D
:10277000A9012C193D094E095F0919A2CE018196C4
:102780007C019AE0892E912CA12CB12CCA01B901AF
:10279000A50194010E941220605DF70162937F0100
:1027A000211531054105510589F7CF010E947E139E
:1027B000800F911F1DC0A701960119A28E010F5D08
:1027C0001F4F8AE0C82ED12CE12CF12CCA01B9018F
:1027D000A70196010E941220605DF80162938F01AB
:1027E000211531054105510589F7CF010E947E135E
:1027F000A1960FB6F894DEBF0FBECDBFDF91CF918B
:102800001F910F91FF90EF90DF90CF90BF90AF900E
:102810009F908F90089580E0EEECF1E081118FEFB2
:10282000002481938193819381930394D1F7089538
:102830008091CE018EBDEFECF1E081910DB407FEE9
:10284000FDCF8EBD85E0EE3CF807B9F70DB407FE6D
:10285000FDCF08958091F20581110DC082E0809333
:10286000EE0584E08093EF051092F1051092F005DB
:1028700081E08093F2058EEE95E0089540915C062C
:1028800050915D0620915A0630915B06421753071E
:10289000B4F49091E8009570E1F39091E80092FD16
:1028A00019C08093F10080915C0690915D060196BD
:1028B0008F739927892B19F48EEF8093E80080910C
:1028C0005C0690915D06019690935D0680935C0690
:1028D00081E0089580E00895DF92EF92FF920F93D8
:1028E0001F93CF93DF93D82E8A017B01E40EF51E50
:1028F000EB01CE15DF0571F0D7FE03C0FE01849118
:1029000001C088810E943E1421968111F2CF8FEF81
:102910009FEF01C0C801DF91CF911F910F91FF90F0
:10292000EF90DF900895615030F02091F100FC01AC
:1029300020830196F8CF289884E68093CC010895EF
:102940000F931F93CF93DF931F92CDB7DEB782E033
:10295000898342E450E067E976E180E80E946C14E4
:102960000E942A14DC0112960D911C9113970115F7
:10297000110569F0D801ED91FC910280F381E02D01
:10298000BE016F5F7F4FC801099597FF07C089811E
:102990000F90DF91CF911F910F910895F80100855D
:1029A0001185E5CF1F920F920FB60F9211248F93CE
:1029B0009F938091E1009091E100937F9093E100DB
:1029C00083FF0FC01092E90091E09093EB0010920A
:1029D000EC0092E39093ED001092CD0198E090937B
:1029E000F00082FF20C093E09093E9009091F20004
:1029F000992319F09AE39093E8009091CA019923E2
:102A000039F09091CA0191509093CA01992389F1AC
:102A10009091CC01992339F09091CC0191509093F1
:102A2000CC01992341F184FF10C08091E2008E7E99
:102A300081608093E2008091E1008F7E8093E100CD
:102A40008091CB018E7E806111C080FF16C0809185
:102A5000E2008E7E80618093E2008091E1008E7EB4
:102A60008093E1008091CB018E7E81608093CB01C9
:102A700004C05D9ACDCF289AD6CF9F918F910F90A9
:102A80000FBE0F901F9018951F920F920FB60F92C6
:102A90001124CF92DF92EF92FF920F931F932F9307
:102AA0003F934F935F936F937F938F939F93AF93D6
:102AB000BF93EF93FF93CF93DF93CDB7DEB76C97C0
:102AC000DEBFCDBF1092E9008091E80083FFEDC129
:102AD00068E0CE0145960E94931482EF8093E8004F
:102AE0008D8987FF05C09091E80090FFFCCF03C05F
:102AF0009EEF9093E800982F907609F0C6C09E89CB
:102B00002F89188D91110CC0803829F480915906B5
:102B10008093F10002C01092F1001092F10048C1C0
:102B2000422F50E0512B913051F4811141C141307D
:102B3000510509F03DC1809159068D7F0BC093303E
:102B400061F4811135C14130510509F031C18091E5
:102B500059068260809359062BC1953041F48091CB
:102B6000E80080FFFCCF20682093E30021C196306D
:102B700009F05FC0EB8CFC8C1092E90010925D06AE
:102B800010925C06123091F510925B0610925A0674
:102B90000E94A01499E0BE016F5F7F4FDB01E92F17
:102BA0001D92EA95E9F799831A8391E09E8390EA52
:102BB00098879AEF998720915C0630915D06275F90
:102BC0003F4F3C832B838D831092E90010925D066A
:102BD00010925C06F0925B06E0925A0649E050E0E3
:102BE00080E00E946C140E94A014E2C0F0925B0688
:102BF000E0925A060E942A14DC011296ED90FC9095
:102C00001397E114F10409F4C0C0D701ED91FC91D0
:102C10000480F581E02DBE016B5E7F4FC7010995F1
:102C2000009719F00CF0C4C0C7C0F701E084F1842C
:102C3000E8CF973009F4C0C0983021F481E0809348
:102C4000F100B6C0993009F0B3C0837009F0B4C088
:102C5000E3E5F1E081E021E036E39081992361F042
:102C60008093E9002093EB0091919093EC003093D6
:102C7000ED008F5F873089F78EE78093EA0010922E
:102C8000EA008F898093CD0193C08B8D9C8D10922B
:102C9000E90010925D0610925C0690935B068093AB
:102CA0005A06898D811156C08E899D89913A59F4B1
:102CB000813209F081C047E050E064E071E080E0DB
:102CC0000E946C1475C0913209F076C0833289F489
:102CD000888D90E0982F88272F89822BA0E0B0E084
:102CE00080930C0190930D01A0930E01B0930F01FE
:102CF0005FC0803269F48091E80082FFFCCF67E01A
:102D000084E091E00E9493148BEF8093E80006C06A
:102D1000823209F04DC08F8980930B018091580653
:102D2000882319F0EEEFFAE002C0E0E0F8E08091CD
:102D3000040190910501A0910601B0910701803B2B
:102D40009440A105B10509F07BC080910B0180FF83
:102D500093C076C00E942A14DC0112960D911C913A
:102D600013970115110541F1D801ED91FC910190E6
:102D7000F081E02DBE016B5E7F4FC8010995811186
:102D800017C0F80100851185ECCF113009F44EC051
:102D9000133091F48F89882309F445C0823081F47F
:102DA00040E860E18BEF96E10E94311F882321F01B
:102DB0008EEF8093E80079C081E28093EB0075C0CC
:102DC000813029F440E86BE08FEE96E1EDCF83305F
:102DD00099F70E942A14DC011296ED90FC9013974B
:102DE0008E010F5F1F4F6801E114F10479F0D701E4
:102DF000ED91FC910680F781E02DB801C70109959E
:102E0000080F111DF701E084F184EECFD8011C9268
:102E1000F60101900020E9F73197BF016C197D0997
:102E200040E0C601C1CF69ED76E102C06DED76E10B
:102E30006115710509F2FB01449150E080E840CF33
:102E40000FB6F894A8958091600088618093600027
:102E5000109260000FBEA895EE3F2AE0F20739F00D
:102E60008091FE0A9091FF0A91838083A1CF1092F6
:102E7000FF0A1092FE0A9CCFEE3F8AE0F80731F07D
:102E8000808191819093FF0A8093FE0A87E797E7FC
:102E9000918380839BE088E10FB6F894A895809396
:102EA00060000FBE9093600083CF6C960FB6F894CD
:102EB000DEBF0FBECDBFDF91CF91FF91EF91BF91EC
:102EC000AF919F918F917F916F915F914F913F91C2
:102ED0002F911F910F91FF90EF90DF90CF900F9067
:102EE0000FBE0F901F901895CF93DF9300D000D0A6
:102EF0001F92CDB7DEB7789484B5826084BD84B567
:102F0000816084BD85B5826085BD85B5816085BDE4
:102F100080916E00816080936E001092810080919C
:102F20008100826080938100809181008160809324
:102F30008100809180008160809380008091910069
:102F400082608093910080919100816080939100D4
:102F5000809190008160809390008091C100846096
:102F60008093C1008091C10082608093C1008091F4
:102F7000C10081608093C1008091C3008160809313
:102F8000C3008091C00082608093C0008091C20025
:102F900081608093C20080917A00846080937A007F
:102FA00080917A00826080937A0080917A008160BB
:102FB00080937A0080917A00806880937A001092E2
:102FC000CD01109259061092CB018091D7008160FB
:102FD0008093D70080EA8093D80089B5806189BD4D
:102FE00089B5826089BD09B400FEFDCF61E070E063
:102FF00080E090E00E944C0D8091D8008F7C806131
:103000008093D8008091E000807F8093E0008091E1
:10301000E1008E7E8093E1008DE08093E200559A7E
:10302000209AEEEFFFE7859194918B3F9C4D19F428
:1030300081E08093580681EC80937C0085B1806F9D
:1030400085B9249884B1866E84B95E9A5F988AB1F6
:10305000806D8AB9769A6E9881B3806F81BB8998AA
:1030600080B38D7080BB80E58CBD81E08DBD85E037
:1030700090E00E94DE0E5F9A85E090E00E94DE0EF6
:103080005E985C986AE6C62E61E0D62E1DE01C0DA7
:10309000F60184910E940B0FFFEFCF1ADF0A1C117B
:1030A000F7CF5C9A81E88093640081E080936500AB
:1030B00000E014E080E00E940B0F01501109D1F7ED
:1030C0000E94E30E87FF1FC05C9885EA0E940B0FE9
:1030D0005C9A2E982F982D9880916400806280933E
:1030E00064000E94000FFDCF2D980E94E30E8478AB
:1030F000843871F00E94E30E8471843131F188ECE0
:1031000090E00E94DE0E0E94E30E82FDEDCF3AC0F9
:103110000E94DC0E88EC90E00E94DE0E2F9882E088
:1031200090E00E94CA1F8F3F29F06FEF82E090E08D
:103130000E94D21F84EF91E00E94DE0E2F9A0E941F
:10314000E30E84788438D9F3D5CF0E94DC0E88EC66
:1031500090E00E94DE0E2E9882E090E00E94CA1F4E
:10316000882329F060E082E090E00E94D21F84EF83
:1031700091E00E94DE0E2E9A0E94E30E847184314B
:10318000D9F3BDCF0E94DC0E82E090E00E94CA1FFE
:10319000882331F03E9A3F9A81E08093800104C0F9
:1031A000109280013E983F982E985EEEC52EDD2449
:1031B000DA940E94E30E86FF04C02E9A2F9A2D9A6D
:1031C0003FC02CEFC2162FEFD20619F42E9A2F987B
:1031D00006C088E1C816D10411F42F9A2D980E94D8
:1031E0000B1400E128E54AEB50E0B60184E190E0E1
:1031F0000E947F120E9418148BE190E00E94DE0E64
:1032000090EFC9169FEFD90621F48AEF90E00E9453
:10321000DE0EAFEFCA1ADA0AB9E1CB16D10449F6CD
:103220008CEB92E00E94DE0E0E94DC0EE091D40551
:10323000F091D5050190F081E02D84ED95E00995A0
:1032400082E390E00E94DE0E0E94E30E8111F8CF2F
:103250008BE18093DB05809164008E7F8093640016
:1032600080917A00806480937A0080917A0086FD54
:10327000FCCF00917800109179000E94270D20E08A
:1032800030E0980111270027600F711F821F931FE4
:10329000611571058105910511F00E94C11F809192
:1032A000640081608093640082E090E00E9471205D
:1032B00022E030E0FC01318320839093B6018093BB
:1032C000B5010E94730F83E0882E912CA12CB12CA4
:1032D00022242394312C8FEE91E0FEE3F80FF98342
:1032E0008FE695E02EE3F22EF80E2FB7F89480913A
:1032F000810190918201A0918301B09184012FBF3F
:103300004091E0055091E1056091E2057091E3057F
:103310002091E405222341F02091DC05821B80935B
:10332000E5051092E40504C584179507A607B707BD
:1033300038F4481B423008F4FBC40E94000FF8C464
:1033400021E02093E4058093DC059093DD05A093B4
:10335000DE05B093DF052091DB05820F911DA11DD5
:10336000B11D8093E0059093E105A093E205B09331
:10337000E3058091D7059091D80501969093D805E3
:103380008093D7050E940B141092E9051092E8056E
:103390001092E7051092E6058091D9058093DA0531
:1033A0000E94E30E8093D905C090B501D090B6017C
:1033B000D6014D905C90B7E04B16510408F0B6C4AE
:1033C000F201EA5AFF4F0C945720EFEEF1E076C479
:1033D00000E420E84FE45DE06AE070E080E090E027
:1033E00097C407EA11E0D8018D919D918D010E944B
:1033F0000621B1E0033B1B07B1F70FE911E0F8012B
:10340000819191918F010E940621F1E0073A1F07F7
:10341000B1F780919B0190919C010E9406218091BF
:103420009D0190919E010E940621809197019091AB
:1034300098010E9406218091990190919A010E9421
:10344000062180919301909194010E940621809120
:103450009501909196010E94062180919101909191
:1034600092010E94062107E811E0D8018D919D91FB
:103470008D010E940621B1E001391B07B1F7C60199
:103480000E94730FF6011182108250C468E084ED2F
:1034900095E00E94110F882309F452C0E091910138
:1034A000F091920140815181E7EAF1E09A01220F07
:1034B000331FB901605E7E4FC190D190D6018C91CF
:1034C0008823C9F111968D919C911297DB010D9182
:1034D0001C91801B910B0996439768F5F6011082A9
:1034E00007E811E0F801A191B1918F016C91611190
:1034F0001DC0F6018581968116969C938E93159733
:1035000018965C934E931797F901E65EFE4F808103
:1035100091811A969C938E9319978EE190E01C9658
:103520009C938E931B9781E08C930AC0F1E0013944
:103530001F07C1F605C081E0E33BF80709F0BCCFE7
:1035400000E420E14FE65BE064E170E08EE690E0AD
:103550000E947F1220E14FE65BE06EE170E085E5BE
:1035600090E00E947F12EE24E39404E124E145E020
:1035700050E065E070E084ED95E00E94490F24E1A1
:1035800045E050E06EE170E084ED95E00E94490F67
:1035900024E145E050E067E370E084ED95E00E94AF
:1035A000490F01E124E148E150E065E070E084ED7D
:1035B00095E00E94490F24E148E150E06EE170E09F
:1035C00084ED95E00E94490F24E148E150E067E373
:1035D00070E084ED95E00E94490F80919B019091ED
:1035E0009C010E94EF1080919D0190919E010E948C
:1035F000EF1080919701909198010E94EF108091B7
:10360000990190919A010E94EF10809193019091FD
:1036100094010E94EF1080919501909196010E9473
:10362000EF10E12C06E125E347E250E06BE470E0A7
:1036300084ED95E00E94490FEE24E39404E122E832
:1036400048E250E06FEF7FEF84ED95E00E94490F74
:103650000FE911E0D8018D919D918D010E94EF102D
:10366000B1E0073A1B07B1F7E12C05E020E840E0A4
:1036700050E060E070E084ED95E00E94490F08E0C2
:1036800028E047E65BE067E070E080E590E00E94BC
:103690007F128AE590E09093E7058093E60587E046
:1036A00090E09093E9058093E80589E591E00E9418
:1036B0007E1380918501909186010E94901317EAF4
:1036C000C12E11E0D12E11E0F601619071906F01D1
:1036D000D30111968D919C911297813F9F4FCCF50C
:1036E000F3018081882329F00584F685E02D31825D
:1036F00020822091000130910101032E000C440B27
:10370000550B12161306140615061CF0D3011C9354
:1037100010C02A833B834C835D830E94BC1F2A8197
:103720003B814C815D810E94E01F672B682B692BD8
:1037300069F380E890E0F301928381830E94BC1FCB
:10374000A50194010E94E01FD30116967C936E930D
:103750001597F3016181728181859285680F791FC8
:10376000728361834381548183859485480F591FF7
:103770005483438380818823D9F14150510961509A
:10378000710987819085E12C02E122E104960E9473
:10379000490FD30115968D919C9116978130910513
:1037A00071F082309105A9F0892B11F513966D9176
:1037B0007C91149700E120E14FE25CE013C0F3013B
:1037C0006381748100E120E14FE05CE081819281BE
:1037D0000DC0D30113966D917C91149700E120E107
:1037E0004FEE5BE011968D919C9112970E947F1293
:1037F000B3EBCB16B1E0DB0609F066CFC0909101C8
:10380000D0909201F60184819581893391051CF451
:10381000029695838483D60114968D919C91159779
:10382000CA9734F089E390E015969C938E93149791
:10383000F60162807380F4E06F0E711C60E4C301D6
:103840000E94110F882359F0D6018D919C91019609
:1038500063E070E00E944320F6019183808360E280
:10386000C3010E94110F882359F0D6018D919C91BC
:10387000029663E070E00E944320F601918380830A
:10388000D60114968D919C911597C99731F468E0F3
:10389000C3010E94110F811153C2F6014481558169
:1038A0000190F081E02DEE0FFF1FEA5DFE4F608179
:1038B0007181E12C05E020E1C3010E94490FD6018E
:1038C00014964D915C9115974C5F5F4FED91FC9173
:1038D0001197EE0FFF1FEA5DFE4F608171816E5FF1
:1038E0007F4F12968D919C9113970CE12CE00496DA
:1038F0000E94490FF601648175810190F081E02DED
:10390000EE0FFF1FEA5DFE4F00E220E14FE45CE0B6
:10391000808191810E947F12B7E8CB2EB1E0DB2E2F
:10392000D6016D907D906D01F3018081882309F4AB
:103930005EC0838594858830910524F00197948733
:10394000838718C02581368187819085281739079C
:1039500031F00380F481E02D3182208209C0809112
:10396000850190918601019690938601809385014F
:10397000F3011082D3011B964D915C911C9741502D
:10398000510919966D917C911A97615071091196A0
:103990008D919C911297E12C02E122E104960E9404
:1039A000490FF301858196818130910561F0823064
:1039B000910591F0892BD9F46385748500E120E1AC
:1039C0004FEC5CE010C06385748500E120E14FEAB4
:1039D0005CE08185928509C0F3016385748500E10F
:1039E00020E14FE85CE0818592850E947F12F1E939
:1039F000CF16F1E0DF0609F093CFE12C02E122E1DE
:103A000046E050E066E070E084ED95E00E94490FEA
:103A100000E120E14FE25DE067E070E087E090E0E8
:103A20000E947F1202E122E146E050E06FE170E087
:103A300084ED95E00E94490F00E120E14FE05DE058
:103A400067E070E080E290E00E947F1202E122E1F4
:103A500046E050E068E370E084ED95E00E94490F95
:103A600000E120E14FEE5CE067E070E089E390E088
:103A70000E947F1280918501909186011816190687
:103A80000CF054C18E31910544F461EF7FEF0E9438
:103A900043202B0122E0420E511C50920101409222
:103AA000000144C100E420E847E657E060E070E030
:103AB00080E090E00E947F1260E284ED95E00E9439
:103AC000110F882369F08091B3019091B40102969F
:103AD00063E070E00E9443209093B4018093B301AF
:103AE00060E484ED95E00E94110F882369F08091D5
:103AF000B3019091B401019663E070E00E9443200D
:103B00009093B4018093B30108E028E04FE557E0BB
:103B10006FE270E08AE090E00E947F1228E047E5C3
:103B200057E06FE270E088E390E00E947F1280919E
:103B3000B3019091B401009779F487E190E09093FC
:103B4000E7058093E6058FE290E09093E905809386
:103B5000E8058BE591E022C08130910579F484E19C
:103B600090E09093E7058093E6058FE290E09093D4
:103B7000E9058093E80581E691E010C0029781F4A1
:103B800084E190E09093E7058093E6058FE290E072
:103B90009093E9058093E80587E691E00E947E1303
:103BA00068E084ED95E00E94110F882309F4BEC0FF
:103BB0008091B3019091B401009719F483E090E0F3
:103BC0000BC08130910519F486E090E0ACC00297FB
:103BD00009F0ACC084E090E0D6018D939C93A6C020
:103BE0008EE190E0909303018093020185E090E0E4
:103BF0009AC08091020190910301181619061CF4D5
:103C00002E982F9A2D9A00E420E847E553E060E0D3
:103C100070E080E090E00E947F1280918501909199
:103C200086018A30910544F0843691053CF0883E47
:103C3000934034F03FE505C030E503C035E501C0F1
:103C40003AE520E0832F922F959587959195819560
:103C50009109C7969093E7058093E60582E390E08B
:103C60009093E9058093E8058EE691E00E947E132B
:103C700080918501909186010E94901388E791E0E0
:103C80000E947E1380910201909103019C012150BA
:103C900031093093030120930201181619060CF420
:103CA00045C02E9A2F9A2D9A68E084ED95E00E94E7
:103CB000110F8823D9F182E090E08ECFB981BE1731
:103CC00021F0808182608193F9CFEFE6F5E0FE1666
:103CD00021F0808180648193FACF01E02EE341E0FE
:103CE00050E061E270E084ED95E00E941B0F2EE34E
:103CF00041E050E06EE570E084ED95E00E941B0F1E
:103D00000CE32CE347E751E062E070E082E290E0F0
:103D10000E947F1264E084ED95E00E94110F8823D9
:103D200029F082E090E0F601918380830E941814CC
:103D300080E090E0892B09F4D8CA0E940000D5CA1F
:103D40008DE290E0D60115969C938E931497A5CDA5
:103D50000F931F93CF93DF938C0181E090E00E943B
:103D6000CA1F80FF31C08AE090E00E94CA1F9FEF07
:103D7000980F9E3F48F522E330E0D80157963C93D8
:103D80002E93569728E330E059963C932E935897FC
:103D9000CBE0D0E0D801ED91FC910190F081E02DD5
:103DA000682FC8010995CE010E94CA1F2196C13112
:103DB000D10581F70E94181488EE93E0DF91CF912E
:103DC0001F910F910C94DE0EDF91CF911F910F91F7
:103DD000089504970C94A81EEAEFF5E0138212826E
:103DE00088EE93E0A0E0B0E084839583A683B78358
:103DF00080E391E0918380838FEF9FEF95878487A5
:103E0000E0EDF5E0138212821186128620E123870D
:103E100090878783108A118A128A138A148A82E40F
:103E200091E09183808380E591E095838483178A74
:103E3000168A118E108E81E0828F138E848F158EDC
:103E400086EF9BE09093CF058093CE0580E090E8CD
:103E5000909357068093560646983E9A47983F9A05
:103E60000895CF92DF92EF92FF920F931F93CF931B
:103E7000DF931F92CDB7DEB7182F062FE42E862FC3
:103E8000880F8E5F99830E943E1483E00E943E1447
:103E9000F12EC12E9981D92E8C2D8F19801798F46F
:103EA000F601E7FE02C0849101C080810E943E14A9
:103EB000182F80E00E943E148123FFEFCF1ADF0A03
:103EC0008111EACF01C081E00F90DF91CF911F9166
:103ED0000F91FF90EF90DF90CF9008958F929F9277
:103EE000AF92BF92CF92DF92EF92FF92CF93DF9388
:103EF000EC01688179818A819B8161157105810559
:103F0000910521F464E279ED8BE597E02DE133EF43
:103F100041E050E00E94E01F49015A019B01AC01C1
:103F2000A7EAB1E40E94FF1F6B017C01ACEEB4EF85
:103F3000A50194010E940D20DC01CB018C0D9D1D7B
:103F4000AE1DBF1DB7FF03C00197A109B04888830C
:103F50009983AA83BB83BC01CD019F77DF91CF9169
:103F6000FF90EF90DF90CF90BF90AF909F908F9099
:103F700008950E946E1F089580E191E00E946E1FD7
:103F80000895609310017093110180931201909332
:103F900013010895F999FECF92BD81BDF89A992732
:103FA00080B50895262FF999FECF1FBA92BD81BD25
:103FB00020BD0FB6F894FA9AF99A0FBE01960895AB
:103FC000052E97FB1EF400940E94F71F57FD07D0A3
:103FD0000E94122007FC03D04EF40C94F71F50955A
:103FE0004095309521953F4F4F4F5F4F08959095E5
:103FF0008095709561957F4F8F4F9F4F08950E94D8
:104000003420A59F900DB49F900DA49F800D911D0D
:1040100011240895B7FF0C94FF1F0E94FF1F821BFD
:10402000930B0895A1E21A2EAA1BBB1BFD010DC024
:10403000AA1FBB1FEE1FFF1FA217B307E407F50758
:1040400020F0A21BB30BE40BF50B661F771F881F34
:10405000991F1A9469F760957095809590959B01CA
:10406000AC01BD01CF010895A29FB001B39FC00173
:10407000A39F700D811D1124911DB29F700D811D94
:104080001124911D089597FB072E16F4009407D074
:1040900077FD09D00E945D2007FC05D03EF4909585
:1040A00081959F4F0895709561957F4F0895EE0F0C
:1040B000FF1F0590F491E02D0994AA1BBB1B51E151
:1040C00007C0AA1FBB1FA617B70710F0A61BB70B88
:1040D000881F991F5A95A9F780959095BC01CD012D
:1040E0000895CF93DF938230910510F482E090E041
:1040F000E0916006F091610620E030E0C0E0D0E0A1
:10410000309711F14081518148175907C0F0481785
:10411000590761F482819381209719F09B838A83E8
:104120002BC0909361068093600626C0211531054F
:1041300019F04217530718F49A01BE01DF01EF018D
:104140000280F381E02DDCCF2115310509F1281B18
:10415000390B2430310590F412968D919C91139770
:104160006115710521F0FB019383828304C0909354
:10417000610680936006FD01329644C0FD01E20FA6
:10418000F31F81939193225031092D933C933AC0B0
:1041900020915E0630915F06232B41F42091160199
:1041A0003091170130935F0620935E062091140131
:1041B000309115012115310541F42DB73EB74091DD
:1041C000180150911901241B350BE0915E06F09106
:1041D0005F06E217F307A0F42E1B3F0B28173907E1
:1041E00078F0AC014E5F5F4F2417350748F04E0F53
:1041F0005F1F50935F0640935E068193919302C0C8
:10420000E0E0F0E0CF01DF91CF9108950F931F938D
:10421000CF93DF93009709F48CC0FC01329713828F
:10422000128200916006109161060115110581F45A
:1042300020813181820F931F20915E0630915F06AD
:104240002817390779F5F0935F06E0935E0671C091
:10425000D80140E050E0AE17BF0750F412962D9100
:104260003C911397AD012115310509F1D901F3CF27
:104270009D01DA013383228360817181860F971F4C
:104280008217930769F4EC0128813981260F371FC3
:104290002E5F3F4F318320838A819B81938382836A
:1042A000452B29F4F0936106E093600642C0139613
:1042B000FC93EE931297ED01499159919E01240FC1
:1042C000351FE217F30771F480819181840F951FE8
:1042D000029611969C938E938281938113969C9360
:1042E0008E931297E0E0F0E0D80112968D919C91A8
:1042F0001397009719F0F8018C01F6CF8D919C91DE
:1043000098012E5F3F4F820F931F20915E063091E0
:104310005F062817390769F4309729F4109261066F
:104320001092600602C01382128210935F060093FF
:104330005E06DF91CF911F910F91089581E090E08B
:10434000F8940C94A321F894FFCF03001E0000E121
:10435000000000000000FFFFFFFF01000000000060
:1043600062068000070020003900070020003900A5
:10437000070020003900000000007911FA119A119D
:104380008F11E0119E11BC1100000000110CB10B47
:10439000FE0CFD0CA81EFCFF0000E91E00C1808180
:1043A0000000003A005354415254002048454C50FC
:1043B0000043524544495400594F552057524150EB
:1043C00020002047494654530000FFFFFFFFFFFF36
:1043D000FFFFFFFFFFFFFFFFFFFFFFFFFFFFFFFFED
:1043E000FFFFFFFFFFFFFFFFFFFFFFFFFFFFFFFFDD
:1043F000FFFFFFFFFFFFFFFFFFFFFFFFFFFFFFFFCD