:100000000C94A6010C94CE010C94CE010C94CE015C
:100010000C94CE010C94CE010C94CE010C94CE0124
:100020000C94CE010C94CE010C94A9080C941809E0
:100030000C94CE010C94CE010C94CE010C94CE0104
:100040000C94CE010C94CE010C94CE010C94CE01F4
:100050000C94CE010C94CE010C94CE010C944A0B5E
:100060000C94CE010C94CE010C94CE010C94CE01D4
:100070000C94CE010C94CE010C94CE010C94CE01C4
:100080000C94CE010C94CE010C94CE010C94CE01B4
:100090000C94CE010C94CE010C94CE010C94CE01A4
:1000A0000C94CE010C94CE010C94CE0130000408C7
:1000B0000000000000000000000000000000000040
:1000C0000000000000000000000000000000000030
:1000D0000000000000000000000000000000000020
:1000E0000000000000000000000000000000000010
:1000F0000000000000000000000000000000000000
:1001000000000000000000000000000000000000EF
:1001100000000000000000000000000000000000DF
:1001200000000000000000000000000000000000CF
:1001300000000000002F0000030003000A1F0A1F38
:10014000042A3F3A22180611162917280003000036
:10015000001E210000211E0005020500081C0800E9
:1001600000201000080808080020000020180601E0
:100170001E29251E223F2000322929261221251A58
:100180000C0A3F08172525191E25251801390503D6
:100190001A25251A0629291E001400002014000023
:1001A0000814220014141414221408000229050251
:1001B0001E212D2E3E09093E3F25251A1E21211202
:1001C0003F21211E3F2525213F0505011E21293AFA
:1001D0003F04043F213F21001021211F3F040A3129
:1001E0003F2020203F02023F3F02043F1E21211EEC
:1001F0003F0909061E21112E3F090936222525191E
:10020000013F01011F20201F0F10201F3F10103F32
:100210003B04043B03043807312D23213F21000018
:1002200001061820013F00000201020020202020CA
:1002300000010200102A2A3C3F2424181C22221408
:100240001824243F1C2A2A2C047E05014C52523EBD
:100250003F040438243D20004040443D3F08142220
:10026000213F20003E04043E3E04023C1C22221C8E
:100270007E22221C1C22227E3E040204242A2A12F0
:10028000021F22201E20201E0E10201E3E10103E97
:10029000360808364E50503E322A262208162100D3
:1002A000003F0000211608000201020100000000CA
:1002B000D5F08D14A1C881CFD9F1AF20004F72695C
:1002C0006720004C6F636174696F6E2000080B003B
:1002D00002020200000904000001020200000524DD
:1002E0000010010524010101042402060524060072
:1002F000010705810310004009040100020A000003
:1003000000070502024000000705830240000004C8
:1003100003090412010002EF02014041233680006C
:10032000010102030141726475696E6F204C4C43F8
:100330000041726475696E6F204C656F6E61726406
:100340006F000102040810204080C70B11241FBE5B
:10035000CFEFDAE0DEBFCDBF11E0A0E0B1E0E2E731
:10036000F5E202C005900D92A234B107D9F725E05D
:10037000A2E4B1E001C01D92A93DB207E1F711E08E
:10038000C6EAD1E004C02197FE010E94D90FC53A08
:10039000D107C9F70E94F80B0C94B7120C94000017
:1003A00080E0E4E7F1E081118FEF002481938193F5
:1003B000819381930394D1F70895E4E7F1E080E01D
:1003C000A0E0B8E000800EBC8111012C1197A0FDC7
:1003D000FDCF0192B9F70DB4089580389105B0F4BE
:1003E0006034710598F4E2E4F3E090E1969FD00167
:1003F000A0781124A80F6770E60FF11D9491AC58F6
:10040000BE4F442321F08C91982B9C930895909596
:100410008C919823FACF4F925F926F927F928F9236
:100420009F92AF92BF92CF92DF92EF92FF920F9383
:100430001F93CF93DF93EC014B01881A990A97FE23
:1004400003C091948194910885E088169104D4F1B9
:100450006C177D07F4F52E01EB0161E470E005E413
:1004600010E032016C1A7D0A6B01C01AD10AD7FE66
:1004700003C0D194C194D108730177FE03C08FEFFC
:10048000E81AF80AF594E7948FEF061717070CF4AB
:1004900081E0A82E880FBB084C165D061CF141E0D8
:1004A00085E088169104DCF0BE01C8010E94ED01D0
:1004B000EC18FD08F7FE04C00A0D1B1DE60CF71C26
:1004C0002196EACF8E0195E4492E512CC1E4D0E06B
:1004D000C8CF2B0165E470E001E410E0C2CFB801A1
:1004E000CE01E4CFDF91CF911F910F91FF90EF905C
:1004F000DF90CF90BF90AF909F908F907F906F9044
:100500005F904F900895AF92BF92CF92DF92EF929B
:10051000FF920F931F93CF93DF937B01EC016C014C
:10052000C40ED11C5B0128E0A20EB11CCC15DD0568
:10053000CCF48701F7FE02C010E000E0C50121E421
:10054000A216B10414F080E490E00817190744F4EF
:1005500041E0B801CE010E94ED010F5F1F4FEECFC9
:100560002196E4CFDF91CF911F910F91FF90EF90F3
:10057000DF90CF90BF90AF9008959091D4059823CD
:1005800029F49091D305982381E009F480E008953F
:10059000FC0180916301882311F13FB7F89482E058
:1005A0008093E9002091F200822F90E0181619063E
:1005B00014F481E090E0882339F0289844E64093D1
:1005C00062014091F1004083222339F02091F20032
:1005D000211103C02BE62093E8003FBF08958FEF61
:1005E0009FEF08952FB7F89483E08093E9009091EE
:1005F000E800892F807295FF04C09091F20080E49A
:10060000891B2FBF089580915A0181110DC082E08E
:100610008093560184E08093570110925901109203
:10062000580181E080935A0186E591E00895CF93C7
:10063000DF931F92CDB7DEB76983DC01ED91FC91AA
:100640000280F381E02D41E050E0BE016F5F7F4FFB
:1006500009950F90DF91CF91089583E08093E90091
:100660008091F200882319F08AE38093E8000895CE
:100670000E94F20290E00895CF93DF931F92CDB7CE
:10068000DEB7FC018485958597FD08C02FEF3FEF0D
:10069000358724870F90DF91CF910895CE01019681
:1006A0000E94C802019719F4898190E0F3CF8FEF7F
:1006B0009FEFF0CF0F931F93CF93DF931F92CDB790
:1006C000DEB78C01FC018485958597FF0BC0CE01B8
:1006D00001960E94C802019771F4898190E0F801A7
:1006E00095878487F801848595850F90DF91CF9158
:1006F0001F910F9108958FEF9FEFF1CFFC0184853B
:10070000958597FD0BC09FB7F89482E08093E90030
:100710008091F2009FBF90E0019608959FB7F894F2
:1007200082E08093E9008091F2009FBF90E00895FD
:10073000409150015091510120914E0130914F0153
:1007400042175307B4F49091E8009570E1F390914B
:10075000E80092FD19C08093F100809150019091C2
:10076000510101968F739927892B19F48EEF80938D
:10077000E8008091500190915101019690935101B0
:100780008093500181E0089580E00895DF92EF9218
:10079000FF920F931F93CF93DF93D82E8A01EB0123
:1007A0007B01E40EF51ECE15DF0559F0D7FE12C011
:1007B000FE0184910E94980321968111F4CF0FEFDE
:1007C0001FEFC801DF91CF911F910F91FF90EF9024
:1007D000DF9008958881EECF0F931F93CF93DF931F
:1007E0001F92CDB7DEB782E0898342E450E06DEC22
:1007F00072E080E80E94C6030E940303DC011296A7
:100800000D911C910115110589F0D801ED91FC9114
:100810000280F381E02DBE016F5F7F4FC801099513
:1008200097FD04C0F80100851185ECCF89810F90F8
:10083000DF91CF911F910F910895615030F0209179
:10084000F100FC0120830196F8CF289884E680937C
:1008500062010895AF92BF92CF92DF92EF92FF9222
:100860000F931F93CF93DF936C017B018B01040FD8
:10087000151FEB015E01AE18BF08C017D10759F074
:100880006991D601ED91FC910190F081E02DC601B6
:100890000995892B79F7C501DF91CF911F910F91B0
:1008A000FF90EF90DF90CF90BF90AF9008953FB74B
:1008B000F8948091430190914401A0914501B09139
:1008C000460126B5A89B05C02F3F19F00196A11D32
:1008D000B11D3FBFBA2FA92F982F8827BC01CD018A
:1008E000620F711D811D911D42E0660F771F881FE9
:1008F000991F4A95D1F708958F929F92AF92BF9218
:10090000CF92DF92EF92FF926B017C010E9457041D
:100910004B015C01C114D104E104F104B9F00E945F
:100920005704681979098A099B09683E7340810553
:10093000910580F321E0C21AD108E108F10888EEA0
:10094000880E83E0981EA11CB11CE4CFFF90EF90AD
:10095000DF90CF90BF90AF909F908F9008958F922F
:100960009F92AF92BF92CF92DF92EF92FF920F933E
:100970001F93CF93DF936C017B018A0180910D015E
:10098000882309F45CC080916301882309F457C06F
:100990008091550180FF05C08091E00082608093C6
:1009A000E000E801B12C8AEFA82E93E0892E2AE31B
:1009B000922E209711F4BB20D9F10E94F2028111EE
:1009C0000AC0AA94AA20D9F161E070E080E090E02A
:1009D0000E947C04EECF8C171D0611F00CF08C2FBA
:1009E0009FB7F8948092E9002091E80025FD02C0AD
:1009F0009FBFDFCF282F30E0C21BD30BF701815000
:100A000020F041914093F100FACFE20EF31EBB209B
:100A100021F09092E800B12CEBCF8091E80085FDA9
:100A2000E7CF9092E800BB24B394209709F3F3CF6B
:100A30005D9884E680935401101611063CF081E025
:100A400090E0F6019383828310E000E0C801DF911B
:100A5000CF911F910F91FF90EF90DF90CF90BF90BB
:100A6000AF909F908F9008954F925F926F927F9278
:100A70008F929F92AF92BF92CF92DF92EF92FF92AE
:100A80000F931F93CF93DF934C015901FC2DC02F7F
:100A9000D0E0CE01880D991D181619060CF067C01C
:100AA0009B012E0D311D121613060CF060C0603430
:100AB00071050CF05CC04115510509F458C0262F92
:100AC0002770F22EDB0177FD179633E0B595A795D9
:100AD0003A95E1F73A2F77FF04C0FF2011F03FEF7E
:100AE0003A0F662777276819790997FC02C070E0EA
:100AF00060E0803891050CF44BC090E89819961B83
:100B0000A32F032E000CBB0B1A2F10953F3F0CF0A8
:100B100010E021E08E2D877009F420E0E694E69441
:100B2000E694E20EAE0DB11D19971CF028E0E22EFE
:100B3000E31AE11A310F20E83203D0011124A80D85
:100B4000B91DA60FB71F019F600D711D1124460F1F
:100B5000571F0F2D0F2C000C110BF33009F41CC183
:100B6000C8F4F13009F4D0C0F23009F47CC0DF9150
:100B7000CF911F910F91FF90EF90DF90CF90BF909A
:100B8000AF909F908F907F906F905F904F9008955F
:100B9000902FB5CFFA3FB1F1232F2E0DFB3F39F740
:100BA000321729F3BD016C587E4FD12CC12CC916C8
:100BB00008F0A4C0FA01EC0DFD1DE491F0E04F0136
:100BC000002E02C0880C991C0A94E2F737FD06C07B
:100BD000FB018081E82CE0948E218083FF2061F06E
:100BE000373054F45B01F0E8AF0EB11CE92CE0940F
:100BF000F50180818E218083FFEFCF1ADF0A6F5FBE
:100C00007F4FD5CF232F2E0D321709F4B0CFBD0162
:100C10006C587E4FD12CC12CC91608F069C0FA015E
:100C2000EC0DFD1DE491F0E04F01002E02C0880C98
:100C3000991C0A94E2F737FD04C0FB0180818829E2
:100C40008083FF2051F0373044F45B01F0E8AF0EB1
:100C5000B11CF501808189298083FFEFCF1ADF0A5B
:100C60006F5F7F4FD9CF6FEF70E00F2C02C0660F20
:100C7000771F0A94E2F760957095772E232F2E0D3B
:100C8000321709F474CFFD01EC58FE4F6F01B12CFF
:100C9000A12CA91638F5FA01EA0DFB1DE491F0E04C
:100CA0002F01002E02C0440C551C0A94E2F737FDB8
:100CB00005C0F6018081862384298083FF2059F0B6
:100CC00037304CF44601F0E88F0E911CF40180811E
:100CD000872185298083FFEFAF1ABF0A8FEFC81ADB
:100CE000D80AD7CF3F5F4C0F5D1FA058BF4FC8CF6A
:100CF0003F5F4C0F5D1FA058BF4F86CF3F5F4C0F2B
:100D00005D1FA058BF4F4CCF6A0D7B1D232F2E0DAA
:100D1000321709F42CCFFD01EC58FE4F6F01B12CB6
:100D2000A12CA91688F5FB01EA0DFB1D8490912CDE
:100D3000002E02C0880C991C0A94E2F780949094CB
:100D4000FA01EA0DFB1D6490712C002E02C0660CA6
:100D5000771C0A94E2F737FD05C0F60180818821EF
:100D600086298083FF2049F037303CF4F601E058B3
:100D7000FF4F8081892187298083FFEFAF1ABF0A47
:100D80008FEFC81AD80ACDCF3F5F4C0F5D1F6C0F95
:100D90007D1FA058BF4FBCCFC92ED12CFA01E60F42
:100DA000F71FAC58BE4F00E810E00C191D09CC1914
:100DB000DD09BE01660F771F41E050E06A010F2C8C
:100DC00001C0CC0C0A94EAF7592F2E2D792ECF931F
:100DD000DF93ED01EF96EF9622968590A590FF2088
:100DE00059F08C9C4001AC9C500137302CF4E880C9
:100DF000B094EB20E928E99233233AF0EC90A094E8
:100E0000EA20E828ED920C94060711965A9529F7E6
:100E10002A9551F0572D33951124E60FF11DA00F9F
:100E2000B11DC00FD11DD9CFDF91CF9111249FCE1D
:100E3000BC0190E080E00C947C048FB18095807FB1
:100E4000669B88601C9B846008950895CF92EF9202
:100E50000F93CF93DF93EC01A62F6E81AA3069F434
:100E60008D818C838985680F6E8381E090E0DF91AE
:100E7000CF910F91EF90CF9008951A16ACF56F5F58
:100E8000062E000C770B8C81082E000C990BEEEAD5
:100E9000F0E02FEA30E0B0E04F81413059F50491A5
:100EA000F901E4902E2D277041E050E011F450E05C
:100EB00040E02E2D269526952695240F352F311DA1
:100EC000029FF001039FF00D1124EA9FA001EB9F08
:100ED000500DFA9F500D112440555F4F3AEFC32E2D
:100EE00030E020E00E94340598859C5F8C81890F5A
:100EF0008C83BBCF0491F901E4902E2D277041E043
:100F000050E011F450E040E02E2D269526952695D0
:100F1000240F352F311D029FF001039FF00D112486
:100F2000EA9FA001EB9F500DFA9F500D11244055F0
:100F30005F4F2BEFC22ED4CF0F931F93CF93DF932E
:100F40008C01D0E0C0E0F801EC0FFD1F6491662336
:100F500041F084EC95E00E942607892B11F0219640
:100F6000F2CFCE01DF91CF911F910F910895089597
:100F700090E080E008958F929F92AF92BF920F937E
:100F80001F93CF93DF93CDB7DEB7A1970FB6F89439
:100F9000DEBF0FBECDBF19A2423008F44AE08E0179
:100FA0000F5D1F4F842E912CB12CA12CA501940113
:100FB0000E948F0FE62FB901CA01EA3044F5E05DC7
:100FC000D801EE938D01232B242B252B79F790E06C
:100FD00080E0109769F0FD0101900020E9F731975A
:100FE000AF014A1B5B0BBD0184EC95E00E942A0413
:100FF000A1960FB6F894DEBF0FBECDBFDF91CF91A3
:101000001F910F91BF90AF909F908F900895E95CD2
:10101000D7CFCF93C82FCB010E94670FE4ECF5E048
:101020009BE495839483C683682FCF01CF910C9462
:1010300026071F93CF93DF93182FCB010E94670FD2
:10104000C82F30E384FD31E320E3C5FD21E390E3C5
:10105000C6FD91E380E3C7FD81E31F923F931F929A
:101060002F931F929F931F928F9389E391E09F93F9
:101070008F938CE691E09F938F930E94DF0F8DB743
:101080009EB70C960FB6F8949EBF0FBE8DBF30E38F
:10109000C0FD31E320E3C1FD21E390E3C2FD91E314
:1010A00080E3C3FD81E31F923F931F922F931F9212
:1010B0009F931F928F9389E391E09F938F93C4E650
:1010C000D1E0DF93CF930E94DF0F84E58093C905C1
:1010D0008093C8051093CA054CE651E0FA010190CF
:1010E0000020E9F7AF014D5651406CE671E084EC09
:1010F00095E00E942A048CE68093C9058093C80578
:101100001093CA0509900020E9F7AE0145565140F9
:101110008DB79EB70C960FB6F8949EBF0FBE8DBFCD
:1011200064E671E084EC95E0DF91CF911F910C941F
:101130002A04CF93C82F803120F48CEA90E00E94DB
:101140009C076C2F70E090E080E040E1CF910C9420
:10115000BB071F920F920FB60F9211248F939F938C
:101160008091E1009091E100937F9093E10083FFF3
:101170000FC01092E90091E09093EB001092EC0008
:1011800092E39093ED001092630198E09093F00049
:1011900082FF22C093E09093E9009091F20099239E
:1011A00019F09AE39093E80090915401992341F04B
:1011B00090915401915090935401911101C05D9A06
:1011C00090916201992341F0909162019150909326
:1011D0006201911101C0289A84FF18C08091E20039
:1011E0008E7E81608093E2008091E1008F7E80930B
:1011F000E100809155018E7E8061809355019F9121
:101200008F910F900FBE0F901F90189580FFF7CF12
:101210008091E2008E7E80618093E2008091E10007
:101220008E7E8093E100809155018E7E8160E5CFB6
:101230001F920F920FB60F921124CF92DF92EF926E
:10124000FF920F931F932F933F934F935F936F934F
:101250007F938F939F93AF93BF93EF93FF93CF931E
:10126000DF93CDB7DEB76C97DEBFCDBF1092E9003C
:101270008091E80083FF25C068E0CE0145960E947A
:101280001D0482EF8093E8008D8987FF39C090911B
:10129000E80090FFFCCF982F907609F034C19E892A
:1012A0004F89588D2F89F88C911131C0803861F5A4
:1012B000809153018093F1001092F1008EEF8093A2
:1012C000E8006C960FB6F894DEBF0FBECDBFDF917D
:1012D000CF91FF91EF91BF91AF919F918F917F91AE
:1012E0006F915F914F913F912F911F910F91FF90BF
:1012F000EF90DF90CF900F900FBE0F901F9018953A
:101300009EEF9093E800C7CF1092F100D5CF9130B7
:1013100059F48111D3CF4130510581F680915301A9
:101320008D7F80935301CACF933049F48111C6CF8A
:101330004130510519F6809153018260F2CF95300A
:1013400041F48091E80080FFFCCF20682093E30007
:10135000B5CF963009F0A9C00B8D1C8D22E01092FC
:10136000E9001092510110925001F2122EC0109219
:101370004F0110924E010E94EC031F8299E0998365
:10138000FA8291E09E8390EA98879AEF998720915C
:10139000500130915101275F3F4F3C832B838D8358
:1013A0001092E900109251011092500110934F01D8
:1013B00000934E0149E050E0BE016F5F7F4F80E037
:1013C0000E94C6030E94EC0379CF10934F01009353
:1013D0004E010E940303DC0112960D911C91011530
:1013E000110509F451C1D801ED91FC910480F581FA
:1013F000E02DBE016B5E7F4FC8010995009709F093
:101400003EC1F80100851185EACFF3E0FF120EC05E
:101410008F89882309F440C0823061F440E860E19C
:1014200081E393E00E94940B811148CF81E2809385
:10143000EB0047CF813029F440E86BE085E293E090
:10144000F1CF833099F70E940303DC011296ED90EF
:10145000FC908E010F5F1F4F6801E114F10479F0D9
:10146000D701ED91FC910680F781E02DB801C7010D
:101470000995080F111DF701E084F184EECFD80122
:101480001C92F60101900020E9F73197BF016C1919
:101490007D0940E0C601C6CF6FE073E0FB014491D7
:1014A00050E080E80E94C60309CF973009F4BECF10
:1014B000983021F481E08093F10000CF993009F059
:1014C000FDCE837009F0B2CFEFE0F1E081E031E0D2
:1014D00096E32191222371F08093E9003093EB0091
:1014E000DF0111972C912093EC009093ED008F5F1A
:1014F000873079F78EE78093EA001092EA008F89AF
:1015000080936301DBCE8B8D9C8D1092E90010924D
:1015100051011092500190934F0180934E01898D9B
:10152000811192C08E899D89913A49F4813209F0E6
:101530007DCF47E050E066E071E080E0B3CF9132CC
:1015400009F074CF833269F48F89988DB0E0A0E000
:101550008093020190930301A0930401B0930501CD
:10156000ADCE803269F48091E80082FFFCCF67E065
:1015700086E091E00E941D048BEF8093E8009ECEF0
:10158000823209F09BCE8F8980930D01EEEFFFE749
:10159000859194918B3F9C4D51F1E0E0F8E0809172
:1015A000060190910701A0910801B0910901803BCB
:1015B0009440A105B105F1F480910D0180FD1AC0A0
:1015C000EE3F8AE0F80789F587E797E79183808304
:1015D000809160008093520188E19BE00FB6F894FF
:1015E000A895809360000FBE9093600067CEEEEFE9
:1015F000FAE0D5CF808191818737974709F05ECE99
:10160000A89580916000886180936000809152016C
:1016100080936000EE3F2AE0F20789F08091FE0A95
:101620009091FF0A9183808349CE80819181873791
:10163000980751F29093FF0A8093FE0AC5CF10924B
:10164000FF0A1092FE0A3ACE0E940303DC011296B2
:101650000D911C910115110509F4E8CED801ED9109
:10166000FC910190F081E02DBE016B5E7F4FC801BF
:101670000995811123CEF80100851185EBCF18164D
:1016800019060CF41BCED2CEF1E0FF12BECE63E100
:1016900073E004CF0F920FB68F939F93EF93FF9356
:1016A000809142018D5F8D3708F08D578093420104
:1016B000E7E4F1E080818E4F808391819F4F918399
:1016C00082818F4F828383818F4F8383E3E4F1E0B4
:1016D00080818F5F808381818F4F818382818F4F53
:1016E000828383818F4F83838FB18F6066991C9B28
:1016F00088278F3681F48091FF0A981B963068F016
:10170000E0E0F8E087E78083818388E180936000F0
:10171000F0936000FFCF9093FF0AFF91EF919F91AC
:101720008F910FBE0F901895EF92FF920F931F931A
:10173000CF93DF93F82E192FE62E042F81E0860F2A
:10174000880F0E94980383E00E949803CF2DD12F29
:10175000EC0EFD2EF11CCE15DF05B9F007FF13C00E
:10176000FE0184910E949803182F80E00E94980344
:10177000812321968111EFCFDF91CF911F910F919E
:10178000FF90EF9008958881EDCF81E0F5CFE4E7F9
:10179000F5E01382128288EE93E0A0E0B0E084834B
:1017A0009583A683B78389E191E0918380838FEF4E
:1017B0009FEF95878487EEECF5E087E391E09183D6
:1017C00080831582168280E18783148213821186BA
:1017D000E4ECF5E0138212828BE291E09183808346
:1017E000118681E08087158216821482878308958E
:1017F000789484B5826084BD84B5816084BD85B5EC
:10180000826085BD85B5816085BD80916E008160F7
:1018100080936E001092810080918100826080939D
:10182000810080918100816080938100809180009F
:10183000816080938000809191008260809391000C
:1018400080919100816080939100809190008160EF
:10185000809390008091C10084608093C10080914A
:10186000C10082608093C1008091C100816080933B
:10187000C1008091C30081608093C3008091C0004B
:1018800082608093C0008091C20081608093C2001A
:1018900080917A00846080937A0080917A008260DF
:1018A00080937A0080917A00816080937A008091A1
:1018B0007A00806880937A0010926301109253013D
:1018C000109255018091D70081608093D70080EA03
:1018D0008093D80089B5806189BD89B5826089BD52
:1018E00009B400FEFDCF61E070E080E090E00E946E
:1018F0007C048091D8008F7C80618093D800809197
:10190000E000807F8093E0008091E1008E7E8093F4
:10191000E1008DE08093E200559A209A81EC80935B
:101920007C0085B1806F85B984B1877E84B984B12C
:10193000876E84B95E9A5F988AB1806D8AB9769A0B
:101940006E9881B3806F81BB899880B38D7080BBA6
:1019500080E58CBD81E08DBD85E090E00E94180798
:101960005F9A85E090E00E9418075E985C98E0EB33
:10197000F2E084918EBD00000DB407FEFDCF3196DC
:1019800022E0ED3BF207A9F75C9A81E880936400BE
:10199000809165008160809365000E94DD010E9456
:1019A0001D0787FF15C05C9885EA8EBD00000DB449
:1019B00007FEFDCF5C9A2E982F982D988091640099
:1019C00080628093640081E083BF889513BEFCCF62
:1019D0000E941D0782FF46C02D980E941D07847833
:1019E0008438D9F42D9A88EC90E00E9418072F983B
:1019F00082E090E00E94670F8F3F29F06FEF82E056
:101A000090E00E94810F84EF91E00E9418072F9AC6
:101A10000E941D0784788438D9F30E941D078471C1
:101A20008431D9F42D9A88EC90E00E9418072E9802
:101A300082E090E00E94670F882329F060E082E056
:101A400090E00E94810F84EF91E00E9418072E9A87
:101A50000E941D0784718431D9F388EC90E00E94C4
:101A60001807B6CF2D9A0E94D00182E48093D50545
:101A700095E0E92EF12C2DE0422E34E1C32ED12C3D
:101A800040E0642E40E0742E552453948DE5382EAA
:101A90008FB7F894409147015091480160914901F6
:101AA00070914A018FBF8091D605942F981B892F82
:101AB0009091D705992351F08093D8051092D705BE
:101AC0006114710429F30E940000DECF9091D505C6
:101AD000891738F48F5F891798F753BE889513BE1E
:101AE000EFCF5092D7054093D6058091D1059091C4
:101AF000D20501969093D2058093D1058091D305AC
:101B00008093D4050E941D078093D3050E94D001C5
:101B1000E4EFF1E091E8915081F4E4E7F3E092E43E
:101B2000915089F4E4EFF3E092E4915091F08191C7
:101B3000DF01119780628C93F8CF8191DF011197BB
:101B400084608C93E8CF8191DF01119781608C9341
:101B5000E7CF60E170E080E290E00E940B026DE36D
:101B600070E08DE290E00E940B0222E02093C90514
:101B70002093C8051092CA0583EC92E00E949C074E
:101B80008090000190900101092C000CAA08BB086C
:101B90004AE0C501B401B7FE0DC06DE284EC95E0EA
:101BA0000E94260766277727CB01681979098A09D9
:101BB0009B094AE00E94BB078090000190900101C0
:101BC0004CE0841A910810E000E0C0910001D0912F
:101BD0000101CE010C96881599050CF465C0C4016D
:101BE0009C5F97FC06C0811484E09806CCF0C40189
:101BF00094500E94670F282EC801B7010E94C50F9C
:101C0000EC016230710571F16CF477FF1CC0822D1C
:101C10000E9499089FEF891A990A0F5F1F4FD5CF2D
:101C2000C401E7CF6530710594F7849DC02D112460
:101C3000CE5FC093C905C093C8056D5F7F4F660F27
:101C4000660F660F0CC0849DC02D1124CE5FC0931B
:101C5000C905C093C805660F660F660F625F609383
:101C6000CA05D5CF0297E9F480914D01882321F070
:101C700080914C01882349F04DE063E270E08AE1F5
:101C800090E00E9483021092CB054C9EC02D11243F
:101C9000CE5FC093C905C093C80543E24093CA050F
:101CA000B6CF5092CB05F1CF2297BE018FE00E94B4
:101CB0000908BE018FE00E941908C0910001D0916F
:101CC00001012197BE0189E10E940908BE0189E155
:101CD0000E94190846E063E270E08AE490E00E9406
:101CE000830245E163E270E083E590E00E948302B5
:101CF00045E163E270E08BE690E00E94830210927F
:101D0000CB05C0910001D0910101BE0183E20E9488
:101D10000908BE0183E20E9419085092CB05C091C8
:101D20000001D09101012196BE018DE20E940908B7
:101D3000BE018DE20E941908C0910001D0910101FD
:101D40002296BE0187E30E940908BE0187E30E9434
:101D5000190880914D018823A1F0813009F480C0D9
:101D60008091D1059091D205B6010E94B10F892BC7
:101D700029F480914C01852580934C010E94DD015E
:101D80009FCE80E20E94BD02882359F0809100011D
:101D900090910101019797FD4DC0909301018093AF
:101DA000000180E40E94BD02882369F08091000157
:101DB000909101010196811524E09207F4F590932A
:101DC00001018093000180E80E94BD02882369F030
:101DD00080910001909101019C012550310937FD4E
:101DE00031C0309301012093000180E10E94BD02C7
:101DF000882379F080910001909101019C012B5F73
:101E00003F4F211544E0340724F53093010120931E
:101E1000000188E00E94BD02882309F4A1CF5092FE
:101E20004D0180910001909101010E94670F809304
:101E30004B0196CF8FEF93E0B0CF1092010110923B
:101E40000001C1CF85509C4F909301018093000108
:101E5000CCCF8B5F93409093010180930001D9CF49
:101E60003092C9053092C8051092CA058DEB92E0F8
:101E70000E949C0780914B010E9499080E941D07B7
:101E800087FF0CC0C0910001D0910101CE010E94DA
:101E9000670F61E0680FCE010E946F0F0E941D075F
:101EA00084FF0CC0C0910001D0910101CE010E94BD
:101EB000670F6FEF680FCE010E946F0F88E00E94DE
:101EC000BD02882309F44CCF10924D0149CFF999F6
:101ED000FECF92BD81BDF89A992780B50895262F2F
:101EE000F999FECF92BD81BDF89A019700B4021610
:101EF00039F01FBA20BD0FB6F894FA9AF99A0FBEBE
:101F00000895262FF999FECF1FBA92BD81BD20BD3D
:101F10000FB6F894FA9AF99A0FBE01960895A1E2C5
:101F20001A2EAA1BBB1BFD010DC0AA1FBB1FEE1F53
:101F3000FF1FA217B307E407F50720F0A21BB30B9E
:101F4000E40BF50B661F771F881F991F1A9469F71A
:101F500060957095809590959B01AC01BD01CF0176
:101F60000895AA1BBB1B51E107C0AA1FBB1FA617E0
:101F7000B70710F0A61BB70B881F991F5A95A9F732
:101F800080959095BC01CD01089597FB072E16F41E
:101F9000009407D077FD09D00E94B10F07FC05D04F
:101FA0003EF4909581959F4F0895709561957F4F70
:101FB0000895EE0FFF1F0590F491E02D0994AEE017
:101FC000B0E0E5EEFFE00C948E120D891E8986E0EC
:101FD0008C831A8309838FEF9FE79E838D83AE01E5
:101FE000475E5F4F6F89788DCE0101960E94021087
:101FF0002F813885020F131FF80110822E96E4E01E
:102000000C94AA12ABE0B0E0E8E0F0E10C9480128E
:102010007C013B018A01FC0117821682838181FFCA
:10202000C8C1CE0101965C01F7019381F30193FDD4
:10203000859193FF81913F01882309F453C1853233
:1020400039F493FD859193FF81913F01853229F405
:10205000B70190E00E94F211E7CF912C212C312C96
:10206000FFE1F31538F08B3211F190F4803209F171
:10207000833229F137FC3CC020ED280F2A3050F57F
:1020800036FE20C08AE0989E200D1124922E06C0B4
:102090008D3291F0803371F7689430F8F30193FD3D
:1020A000859193FF81913F018111DACF21C068941E
:1020B00031F8689432F8F2CF689433F8EFCF68942F
:1020C00034F8ECCFEAE02E9E200D1124222E6894E5
:1020D00035F8E4CF8E3229F436FC04C1689436F822
:1020E000DDCF8C3619F4689437F8D8CF8836B1F242
:1020F000982F9F7D95549330E0F08336A1F183377C
:10210000C1F1833509F063C02801F2E04F0E511C84
:10211000F801C080D180692D70E036FC02C06FEFFD
:102120007FEFC6010E94DC114C01689437F88201F0
:102130000AC00C5F1F4FFFE3F98388248394912C1E
:102140006501E89437F833FE2DC0522C81149104B8
:1021500071F5552009F468CFB70180E290E00E9444
:10216000F2115A94F6CFF801808189830E5F1F4FD8
:10217000E4CF2801F2E04F0E511CF801C080D1805D
:10218000692D70E036FC02C06FEF7FEFC6010E9440
:10219000E7114C018201D5CFB70180E290E00E94A7
:1021A000F2112A942814190409F0B0F7CECFF601E1
:1021B00037FC859137FE81916F01B70190E00E9455
:1021C000F21151105A94F1E08F1A9108BFCF843662
:1021D00019F0893609F077C0F80137FE6BC06081CD
:1021E0007181828193810C5F1F4FF32DFF763F2E0B
:1021F00097FF09C090958095709561957F4F8F4F9F
:102200009F4F689437F82AE030E0A5010E9422121F
:10221000C82ECA188C2C432C36FE0CC0E89440F80B
:10222000C91440F434FE05C032FC03C0F32DFE7E19
:102230004F2E892C44FE95C0FE01EC0DF11D8081CE
:10224000803309F087C0242D297E422E842D88708A
:10225000582E43FC95C040FE8FC09C2C821418F46D
:102260002C0C922C981844FE91C0B70180E390E0AA
:102270000E94F21142FE09C088E790E041FE02C0D0
:1022800088E590E0B7010E94F211C91408F48AC0F1
:10229000CA94D12C9FEFC91AD90ACA0CDB1CF601CB
:1022A00082916F01B70190E00E94F211AC14BD045D
:1022B000B1F74FCF60817181072E000C880B990B0D
:1022C0000E5F1F4F92CFD32CE894D4F82AE030E071
:1022D000853739F1232D297FD22E8F3601F148F42D
:1022E0008835A9F0F701868197812B96E2E10C945D
:1022F0009C12803749F08837A9F7D4FE02C0689451
:10230000D2F820E130E00DC06894D4F8F6CF34FE66
:1023100003C0822F8660D82E20E132E002C028E080
:1023200030E0F801D7FE0FC0608171818281938116
:102330000C5F1F4FA5010E942212C82ECA183D2C07
:10234000E89437F867CF6081718190E080E00E5F9C
:102350001F4FF0CF42FC02C0839478CF83948394C4
:1023600075CF842D867809F471CFF6CFB70180E25E
:1023700090E00E94F21183948214C0F3512C73CF29
:10238000522C5818821408F46ECFF8CF842D86781A
:1023900009F47BCF8BE241FE80E247FC8DE2B7017E
:1023A00090E071CFB70180E390E00E94F2119A941F
:1023B0006CCF8FEF9FEF99CFFC010590615070407B
:1023C0000110D8F7809590958E0F9F1F0895FC01FE
:1023D0006150704001900110D8F7809590958E0F54
:1023E0009F1F08950F931F93CF93DF93182F092FEB
:1023F000EB018B8181FD09C01FEF0FEF812F902F23
:10240000DF91CF911F910F91089582FF14C02E810B
:102410003F818C819D81281739073CF4E881F9813F
:10242000CF0101969983888310838E819F810196C5
:102430009F838E83E3CFE885F985812F0995892BCA
:10244000A1F3DACFFA01AA27283051F1203181F126
:10245000E8946F936E7F6E5F7F4F8F4F9F4FAF4FAC
:10246000B1E03ED0B4E03CD0670F781F891F9A1FBF
:10247000A11D680F791F8A1F911DA11D6A0F711D73
:10248000811D911DA11D20D009F468943F912AE07F
:10249000269F11243019305D3193DEF6CF01089567
:1024A000462F4770405D4193B3E00FD0C9F7F6CF98
:1024B000462F4F70405D4A3318F0495D31FD405260
:1024C000419302D0A9F7EACFB4E0A69597958795F6
:1024D00077956795BA95C9F70097610571050895D5
:1024E0009B01AC010A2E0694579547953795279581
:1024F000BA95C9F7620F731F841F951FA01D089519
:102500002F923F924F925F926F927F928F929F9203
:10251000AF92BF92CF92DF92EF92FF920F931F93F1
:10252000CF93DF93CDB7DEB7CA1BDB0B0FB6F894A2
:10253000DEBF0FBECDBF09942A88398848885F84E2
:102540006E847D848C849B84AA84B984C884DF8053
:10255000EE80FD800C811B81AA81B981CE0FD11D37
:102560000FB6F894DEBF0FBECDBFED010895F8940D
:10257000FFCF1000FFFFFFFF00E1000000000000A0
:1025800000C18081000000000000001703AF043884
:10259000032D037E033C035A030000000026072A94
:1025A00004B807B707000000002507256325632549
:1025B00063256300FFFFFFFFFFFFFFFFFFFFFFFF3C
:1025C000FFFFFFFFFFFFFFFFFFFFFFFFFFFFFFFF1B
:1025D000FFFFFFFFFFFFFFFFFFFFFFFFFFFFFFFF0B
:1025E000FFFFFFFFFFFFFFFFFFFFFFFFFFFFFFFFFB
:1025F000FFFFFFFFFFFFFFFFFFFFFFFFFFFFFFFFEB