:100000000C94DB080C9403090C9403090C94030969
:100010000C9403090C9403090C9403090C94030930
:100020000C9403090C9403090C943C150C94AB1527
:100030000C9403090C9403090C9403090C94030910
:100040000C9403090C9427180C9403090C940309CD
:100050000C9403090C9403090C9403090C94DD1708
:100060000C9403090C9403090C9403090C940309E0
:100070000C9403090C9403090C9403090C940309D0
:100080000C9471180C9403090C9403090C94030943
:100090000C9403090C9403090C9403090C940309B0
:1000A0000C9403090C9403090C94030908072070AD
:1000B000D8EC6C3810080710386CDCD870200804B5
:1000C0004070E020080420E07040080490606090D8
:1000D000100C00A001401E802FE07770FF588F5851
:1000E00070F079F03E600FB00030100C2800140062
:1000F0000BC03FA07770D7F8D78878707CF033E0DA
:100100006F806000100A011002607F848FDCFFD8CE
:10011000F83077C42C7C0FF807C8100A22001900A9
:1001200087F8EFC46FFC307C8FB8F8D07FC04F8069
:10013000180601C00003E2A37FFAA6FFFFEEE3FF6B
:10014000FE7FFFE21806000380C547C0655FFE77AB
:10015000FFFF7FFFC747FFFE180601C00003E00056
:100160007FFFC2FFFFEEE3FFFE7FFFE618060007FA
:1001700000000F8087FFFCEFFFFEFFFF8ECFFFFC2C
:10018000080100200D0001000000038000001EF0A7
:100190000000711C0001838300030EE1800E3D7896
:1001A000E00E3D78E0030EE1800183830000711CC6
:1001B00000001EF00000038000200D000100000080
:1001C000010000000100000006C000001EF0000752
:1001D000E10FC0780FE03C07E10FC00019300000CC
:1001E00006C0000001000000010000000100002026
:1001F0000D0000000000010000000100000003806D
:10020000000006C0000039380001E38F00003938D3
:10021000000006C000000380000001000000010093
:100220000000000000000203050608090B0C0E1078
:100230001113141617181A1B1D1E202122242526FF
:1002400027292A2B2C2D2E2F3031323334353637B7
:100250003838393A3B3B3C3C3D3D3E3E3E3F3F3FDC
:1002600040404040404040404040403F3F3F3E3E95
:100270003E3D3D3C3C3B3B3A3938383736353433EC
:100280003231302F2E2D2C2B2A29272625242221CE
:10029000201E1D1B1A181716141311100E0C0B0913
:1002A000080605030200FEFDFBFAF8F7F5F4F2F08C
:1002B000EFEDECEAE9E8E6E5E3E2E0DFDEDCDBDAFD
:1002C000D9D7D6D5D4D3D2D1D0CFCECDCCCBCAC925
:1002D000C8C8C7C6C5C5C4C4C3C3C2C2C2C1C1C1E0
:1002E000C0C0C0C0C0C0C0C0C0C0C0C1C1C1C2C207
:1002F000C2C3C3C4C4C5C5C6C7C8C8C9CACBCCCD90
:10030000CECFD0D1D2D3D4D5D6D7D9DADBDCDEDF8D
:10031000E0E2E3E5E6E8E9EAECEDEFF0F2F4F5F728
:10032000F8FAFBFDFE00000000003E5B4F5B3E3E26
:100330006B4F6B3E1C3E7C3E1C183C7E3C181C5791
:100340007D571C1C5E7F5E1C00183C1800FFE7C335
:10035000E7FF0018241800FFE7DBE7FF30483A0604
:100360000E2629792926407F050507407F05253F70
:100370005A3CE73C5A7F3E1C1C08081C1C3E7F145C
:10038000227F22145F5F005F5F06097F017F0066A6
:1003900089956A606060606094A2FFA29408047E00
:1003A000040810207E201008082A1C08081C2A08AF
:1003B000081E101010100C1E0C1E0C30383E383069
:1003C000060E3E0E06000000000000005F00000068
:1003D00007000700147F147F14242A7F2A12231396
:1003E00008646236495620500008070300001C22AA
:1003F00041000041221C002A1C7F1C2A08083E08DC
:1004000008008070300008080808080000606000DC
:1004100020100804023E5149453E00427F400072D0
:10042000494949462141494D331814127F10274547
:100430004545393C4A494931412111090736494965
:100440004936464949291E00001400000040340086
:10045000000008142241141414141400412214083A
:1004600002015909063E415D594E7C1211127C7FF2
:10047000494949363E414141227F4141413E7F4900
:100480004949417F090909013E414151737F0808EB
:10049000087F00417F41002040413F017F08142236
:1004A000417F404040407F021C027F7F0408107F54
:1004B0003E4141413E7F090909063E4151215E7F8F
:1004C00009192946264949493203017F01033F4062
:1004D00040403F1F2040201F3F4038403F631408EA
:1004E000146303047804036159494D43007F41417B
:1004F000410204081020004141417F04020102042E
:100500004040404040000307080020545478407F9A
:10051000284444383844444428384444287F3854D4
:1005200054541800087E090218A4A49C787F08047B
:10053000047800447D40002040403D007F10284466
:100540000000417F40007C047804787C0804047833
:100550003844444438FC1824241818242418FC7CFB
:1005600008040408485454542404043F44243C40E0
:1005700040207C1C2040201C3C4030403C44281043
:1005800028444C9090907C4464544C44000836417C
:10059000000000770000004136080002010204025A
:1005A0003C2623263C1EA1A161123A4040207A3805
:1005B0005454555921555579412154547841215568
:1005C00054784020545579400C1E527212395555BA
:1005D0005559395454545939555454580000457C90
:1005E000410002457D420001457C40F0292429F06C
:1005F000F0282528F07C545545002054547C547C28
:100600000A097F4932494949323248484832324A18
:100610004848303A4141217A3A42402078009DA032
:10062000A07D39444444393D4040403D3C24FF24B2
:1006300024487E4943662B2FFC2F2BFF0929F620E7
:10064000C0887E090320545479410000447D413024
:1006500048484A32384040227A007A0A0A727D0DB0
:1006600019317D2629292F28262929292630484D68
:100670004020380808080808080808382F10C8ACB7
:10068000BA2F102834FA00007B000008142A142224
:1006900022142A14089500220095AA005500AAAA3F
:1006A00055AA55AA000000FF00101010FF001414F6
:1006B00014FF001010FF00FF1010F010F0141414BD
:1006C000FC001414F700FF0000FF00FF1414F404F2
:1006D000FC141417101F10101F101F1414141F00E7
:1006E000101010F0000000001F101010101F10104C
:1006F0001010F010000000FF10101010101010105B
:1007000010FF10000000FF140000FF00FF00001F9A
:1007100010170000FC04F414141710171414F40438
:10072000F40000FF00F714141414141414F700F765
:10073000141414171410101F101F141414F4141090
:1007400010F010F000001F101F0000001F14000028
:1007500000FC140000F010F01010FF10FF1414142F
:10076000FF141010101F00000000F010FFFFFFFF2B
:10077000FFF0F0F0F0F0FFFFFF0000000000FFFFCF
:100780000F0F0F0F0F38444438447C2A2A3E147E42
:1007900002020606027E027E026355494163384426
:1007A000443C04407E201E2006027E020299A5E7FA
:1007B000A5991C2A492A1C4C7201724C304A4D4D95
:1007C000303048784830BC625A463D3E494949007D
:1007D0007E0101017E2A2A2A2A2A44445F44444099
:1007E000514A444040444A51400000FF0103E08028
:1007F000FF000008086B6B083612362436060F0916
:100800000F06000018180000001010003040FF0113
:1008100001001F01011E00191D1712003C3C3C3C49
:100820000000000000100011001200130015001657
:1008300000170018001A001C001D001F00210023D3
:10084000002500270029002C002E0031003400373D
:10085000003A003E004100450049004E005200575A
:10086000005C00620068006E0075007B0083008BF6
:100870000093009C00A500AF00B900C400D000DCCC
:1008800000E900F70006011501260137014A015D64
:1008900001720188019F01B801D201EE010B022A09
:1008A000024B026E029302BA02E40210033F03708D
:1008B00003A403DC03170455049704DD042705751E
:1008C00005C80520067D06E0064907B8072D08A9DA
:1008D000082D09B9094D0AEA0A900B400CFA0CC020
:1008E0000D910E6F0F5A1053115B1272139A14D49C
:1008F0001520178018F519801B231DDE1EB420A6B5
:1009000022B524E4263429A72B402E0031EA3300F7
:1009100037453ABC3D68414C456B49C84D68524F1C
:1009200057805C0062200D0004400000068000003B
:1009300007100010872000884FC100443FF2402379
:10094000BFFC801FFFFF003FFFFFE0FFFFFFB0FF86
:10095000FFFE6075AAA9C03FFFFF00000000020073
:10096000090F0000030401000C000000000000005B
:100970000000000000000000000000000000240053
:1009800027002A002D003000AED580A83FD30040BC
:100990008D142000A1C8DA1281CFD9F1DB40A4A6C2
:1009A000AF200021007F22000704080201104080D0
:1009B0004010204080408008020401804020100246
:1009C0000110801020404020000000002500280079
:1009D0002B002E0031000404040404030405020269
:1009E00002020403020202020606060606060404C8
:1009F00002020204044016FFC0EE944000F800809A
:100A00002044D281F08800871044B101108800850D
:100A1000104E91011088008510000001108800859B
:100A200013FF1FF11F87E085140090090000108557
:100A3000143851C51F8E1085144451251089108516
:100A4000147C5125108910851400512510891085BA
:100A5000147FD12510891085144011251089108725
:100A60001447D1C51F89108024445008818910FF84
:100A7000C43851F0FFF9F0000400910000000000BC
:100A800003FF110000000000000011000000000042
:100A90000000110000000000000011000000000034
:100AA00000001F00000000053590410053800053F6
:100AB0009041005380005390410053800053904177
:100AC0000053800053903E005380005390410053E8
:100AD000800053904600538000539046005380009E
:100AE000539046005380005390460053800053902B
:100AF00041005380005390460053800053904A00B9
:100B000053800053904A0053800053904A00538012
:100B10000053904A00538000539046005380005386
:100B2000904A0053800053904D0053800053904AE8
:100B30000053800053904B0053800053904D00535E
:100B4000800053904A0053800053904B0053800024
:100B500053904D0053800053904D005380005390AC
:100B60004D0053800053904D0053800053904D0032
:100B700053800053904D0053800053904D0053809C
:100B80000053904D0053800053904D00538000530C
:100B9000904D0053800053904D0053800053904D72
:100BA0000053800053904D05DB8001F3903A014DD6
:100BB0008000A6903A014D8000A6903A014D800039
:100BC000A6903A014D8000A6903A014D8000A69073
:100BD0003A014D8000A6903A014D8000A6903A015E
:100BE0004D8000A6904600538000539041005380F2
:100BF0000053904100538000539046014D80904A2D
:100C00000053800053904D01F380904B014D809034
:100C10004A005380005390480053800053904A008C
:100C200053800053904B0053800053904A00A6809D
:100C300000A690460053800053904801F3809041F5
:100C4000014D8000A690480053800053904100530E
:100C5000800053904100538000539048014D809094
:100C60004A0053800053904B0053800053904D0036
:100C700053800053904F0053800053904D014D809E
:100C8000904B0053800053904A0053800053904B88
:100C90000053800053904D005380005390520053F6
:100CA000800053904D0053800053904A00538000C1
:100CB000539046029A80014D904A014D80904B001E
:100CC000A680904D03E780904600A680904800A63D
:100CD00080904A00A680904B014D80904D00A680E8
:100CE000904F034180905200A6809051014D80901A
:100CF0004F00A680904D034180904C00A680904B01
:100D000001F380904A01F380904800A6809046004D
:100D1000A680904500A680904300A680904500A63E
:100D200080904300A6809041014D8000A690410034
:100D3000A680904300A680904500A6809046005370
:100D40008000539041005380005390410053800035
:100D5000539046014D80904A0053800053904D01BE
:100D6000F380904B014D80904A005380005390488F
:100D70000053800053904A0053800053904B00531F
:100D8000800053904A00A68000A690460053800041
:100D900053904801F3809041014D8000A690480097
:100DA0005380005390410053800053904100538082
:100DB00000539048014D80904A0053800053904B5F
:100DC0000053800053904D0053800053904F0053C8
:100DD000800053904D014D80904B00538000539004
:100DE0004A0053800053904B0053800053904D00B5
:100DF0005380005390520053800053904D00538015
:100E00000053904A00538000539046029A80014D4F
:100E1000904A014D80904B00A680904D03E7809052
:100E20004600A680904800A680904A00A680904B7D
:100E3000014D80904D00A680904F0341809052005C
:100E4000A6809051014D80904F00A680904D0341A7
:100E500080904C00A680904B01F380904A01F38073
:100E6000904800A680029A904100A680904600A675
:100E700080904100A680904300A680904500A68007
:100E8000904600A680904700A680904800538000BE
:100E9000F9904D0053800053904803E78090410043
:100EA0005380005390450053800053904800538076
:100EB0000053904D01F380904C00538000F9904A0C
:100EC000005380005390480053800053904100A687
:100ED00080904300A680904500A680904600A680A2
:100EE000904700A680904800538000F9904D005331
:100EF000800053904803E780904100538000539056
:100F000045005380005390480053800053904D019A
:100F1000F380904C00538000F9904A0053800053B6
:100F2000904801F38000A6904800538000539048F9
:100F30000053800053904D01F380904C005380008B
:100F4000F9904A0053800053904800538001A090CC
:100F50004800538000539045005380005390480050
:100F600053800053904A01F380904800538000F969
:100F700090450053800053904100538000F9904306
:100F80000053800053904500538000F99046005371
:100F900080005390480053800053904700538000D6
:100FA0005390460053800053904500538000539067
:100FB0004A005380005390480053800053904600ED
:100FC0005380005390450053800053904400538059
:100FD00000539043005380005390480053800053C7
:100FE00090450053800053904100538000F9904594
:100FF0000053800053904800538000F990450053FF
:10100000800053904101F38001F39046005380002B
:1010100053904100538000539041005380005390FF
:1010200046014D80904A0053800053904D01F3805B
:10103000904B014D80904A005380005390480053DC
:10104000800053904A0053800053904B005380001F
:1010500053904A00A68000A690460053800053900B
:101060004801F3809041014D8000A69048005380D4
:10107000005390410053800053904100538000532F
:101080009048014D80904A0053800053904B00538C
:10109000800053904D0053800053904F00538000C8
:1010A00053904D014D80904B0053800053904A0067
:1010B00053800053904B0053800053904D00538059
:1010C000005390520053800053904D0053800053C2
:1010D000904A00538000539046029A80014D904AF6
:1010E000014D80904B00A680904D03E78090460014
:1010F000A680904800A680904A00A680904B014DA3
:1011000080904D00A680904F034180905200A680B1
:101110009051014D80904F00A680904D03418090EA
:101120004C00A680904B01F380904A01F3809048D8
:1011300000A680029A904100A680904600A68001F9
:101140004D904600A680F0080B0002020200000944
:101150000400000102020000052400100105240122
:10116000010104240206052406000107058103107D
:10117000004009040100020A0000000705020240C5
:101180000000070583024000000403090412010067
:1011900002EF0201404123368000010102030141B8
:1011A000726475696E6F204C4C430041424C313182
:1011B00030360000921911241FBECFEFDAE0DEBFF7
:1011C000CDBF11E0A0E0B1E0E6ECF1E402C0059093
:1011D0000D92AA3AB107D9F727E0AAEAB1E001C017
:1011E0001D92A733B207E1F718E0CBEDD8E004C0B9
:1011F0002197FE010E94AD20CA3DD107C9F70E9488
:10120000A7190C94E1200C940000680F791F861731
:10121000970721F0FC0110820196F9CF0895CF9233
:10122000DF92EF92FF926B017C0180E1C816D1043E
:10123000E104F10458F0C70124E09695879577956D
:1012400067952A95D1F70E940F09AC018FE0C8225B
:10125000DD248AE0C816D10450F087E5C80EFA01F3
:10126000C192CF01FF90EF90DF90CF90089580E37F
:10127000F5CF8F929F92AF92BF92EF920F93CF9341
:10128000DF934B015C01C02FDE2D80E188169104B5
:10129000A104B10418F42230310584F02150310941
:1012A000E12C0C2FC501B401E4E096958795779564
:1012B0006795EA95D1F70E943909AC01EFE08E22DB
:1012C0009924CA0101968114910429F4D11114C002
:1012D000FA01C08308C0FAE08F16910468F027E590
:1012E000820EFA018082DF91CF910F91EF90BF9033
:1012F000AF909F908F900895E0E38E0EF2CFCF9342
:10130000362F272F6AE070E00E945820AB01C82FCB
:10131000161617063CF4632F722FCA010E947F092C
:10132000382F292FC05DE32FF22FC193CF01CF912A
:101330000895DF92EF92FF920F931F93CF93DF9365
:10134000FB017A01122FD02E6AE070E00E94582033
:10135000DB01EC011A161B0624F082E0E816F1040A
:1013600054F0A7014150510900E0212FBF01CD01E8
:101370000E949909FC01CF010196209711F4DD200C
:1013800051F0C05DC083DF91CF911F910F91FF900D
:10139000EF90DF9008951083F6CFE1E0F0E00E9437
:1013A000E209319728F068517C4F8F4F9F4FF9CF5A
:1013B000AB01FC010E94E209641775078E079F07C5
:1013C000C8F30895ACEAB1E02FB7F8947D918D9100
:1013D0009C9166B52FBFA89B05C06F3F18F47F5F37
:1013E0008F4F9F4F22E0660F771F881F991F2A9506
:1013F000D1F70895FC0180911C07882311F13FB7B4
:10140000F89482E08093E9002091F200822F90E02E
:101410001816190614F481E090E0882339F0289812
:1014200044E640931B074091F1004083222339F0AA
:101430002091F200211103C02BE62093E8003FBF6A
:1014400008958FEF9FEF08952FB7F89483E080936E
:10145000E9009091E800892F807295FF04C0909177
:10146000F20080E4891B2FBF08958091130781113A
:101470000DC082E080930F0784E0809310071092E4
:1014800012071092110781E0809313078FE097E015
:1014900008958F929F92AF92BF92CF92DF92EF9278
:1014A000FF920F931F93CF93DF936C017B018A010F
:1014B00080910B01882309F458C080911C07882370
:1014C00009F453C08091BE0680FF05C08091E00002
:1014D00082608093E000E801B12C8AEFA82E93E0AF
:1014E000892E2AE3922E209711F4BB20B9F10E9495
:1014F000240A811106C0AA94AA20B9F10E94CD093C
:10150000F2CF8C171D0611F00CF08C2F9FB7F894BA
:101510008092E9002091E80025FD02C09FBFE3CF43
:10152000282F30E0C21BD30BF701815020F04191EE
:101530004093F100FACFE20EF31EBB2021F090920F
:10154000E800B12CEBCF8091E80085FDE7CF9092C9
:10155000E800BB24B394209709F3F3CF5D9884E6A9
:101560008093BD06101611063CF081E090E0F60174
:101570009383828310E000E0C801DF91CF911F9137
:101580000F91FF90EF90DF90CF90BF90AF909F9022
:101590008F900895CF93DF931F92CDB7DEB7698305
:1015A000DC01ED91FC910280F381E02D41E050E0FF
:1015B000BE016F5F7F4F09950F90DF91CF91089526
:1015C00083E08093E9008091F200882319F08AE398
:1015D0008093E80008950E94240A90E00895CF9334
:1015E000DF931F92CDB7DEB7FC018485958597FD0B
:1015F00008C02FEF3FEF358724870F90DF91CF9101
:101600000895CE0101960E94FA09019719F4898183
:1016100090E0F3CF8FEF9FEFF0CF0F931F93CF9317
:10162000DF931F92CDB7DEB78C01FC0184859585D1
:1016300097FF0BC0CE0101960E94FA09019771F441
:10164000898190E0F80195878487F80184859585E4
:101650000F90DF91CF911F910F9108958FEF9FEF22
:10166000F1CFFC018485958597FD0BC09FB7F89459
:1016700082E08093E9008091F2009FBF90E00196A4
:1016800008959FB7F89482E08093E9008091F2007A
:101690009FBF90E008954091B9065091BA062091FD
:1016A000B7063091B80642175307B4F49091E8009A
:1016B0009570E1F39091E80092FD19C08093F100DC
:1016C0008091B9069091BA0601968F739927892B5C
:1016D00019F48EEF8093E8008091B9069091BA06D4
:1016E00001969093BA068093B90681E0089580E050
:1016F0000895EF92FF920F931F93CF93DF93F82EED
:10170000192FE62E042F81E0860F880F0E944B0BC5
:1017100083E00E944B0BCF2DD12FEC0EFD2EF11C40
:10172000CE15DF05B9F007FF13C0FE0184910E94BA
:101730004B0B182F80E00E944B0B812321968111C7
:10174000EFCFDF91CF911F910F91FF90EF90089510
:101750008881EDCF81E0F5CFDF92EF92FF920F937A
:101760001F93CF93DF93D82E8A01EB017B01E40E08
:10177000F51ECE15DF0559F0D7FE12C0FE0184918B
:101780000E944B0B21968111F4CF0FEF1FEFC80180
:10179000DF91CF911F910F91FF90EF90DF9008950F
:1017A0008881EECF0F931F93CF93DF931F92CDB716
:1017B000DEB782E0898342E450E067E471E180E8CB
:1017C0000E94AC0B0E94350ADC0112960D911C910F
:1017D0000115110589F0D801ED91FC910280F3818A
:1017E000E02DBE016F5F7F4FC801099597FD04C0D2
:1017F000F80100851185ECCF89810F90DF91CF91A1
:101800001F910F910895615030F02091F100FC017B
:1018100020830196F8CF289884E680931B070895CB
:10182000282F30E0F901E55AF64F9491F901E75578
:10183000F64F84912A52364FF9012491222309F45C
:1018400030C09923E9F091509F30D0F4E92FF0E0B7
:10185000E45DF34F0C94AD205A0C5E0C3B0C520C23
:10186000560C400C400C400C610C670C6B0C6F0C60
:10187000750C400C790C909180009F7790938000BC
:10188000E22FF0E0EE0FFF1FE853F64FA591B49161
:101890009FB7F894EC91611132C080958E238C93A0
:1018A0009FBF0895909180009F7DE8CF9091800028
:1018B000977FE4CF94B59F7794BDE2CF94B59F7D99
:1018C000FBCF909190009F7790939000D9CF90910B
:1018D00090009F7DF9CF90919000977FF5CF9091E8
:1018E000C0009F779093C000CBCF9091C0009F7DA8
:1018F000F9CF9091C200977F9093C200C1CF8E2BF9
:10190000CECFCF93DF9390E0FC01E755F64F2491C3
:101910008A52964FFC0184918823D1F090E0880F81
:10192000991FFC01E658F64FA591B491FC01E853CC
:10193000F64FC591D491623071F49FB7F8943C9101
:10194000822F809583238C93E8812E2B28839FBF41
:10195000DF91CF9108958FB7F894EC912E2B2C93B3
:101960008FBFF6CFAB01FC010E94E2094150510943
:10197000E109F10928F068517C4F8F4F9F4FF6CF56
:10198000AB01FC010E94E209641775078E079F07EF
:10199000C8F308954115510591E069077105F0F00C
:1019A00096E076956795579547959A95D1F793E088
:1019B0004150510961097109811112C08091910052
:1019C000887F892B809391005093990040939800D1
:1019D00080917100826080937100089591E0E8CF5A
:1019E00080918100887F892B8093810050938900AA
:1019F0004093880080916F00826080936F0008950B
:101A00006F927F928F929F92AF92BF92CF92DF920E
:101A1000EF92FF920F931F93CF93DF9390904E021C
:101A200091107AC02091E20126FF0EC080914A02F7
:101A300090914B02811533E6930734F488539F4FFE
:101A400090934B0280934A0225FF0EC080914A0278
:101A500090914B02811542E0940734F0885C910923
:101A600090934B0280934A02C0914C02D0914D0258
:101A70000D2F112707FD1A9580914A0290914B0274
:101A800044E0490FEBEEF1E030E020E058015DE08A
:101A9000A50EB11C642E440F7708730148E1E40ED3
:101AA000F11C8080882009F446C0D4806D2D7D2DE6
:101AB000770F770B6A157B05F4F56B0154E0C50EC3
:101AC000D11C0C151D05BCF5D280AD2DBD2DBB0F55
:101AD000BB0BAE15BF057CF56D0144E0C40ED11CF7
:101AE0006C147D0444F540915102415040935102E1
:101AF00047E0429FF001439FF00D1124E551FE4F56
:101B00001082982C90924E022091E30123FD1BC07D
:101B1000AC01545E22FD19C0DF91CF911F910F914E
:101B2000FF90EF90DF90CF90BF90AF909F908F90FD
:101B30007F906F9008952F5F3F4F37962A30310581
:101B400009F0AFCFDFCFAC0156509091E101907416
:101B5000C90FD11D90E080E0CD2B11F480E091E021
:101B6000E1E3F2E030E020E0608161113FC065E038
:101B7000629FF001639FF00D1124EF5CFD4F5283D3
:101B800041839483838391E09083809150028F5F9F
:101B9000809350028091EA01882309F4BDCF80919F
:101BA0002C078111B9CF90932C0782E490E0A0E03C
:101BB000B0E080932D0790932E07A0932F07B0934A
:101BC000300742EB5EE560E070E081E0DF91CF91AD
:101BD0001F910F91FF90EF90DF90CF90BF90AF904B
:101BE0009F908F907F906F900C94CA0C2F5F3F4F07
:101BF00035962530310509F0B7CF8ECF95E04902F3
:101C0000A001112490E8699FD001112496E0899FDA
:101C1000A00DB11D1124A954BD4F90E080E04B5D93
:101C20005C4FFA01E80FF91FE491ED9301968530BE
:101C30009105B9F708952F923F924F925F926F925C
:101C40007F928F929F92AF92BF92CF92DF92EF924C
:101C5000FF920F931F93CF93DF93FA01B490DA01B1
:101C600012964F5F5F4FFA016490062E000C770BBF
:101C700010E0AA24A394082E000C990B161509F461
:101C80004AC09B0143E0359527954A95E1F7369583
:101C9000322F222737952795FB01E770FF270A2D62
:101CA00001C0000FEA95EAF7FD0150E01901280E86
:101CB000391EDF015B1558F56034710540F58490DD
:101CC000B0E0A0E020E8922EC52FD0E06C01CC0E51
:101CD000DD1E2E01420C531C7601EA0EFB1E20E88D
:101CE000E216F10460F4F82CF92049F07201EA0ED2
:101CF000FB1EE701C954DD4F7880702A78829694E4
:101D00001196A830B10541F7585F3196D2CF1F5FC9
:101D10006F5F7F4FB3CFDF91CF911F910F91FF90F6
:101D2000EF90DF90CF90BF90AF909F908F907F907B
:101D30006F905F904F903F902F9008956091E101D8
:101D400066FB662760F981E0682780914D02680F85
:101D5000ECE0E60F8E2F877021E001C0220F8A95FC
:101D6000EAF7E695E695E69580E8E89FF00111240C
:101D7000E954FD4F80E09191DF011197922B9C93E4
:101D80008F5F8038C1F780914B0290914E02911184
:101D900004C045E259E00C941B0EE0914F0291E023
:101DA0009E0F90934F02F0E093E0F695E7959A9599
:101DB000E1F7EE70FF27EA5DFE4F408151810E94FE
:101DC0001B0E80914F02803718F080E780934F02FE
:101DD0000895E7EBF2E081918EBD00000DB407FE9F
:101DE000FDCF8EB586E0E73BF807A9F708954F923F
:101DF0005F926F927F928F929F92AF92BF92CF929B
:101E0000DF92EF92FF920F931F93E1EBF1E00485D5
:101E1000158526853785C480D580E680F780408487
:101E200051846284738480809180A280B380E8941E
:101E3000B7F8D701C60184259525A625B72588259D
:101E40009925AA25BB25AC01BD01440F551F661F6E
:101E5000771F4C015D0184269526A626B726D90159
:101E6000C801B695A79597958795082719272A271A
:101E70003B27082519252A253B25C082D182E282ED
:101E8000F3820487158726873787B901A801417037
:101E900055276627772770956095509541955F4F38
:101EA0006F4F7F4F80899189A289B38984239523BD
:101EB000A623B72384259525A625B7258483958356
:101EC000A683B78384899589A689B789482359232E
:101ED0006A237B23D901C801072E7AE0880F991F56
:101EE000AA1FBB1F7A95D1F7702D88259925AA25A1
:101EF000BB2584279527A627B72780879187A287A8
:101F0000B387892F9A2FAB2FBB278C0D9D1DAE1D3C
:101F1000BF1D082719272A273B2781709927AA2741
:101F2000BB27B095A095909581959F4FAF4FBF4F20
:101F3000C08CD18CE28CF38CBC01CD016C217D2155
:101F40008E219F2160277127822793271F910F9150
:101F5000FF90EF90DF90CF90BF90AF909F908F90C9
:101F60007F906F905F904F9008952F923F924F9285
:101F70005F926F927F928F929F92AF92BF92CF9219
:101F8000DF92EF92FF920F931F93CF93DF931C0189
:101F9000DB01FA0110E2912C812C8DE2F82E2C91BC
:101FA000211115C0D1011C92DF91CF911F910F918A
:101FB000FF90EF90DF90CF90BF90AF909F908F9069
:101FC0007F906F905F904F903F902F9008952532B3
:101FD00049F0ED012196D1012C936F01F101319669
:101FE0001F0175C011962C911197ED012033B9F1A5
:101FF000229630ED320F3A3008F08FC0822E220F39
:10200000990840E3841A91085E015FEFA51AB50AAA
:1020100028812C3609F448C03CF5233609F474C0F5
:10202000243609F0BFCFE50121E06F0182E0C80E40
:10203000D11C8081918197FF08C09195819591096C
:10204000D101FC92F10131961F01222329F101E017
:10205000212FA401B1010E9499091C0138C02396C7
:1020600010E312962C91C5CF233709F43FC02837CF
:1020700009F098CFE50121E0DF016D917D916D01BF
:1020800090E080E0222361F0EE24E394012F94019C
:10209000A1010E943909E1CFB1010E947F09DDCF82
:1020A000A1010E940F09D9CF6F01B4E0CB0ED11C62
:1020B0004080518062807380EE24E394012F94016C
:1020C000A101C301B2010E9439091C01E501F60119
:1020D000DE0165CF6F0144E0C40ED11C4080518009
:1020E00062807380A101C301B201DBCFE5016F0102
:1020F00052E0C50ED11CA081B181F1011F012D91CB
:10210000222329F32193FACFE5016F0182E0C80E63
:10211000D11C2081D1012C9361CF2C36D9F23CF413
:10212000233699F3243609F03DCF20E07ECF2337C4
:10213000F1F2283709F036CF20E09ECF809152028D
:102140008F5F80935202982F990F990F965F90930B
:10215000530226EF829F802D11248A5680935502C8
:10216000953618F094E690935302823318F482E384
:10217000809355020895DF92EF92FF920F931F9381
:10218000CF93DF9380915302882329F180915402E9
:10219000882321F08150809354021DC00E94F70EC5
:1021A0002091550230E050E040E00E946C20672B07
:1021B000682B692B81F4E2E5F2E0D0E0C0E0858194
:1021C0008E010F5F1F4F882309F4B1C1E8013B96D0
:1021D00008301105A1F7DF91CF911F910F91FF906A
:1021E000EF90DF9008958BE0D82EDC9EC001DD9E3D
:1021F000900D11249C012E5A3D4F7901F901168250
:1022000080E09AEE908787830E94F70ED09EF001BF
:10221000D19EF00D1124EE5AFD4FDC01CB018F71E0
:102220009927AA27BB274A96A11DB11DBA2FA92F0E
:10223000982F88279183808380915202FAE08F9FA4
:10224000C0011124C296F7019287818787E18587B3
:1022500086E08687DBC0BBE0DB2EDC9EC001DD9E16
:10226000900D11249C012E5A3D4F790181E0F90116
:10227000868380E09FE7908787830E94F70ED09E39
:10228000F001D19EF00D1124EE5AFD4FDC01CB017F
:102290008F719927AA27BB274A96A11DB11DBA2F76
:1022A000A92F982F8827918380832091520236EF9F
:1022B0003203C0011124C297C6CFFBE0DF2EDC9EA3
:1022C000C001DD9E900D11249C012E5A3D4F7901D5
:1022D00082E0F901868380E099EE908787830E94EF
:1022E000F70ED09E9001D19E300D112489010E5A17
:1022F0001D4F2CE030E040E050E00E946C20625D19
:102300007F4F8F4F9F4F982F872F762F6627F8018B
:102310007183608380915202FAE08F9FC001112483
:10232000C296F7019287818788E191CF5BE0D52E35
:10233000DC9EC001DD9E900D11249C012E5A3D4F64
:10234000790183E0F901868380E09FE790878783A6
:102350000E94F70ED09E9001D19E300D112489016C
:102360000E5A1D4F2CE030E040E050E00E946C20FF
:10237000625D7F4F8F4F9F4F982F872F762F662755
:10238000F801718360832091520236EF3203C0015D
:102390001124C297C6CF3BE0D32EDC9EC001DD9E48
:1023A000900D11249C012E5A3D4F790184E0F901D2
:1023B000868380E093EF908787830E94F70ED09EFC
:1023C0009001D19E300D112489010E5A1D4F25E038
:1023D00030E040E050E00E946C20675E7F4F8F4FFE
:1023E0009F4F982F872F762F6627F8017183608380
:1023F000809152022AE0829FC001112484529F4F93
:10240000F701928781878EE0858726878BE08C9FF6
:10241000F0018D9FF00D1124EE5AFD4F81E0858370
:10242000809156028F5F80935602809153028150B3
:102430008093530285E0AFCE8BE0D82EDC9EC001A6
:10244000DD9E900D11249C012E5A3D4F790185E0AF
:10245000F901868380E09FE7908787830E94F70ECB
:10246000D09E9001D19E300D112489010E5A1D4F2E
:1024700025E030E040E050E00E946C20675E7F4F36
:102480008F4F9F4F982F872F762F6627F8017183E4
:1024900060832091520236EF3203C00111248C5D1B
:1024A0009109F701928781878EE085878AE0D1CEF6
:1024B0008BE08C9FF0018D9FF00D1124EE5AFD4FA3
:1024C00096E0968320E034EF30872783809FD00109
:1024D000819FB00D1124AE5ABD4F80E094E18D93E1
:1024E0009C9388E290E0928781878DE085878CE0DD
:1024F000868717868BCF8BE08C9FF0018D9FF00D28
:102500001124EE5AFD4F97E0968320E03FE7308795
:102510002783809FD001819FB00D1124AE5ABD4FFB
:1025200080E094E18D939C9388ED9FEFDCCF0E9437
:10253000F70E22E130E040E050E00E946C20DC0128
:10254000CB010597A109B1098D309105A105B10510
:1025500008F049CEFC01E155FD4E0C94AD202B1145
:102560002B112B112B112B115D115D119611961151
:10257000CB111C1258127B120F931F93CF93DF9332
:10258000C2E5D2E017E001E08D81882309F44BC059
:102590008E818650823008F446C00E94F70E20914A
:1025A000550248E0249F90011124032E000C440B97
:1025B000550B0E946C20672B682B692BA1F580912D
:1025C000520290E02E8124502230C0F50A96880FE6
:1025D000991F2D85269530E0322F22274F8158856F
:1025E000240F351FA901555041155647E0F4EBEE75
:1025F000F1E050E040E06081611122C06B857C8594
:10260000149FF001159FF00D1124E551FE4F328308
:102610002183748363839683858300838091510231
:102620008F5F809351022B9682E0CA3AD80709F057
:10263000ABCFDF91CF911F910F9108954496C7CFF3
:102640004F5F5F4F37964A305105A9F6ECCF3F9266
:102650004F925F926F927F928F929F92AF92BF92B2
:10266000CF92DF92EF92FF920F931F93CF93DF935E
:10267000C2E5D2E04AEA642E42E0742E55E0352EDF
:102680004424439463E2862E912CA12CB12C8D819D
:10269000882361F15E808AEF850D823080F4EF85BA
:1026A00081E08E0F8F87F0E0EB5DFD4FE4918B852D
:1026B0009C858E0F911DE7FD9A959C878B878F8156
:1026C000988529853A85820F931F98878F83892F54
:1026D000990F990B9C01285E3F4F28393105E0F096
:1026E0001D82809156028150809356022B966C1663
:1026F0007D0669F6DF91CF911F910F91FF90EF90CA
:10270000DF90CF90BF90AF909F908F907F906F9011
:102710005F904F903F9008955E854D852C85022FE8
:10272000122F110F110BE1E3F2E030E020E0D801AD
:10273000A50FB11D57FDBA95BC01640F711D47FD72
:102740007A954081442309F45CC04481E42EF42E40
:10275000FF0CFF08EA16FB060CF053C0A701495F07
:102760005F4F041715070CF04CC04281C42ED42EC5
:10277000DD0CDD08C616D7060CF043C0A6014A5F83
:102780005F4F84179507ECF580915002815080933C
:102790005002329EF001339EF00D1124EF5CFD4F8C
:1027A00010821D8280915602815080935602852DA1
:1027B00090E09595879501962091B3023091B402EF
:1027C000820F931F9093B4028093B3028091EA0129
:1027D000882309F48BCF80912C07811187CF4092F9
:1027E0002C0780922D0790922E07A0922F07B0926F
:1027F000300742E952EB60E070E081E00E94CA0CD1
:1028000075CF2F5F3F4F35962530310509F099CFB1
:102810006DCFCF93DF93C2E5D2E08D81882361F045
:10282000EE81F0E0EE0FFF1FEA5EFE4F4081518126
:102830006C8588850E941B0E2B9682E0CA3AD807C9
:1028400061F7DF91CF9108950F931F93CF93DF939B
:102850008091E10190E024E0959587952A95E1F734
:1028600063E070E00E945820CBEED1E08C01000FB5
:10287000111F005F1E4F8881882339F0F8014081C5
:1028800051816C818A810E941B0E2796F2E0C13330
:10289000DF0789F7DF91CF911F910F910895209164
:1028A0005102EBEEF1E08081882369F0838194810D
:1028B00045815681841B950B9483838381159A40AF
:1028C00014F421501082379682E0E133F80759F76B
:1028D0002093510208950F931F93CF93DF93C091DC
:1028E000E101C6FBCC27C0F981E0C82701E312E073
:1028F000D0E0CC0FDD1FC45FDE4FF801808188235C
:1029000031F048815981648182810E941B0E0B5FE6
:102910001F4FF2E00A341F0781F7DF91CF911F911B
:102920000F91089520915002E1E3F2E08081882325
:1029300051F0838194818896948383838115904498
:1029400014F021501082359682E0EA34F80771F7CE
:10295000209350020895EFE6F0E080818D7F808320
:10296000ADE1B7E05796ED91FC915897908159965B
:102970008C918095892380830895682FF999FECFE3
:102980008091AF029091B0029C012F5F3F4F309336
:10299000B0022093AF020C942E20F999FECF8091C3
:1029A000AF029091B0029C012F5F3F4F3093B00275
:1029B0002093AF020C9426200F931F93CF93DF93A5
:1029C000CDB7DEB7A8970FB6F894DEBF0FBECDBF68
:1029D0000FA5AE014D5C5F4F69A97AA9CE010196A2
:1029E0000E94B50F102FE12FE01B81E090E08C0FCB
:1029F0009D1F8E0F911DFC014081442341F0153134
:102A000020F468A9812F0E94FE0D1F5FECCFA896CD
:102A10000FB6F894DEBF0FBECDBFDF91CF911F91EF
:102A20000F910895CF93DF93CDB7DEB7A8970FB678
:102A3000F894DEBF0FBECDBFAE01435D5F4FFA011C
:102A400061917191AF01CE0101960E94B50F8E0187
:102A50000F5F1F4FF12CF80141918F01442349F082
:102A6000F4E1FF1520F060E08F2D0E94FE0DF3943D
:102A7000F2CF0E94E90EFFCF1F920F920FB60F9276
:102A800011248F939F938091E1009091E100937FB7
:102A90009093E10083FF0FC01092E90091E09093C2
:102AA000EB001092EC0092E39093ED0010921C0763
:102AB00098E09093F00082FF22C093E09093E900A9
:102AC0009091F200992319F09AE39093E800909185
:102AD000BD06992341F09091BD0691509093BD069B
:102AE000911101C05D9A90911B07992341F090913B
:102AF0001B07915090931B07911101C0289A84FFE6
:102B000018C08091E2008E7E81608093E200809107
:102B1000E1008F7E8093E1008091BE068E7E806111
:102B20008093BE069F918F910F900FBE0F901F90C4
:102B3000189580FFF7CF8091E2008E7E80618093B0
:102B4000E2008091E1008E7E8093E1008091BE06DC
:102B50008E7E8160E5CF1F920F920FB60F921124E7
:102B6000CF92DF92EF92FF920F931F932F933F9399
:102B70004F935F936F937F938F939F93AF93BF9385
:102B8000EF93FF93CF93DF93CDB7DEB76C97DEBFA4
:102B9000CDBF1092E9008091E80083FF25C068E076
:102BA000CE0145960E94030C82EF8093E8008D8948
:102BB00087FF39C09091E80090FFFCCF982F907666
:102BC00009F034C19E894F89588D2F89F88C911155
:102BD00031C0803861F58091BC068093F10010927D
:102BE000F1008EEF8093E8006C960FB6F894DEBF8C
:102BF0000FBECDBFDF91CF91FF91EF91BF91AF910C
:102C00009F918F917F916F915F914F913F912F9104
:102C10001F910F91FF90EF90DF90CF900F900FBE1C
:102C20000F901F9018959EEF9093E800C7CF1092D9
:102C3000F100D5CF913059F48111D3CF41305105F6
:102C400081F68091BC068D7F8093BC06CACF9330FD
:102C500049F48111C6CF4130510519F68091BC0667
:102C60008260F2CF953041F48091E80080FFFCCF84
:102C700020682093E300B5CF963009F0A9C00B8DF2
:102C80001C8D22E01092E9001092BA061092B9064B
:102C9000F2122EC01092B8061092B7060E94D20B04
:102CA0001F8299E09983FA8291E09E8390EA988747
:102CB0009AEF99872091B9063091BA06275F3F4F66
:102CC0003C832B838D831092E9001092BA061092F8
:102CD000B9061093B8060093B70649E050E0BE016C
:102CE0006F5F7F4F80E00E94AC0B0E94D20B79CFC8
:102CF0001093B8060093B7060E94350ADC011296BD
:102D00000D911C910115110509F451C1D801ED91E6
:102D1000FC910480F581E02DBE016B5E7F4FC80100
:102D20000995009709F03EC1F80100851185EACFA9
:102D3000F3E0FF120EC08F89882309F440C082306F
:102D400061F440E867E08BEA91E10E94790B811120
:102D500048CF81E28093EB0047CF813029F440E8EF
:102D60006BE08FE991E1F1CF833099F70E94350A4A
:102D7000DC011296ED90FC908E010F5F1F4F6801F1
:102D8000E114F10479F0D701ED91FC910680F7810F
:102D9000E02DB801C7010995080F111DF701E08466
:102DA000F184EECFD8011C92F60101900020E9F7E2
:102DB0003197BF016C197D0940E0C601C6CF69E8B3
:102DC00071E1FB01449150E080E80E94AC0B09CF17
:102DD000973009F4BECF983021F481E08093F10060
:102DE00000CF993009F0FDCE837009F0B2CFE7E350
:102DF000F1E081E031E096E32191222371F08093AC
:102E0000E9003093EB00DF0111972C912093EC0047
:102E10009093ED008F5F873079F78EE78093EA001B
:102E20001092EA008F8980931C07DBCE8B8D9C8DDE
:102E30001092E9001092BA061092B9069093B80663
:102E40008093B706898D811192C08E899D89913AB0
:102E500049F4813209F07DCF47E050E064E071E051
:102E600080E0B3CF913209F074CF833269F48F8957
:102E7000988DB0E0A0E08093000190930101A093B1
:102E80000201B0930301ADCE803269F48091E80075
:102E900082FFFCCF67E084E091E00E94030C8BEF9F
:102EA0008093E8009ECE823209F09BCE8F8980937A
:102EB0000B01EEEFFFE7859194918B3F9C4D51F113
:102EC000E0E0F8E08091040190910501A0910601F5
:102ED000B0910701803B9440A105B105F1F48091C8
:102EE0000B0180FD1AC0EE3F8AE0F80789F587E7FD
:102EF00097E791838083809160008093BB0688E18F
:102F00009BE00FB6F894A895809360000FBE909355
:102F1000600067CEEEEFFAE0D5CF808191818737F0
:102F2000974709F05ECEA8958091600088618093F4
:102F300060008091BB0680936000EE3F2AE0F207BC
:102F400089F08091FE0A9091FF0A9183808349CE97
:102F5000808191818737980751F29093FF0A80937F
:102F6000FE0AC5CF1092FF0A1092FE0A3ACE0E94C6
:102F7000350ADC0112960D911C910115110509F419
:102F8000E8CED801ED91FC910190F081E02DBE01D9
:102F90006B5E7F4FC8010995811123CEF801008532
:102FA0001185EBCF181619060CF41BCED2CEF1E02A
:102FB000FF12BECE6DE871E104CF0F920FB68F9372
:102FC0009F93EF93FF938091AB018D5F8D3708F056
:102FD0008D578093AB01EDECF1E080818E4F8083C3
:102FE00091819F4F918382818F4F828383818F4F05
:102FF0008383ECEAF1E080818F5F808381818F4F52
:10300000818382818F4F828383818F4F83838FB1AE
:103010008F6066991C9B88278F3681F48091AA0166
:10302000981B963068F0E0E0F8E087E780838183C2
:1030300088E180936000F0936000FFCF9093AA0135
:10304000FF91EF919F918F910FBE0F9018951F9256
:103050000F920FB60F9211242F933F934F935F93CC
:103060006F937F938F939F93AF93BF93EF93FF9350
:10307000E0913407F09135078081909136078927D8
:10308000808380912C078823D9F080912D0790911F
:103090002E07A0912F07B09130070197A109B10920
:1030A00080932D0790932E07A0932F07B09330079E
:1030B000892B8A2B8B2B21F40E94AB1410922C07A6
:1030C000FF91EF91BF91AF919F918F917F916F9100
:1030D0005F914F913F912F910F900FBE0F901F90D6
:1030E00018951F920F920FB60F921124CF92DF9274
:1030F000EF92FF922F933F934F935F936F937F9342
:103100008F939F93AF93BF93CF93DF93EF93FF93EF
:1031100080911E07882349F0E0913107F091320732
:103120008081909133078927808380912007909137
:103130002107A0912207B09123070197A109B109A6
:103140008093200790932107A0932207B093230731
:10315000892B8A2B8B2B09F063C0C1E0C12C44E280
:10316000D42E44EFE42EF12CE0912A07F0912B07A6
:10317000CF01019690932B0780932A07A4912A2FC1
:10318000207FDA2FDF70203909F461C088F52038FC
:1031900009F48DC027FDB6C03296F0932B07E0935B
:1031A0002A07FC018491BA2FA82F2091240730917F
:1031B000250740912607509127070E94B3206C50A5
:1031C0007E4F8F4F9F4F28EE33E040E050E00E944B
:1031D0006C20211531054105510509F486C0209365
:1031E000200730932107409322075093230718C0EC
:1031F000203E09F471C0203F69F6809171008D7FF7
:1032000080937100E0913107F091320790818091B5
:1032100033078095892380830E94AB1410921D0789
:10322000FF91EF91DF91CF91BF91AF919F918F91DE
:103230007F916F915F914F913F912F91FF90EF9010
:10324000DF90CF900F900FBE0F901F901895329681
:10325000F0932B07E0932A07FC019491D13021F4DD
:1032600080912C07811180CFE92FF0E0EE0FFF1F36
:10327000EB5DF74F2591349150E040E0D11108C04B
:103280002093240730932507409326075093270760
:10329000ED2FF0E0E35EF84FC183C701B6010E9455
:1032A0008E20BA01A9018D2F0E94CA0C5DCF8D2FEF
:1032B00090E0FC01E35EF84F1182FC01EE0FFF1F6E
:1032C000E80FF91FE35EF84FA489B5899C918689C0
:1032D000809589238C9348CF809128079091290766
:1032E00090932B0780932A073FCF81E090E0A0E0E6
:1032F000B0E08093200790932107A0932207B0931A
:1033000023078ECF2091280730912907821B930B2A
:103310009F938F931F92AF938EE991E09F938F932A
:103320000E941215EFEBF6E01382128288EE93E012
:10333000A0E0B0E084839583A683B78381E491E025
:10334000918380838FEF9FEF958784870895CDB712
:10335000DEB72C97DEBFCDBF789483E084BD83E0D9
:1033600085BD81E080936E00E1E8F0E083E080833A
:10337000E0E881E08083E1E983E08083E0E981E0C7
:103380008083E1EC87E08083E3EC81E08083E0EC04
:1033900082E08083E2EC81E08083EAE787E080835B
:1033A0008068808310921C071092BC061092BE06A3
:1033B0008091D70081608093D70080EA8093D80005
:1033C00089B5806189BD89B5826089BD09B400FE77
:1033D000FDCF0E94CD098091D8008F7C80618093C1
:1033E000D8008091E000807F8093E0008091E10030
:1033F0008E7E8093E1008DE08093E200559A209AC2
:103400008091640080648093640080916400816096
:103410008093640080916400806880936400809150
:103420006400826080936400809165008160809375
:10343000650060E074E087EB92E00E9405098FB6BA
:103440008982F8948091B001811127C0E7EEF9E0FC
:103450008491EAEBF9E09491E82FF0E0EE0FFF1F82
:10346000E658F64FA591B491EC91E92321F461E07F
:1034700081E10E94100C61E081E10E94810C8CB519
:1034800080618CBD8CB580648CBD61E08FE00E9452
:10349000810C61E080E10E94810C8091B0018F5F1E
:1034A0008093B00199809FBE8CB58C7F8CBD8DB50B
:1034B00081608DBD61E084E00E94810C61E08CE060
:1034C0000E94810C61E086E00E94810C61E086E050
:1034D0000E94100C61E070E080E090E00E94B20C6D
:1034E00060E086E00E94100C6AE070E080E090E00E
:1034F0000E94B20C61E086E00E94100CE2EEF9E05E
:10350000E491F0E0EE0FFF1FE853F64FA591B49160
:10351000EAEDF9E0E491F0E0EE0FFF1FE853F64F1B
:1035200065917491E5EBF9E08491EDEAF9E094910D
:103530002C91282B2C93FB013081292F20952323BC
:1035400020832C91809528232C93E8E8F9E029EA40
:1035500039E044914EBD00000DB407FEFDCF4EB5DD
:1035600031962E173F07A9F7FB012081922B9083FC
:10357000EC918E238C9361E170E081ED91E00E94EB
:1035800005098CE38093D10180E18093DD016AE13C
:1035900070E08DE197E00E94050961E085E00E94FE
:1035A000810CEBEDF9E0E491F0E0EE0FFF1FE85342
:1035B000F64F859194919093320780933107EEEA0C
:1035C000F9E0E491E093330761E08DE00E94810C23
:1035D000E3EEF9E0E491F0E0EE0FFF1FE853F64F61
:1035E000859194919093350780933407E6EBF9E049
:1035F000E491E0933607109290001092910010929F
:1036000080001092810080919100886080939100E9
:103610008091910081608093910080918100886009
:1036200080938100809181008160809381008091EE
:103630006500877F8093650080916400877F809319
:10364000640062E070E08FEA92E00E94050965E0A4
:1036500070E082EE91E00E94050962E084E10E9440
:10366000810C62E083E10E94810C62E082E10E94B1
:10367000810C62E085E10E94810C62E087E00E949B
:10368000810C62E088E00E94810C8BE992E1ACE75A
:10369000B6EF8093B1019093B201A093B301B093C0
:1036A000B401C090C101D090C201E090C301F0907C
:1036B000C401C092B501D092B601E092B701F09278
:1036C000B8018090C5019090C601A090C701B0904C
:1036D000C80189829A82AB82BC828092B9019092A1
:1036E000BA01A092BB01B092BC018091C901909136
:1036F000CA01A091CB01B091CC018093BD01909300
:10370000BE01A093BF01B093C001812C912C540144
:103710008394C40183709927F4013197E370FF27E4
:10372000EE0FFF1FEE0FFF1FEF54FE4F4080518042
:1037300062807380FC01EE0FFF1FEE0FFF1FEF543E
:10374000FE4FA3019201AEE1569547953795279517
:10375000AA95D1F7242535254625572565E679E82C
:1037600087E09CE60E943C20680D791D8A1D9B1D08
:1037700000811181228133810627172728273927C5
:1037800000831183228333832FEF821A920AA20AC5
:10379000B20A38E083169104A104B10409F0B9CF4C
:1037A0008091B1019091B201A091B301B091B401A7
:1037B000BF77892B8A2B8B2B09F055C08091B501DF
:1037C0009091B601A091B701B091B801892B8A2BD5
:1037D0008B2B09F048C08091B9019091BA01A0915A
:1037E000BB01B091BC01892B8A2B8B2BE1F5809119
:1037F000BD019091BE01A091BF01B091C001892B84
:103800008A2B8B2B81F584E590E0A0E0B0E08093DB
:10381000B1019093B201A093B301B093B40189E4D4
:1038200090E0A0E0B0E08093B5019093B601A09342
:10383000B701B093B8018EE490E0A0E0B0E08093CF
:10384000B9019093BA01A093BB01B093BC0189E583
:1038500090E0A0E0B0E08093BD019093BE01A09302
:10386000BF01B093C0014091B1015091B20160918C
:10387000B3017091B4014D835E836F8378870091AB
:10388000BD011091BE012091BF013091C001409057
:10389000B5015090B6016090B7017090B801809169
:1038A000B9019091BA01A091BB01B091BC0158E05F
:1038B000252E312C4D815E816F8178857F774C017B
:1038C0005D0184249524A624B724482559256A251A
:1038D0007B254A015B01880C991CAA1CBB1C48254E
:1038E00059256A257B2549875A876B877C8748013C
:1038F0005901B694A7949794879484269526A62672
:10390000B726082519252A253B25B901A8014170AC
:1039100055276627772770956095509541955F4F9D
:103920006F4F7F4F4D835E836F8378874A015B01C2
:103930008C209D20AE20BF2088269926AA26BB2653
:10394000D901C8014AE0880F991FAA1FBB1F4A95D9
:10395000D1F749855A856B857C85482759276A2781
:103960007B2749875A876B877C8749815A816B817E
:103970007C818D819E81AF81B885482359236A233C
:103980007B2389859A85AB85BC8584279527A627C7
:10399000B727E1E02E1A31084D825E826F82788669
:1039A0002114310409F075C00093BD011093BE01CC
:1039B0002093BF013093C0014092B1015092B201F7
:1039C0006092B3017092B4018092B5019092B601F9
:1039D000A092B701B092B8018093B9019093BA0157
:1039E000A093BB01B093BC0162E070E085EB92E074
:1039F0000E9405090AE611E0E0E18E2E912C412C8F
:103A0000512C3201439422242A94322C2FB7F8945B
:103A10008091CD019091CE01A091CF01B091D001C4
:103A20002FBF2091DE01222391F02091D801F82FA1
:103A3000F21BF093DC012091D2013091D3012F5F72
:103A40003F4F3093D3012093D2011092DE01409179
:103A5000D4015091D5016091D6017091D70184179E
:103A60009507A607B707C0F4481B423050F083B74C
:103A7000817F83BF83B7816083BF889583B78E7F43
:103A800083BF80E090E0892B09F4C0CF0E94000042
:103A9000BACF240135010ECF2091E1012F5F209391
:103AA000E1012091DD01AC01BD01420F511D611DFD
:103AB000711D4093D4015093D5016093D60170934A
:103AC000D7018093D8019093D901A093DA01B093E4
:103AD000DB0181E08093DE014FB12CB183B130E096
:103AE0002095309553E0359527955A95E1F7287044
:103AF000332790E080959095959587959595879536
:103B000084709927822B4095407F842B3091E2016D
:103B10009091E3019827232F209592239093E3011E
:103B2000282F209523232093E4018093E201907FA6
:103B300021F49091E601911127C08093E5019AE06C
:103B40009093E601807F19F18091E601882319F0B6
:103B500081508093E601F090B50232E0A32EFA1472
:103B600009F4F6C1AF14B0F0FF2009F49BC0BB24E8
:103B7000B394FB1409F4F3C01F92FF9280E991E023
:103B80009F938F930E9412151092E501DBCF109244
:103B9000E601E1CF23E0F21609F415C234E0F31296
:103BA000EBCF0E949E0E0E9409140E946B140E948B
:103BB00024140E94000D0E9427130E94BC120E9430
:103BC000BB100E9492140E944F14809152028A30BE
:103BD00008F437C24CE751E05F934F93FF9287E0C0
:103BE0008F930E94DC140F900F900F900F90809194
:103BF000B4028F938091B3028F931F930F9385E04C
:103C00008F9387E08F930E94DC148091B6028F5FC0
:103C10008093B6020F900F900F900F900F900F901F
:103C20008A3F08F48DC08091B3029091B402209134
:103C3000B1023091B2028217930788F19093B202D9
:103C40008093B1029092B0028092AF0284E40E940D
:103C5000BD1480E50E94BD146091B102F090B202E3
:103C6000F999FECF8091AF029091B0029C012F5F35
:103C70003F4F3093B0022093AF020E942E20F9995B
:103C8000FECF8091AF029091B0029C012F5F3F4F19
:103C90003093B0022093AF026F2D0E942E2010921D
:103CA000B5024CC062E070E087EE91E00E94050929
:103CB00062E070E089EE91E00E94050981E0809366
:103CC000EA0164E070E081EB92E00E940509109245
:103CD000B2021092B1029092B0028092AF020E94A2
:103CE000CD14843441F50E94CD14803521F5F99925
:103CF000FECFC090AF02D090B00256014FEFA41A91
:103D0000B40AB092B002A092AF02C6010E9426206F
:103D1000E82EF12CF999FECF52E0C50ED11CD092BD
:103D2000B002C092AF02C5010E942620F82AF0928C
:103D3000B202E092B10281E08093B5021092B60225
:103D40000E94E90E87EBA82E82E0B82EF501002430
:103D500011921192119211920394D1F792CE9091F7
:103D6000E30197FF07C08091E701882319F0815094
:103D70008093E70194FF07C08091E701823018F437
:103D80008F5F8093E70193FF0AC08091E701813044
:103D900009F4CBC008F4C5C0823009F4CCC045EFAB
:103DA00059E060E082E20E941B0E6091E7016D5FC6
:103DB000683020F44EE386E00E94FE0D66E571E077
:103DC0007F936F9383E08F9388E08F930E94DC143E
:103DD0000F900F900F900F908091E901882309F4C4
:103DE000B1C08FE491E09F938F93ACE5B1E0BF93B6
:103DF000AF9384E08F9388E08F930E94DC140F9040
:103E00000F900F900F900F900F908091EA018823F0
:103E100009F49BC08FE491E09F938F9323E6A22E39
:103E200021E0B22EBF92AF9285E08F9388E08F930E
:103E30000E94DC148091B2028F938091B1028F9323
:103E40001F930F9387E08F931F920E94DC140FB68D
:103E5000F894DEBF0FBECDBF8091E801882309F43E
:103E60006FCF66E070E08AE492E00E94050960E0AE
:103E700072E370934B0260934A0210924D021092CB
:103E80004C026DE570E082E592E00E94050962E077
:103E900070E080E592E00E94050969E170E081E34D
:103EA00092E00E94050966E470E08BEE91E00E94CA
:103EB00005098091E901882381F187EA9AE09093CE
:103EC00029078093280790932B0780932A07409215
:103ED00020075092210760922207709223071092C8
:103EE0002407109225071092260710922707109298
:103EF0001E0710921F0781E080931D07809191009B
:103F0000887F816080939100309299002092980080
:103F1000809171008260809371000E949E1083E006
:103F20000BCF81E08093E8013ACF9091E901892796
:103F30008093E90134CF8091EA0191E08927809351
:103F4000EA012DCF82E591E04ECF82E591E064CF8A
:103F50000E949E0E0E9409140E946B140E94241459
:103F60000E94000D0E9427130E94BC120E94BB10E9
:103F70000E9492140E944F148091B6028F5F80932A
:103F8000B6028F3F39F48091550284518E3140F052
:103F90008093550280914E02882321F084E0CCCE9C
:103FA0008EE1F6CF809153028111CACE80915602E4
:103FB0008111C6CE809151028111C2CE80915202F0
:103FC0008A3060F7AACF0E949E0E0E946B140E9456
:103FD00024140E94000D0E9492140E944F1480919C
:103FE000B60262E10E944C2080FD21C08091520205
:103FF0001F928F93A3E7B1E0BF93AF9384E08F93B9
:1040000097E0F92EFF920E94DC148091B4028F9306
:104010008091B3028F931F930F9385E08F93FF924C
:104020000E94DC140FB6F894DEBF0FBECDBF8091A6
:10403000B6028F5F8093B6028E3708F481CE82E09D
:104040007BCE86E891E09F938F93C8CDF999FECF00
:1040500092BD81BDF89A992780B50895262FF999C8
:10406000FECF1FBA92BD81BD20BD0FB6F894FA9A5B
:10407000F99A0FBE01960895DB018F939F930E94DA
:10408000B320BF91AF91A29F800D911DA39F900D72
:10409000B29F900D11240895991B79E004C0991FD7
:1040A000961708F0961B881F7A95C9F78095089592
:1040B00097FB072E16F4009407D077FD09D00E94D5
:1040C000BE2007FC05D03EF4909581959F4F089542
:1040D000709561957F4F0895A1E21A2EAA1BBB1B14
:1040E000FD010DC0AA1FBB1FEE1FFF1FA217B307C4
:1040F000E407F50720F0A21BB30BE40BF50B661FDA
:10410000771F881F991F1A9469F76095709580959D
:1041100090959B01AC01BD01CF010895052E97FB41
:104120001EF400940E94A52057FD07D00E946C2029
:1041300007FC03D04EF40C94A52050954095309583
:1041400021953F4F4F4F5F4F089590958095709503
:1041500061957F4F8F4F9F4F0895EE0FFF1F059082
:10416000F491E02D09940E94D220A59F900DB49F58
:10417000900DA49F800D911D11240895AA1BBB1BB7
:1041800051E107C0AA1FBB1FA617B70710F0A61B57
:10419000B70B881F991F5A95A9F780959095BC0178
:1041A000CD010895A29FB001B39FC001A39F700DE0
:1041B000811D1124911DB29F700D811D1124911D2F
:1041C0000895F894FFCFFFFFFFFF00E1000000001B
:1041D0000000B500AC00CA00C400BE006C0158016C
:1041E000440130011A010401EA00D000EF01B901D5
:1041F000830183018301B901EF01800100C1808146
:1042000000000000000000CA0A490AEB0AE00A3177
:104210000BEF0A0D0B4F4E004F46460053544152D0
:10422000540042474D20257300534520202573003C
:1042300053434F52452025640057415645202025C1
:104240006400434F4D504C455445210047414D4576
:10425000204F564552005B47616D65206163743D98
:1042600025785D005B536E642025782025785D00FD
:10427000FFFFFFFFFFFFFFFFFFFFFFFFFFFFFFFF4E
:10428000FFFFFFFFFFFFFFFFFFFFFFFFFFFFFFFF3E
:10429000FFFFFFFFFFFFFFFFFFFFFFFFFFFFFFFF2E
:1042A000FFFFFFFFFFFFFFFFFFFFFFFFFFFFFFFF1E
:1042B000FFFFFFFFFFFFFFFFFFFFFFFFFFFFFFFF0E
:1042C000FFFFFFFFFFFFFFFFFFFFFFFFFFFFFFFFFE
:1042D000FFFFFFFFFFFFFFFFFFFFFFFFFFFFFFFFEE
:1042E000FFFFFFFFFFFFFFFFFFFFFFFFFFFFFFFFDE
:1042F000FFFFFFFFFFFFFFFFFFFFFFFFFFFFFFFFCE